:100000000C945D040C947A040C947A040C947A0495
:100010000C947A040C947A040C947A040C947A0468
:100020000C947A040C947A040C947C150C94BE14F1
:100030000C949F1E0C947A040C947A040C947A0409
:100040000C947A040C947A040C947A040C947A0438
:100050000C947A040C945E1E0C947A040C947A042A
:100060000C947A040C947A040C947A040C947A0418
:100070000C947A040C947A040C947A040C947A0408
:100080000C947A040C947A040C947A040C947A04F8
:100090000C947A040C947A040C947A040C947A04E8
:1000A0000C947A040C947A040C947A04A408A4089E
:1000B000D608D6084009E60AE60AE60A5C093A0AC2
:1000C0004B0A4B0AD612FD12A614FD12A6144913B0
:1000D0006C13A61461147114891B8C1B9B1B8F1B42
:1000E000941B991B971B271D2A1D2D1D301D331D89
:1000F000361D391D00000000000000000000000057
:1001000000000000000000000000000000000000EF
:1001100000000000000000007E0F00D4FFFFFFC7BA
:100120000000007800000000000000002A2B2800DA
:100130000000000000000000000000000000002996
:10014000000000002C1E3420212224342627252ED6
:10015000362D3738271E1F2021222324252633330E
:10016000362E37381F0405060708090A0B0C0D0E3A
:100170000F101112131415161718191A1B1C1D2F06
:100180003130232D350405060708090A0B0C0D0E26
:100190000F101112131415161718191A1B1C1D2FE6
:1001A0003130354C01012901043130307C01012B03
:1001B00001043130307C01012B01043130307C01ED
:1001C000012B01043130307C0101290029002B0072
:1001D000E000E100AE5D00001E00140004001D0000
:1001E00001002C001F001A0016001B000100E30094
:1001F00020000800070006000254025421001500E8
:100200000900190002540100220017000A0005002D
:10021000000003530100500300004A000000045393
:1002200001004F1300004D0000004B0023001C0094
:100230000B00110000002C0E240018000D0010000F
:1002400001544E0025000C000E003600E2002C4147
:10025000260012000F00370001002C0027001300B9
:10026000330038005013290035002A0028003400DC
:100270004F130000B25D2B020100010001000000DD
:10028000010001002D020100010001000100310206
:100290003100010001000100010001002E020100F7
:1002A00001000100010001002D000100010001001A
:1002B000010001002E00010000000100010001000A
:1002C0000000010000000100010001000000010029
:1002D0000000010001000100010001000000010018
:1002E00001002F002F022602010001000100300052
:1002F000300227020100010001000100010001009D
:1003000001000100010001000100010001000100E5
:1003100001000100010001000100000001000100D6
:10032000E000E10001000000010001000100010007
:10033000010001003B040100010001000100010077
:1003400001000100010001000100010001000100A5
:10035000010001000100010001001705010001007A
:100360000000010001000100000001000000010088
:100370000100010000000100000001000100010077
:1003800050000100000001000100010051000100C7
:100390000100010001000100520001000100010004
:1003A000010001004F0001000100010001000100F7
:1003B0000100010001000100010001000100010035
:1003C0000100000001000100010001000100000027
:1003D0003A003F0044000100010001003B004000E2
:1003E00045000100010001003C00410068000100DF
:1003F000010001003D004200690001000100010010
:100400003E0043006A00010000000100A800A900AE
:100410000000AA00000001000100AE00000048003A
:1004200000000100010001000100010000000100C6
:1004300001000100010001000100010001000100B4
:10044000010001000100AB000100010001000100FA
:100450000100AC00010001000100010001000100E9
:100460000100010001000100010000000100010085
:100470000100010001000000010001000100010075
:100480000100010001000100010001000100010064
:100490000100010001000100010001000100010054
:1004A0000100010001000100010001000100010044
:1004B0000000010001000100000001000000010037
:1004C0000100010000000100000001000100110016
:1004D00023022E00000001004C00240021001E0019
:1004E000360001003800250022001F00270001000F
:1004F0002502260023002000630001002D002E02AB
:1005000028002B002B120100010001000100010056
:100510000100000005010980A101850319012AB726
:1005200000150126B700950175108100C0050C0962
:1005300001A101850419012AA002150126A0029536
:100540000175108100C005010906A1018506050796
:1005500019E029E7150025019508750181020507B5
:10056000190029EF1500250195F075018102050894
:1005700019012905950575019102950175039101F0
:10058000C00660FF0961A1010962150026FF009500
:1005900020750881020963150026FF009520750863
:1005A0009102C005010906A101050719E029E71517
:1005B00000250195087501810295017508810105E5
:1005C00007190029FF150026FF0095067508810010
:1005D0000508190129059505750191029501750315
:1005E0009101C009025B00030100A0FA09040000A8
:1005F000010301010009211101000122400007054A
:100600008103080001090401000203000000092120
:1006100011010001222200070582032000010705C5
:100620000303200001090402000103000000092166
:1006300011010001226D0007058403200001120151
:100640000002000000089732754901000102000114
:1006500022034500720067006F0044006F007800BD
:10066000200045005A0020005300680069006E0019
:100670006500000028035A00530041002000540088
:100680006500630068006E006F006C006F0067001B
:10069000790020004C006100620073000000040338
:1006A000090400047F3F1F643214643214783C1E36
:1006B0001E140A052223252628292A2C2D2F303204
:1006C000333536383A3B3D3E4042434547494A4C34
:1006D0004E5051535557595A5C5E60626466686962
:1006E0006B6D6F71737577797B7D7F81838587896A
:1006F0008A8C8E90929496989A9C9E9FA1A3A5A76F
:10070000A8AAACAEAFB1B3B4B6B8B9BBBCBEBFC19A
:10071000C2C3C5C6C7C9CACBCCCDCED0D1D2D2D325
:10072000D4D5D6D7D7D8D9D9DADADBDBDBDCDCDC39
:10073000DCDCDDDDDDDDDCDCDCDCDCDBDBDBDADAFC
:10074000D9D9D8D7D7D6D5D4D3D2D2D1D0CECDCC73
:10075000CBCAC9C7C6C5C3C2C1BFBEBCBBB9B8B688
:10076000B4B3B1AFAEACAAA8A7A5A3A19F9E9C9A13
:1007700098969492908E8C8A89878583817F7D7BE1
:1007800079777573716F6D6B6968666462605E5CC2
:100790005A5957555351504E4C4A49474543424088
:1007A0003E3D3B3A3836353332302F2D2C2A29281E
:1007B000262523220001010101010101010102029C
:1007C00002020202020202030303030303030304FF
:1007D00004040404040405050505050606060606CA
:1007E000070707070708080808090909090A0A0A84
:1007F0000B0B0B0C0C0C0D0D0D0E0E0E0F0F0F1026
:1008000010111111121213131414151516161717AF
:10081000181819191A1A1B1B1C1D1D1E1E1F20201B
:10082000212222232424252626272829292A2B2C65
:100830002D2D2E2F30313232333435363738393A88
:100840003B3C3D3E3F404142434445464748494A80
:100850004C4D4E4F50515354555658595A5B5D5E4E
:100860005F616264656668696B6C6D6F70727375E9
:1008700077787A7B7D7E8082838587888A8C8E8F4D
:1008800091939596989A9C9EA0A2A3A5A7A9ABAD7B
:10089000AFB1B3B5B7BABCBEC0C2C4C6C9CBCDCF69
:1008A000D1D4D6D8DBDDDFE2E4E7E9EBEEF0F3F517
:1008B000F8FAFDFFFFAA7F55400011241FBECFEFBD
:1008C000DAE0DEBFCDBF11E0A0E0B1E0ECECF4E592
:1008D00002C005900D92AA39B107D9F723E0AAE921
:1008E000B1E001C01D92A733B207E1F70E94DC1608
:1008F0000C94642A0C940000A5E2B0E0E2E8F4E075
:100900000C949A27FC018081918123813481232BCF
:1009100031F09F3F31F491E08F3F19F403C091E033
:1009200001C090E090FD7FC67F0185E0DE019196D9
:1009300001900D928A95E1F7D70112962C9189A129
:100940009AA1222349F00E943D24182F682F89A1E3
:100950009AA10E94BB2403C00E948624182F69A17B
:100960007AA1812F0E945C0B8C0180915302882315
:1009700009F44FC0F70182818111FFC1E0919C0110
:10098000E330A0F481E08E0F80939C01F0E0EE0F45
:10099000FF1FE057FD4FD7018D919C91918380837C
:1009A00082E08983CE0101960E94B016BFEFE3ED8D
:1009B000F0E3B150E040F040E1F700C0000080916A
:1009C0009C01833009F0D9C110929C01E6E9F2E064
:1009D000A0E9B2E08CE992E0318111962C91119757
:1009E000321330C030812C9132132CC032961296C3
:1009F0008E179F0789F784E0898381E080935402F2
:100A00008EEF8A8310925302CE0101960E94B01697
:100A1000B4C1809154028823D1F0D70112968C91F1
:100A2000882311F086E001C087E08983F701808187
:100A30008A8381818B838EEF8C83CE0101960E9405
:100A4000B01605C083E0898310925402D9CF0F3AC3
:100A5000FDE51F0709F043C0D70112968C9188234A
:100A600009F429C19091580281E0890F8770987F1D
:100A7000853020F4892B8093580202C0909358024D
:100A8000809158028770BFEF8B9FC001112495950C
:100A900087959595879599279093890080938800ED
:100AA00090938B0080938A0090938D0080938C00AC
:100AB000409158025091590260915A0270915B0224
:100AC0008FE090E00E94712860916A0270916B0241
:100AD00080916C0290916D020E946E1BECC0013BF4
:100AE000EDE51E0709F4D0C0023BFDE51F0731F01C
:100AF000003B2DE5120709F4CEC0D9C0D7011296EC
:100B00008C91882309F4D7C024EAC22E21E0D22E8A
:100B10003AE0432EF6012491222309F4CCC021307F
:100B200009F04EC031968491813069F4F2E0CF0E25
:100B3000D11CF6018491893319F460E570E09CC002
:100B400060E070E099C0823041F4F2E0CF0ED11C39
:100B5000F60184910E94F82593C0833041F4F2E0BD
:100B6000CF0ED11CF60184910E94CC2589C084301F
:100B700009F085C0F2E0CF0ED11CF601249180E08F
:100B800090E030E0205331092A30310570F4489E5E
:100B9000A001499E500D1124C901840F951FFFEF3C
:100BA000CF1ADF0AF6012491ECCF009709F468C050
:100BB000AFE9BFE01197F1F700C000000197F5CF52
:100BC000E22FF0E0EC5DFE4F5490822F86958695E3
:100BD000869590E0FC01EC5EFE4F64902770712CCE
:100BE000022E02C0759467940A94E2F7B1E06B227A
:100BF0007724FC01EC5FFE4F8490912C022E02C002
:100C0000959487940A94E2F7E1E08E229924FC01FE
:100C1000EC50FF4FA490B12C02C0B594A7942A9534
:100C2000E2F7F1E0AF22BB246114710419F081EE08
:100C30000E94F8258114910409F4B8C086EE0E9440
:100C4000F82529E3521609F4ABC060E070E0852D69
:100C50000E9498268114910419F086EE0E94CC25FA
:100C60006114710419F081EE0E94CC25A114B10425
:100C700039F060E070E08CE20E94982601C06F01BC
:100C80003FEFC31AD30A46CFD70112968C9188231F
:100C900009F473C03CC0F7018281882309F46DC058
:100CA00090919D0181E0892780939D0166C00E3A55
:100CB0002DE51207A9F18091EA02882309F484C185
:100CC000D0902502C09017020E94931E88579C4E18
:100CD00090938E0280938D02F701828181116FC003
:100CE0008091250282720D3C2CE5120709F450C157
:100CF00008F4CCC0023D3CE5130709F456C160F589
:100D00000F3C9CE5190709F44AC108F004C181E0D1
:100D100004C081608093E40286950E9417242DC050
:100D2000D70112968C91882341F18091EA028823A1
:100D300019F00E94291F21C0109225020E947A0DED
:100D40000E94931E88579C4E90938E0280938D0232
:100D500081E08093EA0211C0053DFCE51F0709F41C
:100D60002AC108F4E5C0063D9CE5190709F428C12D
:100D70000F35ADE51A0709F09BC18091F601877028
:100D800009F451C4D70112968C91882309F44BC4FD
:100D90008091F70282FF47C482E00E94DC0D43C4C9
:100DA00060E570E089E30E94982657CFF9E35F126F
:100DB0004CCF60E570E089E30E94982651CF8C2DDE
:100DC0008D298D7909F05FC00115F5E51F07B0F495
:100DD000011523E5120708F0F7C0011530E51307E8
:100DE00040F4011580E4180710F5063E110539F5A9
:100DF000EBC0011592E5190710F5E6C00115A9E54C
:100E00001A0750F40115B8E51B0708F0DDC00431DE
:100E1000E5E51E07A1F4D8C0C8019056811590429F
:100E200070F4D70115968C91807F31F42CC0F701B6
:100E30008581807F09F4C8C0C801992701C0C80115
:100E40001092E9028832910538F48E31910508F04C
:100E5000B9C00497C0F011C08D32910571F020F433
:100E60008A9709F4AFC00FC08C34910509F4AAC069
:100E70008D32924009F4A6C006C082E08093E90258
:100E80000E94870D9FC00E94291F9EC0073C9CE5C1
:100E9000190709F469C0D8F4043CBCE51B0709F440
:100EA00059C030F4033CFCE51F0709F44CC000C1F5
:100EB000053C2CE5120709F452C0063C3CE513073B
:100EC00009F0F6C043E853E26DE873E265C00A3CFE
:100ED0009CE5190709F452C078F4083CBCE51B07EF
:100EE00009F447C0093CECE51E0709F0E1C046E7FC
:100EF00053E269E673E250C00B3CFCE51F0709F4BE
:100F000042C00C3C2CE5120709F0D2C042ED51E280
:100F100064EE71E241C0003DBCE51B0709F442C02C
:100F2000013DECE51E0709F0C3C06EE089E045C055
:100F3000033D3CE51307E1F1043D8CE5180709F09A
:100F4000B7C088E1EACE8091E40280FFE2CE0E9441
:100F5000182213CF4BE154E265E274E21DC045E272
:100F600054E26BE174E218C04DE853E263E873E2C7
:100F700013C049E653E266E773E20EC04FE453E262
:100F80006CE573E209C04CE553E26FE473E204C020
:100F900044EE51E262ED71E20E946A1FEECE65E01E
:100FA00082E00BC068E086E008C064E18FE005C025
:100FB00067E185E102C062E289E10E94571FDDCE50
:100FC00083E2ABCE0E94870DD70112968C918823C5
:100FD00009F486CE0C35BDE51B0709F464C060F446
:100FE0000115FCE51F07A9F00F3D2CE5120709F0DC
:100FF0005FC00E94FE0C4CC00E353DE5130709F49E
:101000004AC008F452C0093A9DE5190709F440C0E6
:101010004FC0109225020E94A725AFEFB4E3ECE089
:10102000A150B040E040E1F700C00000F89481E03A
:101030008093E00080E28093D8001092C9008FE195
:101040009EE40197F1F700C000001DBA10926800FD
:101050001CBC10BE1FBA10927A0010926E00109243
:101060006F0010927100109272001092C9001092DD
:10107000BC0014B817B81AB81DB810BA1092BC004A
:1010800015B818B81BB81EB811BA0C94003F75CE2D
:101090000E94561B72CE8091F70282FB882780F94E
:1010A00091E0892703C081E001C080E00E94F90D32
:1010B000F701828100811181882349F0C8010E94D3
:1010C0003D24D82E682FC8010E94BB2404C0C8014B
:1010D0000E948624D82EB8018D2D0E945C0B0E94A0
:1010E000750B8C01982EF701D280A580A2949FE009
:1010F000A9228091F6018770B9F0DD20A9F0812F37
:10110000807F803421F080E2800F883068F0809109
:10111000F70282FF09C082E00E94DC0D8091F60197
:101120008770CC24C3948111C12CB12EB2948FE06E
:10113000B8228B2D90E08C30910508F047C2FC015D
:10114000EA5AFF4F0C940829812F807F1F70882353
:1011500011F01295107FDD20B9F0112309F423C29C
:1011600080E2800F883010F0911006C08091250237
:10117000182B1093250205C08091E902182B1093BB
:10118000E9020E94870D0FC2802F0E94CC251123F7
:1011900009F41CC2005E083078F1992069F11095BD
:1011A0008091E90218231093E90229C0812F807FE2
:1011B0001F70803211F01295107F992021F0F1E01C
:1011C0009F16D9F147C08091F70282FD1BC0DD2038
:1011D00069F0112339F080912502182B1093250214
:1011E0000E94870D80E00E94F825F0C180E00E94F7
:1011F000CC25112309F4EAC1812F0E94800D0E94A1
:10120000870DE4C1DD2081F080911702AA2051F002
:1012100001E0A01207C0182B181709F4D7C11093CA
:101220001702D4C1812B10C0AA2021F021E0A21600
:1012300009F4CCC10E947A0D1FC0DD2041F031E0DD
:101240003A1508F4C3C1812F0E94C225BFC1A11065
:10125000BDC112C0DD2019F0AA20A9F3A4C1AA20A3
:1012600059F0093309F0AFC18FEF97EEA3E0815039
:101270009040A040E1F7A5C1812F0E94BB25A6C1E7
:10128000812F86958695837019F0813059F09EC123
:10129000DD2019F0C801937002C080E090E00E9448
:1012A000061F9AC1DD2019F0C801937002C080E0CA
:1012B00090E00E94F01E90C1812F837009F069C0F8
:1012C000D11088C1902F929596959770990F990F8C
:1012D000802F8F70882E912CA12CB12C092E04C048
:1012E000880C991CAA1CBB1C0A94D2F704FF12C0DC
:1012F0004FE050E060E070E004C0440F551F661FEF
:10130000771F9A95D2F7DB01CA0180959095A09539
:10131000B09503C080E090E0DC0116951695412F52
:101320004370423019F1C8F400911802109119026B
:1013300020911A0230911B02413059F088299929D5
:10134000AA29BB29BC01CD016023712382239323E9
:101350000AC0802A912AA22AB32ABC01CD01682999
:1013600079298A299B290E947C2534C188299929B9
:10137000AA29BB29009118021091190220911A0282
:1013800030911B02BC01CD01602771278227932772
:10139000EACFDD2019F0812F817001C08695882366
:1013A00009F418C1902F929596959770990F990FFF
:1013B000802F8F70882E912CA12CB12C092E04C067
:1013C000880C991CAA1CBB1C0A94D2F704FF12C0FB
:1013D0004FE050E060E070E004C0440F551F661F0E
:1013E000771F9A95D2F7DB01CA0180959095A09559
:1013F000B09503C080E090E0DC0116951695412F72
:1014000043704230D9F068F500916A0210916B0286
:1014100020916C0230916D02413059F08829992950
:10142000AA29BB29BC01CD01602371238223932308
:101430001EC0802A912AA22AB32A13C0882999297A
:10144000AA29BB2900916A0210916B0220916C02BB
:1014500030916D02BC01CD0160277127822793274F
:1014600006C0BC01CD01682979298A299B290E94DF
:10147000F124B0C01F70DD2039F0812F0E945A2561
:10148000802F0E94C225A6C0802F0E94BB25812FDD
:101490000E9434259FC0802FB2EF9B1609F441C0F3
:1014A000B91538F0E0EF9E1659F0F1EF9F16A1F153
:1014B00075C023EF9216E1F134EF931649F16EC037
:1014C000DD2009F1A11082C01F7181E090E0A0E051
:1014D000B0E0AC01BD0104C0440F551F661F771F6B
:1014E0001A95D2F780916A0290916B02A0916C02DA
:1014F000B0916D028A019B01082719272A273B27F3
:10150000C901B80129C021E02A1508F45FC0DCCF69
:101510008091F70282FD23C0DD2029F0812F8F7199
:1015200030C0DD20D9F3812F8F710E9434254EC049
:10153000DD2079F01F7181E090E0A0E0B0E0BC0117
:10154000CD0104C0660F771F881F991F1A95D2F727
:1015500003C060E070E0CB010E94F12437C0DD20C1
:1015600099F01F71812F0E945A258091F70282FF06
:1015700007C038E0139FC001112483608093F601F7
:10158000812F0E945A2522C081E00E94DC0D81E05B
:101590008A15E0F482E00E94DC0D18C0DD2029F0FD
:1015A000AA2009F4BBCF802F1ECEAA2009F4BBCFFE
:1015B000893349F49FEFA7EEB3E09150A040B040CB
:1015C000E1F700C00000802F0E94CC2588EF8B0D32
:1015D000843010F40E941C1FCC20A9F08091F601E9
:1015E00080FD11C0F70112828595859585950E9431
:1015F0005A25C7010E947C048091F6018595859546
:1016000085950E94342585E0F701DE011196019051
:101610000D928A95E1F709811A81C8010E948624FA
:10162000B8010E945C0BA596E0E10C94B62780E01F
:1016300008959091F60292FF0DC0282F287128304E
:1016400019F4877F846006C0282F2471243011F498
:101650008B7F886093FF0DC0282F2871283119F4E3
:10166000877E846106C0282F2471243111F48B7E7B
:1016700088612091F70220FF0DC0382F3871383073
:1016800019F4877F816006C0382F3171313011F431
:101690008E7F886021FF0DC0282F2871283119F412
:1016A000877E816106C0282F2171213111F48E7E41
:1016B000886194FD877E08957E30A0F4663090F4B2
:1016C00094E5899FF001112486E0789FE00DF11DDB
:1016D0001124E60FF11DEE0FFF1FE453FE4F85911D
:1016E0009491089580E090E00895CF93DF9382383D
:1016F000910569F1B0F48133910509F46FC048F4A4
:101700008932910509F465C08A32910509F46BC0EC
:101710008AC08533910509F457C089339105B9F022
:1017200082C0833E910571F138F4803E9105B1F09D
:10173000823E910511F177C0863E9105B9F1873E51
:101740009105C9F1843E910509F06DC024C0209136
:10175000F60220FD53C021FD51C065C08091F60204
:1017600080FD46C08091F70280FF48C08091F6025C
:1017700084FD3FC183EE90E03EC18091F60282FF7E
:101780003AC0F4CF8091F60282FD35C08091F70215
:1017900080FD34C0EBCF8091F70281FF35C080918E
:1017A000F60284FD26C187EE90E025C18091F60205
:1017B00083FF27C0F4CF8091F60283FD22C0809181
:1017C000F70281FD21C0EBCF8091F60285FD1FC09D
:1017D00021C08091F60285FD1DC019C08091F602DE
:1017E00086FD1BC01DC08091F60286FD19C015C084
:1017F00089E390E000C182EE90E0FDC080EE90E0D1
:10180000FAC086EE90E0F7C084EE90E0F4C089E282
:1018100090E0F1C085E390E0EEC08AE290E0EBC09A
:1018200081E390E0E8C0811532E5930708F069C0D4
:10183000811541E5940728F0982F8827816F906AD9
:10184000DAC0883E910568F5803E910508F0D3C066
:10185000883A9105B8F4853A910548F0855AE82F01
:10186000F0E0E85DFE4F808190E09064C4C081307C
:10187000910509F4BBC008F4BCC08430910508F49C
:10188000B8C0B9C08F3B910508F0B3C0885AE82FA3
:10189000F0E0EE0FFF1FE55DFE4F808191819464C3
:1018A000AAC0811520E59207F0F09C0174E03695FE
:1018B00027957A95E1F7922F9370482F437021E096
:1018C00030E002C0220F331F4A95E2F73C68392B03
:1018D0008F70982F9695969540E2949FC0011124A1
:1018E000822B932B88C0811530E4930718F09F70EA
:1018F000906A81C09C013A9521153F4108F47BC054
:1019000078C0EC01C11586E5D807E8F5C11525E5D5
:10191000D20748F08C2F0E94190B8F7190E0982FFE
:101920008827906268C0C11534E5D30728F09C2F42
:101930008827846F906A5FC0AE01437055272C2FB3
:1019400026952695C115D34578F481E090E002C034
:10195000880F991F4A95E2F740E2249F90011124D5
:10196000822B932B9C6847C081E090E002C0880FD7
:10197000991F4A95E2F740E2249F90011124822B9F
:10198000932B9A6838C0C1152AE5D207F8F4C1151F
:1019900039E5D30790F08C2F8F700E94190B94E0DB
:1019A000D695C7959A95E1F7CF70D0E0DC2FCC277C
:1019B000D0699E01282BC9011EC0C11548E5D40776
:1019C000C0F09C2F8827806F906A15C0CE0190567A
:1019D0008115904270F48D2F8F710E94190B282F62
:1019E0002F71CE0199279062922B05C081E090E083
:1019F00002C080E090E0DF91CF91089568EE7EEF25
:101A000080E090E00E947D2860E082E090E00E940B
:101A10005F2860E083E090E00E945F281092180247
:101A20001092190210921A0210921B0260E084E0D8
:101A300090E00E945F2864E082E290E00E945F28CC
:101A400060E085E090E00E945F2860E086E090E042
:101A50000E945F286FEF87E090E00E945F2840E0DF
:101A600050E0BA0188E090E00E94712860E08DE0CB
:101A700090E00E945F2840E050E0BA0188E190E0E9
:101A80000E94712860E087E190E00E945F2840E0BA
:101A900050E0BA018CE190E00E94712860E070E0B3
:101AA00080E290E00E947D2840E050E0BA0188E1A9
:101AB00090E00E94712810925802109259021092E0
:101AC0005A0210925B0284E08093580240915802BF
:101AD0005091590260915A0270915B028FE090E040
:101AE0000E94712840E050E0BA0183E190E00E943A
:101AF000712808958091170281111092170208959C
:101B000080959091250289238093250208959091D4
:101B100025028091E902982B90939E0180911702F3
:101B20008823D9F0892B80939E0180910A01882314
:101B300031F08091F60287FF02C08EE101C086E09D
:101B4000E0EAF1E090E0815028F021912223D9F3DE
:101B50009F5FF9CF91110E947A0D40E250E067EF4C
:101B600071E08EE991E00E94572A892B21F180E2F1
:101B7000EEE9F1E0A7EFB1E001900D928A95E1F76F
:101B8000E091ED02F091EE023097A9F080910A0108
:101B9000882359F08091F60287FF07C080919E014B
:101BA00080939F0186E080939E010280F381E02D67
:101BB0008EE991E0099508952091F60180958223A0
:101BC0008093F601982F977099F430E0482F082EF3
:101BD000000C550B2417350759F09091F70292FF2E
:101BE00007C08595859585950E9434251092F6014C
:101BF0000895CF93C091F702C2FB992790F99817E7
:101C000091F080FBC2F9C093F7026091F60284E084
:101C100090E00E945F286C2F82E290E00E945F2893
:101C200082E00E94DC0DCF9108958091F5019091A2
:101C3000C401891719F08F5F8770FBCF08950F9348
:101C40001F93CF93DF938091C30182958F7009F02A
:101C50005AC08091C001882309F455C08091F501D4
:101C60001091C4016091BE017091BF01C091C1018A
:101C7000D091C20191E06F3F09F090E0292F06E07A
:101C8000811709F440C0209721F07F3F21F030E018
:101C900003C031E001C0322F90E030FD31C0089F19
:101CA000F001099FF00D1124DF01AB53BE4F1196D7
:101CB0003C911197371324C03C91361321C01296E2
:101CC0003C91129731111CC013964D915C91149761
:101CD0004C1B5D0B483C510598F48091C3018F70FB
:101CE00080618093C301E653FE4F80818F708061D5
:101CF00080838EEB91E00E947C040E94150E03C04D
:101D000001968770BDCFDF91CF911F910F910895FC
:101D1000A1E1B0E0EEE8FEE00C949F278C0185E0A5
:101D2000F801DE011D9601900D928A95E1F7F80108
:101D3000E2809091BE016091BF014091C10150913C
:101D4000C2014115510531F06F3F31F481E09F3FF1
:101D500019F403C081E001C080E0F82FF1709F2EDC
:101D600080FD1BC1F80130812181C380D4808EEBBE
:101D7000A82E81E0B82EF090C001F601E41BF50B0F
:101D8000FF2009F4C7C08091C301E83CF10508F0C9
:101D900092C0482F407F09F051C0621311C09313C5
:101DA0000FC0FE2CE1100CC08F7080618093C301C6
:101DB000C5010E947C048091C301F80185832AC17A
:101DC000C114D10431F02F3F31F481E03F3F19F4C9
:101DD00003C081E001C080E080FD03C081E08E256A
:101DE00002C080E090E0F82FF170FF2E80FF1CC051
:101DF0008091F5014091C40156E0841709F4E8C0D0
:101E000090E0589FF001599FF00D1124EB53FE4FC5
:101E10006181261306C06081631303C06281E612EC
:101E200003C001968770E9CFFE2CEE2009F4F2C0C2
:101E30008091C30181608093C30149C0621306C0D1
:101E4000931304C0E11002C0F80186C0C8010E94CB
:101E50008725882351F1EE2041F12091C301822F83
:101E600082958F7090E0029774F08091BE019091FE
:101E7000BF0198878F831986DB86CA862C87CE019F
:101E800007960E947C0486E0F801AEEBB1E0019079
:101E90000D928A95E1F70E941F0E0AC06217C9F0E1
:101EA000C8010E94872581111EC0C8010E947C04C0
:101EB000FF24F394AFC0482F407F81F78EEB91E071
:101EC0000E947C0486E0F50111928A95E9F7F12CD5
:101ED000A1C09313E5CFE110E3CFF8018583C801DA
:101EE0000E947C0454C0EE2001F32091C301822F94
:101EF00082958F7090E0029734F28091BE019091AC
:101F0000BF019A8389831B82DD82CC822E83CE011E
:101F10000196B7CFE83CF105D0F5FE2CEE2029F272
:101F2000621327C0931325C02091C30120FD18C060
:101F3000822F82958F70482F50E04115510581F016
:101F4000F80125834F30510541F08F5F982F92950E
:101F5000907F822F8F70892B8583C8010E947C041B
:101F600086E0F801AEEBB1E001900D928A95E1F7C1
:101F700051C0C8010E948725811185CF8091C3017E
:101F800081608093C301C8010E947C0443C086E045
:101F9000F50111928A95E9F73DC0EE2009F485CF4D
:101FA000C8010E948725F82E882309F47ECF86E099
:101FB000F801AEEBB1E001900D928A95E1F78091C6
:101FC000BE019091BF010E9479240E941F0E22C081
:101FD0003D872E878D859E850E947924292F229505
:101FE0002F70223028F49F7039F0811105C00BC08A
:101FF000243028F49F7049F4805E883020F0C801B6
:102000000E947C049F2CF92C05C0F8019581907FDB
:1020100099F7F9CF8F2D6196EBE00C94BB27A0E0E8
:10202000B0E0E5E1F0E10C94A127809118019091D6
:102030001901892BB9F080911C028F5F80931C02DB
:10204000811110C00E94021C90E0909319018093AE
:102050001801892B39F40E94791C81E080931701C3
:102060000E94D2230CE512E07801B12CC0E087E099
:10207000C82ECC0E8C2F0E94E91C8C2D0E94E91CCE
:102080008C2F0E944C1D8F73F7019081891721F0CE
:102090008083DD24D39401C0D12C8C2D0E944C1D53
:1020A0008F73F7019781891719F0878381E001C049
:1020B00080E0D82ABD280E943D1DCF5FFFEFEF1AB8
:1020C000FF0AC730A1F6C0912002CC23C9F10E94BB
:1020D000931E20911E0230911F02AC01421B530B34
:1020E0009A0190931F0280931E024F3F510509F001
:1020F00020F4452B09F4AEC002C02FEF30E010925F
:10210000200210921D02E0915602F0915702AF0199
:10211000425F5F4F90E030E08081882341F02817D4
:1021200018F010829C2F03C0821B80833C2F3196B5
:10213000E417F50789F73093200290931D028AC0B7
:10214000BB2009F47EC00E94931E90931F028093CF
:102150001E02E0915602F091570280912002A0E702
:10216000B2E09F01225F3F4F4EE1E80199918E015D
:102170005C91591731F05081511103C040839C93F9
:1021800081E031961196E217F30779F780932002E8
:10219000209153028091220290912302222309F47C
:1021A0003FC0892B31F425982D9826982E98279892
:1021B0002F9880912202909123029170892B79F4BB
:1021C00080912102882319F026982E9802C0269A21
:1021D0002E9A9091210281E089278093210280919B
:1021E0002202909123028130984780F0109253028E
:1021F00060916A0270916B0280916C0290916D0205
:102200000E946E1B109223021092220280912202E1
:1022100090912302019690932302809322021EC084
:10222000892BE1F0109223021092220260916A023F
:1022300070916B0280916C0290916D020E946E1BF6
:102240000DC080E090911D02992309F4A1CF811166
:1022500080CF79CFB1107DCF81E0F4CF8B2DCDB77A
:10226000DEB7E9E00C94BD2780914B0287FF11C0D7
:102270008091E80082FD05C0809155028111F8CF60
:1022800011C08091E8008B770BC0809155028823A4
:1022900049F08091E80080FFF8CF8091E8008E77C8
:1022A0008093E8000895982F973068F59093E9009F
:1022B000981739F07091EC002091ED005091F000EA
:1022C00003C0242F762F50E021FD02C09F5FECCF8A
:1022D0003091EB003E7F3093EB003091ED003D7F7D
:1022E0003093ED003091EB0031603093EB00709350
:1022F000EC002093ED005093F0002091EE0027FDBC
:10230000E5CF80E008958F708093E90081E0089523
:1023100020915102309152022617370748F061157B
:10232000710539F42091E8002E772093E80001C070
:10233000B901FC0120E06115710579F18091550228
:102340008823F1F18530F1F18091E80083FD3CC0F4
:102350008091E80082FD2EC08091E80080FFEBCFE5
:102360002091F3008091F20090E0922B61157105AD
:1023700051F08830910538F421912093F10061509B
:1023800071090196F3CF21E0089709F020E08091D0
:10239000E8008E778093E800CECF2111CFCF0AC01E
:1023A00080915502882361F0853061F08091E800CA
:1023B00083FD0AC08091E80082FFF2CF80E008959B
:1023C00082E0089583E0089581E008950895BC01B6
:1023D00084E00E94341E0895BC0183E00E94341EF4
:1023E0000895AAE2B0E0E7EFF1E10C94A727EBE44F
:1023F000F2E083E592E02091F10021938E179F0790
:10240000D1F780914C02833009F463C030F48130FD
:1024100071F0823009F49FC0B6C08A3009F48BC0D5
:102420008B3009F46EC0893009F0ADC020C08091B6
:102430004B02813A09F0A7C08091E800877F809322
:10244000E80080914F0290915002892B21F460E2C4
:1024500088E292E003C060E080E090E070E00E94DB
:1024600088118091E8008B778093E8008CC0809180
:102470004B02813209F087C080914F029091500247
:10248000009719F0029709F07EC08091E800877FDD
:102490008093E8008091E80082FD05C0809155029C
:1024A0008111F8CF70C02091F3008091F20090E08C
:1024B000922B029731F48091F100813011F0863037
:1024C00021F48091F100809327028091E8008B77BE
:1024D00056C080914B02813A09F055C080914F025D
:1024E00090915002892B09F04EC08091E800877FBF
:1024F0008093E8008091E80080FFFCCF80910A0182
:1025000039C080914B028132F1F580914F02909158
:102510005002892BC1F58091E800877F8093E80005
:102520000E94341180914D0280930A01109225027D
:102530000E94A72528C080914B02813221F580910D
:10254000E800877F8093E8000E94341180914E025A
:102550008093260218C080914B02813AA1F48091A9
:10256000E800877F8093E8008091E80080FFFCCF3F
:10257000809126028093F1008091E8008E7780930D
:10258000E8000E9434118091E80083FFDFC1809150
:102590004B0290914C02492F50E04A30510508F00F
:1025A000D5C1FA01EE59FF4F0C940829803821F06B
:1025B000823809F0CBC108C080914802909149024D
:1025C000992389F082600FC080914F028F7087300D
:1025D00008F0BCC18093E9008091EB0085FB88275F
:1025E00080F91092E9009091E800977F9093E800BD
:1025F0008093F1001092F10070C1282F2D7F09F017
:10260000A5C1882319F0823061F0A0C180914D02EC
:10261000813009F09BC1933009F080E0809349023A
:102620002EC080914D0281112AC080914F028F707F
:102630002FEF280F263008F089C18093E900209100
:10264000EB0020FF1CC0933021F48091EB008062EE
:1026500014C09091EB0090619093EB0021E030E08A
:10266000A90102C0440F551F8A95E2F74093EA0082
:102670001092EA008091EB0088608093EB0010924A
:10268000E9008091E800877F8093E8000E94341180
:102690005DC181115BC110914D021F778091E300F4
:1026A0008078812B8093E3008091E800877F80937E
:1026B000E8000E9434118091E80080FFFCCF8091F7
:1026C000E30080688093E300111102C082E001C042
:1026D00083E0809355023AC18058823008F036C1B9
:1026E00020914D0230914E022C3D53E0350779F593
:1026F00083E08A838AE289834FB7F894DE011396D8
:1027000020E03EE051E2E32FF0E050935700E491E7
:1027100020FF03C0E295EF703F5FEF708E2F90E0D7
:10272000EA3010F0C79601C0C0968D939D932F5F3D
:10273000243149F74FBF8091E800877F8093E800FC
:102740006AE270E0CE0101960E948811B4C08091C7
:102750004F0290915002432F552743305105A9F065
:1027600068F44130510509F400C14230510509F0C7
:10277000EDC08BE590E0E3EEF5E04BC04132510552
:1027800029F14232510589F1E1C0C901992781300F
:102790009105A1F058F0029709F0D8C0E0E5F6E005
:1027A000E4918E2F90E0E0E5F6E030C0EEE9F6E04F
:1027B000E4918E2F90E0EEE9F6E028C0E4E7F6E041
:1027C000E4918E2F90E0E4E7F6E020C0833091059D
:1027D00008F0BCC0880F991FFC01EE59FE4F019014
:1027E000F081E02D89E090E014C08330910508F07D
:1027F000ADC0FC01EE0FFF1FE45AFE4F0190F081C7
:10280000E02DDC01A75ABE4F8C9190E0009709F4AF
:102810009DC02091E800277F2093E800209151027D
:10282000309152022817390708F4C90140E0009797
:1028300089F120915502222309F43DC02530D9F1B8
:102840002091E80023FD37C02091E80022FD2FC031
:102850002091E80020FFEBCF4091F3002091F2009F
:1028600030E0342B009759F02830310540F4449182
:102870004093F100319601972F5F3F4FF3CF41E036
:102880002830310509F040E02091E8002E772093B0
:10289000E800CDCF4111CDCF0AC0809155028823E9
:1028A00051F0853041F08091E80083FD04C08091B3
:1028B000E80082FFF2CF8091E8008B778093E800F8
:1028C00045C0803809F042C08091E800877F80933E
:1028D000E80080914A028093F1008091E8008E77B1
:1028E000D3CE811133C080914D0290914E02992731
:1028F000029764F58091E800877F8093E80010914B
:102900004D0210934A020E943411111106C08091A9
:10291000E30087FD02C081E001C084E0809355029E
:1029200042E061EC81E00E94531142E261EC84E0FC
:102930000E94531142E261EC82E00E94531142E294
:1029400060EC83E00E945311809155028091E80071
:1029500083FF10C08091E800877F8093E80080911A
:10296000EB0080628093EB0005C082E190E0EEE333
:10297000F6E04FCFAA96E3E00C94C3271F920F9284
:102980000FB60F9211242F933F934F935F936F9342
:102990007F938F939F93AF93BF93CF93DF93EF93E7
:1029A000FF93C091E900CF708091EC00D82FD170D7
:1029B00080FDD0E81092E9008091F000877F80933D
:1029C000F00078940E94F1111092E9008091F000DB
:1029D00088608093F000CD2BCF70C093E900FF9109
:1029E000EF91DF91CF91BF91AF919F918F917F91A7
:1029F0006F915F914F913F912F910F900FBE0F906C
:102A00001F901895E8EDF0E080818E7F8083109212
:102A1000E2001092DA001092E100A0EEB0E08C919A
:102A200081608C9380818F77808319BCA7EDB0E0A3
:102A30008C918E7F8C9380818F7E80831092240274
:102A40000895A0E0B0E0E7E2F5E10C94A227C8ED1C
:102A5000D0E088818F7E8883E7EDF0E0808181601F
:102A6000808384E082BF81E08093240288818E7F0E
:102A7000888302EE10E0F80110821092DA0081EEF5
:102A8000C82ED12CF601108288818F7788838881A7
:102A90008068888388818F7D888319BC1092550255
:102AA00010924A02109249021092480290EEE92ECA
:102AB000F12CF70180818B7F8083888181608883FE
:102AC00042E060E080E00E945311F60180818E7F39
:102AD0008083F80180818160808380818860808329
:102AE000F70180818E7F8083888180618883CDB764
:102AF000DEB7E8E00C94BE271F920F920FB60F923C
:102B000011242F933F934F935F936F937F938F93F2
:102B10009F93AF93BF93EF93FF938091E10082FF68
:102B200009C08091E20082FF05C08091E1008B7FA7
:102B30008093E1008091DA0080FF2AC08091D80064
:102B400080FF26C08091DA008E7F8093DA0080912A
:102B5000D90080FF18C080E189BD82E189BD09B438
:102B600000FEFDCF81E08093550280912402811107
:102B70000FC00E9402150E9421158091E20084601E
:102B80008093E20005C019BC1092550210922402F5
:102B90008091E10080FF17C08091E20080FF13C0A8
:102BA0008091E2008E7F8093E2008091E20080615C
:102BB0008093E2008091D80080628093D80019BC95
:102BC00085E0809355028091E10084FF30C08091C0
:102BD000E20084FF2CC080E189BD82E189BD09B497
:102BE00000FEFDCF8091D8008F7D8093D80080912A
:102BF000E1008F7E8093E1008091E2008F7E8093E0
:102C0000E2008091E20081608093E20080914A02BC
:102C1000882311F084E007C08091E30087FD02C0A3
:102C200081E001C083E0809355028091550280913C
:102C3000E10083FF27C08091E20083FF23C08091E1
:102C4000E100877F8093E10082E08093550210923B
:102C50004A028091E1008E7F8093E1008091E20042
:102C60008E7F8093E2008091E20080618093E20099
:102C700042E060E080E00E9453118091F0008860A3
:102C80008093F000FF91EF91BF91AF919F918F9151
:102C90007F916F915F914F913F912F910F900FBE58
:102CA0000F901F9018952091E4003091E50095E673
:102CB0004091EC00842F817040FF23C08091E80098
:102CC00080FD1DC080915502882399F0853099F0D0
:102CD0008091EB0085FD11C04091E4005091E5002A
:102CE0002417350729F3915011F09A01E1CF84E0C0
:102CF000089582E0089583E0089581E0089580E0DA
:102D000008954091E80042FFDDCF0895EF92FF92D1
:102D10000F931F93CF93DF937C018B010E94531677
:102D2000811119C0E70101151105A1F08091E8009A
:102D300085FD0AC08091E8008E778093E8000E94AC
:102D40005316882381F307C089918093F1000150C5
:102D50001109E9CF80E0CDB7DEB7E6E00C94C027DB
:102D6000CF9320915502243029F5C091E900CF700E
:102D70003091EC00232F217030FD20E8C22B22E09F
:102D80002093E9002091E80020FF11C040E050E0CE
:102D900060E270E00E948616882321F010925302B0
:102DA000109254028091E8008E778093E800CF70F3
:102DB000C093E900CF910895CF93DF93CDB7DEB7ED
:102DC000CC55D1090FB6F894DEBF0FBECDBF85B785
:102DD000806885BF85B7806885BF84B7877F84BFDB
:102DE0000FB6F894A8958091600088618093600088
:102DF000109260000FBE90E080E80FB6F8948093C8
:102E00006100909361000FBE87E19BE090939B016E
:102E100080939A010E9402150E9421158091E20080
:102E200084608093E2007894809155028823A1F019
:102E30001091E9001F709091EC00892F817090FD36
:102E400080E8182B1092E9008091E80083FD0E9431
:102E5000F1111F701093E90082E084BD93E095BDED
:102E60009AEF97BD80936E000E94021C90E09093B1
:102E70001901809318010E943D1D0E94831DECE5FD
:102E8000F2E0A0E7B2E011921D9222E0EA36F207EA
:102E9000D1F78EE090E00E9429298093560290930A
:102EA0005702FC010E961192E817F907E1F789EA3B
:102EB0008093800089E08093810024982C983F982B
:102EC0008AB18F7C8AB96E98479A8BB180638BB92F
:102ED000769A8FE090E00E944328609358027093A6
:102EE000590280935A0290935B0267708FEF689F3C
:102EF000B00111247595679575956795772770933F
:102F000089006093880070938B0060938A007093AF
:102F10008D0060938C000E94791C80E090E00E94FC
:102F20004928883E9E4F11F00E94FE0C82E090E0FE
:102F30000E943B2880937E0284E090E00E943B2820
:102F4000182F82E290E00E943B28212F30E0382B9E
:102F50003093F7022093F60283E090E00E943B2832
:102F6000682F70E080E090E00E947C2560916A020A
:102F700070916B0280916C0290916D020E946E1BA9
:102F80000E94D22360916A0270916B0280916C0260
:102F900090916D020E946E1B8BE091E09093EE0287
:102FA0008093ED02A8E1EA2EF12CB0E4DB2E8091B3
:102FB0005502853009F07DC0BB24B39400E112E1D5
:102FC00080915502853009F065C0809155028430AA
:102FD00009F43DC01092A40280916F02811116C0C5
:102FE000B0926F028091E402982F917090936E02DC
:102FF0008E7F8093E402FFEF20E782E0F1502040D3
:103000008040E1F700C000000E94871F1092F1028B
:103010000FB6F894A895E09260000FBED0926000C1
:1030200083B7817F846083BF83B7816083BF7894D7
:10303000889583B78E7F83BF0FB6F894A89580914B
:103040006000886180936000109260000FBE8091E4
:103050004902882309F4B4CF0E94021C90E09093A7
:103060001901809318010E943D1D0E94831DE0E715
:10307000F2E0119292E0EE37F907D9F70E940F10B3
:10308000E0E7F2E0819181110AC222E0EE37F20717
:10309000C9F796CF109225020E94A7250E941C1FF7
:1030A00010926F0280916E0281110E940D240E9485
:1030B000711F0E940F10882359F08FB7F894409128
:1030C000F2025091F3026091F4027091F5028FBF09
:1030D000AFE7B2E0E0E7F2E000E010E0302F21914E
:1030E0009D919227A1F180E0BB24B394492F4B21FD
:1030F00051F164968FAF649765963FAF65972B212A
:1031000081E009F480E066968FAF66970E94931E77
:103110008160782F68969FAF8EAF689764964FADA9
:10312000649765965FAD659766966FAD669768968E
:103130008FAD68970E94671AF801E158FD4F8081B2
:10314000B826B0822AC08F5FBB0C863079F60F5F3D
:103150001F4F0E30110509F0C1CF8FEF69968FAF69
:1031600069976A968FAF6A976B961FAE6B970E94AE
:10317000931E8160782F6D969FAF8EAF6D97699685
:103180004FAD69976A965FAD6A976B966FAD6B9717
:103190006D968FAD6D970E94671A8091EA02882321
:1031A00069F00E94931E20918D0230918E02821B45
:1031B000930B8F3F9F4710F40E94291F8091A40218
:1031C000882309F493C08091A302E091E402E6957C
:1031D000E81BE0939F02823059F4F0E0E055F94F8C
:1031E000E4910E2F10E0F0E2AF2EFEE1BF2E59C0A9
:1031F000863059F4F0E0E355F94FE4910E2F10E0DA
:10320000E0E1AE2EEEE1BE2E4CC0893061F4E695D1
:10321000F0E0E655F94FE4910E2F10E072E8A72E8A
:1032200071E2B72E3EC08F3061F4E695F0E0E955CB
:10323000F94FE4910E2F10E06CE1A62E61E2B62E5C
:1032400030C0853159F4F0E0EC55F94FE4910E2F80
:1032500010E05CECA52E50E2B52E23C08831A1F021
:10326000833249F4E2EAF6E00591149146EDA42E8A
:103270004DE1B42E16C0843271F404EF11E039E14F
:10328000A32E30E2B32E0DC008E210E021E5A22EFD
:1032900020E2B22E06C000ED17E090E9A92E9DE1D4
:1032A000B92E8091A002882361F01092A0020E94A2
:1032B000931E90939E0280939D021092A202109200
:1032C000A1020E94931EE0919D02F0919E028E1B2E
:1032D0009F0B8F3F9F4750F40E0F1F1F10939E02AE
:1032E00000939D028DE992E0F50109950E941C1F53
:1032F00090918F02891380938F02809155028430C0
:1033000009F055CE83E08093E9008091E80082FFC8
:103310004ECE8091E80085FF22C00E945316811195
:103320001CC000E210E05E01F1E2AF0EB11C08C06B
:103330008091F100F50181935F010150110969F05D
:103340008091E80085FDF4CF8091E8008B77809331
:10335000E8000E945316882399F391E001C090E0A1
:103360008091E8008B778093E800992309F41FCEC1
:1033700089A18130E9F158F1823021F0843009F4DB
:1033800080C015CE8BA19AA1909390028093910258
:103390008DA19CA190939202809393028FA19EA1F4
:1033A000909394028093950242E150E063E270E0D2
:1033B000CE018F5B9F4F0E942B2884E0898381E0A0
:1033C000809354028EEF8A83109253020CC01982AC
:1033D0008CE0E8E6F1E0DE01129601900D928A950C
:1033E000E1F78EEF8D87CE0101960E94B016DFCDFA
:1033F00006E912E08CE9A82E82E0B82E0E94371F61
:10340000F801819391938F01AE16BF06B9F781E061
:103410008983909196029A83909197029B839091D1
:1034200098029C83909199029D8390919A029E8329
:1034300090919B029F839EEF988780935302CE01C9
:1034400001960E94B01642E150E063E270E0CE01C6
:1034500001960E942B28FE01319682E183301CF0F8
:103460009189928B01C0128A815031978F3FB1F7B9
:1034700042E150E063E270E0CE0101960E944F28E5
:1034800096CD80915402882309F491CD60E070E0DC
:10349000CB010E94F1248AA10E945A2588CD09BD42
:1034A00019BD09B400FEFDCF8091D8008F7D8093B7
:1034B000D8008091E00082608093E0008091E0007D
:1034C00081FDFCCF109225020E94A72579CDA7E1AE
:1034D000B0E0EDE6FAE10C94A7274B8B5C8B6D8B8B
:1034E0007E8B8F8B61111092E90286E09E01235F33
:1034F0003F4FD901E82F1D92EA95E9F795E0FE01CB
:103500007396D90101900D929A95E1F79C894E89A5
:103510005F897B897D879E876F87598B488BF901EF
:10352000DE01179601900D928A95E1F7CE0107967C
:103530000E94880E81113EC086E0FE013796DE01B2
:10354000119601900D928A95E1F7FF81E8856A85D1
:103550007B856115710531F0EF3F31F481E0FF3F6C
:1035600019F403C081E001C080E080FD23C02091F8
:10357000C40130E0C9010196877099274091F50197
:1035800050E08417950779F1F983EA837D836C8392
:1035900096E0929FD001939FB00D1124AB53BE4F84
:1035A000FE01319601900D929A95E1F78093C40146
:1035B0000E94150E16E08091F5019091C4018917C3
:1035C00009F1189FC00111248B539E4F0E94880E51
:1035D0008823C1F08091F50190E0019687709927CA
:1035E0008093F501E8CF109225020E94A725109242
:1035F000C4011092F501EEEBF1E086E0DF011D92CF
:103600008A95E9F76796E3E00C94C327CF92DF929F
:10361000EF92FF926C01EE24FF24C114D104E10467
:10362000F10421F0C701B60120E101C020E0C72E5E
:10363000D82EE92EFF24C114D104E104F10419F0BD
:10364000285FC701B6016B017C0154E0F694E79452
:10365000D794C7945A95D1F7C114D104E104F10469
:1036600019F02C5FC701B6016B017C0142E0F694B2
:10367000E794D794C7944A95D1F7C114D104E104D3
:10368000F10419F02E5FC701B601DC01CB01B6953C
:10369000A79597958795892B8A2B8B2B09F02F5F00
:1036A000822FFF90EF90DF90CF9008951092250227
:1036B0000E94A7252FEF84E39CE02150804090409A
:1036C000E1F700C000009AE088E10FB6F894A895F1
:1036D000809360000FBE90936000FFCFCF92DF9287
:1036E000EF92FF926B017C010E94061B56985E9838
:1036F00025982D9826982E9827982F98482F50E097
:10370000FA013197E730F105C8F4E459FF4F0C9402
:103710000829259A2D9A27C0269A2E9A33C0259AD1
:103720002D9A269A2E9A3FC0259A2D9A04C0259A42
:103730002D9A269A2E9A279A2F9A35C0813099F081
:1037400018F0823081F51EC080919D01811153C017
:103750000E940D2460E081E00E94972320E04FEB5F
:1037600062EE86E81DC080919D01811144C00E94D7
:103770000D2460E081E00E94972320E04FEF6FEF7F
:103780008CEB0EC080919D01811135C00E940D24EB
:1037900060E081E00E94972320E04FEF6FEF88E91F
:1037A0000E94D62228C080919D01811124C088E00A
:1037B00090E00E9443286093E4027093E5028093B6
:1037C000E6029093E702862F60FF13C0816080932A
:1037D000E40286950E9417248091E40286950E9457
:1037E000172421E04091E7026091E6028091E50212
:1037F000D7CF0E941822C701B601FF90EF90DF904B
:10380000CF90089580E290E0909319018093180181
:1038100080919C0281110EC00E94B02681E08093AD
:103820009C022FEF83ED90E3215080409040E1F720
:1038300000C0000064E670E080E40E94B626909329
:10384000190180931801892B09F04EC064E670E0DD
:1038500080E00E942B279093190180931801892BF7
:1038600009F042C064E670E080E00E942B2790934C
:10387000190180931801892BB9F564E670E08FE394
:103880000E942B279093190180931801892B61F5D1
:103890000E94802764E670E080E40E94B626909340
:1038A000190180931801892BF9F464E670E08CE02B
:1038B0000E942B279093190180931801892BA1F462
:1038C00064E670E080E00E942B27909319018093BA
:1038D0001801892B49F464E670E08FE30E942B27DE
:1038E00090931901809318010E94802780911801FC
:1038F0000895CF93DF9356985E9825982D98269833
:103900002E9827982F98C8E8D0E08FEF90E0998301
:103910008883AAE8B0E011969C938E93ECE8F0E0DF
:1039200091838083259A2D9A2FEF80E792E0215092
:1039300080409040E1F700C00000269A2E9A2FEFB9
:1039400080E792E0215080409040E1F700C0000005
:10395000279A2F9A2FEF80E792E0215080409040E5
:10396000E1F700C0000025982D982FEF80E792E046
:10397000215080409040E1F700C0000026982E982A
:103980002FEF80E792E0215080409040E1F700C0A7
:10399000000027982F988091580287702FEF829F00
:1039A000C0011124959587959595879599279983B9
:1039B000888311969C938E939183808356985E980A
:1039C00025982D9826982E9827982F98DF91CF919B
:1039D0000895CF93E82F873080F58091180190915A
:1039E0001901892B09F047C0CE2F64E670E080E40E
:1039F0000E94B6269093190180931801892BD1F467
:103A000064E670E082E10E942B2790931901809375
:103A10001801892B79F481E090E001C0880FCA95E4
:103A2000EAF764E670E080950E942B2790931901D5
:103A3000809318010E9480271EC090E0FC013797F8
:103A4000E730F105C0F4ED58FF4F0C940829209A97
:103A5000289811C0219A29980EC0229A2A980BC042
:103A6000239A2B9808C0529A5A9805C0539A5B988B
:103A700002C03E9A4698CF910895209828982198A0
:103A8000299822982A9823982B9852985A985398B4
:103A90005B983E9846980895CF93873040F5809183
:103AA000180190911901892B59F564E670E081E4C1
:103AB0000E94B6269093190180931801892B11F06A
:103AC000C0E011C084E690E00E945B2797FF05C02C
:103AD0009093190180931801F3CFC82FC0951092CD
:103AE0001901109218010E9480278C2F0AC09FB1E3
:103AF0008FB1807F869586959370892B809501C0C4
:103B000080E0CF9108958098889A8198899A8498C6
:103B10008C9A85988D9A86988E9A87988F9A089510
:103B200008950895809127020895CF93DF932091FF
:103B30000A01222339F02091F60227FF03C060E238
:103B400024E002C068E021E02093E9002FEF3091EB
:103B5000E800215035FD06C035ED3A95F1F700003B
:103B60002111F5CF2091E80025FF1DC0EC018091C7
:103B70000A01811105C040E050E068E070E003C038
:103B800070E040E050E0CE010E9486168091E8008F
:103B90008E778093E80080E2FE01A8E2B2E0019017
:103BA0000D928A95E1F7DF91CF910895A4E0B0E0FE
:103BB000ECEDFDE10C94A6278C018091A702811108
:103BC0000AC09E012F5F3F4F4FEF6FEF0E943122DF
:103BD0008A818093A702F8018481813051F028F016
:103BE000823061F44091A7020AC08091A70240E0B0
:103BF00007C06091A70240E080E003C040E080E0A1
:103C000060E00E940622F801848190E0019663E062
:103C100070E00E94F42884832496E4E00C94C22788
:103C2000CF93DF93EC01E4EEF2E0438162818C817B
:103C30000E94BE228C818F5F8C83DF91CF9108958B
:103C4000CF93DF93EC01EC81F0E0EC54F94F449119
:103C5000E4EEF2E0628181810E94BE228C818F5F5E
:103C60008C83DF91CF9108958093F8027093FA02CC
:103C70006093F902809155028430F9F48093E90051
:103C80008FEF9091E800815095FD06C095ED9A95D3
:103C9000F1F700008111F5CF8091E80085FF0DC09C
:103CA00040E050E063E070E088EF92E00E9486160A
:103CB0008091E8008E778093E800089578941F92B1
:103CC0000F920FB60F9211248F939F93AF93BF93D0
:103CD0008091F2029091F302A091F402B091F5026A
:103CE0000196A11DB11D8093F2029093F302A0935F
:103CF000F402B093F502BF91AF919F918F910F9015
:103D00000FBE0F901F9018959C014FB7F8948091AB
:103D1000F2029091F302A091F402B091F5024FBF2C
:103D2000821B930B08952FB7F8948091F202909123
:103D3000F302A091F402B091F5022FBF08951F92F3
:103D40000F920FB60F9211248F939F93AF93BF934F
:103D50008091F102811113C08091F2029091F302DF
:103D6000A091F402B091F5024196A11DB11D80937E
:103D7000F2029093F302A093F402B093F502BF9184
:103D8000AF919F918F910F900FBE0F901F9018953C
:103D900020910A012223C9F02091F60227FF15C0C5
:103DA000262F2695269526952E31C8F4FC01E20F84
:103DB000F11D677081E090E001C0880F6A95EAF715
:103DC00080959281892382830895FC010696228141
:103DD000621301C012823196E817F907C1F70895FE
:103DE0002091EF023091F0022817390771F090937B
:103DF000F0028093EF02E091ED02F091EE02309735
:103E000021F00084F185E02D099508952091EB02C1
:103E10003091EC022817390771F09093EC028093EF
:103E2000EB02E091ED02F091EE02309721F0068076
:103E3000F781E02D09950895E091ED02F091EE02F1
:103E4000309729F00190F081E02D0995089580E0E8
:103E500008958091EA02882349F08091E9028D7DDE
:103E60008093E9020E94870D1092EA020895CF9391
:103E7000DF930E941B2866E070E00E94F428D82F90
:103E80000E941B286EE070E00E94F428C82F6D2F5E
:103E9000782F80E00E945C0B0497C59718F48D2F53
:103EA0009C2F02C00E94371FDF91CF9108959091FF
:103EB000E40290FF04C09695981748F003C0811162
:103EC00006C090E0961718F40E94252408950E94D9
:103ED00017240895882311F0FA0101C0FB01099508
:103EE00008956091E402669570E04BE050E08AE14D
:103EF00091E00E944A2A892B19F481E08093A40260
:103F00000E94931E90939E0280939D020895EF92CB
:103F1000FF920F931F93CF93DF938091E40280FF72
:103F200008C008EA12E084EEE82E82E0F82EF801DC
:103F30001BC0E8EAF2E084EE92E011821082128265
:103F4000138234968E179F07C1F7EBCF381708F40A
:103F5000832F8383381B3183281B2083981B9283F4
:103F60003496EE16FF0641F0928120813181892F2F
:103F7000291760F7822FEACF80919C02882381F174
:103F80008091180190911901892B51F580911701A9
:103F9000882331F164E670E084E80E94B626892B1C
:103FA00019F0109217011AC0C8EAD2E064E670E076
:103FB00088810E942B2764E670E089810E942B276C
:103FC00064E670E08A810E942B2764E670E08B81B2
:103FD0000E942B272496EC16FD0641F70E948027AD
:103FE000579A8BB18F779BB190682FB7F894E016F2
:103FF000F10699F0F80131918F0148E09BB900007A
:1040000000C037FF8BB9330F000000C000C000C0F4
:104010008BB900C04A9591F7EACF2FBF8FE594E0A6
:104020000197F1F700C00000CDB7DEB7E6E00C94D1
:10403000C027EF92FF920F931F93CF93DF938C01D2
:10404000C8EAD2E0E12CF12CF8018481F7E0EF1608
:10405000F1041CF4882339F002C0811104C09E01D0
:104060004091E70202C09E0140E06091E60280912B
:10407000E5020E9431228FEFE81AF80A24969FE0A9
:10408000E916F10409F70E94871FF801848190E086
:104090000196817099278483CDB7DEB7E6E00C9452
:1040A000C027A0E0B0E0E7E5F0E20C949E27EC0129
:1040B0004C81042F10E09801D8010E94D7289B0161
:1040C000AC010E94A2286B017C01E0E2F0E0E01B61
:1040D000F10BA5E5B0E09B01AC010E94A2284B01C9
:1040E0005C019F01DF010E940E299B01AC010E942F
:1040F000AD289B01AC012C0D3D1D4E1D5F1DC50162
:10410000B4010E94B528822FF22E99E2921728F06E
:1041100093E0299F900111240DC025E530E0281B74
:104120003109C901880F991F280F391F37FF02C0B5
:104130002F5F3F4F35952795122F109598EAC92E7E
:1041400092E0D92E00E085E5E82EEF1801FD02C0CF
:104150008E2D01C08F2D9601412F6091E6020E94A5
:1041600031220F5F84E0C80ED11C0F3079F70E9416
:10417000871F8C81811102C091E003C0803219F445
:104180009FEF9093270190912701890F8C83CDB7E2
:10419000DEB7ECE00C94BA270F931F93CF93DF9315
:1041A000C8EAD2E0FE011182108212821382349694
:1041B00082E0E43EF807B9F700E010E08091A60243
:1041C000082E000C990B0817190794F0809126010E
:1041D000082E000C990B8017910754F09E01409116
:1041E000E7026091E6028091E5020E94312204C05C
:1041F000198218821A821B820F5F1F4F24960F307C
:104200001105E1F60E94871F809125019091A60279
:10421000980F9093A60220912601280F2093260143
:10422000121614F49E301CF0819580932501DF91C5
:10423000CF911F910F910895A0E0B0E0E2E2F1E28A
:104240000C94A127FC01828180FF03C0DD24DA9455
:1042500002C0DD24D39408EA12E0C0E0D0E02FE0F1
:10426000B22EF801118210821282138294E0E92E9C
:10427000F12CC12C8091A5028C0D80312CF06B2D7E
:104280000E94E628892F02C087FD815F082E000C5E
:10429000990BC817D90791F48091E7028E9DA00170
:1042A0008F9D500D1124559547955595479598012B
:1042B0006091E6028091E5020E943122CD0CF1E08E
:1042C000EF1AF108B9F621960C5F1F4FCF30D105D8
:1042D00041F60E94871F8091A50291E0D91206C085
:1042E000811102C08EE007C0815005C090E00196A8
:1042F000BE010E94F4288093A502CDB7DEB7E9E0A5
:104300000C94BD27EF92FF921F93CF93DF93EC01A4
:1043100088EAE82E82E0F82E10E08C819701409127
:10432000E7026091E602810F0E9431221F5E84E065
:10433000E80EF11C1F3F89F70E94871F9A818C812C
:1043400090FF02C08F5F01C081508C83DF91CF91BD
:104350001F91FF90EF9008958091E402282F2695F9
:1043600030E02115310519F48170826005C02532D5
:10437000310524F0817088648093E4020895CF921F
:10438000DF92EF92FF926B017C010E94AC21B7019A
:10439000A60188E090E00E947128FF90EF90DF90E6
:1043A000CF9008958091E802882319F0815080937E
:1043B000E8026091E4027091E5028091E60290913A
:1043C000E7020E94BF2108958091E802833018F42B
:1043D0008F5F8093E8026091E4027091E502809122
:1043E000E6029091E7020E94BF210895E4EEF2E018
:1043F00083E0808311828FEF8283838314826081C4
:104400007181828193810E94BF2108959091E4027D
:1044100090FF0DC0E8EAF2E081836083428313825B
:10442000349692E0E43EF907B9F70E94871F089599
:10443000E4EEF2E080818E7F8083608171818281F1
:1044400093810E94BF211092A4022FEF80E792E097
:10445000215080409040E1F700C000000E94871F7B
:104460000895A0E0B0E0E7E3F2E20C94A027E82E84
:10447000F62EE901E42FF0E0611106C0EC54F84F8C
:10448000E4914E2F2E2F71C0062F10E0EC54F84F00
:104490004491F42FC42ED12C26E0829FC001112418
:1044A0002FEF30E0B9010E9484275BEA5603C00178
:1044B000579F900D11248E0D911D8E0D911D582F1B
:1044C000550F580FD901A01BB10BAC9DC001AD9D7C
:1044D000900DBC9D900D1124E92FF59ED001112463
:1044E000AB2FBB277901EA1AFB0AEC9CD001ED9CAB
:1044F000B00DFC9CB00D11245901A51AB108A09E65
:104500007001A19EF00CB09EF00C1124EF2CFF2442
:104510002E193F092C9D80012D9D100D3C9D100DE5
:104520001124212F6230710591F048F46115710555
:10453000E1F061307105B9F4242F4B2F16C06430BF
:10454000710569F040F06630710579F00CC0242FD8
:10455000492FE12F0AC0492FEF2F2B2F06C0292FFB
:10456000E42F412F02C0292FEB2F49832883EA83B0
:104570001B82CDB7DEB7EAE00C94BC27A4E0B0E024
:10458000E4ECF2E20C94A8279091E40290FF0AC0B8
:104590009E012F5F3F4F0E9431224B8169818A81AA
:1045A0000E9406222496E2E00C94C427A4E0B0E026
:1045B000ECEDF2E20C949B27F82E762EE42E622E80
:1045C0009091E40290FF67C0E92FE695AE2FB0E02E
:1045D000AC58BE4F8C918093A3029E7F923061F4C1
:1045E0009E012F5F3F4F8F2D0E9431224B816981A9
:1045F0008A810E9406223DC0823019F4E090E702D1
:1046000038C0863019F4F090E50233C08930D9F310
:10461000893179F5E9518E2F8170582EE695F0E0B9
:10462000EC54F74FE4910E2F10E088EAC82E82E098
:10463000D82EA12CB12C9FE0892E912CC501B4015C
:104640000E9484278F2D511002C0860F01C0861B47
:1046500096014E2D672D0E943122A00EB11E84E0DE
:10466000C80ED11C84EEC81682E0D80639F70E9425
:10467000871FF092E5027092E602E092E702662060
:1046800051F06091E4027091E5028091E602909110
:10469000E7020E94BF212496EFE00C94B727E4EED6
:1046A000F2E043812CE0421B08F440E021E062810B
:1046B00081810E94D6220895E4EEF2E043812CE04D
:1046C000420F08F44FEF21E0628181810E94D622DF
:1046D0000895E4EEF2E062812FEF621B08F460E0DF
:1046E00021E0438181810E94D6220895E4EEF2E028
:1046F00062812FEF620F08F46FEF21E04381818127
:104700000E94D6220895E4EEF2E0818121E0438107
:1047100062818C500E94D6220895E4EEF2E08181FD
:1047200021E043816281845F0E94D62208959091A6
:10473000E40290FF36C09170811102C0926006C001
:10474000853210F0986402C0880F982B9093E40291
:10475000662351F06091E4027091E5028091E602D7
:104760009091E7020E94BF216091E402669570E09B
:104770004BE050E08AE191E00E944A2A892B19F02F
:104780001092A40202C00E94711F81E08093A002D7
:1047900020E04091E7026091E6028091E5020E94EC
:1047A000D62208958091FB02811136C080E090E00E
:1047B0000E944928883E9E4F21F00E94FE0C0E94D4
:1047C000F62188E090E00E9443286093E402709311
:1047D000E5028093E6029093E7026E7F71F40E94F7
:1047E000F62188E090E00E9443286093E4027093F1
:1047F000E5028093E6029093E7020E94AC211092BA
:10480000A4028091E40280FF04C060E086950E94CB
:10481000972381E08093FB020895E4EEF2E080812B
:104820008160808360E086950E949723089561E00F
:104830000E94972308958091E4028695815009F49F
:1048400084E261E00E94972308958091E4028695B6
:104850008F5F853208F081E061E00E949723089520
:1048600080E090E00E94061F80E090E00E94F01E31
:104870001092E9020E94870D0895A0E0B0E0E3E401
:10488000F4E20C94A1278C01C0906A02D0906B02D4
:10489000E0906C02F0906D028091180290911902E4
:1048A000A0911A02B0911B02C82AD92AEA2AFB2A2F
:1048B000CFE1D0E0D701C6010C2E04C0B695A79574
:1048C000979587950A94D2F780FD04C0219790F7B9
:1048D000B12C09C0BC2EB8018C2F0E945C0B0E9429
:1048E000750B019799F38B2DCDB7DEB7E9E00C94EA
:1048F000BD27CF93DF93EC010E943D24BE010E94AF
:104900005C0B0E94750BDF91CF910895292F9E308B
:1049100080F5863070F590E036E0239F800D911D84
:104920001124682F677023E0969587952A95E1F703
:1049300025E0289FF001299FF00D1124E450FD4F40
:1049400040E050E080E0219130E0062E02C0369534
:1049500027950A94E2F721703327042E01C0220F15
:104960000A94EAF7822B4F5F5F4F4530510559F7A4
:10497000089580E00895292F9E3090F5863080F5C7
:1049800090E036E0239F800D911D1124282F277081
:1049900051E001C0550F2A95EAF723E096958795D7
:1049A0002A95E1F725E0289FF001299FF00D1124B9
:1049B000E450FD4F20E030E070E04081CB01022E5A
:1049C00002C0969587950A94E2F7817081958427B5
:1049D0008523842781932F5F3F4F2530310569F769
:1049E0000895CF92DF92EF92FF92CF93DF93CDB7EE
:1049F000DEB7A0970FB6F894DEBF0FBECDBF0E9402
:104A00006E1B6B017C01809154028823B1F02FEF63
:104A100080E792E0215080409040E1F700C0000024
:104A200085E08983C701B6010E94061B8A838EEF49
:104A30008B83CE0101960E94B016C0926A02D0927A
:104A40006B02E0926C02F0926D020E943024A096FC
:104A50000FB6F894DEBF0FBECDBFDF91CF91FF90B0
:104A6000EF90DF90CF9008950F931F9341E050E0B7
:104A700060E070E004C0440F551F661F771F8A95E1
:104A8000D2F7409550956095709580916A0290910B
:104A90006B02A0916C02B0916D028A019B01082308
:104AA00019232A233B23C901B8010E94F1241F9135
:104AB0000F9108950F931F9341E050E060E070E084
:104AC00004C0440F551F661F771F8A95D2F7809147
:104AD0006A0290916B02A0916C02B0916D028A0102
:104AE0009B01082B192B2A2B3B2BC901B8010E94D3
:104AF000F1241F910F910895609318027093190289
:104B000080931A0290931B020E9430240895FC01A6
:104B1000808191810E94792492959F70963079F0DE
:104B200010F4925001C09A50923068F4803F69F0BE
:104B300018F4883E40F409C0843F29F406C0883E3A
:104B400020F0813F11F080E0089581E00895809188
:104B50000A01882331F08091F60287FF02C08EE1BE
:104B600001C086E0E0EAF1E0DF011D928A95E9F7F5
:104B70000E9430240895882321F00E94800D0E9415
:104B8000870D0895882339F090912502892B809311
:104B900025020E94870D0895882349F1682F8CEF24
:104BA000860F813A28F48EE991E00E94C81E0CC05D
:104BB00080E2860F883058F4677081E001C0880F6A
:104BC0006A95EAF70E94800D0E94870D08958BE593
:104BD000860F833028F480E090E00E94061F08953D
:104BE000685A673120F480E090E00E94F01E08953A
:104BF000CF93882309F49AC0C82F8CEF8C0F813A89
:104C000008F05EC080910A018823E1F08091F602ED
:104C100087FF18C0EC2FE695E695E695F0E0E256A2
:104C2000FE4F8281282F30E04C2F477081E090E0CA
:104C300002C0880F991F4A95E2F782239323892B9C
:104C400059F411C0E0EAF1E08191C81729F081E040
:104C5000E63AF807C9F707C06C2F8EE991E00E9489
:104C6000C81E0E94870D80910A018823C9F0809197
:104C7000F60287FF15C0AC2FA695A695A695B0E0C5
:104C8000A256BE4FC77081E090E001C0880FCA9560
:104C9000EAF712969C911297892B12968C9320C05A
:104CA000A0EAB1E0EFEF80E09D91C917C9F0EF3FB6
:104CB00019F4911101C0E82F8F5F8630A9F72DC03C
:104CC00080E28C0F883078F4C77081E090E001C0FA
:104CD000880FCA95EAF790912502892B80932502C7
:104CE0000E94870D23C0EBE5EC0FE33040F4F0E0C9
:104CF000E85DFE4F808190E00E94061F17C0C85AF1
:104D0000C731A0F4EC2FF0E0EE0FFF1FE55DFE4F82
:104D1000808191810E94F01E09C0EF3F09F30E2EA1
:104D2000000CFF0BE256FE4FC283DACFCF910895FD
:104D30001F93CF93DF93182FEB010E94F825209744
:104D400041F08FE99FE00197F1F700C00000219743
:104D5000F6CF812F0E94CC25DF91CF911F9108952E
:104D60001092B9008CE08093B8000895A0E0B0E004
:104D7000ECEBF6E20C949F27B82EEB010E94931EF9
:104D80006C01C431D10558F0CF3F8FEFD80759F0EF
:104D9000CE0164E170E00E9484277B0107C0EE240D
:104DA000E394F12C03C025E0E22EF12C84E8A82E38
:104DB00094EA992E1092BC009092BC000E94931E1F
:104DC0008C018091BC0087FD08C00E94931E801B4F
:104DD000910B8E159F05A8F32AC08091B900887F9A
:104DE000883041F08091B900887F803119F00FEF51
:104DF0001FEF1FC0B092BB00A092BC000E94931E88
:104E00008C018091BC0087FD08C00E94931E801B0E
:104E1000910B8E159F05A8F30AC08091B900887F79
:104E2000883111F0803419F700E010E00EC00EEF69
:104E30001FEFCF3F8FEFD80709F4BCCFC6010E9408
:104E4000841E8C179D0708F4B5CFC801CDB7DEB717
:104E5000EBE00C94BB270F931F93CF93DF93EB01F1
:104E60008093BB0084E88093BC000E94931E8C0159
:104E70008091BC0087FD0EC0CF3F8FEFD807C1F3F4
:104E80000E94931E801B910B8C179D0788F38EEF59
:104E90009FEF0CC02091B900287F81E090E028327C
:104EA00011F480E090E0919581959109DF91CF9187
:104EB0001F910F9108950F931F93CF93DF93EC01F0
:104EC00084E88093BC000E94931E8C018091BC00FA
:104ED00087FD0EC0CF3F8FEFD807C1F30E94931E0E
:104EE000801B910B8C179D0788F38EEF9FEF03C0FB
:104EF0008091BB0090E0DF91CF911F910F910895B9
:104F000084E98093BC000895AA1BBB1B51E107C034
:104F1000AA1FBB1FA617B70710F0A61BB70B881F49
:104F2000991F5A95A9F780959095BC01CD010895D8
:104F30002F923F924F925F926F927F928F929F92A9
:104F4000AF92BF92CF92DF92EF92FF920F931F9397
:104F5000CF93DF93CDB7DEB7CA1BDB0B0FB6F89448
:104F6000DEBF0FBECDBF09942A88398848885F8488
:104F70006E847D848C849B84AA84B984C884DF80F9
:104F8000EE80FD800C811B81AA81B981CE0FD11DDD
:104F90000FB6F894DEBF0FBECDBFED0108958F921E
:104FA0009F92AF92BF92CF92DF92EF92FF92CF93F8
:104FB000DF93EC01688179818A819B81611571059C
:104FC0008105910521F464E279ED8BE597E02DE10F
:104FD00033EF41E050E00E94832849015A019B01D0
:104FE000AC01A7EAB1E40E94A2286B017C01ACEEFF
:104FF000B4EFA50194010E94B028DC01CB018C0D17
:105000009D1DAE1DBF1DB7FF03C00197A109B0488C
:1050100088839983AA83BB839F77DF91CF91FF9089
:10502000EF90DF90CF90BF90AF909F908F900895BA
:105030000E94CF27089580E091E00E94CF27089535
:10504000A0E0B0E08093000190930101A0930201E1
:10505000B09303010895DC01CB01FC01F999FECF67
:1050600006C0F2BDE1BDF89A319600B40D924150F0
:105070005040B8F70895F999FECF92BD81BDF89AD6
:10508000992780B50895A6E1B0E044E050E00C9483
:105090002D28A8E1B0E042E050E00C942D28DC017E
:1050A000A40FB51F4150504048F0CB01840F951F0D
:1050B0002E910E94602841505040D0F70895262F2D
:1050C000F999FECF92BD81BDF89A019700B40216FE
:1050D00039F01FBA20BD0FB6F894FA9AF99A0FBEAC
:1050E00008950396272F0E9460280E945F28252F8D
:1050F0000E946028242F0C9460280196272F0E947C
:1051000060280C945F28052E97FB1EF400940E94E3
:105110009A2857FD07D00E94B52807FC03D04EF40B
:105120000C949A2850954095309521953F4F4F4FBC
:105130005F4F089590958095709561957F4F8F4F43
:105140009F4F08950E94D728A59F900DB49F900D62
:10515000A49F800D911D11240895B7FF0C94A228DF
:105160000E94A228821B930B0895A1E21A2EAA1B6B
:10517000BB1BFD010DC0AA1FBB1FEE1FFF1FA21707
:10518000B307E407F50720F0A21BB30BE40BF50B04
:10519000661F771F881F991F1A9469F7609570958D
:1051A000809590959B01AC01BD01CF010895A29F10
:1051B000B001B39FC001A39F700D811D1124911DEB
:1051C000B29F700D811D1124911D089587FB082E3B
:1051D000062687FD819567FD61950E941D290EF4C5
:1051E000919507FC8195089597FB072E16F400947E
:1051F00007D077FD09D00E94842707FC05D03EF434
:10520000909581959F4F0895709561957F4F089572
:10521000EE0FFF1F0590F491E02D09940E94D7280E
:10522000332312F48A1B9B0B0C9418290E94D72855
:10523000B7FF0895821B930B0895991B79E004C072
:10524000991F961708F0961B881F7A95C9F78095C5
:1052500008950F931F93CF93DF938230910510F43D
:1052600082E090E0E0913503F091360320E030E0F9
:10527000A0E0B0E0309719F14081518102811381A3
:1052800048175907C8F08417950769F4109731F04B
:1052900012960C93129713961C9327C00093350314
:1052A0001093360322C02115310519F04217530718
:1052B00018F49A01BD01EF01DF01F801DBCF2115E0
:1052C0003105F9F0281B390B2430310580F48A812F
:1052D0009B816115710521F0FB019383828304C0DA
:1052E0009093360380933503FE01329644C0FE014D
:1052F000E20FF31F81939193225031093983288360
:105300003AC02091330330913403232B41F4209190
:105310000601309107013093340320933303209129
:105320000401309105012115310541F42DB73EB737
:105330004091080150910901241B350BE091330382
:10534000F0913403E217F307A0F42E1B3F0B28174C
:10535000390778F0AC014E5F5F4F2417350748F0EE
:105360004E0F5F1F50933403409333038193919307
:1053700002C0E0E0F0E0CF01DF91CF911F910F91EB
:105380000895CF93DF93009709F481C0FC01329711
:1053900013821282A0913503B0913603109781F4E5
:1053A00020813181820F931F209133033091340388
:1053B0002817390751F5F0933403E093330367C09E
:1053C000ED0120E030E0CE17DF0740F44A815B8139
:1053D0009E0141155105F1F0EA01F5CFD383C28357
:1053E00040815181840F951FC817D90759F48881CE
:1053F0009981840F951F0296918380838A819B8176
:10540000938382832115310529F4F0933603E093C9
:1054100035033DC0E901FB83EA8349915991C40FEB
:10542000D51FEC17FD0761F480819181840F951FD2
:105430000296E90199838883828193819B838A8381
:10544000E0E0F0E012968D919C911397009719F08F
:10545000FD01DC01F7CF8D919C9111979D012E5F8D
:105460003F4F820F931F209133033091340328174D
:10547000390769F4309729F41092360310923503F6
:1054800002C013821282B0933403A0933303DF91DE
:10549000CF910895FC014150504030F00190061624
:1054A000D1F73197CF010895882799270895FB01F7
:1054B000DC0104C08D910190801921F441505040CD
:0C54C000C8F7881B990B0895F894FFCFE3
:1054CC000100000000003703200001921D951D9182
:1054DC001DEC11E711E61101200001191A1B1C1D0E
:1054EC001E1F202122010201818283E200E900EAD1
:1054FC0000B500B600B700CD008301CC008A019244
:10550C000194012102230224022502260227022AE9
:10551C0002B300B4006F00700040226DA30581053A
:10552C001405F5050E062E0657724B59342F5144AF
:10553C00365056000001020202020606060909094D
:10554C000909090F0F0F0F0F0F1515151819191938
:0A555C00191919191919192324004F
:00000001FF
