:100000000C9419050C9436050C9436050C943605A1
:100010000C9436050C9436050C9436050C94360574
:100020000C9436050C9436050C947A1A0C94BC1971
:100030000C946C220C9436050C9436050C94360501
:100040000C9436050C9436050C9436050C94360544
:100050000C9436050C942B220C9436050C94360522
:100060000C9436050C9436050C9436050C94360524
:100070000C9436050C9436050C9436050C94360514
:100080000C9436050C9436050C9436050C94360504
:100090000C9436050C9436050C9436050C943605F4
:1000A0000C9436050C9436050C9436052509250963
:1000B00054095409BE09D90AD90AD90ADA094E0ADB
:1000C0005F0A5F0AFE0D010E150E040E090E0C0EDE
:1000D000110EAE0FB10FB40FB70FBA0FBD0FC00F97
:1000E000D417FB17A419FB17A41947186A18A419E9
:1000F0005F196F1901012901043130307C01012998
:1001000001043130307C01012901043130307C019F
:10011000012901043130307C01012900010129014C
:10012000043130307C01012B01043130307C01017D
:100130002B01043130307C01012B01043130307C43
:100140000101290000000000000000000000000084
:10015000000000000000000000000000000000009F
:1001600000000000000000007E0F00D4FFFFFFC76A
:100170000000007800000000000000002A2B28008A
:100180000000000000000000000000000000002946
:10019000000000002C1E3420212224342627252E86
:1001A000362D3738271E1F202122232425263333BE
:1001B000362E37381F0405060708090A0B0C0D0EEA
:1001C0000F101112131415161718191A1B1C1D2FB6
:1001D0003130232D350405060708090A0B0C0D0ED6
:1001E0000F101112131415161718191A1B1C1D2F96
:1001F0003130354C29002B00E000E100AE5D0000FD
:100200001E00140004001D00010021591F001A00E7
:1002100016001B000100E300200008000700060094
:10022000E2000254210015000900190002542C00BC
:10023000220017000A0005000000035323004A02B1
:10024000000000570000045322004D020000015737
:100250000000005C23001C000B00110000002C0EAD
:10026000240018000D00100001544E0025000C0061
:100270000E003600E2002C41260012000F0037006D
:1002800001002C4227001300330038000100290030
:1002900035002A002800340006530000B25D2B020E
:1002A0000100010001000000010001002D02010019
:1002B00001000100010031023100010001000100D4
:1002C000010001002E0201000100010001000100F7
:1002D0002D00010001000100010001002E000100BD
:1002E0000000010001000100000001000000010009
:1002F00001000100000001000000010001000100F8
:10030000010001000000010001002F002F02260261
:10031000010001000100300030022702010001004D
:1003200001000100010001000100010001000100C5
:1003300001000100010001000100010001000100B5
:100340000100000029002B03E000E1000100000093
:100350000100140404041D04010001003B041A04FC
:1003600016041B0401000100010008040704060430
:100370000100010001001504090419040100010035
:10038000010017050A040504000001000100010036
:100390000000010000000100010001000000010058
:1003A0000000010001001C045000110400000100C5
:1003B00001001804510010040100010001000C04A8
:1003C000520036040100E500010012044F0037041A
:1003D000010001000100130433043804010001008E
:1003E00001000100010001000100000029000100DE
:1003F00001000100010000003A003F00440001003C
:10040000010001003B004000450001000100010027
:100410003C00410068000100010001003D00420075
:1004200069000100010001003E0043006A00010074
:1004300000000100A800A9000000AA0000000100BF
:100440000100AE00000048000000010001000100B2
:100450000100010000000100010001000100010095
:100460000100010001000100010001000100AB00DA
:1004700001000100010001000100AC0001000100C9
:100480000100010001000100010001000100010064
:10049000010000002900010001000100010000002E
:1004A0000100010001000100010001000100010044
:1004B0000100010001000100010001000100010034
:1004C0000100010001000100010001000100010024
:1004D0000100010001000100000001000100010015
:1004E0000000010000000100010001000000010007
:1004F000000001000100110023022E000000010095
:100500004C00240021001E003600010038002500A8
:1005100022001F00270001002502260023002000E2
:10052000630001002D002E0228002B002B12010079
:1005300001000100010001000100000001000100B4
:1005400001000100010000000100010001000100A4
:100550000100010001000100010001000100010093
:100560000100010001000100010001000100010083
:100570000100010001000100010001000100010073
:100580000000010001000100000001000000010066
:100590000100010000000100000001000100010055
:1005A0000B06010000000100010001000D06010022
:1005B0000100010001000100010001000100010033
:1005C0000100010001000100010001000100010023
:1005D0000100010001000100010001000100010013
:1005E00001000000B35D01000100010001000000F6
:1005F00001000100010001000100010001000100F3
:1006000001000100010001000100010001000100E2
:1006100001000100010001000100010001000100D2
:1006200001000100010001000000010001000100C3
:1006300000000100000001000100010000000100B5
:1006400000000100010001000100010000000100A4
:100650000100010001000100010001000100010092
:100660000100010001000100010001000100010082
:10067000010001000100010001000100100F010054
:1006800001000100005C010001000000050109807B
:10069000A101850319012AB700150126B7009501AC
:1006A00075108100C0050C0901A101850419012AFA
:1006B000A002150126A002950175108100C0050158
:1006C0000906A1018506050719E029E7150025019E
:1006D0009508750181020507190029EF150025010C
:1006E00095F0750181020508190129059505750127
:1006F0009102950175039101C00660FF0961A10196
:100700000962150026FF009520750881020963150E
:100710000026FF00952075089102C005010906A179
:1007200001050719E029E7150025019508750181E4
:10073000029501750881010507190029FF1500269A
:10074000FF00950675088100050819012905950522
:1007500075019102950175039101C009025B0003C7
:100760000100A0FA090400000103010100092111A0
:10077000010001224000070581030800010904016E
:1007800000020300000009211101000122220007DC
:10079000058203200001070503032000010904026C
:1007A000000103000000092111010001226D000772
:1007B00005840320000112010002000000089732A6
:1007C0007549010001020001220345007200670023
:1007D0006F0044006F007800200045005A002000A0
:1007E0005300680069006E006500000028035A008D
:1007F00053004100200054006500630068006E0053
:100800006F006C006F006700790020004C006100F1
:100810006200730000000403090400047F3F1F64AA
:100820003214643214783C1E1E140A052223252635
:1008300028292A2C2D2F3032333536383A3B3D3E8D
:100840004042434547494A4C4E5051535557595AD7
:100850005C5E6062646668696B6D6F7173757779F1
:100860007B7D7F81838587898A8C8E9092949698F0
:100870009A9C9E9FA1A3A5A7A8AAACAEAFB1B3B402
:10088000B6B8B9BBBCBEBFC1C2C3C5C6C7C9CACB57
:10089000CCCDCED0D1D2D2D3D4D5D6D7D7D8D9D922
:1008A000DADADBDBDBDCDCDCDCDCDDDDDDDDDCDC8B
:1008B000DCDCDCDBDBDBDADAD9D9D8D7D7D6D5D4A8
:1008C000D3D2D2D1D0CECDCCCBCAC9C7C6C5C3C274
:1008D000C1BFBEBCBBB9B8B6B4B3B1AFAEACAAA8C9
:1008E000A7A5A3A19F9E9C9A98969492908E8C8A7D
:1008F00089878583817F7D7B79777573716F6D6B58
:100900006968666462605E5C5A5957555351504E2F
:100910004C4A4947454342403E3D3B3A38363533E1
:1009200032302F2D2C2A29282625232200010101CF
:10093000010101010101020202020202020202039C
:10094000030303030303030404040404040405056C
:10095000050505060606060607070707070808082F
:1009600008090909090A0A0A0B0B0B0C0C0C0D0DDE
:100970000D0E0E0E0F0F0F10101111111212131376
:100980001414151516161717181819191A1A1B1BEF
:100990001C1D1D1E1E1F202021222223242425264B
:1009A00026272829292A2B2C2D2D2E2F3031323283
:1009B000333435363738393A3B3C3D3E3F4041428F
:1009C000434445464748494A4C4D4E4F5051535475
:1009D000555658595A5B5D5E5F6162646566686929
:1009E0006B6C6D6F7072737577787A7B7D7E8082A9
:1009F000838587888A8C8E8F91939596989A9C9EF2
:100A0000A0A2A3A5A7A9ABADAFB1B3B5B7BABCBE01
:100A1000C0C2C4C6C9CBCDCFD1D4D6D8DBDDDFE2CE
:100A2000E4E7E9EBEEF0F3F5F8FAFDFFFFAA7F55F6
:100A3000400011241FBECFEFDAE0DEBFCDBF11E0D2
:100A4000A0E0B1E0E2EFF8E502C005900D92A83C0D
:100A5000B107D9F723E0A8ECB1E001C01D92AF3493
:100A6000B207E1F70E94DA1B0C94772C0C9400007B
:100A7000A5E2B0E0EEE3F5E00C94B229FC01808140
:100A8000918123813481232B31F09F3F31F491E018
:100A90008F3F19F403C091E001C090E090FDC7C5FD
:100AA0007F0185E0DE01919601900D928A95E1F734
:100AB000D70112962C9189A19AA1222349F00E9474
:100AC0009C26182F682F89A19AA10E940C2703C089
:100AD0000E94D826182F69A17AA1812F0E945C104C
:100AE0008C01F7018281811105C080918202811100
:100AF00041C090C080911701909118010196A9F30F
:100B00004CE1C42E41E0D42EA12CB12C9924939415
:100B100080911701909118018A159B0534F3D60135
:100B200016968C9116978823F1F019968D919C91C9
:100B30001A978017910739F480910E0390910F0353
:100B40008017910781F0F6019786148703878189C2
:100B5000811103C0C6010E94F622C60106960E94BA
:100B6000152310921003FFEFAF1ABF0A26E1C20E41
:100B7000D11CCECFD70112968C911297811147C507
:100B8000E091CA01E33098F481E08E0F8093CA01AE
:100B9000F0E0EE0FFF1FE354FD4F8D919C91918388
:100BA000808382E08983CE0101960E94AE1BBFEF55
:100BB000E3EDF0E3B150E040F040E1F700C00000A9
:100BC0008091CA01833009F022C51092CA01E3EC7A
:100BD000F2E0ADEBB2E089EC92E0318111962C911C
:100BE0001197321330C030812C9132132CC03296C1
:100BF00012968E179F0789F784E0898381E080939E
:100C000083028EEF8A8310928202CE0101960E94A7
:100C1000AE1BFDC4809183028823D1F0D7011296C8
:100C20008C91882311F086E001C087E08983F70169
:100C300080818A8381818B838EEF8C83CE010196A4
:100C40000E94AE1B05C083E0898310928302D9CF36
:100C50000F3AFDE51F07E9F5D70112968C9188231D
:100C600009F4C0C09091870281E0890F8770987F56
:100C7000853020F4892B8093870202C090938702ED
:100C8000809187028770BFEF8B9FC00111249595DB
:100C900087959595879599279093890080938800EB
:100CA00090938B0080938A0090938D0080938C00AA
:100CB00040918702509188026091890270918A0266
:100CC0008FE090E00E94842A80919A020E94E70DB2
:100CD00089C0013BEDE51E0711F128F4003B2DE52D
:100CE000120721F12FC0023B8DE5180729F0033BC5
:100CF0009DE5190751F026C0D70112968C918823E3
:100D000009F470C08CE191E007C0F701828188236B
:100D100009F468C084EF90E00E94070D63C0D7011A
:100D200012968C91882309F472C4B4C1F7018281B0
:100D3000882309F46CC49091CB0181E089278093CA
:100D4000CB0165C4C80197558F3F910511F008F09C
:100D500049C020911701309118012817390724F450
:100D60009093180180931701D70112962C91129736
:100D700036E1389F5001399FB00C1124F501E45E33
:100D8000FE4F6F01208B12969C918681992309F466
:100D90004AC0128701878F5F86830E946022D60136
:100DA0001E969C938E931D978091490217968C9363
:100DB00017979091100380915402892B18968C9369
:100DC0001897ED91FC911197C5018E5D9E4F30975C
:100DD00029F054966D917C915597099510930F03C6
:100DE00000930E030E3AFDE51F07F9F4D7011296A2
:100DF0008C91882309F40BC480910D03882319F08A
:100E00000E945A2304C4109254020E9474120E9439
:100E1000602288579C4E9093BB028093BA0281E077
:100E200080930D03F4C381114CC180910D0388237D
:100E300009F474C0D0905402C09049020E9460220C
:100E400088579C4E9093BB028093BA02F70182812F
:100E5000882309F468C08C2D8D298D7909F059C03B
:100E60000115F5E51F07B0F4011523E5120708F099
:100E700055C0011580E5180740F4011590E41907E5
:100E800008F5063E110529F549C00115A2E51A0726
:100E900000F544C00115B9E51B0748F40115E8E564
:100EA0001E07E0F50431F5E51F0799F437C0C801C6
:100EB00090568115904268F4D70115968C91807FE9
:100EC00029F427C0F7018581807F41F1C801992766
:100ED00001C0C801109210038832910530F48E31A0
:100EE0009105D0F40497A8F00EC08D32910559F009
:100EF00018F48A9789F00DC08C34910569F08D3211
:100F0000924051F006C082E0809310030E94881244
:100F100003C00E945A2302C00E948812D701129671
:100F20008C918111D8C08091540282720D3C2CE5C5
:100F3000120709F4A8C008F045C0073CACE51A0741
:100F400009F48DC0D8F4043CECE51E0709F47DC01B
:100F500030F4033C2CE5120709F46BC02AC1053CB0
:100F60009CE5190709F476C0063CACE51A0709F0C0
:100F700020C147E056E261E176E289C00A3CBCE567
:100F80001B0709F476C078F4083CFCE51F0709F458
:100F90006BC0093C2CE5120709F00BC14AEF55E282
:100FA0006DEE75E274C00B3C9CE5190709F466C050
:100FB0000C3CACE51A0709F0FCC048E654E26AE7CD
:100FC00074E265C0023DBCE51B0709F46BC0A0F4E8
:100FD0000F3CFCE51F0709F45FC008F45BC0003D4F
:100FE0008CE5180709F45BC0013D9CE5190709F081
:100FF000E0C06EE089E05EC0053DACE51A0709F48B
:1010000057C060F4033DECE51E0709F44EC0043DF3
:10101000FCE51F0709F0CDC088E150C0063D2CE576
:10102000120709F44AC00F358DE5180709F4EFC21D
:10103000C0C08091080380FF03C00E948C24E7C2D7
:10104000816080930803869539C04AE756E264E8D8
:1010500076E21DC044E856E26AE776E218C041E154
:1010600056E267E076E213C04DEE55E26AEF75E2B4
:101070000EC043ED55E260EE75E209C040EE55E268
:1010800063ED75E204C04AE754E268E674E20E9448
:101090009723BDC281E012C065E082E00BC068E02A
:1010A00086E008C064E18FE005C067E185E102C029
:1010B00062E289E10E948423AAC283E20E9476262A
:1010C000A6C28189882309F4B0CEC5018E5D9E4FEA
:1010D0000E94152387CE0C359DE5190709F464C0DD
:1010E00060F40115BCE51B07A9F00F3DECE51E07F8
:1010F00009F05FC00E94FE114CC00E35FDE51F07D0
:1011000009F44AC008F452C0093A8DE5180709F4F9
:1011100040C04FC0109254020E94A9279FEFA4E341
:10112000BCE09150A040B040E1F700C00000F8944E
:1011300081E08093E00080E28093D8001092C900A3
:10114000EFE1FEE43197F1F700C000001DBA109204
:1011500068001CBC10BE1FBA10927A0010926E007C
:1011600010926F0010927100109272001092C900DC
:101170001092BC0014B817B81AB81DB810BA109263
:10118000BC0015B818B81BB81EB811BA0C94003FB3
:101190003EC20E94CF0D3BC280911D0382FB882777
:1011A00080F991E0892703C081E001C080E00E94BE
:1011B000FA12F701828100811181882349F0C80168
:1011C0000E949C26D82E682FC8010E940C2704C0BC
:1011D000C8010E94D826D82EB8018D2D0E945C101F
:1011E0000E9475108C01982EF701D280C580C294A0
:1011F0009FE0C922809128028770B9F0DD20A9F014
:10120000812F807F803421F080E2800F883068F069
:1012100080911D0382FF09C082E00E94DD1280914F
:1012200028028770BB24B3948111B12CA12EA29403
:101230008FE0A8228A2D90E08C30910508F0B9C18A
:10124000FC01EA5AFF4F0C941B2B812F807F1F70EB
:10125000882311F01295107FDD20B9F0112309F4D5
:1012600096C180E2800F883010F0911006C0809106
:101270005402182B1093540205C080911003182BB0
:10128000109310030E94881282C1802F0E94DF27D2
:10129000112309F48EC1005E812F083060F199207E
:1012A00051F10E947A1229C0812F807F1F708032F5
:1012B00011F01295107F992021F0F1E09F16D9F1DD
:1012C00047C080911D0382FD1BC0DD2069F0112302
:1012D00039F080915402182B109354020E94881206
:1012E00080E00E940B2865C180E00E94DF27112367
:1012F00009F45FC1812F0E9481120E94881259C196
:10130000DD2081F080914902CC2051F021E0C21211
:1013100007C0182B181709F44CC11093490249C192
:10132000812B10C0CC2021F081E0C81609F441C106
:101330000E9474121FC0DD2041F091E09C1508F45A
:1013400038C1812F0E94D52734C1C11032C112C0CB
:10135000DD2019F0CC20A9F31AC1CC2059F00933B3
:1013600009F024C1AFEFB7EEE3E0A150B040E04098
:10137000E1F71AC1812F0E94CE271BC1812F8695CC
:101380008695837019F0813059F013C1DD2019F072
:10139000C801937002C080E090E00E94D3220FC188
:1013A000DD2019F0C801937002C080E090E00E9437
:1013B000BD2205C1812F8370A9F5D110FEC0402F39
:1013C000429546954770440F440F802F8F7090E0F0
:1013D0009C01042E01C0220F0A94EAF704FF08C002
:1013E0008FE090E001C0880F4A95EAF7809501C030
:1013F00080E0169516951370123069F088F490917C
:101400004A02113019F0822B892302C0922B892BBA
:101410000E948427D2C0822B90914A028927F8CF5C
:10142000822BF6CFDD2019F0812F817001C08695C7
:10143000882309F4C2C0402F429546954770440F57
:10144000440F802F8F7090E09C01042E01C0220F6A
:101450000A94EAF704FF08C08FE090E001C0880F0B
:101460004A95EAF7809501C080E0169516951370AD
:10147000123059F078F490919A02113019F0822BC1
:10148000892309C0922B892B06C0822B90919A0246
:10149000892701C0822B0E9441278FC01F70DD2049
:1014A00039F0812F0E947827802F0E94D52785C090
:1014B000802F0E94CE27812F0E946B277EC0802F15
:1014C000F2EF9F1669F1F91538F020EF921659F0F6
:1014D00091EF991601F157C0A3EF9A1641F1B4EFBD
:1014E0009B16A9F050C0DD2069F0C11062C01F71C9
:1014F00081E090E001C0880F1A95EAF790919A0276
:1015000089271DC0E1E0EC1508F453C0F0CF8091AD
:101510001D0382FD19C0DD2029F0812F8F7126C0A7
:10152000DD20D9F3812F8F710E946B2742C0DD200F
:1015300049F01F7181E001C0880F1A95EAF70E94F7
:10154000412737C080E0FBCFDD2099F01F71812F4C
:101550000E94782780911D0382FF07C0F8E01F9F3B
:10156000C0011124836080932802812F0E94782774
:1015700020C081E00E94DD1221E02C15D0F482E031
:101580000E94DD1216C0DD2021F0CC2031F2802F28
:10159000A8CECC2039F2893349F48FEF97EEA3E03F
:1015A00081509040A040E1F700C00000802F0E94D1
:1015B000DF2788EF8A0D843010F40E94E922BB20D7
:1015C000A9F08091280280FD11C0F7011282859553
:1015D000859585950E947827C7010E9438058091DE
:1015E00028028595859585950E946B2785E0F701F2
:1015F000DE01119601900D928A95E1F709811A8119
:10160000C8010E94D826B8010E945C1010C08091C9
:101610002802877061F0D70112968C91882339F0E7
:1016200080911D0382FF03C082E00E94DD12A59617
:10163000EBE00C94CE299C013A9521153F4130F501
:10164000BC0166277270AC01442754709C012227AC
:10165000387094FF0FC090FF02C080E101C080E0AD
:10166000672B09F08062452B09F08064232B79F009
:1016700080680895892F8170672B09F08260452B5F
:1016800009F08460232B19F08860089580E00895A4
:10169000FC018081813041F49185911114C09285C3
:1016A000992389F082E00895823041F48185811187
:1016B00007C08285811106C083E0089586E0089501
:1016C00085E0089584E00895CF93DF93EC010E94B4
:1016D000DF27CE01805E9109089710F0209731F442
:1016E000CE010E941B0B0E94CE2705C0CE010E9496
:1016F0001B0B0E94BD27DF91CF9108958FE39CE9DA
:101700000197F1F700C000008091CF01833029F0EC
:10171000853031F0813041F403C08DE492E002C0A5
:101720008DE490E00E94640B1092CF0108958FE346
:101730009CE90197F1F700C000008091CD01833052
:1017400061F018F4813049F00CC0843019F0853014
:1017500021F007C08AE492E002C08AE490E00E948F
:10176000640B1092CD010895CF93DF93EC01805E5E
:101770009109089710F0209731F4CE010E941B0BBD
:101780000E94D52705C0CE010E941B0B0E94C427D2
:101790008C2F0E940B28DF91CF910895CF93DF9378
:1017A000EC010E94B40BC933D10549F42FEF87EE49
:1017B00093E0215080409040E1F700C00000CE014E
:1017C0000E94640BDF91CF910895CF93DF93EC01DA
:1017D0008881833061F48DE490E00E94CE0B8DE42B
:1017E00090E00E94CE0B8DE490E00E94CE0B8881A9
:1017F000843020F08DE490E00E94CE0BDF91CF91F9
:101800000895CF93DF93EC018881833061F48AE4FB
:1018100090E00E94CE0B8AE490E00E94CE0B8AE416
:1018200090E00E94CE0B8881843020F08AE490E022
:101830000E94CE0BDF91CF9108950E94480B8093B8
:10184000CF01833029F0853031F0813061F407C059
:101850008DE492E006C08DE490E00E94CE0B8DE412
:1018600090E00E94B40B08950E94480B8093CD0134
:10187000833049F018F4813091F00895843041F0BC
:10188000853049F008958AE490E00E94B40B07C0C7
:101890008AE492E006C08AE490E00E94CE0B8AE4DB
:1018A00090E00E94B40B0895A7E1B0E0EAE5FCE007
:1018B0000C94BA294B8B5C8B6D8B7E8B8F8B61115B
:1018C0001092100386E09E01235F3F4FD901E82F5D
:1018D0001D92EA95E9F795E0FE017396D901019012
:1018E0000D929A95E1F79C894E895F897B897D8766
:1018F0009E876F87598B488BF901DE0117960190FF
:101900000D928A95E1F7CE0107960E948913811105
:101910003EC086E0FE013796DE01119601900D92E1
:101920008A95E1F7FF81E8856A857B8561157105F8
:1019300031F0EF3F31F481E0FF3F19F403C081E063
:1019400001C080E080FD23C02091F60130E0C90194
:101950000196877099274091270250E084179507D8
:1019600079F1F983EA837D836C8396E0929FD001BD
:10197000939FB00D1124A950BE4FFE0131960190E6
:101980000D929A95E1F78093F6010E94161316E0E6
:10199000809127029091F601891709F1189FC001E3
:1019A000112489509E4F0E9489138823C1F0809191
:1019B000270290E001968770992780932702E8CF4D
:1019C000109254020E94A9271092F6011092270249
:1019D000E0EFF1E086E0DF011D928A95E9F7679676
:1019E000E3E00C94D629982F92959F7019F0892FD7
:1019F00024E001C020E0982F9695969511F02E5F77
:101A0000892F982F969509F02F5F822F0895A0E0D7
:101A1000B0E0EDE0FDE00C94B329EC018AE0A82EE3
:101A2000FE012491222309F4B5C0213009F044C0FD
:101A300031968491813059F42296FE018491893344
:101A400019F060E070E091C060E570E08EC0823017
:101A500031F42296FE0184910E940B288AC08330C3
:101A600031F42296FE0184910E94DF2782C08430E7
:101A700009F07EC02296FE01249180E090E030E0E3
:101A8000205331092A30310560F4A89EA001A99E97
:101A9000500D1124C901840F951F2196FE01249138
:101AA000EECF009709F465C0EFE9FFE03197F1F759
:101AB00000C000000197F5CFE22FF0E0EC58FE4F98
:101AC000B490822F86958695869590E0FC01EC591E
:101AD000FE4FE4902770F12C022E02C0F594E7949B
:101AE0000A94E2F7F1E0EF22FF24FC01EC5AFE4FEA
:101AF000C490D12C022E02C0D594C7940A94E2F768
:101B000031E0C322DD24FC01EC5BFE4F049110E0C8
:101B100002C0159507952A95E2F701701127E11487
:101B2000F10419F081EE0E940B28C114D10449F18F
:101B300086EE0E940B2889E3B816E9F060E070E0B9
:101B40008B2D0E94AB28C114D10419F086EE0E949F
:101B5000DF27E114F10419F081EE0E94DF2701155F
:101B6000110539F060E070E08CE20E94AB2801C002
:101B7000EF01219655CF60E570E089E30E94AB2824
:101B8000E5CFE9E3BE12DACF60E570E089E30E94B9
:101B9000AB28DFCFCDB7DEB7EAE00C94CF291092A7
:101BA00054020E94A9272FEF84E39CE0215080403B
:101BB0009040E1F700C000009AE088E10FB6F89489
:101BC000A895809360000FBE90936000FFCFCF93E5
:101BD000C82F0E94F30C56985E9825982D98269849
:101BE0002E9827982F98482F50E0FA013197E73028
:101BF000F105F0F4EE59FF4F0C941B2B259A2D9A0A
:101C00002EC0269A2E9A3AC0259A2D9A269A2E9A56
:101C100055C0259A2D9A09C0269A2E9A279A2F9A4E
:101C20003CC0259A2D9A269A2E9A279A2F9A46C01A
:101C30008130A9F028F0823009F1863071F13EC080
:101C40008091CB01811162C00E946C2660E081E02E
:101C50000E94312620E04FEB62EE86E82CC0809196
:101C6000CB01811153C00E946C2660E081E00E948C
:101C7000312620E04FEF6FEF8CEB1DC08091CB0140
:101C8000811144C00E946C2660E081E00E943126F0
:101C900020E04FEF6FEF88E90EC08091CB018111FA
:101CA00035C00E946C2660E081E00E94312620E071
:101CB0004FEF6FEF80E00E945A2528C08091CB0142
:101CC000811124C088E090E00E94562A60930803A6
:101CD0007093090380930A0390930B03862F60FF90
:101CE00013C081608093080386950E9476268091B8
:101CF000080386950E94762621E040910B036091AF
:101D00000A0380910903D7CF0E948C248C2FCF9196
:101D1000089580E290E090934A0180934901809178
:101D2000210381110EC00E94C32881E0809321030A
:101D30002FEF83ED90E3215080409040E1F700C009
:101D4000000060E570E080E40E94C92890934A0199
:101D500080934901892B09F04EC060E570E080E076
:101D60000E943E2990934A0180934901892B09F0F2
:101D700042C060E570E080E00E943E2990934A01F5
:101D800080934901892BB9F560E570E08FE30E94EB
:101D90003E2990934A0180934901892B61F50E9465
:101DA000932960E570E080E40E94C92890934A017D
:101DB00080934901892BF9F460E570E08CE00E9482
:101DC0003E2990934A0180934901892BA1F460E553
:101DD00070E080E00E943E2990934A01809349017F
:101DE000892B49F460E570E08FE30E943E299093CF
:101DF0004A01809349010E949329809149010895E5
:101E0000CF93DF9356985E9825982D9826982E9814
:101E100027982F98C8E8D0E08FEF90E099838883C7
:101E2000AAE8B0E011969C938E93ECE8F0E09183E1
:101E30008083259A2D9A2FEF80E792E021508040F1
:101E40009040E1F700C00000269A2E9A2FEF80E71D
:101E500092E0215080409040E1F700C00000279AB6
:101E60002F9A2FEF80E792E0215080409040E1F7D9
:101E700000C0000025982D982FEF80E792E02150B8
:101E800080409040E1F700C0000026982E982FEF88
:101E900080E792E0215080409040E1F700C00000D0
:101EA00027982F988091870287702FEF829FC0011B
:101EB000112495958795959587959927998388837A
:101EC00011969C938E939183808356985E98259863
:101ED0002D9826982E9827982F98DF91CF910895C6
:101EE000CF93E82F873080F58091490190914A0186
:101EF000892B09F047C0CE2F60E570E080E40E9496
:101F0000C92890934A0180934901892BD1F460E557
:101F100070E082E10E943E2990934A01809349013A
:101F2000892B79F481E090E001C0880FCA95EAF727
:101F300060E570E080950E943E2990934A0180936D
:101F400049010E9493291EC090E0FC013797E730B9
:101F5000F105C0F4E759FF4F0C941B2B209A2898E9
:101F600011C0219A29980EC0229A2A980BC0239A50
:101F70002B9808C0529A5A9805C0539A5B9802C091
:101F80003E9A4698CF9108952098289821982998AC
:101F900022982A9823982B9852985A9853985B988D
:101FA0003E9846980895CF93873040F58091490137
:101FB00090914A01892B59F560E570E081E40E9417
:101FC000C92890934A0180934901892B11F0C0E000
:101FD00011C080E590E00E946E2997FF05C09093A4
:101FE0004A0180934901F3CFC82FC09510924A014E
:101FF000109249010E9493298C2F0AC09FB18FB182
:10200000807F869586959370892B809501C080E0AE
:10201000CF9108958098889A8198899A84988C9A0B
:1020200085988D9A86988E9A87988F9A089580E0E1
:10203000089590911C0392FF0DC0282F287128301D
:1020400019F4877F846006C0282F2471243011F48E
:102050008B7F886093FF0DC0282F2871283119F4D9
:10206000877E846106C0282F2471243111F48B7E71
:10207000886120911D0320FF0DC0382F3871383042
:1020800019F4877F816006C0382F3171313011F427
:102090008E7F886021FF0DC0282F2871283119F408
:1020A000877E816106C0282F2171213111F48E7E37
:1020B000886194FD877E08957E30A0F4663090F4A8
:1020C00094E5899FF001112486E0789FE00DF11DD1
:1020D0001124E60FF11DEE0FFF1FEC50FE4F85910E
:1020E0009491089580E090E00895CF93DF93823833
:1020F000910569F1B0F48133910509F46FC048F49A
:102100008932910509F465C08A32910509F46BC0E2
:102110008AC08533910509F457C089339105B9F018
:1021200082C0833E910571F138F4803E9105B1F093
:10213000823E910511F177C0863E9105B9F1873E47
:102140009105C9F1843E910509F06DC024C020912C
:102150001C0320FD53C021FD51C065C080911C03AC
:1021600080FD46C080911D0380FF48C080911C0304
:1021700084FD3FC183EE90E03EC180911C0382FF4D
:102180003AC0F4CF80911C0382FD35C080911D03BD
:1021900080FD34C0EBCF80911D0381FF35C080915D
:1021A0001C0384FD26C187EE90E025C180911C03AD
:1021B00083FF27C0F4CF80911C0383FD22C0809150
:1021C0001D0381FD21C0EBCF80911C0385FD1FC045
:1021D00021C080911C0385FD1DC019C080911C0386
:1021E00086FD1BC01DC080911C0386FD19C015C053
:1021F00089E390E000C182EE90E0FDC080EE90E0C7
:10220000FAC086EE90E0F7C084EE90E0F4C089E278
:1022100090E0F1C085E390E0EEC08AE290E0EBC090
:1022200081E390E0E8C0811532E5930708F069C0CA
:10223000811541E5940728F0982F8827816F906ACF
:10224000DAC0883E910568F5803E910508F0D3C05C
:10225000883A9105B8F4853A910548F0855AE82FF7
:10226000F0E0EA5AFE4F808190E09064C4C0813073
:10227000910509F4BBC008F4BCC08430910508F492
:10228000B8C0B9C08F3B910508F0B3C0885AE82F99
:10229000F0E0EE0FFF1FE75AFE4F808191819464BA
:1022A000AAC0811520E59207F0F09C0174E03695F4
:1022B00027957A95E1F7922F9370482F437021E08C
:1022C00030E002C0220F331F4A95E2F73C68392BF9
:1022D0008F70982F9695969540E2949FC001112497
:1022E000822B932B88C0811530E4930718F09F70E0
:1022F000906A81C09C013A9521153F4108F47BC04A
:1023000078C0EC01C11586E5D807E8F5C11525E5CB
:10231000D20748F08C2F0E9419108F7190E0982FEF
:102320008827906268C0C11534E5D30728F09C2F38
:102330008827846F906A5FC0AE01437055272C2FA9
:1023400026952695C115D34578F481E090E002C02A
:10235000880F991F4A95E2F740E2249F90011124CB
:10236000822B932B9C6847C081E090E002C0880FCD
:10237000991F4A95E2F740E2249F90011124822B95
:10238000932B9A6838C0C1152AE5D207F8F4C11515
:1023900039E5D30790F08C2F8F700E94191094E0CC
:1023A000D695C7959A95E1F7CF70D0E0DC2FCC2772
:1023B000D0699E01282BC9011EC0C11548E5D4076C
:1023C000C0F09C2F8827806F906A15C0CE01905670
:1023D0008115904270F48D2F8F710E941910282F53
:1023E0002F71CE0199279062922B05C081E090E079
:1023F00002C080E090E0DF91CF91089568EE7EEF1B
:1024000080E090E00E94902A60E082E090E00E94EC
:10241000722A60E083E090E00E94722A10924A02E1
:1024200060E084E090E00E94722A64E082E290E042
:102430000E94722A60E085E090E00E94722A60E0CB
:1024400086E090E00E94722A6FEF87E090E00E94A1
:10245000722A40E050E0BA0188E090E00E94842AAD
:1024600060E08DE090E00E94722A40E050E0BA0106
:1024700088E190E00E94842A60E087E190E00E9479
:10248000722A40E050E0BA018CE190E00E94842A78
:1024900060E070E080E290E00E94902A40E050E02E
:1024A000BA0188E190E00E94842A1092870210927B
:1024B00088021092890210928A0284E08093870237
:1024C00040918702509188026091890270918A023E
:1024D0008FE090E00E94842A40E050E0BA0183E15E
:1024E00090E00E94842A08958091490281111092FF
:1024F00049020895809590911003892380931003D9
:1025000008958095909154028923809354020895F0
:102510009091540280911003982B9093D001809158
:1025200049028823D9F0892B8093D00180910A0138
:10253000882331F080911C0387FF02C08EE101C027
:1025400086E0E2EDF1E090E0815028F02191222335
:10255000D9F39F5FF9CF91110E94741240E250E0CD
:1025600069E272E080ED91E00E946A2C892B21F1F2
:1025700080E2E0EDF1E0A9E2B2E001900D928A95EF
:10258000E1F7E0911303F09114033097A9F08091E3
:102590000A01882359F080911C0387FF07C08091AE
:1025A000D0018093D10186E08093D0010280F38135
:1025B000E02D80ED91E00995089520912802809505
:1025C000822380932802982F977099F430E0482F47
:1025D000082E000C550B2417350759F090911D0358
:1025E00092FF07C08595859585950E946B2710926F
:1025F00028020895CF93C0911D03C2FB992790F93B
:10260000981791F080FBC2F9C0931D0360911C03E1
:1026100084E090E00E94722A6C2F82E290E00E9497
:10262000722A82E00E94DD12CF91089580912702E4
:102630009091F601891719F08F5F8770FBCF08958D
:102640000F931F93CF93DF938091F50182958F7045
:1026500009F05AC08091F201882309F455C0809195
:1026600027021091F6016091F0017091F101C09183
:10267000F301D091F40191E06F3F09F090E0292F30
:1026800006E0811709F440C0209721F07F3F21F038
:1026900030E003C031E001C0322F90E030FD31C0A6
:1026A000089FF001099FF00D1124DF01A950BE4FD2
:1026B00011963C911197371324C03C91361321C0D9
:1026C00012963C91129731111CC013964D915C915A
:1026D00014974C1B5D0B4538510598F48091F5011A
:1026E0008F7080618093F501E450FE4F80818F7080
:1026F0008061808380EF91E00E9438050E9416136C
:1027000003C001968770BDCFDF91CF911F910F91CC
:102710000895A1E1B0E0EFE8F3E10C94B2298C0157
:1027200085E0F801DE011D9601900D928A95E1F792
:10273000D8011296EC909091F0016091F1014091D6
:10274000F3015091F4014115510531F06F3F31F41F
:1027500081E09F3F19F403C081E001C080E0B82F01
:10276000B1709B2E80FD23C1F80130812181C3808F
:10277000D48080EFA82E81E0B82EF090F201D6012F
:10278000A41BB50BFF2009F4CFC08091F501A5383B
:10279000B10508F09AC0482F407F09F059C0621374
:1027A00011C093130FC0FE2CE1100CC08F7080611C
:1027B0008093F501C5010E9438058091F501F8016B
:1027C000858333C1C114D10431F02F3F31F481E04E
:1027D0003F3F19F403C081E001C080E080FD03C0E9
:1027E00081E08E2502C080E090E0F82FF170FF2E8E
:1027F00080FF1CC0809127024091F60156E08417AB
:1028000009F4F0C090E0589FF001599FF00D112499
:10281000E950FE4F6181261306C06081631303C037
:102820006281E61203C001968770E9CFFE2CEE208C
:1028300009F4FBC08091F50181608093F50180EF80
:1028400091E00E943805E0EFF1E086E0DF0146C04C
:10285000621306C0931304C0E11002C0F80186C0E1
:10286000C8010E948927882351F1EE2041F120916F
:10287000F501822F82958F7090E0029774F080911D
:10288000F0019091F10198878F831986DB86CA86C3
:102890002C87CE0107960E94380586E0F801A0EF4C
:1028A000B1E001900D928A95E1F70E9420130AC0D1
:1028B0006217C9F0C8010E94892781111EC0C80192
:1028C0000E943805FF24F394B0C0482F407F81F761
:1028D00080EF91E00E94380586E0D5011D928A952F
:1028E000E9F7F12CA2C09313E5CFE110E3CFF80193
:1028F0008583C8010E94380554C0EE2001F3209161
:10290000F501822F82958F7090E0029734F28091CA
:10291000F0019091F1019A8389831B82DD82CC8240
:102920002E83CE010196B7CFA538B105D0F5FE2C88
:10293000EE2029F2621327C0931325C02091F501E0
:1029400020FD18C0822F82958F70482F50E04115CE
:10295000510581F0F80125834F30510541F08F5F1B
:10296000982F9295907F822F8F70892B8583C80135
:102970000E94380586E0F801A0EFB1E001900D92C9
:102980008A95E1F752C0C8010E948927811185CF3D
:102990008091F50181608093F501C8010E9438059E
:1029A00044C086E0D5011D928A95E9F73EC0EE202D
:1029B00009F485CFC8010E948927F82E882309F4DD
:1029C0007ECF86E0F801A0EFB1E001900D928A95EC
:1029D000E1F78091F0019091F1010E94CB260E94D5
:1029E000201323C03D872E878D859E850E94CB2690
:1029F000292F22952F70223028F49F7039F08111F1
:102A000005C00BC0243028F49F7049F4805E8830E4
:102A100020F0C8010E9438059F2CF92C06C0D8016F
:102A200015969C91907F91F7F8CF8F2D6196EBE0F2
:102A30000C94CE29A0E0B0E0E0E2F5E10C94B429DA
:102A40008091490190914A01892BB9F080914B0204
:102A50008F5F80934B02811110C00E94890E90E01D
:102A600090934A0180934901892B39F40E94000F09
:102A700081E0809348010E949E230BE812E07801D8
:102A8000B12CC0E087E0C82ECC0E8C2F0E94700FB6
:102A90008C2D0E94700F8C2F0E94D30F8F73F70123
:102AA0009081891721F08083DD24D39401C0D12C3B
:102AB0008C2D0E94D30F8F73F7019781891719F01E
:102AC000878381E001C080E0D82ABD280E94C40F1E
:102AD000CF5FFFEFEF1AFF0AC730A1F6C0914F0298
:102AE000CC23C9F10E94602220914D0230914E0208
:102AF000AC01421B530B9A0190934E0280934D02FE
:102B00004F3F510509F020F4452B09F4A1C002C044
:102B10002FEF30E010924F0210924C02E0918502AC
:102B2000F0918602AF01425F5F4F90E030E080811C
:102B3000882341F0281718F010829C2F03C0821BB5
:102B400080833C2F3196E417F50789F730934F02C5
:102B500090934C027DC0BB2009F471C00E9460229A
:102B600090934E0280934D02E0918502F09186028F
:102B700080914F02ADE9B2E09F01225F3F4F4EE1ED
:102B8000E80199918E015C91591731F050815111F2
:102B900003C040839C9381E031961196E217F307BE
:102BA00079F780934F022091820280915102909197
:102BB00052022223C9F1892B31F425982D982698A9
:102BC0002E9827982F9880915102909152029170DF
:102BD000892B79F480915002882319F026982E9839
:102BE00002C0269A2E9A9091500281E08927809304
:102BF000500280915102909152028130984750F0DA
:102C00001092820280919A020E94E70D1092520265
:102C1000109251028091510290915202019690932C
:102C200052028093510218C0892BB1F010925202C7
:102C30001092510280919A020E94E70D0DC080E02F
:102C400090914C02992309F4AECF81118DCF86CF9C
:102C5000B1108ACF81E0F4CF8B2DCDB7DEB7E9E09C
:102C60000C94D02980917A0287FF11C08091E800EE
:102C700082FD05C0809184028111F8CF11C080913E
:102C8000E8008B770BC080918402882349F0809103
:102C9000E80080FFF8CF8091E8008E778093E8000D
:102CA0000895982F973068F59093E900981739F0B8
:102CB0007091EC002091ED005091F00003C0242FA2
:102CC000762F50E021FD02C09F5FECCF3091EB00EA
:102CD0003E7F3093EB003091ED003D7F3093ED006F
:102CE0003091EB0031603093EB007093EC00209357
:102CF000ED005093F0002091EE0027FDE5CF80E03D
:102D000008958F708093E90081E0089520918002FA
:102D1000309181022617370748F06115710539F4A3
:102D20002091E8002E772093E80001C0B901FC0152
:102D300020E06115710579F1809184028823F1F119
:102D40008530F1F18091E80083FD3CC08091E8007E
:102D500082FD2EC08091E80080FFEBCF2091F30030
:102D60008091F20090E0922B6115710551F088304E
:102D7000910538F421912093F10061507109019679
:102D8000F3CF21E0089709F020E08091E8008E77EA
:102D90008093E800CECF2111CFCF0AC0809184026A
:102DA000882361F0853061F08091E80083FD0AC0DE
:102DB0008091E80082FFF2CF80E0089582E00895DC
:102DC00083E0089581E008950895BC0184E00E94A5
:102DD00001220895BC0183E00E9401220895AAE225
:102DE000B0E0E5EFF6E10C94BA29EAE7F2E082E818
:102DF00092E02091F10021938E179F07D1F78091E7
:102E00007B02833009F463C030F4813071F082308A
:102E100009F49FC0B6C08A3009F48BC08B3009F426
:102E20006EC0893009F0ADC020C080917A02813A2D
:102E300009F0A7C08091E800877F8093E800809127
:102E40007E0290917F02892B21F460E287E592E077
:102E500003C060E080E090E070E00E948616809100
:102E6000E8008B778093E8008CC080917A028132F1
:102E700009F087C080917E0290917F02009719F03F
:102E8000029709F07EC08091E800877F8093E80078
:102E90008091E80082FD05C0809184028111F8CF05
:102EA00070C02091F3008091F20090E0922B029785
:102EB00031F48091F100813011F0863021F480915D
:102EC000F100809356028091E8008B7756C0809184
:102ED0007A02813A09F055C080917E0290917F027A
:102EE000892B09F04EC08091E800877F8093E8002D
:102EF0008091E80080FFFCCF80910A0139C0809169
:102F00007A028132F1F580917E0290917F02892BC5
:102F1000C1F58091E800877F8093E8000E94321617
:102F200080917C0280930A01109254020E94A9278A
:102F300028C080917A02813221F58091E800877F54
:102F40008093E8000E94321680917D0280935502A2
:102F500018C080917A02813AA1F48091E800877FBD
:102F60008093E8008091E80080FFFCCF80915502BB
:102F70008093F1008091E8008E778093E8000E94B2
:102F800032168091E80083FFDFC180917A02909130
:102F90007B02492F50E04A30510508F0D5C1FA01B3
:102FA000E059FF4F0C941B2B803821F0823809F038
:102FB000CBC108C08091770290917802992389F063
:102FC00082600FC080917E028F70873008F0BCC194
:102FD0008093E9008091EB0085FB882780F91092AF
:102FE000E9009091E800977F9093E8008093F100CA
:102FF0001092F10070C1282F2D7F09F0A5C1882300
:1030000019F0823061F0A0C180917C02813009F01A
:103010009BC1933009F080E0809378022EC08091AC
:103020007C0281112AC080917E028F702FEF280FC1
:10303000263008F089C18093E9002091EB0020FF41
:103040001CC0933021F48091EB00806214C09091F9
:10305000EB0090619093EB0021E030E0A90102C009
:10306000440F551F8A95E2F74093EA001092EA0058
:103070008091EB0088608093EB001092E9008091D2
:10308000E800877F8093E8000E9432165DC18111BD
:103090005BC110917C021F778091E3008078812BC7
:1030A0008093E3008091E800877F8093E8000E948E
:1030B00032168091E80080FFFCCF8091E3008068A9
:1030C0008093E300111102C082E001C083E080938D
:1030D00084023AC18058823008F036C120917C02C7
:1030E00030917D022C3D53E0350779F583E08A83EA
:1030F0008AE289834FB7F894DE01139620E03EE020
:1031000051E2E32FF0E050935700E49120FF03C019
:10311000E295EF703F5FEF708E2F90E0EA3010F095
:10312000C79601C0C0968D939D932F5F243149F7B8
:103130004FBF8091E800877F8093E8006AE270E0EB
:10314000CE0101960E948616B4C080917E029091B5
:103150007F02432F552743305105A9F068F44130D1
:10316000510509F400C14230510509F0EDC08BE56D
:1031700090E0EBE5F7E04BC04132510529F14232D6
:10318000510589F1E1C0C901992781309105A1F06C
:1031900058F0029709F0D8C0E8ECF7E0E4918E2FE0
:1031A00090E0E8ECF7E030C0E6E1F8E0E4918E2F43
:1031B00090E0E6E1F8E028C0ECEEF7E0E4918E2F35
:1031C00090E0ECEEF7E020C08330910508F0BCC041
:1031D000880F991FFC01E057FE4F0190F081E02D10
:1031E00089E090E014C08330910508F0ADC0FC0187
:1031F000EE0FFF1FE657FE4F0190F081E02DDC013E
:10320000A957BE4F8C9190E0009709F49DC0209182
:10321000E800277F2093E80020918002309181020E
:103220002817390708F4C90140E0009789F1209177
:103230008402222309F43DC02530D9F12091E80011
:1032400023FD37C02091E80022FD2FC02091E80027
:1032500020FFEBCF4091F3002091F20030E0342BBF
:10326000009759F02830310540F444914093F10023
:10327000319601972F5F3F4FF3CF41E02830310562
:1032800009F040E02091E8002E772093E800CDCFB0
:103290004111CDCF0AC080918402882351F085303E
:1032A00041F08091E80083FD04C08091E80082FF36
:1032B000F2CF8091E8008B778093E80045C080389A
:1032C00009F042C08091E800877F8093E8008091F8
:1032D00079028093F1008091E8008E77D3CE81113E
:1032E00033C080917C0290917D029927029764F50A
:1032F0008091E800877F8093E80010917C02109312
:1033000079020E943216111106C08091E30087FDF8
:1033100002C081E001C084E08093840242E061EC5D
:1033200081E00E94511642E261EC84E00E94511655
:1033300042E261EC82E00E94511642E260EC83E0DE
:103340000E945116809184028091E80083FF10C092
:103350008091E800877F8093E8008091EB00806295
:103360008093EB0005C082E190E0E6EBF7E04FCF01
:10337000AA96E3E00C94D6291F920F920FB60F92F3
:1033800011242F933F934F935F936F937F938F936A
:103390009F93AF93BF93CF93DF93EF93FF93C0912E
:1033A000E900CF708091EC00D82FD17080FDD0E87B
:1033B0001092E9008091F000877F8093F00078946C
:1033C0000E94EF161092E9008091F00088608093CF
:1033D000F000CD2BCF70C093E900FF91EF91DF910A
:1033E000CF91BF91AF919F918F917F916F915F919D
:1033F0004F913F912F910F900FBE0F901F901895F6
:10340000E8EDF0E080818E7F80831092E2001092E0
:10341000DA001092E100A0EEB0E08C9181608C9314
:1034200080818F77808319BCA7EDB0E08C918E7F6F
:103430008C9380818F7E8083109253020895A0E048
:10344000B0E0E5E2FAE10C94B529C8EDD0E088815E
:103450008F7E8883E7EDF0E080818160808384E067
:1034600082BF81E08093530288818E7F888302EE41
:1034700010E0F80110821092DA0081EEC82ED12CF3
:10348000F601108288818F7788838881806888839D
:1034900088818F7D888319BC1092840210927902F2
:1034A000109278021092770290EEE92EF12CF7013B
:1034B00080818B7F808388818160888342E060E0A7
:1034C00080E00E945116F60180818E7F8083F80192
:1034D000808181608083808188608083F701808122
:1034E0008E7F8083888180618883CDB7DEB7E8E0F6
:1034F0000C94D1291F920F920FB60F9211242F9383
:103500003F934F935F936F937F938F939F93AF936B
:10351000BF93EF93FF938091E10082FF09C08091F8
:10352000E20082FF05C08091E1008B7F8093E10083
:103530008091DA0080FF2AC08091D80080FF26C0E9
:103540008091DA008E7F8093DA008091D90080FF2D
:1035500018C080E189BD82E189BD09B400FEFDCFBC
:1035600081E0809384028091530281110FC00E94F8
:10357000001A0E941F1A8091E20084608093E2008A
:1035800005C019BC10928402109253028091E10090
:1035900080FF17C08091E20080FF13C08091E2009D
:1035A0008E7F8093E2008091E20080618093E20050
:1035B0008091D80080628093D80019BC85E0809308
:1035C00084028091E10084FF30C08091E20084FF9A
:1035D0002CC080E189BD82E189BD09B400FEFDCF28
:1035E0008091D8008F7D8093D8008091E1008F7EFC
:1035F0008093E1008091E2008F7E8093E2008091D1
:10360000E20081608093E20080917902882311F0CA
:1036100084E007C08091E30087FD02C081E001C023
:1036200083E080938402809184028091E10083FF93
:1036300027C08091E20083FF23C08091E100877F53
:103640008093E10082E0809384021092790280915D
:10365000E1008E7F8093E1008091E2008E7F809375
:10366000E2008091E20080618093E20042E060E04D
:1036700080E00E9451168091F00088608093F000F5
:10368000FF91EF91BF91AF919F918F917F916F913A
:103690005F914F913F912F910F900FBE0F901F9010
:1036A00018952091E4003091E50095E64091EC00FA
:1036B000842F817040FF23C08091E80080FD1DC0F1
:1036C00080918402882399F0853099F08091EB00F5
:1036D00085FD11C04091E4005091E50024173507A5
:1036E00029F3915011F09A01E1CF84E0089582E02E
:1036F000089583E0089581E0089580E00895409161
:10370000E80042FFDDCF0895EF92FF920F931F93E1
:10371000CF93DF937C018B010E94511B811119C053
:10372000E70101151105A1F08091E80085FD0AC0AF
:103730008091E8008E778093E8000E94511B8823D7
:1037400081F307C089918093F10001501109E9CFFD
:1037500080E0CDB7DEB7E6E00C94D329CF9320917B
:103760008402243029F5C091E900CF703091EC003B
:10377000232F217030FD20E8C22B22E02093E900A6
:103780002091E80020FF11C040E050E060E270E0CE
:103790000E94841B882321F01092820210928302DF
:1037A0008091E8008E778093E800CF70C093E900A5
:1037B000CF910895ACE5B0E0E0EEFBE10C94B029C8
:1037C00085B7806885BF85B7806885BF84B7877FE8
:1037D00084BF0FB6F894A8958091600088618093AB
:1037E0006000109260000FBE90E080E80FB6F89481
:1037F00080936100909361000FBE87E190E1909308
:10380000C9018093C8010E94001A0E941F1A80916A
:10381000E20084608093E20078948091840288239F
:10382000A1F01091E9001F709091EC00892F817038
:1038300090FD80E8182B1092E9008091E80083FD4C
:103840000E94EF161F701093E90082E084BD93E0A0
:1038500095BD9AEF97BD80936E000E94890E90E00F
:1038600090934A01809349010E94C40F0E940A105C
:10387000EBE8F2E0ADE9B2E011921D9222E0E93905
:10388000F207D1F78EE090E00E943C2B80938502F6
:1038900090938602FC010E961192E817F907E1F762
:1038A00089EA8093800089E08093810024982C9895
:1038B0003F988AB18F7C8AB96E98479A8BB18063A2
:1038C0008BB9769A8FE090E00E94562A6093870227
:1038D000709388028093890290938A0267708FEFB9
:1038E000689FB00111247595679575956795772741
:1038F000709389006093880070938B0060938A00B6
:1039000070938D0060938C000E94000F80E090E027
:103910000E945C2A883E9E4F11F00E94FE1182E0B8
:1039200090E00E944E2A8093AB0284E090E00E94D7
:103930004E2A182F82E290E00E944E2A212F30E07A
:10394000382B30931D0320931C0383E090E00E94EA
:103950004E2A0E94842780919A020E94E70D80914E
:103960009902811136C080E090E00E945C2A883E76
:103970009E4F21F00E94FE110E94A52488E090E055
:103980000E94562A609308037093090380930A03E8
:1039900090930B036E7F71F40E94A52488E090E061
:1039A0000E94562A609308037093090380930A03C8
:1039B00090930B030E9442241092290380910803E4
:1039C00080FF04C060E086950E94312681E08093EC
:1039D000990280919A020E94E70D8BE091E090930A
:1039E000140380931303B8E1EB2EF12C10E4D12ED5
:1039F00080918402853009F07DC0CC24C39400E11D
:103A000012E180918402853009F065C080918402C2
:103A1000843009F43DC01092290380919C028111E9
:103A200016C0C0929C0280910803982F91709093C9
:103A30009B028E7F809308032FEF80E792E0215056
:103A400080409040E1F700C000000E949E23109249
:103A500017030FB6F894A895E09260000FBED092BD
:103A6000600083B7817F846083BF83B7816083BF39
:103A70007894889583B78E7F83BF0FB6F894A89506
:103A800080916000886180936000109260000FBE9A
:103A900080917802882309F4B4CF0E94890E90E0C7
:103AA00090934A01809349010E94C40F0E940A101A
:103AB000EDE9F2E0119222E0EB3AF207D9F70E9429
:103AC0001A15EDE9F2E0819181114CC282E0EB3AE6
:103AD000F807C9F796CF109254020E94A9270E94B6
:103AE000E92210929C0280919B0281110E946C2617
:103AF0000E941B260E941A15882359F08FB7F8944C
:103B0000409118035091190360911A0370911B039F
:103B10008FBFACEAB2E0EDE9F2E000E010E0302F58
:103B200021919D919227A1F180E0BB24B394492F6C
:103B30004B2151F164968FAF649765963FAF6597BF
:103B40002B2181E009F480E066968FAF66970E9492
:103B500060228160782F68969FAF8EAF68976496D9
:103B60004FAD649765965FAD659766966FAD669746
:103B700068968FAD68970E94540CF801E455FD4F8C
:103B80008081B826B0822AC08F5FBB0C863079F660
:103B90000F5F1F4F0E30110509F0C1CF8FEF6996EF
:103BA0008FAF69976A968FAF6A976B961FAE6B97C8
:103BB0000E9460228160782F6D969FAF8EAF6D97C7
:103BC00069964FAD69976A965FAD6A976B966FADD0
:103BD0006B976D968FAD6D970E94540C8091170175
:103BE00090911801019641F1C12CA6E17A2E1BC0DB
:103BF0007A9CF0017B9CF00D1124E45EFE4F8288DC
:103C000093888114910419F4F5E88F2E912C7A9CF5
:103C100080017B9C100D1124045E1E4FF8018681EB
:103C200081110FC0C394AC2CB12C809117019091DD
:103C300018018A159B05E4F680910D03882331F164
:103C400018C0858596850E9451228816990650F7DE
:103C5000F8018189811103C0C8010E94F6227A9C73
:103C6000C0017B9C900D11248E5D9E4F0E941523F8
:103C7000D9CF0E9460222091BA023091BB02821BF0
:103C8000930B8F3F9F4710F40E945A238091290382
:103C9000882309F493C080912803E0910803E695F6
:103CA000E81BE0932403823059F4F0E0E85DF74F1D
:103CB000E4910E2F10E0EDEEAE2EE1E2BE2E59C0E3
:103CC000863059F4F0E0EB5DF74FE4910E2F10E0F1
:103CD0007DEDA72E71E2B72E4CC0893061F4E695D8
:103CE000F0E0EE5DF74FE4910E2F10E069E7A62EAD
:103CF00061E2B62E3EC08F3061F4E695F0E0E15E01
:103D0000F74FE4910E2F10E053E1A52E51E2B52EAE
:103D100030C0853159F4F0E0E45EF74FE4910E2FA6
:103D200010E043ECA42E40E2B42E23C08831A1F071
:103D3000833249F4EAE1F8E00591149133EAA32EC5
:103D400031E2B32E16C0843271F404EF11E020E1A9
:103D5000A22E20E2B22E0DC008E210E098E4A92EB7
:103D600090E2B92E06C000ED17E08AECA82E8FE194
:103D7000B82E80912503882361F0109225030E94BC
:103D800060229093230380932203109227031092C2
:103D900026030E946022E0912203F09123038E1BF0
:103DA0009F0B8F3F9F4750F40E0F1F1F109323034D
:103DB0000093220382E293E0F50109950E94E92233
:103DC0009091BC0289138093BC028091840284305C
:103DD00009F00ECE83E08093E9008091E80082FF35
:103DE00007CE8091E80085FF22C00E94511B8111FF
:103DF0001CC000E210E05E01F1E2AF0EB11C08C091
:103E00008091F100F50181935F010150110969F082
:103E10008091E80085FDF4CF8091E8008B77809356
:103E2000E8000E94511B882399F391E001C090E0C3
:103E30008091E8008B778093E800992309F4D8CD2E
:103E400089A18130E9F158F1823021F0843009F400
:103E50007DC0CECD8BA19AA19093BD028093BE026E
:103E60008DA19CA19093BF028093C0028FA19EA1BF
:103E70009093C1028093C20242E150E063E270E09D
:103E8000CE018F5B9F4F0E943E2A84E0898381E0B0
:103E9000809383028EEF8A83109282020CC0198273
:103EA0008CE0E6E9F1E0DE01129601900D928A9530
:103EB000E1F78EEF8D87CE0101960E94AE1B98CD63
:103EC00003EC12E00E946423F801819391938F0127
:103ED000F2E0093C1F07B1F781E089839091C302AA
:103EE0009A839091C4029B839091C5029C83909188
:103EF000C6029D839091C7029E839091C8029F83C2
:103F00009EEF988780938202CE0101960E94AE1B9D
:103F100042E150E063E270E0CE0101960E943E2A49
:103F2000FE01319682E183301CF09189928B01C0B1
:103F3000128A815031978F3FB1F742E150E063E23E
:103F400070E0CE0101960E94622A52CD80918302D8
:103F5000882309F44DCD80E00E9441278AA10E9468
:103F6000782746CD09BD19BD09B400FEFDCF80916B
:103F7000D8008F7D8093D8008091E000826080938C
:103F8000E0008091E00081FDFCCF109254020E947D
:103F9000A92737CD08950895809156020895CF93AB
:103FA000DF9320910A01222339F020911C0327FF7F
:103FB00003C060E224E002C068E021E02093E90051
:103FC0002FEF3091E800215035FD06C035ED3A95D0
:103FD000F1F700002111F5CF2091E80025FF1DC069
:103FE000EC0180910A01811105C040E050E068E0D9
:103FF00070E003C070E040E050E0CE010E94841BFE
:104000008091E8008E778093E80080E2FE01A7E5CA
:10401000B2E001900D928A95E1F7DF91CF9108957A
:10402000EF92FF920F931F93CF93DF938C01CCEC11
:10403000D2E0E12CF12CF8018481F7E0EF16F104D5
:104040001CF4882339F002C0811104C09E01409104
:104050000B0302C09E0140E060910A0380910903B6
:104060000E94B5248FEFE81AF80A24969FE0E9161B
:10407000F10409F70E949E23F801848190E00196E3
:10408000817099278483CDB7DEB7E6E00C94D329FD
:10409000A0E0B0E0EEE4F0E20C94B129EC014C8138
:1040A000042F10E09801D8010E94EA2A9B01AC017C
:1040B0000E94B52A6B017C01E0E2F0E0E01BF10B0D
:1040C000A5E5B0E09B01AC010E94B52A4B015C0163
:1040D0009F01DF010E94212B9B01AC010E94C02A9D
:1040E0009B01AC012C0D3D1D4E1D5F1DC501B40192
:1040F0000E94C82A822FF22E99E2921728F093E0AC
:10410000299F900111240DC025E530E0281B3109BD
:10411000C901880F991F280F391F37FF02C02F5F71
:104120003F4F35952795122F10959CECC92E92E0A4
:10413000D92E00E085E5E82EEF1801FD02C08E2D96
:1041400001C08F2D9601412F60910A030E94B52472
:104150000F5F84E0C80ED11C0F3079F70E949E23B8
:104160008C81811102C091E003C0803219F49FEF6D
:1041700090931B0190911B01890F8C83CDB7DEB703
:10418000ECE00C94CD290F931F93CF93DF93CCECED
:10419000D2E0FE011182108212821382349683E0F3
:1041A000E830F807B9F700E010E08091CA02082E65
:1041B000000C990B0817190794F080911A01082E2A
:1041C000000C990B8017910754F09E0140910B034E
:1041D00060910A03809109030E94B52404C01982EA
:1041E00018821A821B820F5F1F4F24960F30110511
:1041F000E1F60E949E23809119019091CA02980FC6
:104200009093CA0220911A01280F20931A011216C6
:1042100014F49E301CF0819580931901DF91CF91A9
:104220001F910F910895A0E0B0E0E9E1F1E20C9454
:10423000B429FC01828180FF03C0DD24DA9402C02E
:10424000DD24D3940CEC12E0C0E0D0E02FE0B22EDD
:10425000F801118210821282138294E0E92EF12C6F
:10426000C12C8091C9028C0D80312CF06B2D0E94E5
:10427000F92A892F02C087FD815F082E000C990B57
:10428000C817D90791F480910B038E9DA0018F9DD3
:10429000500D112455954795559547959801609176
:1042A0000A03809109030E94B524CD0CF1E0EF1AB6
:1042B000F108B9F621960C5F1F4FCF30D10541F6BA
:1042C0000E949E238091C90291E0D91206C08111FB
:1042D00002C08EE007C0815005C090E00196BE018B
:1042E0000E94072B8093C902CDB7DEB7E9E00C949A
:1042F000D029EF92FF921F93CF93DF93EC018CECC8
:10430000E82E82E0F82E10E08C81970140910B039B
:1043100060910A03810F0E94B5241F5E84E0E80EBD
:10432000F11C1F3F89F70E949E239A818C8190FF88
:1043300002C08F5F01C081508C83DF91CF911F91AC
:10434000FF90EF900895A4E0B0E0E9EAF1E20C9468
:10435000B9298C018091CB0281110AC09E012F5F87
:104360003F4F4FEF6FEF0E94B5248A818093CB02BD
:10437000F8018481813051F028F0823061F440915D
:10438000CB020AC08091CB0240E007C06091CB0213
:1043900040E080E003C040E080E060E00E94302424
:1043A000F801848190E0019663E070E00E94072BA1
:1043B00084832496E4E00C94D529CF93DF93EC0119
:1043C000E8E0F3E0438162818C810E9442258C8188
:1043D0008F5F8C83DF91CF910895CF93DF93EC01B2
:1043E000EC81F0E0E45DF74F4491E8E0F3E06281B6
:1043F00081810E9442258C818F5F8C83DF91CF91D8
:10440000089580931E037093200360931F0380918F
:1044100084028430F9F48093E9008FEF9091E800F2
:10442000815095FD06C095ED9A95F1F70000811138
:10443000F5CF8091E80085FF0DC040E050E063E0DB
:1044400070E08EE193E00E94841B8091E8008E77FB
:104450008093E800089578941F920F920FB60F9200
:1044600011248F939F93AF93BF93809118039091E2
:104470001903A0911A03B0911B030196A11DB11D50
:104480008093180390931903A0931A03B0931B030E
:10449000BF91AF919F918F910F900FBE0F901F9082
:1044A00018959C014FB7F8948091180390911903C7
:1044B000A0911A03B0911B034FBF821B930B089569
:1044C0002FB7F8948091180390911903A0911A03C3
:1044D000B0911B032FBF08951F920F920FB60F923A
:1044E00011248F939F93AF93BF93809117038111F2
:1044F00013C08091180390911903A0911A03B091F1
:104500001B034196A11DB11D8093180390931903BD
:10451000A0931A03B0931B03BF91AF919F918F910A
:104520000F900FBE0F901F90189520910A01222323
:10453000C9F020911C0327FF15C0262F269526952C
:1045400026952E31C8F4FC01E20FF11D677081E061
:1045500090E001C0880F6A95EAF7809592818923DF
:1045600082830895FC0106962281621301C01282A3
:104570003196E817F907C1F7089520911503309196
:1045800016032817390771F09093160380931503CB
:10459000E0911303F0911403309721F00084F1852A
:1045A000E02D0995089520911103309112032817E9
:1045B000390771F09093120380931103E091130374
:1045C000F0911403309721F00680F781E02D0995D2
:1045D0000895E0911303F0911403309729F00190AE
:1045E000F081E02D0995089580E00895CF93DF9341
:1045F000EC0181E0898B909154028F81892B80930B
:104600005402909110038885892B809310030E9497
:104610008812EA81FB81CE010696309719F06C89E9
:104620007D890995DF91CF910895EF92FF920F93C5
:104630001F93CF93DF93FC012285211136C0EC013B
:10464000E380F480F7E5FF1A26E12E9DC0012F9D3F
:10465000900D1124DC01A45EBE4F1496ED91FC91E7
:1046600015978E5D9E4F309729F054966D917C91F1
:104670005597099586E18E9D80018F9D100D11241F
:10468000045E1E4FF80187810E948112F801808527
:104690000E947A120E948812188219861B861E8236
:1046A0001D8210920F0310920E03CDB7DEB7E6E025
:1046B0000C94D32980910D03882329F082E20E9473
:1046C000BD2710920D030895CF93DF930E942E2AE9
:1046D00066E070E00E94072BD82F0E942E2A6EE021
:1046E00070E00E94072BC82F6D2F782F80E00E946A
:1046F0005C100497C59718F48D2F9C2F02C00E9460
:104700006423DF91CF9108959091080390FF04C036
:104710009695981748F003C0811106C090E096174F
:1047200018F40E94842608950E947626089588230E
:1047300011F0FA0101C0FB0109950895EF92FF9273
:104740000F931F93CF93DF938091080380FF08C0DE
:104750000CEC12E088E0E82E83E0F82EF8011BC094
:10476000ECECF2E088E093E0118210821282138276
:1047700034968E179F07C1F7EBCF381708F4832FB5
:104780008383381B3183281B2083981B92833496A4
:10479000EE16FF0641F0928120813181892F291781
:1047A00060F7822FEACF80912103882381F18091E5
:1047B000490190914A01892B51F580914801882344
:1047C00031F165E070E084E80E94C928892B19F076
:1047D000109248011AC0CCECD2E065E070E088810C
:1047E0000E943E2965E070E089810E943E2965E0D3
:1047F00070E08A810E943E2965E070E08B810E9412
:104800003E292496EC16FD0641F70E949329579AFB
:104810008BB18F779BB190682FB7F894E016F106B3
:1048200099F0F80131918F0148E09BB9000000C078
:1048300037FF8BB9330F000000C000C000C08BB938
:1048400000C04A9591F7EACF2FBF8FE594E001971A
:10485000F1F700C00000CDB7DEB7E6E00C94D32935
:104860009091080390FF0DC0ECECF2E0818360832F
:1048700042831382349693E0E830F907B9F70E9437
:104880009E23089580910803282F269530E0211556
:10489000310519F48170826005C02532310524F09C
:1048A00081708864809308030895CF92DF92EF921D
:1048B000FF926B017C010E944224B701A60188E0AF
:1048C00090E00E94842AFF90EF90DF90CF900895AF
:1048D00080910C03882319F0815080930C03609120
:1048E00008037091090380910A0390910B030E94C1
:1048F0005524089580910C03833018F48F5F8093C2
:104900000C03609108037091090380910A03909150
:104910000B030E9455240895E8E0F3E080818E7F28
:10492000808360817181828193810E9455241092DD
:1049300029032FEF80E792E0215080409040E1F77B
:1049400000C000000E949E230895E8E0F3E083E0A9
:10495000808311828FEF82838383148260817181CF
:10496000828193810E9455240895A0E0B0E0EBEB92
:10497000F4E20C94B329E82EF62EE901E42FF0E0DE
:10498000611106C0E45DF64FE4914E2F2E2F71C0E9
:10499000062F10E0E45DF64F4491F42FC42ED12C85
:1049A00026E0829FC00111242FEF30E0B9010E9460
:1049B00097295BEA5603C001579F900D11248E0D75
:1049C000911D8E0D911D582F550F580FD901A01B09
:1049D000B10BAC9DC001AD9D900DBC9D900D1124FF
:1049E000E92FF59ED0011124AB2FBB277901EA1ADC
:1049F000FB0AEC9CD001ED9CB00DFC9CB00D112489
:104A00005901A51AB108A09E7001A19EF00CB09E9C
:104A1000F00C1124EF2CFF242E193F092C9D80014E
:104A20002D9D100D3C9D100D1124212F623071051C
:104A300091F048F461157105E1F061307105B9F448
:104A4000242F4B2F16C06430710569F040F066309A
:104A5000710579F00CC0242F492FE12F0AC0492F8E
:104A6000EF2F2B2F06C0292FE42F412F02C0292F13
:104A7000EB2F49832883EA831B82CDB7DEB7EAE0B8
:104A80000C94CF29A4E0B0E0E8E4F5E20C94BB2953
:104A90009091080390FF0AC09E012F5F3F4F0E9434
:104AA000B5244B8169818A810E9430242496E2E0FA
:104AB0000C94D729A4E0B0E0E0E6F5E20C94AE292E
:104AC000F82E762EE42E622E9091080390FF67C098
:104AD000E92FE695AE2FB0E0AE55BE4F8C91809396
:104AE00028039E7F923061F49E012F5F3F4F8F2DF0
:104AF0000E94B5244B8169818A810E9430243DC087
:104B0000823019F4E0900B0338C0863019F4F0902D
:104B1000090333C08930D9F3893179F5E9518E2FF2
:104B20008170582EE695F0E0E45DF54FE4910E2F8C
:104B300010E08CECC82E82E0D82EA12CB12C9FE086
:104B4000892E912CC501B4010E9497298F2D5110F7
:104B500002C0860F01C0861B96014E2D672D0E9454
:104B6000B524A00EB11E84E0C80ED11C88E0C81682
:104B700083E0D80639F70E949E23F09209037092D1
:104B80000A03E0920B03662051F0609108037091D4
:104B9000090380910A0390910B030E9455242496E7
:104BA000EFE00C94CA29E8E0F3E043812CE0421BDB
:104BB00008F440E021E0628181810E945A25089535
:104BC000E8E0F3E043812CE0420F08F44FEF21E0EE
:104BD000628181810E945A250895E8E0F3E06281B4
:104BE0002FEF621B08F460E021E0438181810E9485
:104BF0005A250895E8E0F3E062812FEF620F08F490
:104C00006FEF21E0438181810E945A250895E8E0F9
:104C1000F3E0818121E0438162818C500E945A251A
:104C20000895E8E0F3E0818121E043816281845FBF
:104C30000E945A25089560910803669570E04BE044
:104C400050E08BE491E00E945D2C892B19F481E007
:104C5000809329030E946022909323038093220370
:104C600008959091080390FF36C09170811102C0A1
:104C7000926006C0853210F0986402C0880F982BAD
:104C800090930803662351F0609108037091090323
:104C900080910A0390910B030E94552460910803B0
:104CA000669570E04BE050E08BE491E00E945D2C53
:104CB000892B19F01092290302C00E941B2681E063
:104CC0008093250320E040910B0360910A038091BB
:104CD00009030E945A250895E8E0F3E0808181608D
:104CE000808360E086950E943126089561E00E94ED
:104CF00031260895809108038695815009F484E255
:104D000061E00E94312608958091080386958F5FA7
:104D1000853208F081E061E00E943126089580E04C
:104D200090E00E94D32280E090E00E94BD22109289
:104D300010030E9488120895CF92DF92FF920F9382
:104D40001F93CF93DF936C0100919A0280914A02E6
:104D5000082BC7E0D0E010E0C8010C2E02C09595EA
:104D600087950A94E2F780FD04C02197A8F7F12CFB
:104D700009C0FC2EB6018C2F0E945C100E94751099
:104D8000019799F38F2DDF91CF911F910F91FF9094
:104D9000DF90CF900895CF93DF93EC010E949C2683
:104DA000BE010E945C100E947510DF91CF910895A2
:104DB000292F9E3078F5863068F590E036E0239F05
:104DC000800D911D1124682F677023E096958795BB
:104DD0002A95E1F7FC01EE0FFF1FE80FF91FE65DD2
:104DE000FC4F40E050E080E0219130E0062E02C010
:104DF000369527950A94E2F721703327042E01C0D7
:104E0000220F0A94EAF7822B4F5F5F4F4330510520
:104E100059F7089580E00895292F9E3088F586304F
:104E200078F590E036E0239F800D911D1124282F06
:104E3000277051E001C0550F2A95EAF723E09695B7
:104E400087952A95E1F7FC01EE0FFF1FE80FF91F88
:104E5000E65DFC4F20E030E070E04081CB01022EA7
:104E600002C0969587950A94E2F781708195842710
:104E70008523842781932F5F3F4F2330310569F7C6
:104E80000895A0E2B0E0E7E4F7E20C94BA290E94AA
:104E9000E70D182F809183028823A9F02FEF80E778
:104EA00092E0215080409040E1F700C0000085E092
:104EB0008983812F0E94F30C8A838EEF8B83CE012E
:104EC00001960E94AE1B10939A020E948F26A09614
:104ED000E3E00C94D62921E030E001C0220F8A954E
:104EE000EAF7209580919A0282230E944127089533
:104EF00021E030E001C0220F8A95EAF780919A0202
:104F0000822B0E944127089580934A020E948F2697
:104F10000895FC01808191810E94CB2692959F701B
:104F2000963079F010F4925001C09A50923068F4A3
:104F3000803F69F018F4883E40F409C0843F29F4AA
:104F400006C0883E20F0813F11F080E0089581E0A6
:104F5000089580910A01882331F080911C0387FF16
:104F600002C08EE101C086E0E2EDF1E0DF011D92BA
:104F70008A95E9F70E948F260895882321F00E94E0
:104F80007A120E9488120895882339F090911003B4
:104F9000892B809310030E9488120895882321F0A2
:104FA0000E9481120E9488120895882339F09091FE
:104FB0005402892B809354020E94881208958823FA
:104FC00049F1682F8CEF860F813A28F480ED91E04B
:104FD0000E9495220CC080E2860F883058F46770DA
:104FE00081E001C0880F6A95EAF70E9481120E9451
:104FF000881208958BE5860F833028F480E090E0D6
:105000000E94D3220895685A673120F480E090E02E
:105010000E94BD220895CF93882309F49AC0C82F17
:105020008CEF8C0F813A08F05EC080910A018823D2
:10503000E1F080911C0387FF18C0EC2FE695E69500
:10504000E695F0E0E053FE4F8281282F30E04C2FB0
:10505000477081E090E002C0880F991F4A95E2F7FF
:1050600082239323892B59F411C0E2EDF1E0819161
:10507000C81729F081E0E83DF807C9F707C06C2F91
:1050800080ED91E00E9495220E94881280910A0191
:105090008823C9F080911C0387FF15C0AC2FA6950B
:1050A000A695A695B0E0A053BE4FC77081E090E0F2
:1050B00001C0880FCA95EAF712969C911297892B26
:1050C00012968C9320C0A2EDB1E0EFEF80E09D91AD
:1050D000C917C9F0EF3F19F4911101C0E82F8F5F94
:1050E0008630A9F72DC080E28C0F883078F4C77025
:1050F00081E090E001C0880FCA95EAF790915402D0
:10510000892B809354020E94881223C0EBE5EC0F98
:10511000E33040F4F0E0EA5AFE4F808190E00E94D4
:10512000D32217C0C85AC731A0F4EC2FF0E0EE0F1D
:10513000FF1FE75AFE4F808191810E94BD2209C066
:10514000EF3F09F30E2E000CFF0BE053FE4FC2831E
:10515000DACFCF9108951F93CF93DF93182FEB01F0
:105160000E940B28209741F08FE99FE00197F1F70B
:1051700000C000002197F6CF812F0E94DF27DF912A
:10518000CF911F9108951092B9008CE08093B800E0
:105190000895A0E0B0E0EFECF8E20C94B229B82E4C
:1051A000EB010E9460226C01C431D10558F0CF3F61
:1051B0008FEFD80759F0CE0164E170E00E94972983
:1051C0007B0107C0EE24E394F12C03C025E0E22E1E
:1051D000F12C84E8A82E94EA992E1092BC009092AB
:1051E000BC000E9460228C018091BC0087FD08C039
:1051F0000E946022801B910B8E159F05A8F32AC088
:105200008091B900887F883041F08091B900887F13
:10521000803119F00FEF1FEF1FC0B092BB00A092BA
:10522000BC000E9460228C018091BC0087FD08C0F8
:105230000E946022801B910B8E159F05A8F30AC067
:105240008091B900887F883111F0803419F700E02F
:1052500010E00EC00EEF1FEFCF3F8FEFD80709F41D
:10526000BCCFC6010E9451228C179D0708F4B5CF10
:10527000C801CDB7DEB7EBE00C94CE290F931F9396
:10528000CF93DF93EB018093BB0084E88093BC0055
:105290000E9460228C018091BC0087FD0EC0CF3F30
:1052A0008FEFD807C1F30E946022801B910B8C17EF
:1052B0009D0788F38EEF9FEF0CC02091B900287FE7
:1052C00081E090E0283211F480E090E091958195A2
:1052D0009109DF91CF911F910F9108950F931F9323
:1052E000CF93DF93EC0184E88093BC000E9460229E
:1052F0008C018091BC0087FD0EC0CF3F8FEFD80797
:10530000C1F30E946022801B910B8C179D0788F3CC
:105310008EEF9FEF03C08091BB0090E0DF91CF91B3
:105320001F910F91089584E98093BC000895AA1BF2
:10533000BB1B51E107C0AA1FBB1FA617B70710F080
:10534000A61BB70B881F991F5A95A9F780959095B2
:10535000BC01CD0108952F923F924F925F926F92C0
:105360007F928F929F92AF92BF92CF92DF92EF92F5
:10537000FF920F931F93CF93DF93CDB7DEB7CA1B76
:10538000DB0B0FB6F894DEBF0FBECDBF09942A88A1
:10539000398848885F846E847D848C849B84AA8449
:1053A000B984C884DF80EE80FD800C811B81AA81D6
:1053B000B981CE0FD11D0FB6F894DEBF0FBECDBFA1
:1053C000ED0108958F929F92AF92BF92CF92DF929C
:1053D000EF92FF92CF93DF93EC01688179818A810C
:1053E0009B81611571058105910521F464E279EDD8
:1053F0008BE597E02DE133EF41E050E00E94962AE3
:1054000049015A019B01AC01A7EAB1E40E94B52A07
:105410006B017C01ACEEB4EFA50194010E94C32A9C
:10542000DC01CB018C0D9D1DAE1DBF1DB7FF03C060
:105430000197A109B04888839983AA83BB839F778A
:10544000DF91CF91FF90EF90DF90CF90BF90AF9022
:105450009F908F9008950E94E229089580E091E046
:105460000E94E2290895A0E0B0E0809300019093AB
:105470000101A0930201B09303010895DC01CB0167
:10548000FC01F999FECF06C0F2BDE1BDF89A319654
:1054900000B40D9241505040B8F70895F999FECFED
:1054A00092BD81BDF89A992780B50895A6E1B0E034
:1054B00044E050E00C94402AA8E1B0E042E050E023
:1054C0000C94402ADC01A40FB51F4150504048F015
:1054D000CB01840F951F2E910E94732A415050409A
:1054E000D0F70895262FF999FECF92BD81BDF89A85
:1054F000019700B4021639F01FBA20BD0FB6F89418
:10550000FA9AF99A0FBE08950396272F0E94732ADC
:105510000E94722A252F0E94732A242F0C94732A2A
:105520000196272F0E94732A0C94722A052E97FB4E
:105530001EF400940E94AD2A57FD07D00E94C82A8D
:1055400007FC03D04EF40C94AD2A5095409530954D
:1055500021953F4F4F4F5F4F0895909580957095DF
:1055600061957F4F8F4F9F4F08950E94EA2AA59F14
:10557000900DB49F900DA49F800D911D112408954E
:10558000B7FF0C94B52A0E94B52A821B930B08958D
:10559000A1E21A2EAA1BBB1BFD010DC0AA1FBB1F37
:1055A000EE1FFF1FA217B307E407F50720F0A21BA9
:1055B000B30BE40BF50B661F771F881F991F1A9416
:1055C00069F760957095809590959B01AC01BD0140
:1055D000CF010895A29FB001B39FC001A39F700D9A
:1055E000811D1124911DB29F700D811D1124911DEB
:1055F000089587FB082E062687FD819567FD619536
:105600000E94302B0EF4919507FC8195089597FB2D
:10561000072E16F4009407D077FD09D00E94972931
:1056200007FC05D03EF4909581959F4F08957095A5
:1056300061957F4F0895EE0FFF1F0590F491E02DC7
:1056400009940E94EA2A332312F48A1B9B0B0C94C0
:105650002B2B0E94EA2AB7FF0895821B930B089513
:10566000991B79E004C0991F961708F0961B881FB4
:105670007A95C9F7809508950F931F93CF93DF9381
:105680008230910510F482E090E0E0914D03F091BA
:105690004E0320E030E0A0E0B0E0309719F1408107
:1056A00051810281138148175907C8F08417950763
:1056B00069F4109731F012960C93129713961C937D
:1056C00027C000934D0310934E0322C021153105CE
:1056D00019F04217530718F49A01BD01EF01DF01D9
:1056E000F801DBCF21153105F9F0281B390B2430E7
:1056F000310580F48A819B816115710521F0FB01E0
:105700009383828304C090934E0380934D03FE01E4
:10571000329644C0FE01E20FF31F81939193225011
:105720003109398328833AC020914B0330914C03CF
:10573000232B41F4209106013091070130934C0353
:1057400020934B032091040130910501211531056F
:1057500041F42DB73EB74091080150910901241B37
:10576000350BE0914B03F0914C03E217F307A0F4E3
:105770002E1B3F0B2817390778F0AC014E5F5F4FA7
:105780002417350748F04E0F5F1F50934C0340938A
:105790004B038193919302C0E0E0F0E0CF01DF91F1
:1057A000CF911F910F910895CF93DF93009709F444
:1057B00081C0FC01329713821282A0914D03B091F7
:1057C0004E03109781F420813181820F931F209125
:1057D0004B0330914C032817390751F5F0934C03D4
:1057E000E0934B0367C0ED0120E030E0CE17DF0708
:1057F00040F44A815B819E0141155105F1F0EA01B7
:10580000F5CFD383C28340815181840F951FC81780
:10581000D90759F488819981840F951F0296918345
:1058200080838A819B81938382832115310529F4AA
:10583000F0934E03E0934D033DC0E901FB83EA83FF
:1058400049915991C40FD51FEC17FD0761F4808170
:105850009181840F951F0296E90199838883828143
:1058600093819B838A83E0E0F0E012968D919C9176
:105870001397009719F0FD01DC01F7CF8D919C91F2
:1058800011979D012E5F3F4F820F931F20914B0375
:1058900030914C032817390769F4309729F4109296
:1058A0004E0310924D0302C013821282B0934C0338
:1058B000A0934B03DF91CF910895FC0141505040DC
:1058C00030F001900616D1F73197CF01089588275F
:1058D00099270895FB01DC0104C08D910190801986
:1058E00021F441505040C8F7881B990B0895F89453
:0258F000FFCFE8
:1058F2000100000000004F03200001CC1FCF1FCB8E
:105902001FEA16E516E416FFFF010201010C340C32
:10591200970B0000000000000000000000000000E3
:105922000000E50B1D0C7E0B0000000000000000D3
:10593200000000000000000001200001191A1B1CD9
:105942001D1E1F202122818283E200E900EA00B5A8
:1059520000B600B700CD008301CC008A0192019409
:10596200012102230224022502260227022A02B36F
:1059720000B4006F00700040226D1B07F9068C0610
:105982006D078607A60757724B59342F6F4B376442
:10599200510000010202020206060609090909096C
:1059A200090F0F0F0F0F0F151515181919191919BE
:0859B200191919191923240029
:00000001FF
