:100000000C9419050C9436050C9436050C943605A1
:100010000C9436050C9436050C9436050C94360574
:100020000C9436050C9436050C945A190C949C18B3
:100030000C944C210C9436050C9436050C94360522
:100040000C9436050C9436050C9436050C94360544
:100050000C9436050C940B210C9436050C94360543
:100060000C9436050C9436050C9436050C94360524
:100070000C9436050C9436050C9436050C94360514
:100080000C9436050C9436050C9436050C94360504
:100090000C9436050C9436050C9436050C943605F4
:1000A0000C9436050C9436050C9436052509250963
:1000B00054095409BE09D90AD90AD90ADA094E0ADB
:1000C0005F0A5F0AFE0C010D100D040D090D0E0DE7
:1000D0000C0D980E9B0E9E0EA10EA40EA70EAA0E3E
:1000E000B416DB168418DB16841827174A178418F1
:1000F0003F184F1801012901043130307C010129DA
:1001000001043130307C01012901043130307C019F
:10011000012901043130307C01012900010129014C
:10012000043130307C01012B01043130307C01017D
:100130002B01043130307C01012B01043130307C43
:100140000101290000000000000000000000000084
:10015000000000000000000000000000000000009F
:1001600000000000000000007E0F00D4FFFFFFC76A
:100170000000007800000000000000002A2B28008A
:100180000000000000000000000000000000002946
:10019000000000002C1E3420212224342627252E86
:1001A000362D3738271E1F202122232425263333BE
:1001B000362E37381F0405060708090A0B0C0D0EEA
:1001C0000F101112131415161718191A1B1C1D2FB6
:1001D0003130232D350405060708090A0B0C0D0ED6
:1001E0000F101112131415161718191A1B1C1D2F96
:1001F0003130354C29002B00E000E100AE5D0000FD
:100200001E00140004001D00010035661F001A00C6
:1002100016001B000100E300200008000700060094
:10022000E2000254210015000900190002542C00BC
:10023000220017000A0005000000035323004A02B1
:1002400000004A000000045322004D0200004D004F
:1002500000004B0023001C000B00110000002C0EBE
:10026000240018000D00100001544E0025000C0061
:100270000E003600E2002C41260012000F0037006D
:1002800001002C42270013003300380000572900DA
:1002900035002A0028003400100F0000B25D2B0248
:1002A0000100010001000000010001002D02010019
:1002B00001000100010031023100010001000100D4
:1002C000010001002E0201000100010001000100F7
:1002D0002D00010001000100010001002E000100BD
:1002E0000000010001000100000001000000010009
:1002F00001000100000001000000010001000100F8
:10030000010001000000010001002F002F02260261
:10031000010001000100300030022702010001004D
:1003200001000100010001000100010001000100C5
:1003300001000100010001000100010001000100B5
:100340000100000029002B03E000E1000100000093
:100350000100140404041D04010001003B041A04FC
:1003600016041B0401000100010008040704060430
:100370000100010001001504090419040100010035
:10038000010017050A040504000001000100010036
:100390000000010000000100010001000000010058
:1003A0000000010001001C045000110400000100C5
:1003B00001001804510010040100010001000C04A8
:1003C000520036040100E500010012044F0037041A
:1003D000010001000100130433043804010001008E
:1003E00001000100010001000100000029000100DE
:1003F00001000100010000003A003F00440001003C
:10040000010001003B004000450001000100010027
:100410003C00410068000100010001003D00420075
:1004200069000100010001003E0043006A00010074
:1004300000000100A800A9000000AA0000000100BF
:100440000100AE00000048000000010001000100B2
:100450000100010000000100010001000100010095
:100460000100010001000100010001000100AB00DA
:1004700001000100010001000100AC0001000100C9
:100480000100010001000100010001000100010064
:10049000010000002900010001000100010000002E
:1004A0000100010001000100010001000100010044
:1004B0000100010001000100010001000100010034
:1004C0000100010001000100010001000100010024
:1004D0000100010001000100000001000100010015
:1004E0000000010000000100010001000000010007
:1004F000000001000100110023022E000000010095
:100500004C00240021001E003600010038002500A8
:1005100022001F00270001002502260023002000E2
:10052000630001002D002E0228002B002B12010079
:1005300001000100010001000100000001000100B4
:1005400001000100010000000100010001000100A4
:100550000100010001000100010001000100010093
:100560000100010001000100010001000100010083
:100570000100010001000100010001000100010073
:100580000000010001000100000001000000010066
:100590000100010000000100000001000100010055
:1005A0000B06010000000100010001000D06010022
:1005B0000100010001000100010001000100010033
:1005C0000100010001000100010001000100010023
:1005D0000100010001000100010001000100010013
:1005E00001000000B35D01000100010001000000F6
:1005F00001000100010001000100010001000100F3
:1006000001000100010001000100010001000100E2
:1006100001000100010001000100010001000100D2
:1006200001000100010001000000010001000100C3
:1006300000000100000001000100010000000100B5
:1006400000000100010001000B000100000001009A
:100650000100010001000100010001000100010092
:100660000100010001000100010001000100010082
:100670000100010001000100010001000100010072
:1006800001000100010001000100000005010980D6
:10069000A101850319012AB700150126B7009501AC
:1006A00075108100C0050C0901A101850419012AFA
:1006B000A002150126A002950175108100C0050158
:1006C0000906A1018506050719E029E7150025019E
:1006D0009508750181020507190029EF150025010C
:1006E00095F0750181020508190129059505750127
:1006F0009102950175039101C00660FF0961A10196
:100700000962150026FF009520750881020963150E
:100710000026FF00952075089102C005010906A179
:1007200001050719E029E7150025019508750181E4
:10073000029501750881010507190029FF1500269A
:10074000FF00950675088100050819012905950522
:1007500075019102950175039101C009025B0003C7
:100760000100A0FA090400000103010100092111A0
:10077000010001224000070581030800010904016E
:1007800000020300000009211101000122220007DC
:10079000058203200001070503032000010904026C
:1007A000000103000000092111010001226D000772
:1007B00005840320000112010002000000089732A6
:1007C0007549010001020001220345007200670023
:1007D0006F0044006F007800200045005A002000A0
:1007E0005300680069006E006500000028035A008D
:1007F00053004100200054006500630068006E0053
:100800006F006C006F006700790020004C006100F1
:100810006200730000000403090400047F3F1F64AA
:100820003214643214783C1E1E140A052223252635
:1008300028292A2C2D2F3032333536383A3B3D3E8D
:100840004042434547494A4C4E5051535557595AD7
:100850005C5E6062646668696B6D6F7173757779F1
:100860007B7D7F81838587898A8C8E9092949698F0
:100870009A9C9E9FA1A3A5A7A8AAACAEAFB1B3B402
:10088000B6B8B9BBBCBEBFC1C2C3C5C6C7C9CACB57
:10089000CCCDCED0D1D2D2D3D4D5D6D7D7D8D9D922
:1008A000DADADBDBDBDCDCDCDCDCDDDDDDDDDCDC8B
:1008B000DCDCDCDBDBDBDADAD9D9D8D7D7D6D5D4A8
:1008C000D3D2D2D1D0CECDCCCBCAC9C7C6C5C3C274
:1008D000C1BFBEBCBBB9B8B6B4B3B1AFAEACAAA8C9
:1008E000A7A5A3A19F9E9C9A98969492908E8C8A7D
:1008F00089878583817F7D7B79777573716F6D6B58
:100900006968666462605E5C5A5957555351504E2F
:100910004C4A4947454342403E3D3B3A38363533E1
:1009200032302F2D2C2A29282625232200010101CF
:10093000010101010101020202020202020202039C
:10094000030303030303030404040404040405056C
:10095000050505060606060607070707070808082F
:1009600008090909090A0A0A0B0B0B0C0C0C0D0DDE
:100970000D0E0E0E0F0F0F10101111111212131376
:100980001414151516161717181819191A1A1B1BEF
:100990001C1D1D1E1E1F202021222223242425264B
:1009A00026272829292A2B2C2D2D2E2F3031323283
:1009B000333435363738393A3B3C3D3E3F4041428F
:1009C000434445464748494A4C4D4E4F5051535475
:1009D000555658595A5B5D5E5F6162646566686929
:1009E0006B6C6D6F7072737577787A7B7D7E8082A9
:1009F000838587888A8C8E8F91939596989A9C9EF2
:100A0000A0A2A3A5A7A9ABADAFB1B3B5B7BABCBE01
:100A1000C0C2C4C6C9CBCDCFD1D4D6D8DBDDDFE2CE
:100A2000E4E7E9EBEEF0F3F5F8FAFDFFFFAA7F55F6
:100A3000400011241FBECFEFDAE0DEBFCDBF11E0D2
:100A4000A0E0B1E0E2EBF6E502C005900D92A23B1A
:100A5000B107D9F723E0A2EBB1E001C01D92A733A3
:100A6000B207E1F70E94BA1A0C94572B0C940000BD
:100A7000A5E2B0E0EEE3F5E00C949228FC01808161
:100A8000918123813481232B31F09F3F31F491E018
:100A90008F3F19F403C091E001C090E090FDC7C5FD
:100AA0007F0185E0DE01919601900D928A95E1F734
:100AB000D70112962C9189A19AA1222349F00E9474
:100AC0007C25182F682F89A19AA10E94EC2503C0CC
:100AD0000E94B825182F69A17AA1812F0E94460F84
:100AE0008C01F7018281811105C080916A02811118
:100AF00041C090C080911701909118010196A9F30F
:100B00004CE1C42E41E0D42EA12CB12C9924939415
:100B100080911701909118018A159B0534F3D60135
:100B200016968C9116978823F1F019968D919C91C9
:100B30001A978017910739F48091F6029091F70285
:100B40008017910781F0F6019786148703878189C2
:100B5000811103C0C6010E94D621C60106960E94DB
:100B6000F5211092F802FFEFAF1ABF0A26E1C20E7C
:100B7000D11CCECFD70112968C911297811147C507
:100B8000E091B401E33098F481E08E0F8093B401DA
:100B9000F0E0EE0FFF1FEB55FD4F8D919C9191837F
:100BA000808382E08983CE0101960E948E1ABFEF76
:100BB000E3EDF0E3B150E040F040E1F700C00000A9
:100BC0008091B401833009F022C51092B401EBEAA0
:100BD000F2E0A5EAB2E081EB92E0318111962C912E
:100BE0001197321330C030812C9132132CC03296C1
:100BF00012968E179F0789F784E0898381E080939E
:100C00006B028EEF8A8310926A02CE0101960E94D7
:100C10008E1AFDC480916B028823D1F0D701129601
:100C20008C91882311F086E001C087E08983F70169
:100C300080818A8381818B838EEF8C83CE010196A4
:100C40000E948E1A05C083E0898310926B02D9CF6F
:100C50000F3AFDE51F07E9F5D70112968C9188231D
:100C600009F4C0C090916F0281E0890F8770987F6E
:100C7000853020F4892B80936F0202C090936F021D
:100C800080916F028770BFEF8B9FC00111249595F3
:100C900087959595879599279093890080938800EB
:100CA00090938B0080938A0090938D0080938C00AA
:100CB00040916F02509170026091710270917202C6
:100CC0008FE090E00E946429809182020E94E70CEC
:100CD00089C0013BEDE51E0711F128F4003B2DE52D
:100CE000120721F12FC0023B8DE5180729F0033BC5
:100CF0009DE5190751F026C0D70112968C918823E3
:100D000009F470C08CE191E007C0F701828188236B
:100D100009F468C084EF90E00E94070C63C0D7011B
:100D200012968C91882309F472C4B4C1F7018281B0
:100D3000882309F46CC49091B50181E089278093E0
:100D4000B50165C4C80197558F3F910511F008F0B2
:100D500049C020911701309118012817390724F450
:100D60009093180180931701D70112962C91129736
:100D700036E1389F5001399FB00C1124F501E45E33
:100D8000FE4F6F01208B12969C918681992309F466
:100D90004AC0128701878F5F86830E944021D60157
:100DA0001E969C938E931D978091310217968C937B
:100DB00017979091F80280913C02892B18968C939A
:100DC0001897ED91FC911197C5018E5D9E4F30975C
:100DD00029F054966D917C91559709951093F702DF
:100DE0000093F6020E3AFDE51F07F9F4D7011296BB
:100DF0008C91882309F40BC48091F502882319F0A3
:100E00000E943A2204C410923C020E945E110E9489
:100E1000402188579C4E9093A3028093A20281E0C8
:100E20008093F502F4C381114CC18091F5028823AF
:100E300009F474C0D0903C02C09031020E9440215D
:100E400088579C4E9093A3028093A202F70182815F
:100E5000882309F468C08C2D8D298D7909F059C03B
:100E60000115F5E51F07B0F4011523E5120708F099
:100E700055C0011580E5180740F4011590E41907E5
:100E800008F5063E110529F549C00115A2E51A0726
:100E900000F544C00115B9E51B0748F40115E8E564
:100EA0001E07E0F50431F5E51F0799F437C0C801C6
:100EB00090568115904268F4D70115968C91807FE9
:100EC00029F427C0F7018581807F41F1C801992766
:100ED00001C0C8011092F8028832910530F48E31B9
:100EE0009105D0F40497A8F00EC08D32910559F009
:100EF00018F48A9789F00DC08C34910569F08D3211
:100F0000924051F006C082E08093F8020E94721174
:100F100003C00E943A2202C00E947211D7011296A9
:100F20008C918111D8C080913C0282720D3C2CE5DD
:100F3000120709F4A8C008F045C0073CACE51A0741
:100F400009F48DC0D8F4043CECE51E0709F47DC01B
:100F500030F4033C2CE5120709F46BC02AC1053CB0
:100F60009CE5190709F476C0063CACE51A0709F0C0
:100F700020C147EE54E261EF74E289C00A3CBCE54F
:100F80001B0709F476C078F4083CFCE51F0709F458
:100F90006BC0093C2CE5120709F00BC14AED54E285
:100FA0006DEC74E274C00B3C9CE5190709F466C053
:100FB0000C3CACE51A0709F0FCC048E453E26AE5D2
:100FC00073E265C0023DBCE51B0709F46BC0A0F4E9
:100FD0000F3CFCE51F0709F45FC008F45BC0003D4F
:100FE0008CE5180709F45BC0013D9CE5190709F081
:100FF000E0C06EE089E05EC0053DACE51A0709F48B
:1010000057C060F4033DECE51E0709F44EC0043DF3
:10101000FCE51F0709F0CDC088E150C0063D2CE576
:10102000120709F44AC00F358DE5180709F4EFC21D
:10103000C0C08091F00280FF03C00E946C23E7C211
:1010400081608093F002869539C04AE555E264E6F6
:1010500075E21DC044E655E26AE575E218C041EF4D
:1010600054E267EE74E213C04DEC54E26AED74E2B0
:101070000EC043EB54E260EC74E209C040EC54E271
:1010800063EB74E204C04AE553E268E473E20E9451
:101090007722BDC281E012C065E082E00BC068E04B
:1010A00086E008C064E18FE005C067E185E102C029
:1010B00062E289E10E946422AAC283E20E9456256C
:1010C000A6C28189882309F4B0CEC5018E5D9E4FEA
:1010D0000E94F52187CE0C359DE5190709F464C0FF
:1010E00060F40115BCE51B07A9F00F3DECE51E07F8
:1010F00009F05FC00E94E8104CC00E35FDE51F07E7
:1011000009F44AC008F452C0093A8DE5180709F4F9
:1011100040C04FC010923C020E9489269FEFA4E37A
:10112000BCE09150A040B040E1F700C00000F8944E
:1011300081E08093E00080E28093D8001092C900A3
:10114000EFE1FEE43197F1F700C000001DBA109204
:1011500068001CBC10BE1FBA10927A0010926E007C
:1011600010926F0010927100109272001092C900DC
:101170001092BC0014B817B81AB81DB810BA109263
:10118000BC0015B818B81BB81EB811BA0C94003FB3
:101190003EC20E94CF0C3BC28091050382FB882790
:1011A00080F991E0892703C081E001C080E00E94BE
:1011B000E411F701828100811181882349F0C8017F
:1011C0000E947C25D82E682FC8010E94EC2504C0FF
:1011D000C8010E94B825D82EB8018D2D0E94460F57
:1011E0000E945F0F8C01982EF701D280C580C294B7
:1011F0009FE0C922809110028770B9F0DD20A9F02C
:10120000812F807F803421F080E2800F883068F069
:101210008091050382FF09C082E00E94C71180917E
:1012200010028770BB24B3948111B12CA12EA2941B
:101230008FE0A8228A2D90E08C30910508F0B9C18A
:10124000FC01EA5AFF4F0C94FB29812F807F1F700D
:10125000882311F01295107FDD20B9F0112309F4D5
:1012600096C180E2800F883010F0911006C0809106
:101270003C02182B10933C0205C08091F802182BF9
:101280001093F8020E94721182C1802F0E94BF2623
:10129000112309F48EC1005E812F083060F199207E
:1012A00051F10E94641129C0812F807F1F7080320C
:1012B00011F01295107F992021F0F1E09F16D9F1DD
:1012C00047C08091050382FD1BC0DD2069F011231A
:1012D00039F080913C02182B10933C020E9472114D
:1012E00080E00E94EB2665C180E00E94BF261123AA
:1012F00009F45FC1812F0E946B110E94721159C1C4
:10130000DD2081F080913102CC2051F021E0C21229
:1013100007C0182B181709F44CC11093310249C1AA
:10132000812B10C0CC2021F081E0C81609F441C106
:101330000E945E111FC0DD2041F091E09C1508F471
:1013400038C1812F0E94B52634C1C11032C112C0EC
:10135000DD2019F0CC20A9F31AC1CC2059F00933B3
:1013600009F024C1AFEFB7EEE3E0A150B040E04098
:10137000E1F71AC1812F0E94AE261BC1812F8695ED
:101380008695837019F0813059F013C1DD2019F072
:10139000C801937002C080E090E00E94B3210FC1A9
:1013A000DD2019F0C801937002C080E090E00E9437
:1013B0009D2105C1812F8370A9F5D110FEC0402F5A
:1013C000429546954770440F440F802F8F7090E0F0
:1013D0009C01042E01C0220F0A94EAF704FF08C002
:1013E0008FE090E001C0880F4A95EAF7809501C030
:1013F00080E0169516951370123069F088F490917C
:101400003202113019F0822B892302C0922B892BD2
:101410000E946426D2C0822B909132028927F8CF95
:10142000822BF6CFDD2019F0812F817001C08695C7
:10143000882309F4C2C0402F429546954770440F57
:10144000440F802F8F7090E09C01042E01C0220F6A
:101450000A94EAF704FF08C08FE090E001C0880F0B
:101460004A95EAF7809501C080E0169516951370AD
:10147000123059F078F490918202113019F0822BD9
:10148000892309C0922B892B06C0822B909182025E
:10149000892701C0822B0E9421268FC01F70DD206A
:1014A00039F0812F0E945826802F0E94B52685C0D2
:1014B000802F0E94AE26812F0E944B267EC0802F57
:1014C000F2EF9F1669F1F91538F020EF921659F0F6
:1014D00091EF991601F157C0A3EF9A1641F1B4EFBD
:1014E0009B16A9F050C0DD2069F0C11062C01F71C9
:1014F00081E090E001C0880F1A95EAF7909182028E
:1015000089271DC0E1E0EC1508F453C0F0CF8091AD
:10151000050382FD19C0DD2029F0812F8F7126C0BF
:10152000DD20D9F3812F8F710E944B2642C0DD2030
:1015300049F01F7181E001C0880F1A95EAF70E94F7
:10154000212637C080E0FBCFDD2099F01F71812F6D
:101550000E9458268091050382FF07C0F8E01F9F74
:10156000C0011124836080931002812F0E945826AD
:1015700020C081E00E94C71121E02C15D0F482E048
:101580000E94C71116C0DD2021F0CC2031F2802F3F
:10159000A8CECC2039F2893349F48FEF97EEA3E03F
:1015A00081509040A040E1F700C00000802F0E94D1
:1015B000BF2688EF8A0D843010F40E94C921BB2019
:1015C000A9F08091100280FD11C0F701128285956B
:1015D000859585950E945826C7010E9438058091FF
:1015E00010028595859585950E944B2685E0F7012B
:1015F000DE01119601900D928A95E1F709811A8119
:10160000C8010E94B825B8010E94460F10C0809101
:101610001002877061F0D70112968C91882339F0FF
:101620008091050382FF03C082E00E94C711A59646
:10163000EBE00C94AE288FE39CE90197F1F700C032
:1016400000008091B701833031F487EA0E94BF2601
:1016500080E00E949D261092B7010895FC019081C0
:10166000913041F48185811114C08285882389F0ED
:1016700092E00FC0923041F48185811107C08285CC
:10168000811106C093E005C096E003C095E001C05B
:1016900094E09093B701933031F480E00E94A42647
:1016A00087EA0E94EB260895A7E1B0E0EAE5FBE0B7
:1016B0000C949A284B8B5C8B6D8B7E8B8F8B61117E
:1016C0001092F80286E09E01235F3F4FD901E82F78
:1016D0001D92EA95E9F795E0FE017396D901019014
:1016E0000D929A95E1F79C894E895F897B897D8768
:1016F0009E876F87598B488BF901DE011796019001
:101700000D928A95E1F7CE0107960E94731281111E
:101710003EC086E0FE013796DE01119601900D92E3
:101720008A95E1F7FF81E8856A857B8561157105FA
:1017300031F0EF3F31F481E0FF3F19F403C081E065
:1017400001C080E080FD23C02091DE0130E0C901AE
:1017500001968770992740910F0250E084179507F2
:1017600079F1F983EA837D836C8396E0929FD001BF
:10177000939FB00D1124A152BE4FFE0131960190EE
:101780000D929A95E1F78093DE010E94001216E017
:1017900080910F029091DE01891709F1189FC00115
:1017A000112481529E4F0E9473128823C1F08091B0
:1017B0000F0290E001968770992780930F02E8CF7F
:1017C00010923C020E9489261092DE0110920F02B4
:1017D000E8EDF1E086E0DF011D928A95E9F7679672
:1017E000E3E00C94B628982F92959F7019F0892FFA
:1017F00024E001C020E0982F9695969511F02E5F79
:10180000892F982F969509F02F5F822F0895A0E0D9
:10181000B0E0EDE0FCE00C949328EC018AE0A82E07
:10182000FE012491222309F4B5C0213009F044C0FF
:1018300031968491813059F42296FE018491893346
:1018400019F060E070E091C060E570E08EC0823019
:1018500031F42296FE0184910E94EB268AC08330E7
:1018600031F42296FE0184910E94BF2682C084300A
:1018700009F07EC02296FE01249180E090E030E0E5
:10188000205331092A30310560F4A89EA001A99E99
:10189000500D1124C901840F951F2196FE0124913A
:1018A000EECF009709F465C0EFE9FFE03197F1F75B
:1018B00000C000000197F5CFE22FF0E0EC58FE4F9A
:1018C000B490822F86958695869590E0FC01EC5920
:1018D000FE4FE4902770F12C022E02C0F594E7949D
:1018E0000A94E2F7F1E0EF22FF24FC01EC5AFE4FEC
:1018F000C490D12C022E02C0D594C7940A94E2F76A
:1019000031E0C322DD24FC01EC5BFE4F049110E0CA
:1019100002C0159507952A95E2F701701127E11489
:10192000F10419F081EE0E94EB26C114D10449F1B3
:1019300086EE0E94EB2689E3B816E9F060E070E0DD
:101940008B2D0E948B27C114D10419F086EE0E94C2
:10195000BF26E114F10419F081EE0E94BF260115A3
:10196000110539F060E070E08CE20E948B2701C025
:10197000EF01219655CF60E570E089E30E948B2747
:10198000E5CFE9E3BE12DACF60E570E089E30E94BB
:101990008B27DFCFCDB7DEB7EAE00C94AF281092EB
:1019A0003C020E9489262FEF84E39CE02150804076
:1019B0009040E1F700C000009AE088E10FB6F8948B
:1019C000A895809360000FBE90936000FFCFCF93E7
:1019D000C82F0E94F30B56985E9825982D9826984C
:1019E0002E9827982F98482F50E0FA013197E7302A
:1019F000F105C8F4EE59FF4F0C94FB29259A2D9A56
:101A000027C0269A2E9A33C0259A2D9A269A2E9A66
:101A10003FC0259A2D9A04C0259A2D9A269A2E9A6F
:101A2000279A2F9A35C0813099F018F0823081F5CD
:101A30001EC08091B501811153C00E944C2560E009
:101A400081E00E94112520E04FEB62EE86E81DC088
:101A50008091B501811144C00E944C2560E081E075
:101A60000E94112520E04FEF6FEF8CEB0EC08091AC
:101A7000B501811135C00E944C2560E081E00E94D3
:101A8000112520E04FEF6FEF88E90E943A2428C02B
:101A90008091B501811124C088E090E00E94362930
:101AA0006093F0027093F1028093F2029093F3023C
:101AB000862F60FF13C081608093F00286950E949C
:101AC00056258091F00286950E94562521E040918E
:101AD000F3026091F2028091F102D7CF0E946C2351
:101AE0008C2FCF91089580E290E090933401809301
:101AF00033018091090381110EC00E94A32781E068
:101B0000809309032FEF83ED90E3215080409040B4
:101B1000E1F700C0000060E570E080E40E94A927C2
:101B20009093340180933301892B09F04EC060E516
:101B300070E080E00E941E2890933401809333016E
:101B4000892B09F042C060E570E080E00E941E2809
:101B50009093340180933301892BB9F560E570E0EF
:101B60008FE30E941E289093340180933301892BC8
:101B700061F50E94732860E570E080E40E94A92767
:101B80009093340180933301892BF9F460E570E080
:101B90008CE00E941E289093340180933301892B9E
:101BA000A1F460E570E080E00E941E28909334016B
:101BB00080933301892B49F460E570E08FE30E9444
:101BC0001E2890933401809333010E9473288091E2
:101BD00033010895CF93DF9356985E9825982D98FA
:101BE00026982E9827982F98C8E8D0E08FEF90E09D
:101BF00099838883AAE8B0E011969C938E93ECE8D1
:101C0000F0E091838083259A2D9A2FEF80E792E070
:101C1000215080409040E1F700C00000269A2E9AA3
:101C20002FEF80E792E0215080409040E1F700C024
:101C30000000279A2F9A2FEF80E792E021508040F2
:101C40009040E1F700C0000025982D982FEF80E725
:101C500092E0215080409040E1F700C000002698BB
:101C60002E982FEF80E792E0215080409040E1F7DE
:101C700000C0000027982F9880916F0287702FEF87
:101C8000829FC001112495958795959587959927F1
:101C90009983888311969C938E9391838083569821
:101CA0005E9825982D9826982E9827982F98DF9142
:101CB000CF910895CF93E82F873080F5809133013D
:101CC00090913401892B09F047C0CE2F60E570E078
:101CD00080E40E94A9279093340180933301892BDB
:101CE000D1F460E570E082E10E941E2890933401F7
:101CF00080933301892B79F481E090E001C0880F53
:101D0000CA95EAF760E570E080950E941E289093DE
:101D10003401809333010E9473281EC090E0FC01BF
:101D20003797E730F105C0F4E759FF4F0C94FB29D2
:101D3000209A289811C0219A29980EC0229A2A9890
:101D40000BC0239A2B9808C0529A5A9805C0539AF0
:101D50005B9802C03E9A4698CF91089520982898A3
:101D60002198299822982A9823982B9852985A9823
:101D700053985B983E9846980895CF93873040F5E6
:101D80008091330190913401892B59F560E570E021
:101D900081E40E94A9279093340180933301892B19
:101DA00011F0C0E011C080E590E00E944E2897FF3E
:101DB00005C09093340180933301F3CFC82FC095B1
:101DC00010923401109233010E9473288C2F0AC0A4
:101DD0009FB18FB1807F869586959370892B809572
:101DE00001C080E0CF9108958098889A8198899A5F
:101DF00084988C9A85988D9A86988E9A87988F9ACF
:101E0000089580E008959091040392FF0DC0282F5B
:101E10002871283019F4877F846006C0282F247128
:101E2000243011F48B7F886093FF0DC0282F287118
:101E3000283119F4877E846106C0282F247124314B
:101E400011F48B7E88612091050320FF0DC0382F8F
:101E50003871383019F4877F816006C0382F3171AE
:101E6000313011F48E7F886021FF0DC0282F28713A
:101E7000283119F4877E816106C0282F2171213114
:101E800011F48E7E886194FD877E08957E30A0F4E3
:101E9000663090F494E5899FF001112486E0789FE4
:101EA000E00DF11D1124E60FF11DEE0FFF1FEC50A8
:101EB000FE4F85919491089580E090E00895CF932E
:101EC000DF938238910569F1B0F48133910509F40B
:101ED0006FC048F48932910509F465C08A329105D2
:101EE00009F46BC08AC08533910509F457C0893362
:101EF0009105B9F082C0833E910571F138F4803EBE
:101F00009105B1F0823E910511F177C0863E9105B1
:101F1000B9F1873E9105C9F1843E910509F06DC084
:101F200024C02091040320FD53C021FD51C065C091
:101F30008091040380FD46C08091050380FF48C066
:101F40008091040384FD3FC183EE90E03EC1809107
:101F5000040382FF3AC0F4CF8091040382FD35C0B0
:101F60008091050380FD34C0EBCF8091050381FF94
:101F700035C08091040384FD26C187EE90E025C121
:101F80008091040383FF27C0F4CF8091040383FD75
:101F900022C08091050381FD21C0EBCF8091040315
:101FA00085FD1FC021C08091040385FD1DC019C09F
:101FB0008091040386FD1BC01DC08091040386FD33
:101FC00019C015C089E390E000C182EE90E0FDC029
:101FD00080EE90E0FAC086EE90E0F7C084EE90E0EC
:101FE000F4C089E290E0F1C085E390E0EEC08AE2BF
:101FF00090E0EBC081E390E0E8C0811532E5930703
:1020000008F069C0811541E5940728F0982F8827CA
:10201000816F906ADAC0883E910568F5803E91052F
:1020200008F0D3C0883A9105B8F4853A910548F094
:10203000855AE82FF0E0E05CFE4F808190E09064EC
:10204000C4C08130910509F4BBC008F4BCC0843021
:10205000910508F4B8C0B9C08F3B910508F0B3C032
:10206000885AE82FF0E0EE0FFF1FED5BFE4F8081F6
:1020700091819464AAC0811520E59207F0F09C013B
:1020800074E0369527957A95E1F7922F9370482F53
:10209000437021E030E002C0220F331F4A95E2F77F
:1020A0003C68392B8F70982F9695969540E2949FB7
:1020B000C0011124822B932B88C0811530E4930733
:1020C00018F09F70906A81C09C013A9521153F419C
:1020D00008F47BC078C0EC01C11586E5D807E8F5A7
:1020E000C11525E5D20748F08C2F0E94030F8F7190
:1020F00090E0982F8827906268C0C11534E5D30717
:1021000028F09C2F8827846F906A5FC0AE014370CF
:1021100055272C2F26952695C115D34578F481E0B7
:1021200090E002C0880F991F4A95E2F740E2249F91
:1021300090011124822B932B9C6847C081E090E092
:1021400002C0880F991F4A95E2F740E2249F900150
:102150001124822B932B9A6838C0C1152AE5D20727
:10216000F8F4C11539E5D30790F08C2F8F700E94D9
:10217000030F94E0D695C7959A95E1F7CF70D0E01C
:10218000DC2FCC27D0699E01282BC9011EC0C115A8
:1021900048E5D407C0F09C2F8827806F906A15C04F
:1021A000CE0190568115904270F48D2F8F710E9450
:1021B000030F282F2F71CE0199279062922B05C013
:1021C00081E090E002C080E090E0DF91CF9108953F
:1021D00068EE7EEF80E090E00E94702960E082E08F
:1021E00090E00E94522960E083E090E00E94522932
:1021F0001092320260E084E090E00E94522964E094
:1022000082E290E00E94522960E085E090E00E9426
:10221000522960E086E090E00E9452296FEF87E04B
:1022200090E00E94522940E050E0BA0188E090E03E
:102230000E94642960E08DE090E00E94522940E015
:1022400050E0BA0188E190E00E94642960E087E1F3
:1022500090E00E94522940E050E0BA018CE190E009
:102260000E94642960E070E080E290E00E947029A2
:1022700040E050E0BA0188E190E00E9464291092A9
:102280006F0210927002109271021092720284E03A
:1022900080936F0240916F025091700260917102C1
:1022A000709172028FE090E00E94642940E050E05B
:1022B000BA0183E190E00E9464290895809131027F
:1022C000811110923102089580959091F80289232E
:1022D0008093F8020895809590913C028923809321
:1022E0003C02089590913C028091F802982B9093C3
:1022F000B801809131028823D9F0892B8093B801ED
:1023000080910A01882331F08091040387FF02C085
:102310008EE101C086E0EAEBF1E090E0815028F028
:1023200021912223D9F39F5FF9CF91110E945E1171
:1023300040E250E061E172E088EB91E00E944A2BBC
:10234000892B21F180E2E8EBF1E0A1E1B2E001901C
:102350000D928A95E1F7E091FB02F091FC02309733
:10236000A9F080910A01882359F08091040387FF26
:1023700007C08091B8018093B90186E08093B801CD
:102380000280F381E02D88EB91E00995089520917A
:1023900010028095822380931002982F977099F4F1
:1023A00030E0482F082E000C550B2417350759F044
:1023B0009091050392FF07C08595859585950E94AC
:1023C0004B26109210020895CF93C0910503C2FBD3
:1023D000992790F9981791F080FBC2F9C0930503F3
:1023E0006091040384E090E00E9452296C2F82E205
:1023F00090E00E94522982E00E94C711CF91089577
:1024000080910F029091DE01891719F08F5F87701C
:10241000FBCF08950F931F93CF93DF938091DD013E
:1024200082958F7009F05AC08091DA01882309F4EF
:1024300055C080910F021091DE016091D80170911A
:10244000D901C091DB01D091DC0191E06F3F09F02F
:1024500090E0292F06E0811709F440C0209721F071
:102460007F3F21F030E003C031E001C0322F90E027
:1024700030FD31C0089FF001099FF00D1124DF01EC
:10248000A152BE4F11963C911197371324C03C9135
:10249000361321C012963C91129731111CC013962D
:1024A0004D915C9114974C1B5D0B483C510598F481
:1024B0008091DD018F7080618093DD01EC51FE4FD2
:1024C00080818F708061808388ED91E00E94380563
:1024D0000E94001203C001968770BDCFDF91CF919B
:1024E0001F910F910895A1E1B0E0E9E7F2E10C94AA
:1024F00092288C0185E0F801DE011D9601900D9275
:102500008A95E1F7F801E2809091D8016091D901B4
:102510004091DB015091DC014115510531F06F3FD5
:1025200031F481E09F3F19F403C081E001C080E0F5
:10253000F82FF1709F2E80FD1BC1F80130812181A1
:10254000C380D48088EDA82E81E0B82EF090DA0107
:10255000F601E41BF50BFF2009F4C7C08091DD01F3
:10256000E83CF10508F092C0482F407F09F051C0C7
:10257000621311C093130FC0FE2CE1100CC08F70BA
:1025800080618093DD01C5010E9438058091DD01E5
:10259000F80185832AC1C114D10431F02F3F31F4F1
:1025A00081E03F3F19F403C081E001C080E080FD7D
:1025B00003C081E08E2502C080E090E0F82FF1702A
:1025C000FF2E80FF1CC080910F024091DE0156E07B
:1025D000841709F4E8C090E0589FF001599FF00D6E
:1025E0001124E152FE4F6181261306C060816313FE
:1025F00003C06281E61203C001968770E9CFFE2C0A
:10260000EE2009F4F2C08091DD0181608093DD014C
:1026100049C0621306C0931304C0E11002C0F80160
:1026200086C0C8010E946926882351F1EE2041F13D
:102630002091DD01822F82958F7090E0029774F0D7
:102640008091D8019091D90198878F831986DB8674
:10265000CA862C87CE0107960E94380586E0F801CD
:10266000A8EDB1E001900D928A95E1F70E940A125F
:102670000AC06217C9F0C8010E94692681111EC0F4
:10268000C8010E943805FF24F394AFC0482F407F53
:1026900081F788ED91E00E94380586E0F5011192FE
:1026A0008A95E9F7F12CA1C09313E5CFE110E3CFB0
:1026B000F8018583C8010E94380554C0EE2001F35B
:1026C0002091DD01822F82958F7090E0029734F285
:1026D0008091D8019091D9019A8389831B82DD82F0
:1026E000CC822E83CE010196B7CFE83CF105D0F520
:1026F000FE2CEE2029F2621327C0931325C02091EF
:10270000DD0120FD18C0822F82958F70482F50E088
:102710004115510581F0F80125834F30510541F0F5
:102720008F5F982F9295907F822F8F70892B858352
:10273000C8010E94380586E0F801A8EDB1E00190DB
:102740000D928A95E1F751C0C8010E946926811156
:1027500085CF8091DD0181608093DD01C8010E94F9
:10276000380543C086E0F50111928A95E9F73DC02E
:10277000EE2009F485CFC8010E946926F82E88232F
:1027800009F47ECF86E0F801A8EDB1E001900D924A
:102790008A95E1F78091D8019091D9010E94AB25EB
:1027A0000E940A1222C03D872E878D859E850E9439
:1027B000AB25292F22952F70223028F49F7039F0F5
:1027C000811105C00BC0243028F49F7049F4805E4D
:1027D000883020F0C8010E9438059F2CF92C05C0D4
:1027E000F8019581907F99F7F9CF8F2D6196EBE0F5
:1027F0000C94AE28A0E0B0E0E0E0F4E10C94942862
:102800008091330190913401892BB9F0809133028A
:102810008F5F80933302811110C00E94730D90E08E
:102820009093340180933301892B39F40E94EA0D8F
:1028300081E0809332010E947E2203E712E078015A
:10284000B12CC0E087E0C82ECC0E8C2F0E945A0E0F
:102850008C2D0E945A0E8C2F0E94BD0E8F73F70193
:102860009081891721F08083DD24D39401C0D12C7D
:102870008C2D0E94BD0E8F73F7019781891719F077
:10288000878381E001C080E0D82ABD280E94AE0E77
:10289000CF5FFFEFEF1AFF0AC730A1F6C0913702F2
:1028A000CC23C9F10E94402120913502309136029B
:1028B000AC01421B530B9A01909336028093350270
:1028C0004F3F510509F020F4452B09F4A1C002C087
:1028D0002FEF30E01092370210923402E0916D0237
:1028E000F0916E02AF01425F5F4F90E030E0808177
:1028F000882341F0281718F010829C2F03C0821BF8
:1029000080833C2F3196E417F50789F7309337021F
:10291000909334027DC0BB2009F471C00E94402115
:102920009093360280933502E0916D02F0916E0231
:1029300080913702A5E8B2E09F01225F3F4F4EE150
:10294000E80199918E015C91591731F05081511134
:1029500003C040839C9381E031961196E217F30700
:1029600079F78093370220916A0280913902909121
:102970003A022223C9F1892B31F425982D98269803
:102980002E9827982F988091390290913A02917051
:10299000892B79F480913802882319F026982E9893
:1029A00002C0269A2E9A9091380281E0892780935E
:1029B00038028091390290913A028130984750F064
:1029C00010926A02809182020E94E70C10923A02F1
:1029D000109239028091390290913A0201969093B7
:1029E0003A028093390218C0892BB1F010923A0252
:1029F00010923902809182020E94E70C0DC080E0A3
:102A000090913402992309F4AECF81118DCF86CFF6
:102A1000B1108ACF81E0F4CF8B2DCDB7DEB7E9E0DE
:102A20000C94B0288091620287FF11C08091E80069
:102A300082FD05C080916C028111F8CF11C0809198
:102A4000E8008B770BC080916C02882349F080915D
:102A5000E80080FFF8CF8091E8008E778093E8004F
:102A60000895982F973068F59093E900981739F0FA
:102A70007091EC002091ED005091F00003C0242FE4
:102A8000762F50E021FD02C09F5FECCF3091EB002C
:102A90003E7F3093EB003091ED003D7F3093ED00B1
:102AA0003091EB0031603093EB007093EC00209399
:102AB000ED005093F0002091EE0027FDE5CF80E07F
:102AC00008958F708093E90081E008952091680255
:102AD000309169022617370748F06115710539F4FE
:102AE0002091E8002E772093E80001C0B901FC0195
:102AF00020E06115710579F180916C028823F1F174
:102B00008530F1F18091E80083FD3CC08091E800C0
:102B100082FD2EC08091E80080FFEBCF2091F30072
:102B20008091F20090E0922B6115710551F0883090
:102B3000910538F421912093F100615071090196BB
:102B4000F3CF21E0089709F020E08091E8008E772C
:102B50008093E800CECF2111CFCF0AC080916C02C4
:102B6000882361F0853061F08091E80083FD0AC020
:102B70008091E80082FFF2CF80E0089582E008951E
:102B800083E0089581E008950895BC0184E00E94E7
:102B9000E1200895BC0183E00E94E1200895AAE2AB
:102BA000B0E0E5EDF5E10C949A28E2E6F2E08AE681
:102BB00092E02091F10021938E179F07D1F7809129
:102BC0006302833009F463C030F4813071F08230E5
:102BD00009F49FC0B6C08A3009F48BC08B3009F469
:102BE0006EC0893009F0ADC020C080916202813A88
:102BF00009F0A7C08091E800877F8093E80080916A
:102C0000660290916702892B21F460E28FE392E0E3
:102C100003C060E080E090E070E00E946615809163
:102C2000E8008B778093E8008CC08091620281324B
:102C300009F087C08091660290916702009719F0B1
:102C4000029709F07EC08091E800877F8093E800BA
:102C50008091E80082FD05C080916C028111F8CF5F
:102C600070C02091F3008091F20090E0922B0297C7
:102C700031F48091F100813011F0863021F480919F
:102C8000F10080933E028091E8008B7756C08091DE
:102C90006202813A09F055C0809166029091670204
:102CA000892B09F04EC08091E800877F8093E8006F
:102CB0008091E80080FFFCCF80910A0139C08091AB
:102CC00062028132F1F58091660290916702892B50
:102CD000C1F58091E800877F8093E8000E9412157B
:102CE0008091640280930A0110923C020E9489261E
:102CF00028C080916202813221F58091E800877FAF
:102D00008093E8000E9412158091650280933D0235
:102D100018C080916202813AA1F48091E800877F17
:102D20008093E8008091E80080FFFCCF80913D0215
:102D30008093F1008091E8008E778093E8000E94F4
:102D400012158091E80083FFDFC1809162029091AB
:102D50006302492F50E04A30510508F0D5C1FA010D
:102D6000E059FF4F0C94FB29803821F0823809F09C
:102D7000CBC108C080915F0290916002992389F0D5
:102D800082600FC0809166028F70873008F0BCC1EE
:102D90008093E9008091EB0085FB882780F91092F1
:102DA000E9009091E800977F9093E8008093F1000C
:102DB0001092F10070C1282F2D7F09F0A5C1882342
:102DC00019F0823061F0A0C180916402813009F075
:102DD0009BC1933009F080E0809360022EC0809107
:102DE000640281112AC0809166028F702FEF280F34
:102DF000263008F089C18093E9002091EB0020FF84
:102E00001CC0933021F48091EB00806214C090913B
:102E1000EB0090619093EB0021E030E0A90102C04B
:102E2000440F551F8A95E2F74093EA001092EA009A
:102E30008091EB0088608093EB001092E900809114
:102E4000E800877F8093E8000E9412155DC1811120
:102E50005BC1109164021F778091E3008078812B21
:102E60008093E3008091E800877F8093E8000E94D0
:102E700012158091E80080FFFCCF8091E30080680C
:102E80008093E300111102C082E001C083E08093CF
:102E90006C023AC18058823008F036C12091640239
:102EA000309165022C3D53E0350779F583E08A8344
:102EB0008AE289834FB7F894DE01139620E03EE062
:102EC00051E2E32FF0E050935700E49120FF03C05C
:102ED000E295EF703F5FEF708E2F90E0EA3010F0D8
:102EE000C79601C0C0968D939D932F5F243149F7FB
:102EF0004FBF8091E800877F8093E8006AE270E02E
:102F0000CE0101960E946615B4C080916602909130
:102F10006702432F552743305105A9F068F441302B
:102F2000510509F400C14230510509F0EDC08BE5AF
:102F300090E0EBE5F7E04BC04132510529F1423218
:102F4000510589F1E1C0C901992781309105A1F0AE
:102F500058F0029709F0D8C0E8ECF7E0E4918E2F22
:102F600090E0E8ECF7E030C0E6E1F8E0E4918E2F85
:102F700090E0E6E1F8E028C0ECEEF7E0E4918E2F77
:102F800090E0ECEEF7E020C08330910508F0BCC083
:102F9000880F991FFC01E658FE4F0190F081E02D4B
:102FA00089E090E014C08330910508F0ADC0FC01C9
:102FB000EE0FFF1FEC58FE4F0190F081E02DDC0179
:102FC000AF58BE4F8C9190E0009709F49DC02091BE
:102FD000E800277F2093E800209168023091690281
:102FE0002817390708F4C90140E0009789F12091BA
:102FF0006C02222309F43DC02530D9F12091E8006C
:1030000023FD37C02091E80022FD2FC02091E80069
:1030100020FFEBCF4091F3002091F20030E0342B01
:10302000009759F02830310540F444914093F10065
:10303000319601972F5F3F4FF3CF41E028303105A4
:1030400009F040E02091E8002E772093E800CDCFF2
:103050004111CDCF0AC080916C02882351F0853098
:1030600041F08091E80083FD04C08091E80082FF78
:10307000F2CF8091E8008B778093E80045C08038DC
:1030800009F042C08091E800877F8093E80080913A
:1030900061028093F1008091E8008E77D3CE811198
:1030A00033C080916402909165029927029764F57C
:1030B0008091E800877F8093E8001091640210936C
:1030C00061020E941215111106C08091E30087FD74
:1030D00002C081E001C084E080936C0242E061ECB8
:1030E00081E00E94311542E261EC84E00E943115DA
:1030F00042E261EC82E00E94311542E260EC83E042
:103100000E94311580916C028091E80083FF10C00D
:103110008091E800877F8093E8008091EB008062D7
:103120008093EB0005C082E190E0E6EBF7E04FCF43
:10313000AA96E3E00C94B6281F920F920FB60F9256
:1031400011242F933F934F935F936F937F938F93AC
:103150009F93AF93BF93CF93DF93EF93FF93C09170
:10316000E900CF708091EC00D82FD17080FDD0E8BD
:103170001092E9008091F000877F8093F0007894AE
:103180000E94CF151092E9008091F0008860809332
:10319000F000CD2BCF70C093E900FF91EF91DF914C
:1031A000CF91BF91AF919F918F917F916F915F91DF
:1031B0004F913F912F910F900FBE0F901F90189538
:1031C000E8EDF0E080818E7F80831092E200109223
:1031D000DA001092E100A0EEB0E08C9181608C9357
:1031E00080818F77808319BCA7EDB0E08C918E7FB2
:1031F0008C9380818F7E808310923B020895A0E0A3
:10320000B0E0E5E0F9E10C949528C8EDD0E08881C4
:103210008F7E8883E7EDF0E080818160808384E0A9
:1032200082BF81E080933B0288818E7F888302EE9B
:1032300010E0F80110821092DA0081EEC82ED12C35
:10324000F601108288818F778883888180688883DF
:1032500088818F7D888319BC10926C021092610264
:103260001092600210925F0290EEE92EF12CF701AD
:1032700080818B7F808388818160888342E060E0E9
:1032800080E00E943115F60180818E7F8083F801F5
:10329000808181608083808188608083F701808164
:1032A0008E7F8083888180618883CDB7DEB7E8E038
:1032B0000C94B1281F920F920FB60F9211242F93E6
:1032C0003F934F935F936F937F938F939F93AF93AE
:1032D000BF93EF93FF938091E10082FF09C080913B
:1032E000E20082FF05C08091E1008B7F8093E100C6
:1032F0008091DA0080FF2AC08091D80080FF26C02C
:103300008091DA008E7F8093DA008091D90080FF6F
:1033100018C080E189BD82E189BD09B400FEFDCFFE
:1033200081E080936C0280913B0281110FC00E946A
:10333000E0180E94FF188091E20084608093E20010
:1033400005C019BC10926C0210923B028091E10002
:1033500080FF17C08091E20080FF13C08091E200DF
:103360008E7F8093E2008091E20080618093E20092
:103370008091D80080628093D80019BC85E080934A
:103380006C028091E10084FF30C08091E20084FFF4
:103390002CC080E189BD82E189BD09B400FEFDCF6A
:1033A0008091D8008F7D8093D8008091E1008F7E3E
:1033B0008093E1008091E2008F7E8093E200809113
:1033C000E20081608093E20080916102882311F025
:1033D00084E007C08091E30087FD02C081E001C066
:1033E00083E080936C0280916C028091E10083FF06
:1033F00027C08091E20083FF23C08091E100877F96
:103400008093E10082E080936C02109261028091CF
:10341000E1008E7F8093E1008091E2008E7F8093B7
:10342000E2008091E20080618093E20042E060E08F
:1034300080E00E9431158091F00088608093F00058
:10344000FF91EF91BF91AF919F918F917F916F917C
:103450005F914F913F912F910F900FBE0F901F9052
:1034600018952091E4003091E50095E64091EC003C
:10347000842F817040FF23C08091E80080FD1DC033
:1034800080916C02882399F0853099F08091EB004F
:1034900085FD11C04091E4005091E50024173507E7
:1034A00029F3915011F09A01E1CF84E0089582E070
:1034B000089583E0089581E0089580E008954091A3
:1034C000E80042FFDDCF0895EF92FF920F931F9324
:1034D000CF93DF937C018B010E94311A811119C0B7
:1034E000E70101151105A1F08091E80085FD0AC0F2
:1034F0008091E8008E778093E8000E94311A88233B
:1035000081F307C089918093F10001501109E9CF3F
:1035100080E0CDB7DEB7E6E00C94B328CF932091DE
:103520006C02243029F5C091E900CF703091EC0095
:10353000232F217030FD20E8C22B22E02093E900E8
:103540002091E80020FF11C040E050E060E270E010
:103550000E94641A882321F010926A0210926B0272
:103560008091E8008E778093E800CF70C093E900E7
:10357000CF910895ACE5B0E0E0ECFAE10C9490282E
:1035800085B7806885BF85B7806885BF84B7877F2A
:1035900084BF0FB6F894A8958091600088618093ED
:1035A0006000109260000FBE90E080E80FB6F894C3
:1035B00080936100909361000FBE81E09FE0909343
:1035C000B3018093B2010E94E0180E94FF1880911D
:1035D000E20084608093E200789480916C028823FA
:1035E000A1F01091E9001F709091EC00892F81707B
:1035F00090FD80E8182B1092E9008091E80083FD8F
:103600000E94CF151F701093E90082E084BD93E003
:1036100095BD9AEF97BD80936E000E94730D90E068
:1036200090933401809333010E94AE0E0E94F40EF9
:10363000E3E7F2E0A5E8B2E011921D9222E0E13862
:10364000F207D1F78EE090E00E941C2A80936D0271
:1036500090936E02FC010E961192E817F907E1F7BC
:1036600089EA8093800089E08093810024982C98D7
:103670003F988AB18F7C8AB96E98479A8BB18063E4
:103680008BB9769A8FE090E00E94362960936F02A2
:1036900070937002809371029093720267708FEF43
:1036A000689FB00111247595679575956795772783
:1036B000709389006093880070938B0060938A00F8
:1036C00070938D0060938C000E94EA0D80E090E082
:1036D0000E943C29883E9E4F11F00E94E81082E033
:1036E00090E00E942E298093930284E090E00E9453
:1036F0002E29182F82E290E00E942E29212F30E0FF
:10370000382B309305032093040383E090E00E945C
:103710002E290E946426809182020E94E70C8091EB
:103720008102811136C080E090E00E943C29883EF1
:103730009E4F21F00E94E8100E94852388E090E0CF
:103740000E9436296093F0027093F1028093F20296
:103750009093F3026E7F71F40E94852388E090E0DD
:103760000E9436296093F0027093F1028093F20276
:103770009093F3020E942223109211038091F00291
:1037800080FF04C060E086950E94112581E080934F
:103790008102809182020E94E70C8BE091E090937D
:1037A000FC028093FB02B8E1EB2EF12C10E4D12E49
:1037B00080916C02853009F07DC0CC24C39400E177
:1037C00012E180916C02853009F065C080916C0235
:1037D000843009F43DC0109211038091840281115C
:1037E00016C0C09284028091F002982F917090933D
:1037F00083028E7F8093F0022FEF80E792E02150CA
:1038000080409040E1F700C000000E947E221092AC
:10381000FF020FB6F894A895E09260000FBED09218
:10382000600083B7817F846083BF83B7816083BF7B
:103830007894889583B78E7F83BF0FB6F894A89548
:1038400080916000886180936000109260000FBEDC
:1038500080916002882309F4B4CF0E94730D90E038
:1038600090933401809333010E94AE0E0E94F40EB7
:10387000E5E8F2E0119222E0E339F207D9F70E947D
:10388000FA13E5E8F2E0819181114CC282E0E3395C
:10389000F807C9F796CF10923C020E9489260E9431
:1038A000C921109284028091830281110E944C25CB
:1038B0000E94FB240E94FA13882359F08FB7F894D2
:1038C0004091000350910103609102037091030342
:1038D0008FBFA4E9B2E0E5E8F2E000E010E0302FAD
:1038E00021919D919227A1F180E0BB24B394492FAF
:1038F0004B2151F164968FAF649765963FAF659702
:103900002B2181E009F480E066968FAF66970E94D4
:1039100040218160782F68969FAF8EAF689764963C
:103920004FAD649765965FAD659766966FAD669788
:1039300068968FAD68970E94540BF801EC56FD4FC6
:103940008081B826B0822AC08F5FBB0C863079F6A2
:103950000F5F1F4F0E30110509F0C1CF8FEF699631
:103960008FAF69976A968FAF6A976B961FAE6B970A
:103970000E9440218160782F6D969FAF8EAF6D972A
:1039800069964FAD69976A965FAD6A976B966FAD12
:103990006B976D968FAD6D970E94540B80911701B8
:1039A00090911801019641F1C12CA6E17A2E1BC01D
:1039B0007A9CF0017B9CF00D1124E45EFE4F82881E
:1039C00093888114910419F4F8EC8F2E912C7A9C31
:1039D00080017B9C100D1124045E1E4FF80186812E
:1039E00081110FC0C394AC2CB12C80911701909120
:1039F00018018A159B05E4F68091F502882331F1C0
:103A000018C0858596850E9431218816990650F741
:103A1000F8018189811103C0C8010E94D6217A9CD6
:103A2000C0017B9C900D11248E5D9E4F0E94F5215C
:103A3000D9CF0E9440212091A2023091A302821B83
:103A4000930B8F3F9F4710F40E943A2280911103FD
:103A5000882309F493C080911003E091F002E69569
:103A6000E81BE0930C03823059F4F0E0E85DF74F77
:103A7000E4910E2F10E0EDECAE2EE0E2BE2E59C028
:103A8000863059F4F0E0EB5DF74FE4910E2F10E033
:103A90007DEBA72E70E2B72E4CC0893061F4E6951D
:103AA000F0E0EE5DF74FE4910E2F10E069E5A62EF1
:103AB00060E2B62E3EC08F3061F4E695F0E0E15E44
:103AC000F74FE4910E2F10E053EFA52E5FE1B52ED6
:103AD00030C0853159F4F0E0E45EF74FE4910E2FE9
:103AE00010E043EAA42E4FE1B42E23C08831A1F0A8
:103AF000833249F4EAE1F8E00591149133E8A32E0A
:103B000030E2B32E16C0843271F404EF11E020EFDE
:103B1000A22E2EE1B22E0DC008E210E098E2A92EEE
:103B20009FE1B92E06C000ED17E08AEAA82E8EE1CB
:103B3000B82E80910D03882361F010920D030E942E
:103B4000402190930B0380930A0310920F0310926D
:103B50000E030E944021E0910A03F0910B038E1B9B
:103B60009F0B8F3F9F4750F40E0F1F1F10930B03A7
:103B700000930A038AE093E0F50109950E94C921A8
:103B80009091A40289138093A40280916C028430E6
:103B900009F00ECE83E08093E9008091E80082FF77
:103BA00007CE8091E80085FF22C00E94311A811162
:103BB0001CC000E210E05E01F1E2AF0EB11C08C0D3
:103BC0008091F100F50181935F010150110969F0C5
:103BD0008091E80085FDF4CF8091E8008B77809399
:103BE000E8000E94311A882399F391E001C090E027
:103BF0008091E8008B778093E800992309F4D8CD71
:103C000089A18130E9F158F1823021F0843009F442
:103C10007DC0CECD8BA19AA19093A5028093A602E0
:103C20008DA19CA19093A7028093A8028FA19EA131
:103C30009093A9028093AA0242E150E063E270E00F
:103C4000CE018F5B9F4F0E941E2984E0898381E013
:103C500080936B028EEF8A8310926A020CC01982E5
:103C60008CE0E0E8F1E0DE01129601900D928A9579
:103C7000E1F78EEF8D87CE0101960E948E1A98CDC6
:103C80000BEA12E00E944422F801819391938F0184
:103C9000F2E0013B1F07B1F781E089839091AB020D
:103CA0009A839091AC029B839091AD029C839091FA
:103CB000AE029D839091AF029E839091B0029F834C
:103CC0009EEF988780936A02CE0101960E948E1A19
:103CD00042E150E063E270E0CE0101960E941E29AD
:103CE000FE01319682E183301CF09189928B01C0F4
:103CF000128A815031978F3FB1F742E150E063E281
:103D000070E0CE0101960E94422952CD80916B0253
:103D1000882309F44DCD80E00E9421268AA10E94CB
:103D2000582646CD09BD19BD09B400FEFDCF8091CE
:103D3000D8008F7D8093D8008091E00082608093CE
:103D4000E0008091E00081FDFCCF10923C020E94D7
:103D5000892637CD0895089580913E020895CF9326
:103D6000DF9320910A01222339F02091040327FFD9
:103D700003C060E224E002C068E021E02093E90093
:103D80002FEF3091E800215035FD06C035ED3A9512
:103D9000F1F700002111F5CF2091E80025FF1DC0AB
:103DA000EC0180910A01811105C040E050E068E01B
:103DB00070E003C070E040E050E0CE010E94641A61
:103DC0008091E8008E778093E80080E2FE01AFE307
:103DD000B2E001900D928A95E1F7DF91CF910895BD
:103DE000EF92FF920F931F93CF93DF938C01C4EB5D
:103DF000D2E0E12CF12CF8018481F7E0EF16F10418
:103E00001CF4882339F002C0811104C09E01409146
:103E1000F30202C09E0140E06091F2028091F10243
:103E20000E9495238FEFE81AF80A24969FE0E9167E
:103E3000F10409F70E947E22F801848190E0019646
:103E4000817099278483CDB7DEB7E6E00C94B32860
:103E5000A0E0B0E0EEE2FFE10C949128EC014C818F
:103E6000042F10E09801D8010E94CA299B01AC01DF
:103E70000E9495296B017C01E0E2F0E0E01BF10B70
:103E8000A5E5B0E09B01AC010E9495294B015C01C6
:103E90009F01DF010E94012A9B01AC010E94A02921
:103EA0009B01AC012C0D3D1D4E1D5F1DC501B401D4
:103EB0000E94A829822FF22E99E2921728F093E00F
:103EC000299F900111240DC025E530E0281B310900
:103ED000C901880F991F280F391F37FF02C02F5FB4
:103EE0003F4F35952795122F109594EBC92E92E0F0
:103EF000D92E00E085E5E82EEF1801FD02C08E2DD9
:103F000001C08F2D9601412F6091F2020E949523EE
:103F10000F5F84E0C80ED11C0F3079F70E947E221B
:103F20008C81811102C091E003C0803219F49FEFAF
:103F300090931B0190911B01890F8C83CDB7DEB745
:103F4000ECE00C94AD280F931F93CF93DF93C4EB59
:103F5000D2E0FE011182108212821382349682E036
:103F6000E03FF807B9F700E010E08091B202082EB8
:103F7000000C990B0817190794F080911A01082E6C
:103F8000000C990B8017910754F09E014091F302A9
:103F90006091F2028091F1020E94952304C019827F
:103FA00018821A821B820F5F1F4F24960F30110553
:103FB000E1F60E947E22809119019091B202980F41
:103FC0009093B20220911A01280F20931A01121621
:103FD00014F49E301CF0819580931901DF91CF91EC
:103FE0001F910F910895A0E0B0E0E9EFFFE10C947C
:103FF0009428FC01828180FF03C0DD24DA9402C092
:10400000DD24D39404EB12E0C0E0D0E02FE0B22E28
:10401000F801118210821282138294E0E92EF12CB1
:10402000C12C8091B1028C0D80312CF06B2D0E943F
:10403000D929892F02C087FD815F082E000C990BBA
:10404000C817D90791F48091F3028E9DA0018F9D2E
:10405000500D1124559547955595479598016091B8
:10406000F2028091F1020E949523CD0CF1E0EF1A4B
:10407000F108B9F621960C5F1F4FCF30D10541F6FC
:104080000E947E228091B10291E0D91206C0811176
:1040900002C08EE007C0815005C090E00196BE01CD
:1040A0000E94E7298093B102CDB7DEB7E9E00C9416
:1040B000B028EF92FF921F93CF93DF93EC0184EB34
:1040C000E82E82E0F82E10E08C8197014091F302F7
:1040D0006091F202810F0E9495231F5E84E0E80E3A
:1040E000F11C1F3F89F70E947E229A818C8190FFEC
:1040F00002C08F5F01C081508C83DF91CF911F91EF
:10410000FF90EF900895A4E0B0E0E9E8F0E20C94AD
:1041100099288C018091B30281110AC09E012F5F02
:104120003F4F4FEF6FEF0E9495238A818093B30238
:10413000F8018481813051F028F0823061F440919F
:10414000B3020AC08091B30240E007C06091B3029D
:1041500040E080E003C040E080E060E00E94102387
:10416000F801848190E0019663E070E00E94E72905
:1041700084832496E4E00C94B528CF93DF93EC017C
:10418000E0EFF2E0438162818C810E9422248C81E5
:104190008F5F8C83DF91CF910895CF93DF93EC01F4
:1041A000EC81F0E0E45DF74F4491E0EFF2E06281F2
:1041B00081810E9422248C818F5F8C83DF91CF913B
:1041C000089580930603709308036093070380911A
:1041D0006C028430F9F48093E9008FEF9091E8004D
:1041E000815095FD06C095ED9A95F1F7000081117B
:1041F000F5CF8091E80085FF0DC040E050E063E01E
:1042000070E086E093E00E94641A8091E8008E7767
:104210008093E800089578941F920F920FB60F9242
:1042200011248F939F93AF93BF938091000390913C
:104230000103A0910203B09103030196A11DB11DDA
:104240008093000390930103A0930203B0930303B0
:10425000BF91AF919F918F910F900FBE0F901F90C4
:1042600018959C014FB7F894809100039091010339
:10427000A0910203B09103034FBF821B930B0895DB
:104280002FB7F8948091000390910103A09102034D
:10429000B09103032FBF08951F920F920FB60F9294
:1042A00011248F939F93AF93BF938091FF0281114D
:1042B00013C08091000390910103A0910203B0917B
:1042C00003034196A11DB11D809300039093010348
:1042D000A0930203B0930303BF91AF919F918F917D
:1042E0000F900FBE0F901F90189520910A01222366
:1042F000C9F02091040327FF15C0262F2695269587
:1043000026952E31C8F4FC01E20FF11D677081E0A3
:1043100090E001C0880F6A95EAF780959281892321
:1043200082830895FC0106962281621301C01282E5
:104330003196E817F907C1F708952091FD023091F1
:10434000FE022817390771F09093FE028093FD0258
:10435000E091FB02F091FC02309721F00084F1859E
:10436000E02D099508952091F9023091FA0228175D
:10437000390771F09093FA028093F902E091FB0201
:10438000F091FC02309721F00680F781E02D09952D
:104390000895E091FB02F091FC02309729F0019022
:1043A000F081E02D0995089580E00895CF93DF9383
:1043B000EC0181E0898B90913C028F81892B809365
:1043C0003C029091F8028885892B8093F8020E9424
:1043D0007211EA81FB81CE010696309719F06C8943
:1043E0007D890995DF91CF910895EF92FF920F9308
:1043F0001F93CF93DF93FC012285211136C0EC017E
:10440000E380F480F7E5FF1A26E12E9DC0012F9D81
:10441000900D1124DC01A45EBE4F1496ED91FC9129
:1044200015978E5D9E4F309729F054966D917C9133
:104430005597099586E18E9D80018F9D100D112461
:10444000045E1E4FF80187810E946B11F801808580
:104450000E9464110E947211188219861B861E82A6
:104460001D821092F7021092F602CDB7DEB7E6E099
:104470000C94B3288091F502882329F082E20E94EF
:104480009D261092F5020895CF93DF930E940E2986
:1044900066E070E00E94E729D82F0E940E296EE0A6
:1044A00070E00E94E729C82F6D2F782F80E00E94CE
:1044B000460F0497C59718F48D2F9C2F02C00E94B9
:1044C0004422DF91CF9108959091F00290FF04C0B3
:1044D0009695981748F003C0811106C090E0961792
:1044E00018F40E94642508950E9456250895882393
:1044F00011F0FA0101C0FB0109950895EF92FF92B6
:104500000F931F93CF93DF938091F00280FF08C039
:1045100004EB12E080EFE82E82E0F82EF8011BC0D9
:10452000E4EBF2E080EF92E01182108212821382BB
:1045300034968E179F07C1F7EBCF381708F4832FF7
:104540008383381B3183281B2083981B92833496E6
:10455000EE16FF0641F0928120813181892F2917C3
:1045600060F7822FEACF80910903882381F180913F
:10457000330190913401892B51F5809132018823C8
:1045800031F165E070E084E80E94A927892B19F0D9
:10459000109232011AC0C4EBD2E065E070E088816D
:1045A0000E941E2865E070E089810E941E2865E057
:1045B00070E08A810E941E2865E070E08B810E9475
:1045C0001E282496EC16FD0641F70E947328579A80
:1045D0008BB18F779BB190682FB7F894E016F106F6
:1045E00099F0F80131918F0148E09BB9000000C0BB
:1045F00037FF8BB9330F000000C000C000C08BB97B
:1046000000C04A9591F7EACF2FBF8FE594E001975C
:10461000F1F700C00000CDB7DEB7E6E00C94B32898
:104620009091F00290FF0DC0E4EBF2E08183608393
:1046300042831382349692E0E03FF907B9F70E9473
:104640007E2208958091F002282F269530E02115D2
:10465000310519F48170826005C02532310524F0DE
:10466000817088648093F0020895CF92DF92EF9278
:10467000FF926B017C010E942223B701A60188E012
:1046800090E00E946429FF90EF90DF90CF90089512
:104690008091F402882319F081508093F402609194
:1046A000F0027091F1028091F2029091F3020E9467
:1046B000352308958091F402833018F48F5F80933E
:1046C000F4026091F0027091F1028091F2029091F7
:1046D000F3020E9435230895E0EFF2E080818E7F9F
:1046E000808360817181828193810E943523109241
:1046F00011032FEF80E792E0215080409040E1F7D6
:1047000000C000000E947E220895E0EFF2E083E006
:10471000808311828FEF8283838314826081718111
:10472000828193810E9435230895A0E0B0E0EBE9F7
:10473000F3E20C949328E82EF62EE901E42FF0E042
:10474000611106C0E45DF64FE4914E2F2E2F71C02B
:10475000062F10E0E45DF64F4491F42FC42ED12CC7
:1047600026E0829FC00111242FEF30E0B9010E94A2
:1047700077285BEA5603C001579F900D11248E0DD8
:10478000911D8E0D911D582F550F580FD901A01B4B
:10479000B10BAC9DC001AD9D900DBC9D900D112441
:1047A000E92FF59ED0011124AB2FBB277901EA1A1E
:1047B000FB0AEC9CD001ED9CB00DFC9CB00D1124CB
:1047C0005901A51AB108A09E7001A19EF00CB09EDF
:1047D000F00C1124EF2CFF242E193F092C9D800191
:1047E0002D9D100D3C9D100D1124212F623071055F
:1047F00091F048F461157105E1F061307105B9F48B
:10480000242F4B2F16C06430710569F040F06630DC
:10481000710579F00CC0242F492FE12F0AC0492FD0
:10482000EF2F2B2F06C0292FE42F412F02C0292F55
:10483000EB2F49832883EA831B82CDB7DEB7EAE0FA
:104840000C94AF28A4E0B0E0E8E2F4E20C949B28DA
:104850009091F00290FF0AC09E012F5F3F4F0E948F
:1048600095234B8169818A810E9410232496E2E07E
:104870000C94B728A4E0B0E0E0E4F4E20C948E28B5
:10488000F82E762EE42E622E9091F00290FF67C0F3
:10489000E92FE695AE2FB0E0A457BE4F8C918093E0
:1048A00010039E7F923061F49E012F5F3F4F8F2D4A
:1048B0000E9495234B8169818A810E9410233DC00B
:1048C000823019F4E090F30238C0863019F4F09089
:1048D000F10233C08930D9F3893179F5E9518E2F4E
:1048E0008170582EE695F0E0E45DF54FE4910E2FCF
:1048F00010E084EBC82E82E0D82EA12CB12C9FE0D2
:10490000892E912CC501B4010E9477288F2D51105A
:1049100002C0860F01C0861B96014E2D672D0E9496
:104920009523A00EB11E84E0C80ED11C80EFC816DE
:1049300082E0D80639F70E947E22F092F10270924E
:10494000F202E092F302662051F06091F002709161
:10495000F1028091F2029091F3020E943523249695
:10496000EFE00C94AA28E0EFF2E043812CE0421B38
:1049700008F440E021E0628181810E943A24089598
:10498000E0EFF2E043812CE0420F08F44FEF21E02A
:10499000628181810E943A240895E0EFF2E0628111
:1049A0002FEF621B08F460E021E0438181810E94C7
:1049B0003A240895E0EFF2E062812FEF620F08F4ED
:1049C0006FEF21E0438181810E943A240895E0EF56
:1049D000F2E0818121E0438162818C500E943A247F
:1049E0000895E0EFF2E0818121E043816281845FFC
:1049F0000E943A2408956091F002669570E04BE0C1
:104A000050E085E391E00E943D2B892B19F481E071
:104A1000809311030E94402190930B0380930A031B
:104A200008959091F00290FF36C09170811102C0FC
:104A3000926006C0853210F0986402C0880F982BEF
:104A40009093F002662351F06091F0027091F102B0
:104A50008091F2029091F3020E9435236091F0025E
:104A6000669570E04BE050E085E391E00E943D2BBD
:104A7000892B19F01092110302C00E94FB2481E0DF
:104A800080930D0320E04091F3026091F202809147
:104A9000F1020E943A240895E0EFF2E08081816003
:104AA000808360E086950E941125089561E00E9450
:104AB000112508958091F0028695815009F484E2D1
:104AC00061E00E94112508958091F00286958F5F24
:104AD000853208F081E061E00E941125089580E0B0
:104AE00090E00E94B32180E090E00E949D2110920E
:104AF000F8020E9472110895CF92DF92FF920F93F5
:104B00001F93CF93DF936C01009182028091320258
:104B1000082BC7E0D0E010E0C8010C2E02C095952C
:104B200087950A94E2F780FD04C02197A8F7F12C3D
:104B300009C0FC2EB6018C2F0E94460F0E945F0F09
:104B4000019799F38F2DDF91CF911F910F91FF90D6
:104B5000DF90CF900895CF93DF93EC010E947C25E6
:104B6000BE010E94460F0E945F0FDF91CF91089512
:104B7000292F9E3078F5863068F590E036E0239F47
:104B8000800D911D1124682F677023E096958795FD
:104B90002A95E1F7FC01EE0FFF1FE80FF91FEE5E0B
:104BA000FC4F40E050E080E0219130E0062E02C052
:104BB000369527950A94E2F721703327042E01C019
:104BC000220F0A94EAF7822B4F5F5F4F4330510563
:104BD00059F7089580E00895292F9E3088F5863092
:104BE00078F590E036E0239F800D911D1124282F49
:104BF000277051E001C0550F2A95EAF723E09695FA
:104C000087952A95E1F7FC01EE0FFF1FE80FF91FCA
:104C1000EE5EFC4F20E030E070E04081CB01022EE0
:104C200002C0969587950A94E2F781708195842752
:104C30008523842781932F5F3F4F2330310569F708
:104C40000895A0E2B0E0E7E2F6E20C949A280E9410
:104C5000E70C182F80916B028823A9F02FEF80E7D3
:104C600092E0215080409040E1F700C0000085E0D4
:104C70008983812F0E94F30B8A838EEF8B83CE0171
:104C800001960E948E1A109382020E946F25A096B0
:104C9000E3E00C94B62821E030E001C0220F8A95B1
:104CA000EAF720958091820282230E9421260895AE
:104CB00021E030E001C0220F8A95EAF7809182025C
:104CC000822B0E9421260895809332020E946F2534
:104CD0000895FC01808191810E94AB2592959F707F
:104CE000963079F010F4925001C09A50923068F4E6
:104CF000803F69F018F4883E40F409C0843F29F4ED
:104D000006C0883E20F0813F11F080E0089581E0E8
:104D1000089580910A01882331F08091040387FF70
:104D200002C08EE101C086E0EAEBF1E0DF011D92F6
:104D30008A95E9F70E946F250895882321F00E9443
:104D400064110E9472110895882339F09091F8023D
:104D5000892B8093F8020E9472110895882321F014
:104D60000E946B110E9472110895882339F090916E
:104D70003C02892B80933C020E9472110895882383
:104D800049F1682F8CEF860F813A28F488EB91E087
:104D90000E9475210CC080E2860F883058F467703D
:104DA00081E001C0880F6A95EAF70E946B110E94AA
:104DB000721108958BE5860F833028F480E090E02F
:104DC0000E94B3210895685A673120F480E090E092
:104DD0000E949D210895CF93882309F49AC0C82F7B
:104DE0008CEF8C0F813A08F05EC080910A01882315
:104DF000E1F08091040387FF18C0EC2FE695E6955B
:104E0000E695F0E0E854FE4F8281282F30E04C2FE9
:104E1000477081E090E002C0880F991F4A95E2F741
:104E200082239323892B59F411C0EAEBF1E081919D
:104E3000C81729F081E0E03CF807C9F707C06C2FDC
:104E400088EB91E00E9475210E94721180910A0105
:104E50008823C9F08091040387FF15C0AC2FA69565
:104E6000A695A695B0E0A854BE4FC77081E090E02B
:104E700001C0880FCA95EAF712969C911297892B68
:104E800012968C9320C0AAEBB1E0EFEF80E09D91E9
:104E9000C917C9F0EF3F19F4911101C0E82F8F5FD6
:104EA0008630A9F72DC080E28C0F883078F4C77067
:104EB00081E090E001C0880FCA95EAF790913C022A
:104EC000892B80933C020E94721123C0EBE5EC0F0A
:104ED000E33040F4F0E0E05CFE4F808190E00E941F
:104EE000B32117C0C85AC731A0F4EC2FF0E0EE0F81
:104EF000FF1FED5BFE4F808191810E949D2109C0C3
:104F0000EF3F09F30E2E000CFF0BE854FE4FC28357
:104F1000DACFCF9108951F93CF93DF93182FEB0132
:104F20000E94EB26209741F08FE99FE00197F1F76F
:104F300000C000002197F6CF812F0E94BF26DF918D
:104F4000CF911F9108951092B9008CE08093B80022
:104F50000895A0E0B0E0EFEAF7E20C949228B82EB2
:104F6000EB010E9440216C01C431D10558F0CF3FC4
:104F70008FEFD80759F0CE0164E170E00E947728E6
:104F80007B0107C0EE24E394F12C03C025E0E22E60
:104F9000F12C84E8A82E94EA992E1092BC009092ED
:104FA000BC000E9440218C018091BC0087FD08C09C
:104FB0000E944021801B910B8E159F05A8F32AC0EB
:104FC0008091B900887F883041F08091B900887F56
:104FD000803119F00FEF1FEF1FC0B092BB00A092FD
:104FE000BC000E9440218C018091BC0087FD08C05C
:104FF0000E944021801B910B8E159F05A8F30AC0CB
:105000008091B900887F883111F0803419F700E071
:1050100010E00EC00EEF1FEFCF3F8FEFD80709F45F
:10502000BCCFC6010E9431218C179D0708F4B5CF73
:10503000C801CDB7DEB7EBE00C94AE280F931F93F9
:10504000CF93DF93EB018093BB0084E88093BC0097
:105050000E9440218C018091BC0087FD0EC0CF3F93
:105060008FEFD807C1F30E944021801B910B8C1752
:105070009D0788F38EEF9FEF0CC02091B900287F29
:1050800081E090E0283211F480E090E091958195E4
:105090009109DF91CF911F910F9108950F931F9365
:1050A000CF93DF93EC0184E88093BC000E94402101
:1050B0008C018091BC0087FD0EC0CF3F8FEFD807D9
:1050C000C1F30E944021801B910B8C179D0788F330
:1050D0008EEF9FEF03C08091BB0090E0DF91CF91F6
:1050E0001F910F91089584E98093BC000895AA1B35
:1050F000BB1B51E107C0AA1FBB1FA617B70710F0C3
:10510000A61BB70B881F991F5A95A9F780959095F4
:10511000BC01CD0108952F923F924F925F926F9202
:105120007F928F929F92AF92BF92CF92DF92EF9237
:10513000FF920F931F93CF93DF93CDB7DEB7CA1BB8
:10514000DB0B0FB6F894DEBF0FBECDBF09942A88E3
:10515000398848885F846E847D848C849B84AA848B
:10516000B984C884DF80EE80FD800C811B81AA8118
:10517000B981CE0FD11D0FB6F894DEBF0FBECDBFE3
:10518000ED0108958F929F92AF92BF92CF92DF92DE
:10519000EF92FF92CF93DF93EC01688179818A814E
:1051A0009B81611571058105910521F464E279ED1A
:1051B0008BE597E02DE133EF41E050E00E94762946
:1051C00049015A019B01AC01A7EAB1E40E9495296B
:1051D0006B017C01ACEEB4EFA50194010E94A32900
:1051E000DC01CB018C0D9D1DAE1DBF1DB7FF03C0A3
:1051F0000197A109B04888839983AA83BB839F77CD
:10520000DF91CF91FF90EF90DF90CF90BF90AF9064
:105210009F908F9008950E94C228089580E091E0A9
:105220000E94C2280895A0E0B0E08093000190930E
:105230000101A0930201B09303010895DC01CB01A9
:10524000FC01F999FECF06C0F2BDE1BDF89A319696
:1052500000B40D9241505040B8F70895F999FECF2F
:1052600092BD81BDF89A992780B50895A6E1B0E076
:1052700044E050E00C942029A8E1B0E042E050E086
:105280000C942029DC01A40FB51F4150504048F078
:10529000CB01840F951F2E910E94532941505040FD
:1052A000D0F70895262FF999FECF92BD81BDF89AC7
:1052B000019700B4021639F01FBA20BD0FB6F8945A
:1052C000FA9AF99A0FBE08950396272F0E94532940
:1052D0000E945229252F0E945329242F0C945329D0
:1052E0000196272F0E9453290C945229052E97FBD3
:1052F0001EF400940E948D2957FD07D00E94A82912
:1053000007FC03D04EF40C948D29509540953095B0
:1053100021953F4F4F4F5F4F089590958095709521
:1053200061957F4F8F4F9F4F08950E94CA29A59F77
:10533000900DB49F900DA49F800D911D1124089590
:10534000B7FF0C9495290E949529821B930B089511
:10535000A1E21A2EAA1BBB1BFD010DC0AA1FBB1F79
:10536000EE1FFF1FA217B307E407F50720F0A21BEB
:10537000B30BE40BF50B661F771F881F991F1A9458
:1053800069F760957095809590959B01AC01BD0182
:10539000CF010895A29FB001B39FC001A39F700DDC
:1053A000811D1124911DB29F700D811D1124911D2D
:1053B000089587FB082E062687FD819567FD619578
:1053C0000E94102A0EF4919507FC8195089597FB91
:1053D000072E16F4009407D077FD09D00E94772895
:1053E00007FC05D03EF4909581959F4F08957095E8
:1053F00061957F4F0895EE0FFF1F0590F491E02D0A
:1054000009940E94CA29332312F48A1B9B0B0C9423
:105410000B2A0E94CA29B7FF0895821B930B089597
:10542000991B79E004C0991F961708F0961B881FF6
:105430007A95C9F7809508950F931F93CF93DF93C3
:105440008230910510F482E090E0E0913503F09114
:10545000360320E030E0A0E0B0E0309719F1408161
:1054600051810281138148175907C8F084179507A5
:1054700069F4109731F012960C93129713961C93BF
:1054800027C0009335031093360322C02115310540
:1054900019F04217530718F49A01BD01EF01DF011B
:1054A000F801DBCF21153105F9F0281B390B243029
:1054B000310580F48A819B816115710521F0FB0122
:1054C0009383828304C09093360380933503FE0157
:1054D000329644C0FE01E20FF31F81939193225054
:1054E0003109398328833AC0209133033091340342
:1054F000232B41F4209106013091070130933403AE
:1055000020933303209104013091050121153105C9
:1055100041F42DB73EB74091080150910901241B79
:10552000350BE0913303F0913403E217F307A0F455
:105530002E1B3F0B2817390778F0AC014E5F5F4FE9
:105540002417350748F04E0F5F1F509334034093E4
:1055500033038193919302C0E0E0F0E0CF01DF914B
:10556000CF911F910F910895CF93DF93009709F486
:1055700081C0FC01329713821282A0913503B09151
:105580003603109781F420813181820F931F20917F
:105590003303309134032817390751F5F09334035E
:1055A000E093330367C0ED0120E030E0CE17DF0762
:1055B00040F44A815B819E0141155105F1F0EA01F9
:1055C000F5CFD383C28340815181840F951FC817C3
:1055D000D90759F488819981840F951F0296918388
:1055E00080838A819B81938382832115310529F4ED
:1055F000F0933603E09335033DC0E901FB83EA8372
:1056000049915991C40FD51FEC17FD0761F48081B2
:105610009181840F951F0296E90199838883828185
:1056200093819B838A83E0E0F0E012968D919C91B8
:105630001397009719F0FD01DC01F7CF8D919C9134
:1056400011979D012E5F3F4F820F931F20913303CF
:10565000309134032817390769F4309729F41092F0
:1056600036031092350302C013821282B0933403C2
:10567000A0933303DF91CF910895FC014150504036
:1056800030F001900616D1F73197CF0108958827A1
:1056900099270895FB01DC0104C08D9101908019C8
:1056A00021F441505040C8F7881B990B0895F89495
:0256B000FFCF2A
:1056B2000100000000003703200001AC1EAF1EAB4A
:1056C2001ECA15C515C415FFFF01020100002E0BED
:1056D2001B0B0000000000000000000000000000A2
:1056E200000001200001191A1B1C1D1E1F2021226F
:1056F200818283E200E900EA00B500B600B700CD7E
:10570200008301CC008A0192019401210223022428
:10571200022502260227022A02B300B4006F00709B
:105722000040226D1B07F9068C066D078607A60747
:1057320057724B59342F5239653936000001020233
:1057420002020606060909090909090F0F0F0F0FC0
:105752000F151515181919191919191919191923C4
:02576200240021
:00000001FF
