:100000000C9420050C943D050C943D050C943D0585
:100010000C943D050C943D050C943D050C943D0558
:100020000C943D050C943D050C94CB1A0C940D1AC0
:100030000C94BC220C943D050C943D050C943D059C
:100040000C943D050C943D050C943D050C943D0528
:100050000C943D050C947B220C943D050C943D05BD
:100060000C943D050C943D050C943D050C943D0508
:100070000C943D050C943D050C943D050C943D05F8
:100080000C943D050C943D050C943D050C943D05E8
:100090000C943D050C943D050C943D050C943D05D8
:1000A0000C943D050C943D050C943D052D092D093E
:1000B0005D095D09C809E80AE80AE80AE609590A7B
:1000C0006B0A6B0A230E260E290E2C0E310E360EED
:1000D0003B0E4B0E590E670E750E830E910E9F0E42
:1000E000FF0F0210051008100B100E10111025182C
:1000F0004C18F5194C18F5199818BB18F519B019C2
:10010000C01901012901043130307C0101290104A9
:100110003130307C01012901043130307C0101296A
:1001200001043130307C0101290001012901043131
:1001300030307C01012B01043130307C01012B0176
:10014000043130307C01012B01043130307C01015D
:100150002900000000000000000000000000000076
:10016000000000000000000000000000000000008F
:100170000000000000007E0F00D4FFFFFFC700005A
:10018000007800000000000000002A2B280000007A
:100190000000000000000000000000000029000036
:1001A00000002C1E3420212224342627252E362D13
:1001B0003738271E1F202122232425263333362EAD
:1001C00037381F0405060708090A0B0C0D0E0F101F
:1001D0001112131415161718191A1B1C1D2F313064
:1001E000232D350405060708090A0B0C0D0E0F1008
:1001F0001112131415161718191A1B1C1D2F313044
:10020000354C29002B00E000E100AE5D00001E002F
:10021000140004001D00010021591F001A001600DF
:100220001B000100E3002000080007000600E200B8
:100230000254210015000900190002542C0022006C
:1002400017000A0005000000010023004A02000018
:1002500000570000010022004D020000015700007D
:100260004B0023001C000B001100000001002400C3
:1002700018000D00100001544E0025000C000E0067
:100280003600E2002C41260012000F00370001006A
:100290002C432700130033003800010029003500EB
:1002A0002A002800340006530000B25D2B02010032
:1002B000010001000000010001002D020100010009
:1002C00001000100310231000100010001000100C4
:1002D00001002E02010001000100010001002D00BB
:1002E000010001000100010001002E0001000000DA
:1002F00001000100010000000100000001000100F8
:1003000001000000010000000100010001000100E7
:1003100001000000010001002F002F022602010051
:10032000010001003000300227020100010001003D
:1003300001000100010001000100010001000100B5
:1003400001000100010001000100010001000100A5
:10035000000029002B03E000E10001000000010083
:10036000140404041D04010001003B041A041604D3
:100370001B04010001000100080407040604010039
:100380000100010015040904190401000100010025
:1003900017050A0405040000010001000100000027
:1003A0000100000001000100010000000100000048
:1003B000010001001C0450001104000001000100B4
:1003C0001804510010040100010001000C04520047
:1003D00036040100E500010012044F00370401005B
:1003E000010001001304330438040100010001007E
:1003F00001000100010001000000010001000100F6
:1004000001000100000001000100010001000100E5
:1004100001000100010001000100010001000100D4
:1004200001000100010001000100010001000100C4
:1004300001000100010001000100010001000000B5
:1004400001000100010000000100000001000100A6
:100450000100000001000000010001000100500047
:100460000100000001000100010052000100010034
:100470000100010001005100010001000100010024
:1004800001004F0001000100010001000100010016
:100490000100010001000100010001000100010054
:1004A000000029000100010001000100000001001E
:1004B0000100010001000100010001000100010034
:1004C0000100010001000100010001000100010024
:1004D0000100010001000100010001000100010014
:1004E0000100010001000000010001000100000006
:1004F00001000000010001000100000001000000F7
:1005000001000100110023022E00000001004C0038
:10051000240021001E0036000100380025002200C2
:100520001F00270001002502260023002000630091
:1005300001002D002E0228002B002B1201000100CB
:10054000010001000100010000002900010001007C
:100550000100010000003A003F00440001000100DA
:1005600001003B00400045000100010001003C008B
:10057000410068000100010001003D0042006900E7
:100580000100010001003E0043006A00010000007C
:100590000100A800A9000000AA000000010001005D
:1005A000AE00000048000000010001000100010051
:1005B0000100000001000100010001000100010034
:1005C000010001000100010001000100AB00010079
:1005D0000100010001000100AC0001000100010068
:1005E0000100010001000100010001000100010003
:1005F0000000B35D010001000100010000000100E6
:1006000001000100010001000100010001000100E2
:1006100001000100010001000100010001000100D2
:1006200001000100010001000100010001000100C2
:1006300001000100010000000100010001000000B4
:1006400001000000010001000100000001000000A5
:100650000100010001000100010000000100010093
:100660000100010001000100010001000100010082
:100670000100010001000100010001000100010072
:1006800001000100010001000100100F0100010044
:100690000100005C01000100000005010980A101CA
:1006A000850319012AB700150126B70095017510B9
:1006B0008100C0050C0901A101850419012AA002CD
:1006C000150126A002950175108100C005010906DB
:1006D000A1018506050719E029E715002501950800
:1006E000750181020507190029EF1500250195F014
:1006F0007501810205081901290595057501910209
:10070000950175039101C00660FF0961A1010962AD
:10071000150026FF00952075088102096315002643
:10072000FF00952075089102C005010906A1010589
:100730000719E029E7150025019508750181029543
:1007400001750881010507190029FF150026FF0022
:10075000950675088100050819012905950575019B
:100760009102950175039101C009025B000301002C
:10077000A0FA090400000103010100092111010090
:10078000012240000705810308000109040100025D
:100790000300000009211101000122220007058247
:1007A00003200001070503032000010904020001E2
:1007B00003000000092111010001226D00070584DA
:1007C0000320000112010002000000089732754961
:1007D00001000102000122034500720067006F0062
:1007E00044006F007800200045005A0020005300AC
:1007F000680069006E006500000028035A0053007D
:100800004100200054006500630068006E006F0026
:100810006C006F006700790020004C0061006200EE
:10082000730000000403090400047F3F1F643214B6
:10083000643214783C1E1E140A052223252628291A
:100840002A2C2D2F3032333536383A3B3D3E40424C
:10085000434547494A4C4E5051535557595A5C5E8F
:100860006062646668696B6D6F71737577797B7DA3
:100870007F81838587898A8C8E90929496989A9CA2
:100880009E9FA1A3A5A7A8AAACAEAFB1B3B4B6B8BA
:10089000B9BBBCBEBFC1C2C3C5C6C7C9CACBCCCD1C
:1008A000CED0D1D2D2D3D4D5D6D7D7D8D9D9DADAF7
:1008B000DBDBDBDCDCDCDCDCDDDDDDDDDCDCDCDC77
:1008C000DCDBDBDBDADAD9D9D8D7D7D6D5D4D3D2AB
:1008D000D2D1D0CECDCCCBCAC9C7C6C5C3C2C1BF89
:1008E000BEBCBBB9B8B6B4B3B1AFAEACAAA8A7A5ED
:1008F000A3A19F9E9C9A98969492908E8C8A8987A9
:100900008583817F7D7B79777573716F6D6B696886
:10091000666462605E5C5A5957555351504E4C4A5A
:100920004947454342403E3D3B3A38363533323005
:100930002F2D2C2A2928262523220001010101011F
:100940000101010102020202020202020203030388
:100950000303030303040404040404040505050558
:100960000506060606060707070707080808080918
:100970000909090A0A0A0B0B0B0C0C0C0D0D0D0EC4
:100980000E0E0F0F0F101011111112121313141459
:10099000151516161717181819191A1A1B1B1C1DCE
:1009A0001D1E1E1F20202122222324242526262727
:1009B0002829292A2B2C2D2D2E2F30313232333459
:1009C00035363738393A3B3C3D3E3F40414243445F
:1009D00045464748494A4C4D4E4F50515354555641
:1009E00058595A5B5D5E5F616264656668696B6CED
:1009F0006D6F7072737577787A7B7D7E8082838568
:100A000087888A8C8E8F91939596989A9C9EA0A2A7
:100A1000A3A5A7A9ABADAFB1B3B5B7BABCBEC0C2B1
:100A2000C4C6C9CBCDCFD1D4D6D8DBDDDFE2E4E775
:100A3000E9EBEEF0F3F5F8FAFDFFFFAA7F55400071
:100A400011241FBECFEFDAE0DEBFCDBF11E0A0E082
:100A5000B1E0ECEAF9E502C005900D92A83CB107BF
:100A6000D9F723E0A8ECB1E001C01D92A135B2078F
:100A7000E1F70E942B1C0C94D42C0C940000A5E2EE
:100A8000B0E0E5E4F5E00C940E2AFC018081918150
:100A900023813481232B31F09F3F31F491E08F3F4C
:100AA00019F403C091E001C090E090FDEBC57F0117
:100AB00085E0DE01919601900D928A95E1F7D701CC
:100AC00012962C9189A19AA1222349F00E94EF2627
:100AD000182F682F89A19AA10E945F2703C00E9446
:100AE0002B27182F69A17AA1812F0E94AD108C01AC
:100AF000F7018281811105C080918402811141C07A
:100B000090C080911701909118010196A9F34CE1D2
:100B1000C42E41E0D42EA12CB12C99249394809121
:100B20001701909118018A159B0534F3D60116968A
:100B30008C9116978823F1F019968D919C911A97B4
:100B40008017910739F48091100390911103801759
:100B5000910781F0F60197861487038781898111B7
:100B600003C0C6010E944623C60106960E94652363
:100B700010921203FFEFAF1ABF0A26E1C20ED11C7A
:100B8000CECFD70112968C91129781116BC5E0914F
:100B9000CA01E33098F481E08E0F8093CA01F0E03F
:100BA000EE0FFF1FE154FD4F8D919C919183808347
:100BB00082E08983CE0101960E94FF1BBFEFE3ED27
:100BC000F0E3B150E040F040E1F700C00000809158
:100BD000CA01833009F046C51092CA01E5ECF2E083
:100BE000AFEBB2E08BEC92E0318111962C91119732
:100BF000321330C030812C9132132CC032961296B1
:100C00008E179F0789F784E0898381E080938502AE
:100C10008EEF8A8310928402CE0101960E94FF1B00
:100C200021C5809185028823D1F0D70112968C913D
:100C3000882311F086E001C087E08983F701808175
:100C40008A8381818B838EEF8C83CE0101960E94F3
:100C5000FF1B05C083E0898310928502D9CF0F3A2C
:100C6000FDE51F07E9F5D70112968C91882309F459
:100C7000C0C09091890281E0890F8770987F85308C
:100C800020F4892B8093890202C09093890280917D
:100C900089028770BFEF8B9FC001112495958795BE
:100CA00095958795992790938900809388009093D4
:100CB0008B0080938A0090938D0080938C004091EC
:100CC000890250918A0260918B0270918C028FE0B0
:100CD00090E00E94E12A80919C020E940D0E89C042
:100CE000013BEDE51E0711F128F4003B2DE512074D
:100CF00021F12FC0023B8DE5180729F0033B9DE54C
:100D0000190751F026C0D70112968C91882309F457
:100D100070C08AE291E007C0F7018281882309F45C
:100D200068C082E091E00E944A0D63C0D70112962C
:100D30008C91882309F496C4B4C1F7018281882379
:100D400009F490C49091CB0181E089278093CB0175
:100D500089C4C80197558F3F910511F008F049C02B
:100D600020911701309118012817390724F4909326
:100D7000180180931701D70112962C91129736E132
:100D8000389F5001399FB00C1124F501E45EFE4FED
:100D90006F01208B12969C918681992309F44AC099
:100DA000128701878F5F86830E94B022D6011E962C
:100DB0009C938E931D9780914B0217968C93179757
:100DC0009091120380915602892B18968C93189754
:100DD000ED91FC911197C5018E5D9E4F309729F0E2
:100DE00054966D917C91559709951093110300933A
:100DF00010030E3AFDE51F07F9F4D70112968C9106
:100E0000882309F42FC480910F03882319F00E94CE
:100E1000AA2328C4109256020E94C5120E94B02232
:100E200088579C4E9093BD028093BC0281E08093D2
:100E30000F0318C481114CC180910F03882309F45A
:100E400074C0D0905602C0904B020E94B0228857C6
:100E50009C4E9093BD028093BC02F701828188234F
:100E600009F468C08C2D8D298D7909F059C00115C0
:100E7000F5E51F07B0F4011523E5120708F055C08A
:100E8000011580E5180740F4011590E4190708F5ED
:100E9000063E110529F549C00115A2E51A0700F51E
:100EA00044C00115B9E51B0748F40115E8E51E0724
:100EB000E0F50431F5E51F0799F437C0C8019056F5
:100EC0008115904268F4D70115968C91807F29F4A2
:100ED00027C0F7018581807F41F1C801992701C0B2
:100EE000C801109212038832910530F48E319105B9
:100EF000D0F40497A8F00EC08D32910559F018F483
:100F00008A9789F00DC08C34910569F08D3292403A
:100F100051F006C082E0809312030E94D91203C0F0
:100F20000E94AA2302C00E94D912D70112968C9166
:100F30008111D8C08091560282720D3C2CE51207B7
:100F400009F4A8C008F045C0073CACE51A0709F44D
:100F50008DC0D8F4043CECE51E0709F47DC030F4E4
:100F6000033C2CE5120709F46BC02AC1053C9CE543
:100F7000190709F476C0063CACE51A0709F020C150
:100F800047E556E261E676E289C00A3CBCE51B070C
:100F900009F476C078F4083CFCE51F0709F46BC03F
:100FA000093C2CE5120709F00BC14AE456E26DE357
:100FB00076E274C00B3C9CE5190709F466C00C3C52
:100FC000ACE51A0709F0FCC048EB54E26AEC74E2A5
:100FD00065C0023DBCE51B0709F46BC0A0F40F3CE3
:100FE000FCE51F0709F45FC008F45BC0003D8CE519
:100FF000180709F45BC0013D9CE5190709F0E0C042
:101000006EE089E05EC0053DACE51A0709F457C003
:1010100060F4033DECE51E0709F44EC0043DFCE519
:101020001F0709F0CDC088E150C0063D2CE512072E
:1010300009F44AC00F358DE5180709F413C3C0C081
:1010400080910A0380FF03C00E94DC240BC38160EF
:1010500080930A03869539C04DEC56E267ED76E23F
:101060001DC047ED56E26DEC76E218C041E656E24F
:1010700067E576E213C04DE356E26AE476E20EC01D
:1010800043E256E260E376E209C040E356E263E2FF
:1010900076E204C04AEC54E268EB74E20E94E72373
:1010A000E1C281E012C065E082E00BC068E086E04A
:1010B00008C064E18FE005C067E185E102C062E23B
:1010C00089E10E94D423CEC283E20E94C926CAC20B
:1010D0008189882309F4B0CEC5018E5D9E4F0E94A0
:1010E000652387CE0C359DE5190709F464C060F4CB
:1010F0000115BCE51B07A9F00F3DECE51E0709F043
:101100005FC00E944F124CC00E35FDE51F0709F469
:101110004AC008F452C0093A8DE5180709F440C0E6
:101120004FC0109256020E94FF279FEFA4E3BCE03D
:101130009150A040B040E1F700C00000F89481E079
:101140008093E00080E28093D8001092C900EFE124
:10115000FEE43197F1F700C000001DBA109268005C
:101160001CBC10BE1FBA10927A0010926E00109232
:101170006F0010927100109272001092C9001092CC
:10118000BC0014B817B81AB81DB810BA1092BC0039
:1011900015B818B81BB81EB811BA0C94003F62C23B
:1011A0000E94F50D5FC280911F0382FB882780F9A2
:1011B00091E0892703C081E001C080E00E944B13C9
:1011C000F701828100811181882349F0C8010E94C2
:1011D000EF26D82E682FC8010E945F2704C0C801DF
:1011E0000E942B27D82EB8018D2D0E94AD100E9491
:1011F000C610182FD92E882EF701C280B580B29460
:101200009FE0B92280912A028770B9F0CC20A9F022
:101210008D2D807F803421F080E2810F883068F04E
:1012200080911F0382FF09C082E00E942E138091EB
:101230002A028770AA24A3948111A12C9D2C929438
:101240008FE09822892D90E08C30910508F0C0C184
:10125000FC01EA5AFF4F0C94782B0D2D0F708D2D49
:10126000807F11F00295007FCC20B9F0002309F4B3
:101270009DC180E2810F883010F0811006C08091FE
:101280005602082B0093560205C080911203082BCA
:10129000009312030E94D91289C1812F0E94352820
:1012A000002309F495C180E2810F883068F188201D
:1012B00059F1802F0E94CB122AC00D2D0F708D2D59
:1012C000807F803211F00295007F882021F0F1E0CC
:1012D0008F16D9F147C080911F0382FD1BC0CC201F
:1012E00069F0002339F080915602082B00935602D2
:1012F0000E94D91280E00E9461286AC180E00E94A9
:101300003528002309F464C1802F0E94D2120E9464
:10131000D9125EC1CC2081F080914B02BB2051F0EC
:1013200021E0B21207C0082B081709F451C100933D
:101330004B024EC1802B10C0BB2021F081E0B816BB
:1013400009F446C10E94C5121FC0CC2041F091E0B3
:101350009B1508F43DC1802F0E942B2839C1B11084
:1013600037C112C0CC2019F0BB20A9F31FC1BB208C
:1013700059F0A9E38A1229C1BFEFE7EEF3E0B150BB
:10138000E040F040E1F71FC1802F0E94242820C1D7
:101390008D2D86958695837019F0813061F018C186
:1013A000CC2021F0812F9D2D937002C080E090E031
:1013B0000E94232313C1CC2021F0812F9D2D9370F7
:1013C00002C080E090E00E940D2308C18D2D837043
:1013D000A1F5C11001C1412F429546954770440FB8
:1013E000440F212F2F7030E0C901042E01C0880F57
:1013F0000A94EAF714FF08C02FE030E001C0220F82
:101400004A95EAF7209501C020E03D2D36953695A6
:101410003370323069F040F440914C02313019F0B1
:10142000822B842302C0842B822B0E94D727D4C016
:10143000282B80914C028227F8CFCC2019F08D2DDB
:10144000817001C08695882309F4C6C0412F42955A
:1014500046954770440F440F212F2F7030E0C9018B
:10146000042E01C0880F0A94EAF714FF08C02FE089
:1014700030E001C0220F4A95EAF7209501C020E034
:101480003D2D369536953370323051F070F44091E1
:101490009C02313019F0822B842308C0842B05C0B4
:1014A000282B80919C02822701C0822B0E949427C6
:1014B00093C00D2D0F70CC2039F0802F0E94CB27C8
:1014C000812F0E942B2888C0812F0E942428802FE2
:1014D0000E94BE2781C0812F22EF821671F128154C
:1014E00038F090EF891659F0A1EF8A1609F15AC029
:1014F000B3EF8B1649F1E4EF8E16B1F053C0CC2058
:1015000071F0B11065C02D2D2F7181E090E001C008
:10151000880F2A95EAF790919C0289271EC0F1E076
:10152000FB1508F455C0EFCF80911F0382FD1AC050
:10153000CC2029F08D2D8F7128C0CC20D9F38D2D92
:101540008F710E94BE2744C0CC2051F081E09D2DB8
:101550009F7101C0880F9A95EAF70E94942738C0BE
:1015600080E0FBCFCC20A1F00D2D0F71802F0E94C9
:10157000CB2780911F0382FF07C028E0029FC00194
:101580001124836080932A02802F0E94CB2720C0E1
:1015900081E00E942E1381E08B15D0F482E00E943E
:1015A0002E1316C0CC2021F0BB2021F2812FA3CE18
:1015B000BB2029F2893349F49FEFA7EEB3E09150A5
:1015C000A040B040E1F700C00000812F0E94352804
:1015D00088EF890D843010F40E943923812F9D2DCE
:1015E0000E94DC27811105C01092CD011092CC0120
:1015F00011C0CC2019F0B110F7CF0CC0B110F4CF4E
:101600008091CC019091CD01029771F7812F0E94BA
:101610000129EACFAA20A9F080912A0280FD11C0F9
:10162000F70112828595859585950E94CB27C70184
:101630000E943F0580912A028595859585950E9497
:10164000BE2785E0F701DE01119601900D928A9583
:10165000E1F709811A81C8010E942B27B8010E9475
:10166000AD1010C080912A02877061F0D7011296E8
:101670008C91882339F080911F0382FF03C082E0A0
:101680000E942E13A596ECE00C942A2A9C013A9510
:1016900021153F4130F5BC0166277270AC0144272B
:1016A00054709C012227387094FF0FC090FF02C035
:1016B00080E101C080E0672B09F08062452B09F0D2
:1016C0008064232B79F080680895892F8170672BBF
:1016D00009F08260452B09F08460232B19F08860A3
:1016E000089580E00895FC018081813041F4918566
:1016F000911114C09285992389F082E00895823077
:1017000041F48185811107C08285811106C083E083
:10171000089586E0089585E0089584E00895CF93C4
:10172000DF93EC010E943528CE01805E9109089775
:1017300010F0209731F4CE010E94460B0E9424281D
:1017400005C0CE010E94460B0E941328DF91CF9165
:1017500008958FE39CE90197F1F700C000008091A4
:10176000D101823049F018F4813049F00CC0833047
:1017700031F0853021F007C08DE492E002C08DE4A5
:1017800090E00E948F0B1092D10108958FE39CE9A5
:101790000197F1F700C000008091CF01823049F03D
:1017A00018F4813049F00CC0833031F0853021F0DD
:1017B00007C08AE492E002C08AE490E00E948F0BA6
:1017C0001092CF010895CF93DF93EC01805E9109D1
:1017D000089710F0209731F4CE010E94460B0E942A
:1017E0002B2805C0CE010E94460B0E941A288C2F80
:1017F0000E946128DF91CF910895CF93DF93EC0190
:101800000E94E30BC933D10549F42FEF87EE93E033
:10181000215080409040E1F700C00000CE010E94BE
:101820008F0BDF91CF910895CF93DF93EC018881E7
:10183000833061F48DE490E00E94FD0B8DE490E034
:101840000E94FD0B8DE490E00E94FD0B88818430A6
:1018500020F08DE490E00E94FD0BDF91CF91089580
:10186000CF93DF93EC018881833061F48AE490E0C8
:101870000E94FD0B8AE490E00E94FD0B8AE490E058
:101880000E94FD0B8881843020F08AE490E00E9461
:10189000FD0BDF91CF9108950E94730B8093D101CE
:1018A000823049F018F4813091F00895833031F09E
:1018B000853049F008958DE492E00BC08DE490E00E
:1018C0000E94E30B04C08DE490E00E94FD0B8DE4C8
:1018D00090E00E94E30B08950E94730B8093CF0168
:1018E000823049F018F4813091F00895833031F05E
:1018F000853049F008958AE492E00BC08AE490E0D4
:101900000E94E30B04C08AE490E00E94FD0B8AE48D
:1019100090E00E94E30B0895A7E1B0E0E2E9FCE06B
:101920000C94172A4B8B5C8B6D8B7E8B8F8B2E8947
:101930003F892115310531F05F3F31F481E04F3FA0
:1019400019F403C081E001C080E080FD09C08091EE
:10195000CC019091CD0101969093CD018093CC0163
:1019600061111092120386E0FE013D96DF01982F6F
:101970001D929A95E9F74D875E876F87398B288B83
:10198000DE01179601900D928A95E1F7CE01079638
:101990000E94DA1381113EC086E0FE013796DE0117
:1019A000119601900D928A95E1F7FF81E8856A858D
:1019B0007B856115710531F0EF3F31F481E0FF3F28
:1019C00019F403C081E001C080E080FD23C02091B4
:1019D000F80130E0C90101968770992740912902EA
:1019E00050E08417950779F1F983EA837D836C834E
:1019F00096E0929FD001939FB00D1124A750BE4F47
:101A0000FE01319601900D929A95E1F78093F801CD
:101A10000E94671316E0809129029091F8018917BE
:101A200009F1189FC001112487509E4F0E94DA13BC
:101A30008823C1F08091290290E001968770992750
:101A400080932902E8CF109256020E94FF2710923D
:101A5000F80110922902E2EFF1E086E0DF011D9229
:101A60008A95E9F76796E3E00C94332A982F9295CC
:101A70009F7019F0892F24E001C020E0982F9695DF
:101A8000969511F02E5F892F982F969509F02F5F6C
:101A9000822F0895A0E0B0E0E0E5FDE00C94102A6C
:101AA000EC018AE0A82EFE012491222309F498C0BB
:101AB000213009F03DC031968491813021F4229685
:101AC000FE01849187C0823031F42296FE01849118
:101AD0000E94612883C0833031F42296FE018491F4
:101AE0000E9435287BC0843009F077C02296FE0121
:101AF000249180E090E030E0205331092A30310514
:101B000060F4A89EA001A99E500D1124C901840F64
:101B1000951F2196FE012491EECF009709F45EC037
:101B2000EFE9FFE03197F1F700C000000197F5CF32
:101B3000E22FF0E0EE57FE4FB490822F8695869507
:101B4000869590E0FC01EE58FE4FE4902770F12C52
:101B5000022E02C0F594E7940A94E2F7F1E0EF2236
:101B6000FF24FC01EE59FE4FC490D12C022E02C07E
:101B7000D594C7940A94E2F731E0C322DD24FC0136
:101B8000EE5AFE4F049110E002C0159507952A9574
:101B9000E2F701701127E114F10419F081EE0E94BF
:101BA0006128C114D10419F086EE0E9461288B2DA2
:101BB0000E940129C114D10419F086EE0E94352833
:101BC000E114F10419F081EE0E9435280115110588
:101BD00029F08CE20E94012901C0EF01219663CF18
:101BE000CDB7DEB7EAE00C942C2A109256020E9480
:101BF000FF272FEF84E39CE0215080409040E1F7E5
:101C000000C000009AE088E10FB6F894A895809390
:101C100060000FBE90936000FFCFCF93C82F0E944B
:101C2000360D56985E9825982D9826982E982798C8
:101C30002F9890E0FC013197E730F10518F5EE5947
:101C4000FF4F0C94782B259A2D9A33C0269A2E9A02
:101C50003EC0279A2F9A49C0259A2D9A269A2E9AE5
:101C600052C0259A2D9A279A2F9A5BC0269A2E9AAF
:101C7000279A2F9A64C0259A2D9A269A2E9A279AE7
:101C80002F9A6DC08730910508F069C0FC01E759B3
:101C9000FF4F0C94782B8091CB01811188C00E945A
:101CA000C02681E00E94BC2620E04FEB62EE86E871
:101CB00053C08091CB0181117AC00E94C02681E07F
:101CC0000E94BC2620E04FEF6FEF8CEB45C0809167
:101CD000CB0181116CC00E94C02681E00E94BC260D
:101CE00020E04FEF6FEF88E937C08091CB01811181
:101CF0005EC00E94C02681E00E94BC2620E04CEC21
:101D00006AED83EB29C08091CB01811150C00E9404
:101D1000C02681E00E94BC2620E04CEC6AED8CEAF3
:101D20001BC08091CB01811142C00E94C02681E07E
:101D30000E94BC2620E04CEC6AED82E30DC080914D
:101D4000CB01811134C00E94C02681E00E94BC26D4
:101D500020E04FEF6FEF80E00E94AA2528C080911D
:101D6000CB01811124C088E090E00E94B32A6093E7
:101D70000A0370930B0380930C0390930D03862F3B
:101D800060FF13C0816080930A0386950E94C92674
:101D900080910A0386950E94C92621E040910D0397
:101DA00060910C0380910B03D7CF0E94DC248C2F11
:101DB000CF91089580E290E090934A018093490189
:101DC0008091230381110EC00E94202981E080931D
:101DD00023032FEF83ED90E3215080409040E1F703
:101DE00000C0000060E570E080E40E942629909326
:101DF0004A0180934901892B09F04EC060E570E0EB
:101E000080E00E949B2990934A0180934901892B8D
:101E100009F042C060E570E080E00E949B29909349
:101E20004A0180934901892BB9F560E570E08FE3A1
:101E30000E949B2990934A0180934901892B61F567
:101E40000E94F02960E570E080E40E9426299093CA
:101E50004A0180934901892BF9F460E570E08CE038
:101E60000E949B2990934A0180934901892BA1F4F8
:101E700060E570E080E00E949B2990934A01809386
:101E80004901892B49F460E570E08FE30E949B29AA
:101E900090934A01809349010E94F0298091490161
:101EA0000895CF93DF9356985E9825982D9826989D
:101EB0002E9827982F98C8E8D0E08FEF90E099836C
:101EC0008883AAE8B0E011969C938E93ECE8F0E04A
:101ED00091838083259A2D9A2FEF80E792E02150FD
:101EE00080409040E1F700C00000269A2E9A2FEF24
:101EF00080E792E0215080409040E1F700C0000070
:101F0000279A2F9A2FEF80E792E02150804090404F
:101F1000E1F700C0000025982D982FEF80E792E0B0
:101F2000215080409040E1F700C0000026982E9894
:101F30002FEF80E792E0215080409040E1F700C011
:101F4000000027982F988091890287702FEF829F39
:101F5000C001112495958795959587959927998323
:101F6000888311969C938E939183808356985E9874
:101F700025982D9826982E9827982F98DF91CF9105
:101F80000895CF93E82F873080F580914901909193
:101F90004A01892B09F047C0CE2F60E570E080E44C
:101FA0000E94262990934A0180934901892BD1F4FC
:101FB00060E570E082E10E949B2990934A01809342
:101FC0004901892B79F481E090E001C0880FCA951E
:101FD000EAF760E570E080950E949B2990934A01A2
:101FE000809349010E94F0291EC090E0FC013797C0
:101FF000E730F105C0F4E059FF4F0C94782B209A9C
:10200000289811C0219A29980EC0229A2A980BC0AC
:10201000239A2B9808C0529A5A9805C0539A5B98F5
:1020200002C03E9A4698CF9108952098289821980A
:10203000299822982A9823982B9852985A9853981E
:102040005B983E9846980895CF93873040F58091ED
:10205000490190914A01892B59F560E570E081E4CE
:102060000E94262990934A0180934901892B11F0FF
:10207000C0E011C080E590E00E94CB2997FF05C029
:1020800090934A0180934901F3CFC82FC0951092D5
:102090004A01109249010E94F0298C2F0AC09FB179
:1020A0008FB1807F869586959370892B809501C02E
:1020B00080E0CF9108958098889A8198899A849831
:1020C0008C9A85988D9A86988E9A87988F9A08957B
:1020D00080E0089590911E0392FF0DC0282F287173
:1020E000283019F4877F846006C0282F247124309B
:1020F00011F48B7F886093FF0DC0282F2871283141
:1021000019F4877E846106C0282F2471243111F4CC
:102110008B7E886120911F0320FF0DC0382F3871FE
:10212000383019F4877F816006C0382F3171313023
:1021300011F48E7F886021FF0DC0282F287128316F
:1021400019F4877E816106C0282F2171213111F495
:102150008E7E886194FD877E08957E30A0F466307F
:1021600090F494E5899FF001112486E0789FE00DBA
:10217000F11D1124E60FF11DEE0FFF1FEE5FFD4F65
:1021800085919491089580E090E00895CF93DF9336
:102190008238910569F1B0F48133910509F46FC07B
:1021A00048F48932910509F465C08A32910509F431
:1021B0006BC08AC08533910509F457C089339105F6
:1021C000B9F082C0833E910571F138F4803E9105EB
:1021D000B1F0823E910511F177C0863E9105B9F1CB
:1021E000873E9105C9F1843E910509F06DC024C078
:1021F00020911E0320FD53C021FD51C065C0809178
:102200001E0380FD46C080911F0380FF48C080915F
:102210001E0384FD3FC183EE90E03EC180911E030A
:1022200082FF3AC0F4CF80911E0382FD35C08091B9
:102230001F0380FD34C0EBCF80911F0381FF35C0A9
:1022400080911E0384FD26C187EE90E025C1809118
:102250001E0383FF27C0F4CF80911E0383FD22C09D
:1022600080911F0381FD21C0EBCF80911E0385FD6E
:102270001FC021C080911E0385FD1DC019C0809123
:102280001E0386FD1BC01DC080911E0386FD19C064
:1022900015C089E390E000C182EE90E0FDC080EEC1
:1022A00090E0FAC086EE90E0F7C084EE90E0F4C0D3
:1022B00089E290E0F1C085E390E0EEC08AE290E030
:1022C000EBC081E390E0E8C0811532E5930708F0A8
:1022D00069C0811541E5940728F0982F8827816F00
:1022E000906ADAC0883E910568F5803E910508F055
:1022F000D3C0883A9105B8F4853A910548F0855ADB
:10230000E82FF0E0EA5AFE4F808190E09064C4C06C
:102310008130910509F4BBC008F4BCC0843091053C
:1023200008F4B8C0B9C08F3B910508F0B3C0885A13
:10233000E82FF0E0EE0FFF1FE75AFE4F80819181FA
:102340009464AAC0811520E59207F0F09C0174E026
:10235000369527957A95E1F7922F9370482F437021
:1023600021E030E002C0220F331F4A95E2F73C68BB
:10237000392B8F70982F9695969540E2949FC001C7
:102380001124822B932B88C0811530E4930718F019
:102390009F70906A81C09C013A9521153F4108F4D5
:1023A0007BC078C0EC01C11586E5D807E8F5C115FA
:1023B00025E5D20748F08C2F0E946A108F7190E0BB
:1023C000982F8827906268C0C11534E5D30728F09C
:1023D0009C2F8827846F906A5FC0AE014370552799
:1023E0002C2F26952695C115D34578F481E090E0F1
:1023F00002C0880F991F4A95E2F740E2249F90019E
:102400001124822B932B9C6847C081E090E002C08E
:10241000880F991F4A95E2F740E2249F900111240A
:10242000822B932B9A6838C0C1152AE5D207F8F49D
:10243000C11539E5D30790F08C2F8F700E946A1078
:1024400094E0D695C7959A95E1F7CF70D0E0DC2F50
:10245000CC27D0699E01282BC9011EC0C11548E5B3
:10246000D407C0F09C2F8827806F906A15C0CE01DA
:1024700090568115904270F48D2F8F710E946A10D2
:10248000282F2F71CE0199279062922B05C081E0F1
:1024900090E002C080E090E0DF91CF91089568EE77
:1024A0007EEF80E090E00E94ED2A60E082E090E024
:1024B0000E94CF2A60E083E090E00E94CF2A109231
:1024C0004C0260E084E090E00E94CF2A64E082E267
:1024D00090E00E94CF2A60E085E090E00E94CF2A41
:1024E00060E086E090E00E94CF2A6FEF87E090E006
:1024F0000E94CF2A40E050E0BA0188E090E00E94BC
:10250000E12A60E08DE090E00E94CF2A40E050E0B8
:10251000BA0188E190E00E94E12A60E087E190E062
:102520000E94CF2A40E050E0BA018CE190E00E9486
:10253000E12A60E070E080E290E00E94ED2A40E055
:1025400050E0BA0188E190E00E94E12A10928902ED
:1025500010928A0210928B0210928C0284E0809377
:1025600089024091890250918A0260918B02709198
:102570008C028FE090E00E94E12A40E050E0BA0136
:1025800083E190E00E94E12A089580914B0281113D
:1025900010924B02089580959091120389238093A5
:1025A00012030895809590915602892380935602D4
:1025B00008959091560280911203982B9093D20126
:1025C00080914B028823D9F0892B8093D20180918E
:1025D0000A01882331F080911E0387FF02C08EE13B
:1025E00001C086E0E4EDF1E090E0815028F0219117
:1025F0002223D9F39F5FF9CF91110E94C51240E2C7
:1026000050E06BE272E082ED91E00E94C72C892BD2
:1026100021F180E2E2EDF1E0ABE2B2E001900D9257
:102620008A95E1F7E0911503F09116033097A9F030
:1026300080910A01882359F080911E0387FF07C00B
:102640008091D2018093D30186E08093D2010280F1
:10265000F381E02D82ED91E00995089520912A0201
:102660008095822380932A02982F977099F430E006
:10267000482F082E000C550B2417350759F0909160
:102680001F0392FF07C08595859585950E94BE27FB
:1026900010922A020895CF93C0911F03C2FB99277D
:1026A00090F9981791F080FBC2F9C0931F036091D5
:1026B0001E0384E090E00E94CF2A6C2F82E290E01B
:1026C0000E94CF2A82E00E942E13CF91089580911C
:1026D00029029091F801891719F08F5F8770FBCF5D
:1026E00008950F931F93CF93DF938091F701829505
:1026F0008F7009F05AC08091F401882309F455C005
:10270000809129021091F8016091F2017091F3011A
:10271000C091F501D091F60191E06F3F09F090E092
:10272000292F06E0811709F440C0209721F07F3F50
:1027300021F030E003C031E001C0322F90E030FDE5
:1027400031C0089FF001099FF00D1124DF01A7504F
:10275000BE4F11963C911197371324C03C9136130C
:1027600021C012963C91129731111CC013964D91C5
:102770005C9114974C1B5D0B4538510598F4809182
:10278000F7018F7080618093F701E250FE4F8081E6
:102790008F708061808382EF91E00E943F050E94EC
:1027A000671303C001968770BDCFDF91CF911F9152
:1027B0000F910895A1E1B0E0E0EEF3E10C940F2A4F
:1027C0008C0185E0F801DE011D9601900D928A953D
:1027D000E1F7D8011296EC909091F2016091F3012B
:1027E0004091F5015091F6014115510531F06F3FCF
:1027F00031F481E09F3F19F403C081E001C080E023
:10280000B82FB1709B2E80FD23C1F801308121814A
:10281000C380D48082EFA82E81E0B82EF090F4011E
:10282000D601A41BB50BFF2009F4CFC08091F7019E
:10283000A538B10508F09AC0482F407F09F059C06B
:10284000621311C093130FC0FE2CE1100CC08F70E7
:1028500080618093F701C5010E943F058091F701D7
:10286000F801858333C1C114D10431F02F3F31F415
:1028700081E03F3F19F403C081E001C080E080FDAA
:1028800003C081E08E2502C080E090E0F82FF17057
:10289000FF2E80FF1CC0809129024091F80156E074
:1028A000841709F4F0C090E0589FF001599FF00D93
:1028B0001124E750FE4F6181261306C06081631327
:1028C00003C06281E61203C001968770E9CFFE2C37
:1028D000EE2009F4FBC08091F70181608093F7013D
:1028E00082EF91E00E943F05E2EFF1E086E0DF0138
:1028F00046C0621306C0931304C0E11002C0F80181
:1029000086C0C8010E94F727882351F1EE2041F1CB
:102910002091F701822F82958F7090E0029774F0DA
:102920008091F2019091F30198878F831986DB865D
:10293000CA862C87CE0107960E943F0586E0F801E3
:10294000A2EFB1E001900D928A95E1F70E94711318
:102950000AC06217C9F0C8010E94F72781111EC082
:10296000C8010E943F05FF24F394B0C0482F407F68
:1029700081F782EF91E00E943F0586E0D5011D922C
:102980008A95E9F7F12CA2C09313E5CFE110E3CFCC
:10299000F8018583C8010E943F0554C0EE2001F371
:1029A0002091F701822F82958F7090E0029734F288
:1029B0008091F2019091F3019A8389831B82DD82D9
:1029C000CC822E83CE010196B7CFA538B105D0F5C4
:1029D000FE2CEE2029F2621327C0931325C020910C
:1029E000F70120FD18C0822F82958F70482F50E08C
:1029F0004115510581F0F80125834F30510541F013
:102A00008F5F982F9295907F822F8F70892B85836F
:102A1000C8010E943F0586E0F801A2EFB1E00190F5
:102A20000D928A95E1F752C0C8010E94F7278111E3
:102A300085CF8091F70181608093F701C8010E94E2
:102A40003F0544C086E0D5011D928A95E9F73EC056
:102A5000EE2009F485CFC8010E94F727F82E8823BD
:102A600009F47ECF86E0F801A2EFB1E001900D926B
:102A70008A95E1F78091F2019091F3010E941E275F
:102A80000E94711323C03D872E878D859E850E94ED
:102A90001E27292F22952F70223028F49F7039F09D
:102AA000811105C00BC0243028F49F7049F4805E6A
:102AB000883020F0C8010E943F059F2CF92C06C0E9
:102AC000D80115969C91907F91F7F8CF8F2D619644
:102AD000EBE00C942B2AA0E0B0E0E1E7F5E10C94E8
:102AE000112A8091490190914A01892BB9F0809176
:102AF0004D028F5F80934D02811110C00E94DA0E4B
:102B000090E090934A0180934901892B39F40E9407
:102B1000510F81E0809348010E94EE230DE812E0FE
:102B20007801B12CC0E087E0C82ECC0E8C2F0E941B
:102B3000C10F8C2D0E94C10F8C2F0E9424108F7307
:102B4000F7019081891721F08083DD24D39401C09F
:102B5000D12C8C2D0E9424108F73F7019781891737
:102B600019F0878381E001C080E0D82ABD280E9447
:102B70001510CF5FFFEFEF1AFF0AC730A1F6C09123
:102B80005102CC23C9F10E94B02220914F02309112
:102B90005002AC01421B530B9A0190935002809358
:102BA0004F024F3F510509F020F4452B09F4A1C015
:102BB00002C02FEF30E01092510210924E02E091CD
:102BC0008702F0918802AF01425F5F4F90E030E0F2
:102BD0008081882341F0281718F010829C2F03C0B1
:102BE000821B80833C2F3196E417F50789F73093D9
:102BF000510290934E027DC0BB2009F471C00E9427
:102C0000B0229093500280934F02E0918702F0919E
:102C1000880280915102AFE9B2E09F01225F3F4FED
:102C20004EE1E80199918E015C91591731F0508184
:102C3000511103C040839C9381E031961196E217B5
:102C4000F30779F780935102209184028091530217
:102C5000909154022223C9F1892B31F425982D98A3
:102C600026982E9827982F9880915302909154027D
:102C70009170892B79F480915202882319F026985B
:102C80002E9802C0269A2E9A9091520281E08927AE
:102C90008093520280915302909154028130984760
:102CA00050F01092840280919C020E940D0E1092AE
:102CB0005402109253028091530290915402019653
:102CC000909354028093530218C0892BB1F0109254
:102CD00054021092530280919C020E940D0E0DC06E
:102CE00080E090914E02992309F4AECF81118DCFEF
:102CF00086CFB1108ACF81E0F4CF8B2DCDB7DEB770
:102D0000E9E00C942D2A80917C0287FF11C080910C
:102D1000E80082FD05C0809186028111F8CF11C0C4
:102D20008091E8008B770BC080918602882349F060
:102D30008091E80080FFF8CF8091E8008E77809343
:102D4000E8000895982F973068F59093E900981758
:102D500039F07091EC002091ED005091F00003C02B
:102D6000242F762F50E021FD02C09F5FECCF3091E1
:102D7000EB003E7F3093EB003091ED003D7F3093D0
:102D8000ED003091EB0031603093EB007093EC007C
:102D90002093ED005093F0002091EE0027FDE5CF49
:102DA00080E008958F708093E90081E0089520917C
:102DB0008202309183022617370748F061157105AA
:102DC00039F42091E8002E772093E80001C0B90182
:102DD000FC0120E06115710579F18091860288235C
:102DE000F1F18530F1F18091E80083FD3CC08091E4
:102DF000E80082FD2EC08091E80080FFEBCF20919B
:102E0000F3008091F20090E0922B6115710551F072
:102E10008830910538F421912093F10061507109B7
:102E20000196F3CF21E0089709F020E08091E800B7
:102E30008E778093E800CECF2111CFCF0AC080914A
:102E40008602882361F0853061F08091E80083FD7F
:102E50000AC08091E80082FFF2CF80E0089582E00E
:102E6000089583E0089581E008950895BC0184E009
:102E70000E9451220895BC0183E00E9451220895CE
:102E8000AAE2B0E0E6E4F7E10C94172AECE7F2E0FE
:102E900084E892E02091F10021938E179F07D1F7EB
:102EA00080917D02833009F463C030F4813071F089
:102EB000823009F49FC0B6C08A3009F48BC08B30D1
:102EC00009F46EC0893009F0ADC020C080917C0249
:102ED000813A09F0A7C08091E800877F8093E800DD
:102EE0008091800290918102892B21F460E289E532
:102EF00092E003C060E080E090E070E00E94D716AE
:102F00008091E8008B778093E8008CC080917C02F0
:102F1000813209F087C080918002909181020097F0
:102F200019F0029709F07EC08091E800877F8093B6
:102F3000E8008091E80082FD05C080918602811141
:102F4000F8CF70C02091F3008091F20090E0922BB6
:102F5000029731F48091F100813011F0863021F434
:102F60008091F100809358028091E8008B7756C0E1
:102F700080917C02813A09F055C080918002909145
:102F80008102892B09F04EC08091E800877F8093F1
:102F9000E8008091E80080FFFCCF80910A0139C0F1
:102FA00080917C028132F1F58091800290918102C2
:102FB000892BC1F58091E800877F8093E8000E940B
:102FC000831680917E0280930A01109256020E941D
:102FD000FF2728C080917C02813221F58091E80092
:102FE000877F8093E8000E94831680917F02809300
:102FF000570218C080917C02813AA1F48091E800C8
:10300000877F8093E8008091E80080FFFCCF80916B
:1030100057028093F1008091E8008E778093E8005A
:103020000E9483168091E80083FFDFC180917C02BB
:1030300090917D02492F50E04A30510508F0D5C1EA
:10304000FA01E958FF4F0C94782B803821F0823830
:1030500009F0CBC108C08091790290917A0299233E
:1030600089F082600FC0809180028F70873008F0F5
:10307000BCC18093E9008091EB0085FB882780F933
:103080001092E9009091E800977F9093E800809378
:10309000F1001092F10070C1282F2D7F09F0A5C119
:1030A000882319F0823061F0A0C180917E028130C6
:1030B00009F09BC1933009F080E080937A022EC022
:1030C00080917E0281112AC0809180028F702FEF43
:1030D000280F263008F089C18093E9002091EB0089
:1030E00020FF1CC0933021F48091EB00806214C05B
:1030F0009091EB0090619093EB0021E030E0A9010A
:1031000002C0440F551F8A95E2F74093EA001092DF
:10311000EA008091EB0088608093EB001092E90058
:103120008091E800877F8093E8000E9483165DC14C
:1031300081115BC110917E021F778091E30080783E
:10314000812B8093E3008091E800877F8093E800E3
:103150000E9483168091E80080FFFCCF8091E300FD
:1031600080688093E300111102C082E001C083E017
:10317000809386023AC18058823008F036C120918F
:103180007E0230917F022C3D53E0350779F583E0D4
:103190008A838AE289834FB7F894DE01139620E090
:1031A0003EE051E2E32FF0E050935700E49120FF1E
:1031B00003C0E295EF703F5FEF708E2F90E0EA3032
:1031C00010F0C79601C0C0968D939D932F5F243158
:1031D00049F74FBF8091E800877F8093E8006AE25B
:1031E00070E0CE0101960E94D716B4C08091800293
:1031F00090918102432F552743305105A9F068F47F
:103200004130510509F400C14230510509F0EDC0CB
:103210008BE590E0E9E6F7E04BC04132510529F13A
:103220004232510589F1E1C0C901992781309105E8
:10323000A1F058F0029709F0D8C0E6EDF7E0E4916C
:103240008E2F90E0E6EDF7E030C0E4E2F8E0E491A4
:103250008E2F90E0E4E2F8E028C0EAEFF7E0E49196
:103260008E2F90E0EAEFF7E020C08330910508F060
:10327000BCC0880F991FFC01E057FE4F0190F08100
:10328000E02D89E090E014C08330910508F0ADC0D6
:10329000FC01EE0FFF1FE657FE4F0190F081E02D7D
:1032A000DC01A957BE4F8C9190E0009709F49DC0B6
:1032B0002091E800277F2093E8002091820230913E
:1032C00083022817390708F4C90140E0009789F103
:1032D00020918602222309F43DC02530D9F12091A6
:1032E000E80023FD37C02091E80022FD2FC0209187
:1032F000E80020FFEBCF4091F3002091F20030E096
:10330000342B009759F02830310540F44491409314
:10331000F100319601972F5F3F4FF3CF41E0283006
:10332000310509F040E02091E8002E772093E80075
:10333000CDCF4111CDCF0AC080918602882351F0B4
:10334000853041F08091E80083FD04C08091E80061
:1033500082FFF2CF8091E8008B778093E80045C030
:10336000803809F042C08091E800877F8093E800B0
:1033700080917B028093F1008091E8008E77D3CE1C
:10338000811133C080917E0290917F02992702972C
:1033900064F58091E800877F8093E80010917E02B9
:1033A00010937B020E948316111106C08091E300E6
:1033B00087FD02C081E001C084E08093860242E084
:1033C00061EC81E00E94A21642E261EC84E00E947E
:1033D000A21642E261EC82E00E94A21642E260EC98
:1033E00083E00E94A216809186028091E80083FF0C
:1033F00010C08091E800877F8093E8008091EB0007
:1034000080628093EB0005C082E190E0E4ECF7E09D
:103410004FCFAA96E3E00C94332A1F920F920FB677
:103420000F9211242F933F934F935F936F937F934A
:103430008F939F93AF93BF93CF93DF93EF93FF93BC
:10344000C091E900CF708091EC00D82FD17080FD41
:10345000D0E81092E9008091F000877F8093F0001F
:1034600078940E9440171092E9008091F0008860E3
:103470008093F000CD2BCF70C093E900FF91EF91C6
:10348000DF91CF91BF91AF919F918F917F916F917C
:103490005F914F913F912F910F900FBE0F901F9012
:1034A0001895E8EDF0E080818E7F80831092E20035
:1034B0001092DA001092E100A0EEB0E08C918160F1
:1034C0008C9380818F77808319BCA7EDB0E08C91BD
:1034D0008E7F8C9380818F7E808310925502089519
:1034E000A0E0B0E0E6E7FAE10C94122AC8EDD0E0E3
:1034F00088818F7E8883E7EDF0E080818160808322
:1035000084E082BF81E08093550288818E7F88832A
:1035100002EE10E0F80110821092DA0081EEC82E5F
:10352000D12CF601108288818F778883888180680A
:10353000888388818F7D888319BC109286021092BF
:103540007B0210927A021092790290EEE92EF12C11
:10355000F70180818B7F808388818160888342E04E
:1035600060E080E00E94A216F60180818E7F808359
:10357000F801808181608083808188608083F70189
:1035800080818E7F8083888180618883CDB7DEB71C
:10359000E8E00C942E2A1F920F920FB60F9211247E
:1035A0002F933F934F935F936F937F938F939F934B
:1035B000AF93BF93EF93FF938091E10082FF09C027
:1035C0008091E20082FF05C08091E1008B7F8093B3
:1035D000E1008091DA0080FF2AC08091D80080FF4E
:1035E00026C08091DA008E7F8093DA008091D90026
:1035F00080FF18C080E189BD82E189BD09B400FE69
:10360000FDCF81E0809386028091550281110FC029
:103610000E94511A0E94701A8091E2008460809387
:10362000E20005C019BC10928602109255028091EA
:10363000E10080FF17C08091E20080FF13C08091FD
:10364000E2008E7F8093E2008091E20080618093AF
:10365000E2008091D80080628093D80019BC85E098
:10366000809386028091E10084FF30C08091E20067
:1036700084FF2CC080E189BD82E189BD09B400FED0
:10368000FDCF8091D8008F7D8093D8008091E1009C
:103690008F7E8093E1008091E2008F7E8093E20034
:1036A0008091E20081608093E20080917B02882318
:1036B00011F084E007C08091E30087FD02C081E043
:1036C00001C083E080938602809186028091E100B0
:1036D00083FF27C08091E20083FF23C08091E10037
:1036E000877F8093E10082E08093860210927B02C4
:1036F0008091E1008E7F8093E1008091E2008E7FD7
:103700008093E2008091E20080618093E20042E0D9
:1037100060E080E00E94A2168091F00088608093B3
:10372000F000FF91EF91BF91AF919F918F917F91A9
:103730006F915F914F913F912F910F900FBE0F901E
:103740001F9018952091E4003091E50095E6409196
:10375000EC00842F817040FF23C08091E80080FD41
:103760001DC080918602882399F0853099F0809160
:10377000EB0085FD11C04091E4005091E500241755
:10378000350729F3915011F09A01E1CF84E00895B3
:1037900082E0089583E0089581E0089580E008952F
:1037A0004091E80042FFDDCF0895EF92FF920F9322
:1037B0001F93CF93DF937C018B010E94A21B811189
:1037C00019C0E70101151105A1F08091E80085FD00
:1037D0000AC08091E8008E778093E8000E94A21BC7
:1037E000882381F307C089918093F100015011096A
:1037F000E9CF80E0CDB7DEB7E6E00C94302ACF9376
:1038000020918602243029F5C091E900CF703091D3
:10381000EC00232F217030FD20E8C22B22E0209302
:10382000E9002091E80020FF11C040E050E060E294
:1038300070E00E94D51B882321F010928402109220
:1038400085028091E8008E778093E800CF70C09366
:10385000E900CF910895ACE5B0E0E1E3FCE10C9420
:103860000D2A85B7806885BF85B7806885BF84B716
:10387000877F84BF0FB6F894A89580916000886117
:1038800080936000109260000FBE90E080E80FB659
:10389000F89480936100909361000FBE88E690E1F8
:1038A0009093C9018093C8010E94511A0E94701A16
:1038B0008091E20084608093E20078948091860297
:1038C0008823A1F01091E9001F709091EC00892FDE
:1038D000817090FD80E8182B1092E9008091E8003B
:1038E00083FD0E9440171F701093E90082E084BDA1
:1038F00093E095BD9AEF97BD80936E000E94DA0E1B
:1039000090E090934A01809349010E9415100E9413
:103910005B10EDE8F2E0AFE9B2E011921D9222E017
:10392000EB39F207D1F78EE090E00E94992B80935B
:10393000870290938802FC010E961192E817F9070E
:10394000E1F789EA8093800089E0809381002498E0
:103950002C983F988AB18F7C8AB96E98479A8BB120
:1039600080638BB9769A8FE090E00E94B32A6093CF
:10397000890270938A0280938B0290938C02677005
:103980008FEF689FB00111247595679575956795C0
:103990007727709389006093880070938B00609301
:1039A0008A0070938D0060938C000E94510F80E01C
:1039B00090E00E94B92A883E9E4F11F00E944F125B
:1039C00082E090E00E94AB2A8093AD0284E090E018
:1039D0000E94AB2A182F82E290E00E94AB2A212F8E
:1039E00030E0382B30931F0320931E0383E090E0D8
:1039F0000E94AB2A0E94D72780919C020E940D0E44
:103A000080919B02811135C080E090E00E94B92A2C
:103A1000883E9E4F21F00E944F120E94F52488E0BC
:103A200090E00E94B32A60930A0370930B03809383
:103A30000C0390930D036E7F71F40E94F52488E0CF
:103A400090E00E94B32A60930A0370930B03809363
:103A50000C0390930D030E94922410922B038091EB
:103A60000A0380FF03C086950E94BC2681E08093F4
:103A70009B0280919C020E940D0E8BE091E090933E
:103A8000160380931503B8E1EB2EF12C10E4D12E30
:103A900080918602853009F07DC0CC24C39400E17A
:103AA00012E180918602853009F065C0809186021E
:103AB000843009F43DC010922B0380919E02811145
:103AC00016C0C0929E0280910A03982F9170909325
:103AD0009D028E7F80930A032FEF80E792E02150B2
:103AE00080409040E1F700C000000E94EE23109259
:103AF00019030FB6F894A895E09260000FBED0921B
:103B0000600083B7817F846083BF83B7816083BF98
:103B10007894889583B78E7F83BF0FB6F894A89565
:103B200080916000886180936000109260000FBEF9
:103B300080917A02882309F4B4CF0E94DA0E90E0D3
:103B400090934A01809349010E9415100E945B10D6
:103B5000EFE9F2E0119222E0ED3AF207D9F70E9484
:103B60006B15EFE9F2E0819181114CC282E0ED3AF0
:103B7000F807C9F796CF109256020E94FF270E94BD
:103B8000392310929E0280919D0281110E94C026CD
:103B90000E946B260E946B15882359F08FB7F8940A
:103BA00040911A0350911B0360911C0370911D03F7
:103BB0008FBFAEEAB2E0EFE9F2E000E010E0302FB4
:103BC00021919D919227A1F180E0BB24B394492FCC
:103BD0004B2151F164968FAF649765963FAF65971F
:103BE0002B2181E009F480E066968FAF66970E94F2
:103BF000B0228160782F68969FAF8EAF68976496E9
:103C00004FAD649765965FAD659766966FAD6697A5
:103C100068968FAD68970E948C0CF801E255FD4FB5
:103C20008081B826B0822AC08F5FBB0C863079F6BF
:103C30000F5F1F4F0E30110509F0C1CF8FEF69964E
:103C40008FAF69976A968FAF6A976B961FAE6B9727
:103C50000E94B0228160782F6D969FAF8EAF6D97D6
:103C600069964FAD69976A965FAD6A976B966FAD2F
:103C70006B976D968FAD6D970E948C0C809117019C
:103C800090911801019641F1C12CA6E17A2E1BC03A
:103C90007A9CF0017B9CF00D1124E45EFE4F82883B
:103CA00093888114910419F4F5E88F2E912C7A9C55
:103CB00080017B9C100D1124045E1E4FF80186814B
:103CC00081110FC0C394AC2CB12C8091170190913D
:103CD00018018A159B05E4F680910F03882331F1C2
:103CE00018C0858596850E94A1228816990650F7EE
:103CF000F8018189811103C0C8010E9446237A9C82
:103D0000C0017B9C900D11248E5D9E4F0E94652307
:103D1000D9CF0E94B0222091BC023091BD02821BFB
:103D2000930B8F3F9F4710F40E94AA2380912B038F
:103D3000882309F493C080912A03E0910A03E69551
:103D4000E81BE0932603823059F4F0E0EA5CF74F79
:103D5000E4910E2F10E0EDE3AE2EE2E2BE2E59C04C
:103D6000863059F4F0E0ED5CF74FE4910E2F10E04F
:103D70007DE2A72E72E2B72E4CC0893061F4E69541
:103D8000F0E0E05DF74FE4910E2F10E069ECA62E15
:103D900061E2B62E3EC08F3061F4E695F0E0E35D5F
:103DA000F74FE4910E2F10E053E6A52E51E2B52E09
:103DB00030C0853159F4F0E0E65DF74FE4910E2F05
:103DC00010E043E1A42E41E2B42E23C08831A1F0DB
:103DD000833249F4E8E2F8E00591149133EFA32E21
:103DE00031E2B32E16C0843271F404EF11E020E604
:103DF000A22E20E2B22E0DC008E210E098E9A92E12
:103E000090E2B92E06C000ED17E08AE1A82E80E20C
:103E1000B82E80912703882361F0109227030E9417
:103E2000B0229093250380932403109229031092CB
:103E300028030E94B022E0912403F09125038E1BF9
:103E40009F0B8F3F9F4750F40E0F1F1F10932503AA
:103E50000093240384E293E0F50109950E9439233D
:103E60009091BE0289138093BE02809186028430B5
:103E700009F00ECE83E08093E9008091E80082FF94
:103E800007CE8091E80085FF22C00E94A21B81110D
:103E90001CC000E210E05E01F1E2AF0EB11C08C0F0
:103EA0008091F100F50181935F010150110969F0E2
:103EB0008091E80085FDF4CF8091E8008B778093B6
:103EC000E8000E94A21B882399F391E001C090E0D2
:103ED0008091E8008B778093E800992309F4D8CD8E
:103EE00089A18130E9F158F1823021F0843009F460
:103EF0007DC0CECD8BA19AA19093BF028093C002CA
:103F00008DA19CA19093C1028093C2028FA19EA11A
:103F10009093C3028093C40242E150E063E270E0F8
:103F2000CE018F5B9F4F0E949B2A84E0898381E0B2
:103F3000809385028EEF8A83109284020CC01982CE
:103F40008CE0E6E9F1E0DE01129601900D928A958F
:103F5000E1F78EEF8D87CE0101960E94FF1B98CD71
:103F600005EC12E00E94B423F801819391938F0134
:103F7000F2E00B3C1F07B1F781E089839091C50205
:103F80009A839091C6029B839091C7029C839091E3
:103F9000C8029D839091C9029E839091CA029F831B
:103FA0009EEF988780938402CE0101960E94FF1BAA
:103FB00042E150E063E270E0CE0101960E949B2A4C
:103FC000FE01319682E183301CF09189928B01C011
:103FD000128A815031978F3FB1F742E150E063E29E
:103FE00070E0CE0101960E94BF2A52CD80918502D9
:103FF000882309F44DCD80E00E9494278AA10E9475
:10400000CB2746CD09BD19BD09B400FEFDCF809177
:10401000D8008F7D8093D8008091E00082608093EB
:10402000E0008091E00081FDFCCF109256020E94DA
:10403000FF2737CD08950895809158020895CF93B2
:10404000DF9320910A01222339F020911E0327FFDC
:1040500003C060E224E002C068E021E02093E900B0
:104060002FEF3091E800215035FD06C035ED3A952F
:10407000F1F700002111F5CF2091E80025FF1DC0C8
:10408000EC0180910A01811105C040E050E068E038
:1040900070E003C070E040E050E0CE010E94D51B0C
:1040A0008091E8008E778093E80080E2FE01A9E528
:1040B000B2E001900D928A95E1F7DF91CF910895DA
:1040C000EF92FF920F931F93CF93DF938C01CEEC6F
:1040D000D2E0E12CF12CF8018481F7E0EF16F10435
:1040E0001CF4882339F002C0811104C09E01409164
:1040F0000D0302C09E0140E060910C0380910B0310
:104100000E9405258FEFE81AF80A24969FE0E91629
:10411000F10409F70E94EE23F801848190E00196F2
:10412000817099278483CDB7DEB7E6E00C94302AFE
:10413000A0E0B0E0EEE9F0E20C940E2AEC014C8134
:10414000042F10E09801D8010E94472B9B01AC017D
:104150000E94122B6B017C01E0E2F0E0E01BF10B0E
:10416000A5E5B0E09B01AC010E94122B4B015C0164
:104170009F01DF010E947E2B9B01AC010E941D2B41
:104180009B01AC012C0D3D1D4E1D5F1DC501B401F1
:104190000E94252B822FF22E99E2921728F093E0AD
:1041A000299F900111240DC025E530E0281B31091D
:1041B000C901880F991F280F391F37FF02C02F5FD1
:1041C0003F4F35952795122F10959EECC92E92E002
:1041D000D92E00E085E5E82EEF1801FD02C08E2DF6
:1041E00001C08F2D9601412F60910C030E9405257F
:1041F0000F5F84E0C80ED11C0F3079F70E94EE23C8
:104200008C81811102C091E003C0803219F49FEFCC
:1042100090931B0190911B01890F8C83CDB7DEB762
:10422000ECE00C942A2A0F931F93CF93DF93CEECEC
:10423000D2E0FE011182108212821382349683E052
:10424000EA30F807B9F700E010E08091CC02082EC0
:10425000000C990B0817190794F080911A01082E89
:10426000000C990B8017910754F09E0140910D03AB
:1042700060910C0380910B030E94052504C01982F4
:1042800018821A821B820F5F1F4F24960F30110570
:10429000E1F60E94EE23809119019091CC02980FD3
:1042A0009093CC0220911A01280F20931A01121624
:1042B00014F49E301CF0819580931901DF91CF9109
:1042C0001F910F910895A0E0B0E0E9E6F1E20C94AF
:1042D000112AFC01828180FF03C0DD24DA9402C030
:1042E000DD24D3940EEC12E0C0E0D0E02FE0B22E3B
:1042F000F801118210821282138294E0E92EF12CCF
:10430000C12C8091CB028C0D80312CF06B2D0E9442
:10431000562B892F02C087FD815F082E000C990B58
:10432000C817D90791F480910D038E9DA0018F9D30
:10433000500D1124559547955595479598016091D5
:104340000C0380910B030E940525CD0CF1E0EF1AC0
:10435000F108B9F621960C5F1F4FCF30D10541F619
:104360000E94EE238091CB0291E0D91206C0811108
:1043700002C08EE007C0815005C090E00196BE01EA
:104380000E94642B8093CB02CDB7DEB7E9E00C949A
:104390002D2AEF92FF921F93CF93DF93EC018EECC7
:1043A000E82E82E0F82E10E08C81970140910D03F9
:1043B00060910C03810F0E9405251F5E84E0E80ECA
:1043C000F11C1F3F89F70E94EE239A818C8190FF98
:1043D00002C08F5F01C081508C83DF91CF911F910C
:1043E000FF90EF900895A4E0B0E0E9EFF1E20C94C3
:1043F000162A8C018091CD0281110AC09E012F5F87
:104400003F4F4FEF6FEF0E9405258A818093CD02C9
:10441000F8018481813051F028F0823061F44091BC
:10442000CD020AC08091CD0240E007C06091CD026C
:1044300040E080E003C040E080E060E00E94802433
:10444000F801848190E0019663E070E00E94642BA3
:1044500084832496E4E00C94322ACF93DF93EC011A
:10446000EAE0F3E0438162818C810E9492258C8195
:104470008F5F8C83DF91CF910895CF93DF93EC0111
:10448000EC81F0E0E65CF74F4491EAE0F3E0628112
:1044900081810E9492258C818F5F8C83DF91CF91E7
:1044A00008958093200370932203609321038091E9
:1044B00086028430F9F48093E9008FEF9091E80050
:1044C000815095FD06C095ED9A95F1F70000811198
:1044D000F5CF8091E80085FF0DC040E050E063E03B
:1044E00070E080E293E00E94D51B8091E8008E7717
:1044F0008093E800089578941F920F920FB60F9260
:1045000011248F939F93AF93BF9380911A0390913F
:104510001B03A0911C03B0911D030196A11DB11DA9
:1045200080931A0390931B03A0931C03B0931D0365
:10453000BF91AF919F918F910F900FBE0F901F90E1
:1045400018959C014FB7F89480911A0390911B0322
:10455000A0911C03B0911D034FBF821B930B0895C4
:104560002FB7F89480911A0390911B03A0911C031C
:10457000B0911D032FBF08951F920F920FB60F9297
:1045800011248F939F93AF93BF938091190381114F
:1045900013C080911A0390911B03A0911C03B0914A
:1045A0001D034196A11DB11D80931A0390931B0317
:1045B000A0931C03B0931D03BF91AF919F918F9166
:1045C0000F900FBE0F901F90189520910A01222383
:1045D000C9F020911E0327FF15C0262F269526958A
:1045E00026952E31C8F4FC01E20FF11D677081E0C1
:1045F00090E001C0880F6A95EAF78095928189233F
:1046000082830895FC0106962281621301C0128202
:104610003196E817F907C1F70895209117033091F3
:1046200018032817390771F0909318038093170324
:10463000E0911503F0911603309721F00084F18585
:10464000E02D099508952091130330911403281744
:10465000390771F09093140380931303E0911503CD
:10466000F0911603309721F00680F781E02D09952F
:104670000895E0911503F0911603309729F0019009
:10468000F081E02D0995089580E00895CF93DF93A0
:10469000EC0181E0898B909156028F81892B809368
:1046A0005602909112038885892B809312030E94F1
:1046B000D912EA81FB81CE010696309719F06C89F8
:1046C0007D890995DF91CF910895EF92FF920F9325
:1046D0001F93CF93DF93FC012285211136C0EC019B
:1046E000E380F480F7E5FF1A26E12E9DC0012F9D9F
:1046F000900D1124DC01A45EBE4F1496ED91FC9147
:1047000015978E5D9E4F309729F054966D917C9150
:104710005597099586E18E9D80018F9D100D11247E
:10472000045E1E4FF80187810E94D212F801808535
:104730000E94CB120E94D912188219861B861E82F3
:104740001D821092110310921003CDB7DEB7E6E080
:104750000C94302A80910F03882329F082E20E9472
:10476000132810920F030895CF93DF930E948B2A92
:1047700066E070E00E94642BD82F0E948B2A6EE0C6
:1047800070E00E94642BC82F6D2F782F80E00E946C
:10479000AD100497C59718F48D2F9C2F02C00E946E
:1047A000B423DF91CF91089590910A0390FF04C044
:1047B0009695981748F003C0811106C090E09617AF
:1047C00018F40E94D72608950E94C92608958823C8
:1047D00011F0FA0101C0FB0109950895EF92FF92D3
:1047E0000F931F93CF93DF9380910A0380FF08C03C
:1047F0000EEC12E08AE0E82E83E0F82EF8011BC0F0
:10480000EEECF2E08AE093E01182108212821382D1
:1048100034968E179F07C1F7EBCF381708F4832F14
:104820008383381B3183281B2083981B9283349603
:10483000EE16FF0641F0928120813181892F2917E0
:1048400060F7822FEACF80912303882381F1809142
:10485000490190914A01892B51F5809148018823A3
:1048600031F165E070E084E80E942629892B19F077
:10487000109248011AC0CEECD2E065E070E0888169
:104880000E949B2965E070E089810E949B2965E078
:1048900070E08A810E949B2965E070E08B810E9414
:1048A0009B292496EC16FD0641F70E94F029579AA1
:1048B0008BB18F779BB190682FB7F894E016F10613
:1048C00099F0F80131918F0148E09BB9000000C0D8
:1048D00037FF8BB9330F000000C000C000C08BB998
:1048E00000C04A9591F7EACF2FBF8FE594E001977A
:1048F000F1F700C00000CDB7DEB7E6E00C94302A37
:1049000090910A0390FF0DC0EEECF2E0818360838A
:1049100042831382349693E0EA30F907B9F70E9494
:10492000EE23089580910A03282F269530E0211563
:10493000310519F48170826005C02532310524F0FB
:104940008170886480930A030895CF92DF92EF927A
:10495000FF926B017C010E949224B701A60188E0BE
:1049600090E00E94E12AFF90EF90DF90CF900895B1
:1049700080910E03882319F0815080930E0360917B
:104980000A0370910B0380910C0390910D030E9418
:10499000A524089580910E03833018F48F5F8093CF
:1049A0000E0360910A0370910B0380910C039091A8
:1049B0000D030E94A5240895EAE0F3E080818E7F34
:1049C000808360817181828193810E94A5241092ED
:1049D0002B032FEF80E792E0215080409040E1F7D9
:1049E00000C000000E94EE230895EAE0F3E083E0B7
:1049F000808311828FEF828383831482608171812F
:104A0000828193810E94A5240895A0E0B0E0EBE0AC
:104A1000F5E20C94102AE82EF62EE901E42FF0E0DE
:104A2000611106C0E65CF64FE4914E2F2E2F71C047
:104A3000062F10E0E65CF64F4491F42FC42ED12CE3
:104A400026E0829FC00111242FEF30E0B9010E94BF
:104A5000F4295BEA5603C001579F900D11248E0D77
:104A6000911D8E0D911D582F550F580FD901A01B68
:104A7000B10BAC9DC001AD9D900DBC9D900D11245E
:104A8000E92FF59ED0011124AB2FBB277901EA1A3B
:104A9000FB0AEC9CD001ED9CB00DFC9CB00D1124E8
:104AA0005901A51AB108A09E7001A19EF00CB09EFC
:104AB000F00C1124EF2CFF242E193F092C9D8001AE
:104AC0002D9D100D3C9D100D1124212F623071057C
:104AD00091F048F461157105E1F061307105B9F4A8
:104AE000242F4B2F16C06430710569F040F06630FA
:104AF000710579F00CC0242F492FE12F0AC0492FEE
:104B0000EF2F2B2F06C0292FE42F412F02C0292F72
:104B1000EB2F49832883EA831B82CDB7DEB7EAE017
:104B20000C942C2AA4E0B0E0E8E9F5E20C94182AF1
:104B300090910A0390FF0AC09E012F5F3F4F0E9491
:104B400005254B8169818A810E9480242496E2E0B8
:104B50000C94342AA4E0B0E0E0EBF5E20C940B2ACC
:104B6000F82E762EE42E622E90910A0390FF67C0F5
:104B7000E92FE695AE2FB0E0AE55BE4F8C918093F5
:104B80002A039E7F923061F49E012F5F3F4F8F2D4D
:104B90000E9405254B8169818A810E9480243DC045
:104BA000823019F4E0900D0338C0863019F4F0908B
:104BB0000B0333C08930D9F3893179F5E9518E2F50
:104BC0008170582EE695F0E0E65CF54FE4910E2FEB
:104BD00010E08EECC82E82E0D82EA12CB12C9FE0E4
:104BE000892E912CC501B4010E94F4298F2D5110FA
:104BF00002C0860F01C0861B96014E2D672D0E94B4
:104C00000525A00EB11E84E0C80ED11C8AE0C8168E
:104C100083E0D80639F70E94EE23F0920B037092DE
:104C20000C03E0920D03662051F060910A0370912D
:104C30000B0380910C0390910D030E94A5242496F0
:104C4000EFE00C94272AEAE0F3E043812CE0421BDA
:104C500008F440E021E0628181810E94AA25089544
:104C6000EAE0F3E043812CE0420F08F44FEF21E04B
:104C7000628181810E94AA250895EAE0F3E06281C1
:104C80002FEF621B08F460E021E0438181810E94E4
:104C9000AA250895EAE0F3E062812FEF620F08F49D
:104CA0006FEF21E0438181810E94AA250895EAE007
:104CB000F3E0818121E0438162818C500E94AA252A
:104CC0000895EAE0F3E0818121E043816281845F1D
:104CD0000E94AA25089560910A03669570E04BE052
:104CE00050E08BE491E00E94BA2C892B19F481E00A
:104CF00080932B030E94B02290932503809324037A
:104D0000089590910A0390FF36C09170811102C0FE
:104D1000926006C0853210F0986402C0880F982B0C
:104D200090930A03662351F060910A0370910B037C
:104D300080910C0390910D030E94A52460910A03B9
:104D4000669570E04BE050E08BE491E00E94BA2C55
:104D5000892B19F010922B0302C00E946B2681E070
:104D60008093270320E040910D0360910C03809114
:104D70000B030E94AA25089560E00E9481260895F1
:104D8000EAE0F3E080818160808386950E94BC2602
:104D9000089561E00E948126089580910A03869516
:104DA000815009F484E261E00E9481260895809197
:104DB0000A0386958F5F853208F081E061E00E94EA
:104DC0008126089580E090E00E94232380E090E017
:104DD0000E940D23109212030E94D9120895CF92BF
:104DE000DF92FF920F931F93CF93DF936C0100919B
:104DF0009C0280914C02082BC7E0D0E010E0C80173
:104E00000C2E02C0959587950A94E2F780FD04C0A8
:104E10002197A8F7F12C09C0FC2EB6018C2F0E9417
:104E2000AD100E94C610019799F38F2DDF91CF919D
:104E30001F910F91FF90DF90CF900895CF93DF9354
:104E4000EC010E94EF26BE010E94AD100E94C61028
:104E5000DF91CF910895292F9E3078F5863068F53F
:104E600090E036E0239F800D911D1124682F67701C
:104E700023E0969587952A95E1F7FC01EE0FFF1F39
:104E8000E80FF91FE45DFC4F40E050E080E0219125
:104E900030E0062E02C0369527950A94E2F721707D
:104EA0003327042E01C0220F0A94EAF7822B4F5FAA
:104EB0005F4F4330510559F7089580E00895292F39
:104EC0009E3088F5863078F590E036E0239F800D9F
:104ED000911D1124282F277051E001C0550F2A95EC
:104EE000EAF723E0969587952A95E1F7FC01EE0F06
:104EF000FF1FE80FF91FE45DFC4F20E030E070E099
:104F00004081CB01022E02C0969587950A94E2F764
:104F10008170819584278523842781932F5F3F4F5C
:104F20002330310569F70895A0E2B0E0EAE9F7E23D
:104F30000C94172A0E940D0E182F80918502882349
:104F4000A9F02FEF80E792E0215080409040E1F7F8
:104F500000C0000085E08983812F0E94360D8A837E
:104F60008EEF8B83CE0101960E94FF1B10939C0253
:104F70000E94E226A096E3E00C94332A21E030E080
:104F800001C0220F8A95EAF7209580919C02822326
:104F90000E949427089521E030E001C0220F8A95F5
:104FA000EAF780919C02822B0E94942708958093B7
:104FB0004C020E94E226089592959F70963079F0F7
:104FC00010F4925001C09A50923068F4803F69F01A
:104FD00018F4883E40F409C0843F29F406C0883E96
:104FE00020F0813F11F080E0089581E00895FC01F8
:104FF000808191810E941E270E94DC270895809164
:105000000A01882331F080911E0387FF02C08EE1E0
:1050100001C086E0E4EDF1E0DF011D928A95E9F739
:105020000E94E2260895882321F00E94CB120E945C
:10503000D9120895882339F090911203892B809317
:1050400012030E94D9120895882321F00E94D212DF
:105050000E94D9120895882339F090915602892B25
:10506000809356020E94D9120895882349F1682F2F
:105070008CEF860F813A28F482ED91E00E94E522C0
:105080000CC080E2860F883058F4677081E001C060
:10509000880F6A95EAF70E94D2120E94D9120895E9
:1050A0008BE5860F833028F480E090E00E94232374
:1050B0000895685A673120F480E090E00E940D2343
:1050C0000895CF93882309F49AC0C82F8CEF8C0FD2
:1050D000813A08F05EC080910A018823E1F0809156
:1050E0001E0387FF18C0EC2FE695E695E695F0E0E5
:1050F000EE52FE4F8281282F30E04C2F477081E026
:1051000090E002C0880F991F4A95E2F7822393230B
:10511000892B59F411C0E4EDF1E08191C81729F011
:1051200081E0EA3DF807C9F707C06C2F82ED91E0F6
:105130000E94E5220E94D91280910A018823C9F0B9
:1051400080911E0387FF15C0AC2FA695A695A69546
:10515000B0E0AE52BE4FC77081E090E001C0880F52
:10516000CA95EAF712969C911297892B12968C9306
:1051700020C0A4EDB1E0EFEF80E09D91C917C9F028
:10518000EF3F19F4911101C0E82F8F5F8630A9F726
:105190002DC080E28C0F883078F4C77081E090E0F9
:1051A00001C0880FCA95EAF790915602892B809327
:1051B00056020E94D91223C0EBE5EC0FE33040F415
:1051C000F0E0EA5AFE4F808190E00E94232317C04E
:1051D000C85AC731A0F4EC2FF0E0EE0FFF1FE75ADA
:1051E000FE4F808191810E940D2309C0EF3F09F39A
:1051F0000E2E000CFF0BEE52FE4FC283DACFCF9182
:1052000008951F93CF93DF93182F893319F0C0E0CF
:10521000D0E002C0C0E5D0E0812F0E946128209735
:1052200041F08FE99FE00197F1F700C0000021975E
:10523000F6CF812F0E943528DF91CF911F910895DD
:105240001092B9008CE08093B8000895A0E0B0E01F
:10525000ECE2F9E20C940F2AB82EEB010E94B02286
:105260006C01C431D10558F0CF3F8FEFD80759F00A
:10527000CE0164E170E00E94F4297B0107C0EE24B6
:10528000E394F12C03C025E0E22EF12C84E8A82E53
:1052900094EA992E1092BC009092BC000E94B02219
:1052A0008C018091BC0087FD08C00E94B022801B49
:1052B000910B8E159F05A8F32AC08091B900887FB5
:1052C000883041F08091B900887F803119F00FEF6C
:1052D0001FEF1FC0B092BB00A092BC000E94B02282
:1052E0008C018091BC0087FD08C00E94B022801B09
:1052F000910B8E159F05A8F30AC08091B900887F95
:10530000883111F0803419F700E010E00EC00EEF84
:105310001FEFCF3F8FEFD80709F4BCCFC6010E9423
:10532000A1228C179D0708F4B5CFC801CDB7DEB711
:10533000EBE00C942B2A0F931F93CF93DF93EB0199
:105340008093BB0084E88093BC000E94B0228C0153
:105350008091BC0087FD0EC0CF3F8FEFD807C1F30F
:105360000E94B022801B910B8C179D0788F38EEF53
:105370009FEF0CC02091B900287F81E090E0283297
:1053800011F480E090E0919581959109DF91CF91A2
:105390001F910F9108950F931F93CF93DF93EC010B
:1053A00084E88093BC000E94B0228C018091BC00F4
:1053B00087FD0EC0CF3F8FEFD807C1F30E94B02208
:1053C000801B910B8C179D0788F38EEF9FEF03C016
:1053D0008091BB0090E0DF91CF911F910F910895D4
:1053E00084E98093BC000895AA1BBB1B51E107C050
:1053F000AA1FBB1FA617B70710F0A61BB70B881F65
:10540000991F5A95A9F780959095BC01CD010895F3
:105410002F923F924F925F926F927F928F929F92C4
:10542000AF92BF92CF92DF92EF92FF920F931F93B2
:10543000CF93DF93CDB7DEB7CA1BDB0B0FB6F89463
:10544000DEBF0FBECDBF09942A88398848885F84A3
:105450006E847D848C849B84AA84B984C884DF8014
:10546000EE80FD800C811B81AA81B981CE0FD11DF8
:105470000FB6F894DEBF0FBECDBFED0108958F9239
:105480009F92AF92BF92CF92DF92EF92FF92CF9313
:10549000DF93EC01688179818A819B8161157105B7
:1054A0008105910521F464E279ED8BE597E02DE12A
:1054B00033EF41E050E00E94F32A49015A019B0179
:1054C000AC01A7EAB1E40E94122B6B017C01ACEEA7
:1054D000B4EFA50194010E94202BDC01CB018C0DBF
:1054E0009D1DAE1DBF1DB7FF03C00197A109B048A8
:1054F00088839983AA83BB839F77DF91CF91FF90A5
:10550000EF90DF90CF90BF90AF909F908F900895D5
:105510000E943F2A089580E091E00E943F2A08956A
:10552000A0E0B0E08093000190930101A0930201FC
:10553000B09303010895DC01CB01FC01F999FECF82
:1055400006C0F2BDE1BDF89A319600B40D9241500B
:105550005040B8F70895F999FECF92BD81BDF89AF1
:10556000992780B50895A6E1B0E044E050E00C949E
:105570009D2AA8E1B0E042E050E00C949D2ADC01B5
:10558000A40FB51F4150504048F0CB01840F951F28
:105590002E910E94D02A41505040D0F70895262FD6
:1055A000F999FECF92BD81BDF89A019700B4021619
:1055B00039F01FBA20BD0FB6F894FA9AF99A0FBEC7
:1055C00008950396272F0E94D02A0E94CF2A252FC4
:1055D0000E94D02A242F0C94D02A0196272F0E94B3
:1055E000D02A0C94CF2A052E97FB1EF400940E941B
:1055F0000A2B57FD07D00E94252B07FC03D04EF441
:105600000C940A2B50954095309521953F4F4F4F64
:105610005F4F089590958095709561957F4F8F4F5E
:105620009F4F08950E94472BA59F900DB49F900D0A
:10563000A49F800D911D11240895B7FF0C94122B87
:105640000E94122B821B930B0895A1E21A2EAA1B13
:10565000BB1BFD010DC0AA1FBB1FEE1FFF1FA21722
:10566000B307E407F50720F0A21BB30BE40BF50B1F
:10567000661F771F881F991F1A9469F760957095A8
:10568000809590959B01AC01BD01CF010895A29F2B
:10569000B001B39FC001A39F700D811D1124911D06
:1056A000B29F700D811D1124911D089587FB082E56
:1056B000062687FD819567FD61950E948D2B0EF46E
:1056C000919507FC8195089597FB072E16F4009499
:1056D00007D077FD09D00E94F42907FC05D03EF4DD
:1056E000909581959F4F0895709561957F4F08958E
:1056F000EE0FFF1F0590F491E02D09940E94472BB7
:10570000332312F48A1B9B0B0C94882B0E94472B8B
:10571000B7FF0895821B930B0895991B79E004C08D
:10572000991F961708F0961B881F7A95C9F78095E0
:1057300008950F931F93CF93DF938230910510F458
:1057400082E090E0E0914F03F091500320E030E0E0
:10575000A0E0B0E0309719F14081518102811381BE
:1057600048175907C8F08417950769F4109731F066
:1057700012960C93129713961C9327C000934F0315
:105780001093500322C02115310519F04217530719
:1057900018F49A01BD01EF01DF01F801DBCF2115FB
:1057A0003105F9F0281B390B2430310580F48A814A
:1057B0009B816115710521F0FB019383828304C0F5
:1057C0009093500380934F03FE01329644C0FE0134
:1057D000E20FF31F8193919322503109398328837B
:1057E0003AC020914D0330914E03232B41F4209178
:1057F00006013091070130934E0320934D03209111
:105800000401309105012115310541F42DB73EB752
:105810004091080150910901241B350BE0914D0383
:10582000F0914E03E217F307A0F42E1B3F0B28174D
:10583000390778F0AC014E5F5F4F2417350748F009
:105840004E0F5F1F50934E0340934D0381939193EE
:1058500002C0E0E0F0E0CF01DF91CF911F910F9106
:105860000895CF93DF93009709F481C0FC0132972C
:1058700013821282A0914F03B0915003109781F4CC
:1058800020813181820F931F20914D0330914E036F
:105890002817390751F5F0934E03E0934D0367C085
:1058A000ED0120E030E0CE17DF0740F44A815B8154
:1058B0009E0141155105F1F0EA01F5CFD383C28372
:1058C00040815181840F951FC817D90759F48881E9
:1058D0009981840F951F0296918380838A819B8191
:1058E000938382832115310529F4F0935003E093CB
:1058F0004F033DC0E901FB83EA8349915991C40FED
:10590000D51FEC17FD0761F480819181840F951FED
:105910000296E90199838883828193819B838A839C
:10592000E0E0F0E012968D919C911397009719F0AA
:10593000FD01DC01F7CF8D919C9111979D012E5FA8
:105940003F4F820F931F20914D0330914E03281734
:10595000390769F4309729F41092500310924F03DD
:1059600002C013821282B0934E03A0934D03DF91C5
:10597000CF910895FC014150504030F0019006163F
:10598000D1F73197CF010895882799270895FB0112
:10599000DC0104C08D910190801921F441505040E8
:0C59A000C8F7881B990B0895F894FFCFFE
:1059AC0001000000000051032000011C201F201BDF
:1059BC00203B1736173517FFFF010201300C6C0C1A
:1059CC00C60B0000000000000000000000000000FA
:1059DC000000140C4C0CA90B00000000000000008F
:1059EC00000000000000000001200001191A1B1C1F
:1059FC001D1E1F202122818283E200E900EA00B5EE
:105A0C0000B600B700CD008301CC008A019201944E
:105A1C00012102230224022502260227022A02B3B4
:105A2C0000B4006F00700040226D290707079A062A
:105A3C007B079407B40757724B59342F7A426E5038
:105A4C006A00000102020202060606090909090998
:105A5C00090F0F0F0F0F0F15151518191919191903
:085A6C0019191919192324006E
:00000001FF
