:100000000C9425050C9442050C9442050C94420571
:100010000C9442050C9442050C9442050C94420544
:100020000C9442050C9442050C94D11C0C94131CA6
:100030000C94B1220C9442050C9442050C94420598
:100040000C9442050C9442050C9442050C94420514
:100050000C9442050C94DB1D0C9442050C94420553
:100060000C9442050C9442050C9442050C944205F4
:100070000C9442050C9442050C9442050C944205E4
:100080000C9442050C9442050C9442050C944205D4
:100090000C9442050C9442050C9442050C944205C4
:1000A0000C9442050C9442050C944205B607B9071E
:1000B000BC07BF07C407C907CE07DE07EC07FA076E
:1000C00008081608240832089209950998099B091E
:1000D0009E09A109A409E20FE20F14101410801068
:1000E0009B119B119B119E101111241124112B1A8D
:1000F000521AFB1B521AFB1B9E1AC11AFB1BB61B82
:10010000C61B01012901043130307C0101290104A1
:100110003130307C01012901043130307C0101296A
:1001200001043130307C0101290001012901043131
:1001300030307C01012B01043130307C01012B0176
:10014000043130307C01012B01043130307C01015D
:10015000290029002B00E000E100AE5D00001E0038
:10016000140004001D000100000F1F001A001600FB
:100170001B000100E3002000080007000600E20069
:100180000254210015000900190002542C0022001D
:1001900017000A0005000000055423000057000066
:1001A0000157000001002200025700000357000021
:1001B0004B0023001C000B00110000000150240024
:1001C00018000D001000E2004E0025000C000E008B
:1001D0003600E2002C41260012000F00370001001B
:1001E0002C432700130033003800055421593500F3
:1001F0002A002800340006540000B65D2B020100DE
:10020000010001000000010001002D0201000100B9
:100210000100010031023100010001000100010074
:1002200001002E02010001000100010001002D006B
:10023000010001000100010001002E00010000008A
:1002400001000100010000000100000001000100A8
:100250000100000001000000010001000100010098
:1002600001000000010001002F002F022602010002
:1002700001000100300030022702010001000100EE
:100280000100010001000100010001000100010066
:100290000100010001000100010001000100010056
:1002A000000029002B03E000E10001000000010034
:1002B000140404041D04010001003B041A04160484
:1002C0001B040100010001000804070406040100EA
:1002D00001000100150409041904010001000100D6
:1002E00017050A04050400000100010001000000D8
:1002F00001000000010001000100000001000000F9
:10030000010001001C045000110400000100010064
:100310001804510010040100010001000C045200F7
:1003200036040100E500010012044F00370401000B
:10033000010001001304330438040100010001002E
:1003400001000100010001000000010001000100A6
:100350000100010000000100010001000100010096
:100360000100010001000100010001000100010085
:100370000100010001000100010001000100010075
:100380000100010001000100010001000100000066
:100390000100010001000000010000000100010057
:1003A00001000000010000000100010001005000F8
:1003B00001000000010001000100520001000100E5
:1003C00001000100010051000100010001000100D5
:1003D00001004F00010001000100010001000100C7
:1003E0000100010001000100010001000100010005
:1003F00000002900010001000100010000000100CF
:1004000001000100010001000100010001000100E4
:1004100001000100010001000100010001000100D4
:1004200001000100010001000100010001000100C4
:1004300001000100010000000100010001000000B6
:1004400001000000010001000100000001000000A7
:1004500001000100110023022E00000001004C00E9
:10046000240021001E003600010038002500220073
:100470001F00270001002502260023002000630042
:1004800001002D002E0228002B002B12010001007C
:10049000010001000100010000002900010001002D
:1004A0000100010000003A003F004400010001008B
:1004B00001003B00400045000100010001003C003C
:1004C000410068000100010001003D004200690098
:1004D0000100010001003E0043006A00010000002D
:1004E0000100A800A9000000AA000000010001000E
:1004F000AE00000048000000010001000100AC0057
:1005000001000000010001000100AA00A800010094
:10051000010001000100A90001000100AB00010081
:100520000100AB0001000100AC0001004800010027
:1005300001000100010001000100AE000100010006
:100540000000B75D01000100010001000000010092
:100550000100010001000100010001000100010093
:100560000100010001000100010001000100010083
:100570000100010001000100010001000100010073
:100580000100010001000000010001000100000065
:100590000100000001000100010000000100000056
:1005A0000100010001000100010000000100010044
:1005B0000100010001000100010001000100010033
:1005C0000100010001000100010001000100010023
:1005D00001000100010001000100100F01000100F5
:1005E0000100005C01000100000005010980A1017B
:1005F000850319012AB700150126B700950175106A
:100600008100C0050C0901A101850419012AA0027D
:10061000150126A002950175108100C0050109068B
:10062000A1018506050719E029E7150025019508B0
:10063000750181020507190029EF1500250195F0C4
:1006400075018102050819012905950575019102B9
:10065000950175039101C00660FF0961A10109625E
:10066000150026FF009520750881020963150026F4
:10067000FF00952075089102C005010906A101053A
:100680000719E029E71500250195087501810295F4
:1006900001750881010507190029FF150026FF00D3
:1006A000950675088100050819012905950575014C
:1006B0009102950175039101C009025B00030100DD
:1006C000A0FA090400000103010100092111010041
:1006D000012240000705810308000109040100020E
:1006E00003000000092111010001222200070582F8
:1006F0000320000107050303200001090402000193
:1007000003000000092111010001226D000705848A
:100710000320000112010002000000089732754911
:1007200001000102000122034500720067006F0012
:1007300044006F007800200045005A00200053005C
:10074000680069006E006500000028035A0053002D
:100750004100200054006500630068006E006F00D7
:100760006C006F006700790020004C00610062009F
:1007700073000000040309041E0F0500047F3F1FDF
:10078000643214643214783C1E1E140A0529001EBB
:10079000001F0000002223252628292A2C2D2F3077
:1007A00032333536383A3B3D3E4042434547494A6D
:1007B0004C4E5051535557595A5C5E60626466689E
:1007C000696B6D6F71737577797B7D7F81838587A9
:1007D000898A8C8E90929496989A9C9E9FA1A3A5AC
:1007E000A7A8AAACAEAFB1B3B4B6B8B9BBBCBEBFD4
:1007F000C1C2C3C5C6C7C9CACBCCCDCED0D1D2D257
:10080000D3D4D5D6D7D7D8D9D9DADADBDBDBDCDC61
:10081000DCDCDCDDDDDDDDDCDCDCDCDCDBDBDBDA19
:10082000DAD9D9D8D7D7D6D5D4D3D2D2D1D0CECD84
:10083000CCCBCAC9C7C6C5C3C2C1BFBEBCBBB9B891
:10084000B6B4B3B1AFAEACAAA8A7A5A3A19F9E9C16
:100850009A98969492908E8C8A89878583817F7DE1
:100860007B79777573716F6D6B6968666462605EC2
:100870005C5A5957555351504E4C4A49474543428B
:10088000403E3D3B3A3836353332302F2D2C2A2925
:100890002826252322000101010101010101010295
:1008A0000202020202020202030303030303030320
:1008B00004040404040404050505050506060606EB
:1008C00006070707070708080808090909090A0AA7
:1008D0000A0B0B0B0C0C0C0D0D0D0E0E0E0F0F0F4B
:1008E00010101111111212131314141515161617D6
:1008F00017181819191A1A1B1B1C1D1D1E1E1F2044
:1009000020212222232424252626272829292A2B90
:100910002C2D2D2E2F3031323233343536373839B5
:100920003A3B3C3D3E3F40414243444546474849AF
:100930004A4C4D4E4F50515354555658595A5B5D81
:100940005E5F616264656668696B6C6D6F7072731F
:100950007577787A7B7D7E8082838587888A8C8E86
:100960008F91939596989A9C9EA0A2A3A5A7A9ABB8
:10097000ADAFB1B3B5B7BABCBEC0C2C4C6C9CBCDAA
:10098000CFD1D4D6D8DBDDDFE2E4E7E9EBEEF0F35C
:10099000F5F8FAFDFFFFAA7F5540000000000000B7
:1009A0000000000000000000000000000000000047
:1009B00000000000000000000000000000007E0FAA
:1009C00000D4FFFFFFC70000007800000000000017
:1009D00000002A2B2800000000000000000000009A
:1009E000000000000029000000002C1E34202122FD
:1009F00024342627252E362D3738271E1F20212266
:100A0000232425263333362E37381F0405060708DE
:100A1000090A0B0C0D0E0F101112131415161718CE
:100A2000191A1B1C1D2F3130232D3504050607080C
:100A3000090A0B0C0D0E0F101112131415161718AE
:100A4000191A1B1C1D2F3130354C11241FBECFEF3E
:100A5000DAE0DEBFCDBF11E0A0E0B1E0E0E4F3E614
:100A600002C005900D92A03EB107D9F724E0A0EE98
:100A7000B1E001C01D92AF33B207E1F70E941C1E26
:100A80000C949E310C9400009C013A9521153F4135
:100A900030F5BC0166277270AC01442754709C018C
:100AA0002227387094FF0FC090FF02C080E101C080
:100AB00080E0672B09F08062452B09F08064232BCE
:100AC00079F080680895892F8170672B09F0826022
:100AD000452B09F08460232B19F08860089580E08D
:100AE0000895FC018281813039F4958192FD12C014
:100AF00090FF10C082E00895823039F4858182FD34
:100B000006C080FD06C083E0089586E0089585E074
:100B1000089584E00895CF93DF93EC010E9421298A
:100B2000CE01805E9109089710F0209731F4CE0134
:100B30000E9444050E94102905C0CE010E94440570
:100B40000E94FF28DF91CF9108958FE39CE90197E0
:100B5000F1F700C000008091E901823049F018F4FB
:100B6000813049F00CC0833031F0853021F007C06E
:100B70008DE492E002C08DE490E00E948B0510921B
:100B8000E90108958FE39CE90197F1F700C00000A7
:100B90008091E701823049F018F4813049F00CC0AF
:100BA000833031F0853021F007C08FE493E002C03C
:100BB0008FE491E10E948B051092E70108958FE385
:100BC0009CE90197F1F700C000008091E5018230B7
:100BD00049F018F4813049F00CC0833031F0853091
:100BE00021F007C08AE492E002C08AE490E00E940B
:100BF0008B051092E50108958FE39CE90197F1F7C9
:100C000000C000008091E301823049F018F4813087
:100C100049F00CC0833031F0853021F007C080E509
:100C200093E002C080E591E00E948B051092E30101
:100C30000895CF93DF93EC01805E9109089710F03F
:100C4000209731F4CE010E9444050E94172905C067
:100C5000CE010E9444050E9406298C2F0E944D2936
:100C6000DF91CF9108950F931F93CF93DF938C0162
:100C7000C99719F0C0E0D0E002C0C0E5D0E0C801DB
:100C80000E941906209741F08FE99FE00197F1F744
:100C900000C000002197F6CFC8010E948B05DF91AC
:100CA000CF911F910F910895CF93DF93EC018A812B
:100CB000833061F48DE490E00E9433068DE490E08F
:100CC0000E9433068DE490E00E9433068A818430CE
:100CD00020F08DE490E00E943306DF91CF910895DB
:100CE000CF93DF93EC018A81833061F48FE491E14B
:100CF0000E9433068FE491E10E9433068FE491E174
:100D00000E9433068A81843020F08FE491E10E94B2
:100D10003306DF91CF910895CF93DF93EC018A8161
:100D2000833061F48AE490E00E9433068AE490E024
:100D30000E9433068AE490E00E9433068A81843060
:100D400020F08AE490E00E943306DF91CF9108956D
:100D5000CF93DF93EC018A81833061F480E591E0E9
:100D60000E94330680E591E00E94330680E591E021
:100D70000E9433068A81843020F080E591E00E9451
:100D80003306DF91CF9108950E9471058093E901A8
:100D9000823049F018F4813091F00895833031F0B9
:100DA000853049F008958DE492E00BC08DE490E029
:100DB0000E94190604C08DE490E00E9433068DE481
:100DC00090E00E94190608950E9471058093E70142
:100DD000823049F018F4813091F00895833031F079
:100DE000853049F008958FE493E00BC08FE491E1E2
:100DF0000E94190604C08FE491E10E9433068FE43B
:100E000091E10E94190608950E9471058093E50101
:100E1000823049F018F4813091F00895833031F038
:100E2000853049F008958AE492E00BC08AE490E0AE
:100E30000E94190604C08AE490E00E9433068AE406
:100E400090E00E94190608950E9471058093E301C5
:100E5000823049F018F4813091F00895833031F0F8
:100E6000853049F0089580E593E00BC080E591E07E
:100E70000E94190604C080E591E00E94330680E5D7
:100E800091E00E9419060895982F92959F7019F08D
:100E9000892F24E001C020E0982F9695969511F0B7
:100EA0002E5F892F982F969509F02F5F822F089536
:100EB000A5E0B0E0EEE5F7E00C94E12EFC018681C0
:100EC0009781009709F5CF0125E0DE011196019089
:100ED0000D922A95E1F7FC01228189819A812223D2
:100EE00059F0662349F00E94E327182F682F898163
:100EF0009A810E94532803C00E941F28182F6981DD
:100F00007A81812F0E9421122596E3E00C94FD2E18
:100F100010928E020E94EB282FEF84E39CE0215078
:100F200080409040E1F700C000009AE088E10FB6F1
:100F3000F894A895809360000FBE90936000FFCF57
:100F4000CF93C82F0E94440756985E9825982D98F5
:100F500026982E9827982F9890E0FC013197E7303B
:100F6000F10518F5EA5AFF4F0C944E30259A2D9A48
:100F700033C0269A2E9A3EC0279A2F9A49C0259AA6
:100F80002D9A269A2E9A52C0259A2D9A279A2F9AF0
:100F90005BC0269A2E9A279A2F9A64C0259A2D9A7A
:100FA000269A2E9A279A2F9A6DC08730910508F0BD
:100FB00069C0FC01E35AFF4F0C944E308091EB0165
:100FC000811188C00E94CB2C81E00E94C72C20E0B8
:100FD0004FEB62EE86E853C08091EB0181117AC03D
:100FE0000E94CB2C81E00E94C72C20E04FEF6FEFD6
:100FF0008CEB45C08091EB0181116CC00E94CB2C21
:1010000081E00E94C72C20E04FEF6FEF88E937C0E6
:101010008091EB0181115EC00E94CB2C81E00E9487
:10102000C72C20E04CEC6AED83EB29C08091EB01EA
:10103000811150C00E94CB2C81E00E94C72C20E07F
:101040004CEC6AED8CEA1BC08091EB01811142C02F
:101050000E94CB2C81E00E94C72C20E04CEC6AED72
:1010600082E30DC08091EB01811134C00E94CB2C32
:1010700081E00E94C72C20E04FEF6FEF80E00E94DC
:10108000CB2B28C08091EB01811124C088E090E037
:101090000E947D2F60939703709398038093990328
:1010A00090939A03862F60FF13C08160809397030B
:1010B00086950E94D42C8091970386950E94D42C0B
:1010C00021E040919A036091990380919803D7CFD2
:1010D0000E94FD2A8C2FCF91089580E290E090939A
:1010E0005101809350018091040381110EC00E9430
:1010F000EE2D81E0809304032FEF83ED90E32150E8
:1011000080409040E1F700C0000060E570E080E4BE
:101110000E94F42D9093510180935001892B09F086
:101120004EC060E570E080E00E94672E9093510110
:1011300080935001892B09F042C060E570E080E0A7
:101140000E94672E9093510180935001892BB9F52D
:1011500060E570E08FE30E94672E909351018093C9
:101160005001892B61F50E94BA2E60E570E080E4A1
:101170000E94F42D9093510180935001892BF9F432
:1011800060E570E08CE00E94672E9093510180939F
:101190005001892BA1F460E570E080E00E94672E89
:1011A0009093510180935001892B49F460E570E0E0
:1011B0008FE30E94672E90935101809350010E940B
:1011C000BA2E809150010895CF93DF9356985E9880
:1011D00025982D9826982E9827982F98C8E8D0E023
:1011E0008FEF90E099838883AAE8B0E011969C93F2
:1011F0008E93ECE8F0E091838083259A2D9A2FEF6F
:1012000080E792E0215080409040E1F700C000006C
:10121000269A2E9A2FEF80E792E02150804090404E
:10122000E1F700C00000279A2F9A2FEF80E792E0A5
:10123000215080409040E1F700C0000025982D9893
:101240002FEF80E792E0215080409040E1F700C00E
:10125000000026982E982FEF80E792E021508040E2
:101260009040E1F700C0000027982F988091BE02BF
:1012700087702FEF829FC0011124959587959595D2
:10128000879599279983888311969C938E93918350
:10129000808356985E9825982D9826982E982798A2
:1012A0002F98DF91CF910895CF93E82F873080F565
:1012B0008091500190915101892B09F047C0CE2FA8
:1012C00060E570E080E40E94F42D909351018093DA
:1012D0005001892BD1F460E570E082E10E94672E15
:1012E0009093510180935001892B79F481E090E033
:1012F00001C0880FCA95EAF760E570E080950E940A
:10130000672E90935101809350010E94BA2E1EC007
:1013100090E0FC013797E730F105C0F4EC59FF4F3E
:101320000C944E30209A289811C0219A29980EC00A
:10133000229A2A980BC0239A2B9808C0529A5A983E
:1013400005C0539A5B9802C03E9A4698CF91089583
:10135000209828982198299822982A9823982B98A1
:1013600052985A9853985B983E9846980895CF9310
:10137000873040F58091500190915101892B59F5AA
:1013800060E570E081E40E94F42D90935101809318
:101390005001892B11F0C0E011C080E590E00E945F
:1013A000962E97FF05C09093510180935001F3CF83
:1013B000C82FC09510925101109250010E94BA2E70
:1013C0008C2F0AC09FB18FB1807F869586959370D0
:1013D000892B809501C080E0CF9108958098889AEC
:1013E0008198899A84988C9A85988D9A86988E9AF5
:1013F00087988F9A0895A5E1B0E0E1E0FAE00C94B7
:10140000D52E942F498B252F5A8B6B8B7C8B8D8BF4
:101410004C895D89622F892F0E948023811109C028
:101420008091EC019091ED0101969093ED018093F4
:10143000EC018B89811110920D048E01075F1F4F03
:1014400088E0D8011D928A95E9F785E0FE01719642
:10145000D80101900D928A95E1F74C855D856A85EA
:1014600089850E948023811164C061E0C8010E94C7
:1014700058077C01883FBCE59B0741F48B85882396
:1014800009F462C081E08093670153C0893FECE5B5
:101490009E0739F48B85882309F456C00E941A24CC
:1014A00048C08A3F9C4509F04FC08B85882309F4CA
:1014B0004BC080916701882329F3F0CF2FEFC2162C
:1014C000D20609F45EC140916401411157C01091E8
:1014D0006701212F122F11703B85209165018091AA
:1014E0006601332309F4ECC0112309F4E9C0222377
:1014F00009F447C021E030E0A90102C0440F551FA4
:101500009A95E2F7CA0101972091660130E08217AF
:10151000930709F44FC08B85811135C1909109045F
:1015200080910A04981709F45EC10E9429241111C0
:101530006CC129853A854B855C856D857E858F8557
:1015400098890E940C2A61C16091600170916101CB
:10155000CC24CA94DC2C90E0492F50E0FA01EE0F25
:10156000FF1FE60FF71F25913491E216F30609F4E9
:101570006A01232B09F4A2CF9F5FEECF20E030E079
:10158000A9CF21E030E00C2C01C0220F0A94EAF729
:10159000822B8093660120919D0330919E0322331C
:1015A000310508F0A7CF22E330E030939E0320936B
:1015B0009D03A0CF80910B0490910C04009729F01B
:1015C0000E94011EC39708F019C18091090400917F
:1015D0000A048090600170906101982FE0E0F0E0D3
:1015E00067E099249394801709F456C0482F50E07F
:1015F000FA01EE0FFF1FEF5FFB4FA081B1816A9FE1
:10160000F0016B9FF00D1124E05AFE4F6080518075
:1016100070E020E030E0E62DF52DE30FF11DE30F43
:10162000F11DC590D490C114D104A1F020E0E82DA3
:10163000F72DE20FF11DE20FF11DA590B490A1145A
:10164000B10431F0CA14DB0409F471E02F5FEFCF6D
:101650003F5FE1CF7723C9F0231708F4CDC06A9F1D
:10166000F0016B9FF00D1124E05AFE4F309779F096
:101670009482A1E0E036FA0709F4C4C0891307C0D8
:10168000CA010196982F937002C0E0E0F0E04F5F2E
:101690005F4F842F8370A7CF90930904E056F140E9
:1016A00009F439CF90E0FC01EE0FFF1FEF5FFB4F15
:1016B0001182108201968370992780930A042BCFA0
:1016C000211116C021E030E002C0220F331F9A958D
:1016D000E2F72150310990E02817390709F042C09C
:1016E000442309F440C080E090E00E948F233AC078
:1016F00090E09C0121503109282339230C2C02C091
:10170000959587950A94E2F7232B49F580FF27C02A
:101710008091620190916301892BE9F0FE0131967D
:1017200088E0DF011D928A95E9F78EEF89838A832D
:101730000E94101E8160582F9D838C8380916201CE
:10174000909163018F83988729813A814B816D81C4
:101750007E810E940C2A1092650111E004C0182FAE
:10176000117001C010E081E090E00C2C01C0880FE6
:101770000A94EAF780959091660189238093660127
:10178000CACE10E0C8CE112309F4C8CE0E94101EA4
:1017900090930C0480930B048091A0038830A8F5EB
:1017A00091E0980F9093A00398E0FE013996DE0136
:1017B000119601900D929A95E1F7BCE08B9FC001C4
:1017C00011248F559C4F28E0FE013196DC010190D9
:1017D0000D922A95E1F72FEF3FEFFC01318720872B
:1017E000F386E28612C00E94BD2310920C04109270
:1017F0000B040E940D249BCE9093090481E08093FA
:10180000640189CE9093090486CE6596EFE00C942E
:10181000F12EA0E2B0E0EFE0FCE00C94D92E7C01C8
:10182000DC0113964D915C91149711966C91119770
:101830008C910E9480238111BBC561E0C7010E9489
:1018400058078C01F70182818823E1F080910E0412
:1018500090910F040097B1F00817190799F0FEE076
:101860008F9FC0011124FC01E45EFE4F20812460A3
:101870002083895E9E4FDC010D931C930E945523AB
:1018800010920D0480913804882309F44FC0F701A9
:101890008281811130C3E091EA01E330A0F481E05C
:1018A0008E0F8093EA01F0E0EE0FFF1FE850FD4F2E
:1018B000D7018D919C919183808382E08983CE01B1
:1018C00001960E94C22DBFEFE3EDF0E3B150E0407E
:1018D000F040E1F700C000008091EA01833009F098
:1018E0000AC31092EA01EEEFF2E0A8EFB2E084E062
:1018F00093E0318111962C911197321330C03081D1
:101900002C9132132CC0329612968E179F0789F7AE
:1019100084E0898381E0809339048EEF8A8310927A
:101920003804CE0101960E94C22DE5C2809139048F
:101930008823D1F0D70112968C91882311F086E08C
:1019400001C087E08983F70180818A8381818B834D
:101950008EEF8C83CE0101960E94C22D05C083E0DC
:10196000898310923904D9CF033BFDE51F07E9F5C0
:10197000D70112968C91882309F4C5C09091BE02BC
:1019800081E0890F8770987F853020F4892B8093C0
:10199000BE0202C09093BE028091BE028770BFEF6C
:1019A0008B9FC001112495958795959587959927CB
:1019B000909389008093880090938B0080938A0095
:1019C00090938D0080938C004091BE025091BF0295
:1019D0006091C0027091C1028FE090E00E94AB2F35
:1019E0008091D1020E94A0078EC0053BEDE51E0745
:1019F00011F128F4043B2DE5120721F12FC0063B1D
:101A00008DE5180729F0073B9DE5190751F026C021
:101A1000D70112968C91882309F475C08AE291E06F
:101A200007C0F7018281882309F46DC082E091E04C
:101A30000E94ED2C68C0D70112968C91882309F47E
:101A40005AC2ADC1F7018281882309F454C2909132
:101A5000EB0181E089278093EB014DC2C8019755C6
:101A60008F3F910511F008F049C05801BB242EE0CA
:101A7000029FF0011124CF01895E9E4F6C01D701B6
:101A800012969C911297E45EFE4F808190FB80F944
:101A9000808312969C91992309F49CC10E94101E88
:101AA0009093F4028093F302F60182818F5F828328
:101AB00090910D0480918E02892B8383809179020D
:101AC00084830680F781E02D309739F0D6011C968B
:101AD0006D917C911D97C60109958EE08A9DF0015C
:101AE0008B9DF00D1124E45EFE4F808181FF6FC15C
:101AF00090E080E090930E0480930F040E3ABDE5D1
:101B00001B0709F46DC180919C03882309F489C0E7
:101B1000D0908E02C09079020E94101E88579C4E71
:101B20009093F6028093F502D70112968C91882348
:101B300009F47CC08C2D8D298D7909F06DC00115BB
:101B4000B5E51B07B0F40115E3E51E0708F069C011
:101B50000115F0E51F0740F4011520E4120790F588
:101B6000063E1105B1F55DC0011582E5180788F53F
:101B700058C0011599E5190750F40115A8E51A0791
:101B800008F04FC00431B5E51B0719F54AC0C8017C
:101B9000905681159042E8F4D70115968C91807F7C
:101BA000A9F4812F8F718231B1F028F48230A1F530
:101BB00081EE90E012C08431A1F1863169F586EEA4
:101BC00092E10BC0F7018581807F59F1C801992707
:101BD00004C0C80102C085EE90E010920D04883266
:101BE000910530F48E319105D0F40497A8F00EC021
:101BF0008D32910559F018F48A9789F00DC08C3414
:101C0000910569F08D32924051F006C082E08093D8
:101C10000D040E944B1403C00E94C12402C00E9404
:101C20004B14D70112968C918111F6C080918E02CF
:101C300082720D3C2CE5120709F4AAC008F045C0D9
:101C4000073CACE51A0709F48FC0D8F4043CECE576
:101C50001E0709F47FC030F4033C2CE5120709F499
:101C60006DC05CC1053C9CE5190709F478C0063CD1
:101C7000ACE51A0709F052C148E75CE262E87CE291
:101C80008BC00A3CBCE51B0709F478C078F4083C1B
:101C9000FCE51F0709F46DC0093C2CE5120709F0AB
:101CA0003DC14BE65CE26EE57CE276C00B3C9CE518
:101CB000190709F468C00C3CACE51A0709F02EC1FD
:101CC00049ED5AE26BEE7AE267C0023DBCE51B07C4
:101CD00009F46DC0A0F40F3CFCE51F0709F461C0D6
:101CE00008F45DC0003D8CE5180709F45DC0013DB6
:101CF0009CE5190709F012C16EE089E065C0053D59
:101D0000ACE51A0709F459C060F4033DECE51E0781
:101D100009F450C0043DFCE51F0709F0FFC088E14D
:101D200050C0063D2CE5120709F44AC00F358DE579
:101D3000180709F0F3C06AE285E246C08091970374
:101D400080FF03C00E94FD2AD6C081608093970364
:101D5000869537C048ED5CE262EE7CE21DC042EE43
:101D60005CE268ED7CE218C042E85CE268E77CE295
:101D700013C04EE55CE26BE67CE20EC044E45CE23C
:101D800061E57CE209C041E55CE264E47CE204C018
:101D90004BEE5AE269ED7AE20E94FE24ACC081E08B
:101DA00010C065E082E010C068E086E00DC064E12C
:101DB0008FE00AC067E185E107C062E289E104C003
:101DC00083E20E94D42C97C00E94EB2494C0902FF1
:101DD000812F90CE81FF92CEC6010E943B238ECEF2
:101DE000F7018281882309F486C080919C038823AF
:101DF00019F00E94C1247FC010928E020E943714F5
:101E00000E94101E88579C4E9093F6028093F50214
:101E100081E080939C036FC00C359DE5190709F4A0
:101E200064C060F40115BCE51B07A9F00F3DECE5AB
:101E30001E0709F073C00E94C1134CC00E35FDE5AA
:101E40001F0709F44AC008F452C0093A8DE5180783
:101E500009F440C063C010928E020E94EB289FEFED
:101E6000A4E3BCE09150A040B040E1F700C0000006
:101E7000F89481E08093E00080E28093D800109293
:101E8000C900EFE1FEE43197F1F700C000001DBA90
:101E9000109268001CBC10BE1FBA10927A001092FB
:101EA0006E0010926F0010927100109272001092EA
:101EB000C9001092BC0014B817B81AB81DB810BAEF
:101EC0001092BC0015B818B81BB81EB811BA0C9403
:101ED000003F11C00E9488070EC08091890282FBDA
:101EE000882780F991E0892703C081E001C080E064
:101EF0000E94BD1413C080915802877009F458C223
:101F0000D70112968C91882309F452C280918902DC
:101F100082FF4EC282E00E94A0144AC2F70186816D
:101F200097810097B9F4F70182810081118188239C
:101F300049F0C8010E94E327D82E682FC8010E94EB
:101F4000532804C0C8010E941F28D82EB8018D2D27
:101F50000E9421120E943A12182F092FD7011296BF
:101F6000CC9012971596BC90B2943FE0B32280912A
:101F700058028770B9F0CC20A9F0892F807F803477
:101F800021F080E2810F883068F08091890282FF21
:101F900009C082E00E94A014809158028770AA2490
:101FA000A3948111A12C902E92942FE09222892D3E
:101FB00090E08C30910508F0BEC1FC01E559FF4F5F
:101FC0000C944E30902F9F70802F807FD92E19F067
:101FD000D29490EFD922CC20B9F0DD2009F499C138
:101FE00080E2810F883010F0111106C080918E02BE
:101FF000D82AD0928E0205C080910D04D82AD092A2
:102000000D040E944B1485C1812F0E942129DD20DF
:1020100009F491C180E2810F883070F1112361F1E0
:102020008D2D0E943D142BC0902F9F70802F807F9C
:10203000D92E803219F0D29480EFD822112319F0D2
:102040001130D9F147C08091890282FD1BC0CC209C
:1020500069F0DD2039F080918E02D82AD0928E026C
:102060000E944B1480E00E944D2965C180E00E94CF
:102070002129DD2009F45FC18D2D0E9444140E94A6
:102080004B1459C1CC2081F080917902BB2051F0D2
:10209000B1E0BB1207C0D82AD81609F44CC1D092BF
:1020A000790249C18D2910C0BB2021F0E1E0BE16A4
:1020B00009F441C10E9437141FC0CC2041F0F1E067
:1020C000FB1508F438C18D2D0E94172934C1B110B9
:1020D00032C112C0CC2019F0BB20A9F31AC1BB2019
:1020E00059F0193309F024C12FEF87EE93E0215006
:1020F00080409040E1F71AC18D2D0E9410291BC12C
:10210000802F86958695837019F0813061F013C118
:10211000CC2021F0812F902F937002C080E090E0BE
:102120000E9418230EC1CC2021F0812F902F937094
:1021300002C080E090E00E94022303C1802F8370E0
:10214000A1F5C110FCC0412F429546954770440F40
:10215000440F212F2F7030E0C901042E01C0880FD9
:102160000A94EAF714FF08C02FE030E001C0220F04
:102170004A95EAF7209501C020E0302F3695369534
:102180003370323069F040F440917A02313019F006
:10219000822B842302C0842B822B0E94CB28CFC0A9
:1021A000282B80917A028227F8CFCC2019F0802F3B
:1021B000817001C08695882309F4C1C0412F4295E2
:1021C00046954770440F440F212F2F7030E0C9010E
:1021D000042E01C0880F0A94EAF714FF08C02FE00C
:1021E00030E001C0220F4A95EAF7209501C020E0B7
:1021F000302F369536953370323051F070F440916F
:10220000D102313019F0822B842308C0842B05C001
:10221000282B8091D102822701C0822B0E9488281E
:102220008EC0A02FAF70DA2ECC2039F08A2F0E94FA
:10223000BF28812F0E94172982C0812F0E94102958
:102240008D2D0E94B2287BC0123F49F128F4103F27
:1022500041F0113FF9F059C0133F41F1143FB1F083
:1022600054C0CC2071F0B11066C0202F2F7181E0D6
:1022700090E001C0880F2A95EAF79091D102892752
:102280001EC0B1E0BB1508F456C0EFCF80918902A3
:1022900082FD1AC0CC2029F0802F8F7129C0CC205C
:1022A000D9F3802F8F710E94B22845C0CC2051F005
:1022B00081E0902F9F7101C0880F9A95EAF70E94E4
:1022C000882839C080E0FBCFCC20A9F0E02FEF7147
:1022D000DE2E8E2F0E94BF288091890282FF07C0C8
:1022E000F8E0DF9EC00111248360809358028D2D99
:1022F0000E94BF2820C081E00E94A01421E02B157D
:10230000D0F482E00E94A01416C0CC2021F0BB20A3
:1023100019F2812FA8CEBB2021F2193349F48FEF97
:1023200097EEA3E081509040A040E1F700C000008C
:10233000812F0E94212988EF890D843010F40E949A
:102340002E23812F902F0E94D028811105C010923A
:10235000ED011092EC0111C0CC2019F0B110F7CFB3
:102360000CC0B110F4CF8091EC019091ED01029777
:1023700071F7812F0E94ED29EACFAA20A9F0809160
:10238000580280FD11C0F7011282859585958595CB
:102390000E94BF28C7010E94090C809158028595B0
:1023A000859585950E94B22860E0C7010E94580774
:1023B000A096EBE00C94F52E80E0089590918802B1
:1023C00092FF0DC0282F2871283019F4877F846070
:1023D00006C0282F2471243011F48B7F886093FF6E
:1023E0000DC0282F2871283119F4877E846106C01A
:1023F000282F2471243111F48B7E88612091890269
:1024000020FF0DC0382F3871383019F4877F816074
:1024100006C0382F3171313011F48E7F886021FF72
:102420000DC0282F2871283119F4877E816106C0DC
:10243000282F2171213111F48E7E886194FD877ED1
:1024400008957E30A0F4663090F494E5899FF00101
:10245000112486E0789FE00DF11D1124E60FF11D97
:10246000EE0FFF1FEE5AFE4F85919491089580E084
:1024700090E00895CF93DF938238910569F1B0F42D
:102480008133910509F477C048F48932910509F444
:1024900069C08A32910509F473C092C085339105F1
:1024A00009F45BC089339105B9F08AC0833E910578
:1024B00091F138F4803E9105D1F0823E910531F1E1
:1024C0007FC0863E9105D9F1873E9105E9F1843EB2
:1024D000910509F075C028C02091880220FD5BC0DD
:1024E00021FD59C02091890223FD61C069C08091FE
:1024F000880280FD4AC08091890280FF4CC0809193
:10250000880284FD39C183EE90E038C18091880251
:1025100082FF3EC0F4CF8091880282FD39C0809155
:10252000890280FD38C0EBCF8091890281FF39C0DC
:102530008091880284FD20C187EE90E01FC18091C8
:10254000880283FF2BC0F4CF8091880283FD26C0D0
:102550008091890281FD25C0EBCF8091880285FDA5
:1025600026C022C08091880285FD1EC0809189020C
:1025700083FF1DC00AC08091880286FD1BC01DC05C
:102580008091880286FD19C015C089E390E0F6C0ED
:1025900082EE90E0F3C080EE90E0F0C086EE90E036
:1025A000EDC084EE90E0EAC085E390E0E7C089E208
:1025B00090E0E4C08AE290E0E1C081E390E0DEC018
:1025C000811532E5930708F05FC0811541E5940756
:1025D00028F0982F8827816F906AD0C0883E910597
:1025E00068F5803E910508F0C9C0883A9105B8F4B5
:1025F000853A910548F0855AE82FF0E0E859FE4FFA
:10260000808190E09064BAC08130910509F4B1C036
:1026100008F4B2C08430910508F4AEC0AFC08F3B5F
:10262000910508F0A9C0885AE82FF0E0EE0FFF1FCF
:10263000E559FE4F808191819464A0C0811520E509
:102640009207A0F0AC014370552721E030E002C0B2
:10265000220F331F4A95E2F78695869540E2849FC4
:10266000C0011124822B932B9D6888C0811530E412
:10267000930718F09F70906A81C09C013A952115CC
:102680003F4108F47BC078C0EC01C11586E5D8074E
:10269000E8F5C11525E5D20748F08C2F0E94DE1120
:1026A0008F7190E0982F8827906268C0C11534E53B
:1026B000D30728F09C2F8827846F906A5FC0AE01F3
:1026C000437055272C2F26952695C115D34578F4B0
:1026D00081E090E002C0880F991F4A95E2F740E23E
:1026E000249F90011124822B932B9C6847C081E08A
:1026F00090E002C0880F991F4A95E2F740E2249FBC
:1027000090011124822B932B9A6838C0C1152AE5B9
:10271000D207F8F4C11539E5D30790F08C2F8F70EC
:102720000E94DE1194E0D695C7959A95E1F7CF7097
:10273000D0E0DC2FCC27D0699E01282BC9011EC018
:10274000C11548E5D407C0F09C2F8827806F906A98
:1027500015C0CE0190568115904270F48D2F8F7167
:102760000E94DE11282F2F71CE0199279062922BA3
:1027700005C081E090E002C080E090E0DF91CF9161
:10278000089568EE7EEF80E090E00E94B72F60E051
:1027900082E090E00E94992F60E083E090E00E9448
:1027A000992F10927A0260E084E090E00E94992FC5
:1027B00064E082E290E00E94992F60E085E090E082
:1027C0000E94992F60E086E090E00E94992F6FEFC1
:1027D00087E090E00E94992F40E050E0BA0188E045
:1027E00090E00E94AB2F60E08DE090E00E94992F76
:1027F00040E050E0BA0188E190E00E94AB2F60E039
:1028000087E190E00E94992F40E050E0BA018CE10E
:1028100090E00E94AB2F60E070E080E290E00E94C8
:10282000B72F40E050E0BA0188E190E00E94AB2F62
:102830001092BE021092BF021092C0021092C1020A
:1028400084E08093BE024091BE025091BF0260912D
:10285000C0027091C1028FE090E00E94AB2F40E077
:1028600050E0BA0183E190E00E94AB2F089580917F
:1028700079028111109279020895809590910D044A
:10288000892380930D040895809590918E02892369
:1028900080938E02089590918E0280910D04982B62
:1028A0009093EE01809179028823D9F0892B80934F
:1028B000EE0180910A01882331F08091880287FF20
:1028C00002C08EE101C086E0E0EFF1E090E08150CF
:1028D00028F021912223D9F39F5FF9CF91110E9413
:1028E000371440E250E069E572E08EEE91E00E941C
:1028F0009131892B21F180E2EEEEF1E0A9E5B2E021
:1029000001900D928A95E1F7E0911204F091130481
:102910003097A9F080910A01882359F080918802AC
:1029200087FF07C08091EE018093EF0186E08093DE
:10293000EE010280F381E02D8EEE91E0099508957D
:10294000209158028095822380935802982F977087
:1029500099F430E0482F082E000C550B241735074A
:1029600059F09091890292FF07C0859585958595CC
:102970000E94B228109258020895CF93C091890204
:10298000C2FB992790F9981791F080FBC2F9C09388
:1029900089026091880284E090E00E94992F6C2F58
:1029A00082E290E00E94992F82E00E94A014CF91D1
:1029B00008958091570290911602891719F08F5F40
:1029C0008770FBCF0895A0E0B0E0E9EEF4E10C944D
:1029D000DC2E8091500190915101892BB9F08091AA
:1029E0007B028F5F80937B02811110C00E946D0873
:1029F00090E09093510180935001892B39F40E940B
:102A0000E40881E080934F010E94052502EC12E06A
:102A10007801D0E0C0E087E0C82ECC0E8C2F0E9459
:102A200054098C2D0E9454098C2F0E94B7098F7372
:102A3000F7019081891721F08083DD24D39401C0B0
:102A4000D12C8C2D0E94B7098F73F70197818917BC
:102A500019F0878381E001C080E0D82ADD290E9437
:102A6000A809CF5FFFEFEF1AFF0AC730A1F6109257
:102A70008002C0917F02CC2309F4C4C00E94101EC2
:102A800020917D0230917E02AC01421B530B9A01D2
:102A900090937E0280937D024F3F510509F018F418
:102AA000452B19F102C02FEF30E010927F021092F7
:102AB0007C02E091BC02F091BD02AF01425F5F4F2A
:102AC00090E030E08081882341F0281718F01082D0
:102AD0009C2F03C0821B80833C2F3196E417F5079F
:102AE00089F730937F0290937C02DD2309F47BC049
:102AF000E091BC02F091BD028091800290917F0232
:102B0000A6EDB2E0AF01425F5F4F6EE1E8012881C0
:102B10003C91321779F0308131110CC060832C93D5
:102B200098819227282F30E0292B81E0232B09F46C
:102B300080E091E0319611960F5F1F4FE417F50783
:102B400029F78093800290937F02C09180022091A8
:102B5000380480918202909183022223C9F1892B4B
:102B600031F425982D9826982E9827982F988091A3
:102B70008202909183029170892B79F48091810275
:102B8000882319F026982E9802C0269A2E9A9091A2
:102B9000810281E089278093810280918202909155
:102BA00083028130984750F0109238048091D1020E
:102BB0000E94A007109283021092820280918202EA
:102BC00090918302019690938302809382021EC0AB
:102BD000892BE1F010928302109282028091D1023F
:102BE0000E94A00713C081E090917C02992309F410
:102BF000ACCF81117DCF0E94101E90937E028093F6
:102C00007D0276CFD111F7CF80E0EECF8C2FCDB7FC
:102C1000DEB7E8E00C94F82EEF92FF920F931F932B
:102C2000CF93DF938091130282958F7009F054C087
:102C300080911002882309F44FC0C0915702E090A0
:102C40001602D0910E02F0900F0200911102109125
:102C50001202CE1509F440C0A8016F2D8D2F0E94DD
:102C600080232C2F30E0811132C0F90183E0EE0F78
:102C7000FF1F8A95E1F7DF01A95EBD4F11968C9188
:102C800011978F1124C08C918D1321C012968C91B5
:102C9000129781111CC013968D919C911497801BE3
:102CA000910B8538910598F4809113028F708061A3
:102CB00080931302E45EFD4F80818F70806180837A
:102CC0008EE092E00E94090C0E94D91405C02F5F8B
:102CD0003F4FC22FC770BDCFCDB7DEB7E6E00C9433
:102CE000FA2EA5E1B0E0E7E7F6E10C94D32E8C01D3
:102CF00085E0F801DE01519601900D928A95E1F789
:102D0000F801E2804EE0A42E42E0B42E40900E0284
:102D100030900F028090110290901202A401632D56
:102D2000842D0E948023582E811142C1F8016080B9
:102D30007180C380D480F09010029601281939095F
:102D4000FF2009F4E7C080911302982F907F253867
:102D5000310508F0A1C0911153C037101AC04610B8
:102D600018C04091140250911502268137814217F4
:102D7000530779F4FE2CE1100CC08F7080618093B2
:102D80001302C5010E94090C80911302F80185838A
:102D90004CC1A601672D862D0E948023811103C09E
:102DA00081E08E2502C080E090E0F82FF170FF2EC8
:102DB00080FF1CC08091570220911602821709F4EF
:102DC00012C190E0FC0133E0EE0FFF1F3A95E1F7EE
:102DD000E95EFD4F3181731206C03081631203C07A
:102DE0003281E31203C001968770E8CFFE2CEE20FB
:102DF00009F41BC18091130281608093130257C0B4
:102E000037100FC046100DC04091140250911502AA
:102E1000F801268137814217530719F4EE2009F48F
:102E2000A6C0C8010E94842A882381F1EE2071F196
:102E300020911302822F82958F7090E00297A4F068
:102E400080910E0290910F029A8789871B86DD86FA
:102E5000CC862E878091140290911502988B8F87D3
:102E6000CE0109960E94090C88E0F801AEE0B2E0BC
:102E700001900D928A95E1F70E940C160AC0371452
:102E8000C1F0C8010E94842A811126C0C8010E9495
:102E9000090CFF24F394C9C09111F1CF8EE092E0A8
:102EA0000E94090C88E0F50111928A95E9F7F12C4E
:102EB000BCC04610E6CF4091140250911502F801B3
:102EC0002681378142175307E1F6E110DACF858377
:102ED000C8010E94090C66C0EE20C1F220911302C5
:102EE000822F82958F7090E002970CF4BDCF809175
:102EF0000E0290910F029A8389831B82DD82CC821D
:102F00002E83809114029091150298878F83CE01B1
:102F10000196A8CF2538310508F044C0FE2CEE20DC
:102F200009F4B4CF371030C046102EC020911402DF
:102F300030911502F801868197812817390721F50C
:102F40009091130290FD17C0892F82958F70282FC2
:102F500030E02115310579F095832F30310541F0AE
:102F60008F5F982F9295907F85818F70892B8583B5
:102F7000C8010E94090C88E0F801AEE0B2E00190BF
:102F80000D928A95E1F751C0C8010E94842A8111EF
:102F90006BCF80911302816080931302C8010E945D
:102FA000090C43C088E0F50111928A95E9F73DC00C
:102FB000EE2009F46BCFC8010E94842AF82E8823E2
:102FC00009F464CF88E0F801AEE0B2E001900D9220
:102FD0008A95E1F780910E0290910F020E941228CB
:102FE0000E940C1622C0698A7A8A89899A890E946D
:102FF0001228292F22952F70223028F49F7039F043
:10300000811105C00BC0243028F49F7049F4805E04
:10301000883020F0C8010E94090C5F2CF52C05C0F7
:10302000F8019581907F99F7F9CF8F2D6596E1E1B1
:103030000C94EF2E8091B40287FF11C08091E800BC
:1030400082FD05C080913A048111F8CF11C08091B2
:10305000E8008B770BC080913A04882349F0809177
:10306000E80080FFF8CF8091E8008E778093E80039
:103070000895982F973068F59093E900981739F0E4
:103080007091EC002091ED005091F00003C0242FCE
:10309000762F50E021FD02C09F5FECCF3091EB0016
:1030A0003E7F3093EB003091ED003D7F3093ED009B
:1030B0003091EB0031603093EB007093EC00209383
:1030C000ED005093F0002091EE0027FDE5CF80E069
:1030D00008958F708093E90081E008952091BA02ED
:1030E0003091BB022617370748F06115710539F496
:1030F0002091E8002E772093E80001C0B901FC017F
:1031000020E06115710579F180913A048823F1F18D
:103110008530F1F18091E80083FD3CC08091E800AA
:1031200082FD2EC08091E80080FFEBCF2091F3005C
:103130008091F20090E0922B6115710551F088307A
:10314000910538F421912093F100615071090196A5
:10315000F3CF21E0089709F020E08091E8008E7716
:103160008093E800CECF2111CFCF0AC080913A04DE
:10317000882361F0853061F08091E80083FD0AC00A
:103180008091E80082FFF2CF80E0089582E0089508
:1031900083E0089581E00895089508958091900254
:1031A000089580938A0270938C0260938B028091C1
:1031B0003A048430F9F48093E9008FEF9091E800AD
:1031C000815095FD06C095ED9A95F1F700008111AB
:1031D000F5CF8091E80085FF0DC040E050E063E04E
:1031E00070E08AE892E00E94982D8091E8008E7746
:1031F0008093E8000895BC0184E00E94D1180895EE
:10320000BC0183E00E94D1180895CF93DF932091F1
:103210000A01222339F02091880227FF03C060E2CF
:1032200024E002C068E021E02093E9002FEF309114
:10323000E800215035FD06C035ED3A95F1F7000064
:103240002111F5CF2091E80025FF1DC0EC018091F0
:103250000A01811105C040E050E068E070E003C061
:1032600070E040E050E0CE010E94982D8091E8008F
:103270008E778093E80080E2FE01A1E9B2E0019040
:103280000D928A95E1F7DF91CF910895AAE2B0E01F
:10329000ECE4F9E10C94E12EE4EBF2E08CEB92E04B
:1032A0002091F10021938E179F07D1F78091B502ED
:1032B000833009F463C030F4813071F0823009F456
:1032C0009FC0B6C08A3009F48BC08B3009F46EC041
:1032D000893009F0ADC020C08091B402813A09F074
:1032E000A7C08091E800877F8093E8008091B802B2
:1032F0009091B902892B21F460E281E992E003C048
:1033000060E080E090E070E00E946E188091E8003C
:103310008B778093E8008CC08091B402813209F0F1
:1033200087C08091B8029091B902009719F0029776
:1033300009F07EC08091E800877F8093E80080914B
:10334000E80082FD05C080913A048111F8CF70C079
:103350002091F3008091F20090E0922B029731F4DB
:103360008091F100813011F0863021F48091F100DC
:10337000809390028091E8008B7756C08091B402D0
:10338000813A09F055C08091B8029091B902892B19
:1033900009F04EC08091E800877F8093E80080911B
:1033A000E80080FFFCCF80910A0139C08091B4020F
:1033B0008132F1F58091B8029091B902892BC1F563
:1033C0008091E800877F8093E8000E941A1880911E
:1033D000B60280930A0110928E020E94EB2828C048
:1033E0008091B402813221F58091E800877F80933B
:1033F000E8000E941A188091B70280938F0218C0CB
:103400008091B402813AA1F48091E800877F809393
:10341000E8008091E80080FFFCCF80918F028093CC
:10342000F1008091E8008E778093E8000E941A18DE
:103430008091E80083FFDFC18091B4029091B502D2
:10344000492F50E04A30510508F0D5C1FA01E9583A
:10345000FF4F0C944E30803821F0823809F0CBC1F8
:1034600008C08091B1029091B202992389F08260E4
:103470000FC08091B8028F70873008F0BCC1809374
:10348000E9008091EB0085FB882780F91092E90024
:103490009091E800977F9093E8008093F10010925C
:1034A000F10070C1282F2D7F09F0A5C1882319F0E4
:1034B000823061F0A0C18091B602813009F09BC1D9
:1034C000933009F080E08093B2022EC08091B60262
:1034D00081112AC08091B8028F702FEF280F2630FB
:1034E00008F089C18093E9002091EB0020FF1CC007
:1034F000933021F48091EB00806214C09091EB0036
:1035000090619093EB0021E030E0A90102C0440FEC
:10351000551F8A95E2F74093EA001092EA008091E5
:10352000EB0088608093EB001092E9008091E80046
:10353000877F8093E8000E941A185DC181115BC1EA
:103540001091B6021F778091E3008078812B8093E1
:10355000E3008091E800877F8093E8000E941A18BA
:103560008091E80080FFFCCF8091E3008068809329
:10357000E300111102C082E001C083E080933A04AD
:103580003AC18058823008F036C12091B60230919D
:10359000B7022C3D53E0350779F583E08A838AE250
:1035A00089834FB7F894DE01139620E03EE051E2A4
:1035B000E32FF0E050935700E49120FF03C0E29521
:1035C000EF703F5FEF708E2F90E0EA3010F0C796FB
:1035D00001C0C0968D939D932F5F243149F74FBF53
:1035E0008091E800877F8093E8006AE270E0CE0176
:1035F00001960E946E18B4C08091B8029091B902F1
:10360000432F552743305105A9F068F44130510547
:1036100009F400C14230510509F0EDC08BE590E09E
:10362000E9EBF6E04BC04132510529F14232510538
:1036300089F1E1C0C901992781309105A1F058F0C5
:10364000029709F0D8C0E6E2F7E0E4918E2F90E00F
:10365000E6E2F7E030C0E4E7F7E0E4918E2F90E097
:10366000E4E7F7E028C0EAE4F7E0E4918E2F90E089
:10367000EAE4F7E020C08330910508F0BCC0880F71
:10368000991FFC01EE55FE4F0190F081E02D89E07D
:1036900090E014C08330910508F0ADC0FC01EE0F3E
:1036A000FF1FE456FE4F0190F081E02DDC01A7568C
:1036B000BE4F8C9190E0009709F49DC02091E800E6
:1036C000277F2093E8002091BA023091BB0228178F
:1036D000390708F4C90140E0009789F120913A04C4
:1036E000222309F43DC02530D9F12091E80023FDC3
:1036F00037C02091E80022FD2FC02091E80020FF74
:10370000EBCF4091F3002091F20030E0342B009792
:1037100059F02830310540F444914093F10031963E
:1037200001972F5F3F4FF3CF41E02830310509F07B
:1037300040E02091E8002E772093E800CDCF4111A2
:10374000CDCF0AC080913A04882351F0853041F0F2
:103750008091E80083FD04C08091E80082FFF2CFF1
:103760008091E8008B778093E80045C0803809F0AD
:1037700042C08091E800877F8093E8008091B30287
:103780008093F1008091E8008E77D3CE811133C011
:103790008091B6029091B7029927029764F58091C3
:1037A000E800877F8093E8001091B6021093B3027F
:1037B0000E941A18111106C08091E30087FD02C013
:1037C00081E001C084E080933A0442E061EC81E052
:1037D0000E94391842E261EC84E00E94391842E20A
:1037E00061EC82E00E94391842E260EC83E00E94C2
:1037F000391880913A048091E80083FF10C08091CD
:10380000E800877F8093E8008091EB0080628093DE
:10381000EB0005C082E190E0E4E1F7E04FCFAA962B
:10382000E3E00C94FD2E1F920F920FB60F9211241D
:103830002F933F934F935F936F937F938F939F93B8
:10384000AF93BF93CF93DF93EF93FF93C091E900C2
:10385000CF708091EC00D82FD17080FDD0E810920D
:10386000E9008091F000877F8093F00078940E94B7
:1038700046191092E9008091F00088608093F00072
:10388000CD2BCF70C093E900FF91EF91DF91CF91E5
:10389000BF91AF919F918F917F916F915F914F9168
:1038A0003F912F910F900FBE0F901F901895E8ED4C
:1038B000F0E080818E7F80831092E2001092DA0027
:1038C0001092E100A0EEB0E08C9181608C93808139
:1038D0008F77808319BCA7EDB0E08C918E7F8C939D
:1038E00080818F7E808310928D020895A0E0B0E0E9
:1038F000ECE7FCE10C94DC2EC8EDD0E088818F7EF3
:103900008883E7EDF0E080818160808384E082BF7E
:1039100081E080938D0288818E7F888302EE10E0A3
:10392000F80110821092DA0081EEC82ED12CF60137
:10393000108288818F7788838881806888838881D6
:103940008F7D888319BC10923A041092B3021092B2
:10395000B2021092B10290EEE92EF12CF7018081B3
:103960008B7F808388818160888342E060E080E093
:103970000E943918F60180818E7F8083F801808152
:1039800081608083808188608083F70180818E7F61
:103990008083888180618883CDB7DEB7E8E00C94AE
:1039A000F82E1F920F920FB60F9211242F933F9370
:1039B0004F935F936F937F938F939F93AF93BF9337
:1039C000EF93FF938091E10082FF09C08091E200B4
:1039D00082FF05C08091E1008B7F8093E1008091A0
:1039E000DA0080FF2AC08091D80080FF26C0809135
:1039F000DA008E7F8093DA008091D90080FF18C0B2
:103A000080E189BD82E189BD09B400FEFDCF81E07E
:103A100080933A0480918D0281110FC00E94571C3F
:103A20000E94761C8091E20084608093E20005C0D1
:103A300019BC10923A0410928D028091E10080FF2F
:103A400017C08091E20080FF13C08091E2008E7F5A
:103A50008093E2008091E20080618093E200809197
:103A6000D80080628093D80019BC85E080933A0426
:103A70008091E10084FF30C08091E20084FF2CC07F
:103A800080E189BD82E189BD09B400FEFDCF80914E
:103A9000D8008F7D8093D8008091E1008F7E809345
:103AA000E1008091E2008F7E8093E2008091E2004D
:103AB00081608093E2008091B302882311F084E05A
:103AC00007C08091E30087FD02C081E001C083E070
:103AD00080933A0480913A048091E10083FF27C0EB
:103AE0008091E20083FF23C08091E100877F809373
:103AF000E10082E080933A041092B3028091E100E9
:103B00008E7F8093E1008091E2008E7F8093E200BF
:103B10008091E20080618093E20042E060E080E01A
:103B20000E9439188091F00088608093F000FF9126
:103B3000EF91BF91AF919F918F917F916F915F9125
:103B40004F913F912F910F900FBE0F901F9018959E
:103B50002091E4003091E50095E64091EC00842F3F
:103B6000817040FF23C08091E80080FD1DC08091DE
:103B70003A04882399F0853099F08091EB0085FD17
:103B800011C04091E4005091E5002417350729F356
:103B9000915011F09A01E1CF84E0089582E00895F8
:103BA00083E0089581E0089580E008954091E80061
:103BB00042FFDDCF089578941F920F920FB60F92B7
:103BC00011248F939F93AF93BF9380918402909120
:103BD0008502A0918602B09187020196A11DB11DB8
:103BE0008093840290938502A0938602B09387020B
:103BF000BF91AF919F918F910F900FBE0F901F902B
:103C000018959C014FB7F894809184029091850299
:103C1000A0918602B09187024FBF821B930B08953B
:103C20002FB7F8948091840290918502A09186022A
:103C3000B09187022FBF0895ACE5B0E0E2E2FEE16B
:103C40000C94D52E85B7806885BF85B7806885BF01
:103C500084B7877F84BF0FB6F894A89580916000E1
:103C6000886180936000109260000FBE90E080E851
:103C70000FB6F89480936100909361000FBE8CEDB5
:103C800091E19093E1018093E0010E94571C0E9412
:103C9000761C8091E20084608093E20078948091A9
:103CA0003A048823A1F01091E9001F709091EC0074
:103CB000892F817090FD80E8182B1092E900809187
:103CC000E80083FD0E9446191F701093E90082E00E
:103CD00084BD93E095BD9AEF97BD80936E000E94DE
:103CE0006D0890E090935101809350010E94A809C3
:103CF0000E94EE09E2ECF2E0A6EDB2E011921D9214
:103D000022E0E03DF207D1F78EE090E00E946330C0
:103D10008093BC029093BD02FC010E961192E817AD
:103D2000F907E1F789EA8093800089E080938100B8
:103D300024982C983F988AB18F7C8AB96E98479ABC
:103D40008BB180638BB9769A8FE090E00E947D2FD3
:103D50006093BE027093BF028093C0029093C10231
:103D600067708FEF689FB001112475956795759501
:103D700067957727709389006093880070938B0014
:103D800060938A0070938D0060938C000E94E40819
:103D900080E090E00E94832F883E9E4F11F00E94A9
:103DA000C11382E090E00E94752F8093E40284E0CA
:103DB00090E00E94752F182F82E290E00E94752FEC
:103DC000212F30E0382B309389022093880283E042
:103DD00090E00E94752F0E94CB288091D1020E9412
:103DE000A0078091D002811135C080E090E00E9450
:103DF000832F883E9E4F21F00E94C1130E94162BF4
:103E000088E090E00E947D2F609397037093980361
:103E10008093990390939A036E7F71F40E94162BFE
:103E200088E090E00E947D2F609397037093980341
:103E30008093990390939A030E94B32A10920C03E3
:103E40008091970380FF03C086950E94C72C81E074
:103E50008093D0028091D1020E94A0078BE091E074
:103E6000909313048093120488E1E82EF12C94EED1
:103E7000C92E92E0D92E80913A04853009F07EC097
:103E800000E4B02EAA24A39400E112E180913A0448
:103E9000853009F064C080913A04843009F43DC053
:103EA00010920C038091D302811116C0A092D3020C
:103EB00080919703982F91709093D2028E7F809378
:103EC00097032FEF80E792E0215080409040E1F788
:103ED00000C000000E940525109216040FB6F89449
:103EE000A895E09260000FBEB092600083B7817F1A
:103EF000846083BF83B7816083BF7894889583B7DC
:103F00008E7F83BF0FB6F894A8958091600088617A
:103F100080936000109260000FBE8091B2028823EF
:103F200009F4B4CF0E946D0890E090935101809302
:103F300050010E94A8090E94EE09E6EDF2E01192FC
:103F400022E0E43EF207D9F70E94E314E6EDF2E046
:103F5000819181118FC2CE16DF06D1F797CF1092D3
:103F60008E020E94EB280E942E231092D302809191
:103F7000D20281110E94CB2C0E94C0270E94E31420
:103F800015EEA12E12E0B12EA6EDB2E0F501919151
:103F90008D91892792E0E33FF90719F08823B9F35F
:103FA00032C0811130C00E94101E8C018091D40259
:103FB0009091D5020817190709F473C08FEF649622
:103FC0008FAF649765968FAF659766961FAE6697BD
:103FD0000E94101E8160782F68969FAF8EAF689701
:103FE00064964FAD649765965FAD659766966FADC5
:103FF000669768968FAD68970E94FB091093D5026B
:104000000093D4024EC0B6ED8B2EB2E09B2E10E092
:10401000F40151904F01F5016080652481F100E0C9
:1040200077247394872D862121F169960FAF6997C4
:104030006A961FAF6A9791E0872D852109F490E079
:104040006B969FAF6B970E94101E8160782F6D96C4
:104050009FAF8EAF6D9769964FAD69976A965FADCA
:104060006A976B966FAD6B976D968FAD6D970E944B
:10407000FB090F5F770C0630A9F6F50150821F5F30
:10408000FFEFAF1ABF0A1E3009F0C2CF8FB7F89406
:10409000409184025091850260918602709187025E
:1040A0008FBF80910E0490910F04892BC9F08091ED
:1040B000F3029091F4020E94011E8638910580F06F
:1040C00080910E042EE0829FC0011124FC01E45E69
:1040D000FE4F208122FD04C0895E9E4F0E94552321
:1040E00080916701882341F180910B0490910C0429
:1040F000009711F10E94011E20919D0330919E03B3
:1041000028173907C8F49091090480910A04981778
:1041100059F00E94292410929E0310929D03109240
:104120000C0410920B0408C00E94BD2310920C04D2
:1041300010920B040E940D2480919C03882369F047
:104140000E94101E2091F5023091F602821B930B03
:104150008F3F9F4710F40E94C12480910C03882355
:1041600009F4A5C080910B03E0919703E695E81B45
:10417000E0930703823059F4F0E0E757F84FE491F9
:104180000E2F10E0ADE9AA2EA2E2BA2E6BC0863047
:1041900059F4F0E0EA57F84FE4910E2F10E0FDE8F3
:1041A000AF2EF2E2BF2E5EC0893061F4E695F0E0FA
:1041B000ED57F84FE4910E2F10E0E6E9AE2EE7E25E
:1041C000BE2E50C08F3061F4E695F0E0E058F84F15
:1041D000E4910E2F10E070E3A72E77E2B72E42C0D5
:1041E000853159F4F0E0E358F84FE4910E2F10E0D8
:1041F00060EEA62E66E2B62E35C08831F9F0833225
:1042000049F4EBE7F7E00591149153E5A52E52E24E
:10421000B52E28C08432C9F08532F1F48E2F63E0C8
:104220000E942030E92FF0E0E858F84FE4910E2F7B
:1042300010E047E9A42E45E2B42E14C008E210E0D5
:1042400035E6A32E36E2B32E0DC004EF11E02DE2C9
:10425000A22E26E2B22E06C000ED17E092E5A92EAE
:1042600092E2B92E80910803882361F0109208032E
:104270000E94101E909306038093050310920A0378
:10428000109209030E94101EE0910503F0910603AD
:104290008E1B9F0B8F3F9F4750F40E0F1F1F1093D5
:1042A00006030093050385E093E0F50109950E945C
:1042B0002E239091F702891769F08093F7028FB748
:1042C000F894409184025091850260918602709129
:1042D00087028FBF80913A04843009F0CCCD83E00F
:1042E0008093E9008091E80082FFC5CD8091E800CD
:1042F00085FF22C00E94A81D81111CC000E210E0B1
:104300005E01F1E2AF0EB11C08C08091F100F50131
:1043100081935F010150110969F08091E80085FDEA
:10432000F4CF8091E8008B778093E8000E94A81D6D
:10433000882399F391E001C090E08091E8008B77A9
:104340008093E800992309F496CD89A18130E9F1A1
:1043500058F1823021F0843009F480C08CCD8BA1DB
:104360009AA19093F8028093F9028DA19CA1909359
:10437000FA028093FB028FA19EA19093FC0280938E
:10438000FD0242E150E063E270E0CE018F5B9F4F9F
:104390000E94652F84E0898381E0809339048EEF49
:1043A0008A83109238040CC019828CE0E8EAF1E0AC
:1043B000DE01129601900D928A95E1F78EEF8D87BE
:1043C000CE0101960E94C22D56CD0EEF12E084E080
:1043D000A82E83E0B82E0E94CB24F80181939193FC
:1043E0008F01AE16BF06B9F781E089839091FE0276
:1043F0009A839091FF029B83909100039C839091FC
:1044000001039D83909102039E83909103039F83F8
:104410009EEF988780933804CE0101960E94C22DAA
:1044200042E150E063E270E0CE0101960E94652F08
:10443000FE01319682E183301CF09189928B01C09C
:10444000128A815031978F3FB1F742E150E063E229
:1044500070E0CE0101960E94892F0DCD8091390424
:10446000882309F408CD80E00E9488288AA10E9450
:10447000BF2801CD09BD19BD09B400FEFDCF809153
:10448000D8008F7D8093D8008091E0008260809377
:10449000E0008091E00081FDFCCF10928E020E942E
:1044A000EB28F4CC0895A4E0B0E0E9E5F2E20C9446
:1044B000E02E8C0180910F0381110AC09E012F5FB5
:1044C0003F4F4FEF6FEF0E94262B8A8180930F039F
:1044D000F8018481813051F028F0823061F44091FC
:1044E0000F030AC080910F0340E007C060910F03E3
:1044F00040E080E003C040E080E060E00E94A12A4C
:10450000F801848190E0019663E070E00E943A3007
:1045100084832496E4E00C94FC2ECF93DF93EC018B
:10452000E7E9F3E0438162818C810E94B32B8C81A7
:104530008F5F8C83DF91CF910895CF93DF93EC0150
:10454000EC81F0E0EB56F84F4491E7E9F3E062814B
:1045500081810E94B32B8C818F5F8C83DF91CF91FF
:1045600008951F920F920FB60F9211248F939F936D
:10457000AF93BF9380911604811113C08091840280
:1045800090918502A0918602B09187024196A11D6B
:10459000B11D8093840290938502A0938602B0930C
:1045A0008702BF91AF919F918F910F900FBE0F9097
:1045B0001F90189520910A012223C9F020918802AA
:1045C00027FF15C0262F2695269526952E31C8F44F
:1045D000FC01E20FF11D677081E090E001C0880FDF
:1045E0006A95EAF780959281892382830895FC0178
:1045F00006962281621301C012823196E817F907EC
:10460000C1F7089520911404309115042817390733
:1046100071F09093150480931404E0911204F091CA
:104620001304309721F00084F185E02D0995089559
:1046300020911004309111042817390771F09093DC
:10464000110480931004E0911204F0911304309748
:1046500021F00680F781E02D09950895E09112047C
:10466000F0911304309729F00190F081E02D099525
:10467000089580E00895CF93DF93EC01EA85FB85F0
:10468000309719F06C857D8509958B810E943D14CA
:104690008C810E9444140E944B1486E0FE0111920A
:1046A0008A95E9F7DF91CF910895CF93DF93EC01DD
:1046B0008D8181FD18C082608D8390910D048B8166
:1046C000892B80930D0490918E028C81892B80938D
:1046D0008E020E944B14E885F985309721F06C8595
:1046E0007D85CE01099510920F0410920E048D81E4
:1046F00080FD03C0CE010E943B23DF91CF9108953E
:10470000452B41F06F3F41F491E08F3F09F090E07D
:10471000892F03C081E001C080E081700895BC0151
:104720004091090480910A04942F981729F1292FA8
:1047300030E0F901EE0FFF1FEF5FFB4F0190F081BA
:10474000E02DE617F70799F487E0869FF001879F31
:10475000F00D1124E05AFE4F81E0848394130CC0C5
:104760002F5F3F4F237033272093090408952F5F55
:104770003F4F922F9370D9CF0895EF92FF920F93EE
:104780001F93CF93DF938091A003882309F440C047
:1047900000919F038CE0F82E8091A0030817A0F5EC
:1047A000EE24E394E00EE0929F0310E0F09EE0011F
:1047B000F19ED00D1124CF55DC4F4B815C81698176
:1047C00088810E94802381111DC08E819F81892B49
:1047D00021F488859985019651F4288139814A818F
:1047E0005B816C817D818E819F810E940C2AF09E6D
:1047F000F001F19EF00D1124EF55FC4F148213824D
:1048000010920D040E2DC8CF1092A00310929F039A
:10481000CDB7DEB7E6E00C94FA2E10929E0310920C
:104820009D0380916501811104C010926401109272
:104830006601089510920C0410920B041092670107
:1048400080910A04809309040E940D240E94BD23D4
:104850000895A0E0B0E0EFE2F4E20C94D22EC09113
:104860000904E7E0FE2E01E010E0FCE02F2EAEEFA1
:10487000EA2E80910A04C81709F47AC0D0E0FE013C
:10488000EE0FFF1FEF5FFB4F80819181F89EF001DB
:10489000F99EF00D1124E05AFE4F2481211165C0CC
:1048A0006090A003A1EAB3E020E030E0712C5F014A
:1048B000261508F058C01A964D905C901B97F5018C
:1048C000808091804FEF5FEF312CC32CD12CF6010B
:1048D000EE0FFF1FE80DF91D6591749146165706FE
:1048E00009F4A601672B11F03394EFCF4F3FFFEF90
:1048F0005F07A9F1B80102C0660F771F4A95E2F77A
:10490000762AA801032C02C0440F551F0A94E2F72F
:1049100041505109672D70E046175707E1F4229E78
:10492000F001239EF00D1124EF55FC4FF89ED001AD
:10493000F99EB00D1124A05ABE4F12962D913C91B4
:10494000139737832683E082E1829187808771E025
:1049500015967C9308C014961C921E9213972F5F95
:104960003F4F1C96A5CF0E948F232196C37081CF05
:104970000E94BD230E940D24CDB7DEB7E2E10C9466
:10498000EE2E80919C03882329F082E20E94FF286A
:1049900010929C030895CF93DF930E94552F66E0F9
:1049A00070E00E943A30D82F0E94552F6EE070E0E0
:1049B0000E943A30C82F6D2F782F80E00E9421127C
:1049C0000497C59718F48D2F9C2F02C00E94CB240A
:1049D000DF91CF9108959091970390FF04C0969531
:1049E000981748F003C0811106C090E0961718F49C
:1049F0000E94E22C08950E94D42C0895882311F07F
:104A0000FA0101C0FB0109950895EF92FF920F93FF
:104A10001F93CF93DF938091970380FF08C000E13D
:104A200013E08CE4E82E83E0F82EF8011BC0E0E1EF
:104A3000F3E08CE493E011821082128213823496A8
:104A40008E179F07C1F7EBCF381708F4832F8383A6
:104A5000381B3183281B2083981B92833496EE16D3
:104A6000FF0641F0928120813181892F291760F75B
:104A7000822FEACF80910403882381F18091500135
:104A800090915101892B51F580914F01882331F18B
:104A900065E070E084E80E94F42D892B19F01092F3
:104AA0004F011AC0C0E1D3E065E070E088810E9448
:104AB000672E65E070E089810E94672E65E070E0F6
:104AC0008A810E94672E65E070E08B810E94672ECC
:104AD0002496EC16FD0641F70E94BA2E579A8BB128
:104AE0008F779BB190682FB7F894E016F10699F094
:104AF000F80131918F0148E09BB9000000C037FFF9
:104B00008BB9330F000000C000C000C08BB900C0DB
:104B10004A9591F7EACF2FBF8FE594E00197F1F71F
:104B200000C00000CDB7DEB7E6E00C94FA2EA0E09E
:104B3000B0E0EDE9F5E20C94D92EFC01A28094805E
:104B400081E08483E5E9F7E0B490E4E1F8E0E49102
:104B5000CCE4D3E0F0E1EF2EF3E0FF2ECC24CA94B6
:104B6000D12CEB190E2F10E022E02A1530F08091A5
:104B700098038883809199038983911003C01B82D5
:104B80001A8255C08B818823F9F081508B832FEFD7
:104B9000829FC00111246C8170E00E94BE2EFB0137
:104BA000FF27EB56F84F8491E82FEB192FEFE29F88
:104BB000C0011124B8010E94BE2E80919A03689F03
:104BC000B00111247A8333C00E94552F20919A039B
:104BD0002695215830E0A901440F551F322F222776
:104BE000240F351F232F33278217930704F582E004
:104BF0008A1588F40E94552FB6010E943A308883A6
:104C00000E94552F209199032695622F70E00E94F3
:104C10003A30280F29831A8280919A03843120F038
:104C2000893C18F088EC01C084E18C838B83970168
:104C30004A81698188810E94262B259624E0E20E14
:104C4000F11C83E0C739D80709F08ECF0E940525F3
:104C5000CDB7DEB7EBE00C94F52EEF92FF920F93F9
:104C60001F93CF93DF938C01C0E1D3E0E12CF12CB3
:104C7000F8018481F7E0EF16F1041CF4882339F081
:104C800002C0811104C09E0140919A0302C09E019E
:104C900040E060919903809198030E94262B8FEF4A
:104CA000E81AF80A24969FE0E916F10409F70E9431
:104CB0000525F801848190E001968170992784830D
:104CC000CDB7DEB7E6E00C94FA2EA0E0B0E0EBE65C
:104CD000F6E20C94D82EEC014C81042F10E09801E0
:104CE000D8010E9411309B01AC010E94DC2F6B01A6
:104CF0007C01E0E2F0E0E01BF10BA5E5B0E09B01F8
:104D0000AC010E94DC2F4B015C019F01DF010E947E
:104D100054309B01AC010E94E72F9B01AC012C0D8C
:104D20003D1D4E1D5F1DC501B4010E94EF2F822F56
:104D3000F22E99E2921728F093E0299F9001112416
:104D40000DC025E530E0281B3109C901880F991FE6
:104D5000280F391F37FF02C02F5F3F4F359527952A
:104D6000122F109590E1C92E93E0D92E00E085E531
:104D7000E82EEF1801FD02C08E2D01C08F2D960187
:104D8000412F609199030E94262B0F5F84E0C80E8B
:104D9000D11C0F3079F70E9405258C81811102C04A
:104DA00091E003C0803219F49FEF90935F019091DE
:104DB0005F01890F8C83CDB7DEB7ECE00C94F42E45
:104DC0000F931F93CF93DF93C0E1D3E0FE011182D5
:104DD000108212821382349683E0EC34F807B9F71C
:104DE00000E010E080910E03082E000C990B0817CC
:104DF000190794F080915E01082E000C990B801722
:104E0000910754F09E0140919A036091990380911B
:104E100098030E94262B04C0198218821A821B82D2
:104E20000F5F1F4F24960F301105E1F60E940525F4
:104E300080915D0190910E03980F90930E03209145
:104E40005E01280F20935E01121614F49E301CF0B0
:104E5000819580935D01DF91CF911F910F9108950E
:104E6000A0E0B0E0E6E3F7E20C94DB2EFC018281E7
:104E700080FF03C0DD24DA9402C0DD24D39400E176
:104E800013E0C0E0D0E02FE0B22EF80111821082D2
:104E90001282138294E0E92EF12CC12C80910D0333
:104EA0008C0D80312CF06B2D0E942C30892F02C08C
:104EB00087FD815F082E000C990BC817D90791F464
:104EC00080919A038E9DA0018F9D500D11245595C0
:104ED000479555954795980160919903809198035E
:104EE0000E94262BCD0CF1E0EF1AF108B9F62196BD
:104EF0000C5F1F4FCF30D10541F60E9405258091F0
:104F00000D0391E0D91206C0811102C08EE007C0E6
:104F1000815005C090E00196BE010E943A30809316
:104F20000D03CDB7DEB7E9E00C94F72EEF92FF92B8
:104F30001F93CF93DF93EC0180E1E82E83E0F82EFE
:104F400010E08C81970140919A0360919903810F41
:104F50000E94262B1F5E84E0E80EF11C1F3F89F79C
:104F60000E9405259A818C8190FF02C08F5F01C04D
:104F700081508C83DF91CF911F91FF90EF90089526
:104F800060919703669570E04BE050E082E591E018
:104F90000E948431892B19F481E080930C030E94D4
:104FA000101E9093060380930503089580E090E01F
:104FB0000E94182380E090E00E94022310920D04CA
:104FC0000E944B140895CF92DF92FF920F931F938C
:104FD000CF93DF936C010091D10280917A02082B6C
:104FE000C7E0D0E010E0C8010C2E02C0959587956F
:104FF0000A94E2F780FD04C02197A8F7F12C09C0BC
:10500000FC2EB6018C2F0E9421120E943A120197A9
:1050100099F38F2DDF91CF911F910F91FF90DF902A
:10502000CF900895CF93DF93EC010E94E327BE0158
:105030000E9421120E943A12DF91CF910895292FE8
:105040009E3078F5863068F590E036E0239F800D3D
:10505000911D1124682F677023E0969587952A95F6
:10506000E1F7FC01EE0FFF1FE80FF91FE95EFB4FB0
:1050700040E050E080E0219130E0062E02C03695FD
:1050800027950A94E2F721703327042E01C0220FDE
:105090000A94EAF7822B4F5F5F4F4330510559F76F
:1050A000089580E00895292F9E3088F5863078F5A0
:1050B00090E036E0239F800D911D1124282F27704A
:1050C00051E001C0550F2A95EAF723E096958795A0
:1050D0002A95E1F7FC01EE0FFF1FE80FF91FE95ECB
:1050E000FB4F20E030E070E04081CB01022E02C097
:1050F000969587950A94E2F7817081958427852398
:10510000842781932F5F3F4F2330310569F708953E
:10511000A0E2B0E0EEE8F8E20C94E12E0E94A007D5
:10512000182F809139048823A9F02FEF80E792E0AF
:10513000215080409040E1F700C0000085E0898365
:10514000812F0E9444078A838EEF8B83CE010196C4
:105150000E94C22D1093D1020E94D627A096E3E0B0
:105160000C94FD2E21E030E001C0220F8A95EAF771
:1051700020958091D10282230E948828089521E001
:1051800030E001C0220F8A95EAF78091D102822B8C
:105190000E948828089580937A020E94D627089555
:1051A00092959F70963079F010F4925001C09A5009
:1051B000923068F4803F69F018F4883E40F409C0EA
:1051C000843F29F406C0883E20F0813F11F080E042
:1051D000089581E0089580910A01882331F080913B
:1051E000880287FF02C08EE101C086E0E0EFF1E0B7
:1051F000DF011D928A95E9F70E94D627089588233A
:1052000021F00E943D140E944B140895882339F028
:1052100090910D04892B80930D040E944B140895E6
:10522000882321F00E9444140E944B14089588237F
:1052300039F090918E02892B80938E020E944B143C
:105240000895882349F1682F8CEF860F813A28F45E
:105250008EEE91E00E94DA220CC080E2860F883048
:1052600058F4677081E001C0880F6A95EAF70E94E0
:1052700044140E944B1408958BE5860F833028F464
:1052800080E090E00E9418230895685A673120F466
:1052900080E090E00E9402230895CF93882309F4D0
:1052A0009AC0C82F8CEF8C0F813A08F05EC08091B5
:1052B0000A018823E1F08091880287FF18C0EC2F53
:1052C000E695E695E695F0E0E251FE4F8281282FC3
:1052D00030E04C2F477081E090E002C0880F991FAA
:1052E0004A95E2F782239323892B59F411C0E0EF0A
:1052F000F1E08191C81729F081E0E63FF807C9F78E
:1053000007C06C2F8EEE91E00E94DA220E944B14AF
:1053100080910A018823C9F08091880287FF15C017
:10532000AC2FA695A695A695B0E0A251BE4FC7702A
:1053300081E090E001C0880FCA95EAF712969C912F
:105340001297892B12968C9320C0A0EFB1E0EFEF5B
:1053500080E09D91C917C9F0EF3F19F4911101C088
:10536000E82F8F5F8630A9F72DC080E28C0F883040
:1053700078F4C77081E090E001C0880FCA95EAF721
:1053800090918E02892B80938E020E944B1423C031
:10539000EBE5EC0FE33040F4F0E0E859FE4F80819C
:1053A00090E00E94182317C0C85AC731A0F4EC2F10
:1053B000F0E0EE0FFF1FE559FE4F808191810E94C2
:1053C000022309C0EF3F09F30E2E000CFF0BE25140
:1053D000FE4FC283DACFCF9108951F93CF93DF930F
:1053E000182F893319F0C0E0D0E002C0C0E5D0E04A
:1053F000812F0E944D29209741F08FE99FE001976E
:10540000F1F700C000002197F6CF812F0E942129DB
:10541000DF91CF911F910895A0E1B0E0E2E1FAE2BF
:105420000C94DE2E29873A874B875C876D877E87B1
:105430008F87988BCE0109960E94711681114AC000
:1054400088E0FE013996DE01119601900D928A9551
:10545000E1F7E984FA840C851D85A8016F2D8E2D56
:105460000E948023811136C0A0911602B0E0CD01C8
:105470000196877099272091570230E08217930791
:1054800081F1E982FA821D830C8393E0AA0FBB1F8E
:105490009A95E1F7A95EBD4F98E0FE013196019023
:1054A0000D929A95E1F7809316020E94D91412C0CA
:1054B00028E0829FC0011124895E9D4F0E947116D1
:1054C0008823F1F08091570290E001968770992728
:1054D0008093570280915702909116028913E8CF6A
:1054E0000FC010928E020E94EB28109216021092AA
:1054F0005702EEE0F2E088E0DF011D928A95E9F7BD
:105500006096E6E00C94FA2ECF93DF93EC014B818A
:105510005C81698188810E94802381110EC08E8107
:105520009F81009719F00E943A1204C088819981E6
:105530000E9412280E94D02801C080E0DF91CF9104
:1055400008959091970390FF0DC0E0E1F3E081830F
:10555000608342831382349693E0EC34F907B9F701
:105560000E940525089580919703282F269530E005
:105570002115310519F48170826005C02B32310587
:1055800024F081708465809397030895CF92DF9211
:10559000EF92FF926B017C010E94B32AB701A60132
:1055A00088E090E00E94AB2FFF90EF90DF90CF90CB
:1055B000089580919B03882319F0815080939B0369
:1055C00060919703709198038091990390919A0349
:1055D0000E94C62A089580919B03833018F48F5F40
:1055E00080939B0360919703709198038091990336
:1055F00090919A030E94C62A0895E7E9F3E080811A
:105600008E7F808360817181828193810E94C62A0E
:1056100010920C032FEF80E792E0215080409040E1
:10562000E1F700C000000E9405250895E7E9F3E0D6
:1056300083E0808311828FEF828383831482608171
:105640007181828193810E94C62A0895A0E0B0E012
:10565000ECE2FBE20C94DA2EE82EF62EE901E42FC0
:10566000F0E0611106C0EB56F74FE4914E2F2E2F5C
:1056700071C0062F10E0EB56F74F4491F42FC42E63
:10568000D12C26E0829FC00111242FEF30E0B90118
:105690000E94BE2E5BEA5603C001579F900D112455
:1056A0008E0D911D8E0D911D582F550F580FD9013C
:1056B000A01BB10BAC9DC001AD9D900DBC9D900D8C
:1056C0001124E92FF59ED0011124AB2FBB277901BE
:1056D000EA1AFB0AEC9CD001ED9CB00DFC9CB00DCD
:1056E00011245901A51AB108A09E7001A19EF00CC9
:1056F000B09EF00C1124EF2CFF242E193F092C9D95
:1057000080012D9D100D3C9D100D1124212F623024
:10571000710591F048F461157105E1F06130710592
:10572000B9F4242F4B2F16C06430710569F040F096
:105730006630710579F00CC0242F492FE12F0AC083
:10574000492FEF2F2B2F06C0292FE42F412F02C006
:10575000292FEB2F49832883EA831B82CDB7DEB73D
:10576000EAE00C94F62EA4E0B0E0E9EBFBE20C9446
:10577000E22E9091970390FF0AC09E012F5F3F4F4A
:105780000E94262B4B8169818A810E94A12A24963E
:10579000E2E00C94FE2EA4E0B0E0E1EDFBE20C941C
:1057A000D52EF82E762EE42E622E9091970390FF40
:1057B00067C0E92FE695AE2FB0E0AC54BE4F8C9198
:1057C00080930B039E7F923061F49E012F5F3F4FC9
:1057D0008F2D0E94262B4B8169818A810E94A12AEC
:1057E0003DC0823019F4E0909A0338C0863019F435
:1057F000F090980333C08930D9F3893179F5E951B4
:105800008E2F8170582EE695F0E0EB56F64FE4911E
:105810000E2F10E080E1C82E83E0D82EA12CB12CF1
:105820009FE0892E912CC501B4010E94BE2E8F2DC0
:10583000511002C0860F01C0861B96014E2D672DA8
:105840000E94262BA00EB11E84E0C80ED11C8CE451
:10585000C81683E0D80639F70E940525F092980310
:1058600070929903E0929A03662051F06091970339
:10587000709198038091990390919A030E94C62A8F
:105880002496EFE00C94F12EE7E9F3E043812CE05D
:10589000421B08F440E021E0628181810E94CB2B11
:1058A0000895E7E9F3E043812CE0420F08F44FEF5D
:1058B00021E0628181810E94CB2B0895E7E9F3E02A
:1058C00062812FEF621B08F460E021E04381818157
:1058D0000E94CB2B0895E7E9F3E062812FEF620F7E
:1058E00008F46FEF21E0438181810E94CB2B089562
:1058F000E7E9F3E0818121E0438162818C500E94DD
:10590000CB2B0895E7E9F3E0818121E043816281B7
:10591000845F0E94CB2B08959091970390FF36C02F
:105920009170811102C0926006C08B3210F09465B4
:1059300002C0880F982B90939703662351F06091D3
:105940009703709198038091990390919A030E9414
:10595000C62A60919703669570E04BE050E082E5BF
:1059600091E00E948431892B19F010920C0302C03F
:105970000E94C02781E08093080320E040919A03B1
:1059800060919903809198030E94CB2B089560E069
:105990000E948C2C0895E7E9F3E080818160808388
:1059A00086950E94C72C089561E00E948C2C089572
:1059B000809197038695815009F48AE261E00E9404
:1059C0008C2C08958091970386958F5F8B3208F019
:1059D00081E061E00E948C2C0895A0E0B0E0E3EF4C
:1059E000FCE20C94DA2EEC018AE0A82EFE01249150
:1059F000222309F498C0213009F03DC031968491EA
:105A0000813021F42296FE01849187C0823031F4E6
:105A10002296FE0184910E944D2983C0833031F487
:105A20002296FE0184910E9421297BC0843009F0D6
:105A300077C02296FE01249180E090E030E0205370
:105A400031092A30310560F4A89EA001A99E500DAD
:105A50001124C901840F951F2196FE012491EECFD8
:105A6000009709F45EC0EFE9FFE03197F1F700C05D
:105A700000000197F5CFE22FF0E0E653F64FB49027
:105A8000822F86958695869590E0FC01E654F64F28
:105A9000E4902770F12C022E02C0F594E7940A944A
:105AA000E2F7F1E0EF22FF24FC01E655F64FC49047
:105AB000D12C022E02C0D594C7940A94E2F731E0AB
:105AC000C322DD24FC01E656F64F049110E002C02B
:105AD000159507952A95E2F701701127E114F10455
