:100000000C9494040C94B1040C94B1040C94B104B9
:100010000C94B1040C94B1040C94B1040C94B1048C
:100020000C94B1040C94B1040C94631A0C94A519AB
:100030000C94611F0C94B1040C94B1040C94B104A1
:100040000C94B1040C94B1040C94B1040C94B1045C
:100050000C94B1040C946D1B0C94B1040C94B10479
:100060000C94B1040C94B1040C94B1040C94B1043C
:100070000C94B1040C94B1040C94B1040C94B1042C
:100080000C94B1040C94B1040C94B1040C94B1041C
:100090000C94B1040C94B1040C94B1040C94B1040C
:1000A0000C94B1040C94B1040C94B104510851089F
:1000B00081088108EC080C0A0C0A0C0A0A097D095F
:1000C0008F098F09450D480D4B0D4E0D530D580DE1
:1000D0005D0D6D0D7B0D890D970DA50DB30DC10D3A
:1000E000230F260F290F2C0F2F0F320F350FBD179F
:1000F000E4178D19E4178D19301853188D19481904
:10010000581901012901043130307C010129010411
:100110003130307C01012901043130307C0101296A
:1001200001043130307C0101290001012901043131
:1001300030307C01012B01043130307C01012B0176
:10014000043130307C01012B01043130307C01015D
:10015000290029002B00E000E100AE5D00001E0038
:10016000140004001D00010021591F001A00160090
:100170001B000100E3002000080007000600E20069
:100180000254210015000900190002542C0022001D
:1001900017000A00050000000100230000570000BE
:1001A0000157000001002200025700000357000021
:1001B0004B0023001C000B00110000000100240074
:1001C00018000D00100001544E0025000C000E0018
:1001D0003600E2002C41260012000F00370001001B
:1001E0002C4327001300330038000100290035009C
:1001F0002A002800340006530000B65D2B020100DF
:10020000010001000000010001002D0201000100B9
:100210000100010031023100010001000100010074
:1002200001002E02010001000100010001002D006B
:10023000010001000100010001002E00010000008A
:1002400001000100010000000100000001000100A8
:100250000100000001000000010001000100010098
:1002600001000000010001002F002F022602010002
:1002700001000100300030022702010001000100EE
:100280000100010001000100010001000100010066
:100290000100010001000100010001000100010056
:1002A000000029002B03E000E10001000000010034
:1002B000140404041D04010001003B041A04160484
:1002C0001B040100010001000804070406040100EA
:1002D00001000100150409041904010001000100D6
:1002E00017050A04050400000100010001000000D8
:1002F00001000000010001000100000001000000F9
:10030000010001001C045000110400000100010064
:100310001804510010040100010001000C045200F7
:1003200036040100E500010012044F00370401000B
:10033000010001001304330438040100010001002E
:1003400001000100010001000000010001000100A6
:100350000100010000000100010001000100010096
:100360000100010001000100010001000100010085
:100370000100010001000100010001000100010075
:100380000100010001000100010001000100000066
:100390000100010001000000010000000100010057
:1003A00001000000010000000100010001005000F8
:1003B00001000000010001000100520001000100E5
:1003C00001000100010051000100010001000100D5
:1003D00001004F00010001000100010001000100C7
:1003E0000100010001000100010001000100010005
:1003F00000002900010001000100010000000100CF
:1004000001000100010001000100010001000100E4
:1004100001000100010001000100010001000100D4
:1004200001000100010001000100010001000100C4
:1004300001000100010000000100010001000000B6
:1004400001000000010001000100000001000000A7
:1004500001000100110023022E00000001004C00E9
:10046000240021001E003600010038002500220073
:100470001F00270001002502260023002000630042
:1004800001002D002E0228002B002B12010001007C
:10049000010001000100010000002900010001002D
:1004A0000100010000003A003F004400010001008B
:1004B00001003B00400045000100010001003C003C
:1004C000410068000100010001003D004200690098
:1004D0000100010001003E0043006A00010000002D
:1004E0000100A800A9000000AA000000010001000E
:1004F000AE00000048000000010001000100010002
:1005000001000000010001000100010001000100E4
:10051000010001000100010001000100AB00010029
:100520000100010001000100AC0001000100010018
:1005300001000100010001000100010001000100B3
:100540000000B75D01000100010001000000010092
:100550000100010001000100010001000100010093
:100560000100010001000100010001000100010083
:100570000100010001000100010001000100010073
:100580000100010001000000010001000100000065
:100590000100000001000100010000000100000056
:1005A0000100010001000100010000000100010044
:1005B0000100010001000100010001000100010033
:1005C0000100010001000100010001000100010023
:1005D00001000100010001000100100F01000100F5
:1005E0000100005C01000100000005010980A1017B
:1005F000850319012AB700150126B700950175106A
:100600008100C0050C0901A101850419012AA0027D
:10061000150126A002950175108100C0050109068B
:10062000A1018506050719E029E7150025019508B0
:10063000750181020507190029EF1500250195F0C4
:1006400075018102050819012905950575019102B9
:10065000950175039101C00660FF0961A10109625E
:10066000150026FF009520750881020963150026F4
:10067000FF00952075089102C005010906A101053A
:100680000719E029E71500250195087501810295F4
:1006900001750881010507190029FF150026FF00D3
:1006A000950675088100050819012905950575014C
:1006B0009102950175039101C009025B00030100DD
:1006C000A0FA090400000103010100092111010041
:1006D000012240000705810308000109040100020E
:1006E00003000000092111010001222200070582F8
:1006F0000320000107050303200001090402000193
:1007000003000000092111010001226D000705848A
:100710000320000112010002000000089732754911
:1007200001000102000122034500720067006F0012
:1007300044006F007800200045005A00200053005C
:10074000680069006E006500000028035A0053002D
:100750004100200054006500630068006E006F00D7
:100760006C006F006700790020004C00610062009F
:1007700073000000040309040001010101010101EB
:100780000101020202020202020202030303030346
:100790000303030404040404040405050505050615
:1007A00006060606070707070708080808090909D3
:1007B000090A0A0A0B0B0B0C0C0C0D0D0D0E0E0E7C
:1007C0000F0F0F101011111112121313141415150D
:1007D00016161717181819191A1A1B1B1C1D1D1E7F
:1007E0001E1F2020212222232424252626272829D3
:1007F000292A2B2C2D2D2E2F303132323334353601
:100800003738393A3B3C3D3E3F4041424344454600
:100810004748494A4C4D4E4F5051535455565859DC
:100820005A5B5D5E5F616264656668696B6C6D6F83
:100830007072737577787A7B7D7E808283858788F6
:100840008A8C8E8F91939596989A9C9EA0A2A3A530
:10085000A7A9ABADAFB1B3B5B7BABCBEC0C2C4C631
:10086000C9CBCDCFD1D4D6D8DBDDDFE2E4E7E9EBED
:10087000EEF0F3F5F8FAFDFF0000000000000000C4
:100880000000000000000000000000000000000068
:100890000000000000000000000000007E0F00D4F7
:1008A000FFFFFFC70000007800000000000000000C
:1008B0002A2B2800000000000000000000000000BB
:1008C00000000029000000002C1E342021222434C6
:1008D0002627252E362D3738271E1F202122232498
:1008E00025263333362E37381F0405060708090A34
:1008F0000B0C0D0E0F101112131415161718191AD0
:100900001B1C1D2F3130232D350405060708090A4D
:100910000B0C0D0E0F101112131415161718191AAF
:100920001B1C1D2F3130354C11241FBECFEFDAE0D8
:10093000DEBFCDBF11E0A0E0B1E0ECE1F2E502C026
:1009400005900D92AE39B107D9F723E0AEE9B1E0D9
:1009500001C01D92A532B207E1F70E94E11B0C9481
:100960000C290C940000A5E2B0E0E9EBF4E00C9453
:100970007C26FC018081918123813481232B31F0FD
:100980009F3F31F491E08F3F19F403C091E001C023
:1009900090E090FD8AC57F0185E0DE01919601908F
:1009A0000D928A95E1F7D70112962C9189A19AA10F
:1009B000222349F00E944D22182F682F89A19AA165
:1009C0000E94BD2203C00E948922182F69A17AA12A
:1009D000812F0E94D10F8C01F70182818823E1F0E1
:1009E0008091F4029091F5020097B1F08017910781
:1009F00099F0FEE08F9FC0011124FC01E45EFE4FE0
:100A0000208124602083895E9E4FDC010D931C931E
:100A10000E9405201092F30280911E03882309F49E
:100A20004FC0F70182818111DCC2E091A001E33067
:100A3000A0F481E08E0F8093A001F0E0EE0FFF1F85
:100A4000EC55FD4FD7018D919C919183808382E07D
:100A50008983CE0101960E946625BFEFE3EDF0E3A6
:100A6000B150E040F040E1F700C000008091A001EB
:100A7000833009F0B6C21092A001EAEAF2E0A4EADB
:100A8000B2E080EB92E0318111962C9111973213F4
:100A900030C030812C9132132CC0329612968E17B2
:100AA0009F0789F784E0898381E080931F038EEF9D
:100AB0008A8310921E03CE0101960E94662591C280
:100AC00080911F038823D1F0D70112968C9188233F
:100AD00011F086E001C087E08983F70180818A8375
:100AE00081818B838EEF8C83CE0101960E946625D7
:100AF00005C083E0898310921F03D9CF033BFDE536
:100B00001F07E9F5D70112968C91882309F4C5C017
:100B100090916A0281E0890F8770987F853020F478
:100B2000892B80936A0202C090936A0280916A02C4
:100B30008770BFEF8B9FC001112495958795959580
:100B400087959927909389008093880090938B00D4
:100B500080938A0090938D0080938C0040916A026C
:100B600050916B0260916C0270916D028FE090E089
:100B70000E944F2780917D020E942F0D8EC0053B61
:100B8000EDE51E0711F128F4043B2DE5120721F1D4
:100B90002FC0063B8DE5180729F0073B9DE5190797
:100BA00051F026C0D70112968C91882309F475C0A4
:100BB0008AE291E007C0F7018281882309F46DC0C1
:100BC00082E091E00E94912468C0D70112968C9136
:100BD000882309F406C26CC1F7018281882309F4D5
:100BE00000C29091A10181E089278093A101F9C100
:100BF000C80197558F3F910511F008F049C0580181
:100C0000BB242EE0029FF0011124CF01895E9E4F8C
:100C10006C01D70112969C911297E45EFE4F808181
:100C200090FB80F9808312969C91992309F448C126
:100C30000E94A21B9093A00280939F02F6018281E2
:100C40008F5F82839091F30280913A02892B838394
:100C50008091250284830680F781E02D309739F05A
:100C6000D6011C966D917C911D97C60109958EE069
:100C70008A9DF0018B9DF00D1124E45EFE4F808172
:100C800081FF1BC190E080E09093F4028093F50215
:100C90000E3ABDE51B0709F419C18091F2028823C1
:100CA00009F489C0D0903A02C09025020E94A21B8C
:100CB00088579C4E9093A2028093A102D70112966E
:100CC0008C91882309F47CC08C2D8D298D7909F0B5
:100CD0006DC00115B5E51B07B0F40115E3E51E076E
:100CE00008F069C00115F0E51F0740F4011520E484
:100CF000120790F5063E1105B1F55DC0011582E5BC
:100D0000180788F558C0011599E5190750F4011521
:100D1000A8E51A0708F04FC00431B5E51B0719F51F
:100D20004AC0C801905681159042E8F4D701159643
:100D30008C91807FA9F4812F8F718231B1F028F4DA
:100D40008230A1F581EE90E012C08431A1F18631AC
:100D500069F586EE92E10BC0F7018581807F59F13C
:100D6000C801992704C0C80102C085EE90E0109226
:100D7000F3028832910530F48E319105D0F4049756
:100D8000A8F00EC08D32910559F018F48A9789F0B9
:100D90000DC08C34910569F08D32924051F006C03F
:100DA00082E08093F3020E94FB1103C00E94302076
:100DB00002C00E94FB11D70112968C918111A2C032
:100DC00080913A0282720A3C2CE5120709F45FC056
:100DD000E0F4063CACE51A0709F44AC050F4043CC0
:100DE000ECE51E07D9F1F8F5033C2CE5120749F1B3
:100DF0000BC1083C9CE5190709F43FC008F042C04C
:100E00004AEE51E260EE71E250C00E3CBCE51B07B9
:100E100009F44EC058F40C3CFCE51F07E9F108F05A
:100E200040C049EB51E26CEA71E23FC0073D8CE5FE
:100E3000180708F4D6C00F359DE5190709F4D1C08D
:100E4000E3C08091ED0280FF03C00E94F421C9C07D
:100E500081608093ED0261E086952CC046E352E20A
:100E600069EB7BE122C049EB5BE166E372E21DC006
:100E700040EE51E26AEE71E218C046EC51E263EDD9
:100E800071E213C043ED51E266EC71E20EC04CEA30
:100E900051E269EB71E209C04DE35FE16FE47FE18C
:100EA00004C04FE45FE16DE37FE10E945A2099C0E6
:100EB00061E081E00E940B2294C0902F812FE4CE4C
:100EC00081FFE6CEC6010E94EB1FE2CEF7018281D0
:100ED000882309F486C08091F202882319F00E94C9
:100EE00030207FC010923A020E94E7110E94A21B9C
:100EF00088579C4E9093A2028093A10281E0809338
:100F0000F2026FC00C35ADE51A0709F464C060F455
:100F10000115ECE51E07A9F00F3DFCE51F0709F0E0
:100F200073C00E9471114CC00E352DE5120709F4F3
:100F30004AC008F452C0093A9DE5190709F440C0B7
:100F400063C010923A020E947023AFEFB4E3ECE06A
:100F5000A150B040E040E1F700C00000F89481E00B
:100F60008093E00080E28093D8001092C9008FE166
:100F70009EE40197F1F700C000001DBA10926800CE
:100F80001CBC10BE1FBA10927A0010926E00109214
:100F90006F0010927100109272001092C9001092AE
:100FA000BC0014B817B81AB81DB810BA1092BC001B
:100FB00015B818B81BB81EB811BA0C94003F11C070
:100FC0000E94170D0EC08091350282FB882780F9A0
:100FD00091E0892703C081E001C080E00E946D128A
:100FE00013C080910402877009F45FC2D701129682
:100FF0008C91882309F459C28091350282FF55C231
:1010000082E00E94501251C2F70182810081118159
:10101000882349F0C8010E944D22D82E682FC801AC
:101020000E94BD2204C0C8010E948922D82EB801A6
:101030008D2D0E94D10F0E94EA0F182FD92E882ED5
:10104000F701C280B580B2949FE0B922809104027A
:101050008770B9F0CC20A9F08D2D807F803421F0ED
:1010600080E2810F883068F08091350282FF09C0EC
:1010700082E00E945012809104028770AA24A394F7
:101080008111A12C9D2C92948FE09822892D90E0C3
:101090008C30910508F0C0C1FC01EA5AFF4F0C9456
:1010A000D8270D2D0F708D2D807F11F00295007FB8
:1010B000CC20B9F0002309F49DC180E2810F883073
:1010C00010F0811006C080913A02082B00933A027A
:1010D00005C08091F302082B0093F3020E94FB11DC
:1010E00089C1812F0E94A623002309F495C180E2C3
:1010F000810F883068F1882059F1802F0E94ED110E
:101100002AC00D2D0F708D2D807F803211F0029539
:10111000007F882021F0F1E08F16D9F147C080913F
:10112000350282FD1BC0CC2069F0002339F080918C
:101130003A02082B00933A020E94FB1180E00E94C1
:10114000D2236AC180E00E94A623002309F464C16F
:10115000802F0E94F4110E94FB115EC1CC2081F00F
:1011600080912502BB2051F021E0B21207C0082B6C
:10117000081709F451C1009325024EC1802B10C0FD
:10118000BB2021F081E0B81609F446C10E94E711A6
:101190001FC0CC2041F091E09B1508F43DC1802F89
:1011A0000E949C2339C1B11037C112C0CC2019F064
:1011B000BB20A9F31FC1BB2059F0A9E38A1229C1A2
:1011C000BFEFE7EEF3E0B150E040F040E1F71FC1C0
:1011D000802F0E94952320C18D2D86958695837042
:1011E00019F0813061F018C1CC2021F0812F9D2DA4
:1011F000937002C080E090E00E94C81F13C1CC2011
:1012000021F0812F9D2D937002C080E090E00E941C
:10121000B21F08C18D2D8370A1F5C11001C1412FEE
:10122000429546954770440F440F212F2F7030E0B0
:10123000C901042E01C0880F0A94EAF714FF08C000
:101240002FE030E001C0220F4A95EAF7209501C057
:1012500020E03D2D369536953370323069F040F4FC
:1012600040912602313019F0822B842302C0842B56
:10127000822B0E943523D4C0282B809126028227FE
:10128000F8CFCC2019F08D2D817001C08695882370
:1012900009F4C6C0412F429546954770440F440F4C
:1012A000212F2F7030E0C901042E01C0880F0A944D
:1012B000EAF714FF08C02FE030E001C0220F4A9582
:1012C000EAF7209501C020E03D2D36953695337024
:1012D000323051F070F440917D02313019F0822BA0
:1012E000842308C0842B05C0282B80917D0282278F
:1012F00001C0822B0E94F22293C00D2D0F70CC20D2
:1013000039F0802F0E942923812F0E949C2388C0BE
:10131000812F0E949523802F0E941C2381C0812F42
:1013200022EF821671F1281538F090EF891659F0E6
:10133000A1EF8A1609F15AC0B3EF8B1649F1E4EF19
:101340008E16B1F053C0CC2071F0B11065C02D2DB8
:101350002F7181E090E001C0880F2A95EAF7909103
:101360007D02892720C0F1E0FB1508F455C0EFCFBE
:101370008091350282FD1AC0CC2029F08D2D8F710D
:1013800028C0CC20D9F38D2D8F710E941C2344C01E
:10139000CC2041F081E09D2D9F7101C0880F9A956E
:1013A000EAF701C080E00E94F22236C0CC20A1F012
:1013B0000D2D0F71802F0E9429238091350282FF0D
:1013C00007C028E0029FC0011124836080930402BB
:1013D000802F0E94292320C081E00E94501281E0CA
:1013E0008B15D0F482E00E94501216C0CC2021F060
:1013F000BB2021F2812FA3CEBB2029F2893349F4EF
:101400009FEFA7EEB3E09150A040B040E1F700C0DD
:101410000000812F0E94A62388EF890D843010F4EC
:101420000E94DE1F812F9D2D0E943A23811105C04D
:101430001092A3011092A20111C0CC2019F0B1109A
:10144000F7CF0CC0B110F4CF8091A2019091A3010D
:10145000029771F7812F0E947224EACFAA20A9F087
:101460008091040280FD11C0F70112828595859557
:1014700085950E942923C7010E94B304809104022C
:101480008595859585950E941C2385E0F701DE01F1
:10149000119601900D928A95E1F709811A81C80190
:1014A0000E948922B8010E94D10FA596ECE00C940D
:1014B00098269C013A9521153F4130F5BC016627DD
:1014C0007270AC01442754709C012227387094FF3D
:1014D0000FC090FF02C080E101C080E0672B09F0DF
:1014E0008062452B09F08064232B79F08068089591
:1014F000892F8170672B09F08260452B09F0846089
:10150000232B19F08860089580E00895FC01828102
:10151000813039F4958192FD12C090FF10C082E0B5
:101520000895823039F4858182FD06C080FD06C0B1
:1015300083E0089586E0089585E0089584E00895A5
:10154000CF93DF93EC010E94A623CE01805E910928
:10155000089710F0209731F4CE010E94590A0E949A
:10156000952305C0CE010E94590A0E948423DF9171
:10157000CF9108958FE39CE90197F1F700C0000037
:101580008091AB01823049F018F4813049F00CC0F1
:10159000833031F0853021F007C08DE492E002C045
:1015A0008DE490E00E94A00A1092AB0108958FE3B1
:1015B0009CE90197F1F700C000008091A9018230F9
:1015C00049F018F4813049F00CC0833031F0853097
:1015D00021F007C08FE493E002C08FE491E10E9404
:1015E000A00A1092A90108958FE39CE90197F1F7F1
:1015F00000C000008091A701823049F018F48130CA
:1016000049F00CC0833031F0853021F007C08AE406
:1016100092E002C08AE490E00E94A00A1092A70122
:1016200008958FE39CE90197F1F700C000008091D5
:10163000A501823049F018F4813049F00CC08330A4
:1016400031F0853021F007C080E593E002C080E5ED
:1016500091E00E94A00A1092A5010895CF93DF9314
:10166000EC01805E9109089710F0209731F4CE01CB
:101670000E94590A0E949C2305C0CE010E94590A6B
:101680000E948B238C2F0E94D223DF91CF9108954B
:101690000F931F93CF93DF938C01C99719F0C0E08C
:1016A000D0E002C0C0E5D0E0C8010E942E0B209718
:1016B00041F08FE99FE00197F1F700C0000021970A
:1016C000F6CFC8010E94A00ADF91CF911F910F9120
:1016D0000895CF93DF93EC018A81833061F48DE428
:1016E00090E00E94480B8DE490E00E94480B8DE44E
:1016F00090E00E94480B8A81843020F08DE490E0D5
:101700000E94480BDF91CF910895CF93DF93EC01B6
:101710008A81833061F48FE491E10E94480B8FE469
:1017200091E10E94480B8FE491E10E94480B8A816D
:10173000843020F08FE491E10E94480BDF91CF913B
:101740000895CF93DF93EC018A81833061F48AE4BA
:1017500090E00E94480B8AE490E00E94480B8AE4E3
:1017600090E00E94480B8A81843020F08AE490E067
:101770000E94480BDF91CF910895CF93DF93EC0146
:101780008A81833061F480E591E00E94480B80E516
:1017900091E00E94480B80E591E00E94480B8A810D
:1017A000843020F080E591E00E94480BDF91CF91DA
:1017B00008950E94860A8093AB01823049F018F4A4
:1017C000813091F00895833031F0853049F00895EB
:1017D0008DE492E00BC08DE490E00E942E0B04C0DB
:1017E0008DE490E00E94480B8DE490E00E942E0B67
:1017F00008950E94860A8093A901823049F018F466
:10180000813091F00895833031F0853049F00895AA
:101810008FE493E00BC08FE491E10E942E0B04C093
:101820008FE491E10E94480B8FE491E10E942E0B1E
:1018300008950E94860A8093A701823049F018F427
:10184000813091F00895833031F0853049F008956A
:101850008AE492E00BC08AE490E00E942E0B04C060
:101860008AE490E00E94480B8AE490E00E942E0BEC
:1018700008950E94860A8093A501823049F018F4E9
:10188000813091F00895833031F0853049F008952A
:1018900080E593E00BC080E591E00E942E0B04C030
:1018A00080E591E00E94480B80E591E00E942E0BBC
:1018B0000895A7E1B0E0EFE5FCE00C9485264B8BA2
:1018C0005C8B6D8B7E8B8F8B2E893F89211531052B
:1018D00031F05F3F31F481E04F3F19F403C081E004
:1018E00001C080E080FD09C08091A2019091A30118
:1018F00001969093A3018093A20161111092F302CB
:1019000086E0FE013D96DF01982F1D929A95E9F73A
:101910004D875E876F87398B288BDE011796019084
:101920000D928A95E1F7CE0107960E94FC12811173
:101930003EC086E0FE013796DE01119601900D92C1
:101940008A95E1F7FF81E8856A857B8561157105D8
:1019500031F0EF3F31F481E0FF3F19F403C081E043
:1019600001C080E080FD23C02091D20130E0C90198
:101970000196877099274091030250E084179507DC
:1019800079F1F983EA837D836C8396E0929FD0019D
:10199000939FB00D1124AD52BE4FFE0131960190C0
:1019A0000D929A95E1F78093D2010E94891216E078
:1019B000809103029091D201891709F1189FC0010B
:1019C00011248D529E4F0E94FC128823C1F08091F9
:1019D000030290E001968770992780930302E8CF75
:1019E00010923A020E9470231092D20110920302C8
:1019F000ECECF1E086E0DF011D928A95E9F767964D
:101A0000E3E00C94A126982F92959F7019F0892FEE
:101A100024E001C020E0982F9695969511F02E5F56
:101A2000892F982F969509F02F5F822F0895109295
:101A30003A020E9470232FEF84E39CE02150804003
:101A40009040E1F700C000009AE088E10FB6F894FA
:101A5000A895809360000FBE90936000FFCFCF9356
:101A6000C82F0E94030D56985E9825982D982698A9
:101A70002E9827982F9890E0FC013197E730F105D8
:101A800018F5EE59FF4F0C94D827259A2D9A33C09C
:101A9000269A2E9A3EC0279A2F9A49C0259A2D9AA7
:101AA000269A2E9A52C0259A2D9A279A2F9A5BC071
:101AB000269A2E9A279A2F9A64C0259A2D9A269AAA
:101AC0002E9A279A2F9A6DC08730910508F069C029
:101AD000FC01E759FF4F0C94D8278091A101811197
:101AE0008AC00E942D2281E00E94292220E04FEB33
:101AF00062EE86E853C08091A10181117CC00E94F2
:101B00002D2281E00E94292220E04FEF6FEF8CEB25
:101B100045C08091A10181116EC00E942D2281E0FB
:101B20000E94292220E04FEF6FEF88E937C08091B3
:101B3000A101811160C00E942D2281E00E94292212
:101B400020E04CEC6AED83EB29C08091A10181116A
:101B500052C00E942D2281E00E94292220E04CECFC
:101B60006AED8CEA1BC08091A101811144C00E94E2
:101B70002D2281E00E94292220E04CEC6AED82E3D4
:101B80000DC08091A101811136C00E942D2281E0FB
:101B90000E94292220E04FEF6FEF80E00E94F320A7
:101BA0002AC08091A101811126C088E090E00E94A6
:101BB00021276093ED027093EE028093EF029093E1
:101BC000F002862F60FF15C081608093ED0261E016
:101BD00086950E940B228091ED0261E086950E941D
:101BE0000B2221E04091F0026091EF028091EE0221
:101BF000D5CF0E94F4218C2FCF91089580E290E000
:101C000090935101809350018091B00281110EC0D8
:101C10000E94922581E08093B0022FEF83ED90E344
:101C2000215080409040E1F700C0000060E570E086
:101C300080E40E9498259093510180935001892B54
:101C400009F04EC060E570E080E00E940B269093A2
:101C5000510180935001892B09F042C060E570E08A
:101C600080E00E940B269093510180935001892BB4
:101C7000B9F560E570E08FE30E940B269093510167
:101C800080935001892B61F50E945E2660E570E02B
:101C900080E40E9498259093510180935001892BF4
:101CA000F9F460E570E08CE00E940B2690935101FE
:101CB00080935001892BA1F460E570E080E00E94E0
:101CC0000B269093510180935001892B49F460E5D4
:101CD00070E08FE30E940B26909351018093500196
:101CE0000E945E26809150010895CF93DF9356980D
:101CF0005E9825982D9826982E9827982F98C8E8B2
:101D0000D0E08FEF90E099838883AAE8B0E0119645
:101D10009C938E93ECE8F0E091838083259A2D9A32
:101D20002FEF80E792E0215080409040E1F700C023
:101D30000000269A2E9A2FEF80E792E021508040F3
:101D40009040E1F700C00000279A2F9A2FEF80E71C
:101D500092E0215080409040E1F700C000002598BB
:101D60002D982FEF80E792E0215080409040E1F7DE
:101D700000C0000026982E982FEF80E792E02150B7
:101D800080409040E1F700C0000027982F98809194
:101D90006A0287702FEF829FC00111249595879565
:101DA0009595879599279983888311969C938E930F
:101DB0009183808356985E9825982D9826982E9822
:101DC00027982F98DF91CF910895CF93E82F8730F0
:101DD00080F58091500190915101892B09F047C005
:101DE000CE2F60E570E080E40E9498259093510129
:101DF00080935001892BD1F460E570E082E10E946C
:101E00000B269093510180935001892B79F481E046
:101E100090E001C0880FCA95EAF760E570E0809510
:101E20000E940B2690935101809350010E945E26E0
:101E30001EC090E0FC013797E730F105C0F4E0598F
:101E4000FF4F0C94D827209A289811C0219A2998DE
:101E50000EC0229A2A980BC0239A2B9808C0529A37
:101E60005A9805C0539A5B9802C03E9A4698CF9103
:101E70000895209828982198299822982A9823989C
:101E80002B9852985A9853985B983E984698089584
:101E9000CF93873040F58091500190915101892B6B
:101EA00059F560E570E081E40E9498259093510116
:101EB00080935001892B11F0C0E011C080E590E0C3
:101EC0000E943A2697FF05C09093510180935001DC
:101ED000F3CFC82FC09510925101109250010E946B
:101EE0005E268C2F0AC09FB18FB1807F8695869524
:101EF0009370892B809501C080E0CF9108958098E0
:101F0000889A8198899A84988C9A85988D9A8698CF
:101F10008E9A87988F9A089580E008959091340260
:101F200092FF0DC0282F2871283019F4877F846014
:101F300006C0282F2471243011F48B7F886093FF12
:101F40000DC0282F2871283119F4877E846106C0BE
:101F5000282F2471243111F48B7E88612091350261
:101F600020FF0DC0382F3871383019F4877F816019
:101F700006C0382F3171313011F48E7F886021FF17
:101F80000DC0282F2871283119F4877E816106C081
:101F9000282F2171213111F48E7E886194FD877E76
:101FA00008957E30A0F4663090F494E5899FF001A6
:101FB000112486E0789FE00DF11D1124E60FF11D3C
:101FC000EE0FFF1FEE5AFE4F85919491089580E029
:101FD00090E00895CF93DF938238910569F1B0F4D2
:101FE0008133910509F477C048F48932910509F4E9
:101FF00069C08A32910509F473C092C08533910596
:1020000009F45BC089339105B9F08AC0833E91051C
:1020100091F138F4803E9105D1F0823E910531F185
:102020007FC0863E9105D9F1873E9105E9F1843E56
:10203000910509F075C028C02091340220FD5BC0D5
:1020400021FD59C02091350223FD61C069C08091F6
:10205000340280FD4AC08091350280FF4CC08091DF
:10206000340284FD39C183EE90E038C1809134029E
:1020700082FF3EC0F4CF8091340282FD39C080914E
:10208000350280FD38C0EBCF8091350281FF39C029
:102090008091340284FD20C187EE90E01FC18091C1
:1020A000340283FF2BC0F4CF8091340283FD26C01D
:1020B0008091350281FD25C0EBCF8091340285FDF2
:1020C00026C022C08091340285FD1EC08091350259
:1020D00083FF1DC00AC08091340286FD1BC01DC055
:1020E0008091340286FD19C015C089E390E0F6C0E6
:1020F00082EE90E0F3C080EE90E0F0C086EE90E0DB
:10210000EDC084EE90E0EAC085E390E0E7C089E2AC
:1021100090E0E4C08AE290E0E1C081E390E0DEC0BC
:10212000811532E5930708F05FC0811541E59407FA
:1021300028F0982F8827816F906AD0C0883E91053B
:1021400068F5803E910508F0C9C0883A9105B8F459
:10215000853A910548F0855AE82FF0E0EE5AFE4F97
:10216000808190E09064BAC08130910509F4B1C0DB
:1021700008F4B2C08430910508F4AEC0AFC08F3B04
:10218000910508F0A9C0885AE82FF0E0EE0FFF1F74
:10219000EB5AFE4F808191819464A0C0811520E5A7
:1021A0009207A0F0AC014370552721E030E002C057
:1021B000220F331F4A95E2F78695869540E2849F69
:1021C000C0011124822B932B9D6888C0811530E4B7
:1021D000930718F09F70906A81C09C013A95211571
:1021E0003F4108F47BC078C0EC01C11586E5D807F3
:1021F000E8F5C11525E5D20748F08C2F0E948E0F17
:102200008F7190E0982F8827906268C0C11534E5DF
:10221000D30728F09C2F8827846F906A5FC0AE0197
:10222000437055272C2F26952695C115D34578F454
:1022300081E090E002C0880F991F4A95E2F740E2E2
:10224000249F90011124822B932B9C6847C081E02E
:1022500090E002C0880F991F4A95E2F740E2249F60
:1022600090011124822B932B9A6838C0C1152AE55E
:10227000D207F8F4C11539E5D30790F08C2F8F7091
:102280000E948E0F94E0D695C7959A95E1F7CF708E
:10229000D0E0DC2FCC27D0699E01282BC9011EC0BD
:1022A000C11548E5D407C0F09C2F8827806F906A3D
:1022B00015C0CE0190568115904270F48D2F8F710C
:1022C0000E948E0F282F2F71CE0199279062922B9A
:1022D00005C081E090E002C080E090E0DF91CF9106
:1022E000089568EE7EEF80E090E00E945B2760E05A
:1022F00082E090E00E943D2760E083E090E00E9451
:102300003D271092260260E084E090E00E943D2785
:1023100064E082E290E00E943D2760E085E090E08A
:102320000E943D2760E086E090E00E943D276FEF2D
:1023300087E090E00E943D2740E050E0BA0188E04D
:1023400090E00E944F2760E08DE090E00E943D27E2
:1023500040E050E0BA0188E190E00E944F2760E041
:1023600087E190E00E943D2740E050E0BA018CE117
:1023700090E00E944F2760E070E080E290E00E94D1
:102380005B2740E050E0BA0188E190E00E944F27CF
:1023900010926A0210926B0210926C0210926D02FF
:1023A00084E080936A0240916A0250916B026091CE
:1023B0006C0270916D028FE090E00E944F2740E028
:1023C00050E0BA0183E190E00E944F270895809188
:1023D0002502811110922502089580959091F302B3
:1023E00089238093F3020895809590913A0289237E
:1023F00080933A02089590913A028091F302982BCB
:102400009093AC01809125028823D9F0892B809389
:10241000AC0180910A01882331F08091340287FF5A
:1024200002C08EE101C086E0EEEAF1E090E081506A
:1024300028F021912223D9F39F5FF9CF91110E94B7
:10244000E71140E250E065E072E08CEA91E00E9422
:10245000FF28892B21F180E2ECEAF1E0A5E0B2E06F
:1024600001900D928A95E1F7E091F802F091F9025E
:102470003097A9F080910A01882359F080913402A5
:1024800087FF07C08091AC018093AD0186E0809307
:10249000AC010280F381E02D8CEA91E0099508956A
:1024A000209104028095822380930402982F9770D4
:1024B00099F430E0482F082E000C550B24173507EF
:1024C00059F09091350292FF07C0859585958595C5
:1024D0000E941C23109204020895CF93C0913502EC
:1024E000C2FB992790F9981791F080FBC2F9C0932D
:1024F00035026091340284E090E00E943D276C2F09
:1025000082E290E00E943D2782E00E945012CF912B
:102510000895809103029091D201891719F08F5F7D
:102520008770FBCF08950F931F93CF93DF93809114
:10253000D10182958F7009F05AC08091CE01882315
:1025400009F455C0809103021091D2016091CC0131
:102550007091CD01C091CF01D091D00191E06F3F3A
:1025600009F090E0292F06E0811709F440C0209778
:1025700021F07F3F21F030E003C031E001C0322F75
:1025800090E030FD31C0089FF001099FF00D11244B
:10259000DF01AD52BE4F11963C911197371324C005
:1025A0003C91361321C012963C91129731111CC0F8
:1025B00013964D915C9114974C1B5D0B453851055A
:1025C00098F48091D1018F7080618093D101E8529D
:1025D000FE4F80818F70806180838CEC91E00E943F
:1025E000B3040E94891203C001968770BDCFDF91AA
:1025F000CF911F910F910895A1E1B0E0E2E0F3E1E6
:102600000C947D268C0185E0F801DE011D96019079
:102610000D928A95E1F7F801E2809091CC016091EA
:10262000CD014091CF015091D0014115510531F0BC
:102630006F3F31F481E09F3F19F403C081E001C096
:1026400080E0F82FF1709F2E80FD1BC1F8013081D2
:102650002181C380D4808CECA82E81E0B82EF0902C
:10266000CE01F601E41BF50BFF2009F4C7C08091F1
:10267000D101E538F10508F092C0482F407F09F0FC
:1026800051C0621311C093130FC0FE2CE1100CC097
:102690008F7080618093D101C5010E94B304809145
:1026A000D101F80185832AC1C114D10431F02F3F33
:1026B00031F481E03F3F19F403C081E001C080E0C4
:1026C00080FD03C081E08E2502C080E090E0F82FFD
:1026D000F170FF2E80FF1CC0809103024091D20157
:1026E00056E0841709F4E8C090E0589FF001599F24
:1026F000F00D1124ED52FE4F6181261306C060815A
:10270000631303C06281E61203C001968770E9CFAC
:10271000FE2CEE2009F4F2C08091D10181608093FB
:10272000D10149C0621306C0931304C0E11002C076
:10273000F80186C0C8010E945523882351F1EE207C
:1027400041F12091D101822F82958F7090E0029704
:1027500074F08091CC019091CD0198878F83198678
:10276000DB86CA862C87CE0107960E94B30486E0DA
:10277000F801ACECB1E001900D928A95E1F70E946E
:1027800093120AC06217C9F0C8010E945523811133
:102790001EC0C8010E94B304FF24F394AFC0482FA9
:1027A000407F81F78CEC91E00E94B30486E0F50154
:1027B00011928A95E9F7F12CA1C09313E5CFE110AE
:1027C000E3CFF8018583C8010E94B30454C0EE2012
:1027D00001F32091D101822F82958F7090E00297B2
:1027E00034F28091CC019091CD019A8389831B8230
:1027F000DD82CC822E83CE010196B7CFE538F1057C
:10280000D0F5FE2CEE2029F2621327C0931325C0C9
:102810002091D10120FD18C0822F82958F70482F02
:1028200050E04115510581F0F80125834F305105E5
:1028300041F08F5F982F9295907F822F8F70892B18
:102840008583C8010E94B30486E0F801ACECB1E0D6
:1028500001900D928A95E1F751C0C8010E9455235D
:10286000811185CF8091D10181608093D101C80110
:102870000E94B30443C086E0F50111928A95E9F7FE
:102880003DC0EE2009F485CFC8010E945523F82EE3
:10289000882309F47ECF86E0F801ACECB1E001902A
:1028A0000D928A95E1F78091CC019091CD010E9423
:1028B0007C220E94931222C03D872E878D859E85A3
:1028C0000E947C22292F22952F70223028F49F709D
:1028D00039F0811105C00BC0243028F49F7049F4F1
:1028E000805E883020F0C8010E94B3049F2CF92C30
:1028F00005C0F8019581907F99F7F9CF8F2D6196EA
:10290000EBE00C949926A0E0B0E0E9E8F4E10C9447
:1029100080268091500190915101892BB9F08091CE
:1029200027028F5F80932702811110C00E94FE0D45
:1029300090E09093510180935001892B39F40E94CB
:10294000750E81E080934F010E9461200EE612E037
:102950007801D0E0C0E087E0C82ECC0E8C2F0E941A
:10296000E50E8C2D0E94E50E8C2F0E94480F8F7370
:10297000F7019081891721F08083DD24D39401C071
:10298000D12C8C2D0E94480F8F73F70197818917E6
:1029900019F0878381E001C080E0D82ADD290E94F8
:1029A000390FCF5FFFEFEF1AFF0AC730A1F6109281
:1029B0002C02C0912B02CC2309F4C4C00E94A21B9C
:1029C0002091290230912A02AC01421B530B9A013B
:1029D00090932A02809329024F3F510509F018F481
:1029E000452B19F102C02FEF30E010922B0210920C
:1029F0002802E0916802F0916902AF01425F5F4FE7
:102A000090E030E08081882341F0281718F0108290
:102A10009C2F03C0821B80833C2F3196E417F5075F
:102A200089F730932B0290932802DD2309F47BC0B1
:102A3000E0916802F091690280912C0290912B0242
:102A4000A2E8B2E0AF01425F5F4F6EE1E80128818A
:102A50003C91321779F0308131110CC060832C9396
:102A600098819227282F30E0292B81E0232B09F42D
:102A700080E091E0319611960F5F1F4FE417F50744
:102A800029F780932C0290932B02C0912C02209165
:102A90001E0380912E0290912F022223C9F1892BCF
:102AA00031F425982D9826982E9827982F98809164
:102AB0002E0290912F029170892B79F480912D0232
:102AC000882319F026982E9802C0269A2E9A909163
:102AD0002D0281E0892780932D0280912E02909112
:102AE0002F028130984750F010921E0380917D0292
:102AF0000E942F0D10922F0210922E0280912E0212
:102B000090912F02019690932F0280932E021EC067
:102B1000892BE1F010922F0210922E0280917D02FB
:102B20000E942F0D13C081E090912802992309F48F
:102B3000ACCF81117DCF0E94A21B90932A0280937B
:102B4000290276CFD111F7CF80E0EECF8C2FCDB711
:102B5000DEB7E8E00C949C268091600287FF11C0EC
:102B60008091E80082FD05C0809120038111F8CF9B
:102B700011C08091E8008B770BC0809120038823DF
:102B800049F08091E80080FFF8CF8091E8008E77CF
:102B90008093E8000895982F973068F59093E900A6
:102BA000981739F07091EC002091ED005091F000F1
:102BB00003C0242F762F50E021FD02C09F5FECCF91
:102BC0003091EB003E7F3093EB003091ED003D7F84
:102BD0003093ED003091EB0031603093EB00709357
:102BE000EC002093ED005093F0002091EE0027FDC3
:102BF000E5CF80E008958F708093E90081E008952B
:102C000020916602309167022617370748F0611558
:102C1000710539F42091E8002E772093E80001C077
:102C2000B901FC0120E06115710579F18091200363
:102C30008823F1F18530F1F18091E80083FD3CC0FB
:102C40008091E80082FD2EC08091E80080FFEBCFEC
:102C50002091F3008091F20090E0922B61157105B4
:102C600051F08830910538F421912093F1006150A2
:102C700071090196F3CF21E0089709F020E08091D7
:102C8000E8008E778093E800CECF2111CFCF0AC025
:102C900080912003882361F0853061F08091E80005
:102CA00083FD0AC08091E80082FFF2CF80E00895A2
:102CB00082E0089583E0089581E0089508950895DD
:102CC00080913C020895809336027093380260939D
:102CD0003702809120038430F9F48093E9008FEF6C
:102CE0009091E800815095FD06C095ED9A95F1F719
:102CF00000008111F5CF8091E80085FF0DC040E014
:102D000050E063E070E086E392E00E943C25809111
:102D1000E8008E778093E8000895BC0184E00E946B
:102D200063160895BC0183E00E9463160895CF9353
:102D3000DF9320910A01222339F02091340227FFEA
:102D400003C060E224E002C068E021E02093E900D3
:102D50002FEF3091E800215035FD06C035ED3A9552
:102D6000F1F700002111F5CF2091E80025FF1DC0EB
:102D7000EC0180910A01811105C040E050E068E05B
:102D800070E003C070E040E050E0CE010E943C25BE
:102D90008091E8008E778093E80080E2FE01ADE349
:102DA000B2E001900D928A95E1F7DF91CF910895FD
:102DB000AAE2B0E0EEEDF6E10C948526E0E6F2E062
:102DC00088E692E02091F10021938E179F07D1F7BA
:102DD00080916102833009F463C030F4813071F076
:102DE000823009F49FC0B6C08A3009F48BC08B30A2
:102DF00009F46EC0893009F0ADC020C08091600236
:102E0000813A09F0A7C08091E800877F8093E800AD
:102E10008091640290916502892B21F460E28DE338
:102E200092E003C060E080E090E070E00E94001655
:102E30008091E8008B778093E8008CC080916002DD
:102E4000813209F087C080916402909165020097F9
:102E500019F0029709F07EC08091E800877F809387
:102E6000E8008091E80082FD05C080912003811177
:102E7000F8CF70C02091F3008091F20090E0922B87
:102E8000029731F48091F100813011F0863021F405
:102E90008091F10080933C028091E8008B7756C0CE
:102EA00080916002813A09F055C08091640290914E
:102EB0006502892B09F04EC08091E800877F8093DE
:102EC000E8008091E80080FFFCCF80910A0139C0C2
:102ED000809160028132F1F58091640290916502E7
:102EE000892BC1F58091E800877F8093E8000E94DC
:102EF000AC158091620280930A0110923A020E94FE
:102F0000702328C080916002813221F58091E80011
:102F1000877F8093E8000E94AC15809163028093C4
:102F20003B0218C080916002813AA1F48091E800D0
:102F3000877F8093E8008091E80080FFFCCF80913C
:102F40003B028093F1008091E8008E778093E80047
:102F50000E94AC158091E80083FFDFC18091600280
:102F600090916102492F50E04A30510508F0D5C1D7
:102F7000FA01E958FF4F0C94D827803821F08238A5
:102F800009F0CBC108C080915D0290915E02992347
:102F900089F082600FC0809164028F70873008F0E2
:102FA000BCC18093E9008091EB0085FB882780F904
:102FB0001092E9009091E800977F9093E800809349
:102FC000F1001092F10070C1282F2D7F09F0A5C1EA
:102FD000882319F0823061F0A0C1809162028130B3
:102FE00009F09BC1933009F080E080935E022EC00F
:102FF0008091620281112AC0809164028F702FEF4C
:10300000280F263008F089C18093E9002091EB0059
:1030100020FF1CC0933021F48091EB00806214C02B
:103020009091EB0090619093EB0021E030E0A901DA
:1030300002C0440F551F8A95E2F74093EA001092B0
:10304000EA008091EB0088608093EB001092E90029
:103050008091E800877F8093E8000E94AC155DC1F5
:1030600081115BC1109162021F778091E30080782B
:10307000812B8093E3008091E800877F8093E800B4
:103080000E94AC158091E80080FFFCCF8091E300A6
:1030900080688093E300111102C082E001C083E0E8
:1030A000809320033AC18058823008F036C12091C5
:1030B0006202309163022C3D53E0350779F583E0DD
:1030C0008A838AE289834FB7F894DE01139620E061
:1030D0003EE051E2E32FF0E050935700E49120FFEF
:1030E00003C0E295EF703F5FEF708E2F90E0EA3003
:1030F00010F0C79601C0C0968D939D932F5F243129
:1031000049F74FBF8091E800877F8093E8006AE22B
:1031100070E0CE0101960E940016B4C08091640256
:1031200090916502432F552743305105A9F068F46B
:103130004130510509F400C14230510509F0EDC09C
:103140008BE590E0E9EBF6E04BC04132510529F107
:103150004232510589F1E1C0C901992781309105B9
:10316000A1F058F0029709F0D8C0E6E2F7E0E49148
:103170008E2F90E0E6E2F7E030C0E4E7F7E0E4917C
:103180008E2F90E0E4E7F7E028C0EAE4F7E0E4916E
:103190008E2F90E0EAE4F7E020C08330910508F03C
:1031A000BCC0880F991FFC01E457FE4F0190F081CD
:1031B000E02D89E090E014C08330910508F0ADC0A7
:1031C000FC01EE0FFF1FEA57FE4F0190F081E02D4A
:1031D000DC01AD57BE4F8C9190E0009709F49DC083
:1031E0002091E800277F2093E8002091660230912B
:1031F00067022817390708F4C90140E0009789F1F0
:1032000020912003222309F43DC02530D9F12091DB
:10321000E80023FD37C02091E80022FD2FC0209157
:10322000E80020FFEBCF4091F3002091F20030E066
:10323000342B009759F02830310540F444914093E5
:10324000F100319601972F5F3F4FF3CF41E02830D7
:10325000310509F040E02091E8002E772093E80046
:10326000CDCF4111CDCF0AC080912003882351F0EA
:10327000853041F08091E80083FD04C08091E80032
:1032800082FFF2CF8091E8008B778093E80045C001
:10329000803809F042C08091E800877F8093E80081
:1032A00080915F028093F1008091E8008E77D3CE09
:1032B000811133C080916202909163029927029735
:1032C00064F58091E800877F8093E80010916202A6
:1032D00010935F020E94AC15111106C08091E300AB
:1032E00087FD02C081E001C084E08093200342E0BA
:1032F00061EC81E00E94CB1542E261EC84E00E9427
:10330000CB1542E261EC82E00E94CB1542E260EC18
:1033100083E00E94CB15809120038091E80083FF19
:1033200010C08091E800877F8093E8008091EB00D7
:1033300080628093EB0005C082E190E0E4E1F7E079
:103340004FCFAA96E3E00C94A1261F920F920FB6DE
:103350000F9211242F933F934F935F936F937F931B
:103360008F939F93AF93BF93CF93DF93EF93FF938D
:10337000C091E900CF708091EC00D82FD17080FD12
:10338000D0E81092E9008091F000877F8093F000F0
:1033900078940E94D8161092E9008091F00088601D
:1033A0008093F000CD2BCF70C093E900FF91EF9197
:1033B000DF91CF91BF91AF919F918F917F916F914D
:1033C0005F914F913F912F910F900FBE0F901F90E3
:1033D0001895E8EDF0E080818E7F80831092E20006
:1033E0001092DA001092E100A0EEB0E08C918160C2
:1033F0008C9380818F77808319BCA7EDB0E08C918E
:103400008E7F8C9380818F7E808310923902089505
:10341000A0E0B0E0EEE0FAE10C948026C8EDD0E048
:1034200088818F7E8883E7EDF0E0808181608083F2
:1034300084E082BF81E08093390288818E7F888317
:1034400002EE10E0F80110821092DA0081EEC82E30
:10345000D12CF601108288818F77888388818068DB
:10346000888388818F7D888319BC109220031092F5
:103470005F0210925E0210925D0290EEE92EF12C36
:10348000F70180818B7F808388818160888342E01F
:1034900060E080E00E94CB15F60180818E7F808302
:1034A000F801808181608083808188608083F7015A
:1034B00080818E7F8083888180618883CDB7DEB7ED
:1034C000E8E00C949C261F920F920FB60F921124E5
:1034D0002F933F934F935F936F937F938F939F931C
:1034E000AF93BF93EF93FF938091E10082FF09C0F8
:1034F0008091E20082FF05C08091E1008B7F809384
:10350000E1008091DA0080FF2AC08091D80080FF1E
:1035100026C08091DA008E7F8093DA008091D900F6
:1035200080FF18C080E189BD82E189BD09B400FE39
:10353000FDCF81E0809320038091390281110FC07B
:103540000E94E9190E94081A8091E2008460809329
:10355000E20005C019BC109220031092390280913C
:10356000E10080FF17C08091E20080FF13C08091CE
:10357000E2008E7F8093E2008091E2008061809380
:10358000E2008091D80080628093D80019BC85E069
:10359000809320038091E10084FF30C08091E2009D
:1035A00084FF2CC080E189BD82E189BD09B400FEA1
:1035B000FDCF8091D8008F7D8093D8008091E1006D
:1035C0008F7E8093E1008091E2008F7E8093E20005
:1035D0008091E20081608093E20080915F02882305
:1035E00011F084E007C08091E30087FD02C081E014
:1035F00001C083E080932003809120038091E1004B
:1036000083FF27C08091E20083FF23C08091E10007
:10361000877F8093E10082E08093200310925F0215
:103620008091E1008E7F8093E1008091E2008E7FA7
:103630008093E2008091E20080618093E20042E0AA
:1036400060E080E00E94CB158091F000886080935C
:10365000F000FF91EF91BF91AF919F918F917F917A
:103660006F915F914F913F912F910F900FBE0F90EF
:103670001F9018952091E4003091E50095E6409167
:10368000EC00842F817040FF23C08091E80080FD12
:103690001DC080912003882399F0853099F0809196
:1036A000EB0085FD11C04091E4005091E500241726
:1036B000350729F3915011F09A01E1CF84E0089584
:1036C00082E0089583E0089581E0089580E0089500
:1036D0004091E80042FFDDCF089578941F920F9249
:1036E0000FB60F9211248F939F93AF93BF93809146
:1036F000300290913102A0913202B09133020196D2
:10370000A11DB11D8093300290933102A09332022B
:10371000B0933302BF91AF919F918F910F900FBEE5
:103720000F901F9018959C014FB7F894809130022C
:1037300090913102A0913202B09133024FBF821BAF
:10374000930B08952FB7F894809130029091310235
:10375000A0913202B09133022FBF08958091ED0203
:10376000982F9695913021F0817082608093ED02C0
:10377000089561E081E00E940B220895CF92DF92CC
:10378000EF92FF926B017C010E94AE1BB701A60174
:1037900088E090E00E944F27FF90EF90DF90CF905D
:1037A0000895EDEEF2E083E0808311828FEF828353
:1037B0008383148260817181828193810E94BE1B08
:1037C0000895ACE5B0E0E7EEFBE10C947A2685B70E
:1037D000806885BF85B7806885BF84B7877F84BFD1
:1037E0000FB6F894A895809160008861809360007E
:1037F000109260000FBE90E080E80FB6F8948093BE
:103800006100909361000FBE8CE89FE090939F0150
:1038100080939E010E94E9190E94081A8091E2009B
:1038200084608093E2007894809120038823A1F043
:103830001091E9001F709091EC00892F817090FD2C
:1038400080E8182B1092E9008091E80083FD0E9427
:10385000D8161F701093E90082E084BD93E095BDF7
:103860009AEF97BD80936E000E94FE0D90E09093BA
:103870005101809350010E94390F0E947F0FEEE6A4
:10388000F2E0A2E8B2E011921D9222E0EC37F207DA
:10389000D1F78EE090E00E94DE278093680290933B
:1038A0006902FC010E961192E817F907E1F789EA1F
:1038B0008093800089E08093810024982C983F9821
:1038C0008AB18F7C8AB96E98479A8BB180638BB925
:1038D000769A8FE090E00E94212760936A027093AD
:1038E0006B0280936C0290936D0267708FEF689FFC
:1038F000B001112475956795759567957727709335
:1039000089006093880070938B0060938A007093A5
:103910008D0060938C000E94750E80E090E00E9404
:103920002727883E9E4F11F00E94711182E090E09F
:103930000E9419278093900284E090E00E9419274A
:10394000182F82E290E00E941927212F30E0382BB7
:10395000309335022093340283E090E00E941927CF
:103960000E94352380917D020E942F0D80917C0260
:10397000811133C080E090E00E942727883E9E4F4F
:1039800021F00E9471110E94D11B88E090E00E94FA
:1039900021276093ED027093EE028093EF029093E3
:1039A000F0026E7F71F40E94D11B88E090E00E94CB
:1039B00021276093ED027093EE028093EF029093C3
:1039C000F0020E94AE1B8091ED0280FF03C086953D
:1039D0000E94292281E080937C0280917D020E94D6
:1039E0002F0D8BE091E09093F9028093F80268E14B
:1039F000E62EF12C00E480912003853009F07AC096
:103A0000CC24C39450E1D52E12E18091200385305F
:103A100009F063C080912003843009F43BC0809199
:103A20007F02811116C0C0927F028091ED02982F13
:103A3000917090937E028E7F8093ED022FEF80E74E
:103A400092E0215080409040E1F700C000000E94C9
:103A500061201092FC020FB6F894A895E0926000E5
:103A60000FBE0093600083B7817F846083BF83B7FC
:103A7000816083BF7894889583B78E7F83BF0FB6AC
:103A8000F894A895809160008861809360001092FE
:103A900060000FBE80915E02882309F4B6CF0E94B9
:103AA000FE0D90E090935101809350010E94390FD8
:103AB0000E947F0FE2E8F2E0119222E0E039F20783
:103AC000D9F70E948314E2E8F2E081918111BDC12F
:103AD00082E0E039F807C9F798CF10923A020E94C5
:103AE00070230E94DE1F10927F0280917E0281115E
:103AF0000E942D220E94831441E9C42E42E0D42E5C
:103B0000A2E8B2E0F60191918D91892792E0EF3918
:103B1000F90719F08823B9F332C0811130C00E942F
:103B2000A21B6C018091800290918102C816D90677
:103B300009F474C08FEF64968FAF649765968FAF6A
:103B4000659766961FAE66970E94A21B8160782FCC
:103B500068969FAF8EAF689764964FAD64976596F1
:103B60005FAD659766966FAD669768968FAD6897FF
:103B70000E94590CD0928102C09280024FC032E85C
:103B8000832E32E0932E10E0F40161904F01F60194
:103B90007080762489F1B12CAA24A3948A2D8721E0
:103BA00021F16996BFAE69976A961FAF6A9791E057
:103BB0008A2D862109F490E06B969FAF6B970E9447
:103BC000A21B8160782F6D969FAF8EAF6D9769961F
:103BD0004FAD69976A965FAD6A976B966FAD6B97BD
:103BE0006D968FAD6D970E94590CB394AA0CF6E0B8
:103BF000BF12D4CFF60160821F5FFFEFCF1ADF0A3A
:103C00001E3009F0C1CF8FB7F89440913002509127
:103C1000310260913202709133028FBF8091F402C1
:103C20009091F502892BC9F080919F029091A0029A
:103C30000E94931B8638910580F08091F4022EE05B
:103C4000829FC0011124FC01E45EFE4F208122FD11
:103C500004C0895E9E4F0E9405208091F202882355
:103C600069F00E94A21B2091A1023091A202821B46
:103C7000930B8F3F9F4710F40E9430200E94DE1F5D
:103C80009091A302891769F08093A3028FB7F894EB
:103C900040913002509131026091320270913302B2
:103CA0008FBF80912003843009F0A5CE83E08093FC
:103CB000E9008091E80082FF9ECE8091E80085FFB8
:103CC00024C00E943A1B81111EC020E2C22ED12CBA
:103CD0005E01F1E2AF0EB11C09C08091F100F50167
:103CE00081935F01F1E0CF1AD10869F08091E8007B
:103CF00085FDF3CF8091E8008B778093E8000E94E8
:103D00003A1B882399F391E001C090E08091E8008C
:103D10008B778093E800992309F46DCE89A18130D7
:103D2000E9F158F1823021F0843009F482C063CE89
:103D30008BA19AA19093A4028093A5028DA19CA12E
:103D40009093A6028093A7028FA19EA19093A802B0
:103D50008093A90242E150E063E270E0CE018F5B04
:103D60009F4F0E94092784E0898381E080931F038D
:103D70008EEF8A8310921E030CC019828CE0E2E958
:103D8000F1E0DE01129601900D928A95E1F78EEF37
:103D90008D87CE0101960E9466252DCE8AEAC82E17
:103DA00082E0D82E90EBA92E92E0B92E0E943A2004
:103DB000F601819391936F01AE16BF06B9F781E0CA
:103DC00089839091AA029A839091AB029B839091F0
:103DD000AC029C839091AD029D839091AE029E8334
:103DE0009091AF029F839EEF988780931E03CE0130
:103DF00001960E94662542E150E063E270E0CE0148
:103E000001960E940927FE01319682E183301CF061
:103E10009189928B01C0128A815031978F3FB1F7FF
:103E200042E150E063E270E0CE0101960E942D274E
:103E3000E2CD80911F03882309F4DDCD80E00E944C
:103E4000F2228AA10E942923D6CDD9BC19BD09B47A
:103E500000FEFDCF8091D8008F7D8093D8008091A7
:103E6000E00082608093E0008091E00081FDFCCF63
:103E700010923A020E947023C8CD8091F1028823EB
:103E800019F081508093F1026091ED027091EE0281
:103E90008091EF029091F0020E94BE1B08958091E4
:103EA000F102833018F48F5F8093F1026091ED028C
:103EB0007091EE028091EF029091F0020E94BE1B81
:103EC00008951F920F920FB60F9211248F939F9314
:103ED000AF93BF938091FC02811113C08091300297
:103EE00090913102A0913202B09133024196A11D0E
:103EF000B11D8093300290933102A0933202B093AF
:103F00003302BF91AF919F918F910F900FBE0F9091
:103F10001F90189520910A012223C9F020913402A4
:103F200027FF15C0262F2695269526952E31C8F4F5
:103F3000FC01E20FF11D677081E090E001C0880F85
:103F40006A95EAF780959281892382830895FC011E
:103F500006962281621301C012823196E817F90792
:103F6000C1F708952091FA023091FB022817390712
:103F700071F09093FB028093FA02E091F802F091C5
:103F8000F902309721F00084F185E02D099508951C
:103F90002091F6023091F7022817390771F09093BB
:103FA000F7028093F602E091F802F091F90230975F
:103FB00021F00680F781E02D09950895E091F8023F
:103FC000F091F902309729F00190F081E02D0995E8
:103FD000089580E00895CF93DF93EC01EA85FB8597
:103FE000309719F06C857D8509958B810E94ED11C4
:103FF0008C810E94F4110E94FB1186E0FE01119257
:104000008A95E9F7DF91CF910895CF93DF93EC0183
:104010008D8181FD18C082608D839091F3028B8128
:10402000892B8093F30290913A028C81892B8093A3
:104030003A020E94FB11E885F985309721F06C85E2
:104040007D85CE0109951092F5021092F4028D81C2
:1040500080FD03C0CE010E94EB1FDF91CF91089538
:104060008091F202882329F082E20E948423109238
:10407000F2020895CF93DF930E94F92666E070E084
:104080000E94C427D82F0E94F9266EE070E00E949B
:10409000C427C82F6D2F782F80E00E94D10F04977E
:1040A000C59718F48D2F9C2F02C00E943A20DF91F3
:1040B000CF910895882311F0FA0101C0FB01099501
:1040C0000895EF92FF920F931F93CF93DF93809108
:1040D000ED0280FF08C001EB12E08DEEE82E82E0D9
:1040E000F82EF8011BC0E1EBF2E08DEE92E01182B8
:1040F00010821282138234968E179F07C1F7EBCF7E
:10410000381708F4832F8383381B3183281B2083BF
:10411000981B92833496EE16FF0641F0928120811F
:104120003181892F291760F7822FEACF8091B00261
:10413000882381F18091500190915101892B51F593
:1041400080914F01882331F165E070E084E80E949E
:104150009825892B19F010924F011AC0C1EBD2E0BB
:1041600065E070E088810E940B2665E070E089813F
:104170000E940B2665E070E08A810E940B2665E0B4
:1041800070E08B810E940B262496EC16FD0641F709
:104190000E945E26579A8BB18F779BB190682FB79C
:1041A000F894E016F10699F0F80131918F0148E09A
:1041B0009BB9000000C037FF8BB9330F000000C06F
:1041C00000C000C08BB900C04A9591F7EACF2FBF5D
:1041D0008FE594E00197F1F700C00000CDB7DEB79E
:1041E000E6E00C949E26A0E0B0E0E9EFF0E20C944B
:1041F0007D269091ED0290FFAAC0922E142FC62F1B
:10420000D82F9E7F923009F090C0E42FF0E061112A
:1042100006C0E858F84FE491FE2F2E2F72C0E62E0C
:10422000F12CE858F84FF4910F2FCF2ED12C26E027
:10423000829FC00111242FEF30E0B9010E94622655
:104240004BEA4603C001479F900D11248D0F911D2D
:104250008D0F911DB82EBB0CB80EA9014E195F0928
:104260004C9DC0014D9D900D5C9D900D1124E92F3A
:10427000CB9DA0011124452F5527D901A41BB50BB7
:10428000AC9DA001AD9D500DBC9D500D1124D901D8
:10429000AB19B1095D01AE9CD001AF9CB00DBE9CC5
:1042A000B00D1124AB2FBB272A1B3B0B2C9DD0013B
:1042B0002D9DB00D3C9DB00D11242B2F623071054A
:1042C00091F048F461157105E1F061307105B9F4C0
:1042D0002F2FF52F16C06430710569F040F066305D
:1042E000710579F00CC02F2FF92FEB2F0AC0F92F91
:1042F000E02F252F06C0292FEF2FFB2F02C0292FDB
:10430000E52FA1EBB2E08DEE92E01196FC931197B0
:104310002C931296EC93129713961C921397149663
:104320008A179B0791F70E946120D093EE02C093F9
:10433000EF021093F002992051F06091ED0270911C
:10434000EE028091EF029091F0020E94BE1BCDB769
:10435000DEB7EBE00C949926EDEEF2E043812CE021
:10436000421B08F440E021E0628181810E94F32039
:104370000895EDEEF2E043812CE0420F08F44FEF98
:1043800021E0628181810E94F3200895EDEEF2E048
:1043900062812FEF621B08F460E021E0438181819C
:1043A0000E94F3200895EDEEF2E062812FEF620F9C
:1043B00008F46FEF21E0438181810E94F32008958A
:1043C000EDEEF2E0818121E0438162818C500E9418
:1043D000F3200895EDEEF2E0818121E043816281D6
:1043E000845F0E94F3200895EDEEF2E080818E7FDD
:1043F000808360817181828193810E94BE1B2FEF37
:1044000080E792E0215080409040E1F700C000003A
:104410000E94612008958091ED0280FF19C0817093
:1044200082608093ED02662351F06091ED027091FD
:10443000EE028091EF029091F0020E94BE1B20E0FC
:104440004091F0026091EF028091EE020E94F32011
:10445000089560E00E940B220895EDEEF2E0808165
:104460008160808386950E94292208958091ED02C3
:104470008695815009F481E061E00E940B22089545
:1044800080E090E00E94C81F80E090E00E94B21F90
:104490001092F3020E94FB110895CF92DF92FF92D7
:1044A0000F931F93CF93DF936C0100917D02809156
:1044B0002602082BC7E0D0E010E0C8010C2E02C095
:1044C000959587950A94E2F780FD04C02197A8F797
:1044D000F12C09C0FC2EB6018C2F0E94D10F0E9436
:1044E000EA0F019799F38F2DDF91CF911F910F91D3
:1044F000FF90DF90CF900895CF93DF93EC010E945F
:104500004D22BE010E94D10F0E94EA0FDF91CF9190
:104510000895292F9E3078F5863068F590E036E0D2
:10452000239F800D911D1124682F677023E09695BD
:1045300087952A95E1F7FC01EE0FFF1FE80FF91FA1
:10454000E350FD4F40E050E080E0219130E0062E46
:1045500002C0369527950A94E2F721703327042E7E
:1045600001C0220F0A94EAF7822B4F5F5F4F43305E
:10457000510559F7089580E00895292F9E3088F558
:10458000863078F590E036E0239F800D911D112450
:10459000282F277051E001C0550F2A95EAF723E034
:1045A000969587952A95E1F7FC01EE0FFF1FE80F1E
:1045B000F91FE350FD4F20E030E070E04081CB0177
:1045C000022E02C0969587950A94E2F78170819534
:1045D00084278523842781932F5F3F4F2330310524
:1045E00069F70895A0E2B0E0E8EFF2E20C948526C6
:1045F0000E942F0D182F80911F038823A9F02FEF01
:1046000080E792E0215080409040E1F700C0000038
:1046100085E08983812F0E94030D8A838EEF8B832F
:10462000CE0101960E94662510937D020E944022D1
:10463000A096E3E00C94A12621E030E001C0220F17
:104640008A95EAF7209580917D0282230E94F222CA
:10465000089521E030E001C0220F8A95EAF78091A9
:104660007D02822B0E94F2220895809326020E94EE
:104670004022089592959F70963079F010F49250F0
:1046800001C09A50923068F4803F69F018F4883E77
:1046900040F409C0843F29F406C0883E20F0813FE1
:1046A00011F080E0089581E00895FC0190818181FE
:1046B00023813481232B31F08F3F31F481E09F3F00
:1046C00019F403C081E001C080E080FD07C0808153
:1046D00091810E947C220E943A23089580E00895EF
:1046E00080910A01882331F08091340287FF02C053
:1046F0008EE101C086E0EEEAF1E0DF011D928A95CD
:10470000E9F70E9440220895882321F00E94ED11CC
:104710000E94FB110895882339F09091F302892BB0
:104720008093F3020E94FB110895882321F00E94D8
:10473000F4110E94FB110895882339F090913A02F8
:10474000892B80933A020E94FB110895882349F136
:10475000682F8CEF860F813A28F48CEA91E00E9452
:104760008A1F0CC080E2860F883058F4677081E0A1
:1047700001C0880F6A95EAF70E94F4110E94FB11AC
:1047800008958BE5860F833028F480E090E00E9446
:10479000C81F0895685A673120F480E090E00E94B5
:1047A000B21F0895CF93882309F49AC0C82F8CEFC5
:1047B0008C0F813A08F05EC080910A018823E1F0F5
:1047C0008091340287FF18C0EC2FE695E695E695B8
:1047D000F0E0E455FE4F8281282F30E04C2F4770E7
:1047E00081E090E002C0880F991F4A95E2F782238A
:1047F0009323892B59F411C0EEEAF1E08191C81797
:1048000029F081E0E43BF807C9F707C06C2F8CEA78
:1048100091E00E948A1F0E94FB1180910A01882367
:10482000C9F08091340287FF15C0AC2FA695A695DC
:10483000A695B0E0A455BE4FC77081E090E001C0DE
:10484000880FCA95EAF712969C911297892B1296B7
:104850008C9320C0AEEAB1E0EFEF80E09D91C917E4
:10486000C9F0EF3F19F4911101C0E82F8F5F863036
:10487000A9F72DC080E28C0F883078F4C77081E0F2
:1048800090E001C0880FCA95EAF790913A02892B0F
:1048900080933A020E94FB1123C0EBE5EC0FE3305A
:1048A00040F4F0E0EE5AFE4F808190E00E94C81F75
:1048B00017C0C85AC731A0F4EC2FF0E0EE0FFF1F6D
:1048C000EB5AFE4F808191810E94B21F09C0EF3FD9
:1048D00009F30E2E000CFF0BE455FE4FC283DACF16
:1048E000CF9108951F93CF93DF93182F893319F039
:1048F000C0E0D0E002C0C0E5D0E0812F0E94D2230A
:10490000209741F08FE99FE00197F1F700C0000088
:104910002197F6CF812F0E94A623DF91CF911F917F
:104920000895A0E0B0E0E7E9F4E20C947E26EC0103
:104930008AE0A82EFE012491222309F498C0213098
:1049400009F03DC031968491813021F42296FE0118
:10495000849187C0823031F42296FE0184910E94B6
:10496000D22383C0833031F42296FE0184910E94C9
:10497000A6237BC0843009F077C02296FE012491E3
:1049800080E090E030E0205331092A30310560F4B6
:10499000A89EA001A99E500D1124C901840F951F46
:1049A0002196FE012491EECF009709F45EC0EFE955
:1049B000FFE03197F1F700C000000197F5CFE22F3B
:1049C000F0E0E855F74FB490822F8695869586954E
:1049D00090E0FC01E856F74FE4902770F12C022E8E
:1049E00002C0F594E7940A94E2F7F1E0EF22FF2485
:1049F000FC01E857F74FC490D12C022E02C0D59489
:104A0000C7940A94E2F731E0C322DD24FC01E858A0
:104A1000F74F049110E002C0159507952A95E2F72B
:104A200001701127E114F10419F081EE0E94D223E4
:104A3000C114D10419F086EE0E94D2238B2D0E945E
:104A40007224C114D10419F086EE0E94A623E11449
:104A5000F10419F081EE0E94A6230115110529F039
:104A60008CE20E94722401C0EF01219663CFCDB782
:104A7000DEB7EAE00C949A26EF92FF920F931F9311
:104A8000CF93DF937C018B010E943A1B811119C0E7
:104A9000E70101151105A1F08091E80085FD0AC02C
:104AA0008091E8008E778093E8000E943A1B88236B
:104AB00081F307C089918093F10001501109E9CF7A
:104AC00080E0CDB7DEB7E6E00C949E26CF93209130
:104AD0002003243029F5C091E900CF703091EC001B
:104AE000232F217030FD20E8C22B22E02093E90023
:104AF0002091E80020FF11C040E050E060E270E04B
:104B00000E943C25882321F010921E0310921F035F
:104B10008091E8008E778093E800CF70C093E90021
:104B2000CF9108951092B9008CE08093B800089559
:104B3000A0E0B0E0EEE9F5E20C947D26B82EEB01A2
:104B40000E94A21B6C01C431D10558F0CF3F8FEFFA
:104B5000D80759F0CE0164E170E00E9462267B0123
:104B600007C0EE24E394F12C03C025E0E22EF12CE3
:104B700084E8A82E94EA992E1092BC009092BC0072
:104B80000E94A21B8C018091BC0087FD07C0C80158
:104B90000E94931BE816F906B0F729C08091B9006E
:104BA000887F883041F08091B900887F803119F08A
:104BB0000FEF1FEF1EC0B092BB00A092BC000E947E
:104BC000A21B8C018091BC0087FD07C0C8010E9418
:104BD000931BE816F906B0F70AC08091B900887FE8
:104BE000883111F0803421F700E010E00EC00EEFA4
:104BF0001FEFCF3F8FEFD80709F4BECFC6010E9449
:104C0000931BC817D90708F0B7CFC801CDB7DEB7D7
:104C1000EBE00C9499260F931F93CF93DF93EB0156
:104C20008093BB0084E88093BC000E94A21B8C018F
:104C30008091BC0087FD0DC0CF3F8FEFD807C1F337
:104C4000C8010E94931BC817D90790F78EEF9FEFFA
:104C50000CC02091B900287F81E090E0283211F447
:104C600080E090E0919581959109DF91CF911F911E
:104C70000F9108950F931F93CF93DF93EC0184E876
:104C80008093BC000E94A21B8C018091BC0087FD18
:104C90000DC0CF3F8FEFD807C1F3C8010E94931B0F
:104CA000C817D90790F78EEF9FEF03C08091BB0024
:104CB00090E0DF91CF911F910F91089584E9809347
:104CC000BC000895AA1BBB1B51E107C0AA1FBB1F54
:104CD000A617B70710F0A61BB70B881F991F5A9588
:104CE000A9F780959095BC01CD0108952F923F9230
:104CF0004F925F926F927F928F929F92AF92BF92EC
:104D0000CF92DF92EF92FF920F931F93CF93DF9397
:104D1000CDB7DEB7CA1BDB0B0FB6F894DEBF0FBEF4
:104D2000CDBF09942A88398848885F846E847D8441
:104D30008C849B84AA84B984C884DF80EE80FD8043
:104D40000C811B81AA81B981CE0FD11D0FB6F894B9
:104D5000DEBF0FBECDBFED0108958F929F92AF923F
:104D6000BF92CF92DF92EF92FF92CF93DF93EC014D
:104D7000688179818A819B81611571058105910521
:104D800021F464E279ED8BE597E02DE133EF41E02A
:104D900050E00E94612749015A019B01AC01A7EA3A
:104DA000B1E40E9480276B017C01ACEEB4EFA50159
:104DB00094010E948E27DC01CB018C0D9D1DAE1D40
:104DC000BF1DB7FF03C00197A109B048888399832D
:104DD000AA83BB839F77DF91CF91FF90EF90DF9005
:104DE000CF90BF90AF909F908F9008950E94AD2676
:104DF000089580E091E00E94AD260895A0E0B0E023
:104E00008093000190930101A0930201B0930301EC
:104E10000895DC01CB01FC01F999FECF06C0F2BD7B
:104E2000E1BDF89A319600B40D9241505040B8F768
:104E30000895F999FECF92BD81BDF89A992780B562
:104E40000895A6E1B0E044E050E00C940B27A8E1FF
:104E5000B0E042E050E00C940B27DC01A40FB51F3A
:104E60004150504048F0CB01840F951F2E910E9475
:104E70003E2741505040D0F70895262FF999FECF94
:104E800092BD81BDF89A019700B4021639F01FBA9D
:104E900020BD0FB6F894FA9AF99A0FBE08950396BA
:104EA000272F0E943E270E943D27252F0E943E2744
:104EB000242F0C943E270196272F0E943E270C9406
:104EC0003D27052E97FB1EF400940E94782757FD7E
:104ED00007D00E94932707FC03D04EF40C94782748
:104EE00050954095309521953F4F4F4F5F4F089516
:104EF00090958095709561957F4F8F4F9F4F089546
:104F00000E94B527A59F900DB49F900DA49F800D82
:104F1000911D11240895B7FF0C9480270E948027CB
:104F2000821B930B0895A1E21A2EAA1BBB1BFD0145
:104F30000DC0AA1FBB1FEE1FFF1FA217B307E40778
:104F4000F50720F0A21BB30BE40BF50B661F771FD0
:104F5000881F991F1A9469F76095709580959095B0
:104F60009B01AC01BD01CF010895A29FB001B39F89
:104F7000C001A39F700D811D1124911DB29F700D62
:104F8000811D1124911D089597FB072E16F400949E
:104F900007D077FD09D00E94622607FC05D03EF4B9
:104FA000909581959F4F0895709561957F4F0895D5
:104FB000EE0FFF1F0590F491E02D09940F931F93BE
:104FC000CF93DF938230910510F482E090E0E0917E
:104FD0002303F091240320E030E0A0E0B0E030971C
:104FE00019F1408151810281138148175907C8F096
:104FF0008417950769F4109731F012960C93129765
:1050000013961C9327C0009323031093240322C0FC
:105010002115310519F04217530718F49A01BD0103
:10502000EF01DF01F801DBCF21153105F9F0281B75
:10503000390B2430310580F48A819B81611571051B
:1050400021F0FB019383828304C090932403809317
:105050002303FE01329644C0FE01E20FF31F819349
:10506000919322503109398328833AC0209121033A
:1050700030912203232B41F4209106013091070146
:1050800030932203209321032091040130910501E4
:105090002115310541F42DB73EB7409108015091DB
:1050A0000901241B350BE0912103F0912203E21743
:1050B000F307A0F42E1B3F0B2817390778F0AC013B
:1050C0004E5F5F4F2417350748F04E0F5F1F509318
:1050D0002203409321038193919302C0E0E0F0E02A
:1050E000CF01DF91CF911F910F910895CF93DF935F
:1050F000009709F481C0FC01329713821282A091BB
:105100002303B0912403109781F420813181820F11
:10511000931F20912103309122032817390751F55D
:10512000F0932203E093210367C0ED0120E030E01B
:10513000CE17DF0740F44A815B819E01411551057E
:10514000F1F0EA01F5CFD383C28340815181840F0E
:10515000951FC817D90759F488819981840F951F25
:105160000296918380838A819B8193838283211518
:10517000310529F4F0932403E09323033DC0E901B2
:10518000FB83EA8349915991C40FD51FEC17FD07A2
:1051900061F480819181840F951F0296E9019983C2
:1051A0008883828193819B838A83E0E0F0E012967A
:1051B0008D919C911397009719F0FD01DC01F7CFB9
:1051C0008D919C9111979D012E5F3F4F820F931FF0
:1051D00020912103309122032817390769F4309771
:1051E00029F4109224031092230302C01382128226
:1051F000B0932203A0932103DF91CF910895FB0187
:10520000DC0104C08D910190801921F4415050407F
:0C521000C8F7881B990B0895F894FFCF95
:10521C000100000000002503200001601697165FB6
:10522C001692168D165E16000000000000BD0B399C
:10523C000C110B0000000000000000A10B190CF475
:10524C000A0000000000000000850BF90BD70A00D3
:10525C0000000000000000690BD90BBA0A00000125
:10526C002000818283E200E900EA00B500B600B7B5
:10527C0000CD008301CC008A01920194012102230C
:10528C000224022502260227022A02B300B4006F70
:10529C0000700040226D79065706EA05CB06E4063D
:0E52AC00040757724B59342F58396D6D670047
:00000001FF
