:1000000081C500009CC500009AC5000098C500008D
:1000100096C5000094C5000092C5000090C5000080
:100020008EC500008CC500000C9441310C940C323C
:100030000C94A22B84C5000082C5000080C500007E
:100040007EC500007CC500007AC5000078C50000B0
:1000500076C500000C942B2C72C5000070C5000002
:100060006EC500006CC500006AC5000068C50000D0
:1000700066C5000064C5000062C5000060C50000E0
:100080005EC500005CC500005AC5000058C50000F0
:1000900056C5000054C5000052C5000050C5000000
:1000A0004EC500004CC500004AC50000FA05FD051C
:1000B00000060306060609060C06E709EA09ED092B
:1000C000F009F509FA09FF090F0A1C0A2B0A380A78
:1000D000450A520A5F0A560E560E7F0E7F0ECD0E4F
:1000E000C10FC10FC10FE90E590F680F680FD2225F
:1000F000E422E9220A23FB220823082306230823FB
:1001000070329732883397328833E232043388333F
:100110005833673301012901043130307C01012952
:1001200001043130307C01012901043130307C017F
:10013000012901043130307C01012900010129012C
:10014000043130307C01012B01043130307C01015D
:100150002B01043130307C01012B01043130307C23
:100160000101290029001E001F00000029002B00AA
:10017000E000E100AE5D00001E00140004001D0060
:10018000010029031F001A0016001B000100E300F4
:100190002000080007000600E200025421001500BC
:1001A0000900190002546B0F220017000A00050015
:1001B00000000554230000570000015700004600CE
:1001C000220002570000035700000A0C23001C0005
:1001D0000B00110000001507240018000D0010008E
:1001E0000154460C25000C000E003600E2002C41A4
:1001F000260012000F00370007542C43270013007D
:10020000330038000554000F35002A002800340060
:1002100006540000B65D2B02010001000100000041
:10022000010001002D020100010001000100310266
:100230003100010001000100010001002E02010057
:1002400001000100010001002D000100010001007A
:10025000010001002E00010000000100010001006A
:100260000000010000000100010001000000010089
:100270000000010001000100010001000000010078
:1002800001002F002F0226020100010001003000B2
:1002900030022702010001000100010001000100FD
:1002A0000100010001000100010001000100010046
:1002B00001000100010001000100000029012B03E1
:1002C000E000E100010000000100140404041D042A
:1002D000010001003B041A0416041B040100010084
:1002E00001000804070406040100010001001504D0
:1002F0000904190401000100010017050A0405049E
:1003000000000100010001000000010000000100E8
:1003100001000100000001000000010001001C04B8
:1003200050001104000001000100180451001004E5
:100330000100010001000C04520036040100E50038
:10034000010012044F0037040100010001001304F2
:100350003304380401000100010001000100010024
:100360000100000001000100010001000100000087
:100370000100010001000100010001000100010075
:100380000100010001000100010001000100010065
:100390000100010001000100010001000100010055
:1003A0000100010001000100000001000100010046
:1003B0000000010000000100010001000000010038
:1003C00000000100010001005000010000000100D8
:1003D00001000100520001000100010001000100C4
:1003E0005100010001000100010001004F00010067
:1003F00001000100010001000100010001000100F5
:1004000001000100010001000100000029000100BD
:1004100001000100010000000100010001000100D5
:1004200001000100010001000100010001000100C4
:1004300001000100010001000100010001000100B4
:1004400001000100010001000100010001000100A4
:100450000000010001000100000001000000010097
:100460000100010000000100000001000100110076
:1004700023022E00000001004C00240021001E0079
:10048000360001003800250022001F00270001006F
:100490002502260023002000630001002D002E020B
:1004A00028002B002B1201000100010001000100B7
:1004B000010000002900010001000100010000000E
:1004C0003A003F0044000100010001003B004000F1
:1004D00045000100010001003C00410068000100EE
:1004E000010001003D00420069000100010001001F
:1004F0003E0043006A00010000000100A800A900BE
:100500000000AA00000001000100AE000000480049
:100510000000010001000100AC000100000001002A
:1005200001000100AA00A800010001000100010073
:10053000A90001000100AB0001000100AB000100B7
:100540000100AC00010048000100010001000100B1
:1005500001000100AE00010001000000B75D0100D4
:100560000100010001000000010001000100010084
:100570000100010001000100010001000100010073
:100580000100010001000100010001000100010063
:100590000100010001000100010001000100010053
:1005A0000000010001000100000001000000010046
:1005B0000100010000000100000001000100010035
:1005C0000100010000000100010001000100010024
:1005D0000100010001000100010001000100010013
:1005E0000100010001000100010001000100010003
:1005F00001000100100F010001000100005C01007A
:1006000001000000010001000100010001000000E4
:100610003A00010001000100010001003B0001005F
:1006200001000100010001003C0001000100010087
:10063000010001003D000100010001000100010076
:100640003E00010001000100000001004400010023
:100650000000010000000100450001000000010051
:10066000000001003F000100010001000000010046
:1006700040000100010001000100010041000100F3
:100680000100010001000100420001000100010021
:100690000100010043000100010001000100010010
:1006A0004C054C0001000100010000001E0F050078
:1006B000047F3F1F643214643214783C1E1E140AF7
:1006C000052223252628292A2C2D2F303233353692
:1006D000383A3B3D3E4042434547494A4C4E5051D3
:1006E000535557595A5C5E6062646668696B6D6FFA
:1006F00071737577797B7D7F81838587898A8C8EFD
:1007000090929496989A9C9E9FA1A3A5A7A8AAAC04
:10071000AEAFB1B3B4B6B8B9BBBCBEBFC1C2C3C53E
:10072000C6C7C9CACBCCCDCED0D1D2D2D3D4D5D6E0
:10073000D7D7D8D9D9DADADBDBDBDCDCDCDCDCDD13
:10074000DDDDDDDCDCDCDCDCDBDBDBDADAD9D9D8F7
:10075000D7D7D6D5D4D3D2D2D1D0CECDCCCBCAC98F
:10076000C7C6C5C3C2C1BFBEBCBBB9B8B6B4B3B1BE
:10077000AFAEACAAA8A7A5A3A19F9E9C9A98969459
:1007800092908E8C8A89878583817F7D7B7977752E
:1007900073716F6D6B6968666462605E5C5A59570D
:1007A000555351504E4C4A4947454342403E3D3BCC
:1007B0003A3836353332302F2D2C2A292826252356
:1007C00022FFAA7F55400001010101010101010141
:1007D00002020202020202020203030303030303F2
:1007E00003040404040404040505050505060606BF
:1007F0000606070707070708080808090909090A7C
:100800000A0A0B0B0B0C0C0C0D0D0D0E0E0E0F0F20
:100810000F101011111112121313141415151616AE
:100820001717181819191A1A1B1B1C1D1D1E1E1F1D
:100830002020212222232424252626272829292A6C
:100840002B2C2D2D2E2F3031323233343536373894
:10085000393A3B3C3D3E3F40414243444546474890
:10086000494A4C4D4E4F50515354555658595A5B66
:100870005D5E5F616264656668696B6C6D6F707206
:10088000737577787A7B7D7E8082838587888A8C72
:100890008E8F91939596989A9C9EA0A2A3A5A7A9A6
:1008A000ABADAFB1B3B5B7BABCBEC0C2C4C6C9CB9D
:1008B000CDCFD1D4D6D8DBDDDFE2E4E7E9EBEEF053
:1008C000F3F5F8FAFDFF00000000000000002A2BFD
:1008D00028000000000000000000000000000000F0
:1008E0000029000000002C1E342021222434262759
:1008F000252E362D3738271E1F202122232425267A
:100900003333362E37381F0405060708090A0B0C47
:100910000D0E0F101112131415161718191A1B1C8F
:100920001D2F3130232D350405060708090A0B0C4D
:100930000D0E0F101112131415161718191A1B1C6F
:100940001D2F3130354C0000000000000000000079
:100950000000000000000000000000000000000097
:10096000000000000000000000007E0F00D4FFFF28
:10097000FFC70000007822034500720067006F0087
:1009800044006F007800200045005A00200053000A
:10099000680069006E006500000028035A005300DB
:1009A0004100200054006500630068006E006F0085
:1009B0006C006F006700790020004C00610062004D
:1009C000730000000403090409025B00030100A096
:1009D000FA090400000103010100092111010001CD
:1009E00022400007058103080001090401000203F9
:1009F00000000009211101000122220007058203E5
:100A0000200001070503032000010904020001037F
:100A1000000000092111010001226D000705840377
:100A20002000011201000200000008973275490100
:100A300000010200010660FF0961A10109621500C1
:100A400026FF009520750881020963150026FF0026
:100A5000952075089102C005010980A1018503193F
:100A6000012AB700150126B700950175108100C055
:100A7000050C0901A101850419012AA0021501260E
:100A8000A002950175108100C005010906A101852C
:100A900006050719E029E71500250195087501816C
:100AA000020507190029EF1500250195F075018150
:100AB0000205081901290595057501910295017531
:100AC000039101C005010906A101050719E029E705
:100AD00015002501950875018102950175088101B0
:100AE0000507190029FF150026FF009506750881E6
:100AF00000050819012905950575019102950175F3
:100B0000039101C011241FBECFEFDAE0DEBFCDBFDD
:100B100012E0A0E0B1E0E6EFFCE602C005900D9225
:100B2000AA31B107D9F724E0AAE1B2E001C01D92D1
:100B3000A539B207E1F70E94E8190C94793660CA2A
:100B40008098889A8198899A84988C9A85988D9AA9
:100B500086988E9A87988F9A089520982898219839
:100B6000299822982A9823982B9852985A98539803
:100B70005B983E9846980895CF93E82F873080F58C
:100B800080910B0190910C01892B09F047C0CE2F69
:100B900060E570E080E40E94882990930C018093C6
:100BA0000B01892BD1F460E570E082E10E94F52908
:100BB00090930C0180930B01892B79F481E090E0F4
:100BC00001C0880FCA95EAF760E570E080950E9441
:100BD000F52990930C0180930B010E94442A1EC0BA
:100BE00090E0FC013797E730F105C0F4EA5AFF4F77
:100BF0000C941634209A289811C0219A29980EC076
:100C0000229A2A980BC0239A2B9808C0529A5A9875
:100C100005C0539A5B9802C03E9A4698CF910895BA
:100C2000CF93873040F580910B0190910C01892B77
:100C300059F560E570E081E40E94882990930C01E9
:100C400080930B01892B11F0C0E011C080E590E08A
:100C50000E94222A97FF05C090930C0180930B01FC
:100C6000F3CFC82FC09510920C0110920B010E9477
:100C7000442A8C2F0AC09FB18FB1807F86958695BC
:100C80009370892B809501C080E0CF91089557D152
:100C900090E090930C0180930B015FDF51CF08959A
:100CA000EF92FF920F931F93CF93DF9380910B01ED
:100CB00090910C01892BA9F080911C028F5F809389
:100CC0001C0281110EC03BD190E090930C018093E7
:100CD0000B01892B31F48DD081E080930A010E94B1
:100CE000131B0CE114E0C0E0F12C87E0E82EEC0EC1
:100CF0008C2F42DF8E2D40DF8C2F92DF8F73F80117
:100D00009081891719F08083D1E001C0D0E08E2D49
:100D100087DF8F73F8019781891719F0878381E046
:100D200001C080E0D82BFD2A18DFCF5F0F5F1F4F77
:100D3000C730D9F68F2DCDB7DEB7E6E00C946F340F
:100D4000FED090E090930C0180930B0106DFF8DE5B
:100D5000EAE2F4E0119284E0E833F807D9F7089565
:100D6000EF92FF920F931F93CF93DF937C01162F87
:100D700080912002882399F180910B0190910C01C0
:100D8000892B69F580910A01882349F165E070E0BB
:100D900084E80E948829892B21F4CE2DDF2D00E0E4
:100DA00003C010920A0119C00117B9F065E070E0A4
:100DB00088810E94F52965E070E089810E94F5290B
:100DC00065E070E08A810E94F52965E070E08B8122
:100DD0000E94F5290F5F2496E7CF0E94442A612FD5
:100DE00070E0C7010E94AD21CDB7DEB7E6E00C94FC
:100DF0006F34CF93DF9356985E9825982D98269858
:100E00002E9827982F98C8E8D0E08FEF90E099832C
:100E10008883AAE8B0E011969C938E93ECE8F0E00A
:100E200091838083259A2D9A2FEF80E792E02150BD
:100E300080409040E1F700C00000269A2E9A2FEFE4
:100E400080E792E0215080409040E1F700C0000030
:100E5000279A2F9A2FEF80E792E021508040904010
:100E6000E1F700C0000025982D982FEF80E792E071
:100E7000215080409040E1F700C0000026982E9855
:100E80002FEF80E792E0215080409040E1F700C0D2
:100E9000000027982F988091110487702FEF829F70
:100EA000C0011124959587959595879599279983E4
:100EB000888311969C938E939183808356985E9835
:100EC00025982D9826982E9827982F98DF91CF91C6
:100ED000089589EA8093800089E0809381002498B6
:100EE0002C983F988AB18F7C8AB96E98479A8BB1BB
:100EF00080638BB9769A0E94CC156093110470932D
:100F00001204809313049093140467708FEF689F0A
:100F1000B00111247595679575956795772770933E
:100F200089006093880070938B0060938A007093AF
:100F30008D0060938C005DDF0C941119089580E2A0
:100F400090E090930C0180930B018091200281111D
:100F50000EC00E94822981E0809320022FEF83ED52
:100F600090E3215080409040E1F700C0000060E530
:100F700070E080E40E94882990930C0180930B011B
:100F8000892B09F04EC060E570E080E00E94F529F1
:100F900090930C0180930B01892B09F042C060E50E
:100FA00070E080E00E94F52990930C0180930B0182
:100FB000892BB9F560E570E08FE30E94F5299093E5
:100FC0000C0180930B01892B61F50E94442A60E596
:100FD00070E080E40E94882990930C0180930B01BB
:100FE000892BF9F460E570E08CE00E94F52990937C
:100FF0000C0180930B01892BA1F460E570E080E087
:101000000E94F52990930C0180930B01892B49F4E0
:1010100060E570E08FE30E94F52990930C018093C6
:101020000B010E94442A80910B0108950F931F9396
:10103000CF93DF938C01EB01833B9D45C9F58A81FA
:101040008823B1F19091110481E0890F8770987F16
:10105000853020F4892B8093110402C090931104F1
:101060008091110487702FEF829FC0011124959504
:101070008795959587959927909389008093880007
:1010800090938B0080938A0090938D0080938C00C6
:1010900060911104709112048091130490911404D2
:1010A0000E94D11580915E0290915F020E9474109F
:1010B000BE01C8013DD1DF91CF911F910F910895DD
:1010C000109211041092120410921304109214043E
:1010D00084E0809311046091110470911204809156
:1010E0001304909114040E94D1150C94DF150895F7
:1010F00020916A0380911E0290911F022223D1F158
:10110000892B31F425982D9826982E9827982F987A
:1011100080911E0290911F029170892B79F4809129
:101120001D02882319F026982E9802C0269A2E9A1E
:1011300090911D0281E0892780931D0280911E02FB
:1011400090911F028130984758F010926A03809165
:101150005E0290915F0225D110921F0210921E0232
:1011600080911E0290911F02019690931F0280931E
:101170001E020BC0892B49F010921F0210921E0212
:1011800080915E0290915F020CD10C940F1908952A
:10119000CF93DF93EC018A81833049F480E591E0BD
:1011A000C9D280E591E0C6D280E591E0C3D28A81C0
:1011B000843018F080E591E0BDD2DF91CF910895A1
:1011C000CF93DF93EC018A81833049F48AE490E085
:1011D000B1D28AE490E0AED28AE490E0ABD28A81C8
:1011E000843018F08AE490E0A5D2DF91CF91089581
:1011F000CF93DF93EC018A81833049F48FE491E14E
:1012000099D28FE491E196D28FE491E193D28A81D1
:10121000843018F08FE491E18DD2DF91CF91089561
:10122000CF93DF93EC018A81833049F48DE490E021
:1012300081D28DE490E07ED28DE490E07BD28A81F1
:10124000843018F08DE490E075D2DF91CF9108954D
:101250008FE39CE90197F1F700C000008091220222
:10126000823049F018F4813049F00BC0833031F0FE
:10127000853021F006C080E593E002C080E591E072
:101280002CD21092220208958FE39CE90197F1F786
:1012900000C0000080912402823049F018F48130AF
:1012A00049F00BC0833031F0853021F006C08AE46C
:1012B00092E002C08AE490E010D2109224020895D5
:1012C0008FE39CE90197F1F700C0000080912602AE
:1012D000823049F018F4813049F00BC0833031F08E
:1012E000853021F006C08FE493E002C08FE491E1E5
:1012F000F4D11092260208958FE39CE90197F1F74B
:1013000000C0000080912802823049F018F481303A
:1013100049F00BC0833031F0853021F006C08DE4F8
:1013200092E002C08DE490E0D8D110922802089596
:10133000CF93FB01853B2DE59207E9F020F4843B38
:101340009D4501F12AC0863B2DE5920721F0873BA0
:101350009D4541F022C0C281CC23F9F060E08CE3CE
:1013600091E006C0C281CC23C1F060E084E191E04D
:101370000E94F82313C0C281CC2381F081E00E9437
:10138000DA1F09C0C281CC2349F09091290281E083
:10139000892780932902C0E001C0C1E08C2FCF9142
:1013A0000895CF93DF93EC019ED256985E982598CE
:1013B0002D9826982E9827982F9890E0FC01319729
:1013C000E730F10518F5E35AFF4F0C941634259ACF
:1013D0002D9A32C0269A2E9A3EC0279A2F9A48C03C
:1013E000259A2D9A269A2E9A50C0259A2D9A279A98
:1013F0002F9A58C0269A2E9A279A2F9A60C0259A1B
:101400002D9A269A2E9A279A2F9A66C08730910590
:1014100008F062C0FC01EC59FF4F0C941634809127
:10142000290281117BC00E941D2081E00E94ED1FD6
:101430004FEB62EE86E80CC08091290281116EC0EC
:101440000E941D2081E00E94ED1F4FEF6FEF8CEB9B
:101450000E94A21C63C08091290281115FC00E947A
:101460001D2081E00E94ED1F4FEF6FEF88E9F0CF64
:1014700080912902811152C00E941D2081E00E94AA
:10148000ED1F4CEC6AED83EBE3CF809129028111D3
:1014900045C00E941D2081E00E94ED1F4CEC6AEDCA
:1014A0008CEAD6CF80912902811138C00E941D207C
:1014B00081E00E94ED1F4CEC6AED82E3C9CF809180
:1014C000290281112BC00E941D2081E00E94ED1F86
:1014D0004FEF6FEF80E0BCCF8091290281111EC0D9
:1014E0000E94B91A60931504709316048093170430
:1014F0009093180460FF10C00E94DD1F80911504B6
:1015000086950E94DA1F409118046091170480911B
:1015100016040E949F1C02C00E94391FCE01DF9159
:10152000CF91089580915E0290915F023ACF089525
:10153000FC018281813039F4958192FD12C090FFC7
:1015400010C082E00895823039F4858182FD06C0A2
:1015500080FD06C083E0089586E0089585E0089543
:1015600084E00895E5DF80932202823049F018F488
:10157000813081F00895833031F0853041F0089555
:1015800080E593E009C080E591E092D003C080E55A
:1015900091E0D0D080E591E08BC00895C9DF8093C1
:1015A0002402823049F018F4813081F008958330AC
:1015B00031F0853041F008958AE492E009C08AE470
:1015C00090E076D003C08AE490E0B4D08AE490E062
:1015D0006FC00895ADDF80932602823049F018F481
:1015E000813081F00895833031F0853041F00895E5
:1015F0008FE493E009C08FE491E15AD003C08FE4F7
:1016000091E198D08FE491E153C0089591DF8093E8
:101610002802823049F018F4813081F00895833037
:1016200031F0853041F008958DE492E009C08DE4F9
:1016300090E03ED003C08DE490E07CD08DE490E05B
:1016400037C008959C013A9521153F4130F5BC0102
:1016500066277270AC01442754709C0122273870B1
:1016600094FF0FC090FF02C080E101C080E0672BB3
:1016700009F08062452B09F08064232B79F08068A3
:101680000895892F8170672B09F08260452B09F03E
:101690008460232B19F08860089580E00895CF932B
:1016A000DF93EB01CFDFFE010995DF91CF91089524
:1016B000CF93DF93EC01805E9109089710F020979B
:1016C00019F46CEB7DE002C066EC7DE0CE01E7DF53
:1016D0008C2FBDD1DF91CF910895CF93DF93EC0193
:1016E00000D2CE01805E9109089710F0209719F47E
:1016F00061EC7DE002C06BEC7DE0CE01D0DFDF91DC
:10170000CF9108950F931F93CF93DF938C01EB013B
:10171000CFDF209741F08FE99FE00197F1F700C0FC
:1017200000002197F6CFC801D8DFDF91CF911F913C
:101730000F9108958933910519F060E070E002C0BF
:1017400060E570E0DFCF089581E008950895FECF51
:101750000895A5E0B0E0EFEAFBE00C94563449832D
:101760005A8330912F0289819A81311111C06623E9
:1017700049F0222339F093D5182F682F89819A8157
:101780006CD502C07BD5182F69817A81812F03C067
:1017900086D569817A810E94F1172596E3E00C9441
:1017A0007234FC0186819781009739F4262F40819D
:1017B0005181628173818481CCCF0895CF93DF936F
:1017C000EC0161E0EEDFBE010E94FB26DF91CF91CC
:1017D0000895CF93DF93EC0160E0E3DFBE01B7DF54
:1017E000DF91CF91089575CB089582CC0895089527
:1017F000EAD1FDDF2FEF84E39CE021508040904050
:10180000E1F700C000000895F3DF0C94512C089517
:10181000EFDF0C94832C08950F931F93CF93DF93E6
:101820008C0161E0BEDFEC01B8010E94E328B80141
:10183000CE010E942123882309F443C0B801CE01C0
:10184000F5DB882309F43DC0B801CE010E940529CB
:101850008823B9F1B801CE010E948124882389F13F
:10186000B801CE010E94E420882359F1F801828159
:10187000882321F1CC358DE5D807D9F050F4C11576
:10188000FCE5DF0779F0CF3DDC45C1F40E9440164E
:101890000BC0CE35EDE5DE0749F070F0C93ADD4505
:1018A00019F00CC0B1DF0DC0B3DF0BC00E94891569
:1018B00005C00E94921502C00E949515C80144DF20
:1018C00001C080E0DF91CF911F910F9108950E9498
:1018D000822B3ED00C94621F08953DD00E9425209B
:1018E0000C94862B0895292F33272115310519F0E3
:1018F000C90148E001C040E09C0164E036952795AD
:101900006A95E1F72115310511F04C5FC9019C0181
:1019100036952795369527952115310511F04E5F9F
:10192000C9019C0136952795232B09F04F5F842F21
:1019300008950895FECF089581E00895FDCF08959C
:101940000895CF93C82FF6DF8C2FF8DFCF9108953D
:1019500080E0F7CF08950E94522AF3CF0895CF93E5
:101960000E94522AC82F80912A02C81771F0C09392
:101970002A020E94102C60932B0270932C028093F9
:101980002D0290932E028C2FDCDFCF910895ADE0D5
:10199000B0E0EDECFCE00C945734942F4987252FF0
:1019A0005A876B877C878D874C855D85452B31F009
:1019B0002F3F31F481E09F3F19F403C081E001C063
:1019C00080E080FD09C08091300290913102019643
:1019D00090933102809330028B858111F0D79E0164
:1019E0002F5F3F4F88E0F90111928A95E9F785E072
:1019F000FE013996D90101900D928A95E1F789810E
:101A00009A814C815D81452B31F09F3F31F491E00B
:101A10008F3F19F403C091E001C090E090FF0AC02D
:101A200029813A814B815C816D817E818F8198858E
:101A3000ECD604C0C901C2DE8111F2CF2D96E2E0DE
:101A40000C947334FC01808191815AC40895CF9322
:101A5000882309F444C0C82F8CEF8C0F813AC8F456
:101A60006C2F80914C0190914D010E94BB2A8823DC
:101A700041F06C2F80914C0190914D010E94472BB9
:101A8000BED76C2F80914C0190914D010E943B2B51
:101A90000BC080E28C0F883048F4C77081E001C031
:101AA000880FCA95EAF76BD7AAD719C0EBE5EC0FF8
:101AB000E33040F4F0E0E156FE4F808190E00E9478
:101AC000792A0DC0C85AC73150F4EC2FF0E0EE0F60
:101AD000FF1FEF58FE4F808191810E948F2ACF9186
:101AE0000895882349F1682F8CEF860F813A38F4E6
:101AF00080914C0190914D010E94472B0BC080E2D8
:101B0000860F883048F4677081E001C0880F6A95BD
:101B1000EAF73BD774C708958BE5860F833028F426
:101B200080E090E00C94792A0895685A673120F497
:101B300080E090E00C948F2A08951F93CF93DF9359
:101B4000182FEB0184DF209741F08FE99FE0019788
:101B5000F1F700C000002197F6CF812FC2DFDF919F
:101B6000CF911F910895893319F060E070E002C0B1
:101B700060E570E0E2CF0895882311F000D73FC7F9
:101B80000895882311F001D73AC70895882311F0EA
:101B900009D735C70895882311F00AD730C70895AB
:101BA00080E090E00E94792A80E090E00E948F2AF5
:101BB00006D725C7089580914C0190914D010E9450
:101BC000532BEECF0895E8D6F6CF089592959F70E7
:101BD000963079F010F4925001C09A50923068F427
:101BE000803F69F018F4883E40F409C0843F29F42E
:101BF00006C0883E20F0813F11F080E0089581E02A
:101C00000895FC019081818123813481232B31F05F
:101C10008F3F31F481E09F3F19F403C081E001C0A0
:101C200080E080FD0CC086819781009719F00E94AA
:101C3000FD1603C08081918163D3C8CF089580E0F1
:101C40000895A0E0B0E0E7E2FEE00C9450346C01AF
:101C5000EB01FC011281058102950F7086D6882365
:101C6000A9F0112399F08D2F807F803421F080E23C
:101C70008C0F883058F080911B0482FF07C082E0EF
:101C80001AD773D691E0E82EE92601C0E12CBD2ECB
:101C9000B2942FE0B2228B2D90E08C30910508F0A9
:101CA00070C1FC01E559FF4F0C9416349D2F9F70B5
:101CB0008D2F807FF92E19F0F29490EFF9221123E5
:101CC00081F0FF2009F44BC180E28C0F883010F0C6
:101CD000C11103C08F2D53D602C08F2D63D68FD66E
:101CE0003EC18C2FFEDEFF2009F44BC180E28C0F39
:101CF000883030F1CC2321F18F2D5AD623C09D2F6F
:101D00009F708D2F807FF92E803219F0F29480EF32
:101D1000F822CC2319F0C13059F135C080911B0451
:101D200082FD12C0112339F0FF2019F08F2D27D624
:101D300066D680E015C180E0D4DEFF2009F421C121
:101D40008F2D23D65CD61DC1112359F0002331F00D
:101D5000013021F437D68F293DD613C133D68F29D0
:101D60000DC0002319F0013009F40BC13FD612C099
:101D7000112331F0023008F004C18F2DFDDE01C1C6
:101D80000111FFC007C0112319F00023B1F3E7C010
:101D90000111EAC08F2DF5DEF4C08D2F8695869552
:101DA000837019F0813059F0ECC0112319F0CE0185
:101DB000937002C080E090E00E94792AE9C011236C
:101DC00019F0CE01937002C080E090E00E948F2A4B
:101DD000DFC08D2F837099F51111D7C04C2F42951C
:101DE00046954770440F440F8C2F8F7090E09C01F4
:101DF000042E02C0220F331F0A94E2F7C4FF0AC068
:101E00008FE090E002C0880F991F4A95E2F7809515
:101E1000909502C080E090E04D2F46954695437026
:101E2000822B932B423039F040F4413011F04CD1E9
:101E3000ACC042D1AAC050D1A8C03CD1A6C0112389
:101E400019F08D2F817001C08695882309F49DC0FB
:101E50004C2F429546954770440F440F8C2F8F703E
:101E600090E09C01042E02C0220F331F0A94E2F777
:101E7000C4FF0AC08FE090E002C0880F991F4A9506
:101E8000E2F78095909502C080E090E04D2F469556
:101E900046954370822B932B423039F040F4413009
:101EA00011F078D172C06ED170C07CD16EC01ED1DD
:101EB0006CC09D2F9F70F92E112329F0892F33D1EB
:101EC0008C2F5ADE62C08C2F5CDE8F2D3BD15DC023
:101ED000C23F09F128F4C03F41F0C13FB1F03BC01F
:101EE000C33FF9F0C43F69F036C0112331F001114E
:101EF00048C08D2F8F7137D144C0023008F041C0E7
:101F0000F8CF80911B0482FD14C0112331F08D2F76
:101F10008F7109D136C01123D1F38D2F8F7112D15A
:101F200030C0112321F08D2F8F71F2D02AC0ECD058
:101F300028C0112349F0ED2FEF71FE2E8E2FF3D024
:101F400063E08F2D9ED51DC081E0B5D50230C8F06D
:101F500082E0B1D516C0112329F00023C1F28C2FE5
:101F600076DD0FC00023C9F2C93349F4FFEF27EE35
:101F700083E0F15020408040E1F700C000008C2F4A
:101F8000B0DD88EF8B0D843018F40E94522AD9DC22
:101F9000CE011CDE811105C0109231021092300278
:101FA00010C0112319F00111F7CF0BC00111F4CFAC
:101FB0008091300290913102029771F78C2FD3DD1E
:101FC000EBCFEE2059F0CDD480FD08C0F60112828F
:101FD000C2D4A9D0C60121D0BED4B4D0CDB7DEB70B
:101FE000E9E00C946C340F931F93CF93DF93EC01D3
:101FF0008E819F81009711F000D704C0688179819C
:102000008A8187D18C01D6D048D0B801CE0119DEA3
:10201000DF91CF911F910F910895CF93DF93EC0142
:10202000988189812B813C81232B31F08F3F31F4C2
:1020300081E09F3F19F403C081E001C080E080FD92
:1020400015C0CE01E9DB81110DC08FD4882371F05A
:102050008A81882359F080911B0482FF07C082E0A7
:102060002AD504C0CE01BFDFCE01B3DBDF91CF9113
:102070000895A5E0B0E0EFE3F0E10C945734259625
:10208000E2E00C947334A8E0B0E0E9E4F0E10C94F1
:1020900057342896E2E00C94733408950895FECFE7
:1020A0000895FDCF0895FDDF909361028093600253
:1020B00077CD0895F8CF08952091600230916102A4
:1020C000822B932BF0CF0895209160023091610212
:1020D00082239323E8CF089520916002309161021A
:1020E00082279327E0CF08955CC90895CF93DF93AB
:1020F000FBDFEC010E947823D0935F02C0935E0265
:102100004FDDDF91CF91089580E090E0EFCF08950B
:1021100021E030E0A90102C0440F551F8A95E2F783
:10212000CA01E4CF089521E030E002C0220F331F3E
:102130008A95E2F780915E0290915F02822B932B49
:10214000D5CF089521E030E002C0220F331F8A95D9
:10215000E2F72095309580915E0290915F02822394
:102160009323C4CF089521E030E002C0220F331F33
:102170008A95E2F780915E0290915F028227932711
:10218000B5CF089520915E0230915F02822B932B90
:10219000ADCF089520915E0230915F028223932398
:1021A000A5CF089520915E0230915F028227932788
:1021B0009DCF08950895962F9770A1E001C0AA0FB2
:1021C0009A95EAF793E0769567959A95E1F7660F09
:1021D000771F660F771FFA01E60FF71F40E050E008
:1021E000682F70E090819B01042E02C036952795E0
:1021F0000A94E2F72170219529272A232927219380
:102200004F5F5F4F4430510569F70895FB01782F08
:10221000777023E0969587952A95E1F7880F991FA7
:10222000880F991FE80FF91F40E050E080E02191EE
:1022300030E0072E02C0369527950A94E2F7217008
:102240003327042E01C0220F0A94EAF7822B4F5F36
:102250005F4F4430510559F70895282F9E3068F498
:10226000863058F4862F622F70E026E0929F600D32
:10227000711D112442E352E09ECF08959E3068F410
:10228000863058F4292F90E062E372E036E0239F15
:10229000800D911D1124BACF089580E00895A0E02B
:1022A000B0E0E5E5F1E10C9450347C0100915E0270
:1022B00010915F028091600290916102082B192BAE
:1022C000CFE0D0E0CC24C394D12CC6010C2E02C0A8
:1022D000880F991F0A94E2F780239123892B21F418
:1022E000219798F7B12C06C0BC2EB7018C2F92D63F
:1022F0000197B1F38B2DCDB7DEB7E9E00C946C34C8
:10230000CF93DF93EC01CBDFBE0184D6DF91CF9179
:1023100008951F93CF93DF93EB0190912F029923A0
:1023200019F0CB01EDDF0FC0882339F0CB01B7DF07
:10233000182F682FCE0191DF03C0CB019FDF182F2C
:10234000BE01812F67D6DF91CF911F910895CF9362
:10235000DF93C091620280916302C817A9F0D0E0B8
:10236000FE0183E0EE0FFF1F8A95E1F7EC59FD4F68
:102370002081318142815381648175818681978179
:1023800082DE2196C770E7CFDF91CF91089520912B
:10239000A4023091A5024091A6025091A70260913B
:1023A000A8027091A9028091AA029091AB026BCE13
:1023B00008951F93CF93DF938091A90282958F7028
:1023C00009F058C08091A602882309F453C0809177
:1023D0006202109163026091A4027091A502C09103
:1023E000A702D091A80291E06F3F09F090E0292F59
:1023F000811709F43FC0209721F07F3F21F030E0A2
:1024000003C031E001C0322F90E030FD30C0FC014C
:1024100033E0EE0FFF1F3A95E1F7DF01AC59BD4FF6
:1024200011963C911197371322C03C9136131FC06F
:1024300012963C91129731111AC013964D915C91EE
:1024400014974C1B5D0B4538510588F48091A90207
:102450008F7080618093A902E759FD4F80818F7052
:102460008061808384EA92E0D8DD71DF03C0019649
:102470008770BECFDF91CF911F910895A5E1B0E0A5
:10248000E4E4F2E10C944E348C0185E0F801DE01C5
:10249000519601900D928A95E1F7F801E2809091B2
:1024A000A4026091A5022091A7023091A8022115F3
:1024B000310531F06F3F31F481E09F3F19F403C0E3
:1024C00081E001C080E0F82FF1709F2E80FD61C196
:1024D000F80140815181A380B48074EAC72E72E074
:1024E000D72EF090A602F501E21BF30BFF2009F4B2
:1024F000F6C08091A902E538F10508F0A7C0282FA1
:10250000207F09F05BC056131BC0491319C06091AE
:10251000AA027091AB02F801268137816217730716
:1025200079F4FE2CE1100CC08F7080618093A902B9
:102530002EDFC60172DD8091A902F801858360C19A
:10254000A114B10431F05F3F31F481E04F3F19F441
:1025500003C081E001C080E080FD03C081E08E25E2
:1025600002C080E090E0F82FF170FF2E80FF1CC0C9
:102570008091620220916302821709F421C190E0E8
:10258000FC0133E0EE0FFF1F3A95E1F7EC59FD4FE8
:102590003181531306C03081431303C03281E312EB
:1025A00003C001968770E8CFFE2CEE2009F428C105
:1025B0008091A90281608093A9025AC056130FC06E
:1025C00049130DC04091AA025091AB02F801268137
:1025D00037814217530719F4EE2009F4ADC0C80142
:1025E00010DB882371F1EE2061F12091A902822F86
:1025F00082958F7090E002979CF08091A402909158
:10260000A5029A8789871B86BD86AC862E87809116
:10261000AA029091AB02988B8F87CE010996FDDCC0
:1026200088E0F801A4EAB2E001900D928A95E1F702
:10263000C0DEADDE08C05617E9F0C801E2DA81114C
:1026400030C0C801EADCFF24F394DAC0282F207FD1
:1026500091F77A2DBD8AAC8A6E2D8D890ADD84EAC8
:1026600092E0DBDC88E0F60111928A95E9F78FDED3
:10267000F12CC6C04913E1CF4091AA025091AB02A0
:10268000F8012681378142175307B9F6E110D5CFFB
:102690008583C801C2DC88E0F60111928A95E9F7CA
:1026A000AFC0EE2071F22091A902822F82958F7027
:1026B00090E002970CF4B4CF8091A4029091A5020F
:1026C0009A8389831B82BD82AC822E838091AA0269
:1026D0009091AB0298878F83CE010196A0CFE53809
:1026E000F10508F04AC0FE2CEE2009F4AACF5613DB
:1026F00038C0491336C02091AA023091AB02F801CC
:10270000868197812817390761F59091A90290FD7C
:102710001FC0892F82958F70282F30E02115310539
:10272000B9F095832F30310541F08F5F982F929546
:10273000907F85818F70892B8583C8016EDC88E04E
:10274000F801A4EAB2E001900D928A95E1F736C053
:1027500088E0F801A4EAB2E001900D928A95E1F7D1
:102760004FC0C8014EDA81115BCF8091A902816010
:102770008093A902C80151DC43C07A2DBD8AAC8A7E
:102780006E2D8D8976DC88E0F60111928A95E9F745
:1027900015C0EE2009F455CFC80133DAF82E88238E
:1027A00009F44FCF88E0F801A4EAB2E001900D925D
:1027B0008A95E1F784EA92E045D9FBDDE8DD20C0A7
:1027C000498B5A8B89899A899BDD292F22952F70F5
:1027D000223028F49F7039F0811105C00AC02430DE
:1027E00028F49F7041F4805E883018F0C80115DC31
:1027F0009F2CF92C05C0F8019581907FA1F7F9CFA6
:102800008F2D6596EBE00C946A34A0E1B0E0EBE02C
:10281000F4E10C94573429873A874B875C876D879E
:102820007E878F87988BCE01099628DE8823D9F082
:1028300099858A852C853D85232B31F08F3F31F496
:1028400081E09F3F19F403C081E001C080E080FD7A
:102850006BC029853A854B855C856D857E858F8526
:10286000988911DC61C088E0FE013996DE0111967D
:1028700001900D928A95E1F779856A854C855D8591
:102880004115510531F06F3F31F481E07F3F19F47C
:1028900003C081E001C080E080FD46C0A0916302DA
:1028A000B0E0CD010196877099272091620230E057
:1028B0008217930709F43FC079836A835D834C8351
:1028C00093E0AA0FBB1F9A95E1F7AC59BD4F98E072
:1028D000FE01319601900D929A95E1F78093630283
:1028E00036DD22C028E0829FC00111248C599D4F03
:1028F000C5DD882361F1E091620288E0E89FF00184
:102900001124EC59FD4F2081318142815381648132
:10291000758186819781B7DB8091620290E0019694
:10292000877099278093620280916202909163027E
:102930008913D8CF0CC047D910926302109262025B
:10294000E4EAF2E088E0DF011D928A95E9F76096FB
:10295000E2E00C9473348091CC0285958595859541
:1029600008958091CC02877008959091CC02977061
:1029700081E009F480E008958091EF02089590913C
:10298000EF02892B8093EF02089580959091EF02DA
:1029900089238093EF0208951092EF0208958091A9
:1029A000EE0208959091EE02892B8093EE02089535
:1029B00080959091EE0289238093EE020895109203
:1029C000EE0208958091CD0208950895FECF0895F6
:1029D000FDCF089590911B0492FF07C09091CD0206
:1029E000981719F08093CD02F3CF08958091CD020E
:1029F000882321F01092CD0280E0EACF0895CF9392
:102A0000DF93E0914C01F0914D018091EF028083C2
:102A1000E0914C01F0914D0190818091EE02892B63
:102A200080838091CD02882379F0E0914C01F09170
:102A30004D019081892B808380914C0190914D01B3
:102A40000E94A52A8111D2DFC0914C01D0914D0185
:102A500040E250E06CEA72E0CE010E940136892B20
:102A600059F080E2FE01ACEAB2E001900D928A9545
:102A7000E1F7CE010E945F2ADF91CF910895A5CFA3
:102A8000089590911B0492FF0FC098E0899F9001D8
:102A90001124262B2093CC0246DB8091CC02859515
:102AA00085958595ECCF08953ECB08951092CC0284
:102AB00080E0E5CF08952091CC0280958223809319
:102AC000CC02982F977089F430E0482F082E000C24
:102AD000550B2417350749F090911B0492FF05C050
:102AE0008595859585952EDBE1CF089590911B0402
:102AF00092FB222720F9281759F080FB92F9909336
:102B00001B0480911A0490911B0438D082E0D3CF2B
:102B1000089580911B0482FB882780F991E0892722
:102B2000E5CF089581E0E2CF089580E0DFCF0895FA
:102B300080E090E00E942B3621E0883E9E4F09F015
:102B400020E0822F089582E090E00C941E360895D4
:102B500083E090E00C941E360895CF9384E090E0DB
:102B60000E941E36C82F82E290E00E941E362C2F53
:102B700030E0A901582BCA01CF910895CF93C92FF6
:102B8000682F84E090E00E943F366C2F82E290E054
:102B90000E943F36CF9108958FE090E00C94263646
:102BA0000895AB01BC018FE090E00C94513608957C
:102BB000AB01BC0183E190E00C945136089560E0D4
:102BC00070E0CB01F5CF089568EE7EEF80E090E0F5
:102BD0000E94593660E082E090E00E943F3660E05B
:102BE00083E090E00E943F361092610210926002F2
:102BF00060E084E090E00E943F3664E082E290E092
:102C00000E943F3660E085E090E00E943F3660E041
:102C100086E090E00E943F366FEF87E090E00E94F0
:102C20003F3640E050E0BA0188E090E00E94513623
:102C300060E08DE090E00E943F3640E050E0BA0155
:102C400088E190E00E94513660E087E190E00E94C8
:102C50003F3640E050E0BA018CE190E00E945136EE
:102C600060E070E080E290E00E94593640E050E081
:102C7000BA0188E190E00E9451360C9460080895F2
:102C8000A3CF08950E94102C609304037093050352
:102C900080930603909307036093000370930103EE
:102CA0008093020390930303089581E00895FDCF7C
:102CB00008950895FECF08950C94920A0895F9CFCF
:102CC0000895FDCF0895F5CF08958CEE98E10E9408
:102CD000482AF9DFF6CF0895EDDFEBCF08957FD2D4
:102CE0000C94A00C08950E94FB2B9DD2F8DF0E944B
:102CF000F01FE2CF08950E9464290E94BB260C9425
:102D00002A250895AAE0B0E0E8E8F6E10C944F34F3
:102D10009BD282EFE82E82E0F82E670100E0F601F8
:102D200011916F01802F73D281270F5F0E3019F040
:102D30008823A9F322C0811120C00E94042C8C0199
:102D40008091F0029091F1020817190709F44CC024
:102D50008FEF89838A831B820E94042C8160782FE5
:102D60009D838C8349815A816B818D810E94C70C20
:102D70001093F1020093F00237C08091080381FDA7
:102D80004CD295DFA82E10E0812F41D2B82EF7014A
:102D9000C080C82611F100E0DD24D3948C2D8D2154
:102DA000B1F0AA20A1F00E831F8391E08B2D8D211D
:102DB00009F490E098870E94042C8160782F9A870C
:102DC00089874E815F8168858A850E94C70C0F5F65
:102DD000DD0C063019F7F701B0821F5FFFEFEF1A25
:102DE000FF0A1E3089F64EDF86DF0E942D200E94EA
:102DF000AF0C2A96EAE00C946B34CF93DF930DD19D
:102E0000EC01811522E59207F0F5811531E5930774
:102E100008F0AAC0883E910528F5803E910508F08B
:102E2000DCC0883A910570F4853A910508F079C0C4
:102E30008130910509F472C008F4CCC0049708F001
:102E4000CCC0C8C08F3B910508F0C4C0C85AD0E0C0
:102E5000CC0FDD1FCE55DE4F0990D881C02DCE019D
:102E60009464BCC0811540E5940708F068C0C115A2
:102E700080E4D80708F05FC0CE019A9581159F4184
:102E800008F4ABC0A7C0811536E5930728F5811576
:102E900045E5940708F085C0C11584E5D80708F01A
:102EA0007AC0AE01437055272C2F26952695C11563
:102EB000D34508F05FC081E090E002C0880F991F01
:102EC0004A95E2F740E2249F90011124EC01C22BC5
:102ED000D32BCE019C6882C081154AE5940780F40B
:102EE000C11589E5D80708F064C0C11528E5D207E7
:102EF00008F470C0DC2FCC27CE01806F906A6EC0C2
:102F000090568115904208F065C08D2F8F7121D1A8
:102F1000DD27D0628F719E01382B5AC081E090E08E
:102F20005DC0C55AD0E0C053DE4F8881C82FD0E0C5
:102F3000CE01906453C0DF70CE01906A4FC08370A1
:102F4000992721E030E002C0220F331F8A95E2F773
:102F50009C2F9695969540E2949FE0011124C22BF8
:102F6000D32BCE019D683AC0D82FCC27CE01816FDC
:102F7000906A34C081E090E002C0880F991F4A95A2
:102F8000E2F740E2249F90011124EC01C22BD32BE5
:102F9000CE019A6823C0DC2FCC27CE01846F906AC3
:102FA0001DC0D7D08F7190E0D82FCC27CE01906272
:102FB00015C08C2F8F70CDD094E0D695C7959A957B
:102FC000E1F7CF70D0E0DC2FCC27D0699E01282B11
:102FD000C90104C080E090E001C0CE01DF91CF9133
:102FE00008957E30A0F4663090F494E5899FF00156
:102FF000112486E0789FE00DF11D1124E60FF11DEC
:10300000EE0FFF1FE459FE4F85919491089580E0E3
:1030100090E00895E6DFF1CE08958238910569F1D8
:10302000B0F48133910509F475C048F489329105F3
:1030300009F467C08A32910509F471C00895853397
:10304000910509F459C089339105B9F00895833E7B
:10305000910589F138F4803E9105D1F0823E9105C9
:1030600029F10895863E9105C9F1873E9105D9F170
:10307000843E910509F06CC027C020911A0420FD00
:1030800057C021FD55C020911B0423FD5BC008954E
:1030900080911A0480FD48C080911B0480FF48C0C5
:1030A00080911A0484FD46C083EE51C080911A04B9
:1030B00082FF3CC0F5CF80911A0482FD37C0809119
:1030C0001B0480FD35C0ECCF80911B0481FF36C00E
:1030D00080911A0484FD2EC087EE39C080911A04B5
:1030E00083FF2AC0F5CF80911A0483FD25C080910B
:1030F0001B0481FD23C0ECCF80911A0485FD22C002
:103100001FC080911A0485FD1BC080911B0483FFA2
:1031100019C00AC080911A0486FD16C017C080919C
:103120001A0486FD13C010C089E311C082EE0FC0DF
:1031300080EE0DC080E00BC086EE09C084EE07C0B3
:1031400085E305C089E203C08AE201C081E390E023
:10315000089590911A0492FF0DC0282F28712830ED
:1031600019F4877F846006C0282F2471243011F45D
:103170008B7F886093FF0DC0282F2871283119F4A8
:10318000877E846106C0282F2471243111F48B7E40
:10319000886120911B0420FF0DC0382F3871383012
:1031A00019F4877F816006C0382F3171313011F4F6
:1031B0008E7F886021FF0DC0282F2871283119F4D7
:1031C000877E816106C0282F2171213111F48E7E06
:1031D000886194FD877E089580E008950895A8DCB5
:1031E000811101C04DDDAFDC80930803B6DC909304
:1031F0001B0480931A04F2DFABDC90E00E945A10AB
:1032000080915E0290915F020C9474100895E82FF3
:10321000F0E0E65DFB4F8081089508950895FECFAC
:103220000895FCCF08950E944706ECE1F4E0AAE27D
:10323000B4E011921D9284E0EA32F807D1F78EE0F3
:1032400015D00C94F30B0895CF938CE194E00E9479
:103250005006282F4EE06AE274E08CE194E019D029
:10326000C82F0E94F50B8C2FCF910895CF93C82FB4
:1032700090E00E947E3480930D0390930E03282FDC
:10328000FC018E2F821B8C1710F41192FACFCF9174
:103290000895A0E0B0E0EFE4F9E10C945234082F77
:1032A000F92EE62ED72E142FD22F10920903C0919B
:1032B0000A03CC23C9F10E94042C20910B03309106
:1032C0000C03AC01421B530B9A0190930C038093A7
:1032D0000B034F3F510509F020F4452B09F468C05A
:1032E00002C02FEF30E010920A0310920F034091BA
:1032F0000D03E42FF0910E0390E030E08E2F841B3D
:10330000811768F48081882341F0281718F0108213
:103310009C2F03C0821B80833C2F3196EFCF3093CC
:103320000A0390930F0344C02223D1F10E94042C7E
:1033300090930C0380930B0340910D03809109033C
:1033400090910A03AE2DBD2DC02FDF2DE42FF091FB
:103350000E035EE12E2F241B2117B8F428813C9127
:10336000321779F0308131110CC050832C93988141
:103370009227282F30E0292B81E0232B09F480E0CD
:1033800091E0319611962196E5CF809309039093B1
:103390000A0380910903CDB7DEB7E7E00C946E34E1
:1033A00080E090910F039923A1F38111C5CFBECF87
:1033B000D111C2CF81E0F5CF0E94442E94DC0C9451
:1033C0004E2E08950E94522E9DDC0C94682E089576
:1033D0000E949B2B0E942B2E78DCEEDFF3DF7CDC3F
:1033E000FDCFEF92FF920F931F93CF93DF938B014B
:1033F000682F11110AC0442329F0E82FF0E0EA53A6
:10340000F84F6491762F862F75C0212F30E0E82F7A
:10341000F0E0442321F0EA53F84FE491F0E046E075
:10342000049FC0011124CFEFD0E0BE010E94CD3334
:103430004BEA4603C001479F900D1124800F911D58
:10344000800F911D982F990F890FAE01421B530BCE
:103450004E9FD0014F9FB00D5E9FB00D11249B2F4A
:10346000189FA0011124452F55278E01041B150B11
:103470000E9FA0010F9F500D1E9F500D11247E0125
:10348000E81AF108E29E8001E39E100DF29E100DF5
:103490001124212F3327C21BD30BCE9F9001CF9F26
:1034A000300DDE9F300D112462307105A9F048F413
:1034B0006115710569F061307105C9F48B2F752FA5
:1034C0000DC06430710581F058F06630710579F4F3
:1034D0007E2F8B2F932F0DC0832F7B2F9E2F09C004
:1034E0008E2F7B2F952F05C08E2F732F02C07E2F1E
:1034F000852F692FCDB7DEB7E6E00C946F3441E03D
:1035000070CF0895FC01828120813181982F281786
:1035100008F4922F391708F4932F9383391B3183C2
:10352000291B2083891B828308950895E8CF08957D
:10353000CF93DF93762FE901682F842FF7DF79830C
:1035400068838A831B82DF91CF910895809115044F
:10355000282F269530E02115310519F481708260FD
:1035600005C02B32310524F08170846580931504E9
:10357000089588E090E00C9426360895CF92DF926B
:10358000EF92FF926B017C01E1DFB701A60188E0B9
:1035900090E00E945136FF90EF90DF90CF90089519
:1035A000E5E1F4E083E0808311828FEF82838383FF
:1035B00014826081718182819381E0CF089580912E
:1035C000150480FF02C08695089580E008959091CB
:1035D0001904933018F49F5F90931904882349F0DD
:1035E000609115047091160480911704909118044D
:1035F000C5CF089581E0EBCF0895909119049923E8
:1036000019F0915090931904882349F060911504A2
:10361000709116048091170490911804AFCF08950B
:1036200081E0EBCF0895EF92FF920F931F93CF931A
:10363000DF93009152018091150480FF0BC0C0916F
:10364000510124E0C29FE0011124C85CDB4F7E01E0
:1036500010E012C08091530190915401891778F7BE
:1036600024E0829FF0011124E85CFB4F118210825C
:10367000128213828F5FF2CF101739F0C70142DF39
:103680001F5F84E0E80EF11CF7CF612FCE010E948E
:10369000B006CDB7DEB7E6E00C946F349091150418
:1036A00090FF13C09091530120915401921760F440
:1036B00034E0939FF0011124E85CFB4F8183608329
:1036C000428313829F5FF2CFAECF0895A4E0B0E0B3
:1036D000ECE6FBE10C9457349091150490FF08C080
:1036E0009E012F5F3F4F24DF4B8169818A81D6DFA6
:1036F0002496E2E00C947334CF93DF93EC01EC81D9
:10370000F0E0EF53F94F4491E5E1F4E0628181810B
:10371000DDDF8C818F5F8C83DF91CF910895CF9314
:10372000DF93EC01E5E1F4E0438162818C81CEDF3F
:103730008C818F5F8C83DF91CF910895A4E0B0E0FE
:10374000E4EAFBE10C9455348C0180911003811163
:1037500009C09E012F5F3F4F4FEF6FEFE9DE8A8177
:1037600080931003F8018481813051F028F0823079
:1037700061F4409110030AC08091100340E007C03B
:103780006091100340E080E003C040E080E060E032
:1037900085DFF801848190E0019663E070E00E948B
:1037A000E13384832496E4E00C947134A4E0B0E027
:1037B000ECEDFBE10C945034082FE62EF42ED22EC3
:1037C0009091150490FF61C0E92FE695AE2FB0E00F
:1037D000AD52BE4F8C91809367039E7F923051F41F
:1037E0009E012F5F3F4F802FA3DE4B8169818A812D
:1037F00055DF3AC0823019F4F090180435C0863095
:1038000019F40091160430C08930D9F3893161F57B
:10381000E9518E2F8170C82EE695F0E0EF53F84FF6
:103820001491B12C60915501B616E8F4B19EC00117
:10383000112470E00E94CD33802FC11002C0860F8A
:1038400001C0861B909153012B2D30E0290F311DB3
:10385000220F331F220F331F285C3B4F4F2D6E2D3D
:1038600067DEB394DFCFDFDE00931604E092170427
:10387000F0921804DD2049F060911504709116044F
:10388000809117049091180479DE2496E9E00C9455
:103890006C34E5E1F4E09181282F438162818CE072
:1038A000890F84CF089581E0F4CF0895E5E1F4E035
:1038B0009181282F4381628184EF890F77CF08950A
:1038C00081E0F4CF0895E5E1F4E062812FEF620F2B
:1038D00008F46FEF282F4381818168CF089581E03C
:1038E000F2CF0895E5E1F4E062812FEF621B08F466
:1038F00060E0282F4381818159CF089581E0F2CF84
:103900000895E5E1F4E043812CE0420F08F44FEF25
:10391000282F628181814ACF089581E0F2CF0895F6
:10392000E5E1F4E043812CE0421B08F440E0282F5D
:10393000628181813BCF089581E0F2CF089521E03B
:1039400035CF089520E032CF0895FF920F931F9353
:10395000CF93DF93EC01F12C0FEF10E06091550154
:10396000F616E0F4809153012F2D30E0280F311D21
:10397000220F331F220F331F285C3B4F70E0C8011A
:103980000E94E133962F8C814091180460911704B6
:10399000F99E800D1124CCDDF394E0CF44DE9A81B2
:1039A0008C8190FF02C08F5F01C081508C83CDB7A6
:1039B000DEB7E5E00C947034A0E0B0E0E2EEFCE1AC
:1039C0000C944F34FC01828180FF02C00FEF01C0D4
:1039D00001E010E03FE0A32E80915501181708F098
:1039E00042C080915301C12ED12CE601C80FD11DD8
:1039F000CC0FDD1FCC0FDD1FC85CDB4F1982188296
:103A00001A821B8224E0E22EF12CB12C8091120349
:103A10008B0D80312CF06A2D0E94C033892F05C098
:103A200087FF03C090915501890F082E000C990B58
:103A3000C816D90689F4809118048E9DA0018F9D27
:103A4000500D112455954795559547959E016091C8
:103A50001704809116046CDDB00EF1E0EF1AF10846
:103A6000A9F61F5FB9CFDFDD80911203013031F479
:103A7000811102C080915501815007C090E00196EC
:103A80006091550170E00E94E13380931203CDB73D
:103A9000DEB7EAE00C946B340F931F93CF938091C1
:103AA000530190915401891760F424E0829FF00142
:103AB0001124E85CFB4F11821082128213828F5F07
:103AC000F2CFC0E060915501C61790F50C2F10E0C1
:103AD00070E0C8010E94E133E09153018E0F209104
:103AE0001103022E000C330BE82FF0E0EE0FFF1F46
:103AF000EE0FFF1F021713079CF080915001082E54
:103B0000000C990B801791075CF09F01285C3B4FDC
:103B100040911804609117048091160409DD06C0D5
:103B2000E85CFB4F1182108212821382CF5FCACFF2
:103B30007ADD20914F0180911103820F8093110350
:103B400090915001920F9093500119165CF4082E39
:103B5000000C990B4091550150E0415051098417D8
:103B600095071CF0219520934F01CF911F910F9144
:103B70000895A0E0B0E0EFEBFDE10C944D34EC01D2
:103B80004C81042F10E09801D8010E9422349B013F
:103B9000AC010E9437346B017C01E0E2F0E0E01BF5
:103BA000F10BA5E5B0E09B01AC010E9437344B015D
:103BB0005C019F01DF010E941C349B01AC010E944B
:103BC00041349B01AC012C0D3D1D4E1D5F1DC501F7
:103BD000B4010E94F433822F022F2A3228F493E09A
:103BE000299F900111240DC025E530E0281B3109E3
:103BF000C901880F991F280F391F37FF02C02F5F97
:103C00003F4F35952795122F1095F12C85E5E82E1D
:103C1000E01A80915501F816B8F4F1FC02C08E2D1F
:103C200001C0802F909153012F2D30E0290F311DBD
:103C3000220F331F220F331F285C3B4F412F60910F
:103C4000170476DCF394E5CFEEDC8C81811102C0A1
:103C500091E003C0803219F49FEF90934E01909150
:103C60004E01890F8C83CDB7DEB7ECE00C9469343C
:103C70000F931F93CF93DF93EC0100E010E080914E
:103C80005501282F30E00217130714F590915301C6
:103C90009801290F311D220F331F220F331F285C7B
:103CA0003B4F869590E04C81081719071CF444237C
:103CB00031F002C0411103C04091180401C040E03E
:103CC000609117048091160433DC0F5F1F4FD7CF2C
:103CD000AADC8C8190E00196817099278C83DF911A
:103CE000CF911F910F910895A0E0B0E0EAE7FEE1C7
:103CF0000C944C34FC018280748081E08483E1EC7C
:103D0000F6E09490E0E4F7E0E491A12CF5E0BF2E1A
:103D1000CC24CA94D12CE9190E2F10E080915501C2
:103D2000A81608F0A0C0EA2CF12C22E0281568F0B3
:103D3000BE9CF001BF9CF00D1124ED5EFC4F809104
:103D40001604808380911704818371100AC0BE9C81
:103D5000F001BF9CF00D1124ED5EFC4F1382128226
:103D60006AC0BE9CE001BF9CD00D1124CD5EDC4F2B
:103D70008B818823F9F081508B832FEF829FC001C4
:103D800011246C8170E00E94CD33FB01FF27EF53BB
:103D9000F94F8491E82FE9192FEFE29FC001112418
:103DA000B8010E94CD3380911804689FB00111249E
:103DB0007A8341C00E94E635209118042695215847
:103DC00030E0A901440F551F322F2227240F351F41
:103DD000232F33278217930774F582E0881588F420
:103DE0000E94E635B6010E94E13388830E94E635E1
:103DF000209117042695622F70E00E94E133280F6E
:103E00002983BE9CF001BF9CF00D1124ED5EFC4F98
:103E1000128280911804843120F0893C18F088ECDB
:103E200001C084E1BE9CF001BF9CF00D1124ED5E49
:103E3000FC4F84838383809153019701280F311DA8
:103E4000220F331F220F331F285C3B4FBE9CF00113
:103E5000BF9CF00D1124ED5EFC4F42816181808199
:103E600067DBA3945BCFDFDBCDB7DEB7EDE00C946F
:103E70006834E5E1F4E080818E7F80836081718128
:103E8000828193817BDB109268032FEF80E792E0C1
:103E9000215080409040E1F700C00000C4CB08955D
:103EA000E5E1F4E080818E7F8083109268032FEF3C
:103EB00080E792E0215080409040E1F700C0000090
:103EC000B2CB08951092680380916503811109C0F7
:103ED00081E0809365038091150481708093640371
:103EE000DFCF089560911504669570E04BE050E0D7
:103EF00086E591E00E94F435892B19F481E08093E6
:103F000068030E94042C90935F0380935E030895DE
:103F10009091150490FF32C09170811102C092609F
:103F200006C08B3210F0946502C0880F982B9093D6
:103F30001504662349F06091150470911604809170
:103F40001704909118041ADB60911504669570E0CF
:103F50004BE050E086E591E00E94F435892B19F0A2
:103F60001092680301C0BEDF81E08093610340913D
:103F700018046091170480911604E4CC0895682F0A
:103F800090911504969581E0890F8B3208F081E0BD
:103F9000BFCF089581E0F3CF0895682F9091150465
:103FA00096958FEF890F09F48AE2B2CF089581E0E8
:103FB000F4CF089561E0ACCF0895E5E1F4E08081AD
:103FC000816080838695F6CF08958091150480FFE7
:103FD00002C04FCF0895F1CF089560E099CF0895C2
:103FE00080916603811128C00E949815811103C039
:103FF0000E944016D5DABDDA60931504709316045A
:1040000080931704909318046E7F51F4C9DAB1DAE3
:10401000609315047093160480931704909318040A
:1040200095DA109268038091150480FF02C086958E
:10403000D4DF81E0809366030895E5E1F4E08081B8
:10404000816080838695C9CF089510926503809121
:1040500064038111F2DF46CF08950F931F93CF932E
:10406000DF9380916803882309F491C080916703EE
:10407000E0911504E695E81BE0936003823049F473
:10408000F0E0E354F94FE491CE2FD0E00CE71BE1D0
:1040900059C0863049F4F0E0E654F94FE491CE2F50
:1040A000D0E00FE81BE14EC0893051F4E695F0E016
:1040B000E954F94FE491CE2FD0E005EA1CE142C06B
:1040C0008F3051F4E695F0E0EC54F94FE491CE2FA7
:1040D000D0E00CED1CE136C0853149F4F0E0EF543E
:1040E000F94FE491CE2FD0E00CE41DE12BC08831D4
:1040F000D9F0833239F4EFEAF6E0C591D4910EE9B4
:104100001BE120C08432A9F08532C1F48E2F63E018
:104110000E94B433E92FF0E0E455F94FE491CE2F3B
:10412000D0E004E71EE10EC0C8E2D0E009EB1DE1DB
:1041300009C0C4EFD1E008E31EE104C0C0EDD7E040
:1041400005E91AE180916103882361F0109261030F
:104150000E94042C90935F0380935E03109263038C
:10416000109262030E94042CE0915E03F0915F03C1
:104170008E1B9F0B8F3F9F4750F4EC0FFD1FF0935A
:104180005F03E0935E038EE593E0F8010995DF910C
:10419000CF911F910F910895882311F0FA0101C06A
:1041A000FB0109950895CF93DF93C82FD62F07DA27
:1041B0008C1728F004DA8D1710F4ECDE02C08C2F77
:1041C000F9DEDF91CF9108951F93CF93DF93FB0129
:1041D00012811111BDC0EC010E94BC148272CD3C51
:1041E000FCE5DF0709F498C008F042C0C73CECE5E5
:1041F000DE0709F47DC0D0F4C43C9CE5D90709F47E
:104200006CC030F4C33CDC4509F0A1C0DEDEA0C0C8
:10421000C53C9CE5D90709F465C0C63CDC4509F0FE
:1042200096C040E65CE163E57CE160C0CA3CFCE529
:10423000DF0709F467C070F4C83CECE5DE0709F459
:104240005CC0C93CDC4509F082C04FE65CE16EE72A
:104250007CE14CC0CB3C9CE5D90709F458C0CC3C70
:10426000DC4509F074C040E15BE16AEF7AE13EC0F1
:10427000C23DFCE5DF0709F45CC098F4CF3C9CE547
:10428000D90709F450C008F44CC0C03DFCE5DF0775
:1042900009F44CC0C13DDC4509F059C06EE089E02D
:1042A00054C0C53D9CE5D90709F449C058F4C33D45
:1042B000FCE5DF0709F440C0C43DDC4509F047C018
:1042C00088E141C0C63D9CE5D907E1F1CF35DD4528
:1042D00009F03DC06AE285E238C047ED5FE16AEC73
:1042E0007FE104C04AEC5FE167ED7FE155DF30C05C
:1042F00043E55CE160E67CE1F9CF4EE75CE16FE627
:104300007CE1F4CF4CE95CE16DE87CE1EFCF4DE876
:104310005CE16CE97CE1EACF4AEF5AE160E17BE1E4
:10432000E5CF81E010C065E082E00FC068E086E084
:104330000CC064E18FE009C067E185E106C062E27C
:1043400089E103C083E236DE03C02DDF01C011E046
:10435000812FDF91CF911F910895579A2BB12F771D
:104360003BB130684FB7F894FC01660F771F660FBA
:10437000771F6E0F7F1FE617F70789F0819198E08E
:104380003BB9000000C087FF2BB9880F000000C0B8
:1043900000C000C02BB900C09A9591F7ECCF4FBF79
:1043A0008FE594E00197F1F700C000000895A0E2C6
:1043B000B0E0EDEDF1E20C9457349FEF99838A83DE
:1043C00060E2CE0101960E94042DA096E2E00C94DA
:1043D0007334A2E3B0E0EFEEF1E20C94573442E123
:1043E00050E063E270E0CE0181960E940E3684E0D8
:1043F0008983EAE6F3E081E081838EEF8A8310828D
:1044000060E2CE0101960E94042DE296E2E00C9457
:104410007334A2E1B0E0EFE0F2E20C94573442E1F1
:1044200050E063E270E0CE0101960E940E36FE017C
:10443000319682E183301CF09189928B01C0128AFF
:10444000815031978F3FB1F742E150E063E270E075
:10445000CE0101960E94303681E06296E2E00C9433
:104460007334FB019C012A5F3F4FDC0111965C9184
:104470001197418154130BC05C914081541307C0C4
:10448000029632968217930781F781E0089580E0C3
:104490000895A0E2B0E0EFE4F2E20C9457346AE74A
:1044A00074E084E794E0DDDF882331F084E08983E1
:1044B00081E080936B0304C083E0898310926B03D7
:1044C0008EEF8A8310926A0360E2CE0101960E9409
:1044D000042DA096E2E00C947334CF93DF930E94F6
:1044E000E63566E070E00E94E133D82F0E94E635A1
:1044F0006EE070E00E94E133C82F6D2F782F80E0CE
:104500000E94F1170497C59718F48D2F9C2F01C0B6
:10451000E4DFDF91CF910895CF93DF93C4E7D4E038
:10452000DCDF8993999384E0CA37D807C9F7DF9114
:10453000CF910895A0E2B0E0E0EAF2E20C945734A3
:10454000EBDF81E08983E4E7F4E090819A83918155
:104550009B8392819C8393819D8394819E8395818B
:104560009F839EEF988780936A0360E2CE01019655
:104570000E94042DA096E2E00C947334A0E2B0E017
:10458000E4ECF2E20C9455348C01DC01EC918E2FBA
:1045900090E08930910508F03DC0FC01E958FF4FDB
:1045A0000C94163419828CE0EEEFF1E0DE011296E5
:1045B00001900D928A95E1F78EEF8D8760E2CE0132
:1045C00001960E94042D28C0B5DF84E794E021DF26
:1045D00023C0F801AAE7B4E0C80106963181228120
:1045E0003C9311962C93119732961296E817F9077F
:1045F000A9F7EFDE11C080916B03882369F00E9458
:104600008410F80181810E94931006C085E003C0E8
:1046100084E001C08FEFCBDEA096E4E00C9471340F
:10462000A0E2B0E0E6E1F3E20C94573482E0898343
:1046300060E2CE0101960E94042DA096E2E00C9467
:104640007334A0E2B0E0E7E2F3E20C945634DB010D
:1046500080916A03882361F112961C9112971123AD
:1046600011F010E040C0E0916903E33070F481E0A4
:104670008E0F80936903F0E0EE0FFF1FE658FB4FAB
:104680008D919C9191838083CBDF2FEF83ED90E31D
:10469000215080409040E1F700C000008091690304
:1046A0008330F9F610926A0310926903F2DE1BC0A0
:1046B00010916B031123B1F012968C911297811116
:1046C00002C087E001C086E089838C918A831196BD
:1046D0008C918B838EEF8C8360E2CE0101960E94D9
:1046E000042D01C011E0812FA096E3E00C947234F8
:1046F000A0E2B0E0EEE7F3E20C94573420916B03B4
:104700002223A9F02FEF30E742E021503040404013
:10471000E1F700C0000025E029830E94730C8A8322
:104720008EEF8B8360E2CE0101960E94042DA0964D
:10473000E2E00C947334A0E0B0E0E1EAF3E20C9420
:104740005234E82FF0E0EA53F74FD490282F269503
:104750002695269530E0F901EA59F64F04918770C5
:1047600010E0082E02C0159507950A94E2F7017033
:104770001127F901EA5AF64FE490F12C082E02C0F5
:10478000F594E7940A94E2F791E0E922FF24F90115
:10479000EA5BF64FC491D0E002C0D595C7958A95E3
:1047A000E2F7C170DD270115110519F081EE0E94B5
:1047B000270DE114F10419F086EE0E94270D8D2DCE
:1047C0000E94B30DE114F10419F086EE0E94710D00
:1047D0000115110519F081EE0E94710DCD2B19F014
:1047E0008CE20E94B30DCDB7DEB7E7E00C946E34D7
:1047F000EF92FF920F931F93CF93DF938C01F62ECE
:104800008AE0E82EF8018491882309F456C08130AB
:1048100009F042C0E8012196FE018491813031F413
:104820002196FE0184910E94B30D38C0823039F484
:10483000E8012296FE0184910E94270D2FC083304B
:1048400039F4E8012296FE0184910E94710D26C080
:10485000843021F5E8012296FE01249180E090E069
:1048600030E0205331092A30310560F4E89EA00180
:10487000E99E500D1124C901840F951F2196FE0158
:104880002491EECF009751F0EFE9FFE03197F1F777
:1048900000C000000197F6CF4EDFE8018E010F5FE8
:1048A0001F4F8F2D882309F4ADCFEFE9FFE031973B
:1048B000F1F700C000008150F5CFCDB7DEB7E6E0DC
:1048C0000C946F348832910530F48E319105B8F430
:1048D000049770F00FC08D32910561F018F48A973B
:1048E00071F006C08C34910551F08D32924039F050
:1048F00080E0089582E00E94D2140E94FF1481E0BB
:104900000895A0E0B0E0E7E8F4E20C945234EC0142
:104910007B018E3A9D4541F4FB011281112309F47C
:104920006DC0A8D010E06AC00E94BC14D82E0E94AE
:10493000E214082F71D0811102C011E05FC064D071
:10494000F70112811123C9F30D290D7909F055C022
:10495000C115F5E5DF07B0F4C11523E5D20708F06E
:104960004DC0C11580E5D80740F4C115E0E4DE076D
:1049700098F5C63ED105B1F541C0C115F2E5DF0796
:1049800088F53CC0C11529E5D20748F4C11588E572
:10499000D807A0F5C431E5E5DE0721F52FC0CE012B
:1049A000905681159042F0F4F7018581807FC9F41B
:1049B0008D2F8F71823169F028F48230F1F4C1EECD
:1049C000D0E010C08431D1F08631B9F4C6EED2E126
:1049D00009C0C5EED0E006C0F7018581807F09F4EB
:1049E000ACCFDD270E94DF14CE016CDFC82F8823F7
:1049F00021F00E94FF141C2F01C020D0812FCDB7C1
:104A0000DEB7E7E00C946E34FFD688579C4E909347
:104A10006E0380936D03089580916F030895089548
:104A200080916F03811109C00E94CC140E94F6147A
:104A3000EBDF81E080936F03F2CF089580916F03E5
:104A4000882339F082E20E94CB0D10926F0380E040
:104A5000E6CF089580916F03882359F0D5D6209131
:104A60006D0330916E03821B930B8F3F9F4708F4B9
:104A7000E5CF089580916F03882311F0DFCF08956B
:104A8000CFCF089508950F931F93CF93DF93809115
:104A9000DB03882309F458C0C09170031CE08091A7
:104AA000DB03C81708F04CC001E00C0F0093700343
:104AB000D0E01C9FF0011D9FF00D1124E558FC4F24
:104AC0009081818123813481232B31F08F3F31F418
:104AD00081E09F3F19F403C081E001C080E080FDC8
:104AE0002DC01C9FD0011D9FB00D1124A558BC4F97
:104AF00016968D919C911797892B59F418968D9144
:104B00009C9119978F3F2FEF920719F061E0BADF60
:104B10000AC02081318142815381648175818681FF
:104B200097810E9405141C9FF0011D9FF00D112418
:104B3000E558FC4F148213820E94DF14C02FAFCFC0
:104B40001092DB0310927003DF91CF911F910F91B0
:104B500008951092DD031092DC03209162013091E0
:104B60006301E5E4F1E080E090E08217930741F013
:104B70004581411102C01482168201963796F5CF05
:104B80000895BC014091790380917A03942F98177E
:104B900029F1292F30E0F901EE0FFF1FEF58FC4FEC
:104BA0000190F081E02DE617F70799F487E0869FE2
:104BB000F001879FF00D1124EB5BFE4F81E08483B1
:104BC00094130CC02F5F3F4F23703327209379033A
:104BD00008952F5F3F4F922F9370D9CF0895A0E093
:104BE000B0E0E5EFF5E20C944C34EB012C8121119F
:104BF0005DC07090DB03ABE7B3E020E030E0812CD8
:104C000061E070E0271508F050C01A96AD90BC9096
:104C10001B97C880D9804FEF5FEF912CE92CF12CC6
:104C2000F701EE0FFF1FEC0DFD1D05911491A0166D
:104C3000B10609F4A7010115110511F09394EECF07
:104C40004F3FEFEF5E0769F1FB0102C0EE0FFF1F60
:104C50004A95E2F78E2AAB01092C02C0440F551F7A
:104C60000A94E2F741505109E82DF0E04E175F0732
:104C7000A1F44A815B816CE0629FF001639FF00DBB
:104C80001124E558FC4F578346832EEF2083218360
:104C90009187808721E02D8308C014961C921E9274
:104CA00013972F5F3F4F1C96ADCF6BDFCDB7DEB7AD
:104CB000EDE00C9468341F93CF93DF93C091790398
:104CC00017E080917A03C81799F0D0E0FE01EE0F4B
:104CD000FF1FEF58FC4F80819181189FB001199FF1
:104CE000700D11246B5B7E4F7ADF2196C370E9CF84
:104CF000CADE2FDFDF91CF911F910895FF920F93AE
:104D00001F93CF93DF93DC010C911196FC901197C8
:104D100080E090E020E0E02FFF2DE20FF11DE20F98
:104D2000F11D4591549141155105B1F0FB011081E0
:104D3000318190E0E12FF32FE90FF11DE90FF11D13
:104D4000C591D491209731F04C175D0709F481E0AB
:104D50009F5FF0CF2F5FDFCF882321F0921728F0DD
:104D6000CD0104C080E090E001C0CB01CDB7DEB73B
:104D7000E5E00C94703480916101882321F18091E9
:104D8000DE039091DF030097F1F056D52091DC030C
:104D90003091DD0328173907B0F4909179038091A1
:104DA0007A03981751F087DF1092DD031092DC032D
:104DB0001092DF031092DE03089565DE1092DF0388
:104DC0001092DE03C6CE08951092DF031092DE0328
:104DD0001092610180917A0380937903BADE53CEF9
:104DE000089580916101882311F0EECF089581E04C
:104DF000809361010895ABE0B0E0E1E0F7E20C944C
:104E000047344C016B01883F2CE5920741F4FB01CC
:104E100012811123A9F081E08093610191C1893F42
:104E2000FCE59F0731F4FB011281112349F0CCDF2F
:104E300087C18A3F9C4521F4FB01128111110EC0EC
:104E400005E411E0A12CB12C1B8666246394712C1F
:104E50009E012F5F3F4F3A87298734C0C2DF70C160
:104E6000FFEFEF16FF0609F426C1F8016481611116
:104E70004CC020916101822F8170F6013280F801CF
:104E800035812681332009F4B9C0882309F4B6C0DE
:104E9000332309F43DC0930102C0220F331F9A95BA
:104EA000E2F721503109F801868190E0281739078F
:104EB00009F445C0FB85F329FB872FEFA21AB20A3C
:104EC000095F1F4F8091620190916301A816B90696
:104ED00008F0F3C0F801408151816FEF8FEF90E04F
:104EE000E92EF12CF701EE0FFF1FE40FF51F2591BE
:104EF00034918216930611F0E62EF82E232B09F436
:104F0000AFCF9F5F6E2D8F2DEBCF20E030E0B3CF82
:104F1000A3010E2C01C0440F0A94EAF7242B268328
:104F20002091DC033091DD032233310508F0B3CF4B
:104F300022E330E03093DD032093DC03ACCF80919B
:104F4000DE039091DF03009739F076D4C39720F009
:104F500021E0F8012483AECF2090790380E090E037
:104F600020917A032216A1F1E22CF12CF701EE0F29
:104F7000FF1FEF58FC4F2081318147E0429FC00165
:104F8000439F900D1124FC01EB5BFE4F2F01B801F4
:104F9000CF01B4DE0097A9F021E0FC012483801743
:104FA000910709F487CF2091790322120AC048168D
:104FB000590639F497012F5F3F4F23703327209311
:104FC000790397012F5F3F4F422F4370242EC8CFA4
:104FD0008017910709F46ECFE22CF12CF701EE0F48
:104FE000FF1FEF58FC4FB182A0828FEFE81AF80A3A
:104FF00093E0E922FF24E0927A035CCF311113C0E1
:10500000A30102C0440F551F9A95E2F74150510980
:1050100030E04217530709F040C0662309F43EC050
:10502000C501AFDD3AC0822F90E09C0121503109CB
:10503000282339230E2C02C0959587950A94E2F710
:10504000232B49F580FF27C0F80182819381892BAA
:10505000D9F0E985FA8528E011922A95E9F73EEF23
:1050600039833A83D1D38160582F9D838C83F80193
:10507000828193818F83988729813A814B816D81C9
:105080007E810E94051403C060E0C501FBDCF801CD
:10509000158281E003C0817001C080E093010E2C75
:1050A00001C0220F0A94EAF72095F801968129237E
:1050B0002683382EFFCE312CFDCEF6018281882347
:1050C00071F1FB85FF2359F19FD39093DF03809308
:1050D000DE038091DB03883080F591E0980F909398
:1050E000DB0398E0F601DE01119601900D929A958E
:1050F000E1F72CE0829FC001112485589C4F28E0E5
:10510000FE013196DC0101900D922A95E1F72FEF17
:105110003FEFFC0131872087938682860EC09091F5
:10512000790380917A03981711F0C5DD06C0ABDCD6
:105130001092DF031092DE030CDD11E0FB851F27C8
:10514000812F2B96E2E10C946334CF93DF93EC0133
:10515000EA85FB85309719F06C857D8509958B81F3
:105160000E94D8148C810E94C5140E94FF1486E00E
:10517000FE0111928A95E9F7DF91CF910895CF93BF
:10518000DF93EC018D8181FD12C082608D838B8164
:105190000E94D2148C810E94BF140E94FF14E885E3
:1051A000F985309721F06C857D85CE0109951092A7
:1051B000E3031092E2038D8180FD02C0CE01C5DFC2
:1051C000DF91CF910895FB0122812223E9F0209104
:1051D000E2033091E30321153105B1F028173907B7
:1051E00099F0AC01FEE02F9FC0011124FC01EE5E9E
:1051F000FE4F208124602083835F9E4FFC015183FA
:105200004083BDDF0C94DF140895EF92FF920F935B
:105210001F93CF93DF939C0137552F3F310511F03A
:1052200008F04CC0DB018C017C01FF248EE0089F5C
:10523000F0011124EF01C35FDE4F12969C9112978B
:10524000EE5EFE4F808190FB80F9808312969C91E8
:10525000992381F1D9D29093E1038093E0038A816D
:105260008F5F8A830E94BC148B830E94CF149B8122
:10527000892B8B830E94E2148C83EE81FF8130970F
:1052800021F06C857D85CE0109958EE08E9DF00123
:105290008F9DF00D1124EE5EFE4F808181FD03C0D5
:1052A000902F812F02C090E080E09093E2038093E2
:1052B000E30304C081FF02C0CE0147DF81E0CDB728
:1052C000DEB7E6E00C946F348091E2039091E30343
:1052D000892BB9F08091E0039091E103ADD286383B
:1052E000910578F08091E2032EE0829FC0011124A5
:1052F000FC01EE5EFE4F208122FD03C0835F9E4FC6
:105300003ECF08951092B9008CE08093B8000895C4
:10531000A0E0B0E0EEE8F9E20C944E34B82EEB01D8
:1053200073D26C01C431D10558F0CF3F8FEFD8074D
:1053300059F0CE0164E170E00E94CD337B0107C0DB
:10534000EE24E394F12C03C025E0E22EF12C84E856
:10535000A82E94EA992E1092BC009092BC0054D2D0
:105360008C018091BC0087FD06C0C80165D2E8169B
:10537000F906B8F727C08091B900887F883041F0DE
:105380008091B900887F803119F00FEF1FEF1CC0AA
:10539000B092BB00A092BC0037D28C018091BC00BF
:1053A00087FD06C0C80148D2E816F906B8F70AC05A
:1053B0008091B900887F883111F0803431F700E0A6
:1053C00010E00DC00EEF1FEFCF3F8FEFD80709F4AD
:1053D000C2CFC60131D2C817D90708F0BCCFC80167
:1053E000CDB7DEB7EBE00C946A340F931F93CF93E5
:1053F000DF93EB018093BB0084E88093BC0004D270
:105400008C018091BC0087FD0CC0CF3F8FEFD80787
:10541000C1F3C80111D2C817D90798F78EEF9FEFD3
:105420000CC02091B900287F81E090E0283211F46F
:1054300080E090E0919581959109DF91CF911F9146
:105440000F9108950F931F93CF93DF93EC0184E89E
:105450008093BC00D9D18C018091BC0087FD0CC029
:10546000CF3F8FEFD807C1F3C801E6D1C817D907DE
:1054700098F78EEF9FEF03C08091BB0090E0DF9123
:10548000CF911F910F91089584E98093BC000895F6
:1054900090931B0280931A0208959093E9038093DE
:1054A000E8030895E091E803F091E903309729F0CB
:1054B0000190F081E02D0995089580E00895FC01A8
:1054C000A091E803B091E903109791F080917001E9
:1054D000882341F080911A0487FF04C08081818372
:1054E00086E08083CF011296ED91FC911397099588
:1054F00008952091E6033091E7032817390771F0EA
:105500009093E7038093E603E091E803F091E903C9
:10551000309721F00680F781E02D099508952091BC
:10552000E4033091E5032817390771F09093E50300
:105530008093E403E091E803F091E903309721F0D0
:105540000084F185E02D09950895FC013296809143
:105550007001882331F080911A0487FF02C09EE118
:1055600001C096E080E0915028F021912223D9F3E8
:105570008F5FF9CF0895662351F1209170012223A6
:10558000E9F020911A0427FF19C0462F4695469549
:1055900046954E31E0F4677021E030E002C0220F02
:1055A000331F6A95E2F7FC01E40FF11D828190E060
:1055B0002823392381E0232B69F409C0FC013296AA
:1055C00008962191621729F0E817F907D1F780E0D2
:1055D000089581E008959C01FC0132969FEF80E0E0
:1055E0004191461789F09F3F19F4411101C0982F4E
:1055F0008F5F8630A9F79F3F39F0F901E90FF11D60
:1056000097FDFA956283089508959C012A5F3F4FA4
:10561000FC014281461301C0128201968217930752
:10562000B9F70895262F2695269526952E3168F4EC
:10563000FC01E20FF11D677021E030E001C0220F94
:105640006A95EAF78281282B22830895262F2695D2
:10565000269526952E3170F4FC01E20FF11D67703E
:1056600021E030E001C0220F6A95EAF7209582819F
:1056700028232283089520917001222331F0209164
:105680001A0427FF02C0CECF0895A5CF0895209118
:105690007001222331F020911A0427FF02C0D6CFD7
:1056A0000895B3CF089520917001FC013296222312
:1056B00031F080911A0487FF02C08EE101C086E0BC
:1056C000DF011D928A95E9F708950895FECF0895A8
:1056D00083E08093EA03FACF0895811102C081E04C
:1056E00001C082E08093EA03F1CF0895F6CF0895D8
:1056F00081E08093EA03EACF0895FACF08950895F0
:10570000FECF0895FDCF0895FACF0895F8CF0895FC
:10571000CF930E94A0060E942419F6DFC0E08C2FD0
:105720000E940719811104C0CF5FCE30C1F701C0BC
:1057300081E0CF91089585B7806885BF85B780687F
:1057400085BF08951F920F920FB60F9211248F9369
:105750009F93AF93BF938091EB03811113C080910E
:10576000800490918104A0918204B09183044196B9
:10577000A11DB11D8093800490938104A0938204A5
:10578000B0938304BF91AF919F918F910F900FBE03
:105790000F901F90189580918804843031F10E94F9
:1057A000670C1092EB0320E488E190E00FB6F894C8
:1057B000A895809360000FBE2093600083B7817F1F
:1057C000846083BF83B7816083BF7894889583B7F3
:1057D0008E7F83BF0FB6F894A89580916000886192
:1057E00080936000109260000FBE08950E94E30D48
:1057F0000C946D0C089582E084BD93E095BD9AEF02
:1058000097BD80936E0008952FB7F894809180041F
:1058100090918104A0918204B09183042FBF0895D8
:105820002FB7F89460918004709181048091820474
:10583000909183042FBF08959C014FB7F8948091F5
:10584000800490918104A0918204B09183044FBFA1
:10585000821B930B089578941F920F920FB60F92AC
:1058600011248F939F93AF93BF9380918004909165
:105870008104A0918204B09183040196A11DB11D01
:105880008093800490938104A0938204B093830456
:10589000BF91AF919F918F910F900FBE0F901F906E
:1058A0001895F89481E08093E00080E28093D8001E
:1058B000E9ECF0E010828FE19EE40197F1F700C07F
:1058C00000001DBA109268001CBC10BE1FBA1092D6
:1058D0007A0010926E0010926F0010927100109278
:1058E00072001082ECEBF0E0108214B817B81AB80E
:1058F0001DB810BA108215B818B81BB81EB811BA66
:105900000C94003F08959AE088E10FB6F894A895AA
:10591000809360000FBE90936000FFCF80910F04D2
:1059200008950895CF93DF9320917001222339F0D9
:1059300020911A0427FF03C060E224E002C068E05F
:1059400021E02093E9002FEF3091E800215035FD50
:1059500006C035ED3A95F1F700002111F5CF209101
:10596000E80025FF1CC0EC0180917001811105C089
:1059700040E050E068E070E003C070E040E050E0DC
:10598000CE0141D28091E8008E778093E80080E2DA
:10599000FE01AFEEB3E001900D928A95E1F7DF9141
:1059A000CF9108958093EC037093EE036093ED0321
:1059B000809188048430F1F48093E9008FEF909116
:1059C000E800815095FD06C095ED9A95F1F700002D
:1059D0008111F5CF8091E80085FF0CC040E050E0D8
:1059E00063E070E08CEE93E00ED28091E8008E7759
:1059F0008093E8000895BC0184E0D4CF0895BC01F1
:105A000083E0D0CF08950895CF93603241F520917F
:105A10008804243021F5C091E900CF703091EC006A
:105A2000232F217030FD20E8C22B22E02093E900D3
:105A30002091E80020FF10C040E050E060E270E0FC
:105A4000E2D1882321F010926A0310926B038091B7
:105A5000E8008E778093E800CF70C093E900CF9183
:105A6000089580918704811107C095D3ECD380916C
:105A7000E20084608093E200089510928704089504
:105A80003CCE08956091840481E0611101C080E002
:105A90001FCE08959091880481E0943009F080E051
:105AA000609184041ACE089542E061EC81E0ECD26A
:105AB00042E261EC84E0E8D242E261EC82E0E4D2CE
:105AC00042E260EC83E0E0D29091880481E094307F
:105AD00009F080E06091840409CE089580918A04E1
