:100000000C9490050C94AD050C94AD050C94AD05C5
:100010000C94AD050C94AD050C94AD050C94AD0598
:100020000C94AD050C94AD050C94381D0C947A1C01
:100030000C94E21E0C94AD050C94AD050C94AD052A
:100040000C94AD050C94AD050C94AD050C94AD0568
:100050000C94AD050C94421E0C94AD050C94AD05AA
:100060000C94AD050C94AD050C94AD050C94AD0548
:100070000C94AD050C94AD050C94AD050C94AD0538
:100080000C94AD050C94AD050C94AD050C94AD0528
:100090000C94AD050C94AD050C94AD050C94AD0518
:1000A0000C94AD050C94AD050C94AD053D084008CD
:1000B000430846084B08500855086508740883082B
:1000C0009208A108B008BF08470A4A0A4D0A500A18
:1000D000530A560A590AB90EC00EC50ECA0ECF0EE3
:1000E000D40ED90EDE0EE30EE80EED0E1D0EF40E4C
:1000F000F70EFA0EFD0E000F030F050F080F0A0F83
:10010000DE0FDE0F101010108E10CE11CE11CE119A
:10011000AA103A114C114C11921AB91A621CB91A50
:10012000621C051B281B621C1D1C2D1C01012901C2
:10013000043130307C01012901043130307C01016F
:100140002901043130307C01012901043130307C37
:100150000101290001012901043130307C01012B0A
:1001600001043130307C01012B01043130307C013D
:10017000012B01043130307C0101290029002B00C2
:10018000E000E100737C00001E00140004001D006C
:10019000010029001F001A0016001B000100E300E7
:1001A0002000080007000600E2008252210015002E
:1001B0000900190082526B0F220017000A00050087
:1001C0000000855223000057000001570000460040
:1001D000220002570000035700000A0823001C00F9
:1001E0000B00110000008552240018000D001000C3
:1001F0008152460C25000C000E003600E2002C4116
:10020000260012000F00370087522C4327001300EE
:10021000330038008552000F35002A0028003400D2
:1002200086520000037E2B02010001000100000045
:10023000010001002D020100010001000100310256
:100240003100010001000100010001002E02010047
:1002500001000100010001002D000100010001006A
:10026000010001002E00010000000100010001005A
:100270000000010000000100010001000000010079
:100280000000010001000100010001000000010068
:1002900001002F002F0226020100010001003000A2
:1002A00030022702010001000100010001000100ED
:1002B0000100010001000100010001000100010036
:1002C00001000100010001000100000029012B03D1
:1002D000E000E100010000000100140404041D041A
:1002E000010001003B041A0416041B040100010074
:1002F00001000804070406040100010001001504C0
:100300000904190401000100010017050A0405048D
:1003100000000100010001000000010000000100D8
:1003200001000100000001000000010001001C04A8
:1003300050001104000001000100180451001004D5
:100340000100010001000C04520036040100E50028
:10035000010012044F0037040100010001001304E2
:1003600033043804010001000100010028040100E9
:10037000010000002904010001000100010000004B
:100380000100010001000100010001000100010065
:100390000100010001000100010001000100010055
:1003A0000100010001000100010001000100010045
:1003B0000100010001000100000001000100010036
:1003C0000000010000000100010001000000010028
:1003D00000000100010001005000010000000100C8
:1003E00001000100520001000100010001000100B4
:1003F0005100010001000100010001004F00010057
:1004000001000100010001000100010001000100E4
:1004100001000100010001000100000029000100AD
:1004200001000100010000000100010001000100C5
:1004300001000100010001000100010001000100B4
:1004400001000100010001000100010001000100A4
:100450000100010001000100010001000100010094
:100460000000010001000100000001000000010087
:100470000100010000000100000001000100110066
:1004800023022E00000001004C00240021001E0069
:10049000360001003800250022001F00270001005F
:1004A0002502260023002000630001002D002E02FB
:1004B00028002B002B1201000100010001000100A7
:1004C00001000000290001000100010001000000FE
:1004D0003A003F0044000100010001003B004000E1
:1004E00045000100010001003C00410068000100DE
:1004F000010001003D00420069000100010001000F
:100500003E0043006A00010000000100A800A900AD
:100510000000AA00000001000100AE000000480039
:100520000000010001000100AC000100000001001A
:1005300001000100AA00A800010001000100010063
:10054000A90001000100AB0001000100AB000100A7
:100550000100AC00010048000100010001000100A1
:1005600001000100AE00010001000000047E010056
:100570000100010001000000010001000100010074
:100580000100010001000100010001000100010063
:100590000100010001000100010001000100010053
:1005A0000100010001000100010001000100010043
:1005B0000000010001000100000001000000010036
:1005C0000100010000000100000001000100010025
:1005D0000100010000000100010001000100010014
:1005E0000100010001000100010001000100010003
:1005F00001000100010001000100010001000100F3
:1006000001000100100F010001000100007C010049
:1006100001000000010001000100010001000000D4
:100620003A00010001000100010001003B0001004F
:1006300001000100010001003C0001000100010077
:10064000010001003D000100010001000100010066
:100650003E00010001000100000001004400010013
:100660000000010000000100450001000000010041
:10067000000001003F000100010001000000010036
:1006800040000100010001000100010041000100E3
:100690000100010001000100420001000100010011
:1006A0000100010043000100010001000100010000
:1006B0004C054C000100010001000000050109800B
:1006C000A101850319012AB700150126B70095017C
:1006D00075108100C0050C0901A101850419012ACA
:1006E000A002150126A002950175108100C0050128
:1006F0000906A1018506050719E029E7150025016E
:100700009508750181020507190029EF15002501DB
:1007100095F07501810205081901290595057501F6
:100720009102950175039101C00660FF0961A10165
:100730000962150026FF00952075088102096315DE
:100740000026FF00952075089102C005010906A149
:1007500001050719E029E7150025019508750181B4
:10076000029501750881010507190029FF1500266A
:10077000FF00950675088100050819012905150077
:100780002501950575019102950175039101C00937
:10079000025B00030100A0FA09040000010301014B
:1007A000000921110100012244000705810308000E
:1007B00001090401000203000000092111010001E8
:1007C0002222000705820320000107050303200001
:1007D00001090402000103000000092111010001C8
:1007E000226D0007058403200001120100020000B1
:1007F00000089732754901000102000122034500FB
:10080000720067006F0044006F0078002000450010
:100810005A0020005300680069006E006500000067
:1008200028035A0053004100200054006500630073
:1008300068006E006F006C006F0067007900200098
:100840004C006100620073000000040309042900E9
:100850001E001F0000002223252628292A2C2D2FC8
:100860003032333536383A3B3D3E404243454749C6
:100870004A4C4E5051535557595A5C5E60626466FB
:1008800068696B6D6F71737577797B7D7F81838507
:1008900087898A8C8E90929496989A9C9E9FA1A309
:1008A000A5A7A8AAACAEAFB1B3B4B6B8B9BBBCBE2D
:1008B000BFC1C2C3C5C6C7C9CACBCCCDCED0D1D2A9
:1008C000D2D3D4D5D6D7D7D8D9D9DADADBDBDBDCAB
:1008D000DCDCDCDCDDDDDDDDDCDCDCDCDCDBDBDB57
:1008E000DADAD9D9D8D7D7D6D5D4D3D2D2D1D0CEB7
:1008F000CDCCCBCAC9C7C6C5C3C2C1BFBEBCBBB9BC
:10090000B8B6B4B3B1AFAEACAAA8A7A5A3A19F9E39
:100910009C9A98969492908E8C8A89878583817F01
:100920007D7B79777573716F6D6B696866646260E2
:100930005E5C5A5957555351504E4C4A49474543AE
:1009400042403E3D3B3A3836353332302F2D2C2A4B
:100950002928262523221E0F0500047F3F1F64320D
:1009600014643214783C1E1E140A050001010101B2
:10097000010101010102020202020202020203035A
:10098000030303030303040404040404040505052A
:1009900005050606060606070707070708080808EC
:1009A000090909090A0A0A0B0B0B0C0C0C0D0D0D99
:1009B0000E0E0E0F0F0F101011111112121313142F
:1009C00014151516161717181819191A1A1B1B1CA7
:1009D0001D1D1E1E1F202021222223242425262601
:1009E000272829292A2B2C2D2D2E2F303132323336
:1009F0003435363738393A3B3C3D3E3F404142433F
:100A00004445464748494A4C4D4E4F505153545522
:100A10005658595A5B5D5E5F616264656668696BD2
:100A20006C6D6F7072737577787A7B7D7E80828350
:100A30008587888A8C8E8F91939596989A9C9EA094
:100A4000A2A3A5A7A9ABADAFB1B3B5B7BABCBEC0A1
:100A5000C2C4C6C9CBCDCFD1D4D6D8DBDDDFE2E46A
:100A6000E7E9EBEEF0F3F5F8FAFDFFFFAA7F55405A
:100A70000000000000000000000000000000000076
:100A80000000000000000000000000000000000066
:100A9000000000007E0F00D4FFFFFFC700000078B9
:100AA00000000000000000002A2B280000000000C9
:100AB000000000000000000000000029000000000D
:100AC0002C1E3420212224342627252E362D37387B
:100AD000271E1F202122232425263333362E373884
:100AE0001F0405060708090A0B0C0D0E0F10111242
:100AF000131415161718191A1B1C1D2F3130232D0E
:100B0000350405060708090A0B0C0D0E0F1011120B
:100B1000131415161718191A1B1C1D2F3130354CBC
:100B200011241FBECFEFDAE0DEBFCDBF11E0A0E0A1
:100B3000B1E0E2E7F5E602C005900D92AC3EB107E8
:100B4000D9F724E0ACEEB1E001C01D92AB35B2079D
:100B5000E1F70E9438240C94B7320C9400009C01F9
:100B60003A9521153F4130F5BC0166277270AC0102
:100B7000442754709C012227387094FF0FC090FFC7
:100B800002C080E101C080E0672B09F08062452B44
:100B900009F08064232B79F080680895892F817093
:100BA000672B09F08260452B09F08460232B19F034
:100BB0008860089580E00895FC018281813039F4D5
:100BC000958192FD12C090FF10C082E0089582309E
:100BD00039F4858182FD06C080FD06C083E008955A
:100BE00086E0089585E0089584E00895CF93DF932B
:100BF000EC010E94272ACE01805E9109089710F02F
:100C0000209731F4CE010E94AF050E94162A05C03C
:100C1000CE010E94AF050E94052ADF91CF91089571
:100C20008FE39CE90197F1F700C000008091F50186
:100C3000823049F018F4813049F00CC0833031F033
:100C4000853021F007C08DE492E002C08DE490E091
:100C50000E94F6051092F50108958FE39CE9019733
:100C6000F1F700C000008091F301823049F018F4E0
:100C7000813049F00CC0833031F0853021F007C05D
:100C80008FE493E002C08FE491E10E94F605109298
:100C9000F30108958FE39CE90197F1F700C000008C
:100CA0008091F101823049F018F4813049F00CC094
:100CB000833031F0853021F007C08AE492E002C031
:100CC0008AE490E00E94F6051092F10108958FE306
:100CD0009CE90197F1F700C000008091EF0182309C
:100CE00049F018F4813049F00CC0833031F0853080
:100CF00021F007C080E593E002C080E591E00E940A
:100D0000F6051092EF010895CF93DF93EC01805E1A
:100D10009109089710F0209731F4CE010E94AF0599
:100D20000E941D2A05C0CE010E94AF050E940C2A18
:100D30008C2F0E94802ADF91CF9108950F931F93EB
:100D4000CF93DF938C01C99719F0C0E0D0E002C0C7
:100D5000C0E5D0E0C8010E948406209741F08FE9E9
:100D60009FE00197F1F700C000002197F6CFC8017E
:100D70000E94F605DF91CF911F910F910895CF93B7
:100D8000DF93EC018A81833061F48DE490E00E946E
:100D90009E068DE490E00E949E068DE490E00E9405
:100DA0009E068A81843020F08DE490E00E949E06A9
:100DB000DF91CF910895CF93DF93EC018A81833047
:100DC00061F48FE491E10E949E068FE491E10E941C
:100DD0009E068FE491E10E949E068A81843020F075
:100DE0008FE491E10E949E06DF91CF910895CF9309
:100DF000DF93EC018A81833061F48AE490E00E9401
:100E00009E068AE490E00E949E068AE490E00E949A
:100E10009E068A81843020F08AE490E00E949E063B
:100E2000DF91CF910895CF93DF93EC018A818330D6
:100E300061F480E591E00E949E0680E591E00E94C9
:100E40009E0680E591E00E949E068A81843020F013
:100E500080E591E00E949E06DF91CF9108950E9467
:100E6000DC058093F501823049F018F4813091F06F
:100E70000895833031F0853049F008958DE492E093
:100E80000BC08DE490E00E94840604C08DE490E0E5
:100E90000E949E068DE490E00E94840608950E94C0
:100EA000DC058093F301823049F018F4813091F031
:100EB0000895833031F0853049F008958FE493E050
:100EC0000BC08FE491E10E94840604C08FE491E19D
:100ED0000E949E068FE491E10E94840608950E947C
:100EE000DC058093F101823049F018F4813091F0F3
:100EF0000895833031F0853049F008958AE492E016
:100F00000BC08AE490E00E94840604C08AE490E06A
:100F10000E949E068AE490E00E94840608950E9442
:100F2000DC058093EF01823049F018F4813091F0B4
:100F30000895833031F0853049F0089580E593E0DD
:100F40000BC080E591E00E94840604C080E591E03A
:100F50000E949E0680E591E00E9484060895292F54
:100F600033272115310519F0C90148E001C040E0DF
:100F70009C0164E0369527956A95E1F721153105C6
:100F800011F04C5FC9019C01369527953695279540
:100F90002115310511F04E5FC9019C013695279549
:100FA000232B09F04F5F842F0895A6E0B0E0EBED0E
:100FB000F7E00C94C32FFC0187819085009709F519
:100FC000CF0126E0DE01119601900D922A95E1F7FE
:100FD000FC01258189819A81222359F0662349F0F9
:100FE0000E945328182F682F89819A810E94C72850
:100FF00003C00E949428182F69817A81812F0E9452
:101000003C132696E3E00C94DF2F1092A0020E947E
:1010100078292FEF84E39CE0215080409040E1F755
:1010200000C000009AE088E10FB6F894A89580937C
:1010300060000FBE90936000FFCF8F929F92AF929F
:10104000BF92CF92DF92EF92FF920F93CF93DF93F5
:10105000EC010E94AF0756985E9825982D98269827
:101060002E9827982F9890E0FC013197E730F105F2
:1010700018F5EA5AFF4F0C943031259A2D9A34C056
:10108000269A2E9A40C0279A2F9A4CC0259A2D9ABC
:10109000269A2E9A56C0259A2D9A279A2F9A60C082
:1010A000269A2E9A279A2F9A6AC0259A2D9A269ABE
:1010B0002E9A279A2F9A74C08730910508F070C035
:1010C000FC01E35AFF4F0C9430318091F6018111FD
:1010D000ACC00E94B02D81E00E94AC2D20E0409178
:1010E000640362EE86E859C08091F60181119DC0CB
:1010F0000E94B02D81E00E94AC2D20E0409164035D
:101100006FEF8CEB4AC08091F60181118EC00E9476
:10111000B02D81E00E94AC2D20E0409164036FEF80
:1011200088E93BC08091F60181117FC00E94B02DFB
:1011300081E00E94AC2D20E0409164036AED83EBD6
:101140002CC08091F601811170C00E94B02D81E009
:101150000E94AC2D20E0409164036AED8CEA1DC032
:101160008091F601811161C00E94B02D81E00E9442
:10117000AC2D20E0409164036AED82E30EC08091C3
:10118000F601811152C00E94B02D81E00E94AC2D69
:1011900020E0409164036FEF80E00E94A32C45C0E3
:1011A0008091F601811141C088E090E00E944F30AB
:1011B0004B015C0184E290E00E944730282F30E030
:1011C00040E050E060E070E080E090E000E20E94EB
:1011D0004531282939294A295B2920936103309315
:1011E00062034093630350936403609365037093B9
:1011F0006603809367039093680320FF14C0822FD7
:1012000081608093610386950E94B92D809161036E
:1012100086950E94B92D21E040916403609163039B
:1012200080916203BACF0E94D82BCE01DF91CF917B
:101230000F91FF90EF90DF90CF90BF90AF909F9075
:101240008F90089580E290E090930D0180930C01BF
:101250008091CE0281110EC00E94D02E81E0809339
:10126000CE022FEF83ED90E3215080409040E1F7D4
:1012700000C0000060E570E080E40E94D62E9093EC
:101280000D0180930C01892B09F04EC060E570E0E0
:1012900080E00E94492F90930D0180930C01892BCF
:1012A00009F042C060E570E080E00E94492F909311
:1012B0000D0180930C01892BB9F560E570E08FE397
:1012C0000E94492F90930D0180930C01892B61F5A9
:1012D0000E949C2F60E570E080E40E94D62E9093DF
:1012E0000D0180930C01892BF9F460E570E08CE02E
:1012F0000E94492F90930D0180930C01892BA1F43A
:1013000060E570E080E00E94492F90930D0180938A
:101310000C01892B49F460E570E08FE30E94492FAE
:1013200090930D0180930C010E949C2F80910C01E1
:101330000895CF93DF9356985E9825982D98269818
:101340002E9827982F98C8E8D0E08FEF90E09983E7
:101350008883AAE8B0E011969C938E93ECE8F0E0C5
:1013600091838083259A2D9A2FEF80E792E0215078
:1013700080409040E1F700C00000269A2E9A2FEF9F
:1013800080E792E0215080409040E1F700C00000EB
:10139000279A2F9A2FEF80E792E0215080409040CB
:1013A000E1F700C0000025982D982FEF80E792E02C
:1013B000215080409040E1F700C0000026982E9810
:1013C0002FEF80E792E0215080409040E1F700C08D
:1013D000000027982F988091EE0387702FEF829F4F
:1013E000C00111249595879595958795992799839F
:1013F000888311969C938E939183808356985E98F0
:1014000025982D9826982E9827982F98DF91CF9180
:101410000895CF93E82F873080F580910C0190914B
:101420000D01892B09F047C0CE2F60E570E080E404
:101430000E94D62E90930D0180930C01892BD1F43C
:1014400060E570E082E10E94492F90930D01809346
:101450000C01892B79F481E090E001C0880FCA95D6
:10146000EAF760E570E080950E94492F90930D01A6
:1014700080930C010E949C2F1EC090E0FC013797C6
:10148000E730F105C0F4EC59FF4F0C943031209A4D
:10149000289811C0219A29980EC0229A2A980BC028
:1014A000239A2B9808C0529A5A9805C0539A5B9871
:1014B00002C03E9A4698CF91089520982898219886
:1014C000299822982A9823982B9852985A9853989A
:1014D0005B983E9846980895CF93873040F5809169
:1014E0000C0190910D01892B59F560E570E081E4C4
:1014F0000E94D62E90930D0180930C01892B11F040
:10150000C0E011C080E590E00E94782F97FF05C0F1
:1015100090930D0180930C01F3CFC82FC0951092CA
:101520000D0110920C010E949C2F8C2F0AC09FB1BC
:101530008FB1807F869586959370892B809501C0A9
:1015400080E0CF9108958098889A8198899A8498AC
:101550008C9A85988D9A86988E9A87988F9A0895F6
:10156000AFE2B0E0E6EBFAE00C94B72F4AA75BA736
:101570006CA77DA78EA79FA7882349F08091F801CB
:101580009091F90101969093F9018093F8018FA54C
:1015900081111092E203CE01819629E0DC011D92B7
:1015A0002A95E9F726E0FE01BA96DC0101900D923A
:1015B0002A95E1F72DA121110CC009A11AA12BA197
:1015C0003CA14DA15EA16FA178A589A50E94962995
:1015D000DAC161E00E94D5077C0180915304882321
:1015E00089F08EA1811102C087E001C086E0898365
:1015F00089A18A838AA18B838EEF8C83CE01019689
:101600000E94A72EB0E5EB16BCE7FB0639F48EA1CD
:10161000882309F181E08093230118C0E1E5EE16EB
:10162000ECE7FE0631F48EA18823A9F00E948D20FC
:101630000DC0F2E5EF16FCE7FF0669F48EA18823E2
:1016400051F080912301882329F3F0CF81E090E0CD
:1016500080FDB3CF98C160911C0170911D01CC2415
:10166000CA94DC2C90E0492F50E0FA01EE0FFF1FE6
:10167000E60FF71F25913491E216F30609F46A018B
:10168000232B11F09F5FEFCF2FEFC216D20609F484
:1016900029C140912001411104C010912301212F43
:1016A00002C020E030E0122F11703EA120912101F4
:1016B00080912201332309F4B3C0112309F4B0C08F
:1016C000211117C021E030E00C2C01C0220F0A9438
:1016D000EAF7822B8093220120916A0330916B03F9
:1016E0002233310530F422E330E030936B03209352
:1016F0006A0321E030E0A90102C0440F551F9A950A
:10170000E2F7CA0101972091220130E08217930786
:1017100009F0E9C08091E0039091E103009729F07E
:101720000E94681EC39708F027C18091DE030091D4
:10173000DF0380901C0170901D01982FE0E0F0E025
:1017400067E099249394801709F456C0482F50E01D
:10175000FA01EE0FFF1FEA52FC4FA081B1816A9F90
:10176000F0016B9FF00D1124E45EFE4F608051800C
:1017700070E020E030E0E62DF52DE30FF11DE30FE2
:10178000F11DC590D490C114D104A1F020E0E82D42
:10179000F72DE20FF11DE20FF11DA590B490A114F9
:1017A000B10431F0CA14DB0409F471E02F5FEFCF0C
:1017B0003F5FE1CF7723C9F0231708F4DBC06A9FAE
:1017C000F0016B9FF00D1124E45EFE4F309779F02D
:1017D0009482A1E0EC31FA0709F4D2C0891307C062
:1017E000CA010196982F937002C0E0E0F0E04F5FCD
:1017F0005F4F842F8370A7CF9093DE03EC51F140AD
:1018000009F471C090E0FC01EE0FFF1FEA52FC4F9B
:10181000118210820196837099278093DF0363C041
:10182000211116C021E030E002C0220F331F9A952B
:10183000E2F72150310990E02817390709F043C039
:10184000442309F441C080E090E00E9408203BC09E
:1018500090E09C0121503109282339230C2C02C02F
:10186000959587950A94E2F7232B51F580FF28C0C0
:1018700080911E0190911F01892BF1F0FE0131969C
:1018800089E0DF011D928A95E9F70E94771E282FD3
:101890008B839C8384E08D8380911E0190911F0136
:1018A000782F8887998709811A813C8144E05E817D
:1018B0006F81892F0E9496291092210111E004C0A6
:1018C000182F117001C010E081E090E00C2C01C0D5
:1018D000880F0A94EAF780959091220189238093DA
:1018E000220101C010E08EA1882379F1112369F152
:1018F0000E94771E9093E1038093E00380916D0333
:101900008830A0F591E0980F90936D0399E0FE0167
:10191000B196DE01119601900D929A95E1F7BDE026
:101920008B9FC001112482599C4F29E0FE01319602
:10193000DC0101900D922A95E1F72FEF3FEFFC01BA
:1019400032872187F486E38611C09091DE0380916F
:10195000DF03981719F00E949C2008C00E943620CF
:101960001092E1031092E0030E94802081E018278A
:10197000812F6ECE9093DE0381E080932001B3CF60
:101980009093DE03B0CFAF96EFE00C94D32FA0E09E
:10199000B0E0EDECFCE00C94BD2FFC01248122238F
:1019A00009F458C58C0161E00E94D507EC01F801EB
:1019B0008581882309F43FC58091E3039091E40376
:1019C000009709F460C0C817D90709F45CC09927CB
:1019D00064E0880F991F6A95E1F7FC01EF5CFE4F08
:1019E000208124602083845D9E4FFC01D183C083CD
:1019F0000E94DE1F1092E20361E0C8010E94D50739
:101A0000EC0181159E4709F042C0F80185818823C9
:101A100009F416C59091EE0381E0890F8770987FD5
:101A2000853020F4892B8093EE0302C09093EE035F
:101A30008091EE038770FFEF8F9FC0011124959571
:101A4000879595958795992790938900809388002D
:101A500090938B0080938A0090938D0080938C00EC
:101A60004091EE035091EF036091F0037091F10308
:101A70008FE090E00E947D308091010490910204FB
:101A80000E941D08DDC4C115FEE7DF0719F2C23050
:101A90002EE7D207F9F028F4C1304EE7D40701F160
:101AA0002BC0C3305EE7D50729F0C4308EE7D807D6
:101AB00041F022C0F8018581882319F184E591E085
:101AC00006C0F80185818823E1F08CE291E00E9454
:101AD000D22D17C0F8018581882309F49CC4ADC0BC
:101AE000F8018581882309F496C49091F60181E07C
:101AF00089278093F6018FC4C337FCE7DF0709F419
:101B0000A5C0809169039E0137556901882309F4B6
:101B1000BBC0F090A002E0908E020E94771E885712
:101B20009C4E9093250480932404F801858188239A
:101B300009F489C48E2D8F298D7909F07BC0C034BA
:101B4000F2E5DF07B8F4C11522E5D20708F09CC022
:101B5000C11530E4D30748F4C11540E2D40740F57D
:101B6000C63ED10509F045C08FC0C11550E5D50767
:101B7000C0F13FC0C03E82E5D807A0F4C03C92E56A
:101B8000D90708F081C0C036E2E5DE0790F1C03A1F
:101B9000F2E5DF0708F478C0C43B22E5D20709F478
:101BA00073C027C0CE0187579C47029710F56CC0C1
:101BB000F8018681807FD1F48D2F8F71823171F091
:101BC00028F48230B9F581EE90E014C0843109F434
:101BD0005BC0863179F586EE92E10CC085EE90E02F
:101BE00009C0F8018681807F09F44EC0CE01992793
:101BF00001C0CE011092E2038832910538F48E3193
:101C0000910508F03FC00497A8F00EC08D329105F1
:101C100059F018F48A97B1F10DC08C34910591F107
:101C20008D32924079F106C082E08093E2030E94F7
:101C3000081528C00E94342127C081E004C08160BB
:101C40008093610386950E94B92DE5C3F8018581D3
:101C5000882309F4E0C380916903882319F00E9466
:101C60003421D9C31092A0020E94F4140E94771E5E
:101C700088579C4E909325048093240481E08093A0
:101C80006903C9C30E9408152FEFC216D10411F0D1
:101C900008F05DC06E01DD24C60144E0880F991F85
:101CA0004A95E1F79C01245D3E4F7901F8012581B9
:101CB000AC014F5C5E4F6A01FA01808120FB80F924
:101CC0008083F8018581882341F10E94771E9093DB
:101CD000230480932204F70182818F5F8283909195
:101CE000E2038091A002892B838380918E028483FA
:101CF0004681578166857785C7010E94BF1FF6011F
:101D0000808181FD03C09C2F8D2F02C090E080E078
:101D10009093E3038093E4031AC0F701448555854B
:101D200066857785C7010E94BF1FF601808181FF0C
:101D30000EC0C7010E94C51F8091E3039091E40388
:101D4000C817D90721F41092E4031092E303F801B5
:101D50008581811164C08091A0028272FE01E052EF
:101D6000F847E531F10508F05AC0E559FF4F0C94EA
:101D700030318091610380FF62CF0E94D82B4BC32A
:101D80004DEB5DE267EC7DE22CC047EC5DE26DEB74
:101D90007DE227C045E55DE26FE57DE222C04FE5CB
:101DA0005DE265E57DE21DC04BE35DE268E47DE256
:101DB00018C048E45DE26BE37DE213C041E25DE2FE
:101DC0006EE27DE20EC04EE25DE261E27DE209C0BC
:101DD00044EA5BE26EEB7BE204C04EEB5BE264EA5A
:101DE0007BE20E94622117C365E082E015C068E0D3
:101DF00086E012C06EE089E00FC064E18FE00CC0A5
:101E000067E185E109C088E11ECF62E289E104C093
:101E100083E219CF6AE285E20E944F21FCC2F801F9
:101E20008581882309F472C0C330FCE7DF0709F419
:101E300059C048F4C1153CE7D307A9F0C130DC47CD
:101E400009F456C063C0CB355CE7D50709F45BC025
:101E5000CC358CE7D80709F44EC0CA35DC4709F009
:101E600055C081E051C01092A0020E947829EFEF86
:101E7000F4E32CE0E150F0402040E1F700C0000026
:101E8000F89481E08093E00080E28093D800109283
:101E9000C9008FE19EE40197F1F700C000001DBA70
:101EA000109268001CBC10BE1FBA10927A001092EB
:101EB0006E0010926F0010927100109272001092DA
:101EC000C9001092BC0014B817B81AB81DB810BADF
:101ED0001092BC0015B818B81BB81EB811BA0C94F3
:101EE000003F99C26FEF7FEF80E090E00E94893061
:101EF0000E94050890C280919E0282FB882780F98B
:101F000091E0892701C080E00E947415F801878163
:101F100090850097B9F4F8018581C081D18188232B
:101F200049F0CE010E945328F82E682FCE010E945E
:101F3000C72804C0CE010E949428F82EBE018F2D20
:101F40000E943C130E945913EC01F801E580D680F1
:101F5000D2943FE0D32280916D028770F9F0EE2099
:101F6000E9F08D2F807F803461F080E28C0F883023
:101F7000A8F08D2F807E803221F4C23078F0DD20F1
:101F800069F080919E0282FF09C082E00E945D1587
:101F900080916D028770CC24C3948111C12CBD2E19
:101FA000B2942FE0B2228B2D90E08C30910508F096
:101FB000F5C1FC01E058FF4F0C9430319D2F9F700C
:101FC0008D2F807FF92E19F0F29490EFF922EE20F8
:101FD000B9F0FF2009F4CFC180E28C0F883010F0F7
:101FE000C11106C08091A002F82AF092A00205C09B
:101FF0008091E203F82AF092E2030E940815BBC127
:102000008C2F0E94272AFF2009F4C8C180E28C0F80
:10201000883078F1CC2369F18F2D0E94FA142CC0FE
:102020009D2F9F708D2F807FF92E803219F0F294B2
:1020300080EFF822CC2321F0C13009F44CC055C008
:1020400080919E0282FD1BC0EE2069F0FF2039F0D6
:102050008091A002F82AF092A0020E94081580E068
:102060000E94802A9BC180E00E94272AFF2009F459
:1020700095C18F2D0E9401150E9408158FC1EE2079
:1020800081F0DD20B1F1F1E0DF1288C180918E0294
:102090009F2D9823F91609F481C1F82AF0928E0237
:1020A0007DC1D1107BC18F2D0E94162A80918E0296
:1020B0009F2D982329F09F2D9095892380938E0240
:1020C0008091F7019F2D982309F468C1F0948F2126
:1020D0008093F70163C1EE2029F021E02D1508F46B
:1020E0005DC107C0D1105AC115C0EE2031F0D1102A
:1020F00042C18F2D0E941D2A51C1DD2059F0C933E4
:1021000009F049C13FEF47EE53E0315040405040A5
:10211000E1F73FC18F2D0E94162A40C18D2F869571
:102120008695837019F0813059F038C1EE2019F08E
:10213000CE01937002C080E090E00E948D1F34C1F8
:10214000EE2019F0CE01937002C080E090E00E9472
:10215000681F2AC18D2F837009F042C0E11022C18F
:102160003C2F329536953770330F330F8C2F8F708D
:1021700090E0032E02C0880F991F0A94E2F7C4FF73
:102180000BC04FE050E002C0440F551F3A95E2F7F4
:102190009A012095309502C020E030E04D2F469501
:1021A00046954370423099F068F460918F027091C7
:1021B0009002413029F0822B932B8623972304C071
:1021C000862B972B822B932B0E944429EBC0822BCA
:1021D000932B20918F023091900282279327F4CF86
:1021E000EE2019F08D2F817001C08695882309F4A7
:1021F000D9C03C2F329536953770330F330F8C2F63
:102200008F7090E0032E02C0880F991F0A94E2F7A6
:10221000C4FF0BC04FE050E002C0440F551F3A9579
:10222000E2F79A012095309502C020E030E04D2F72
:10223000469546954370423079F0B8F460910104B8
:1022400070910204413029F0822B932B862397232F
:102250000EC0862B972B09C0822B932B2091010453
:10226000309102048227932702C0822B932B0E9475
:10227000FB2898C08D2F8F70F82EEE2031F00E9431
:1022800034298C2F0E941D2A8DC08C2F0E94162A63
:102290008F2D0E94222986C0C23F69F128F4C03FD9
:1022A00041F0C13F19F162C0C33F61F1C43FD1F0B9
:1022B0005DC0EE2091F0D11071C02D2F2F7181E003
:1022C00090E002C0880F991F2A95E2F7209101043F
:1022D000309102048227932725C091E09D1508F4D0
:1022E0005DC0EBCF80919E0282FD1FC0EE2029F0E1
:1022F0008D2F8F712EC0EE20D9F38D2F8F710E94FC
:1023000022294CC0EE2061F021E030E09D2F9F712A
:10231000F90102C0EE0FFF1F9A95E2F7CF0102C04C
:1023200080E090E00E94FB2839C0EE20A9F0FD2F4C
:10233000FF71FF2E8F2F0E94342980919E0282FF11
:1023400007C028E0F29EC0011124836080936D02D3
:102350008F2D0E94342922C081E00E945D1531E05A
:102360003D15E0F482E00E945D1518C0EE2029F0D2
:10237000DD2009F4BDCF8C2F73CEDD2009F4BDCF55
:10238000C93349F44FEF57EE83E04150504080404D
:10239000E1F700C000008C2F0E94272A88EF8B0DE8
:1023A000843010F40E94B21FCE010E94492981118D
:1023B00005C01092F9011092F80111C0EE2019F039
:1023C000D110F7CF0CC0D110F4CF8091F8019091CB
:1023D000F901029771F78C2F0E943A2BEACFCC209B
:1023E000A9F080916D0280FD11C0F80115828695DB
:1023F000869586950E943429C8010E94C70C809159
:102400006D028695869586950E94222960E0C80116
:102410000E94D5071FC080916D028770D9F0F80126
:1024200085818823B9F080919E0282FF13C082E0EB
:102430000E945D150FC0C1153EE7D30709F027CBF9
:10244000C0E0DEE75ECB2FEFC216D10409F008F43E
:1024500021CC81CCCDB7DEB7E9E00C94D92F80E058
:10246000089590919D0292FF10C041E0282F2471A1
:10247000243009F040E031E0282F2871283009F09D
:1024800030E0431711F02CE0822793FF10C041E0A9
:10249000282F2471243109F040E031E0282F2871E1
:1024A000283109F030E0431711F02CE082273091F9
:1024B0009E0230FF10C051E0282F2171213009F019
:1024C00050E041E0282F2871283009F040E05417EF
:1024D00011F029E0822731FF10C041E0282F21713F
:1024E000213109F040E031E0282F2871283109F02E
:1024F00030E0431711F029E0822794FD877E08958C
:102500008238910569F1B0F48133910509F475C001
:1025100048F48932910509F467C08A32910509F4BB
:1025200071C008958533910509F459C08933910527
:10253000B9F00895833E910589F138F4803E910504
:10254000D1F0823E910529F10895863E9105C9F1A9
:10255000873E9105D9F1843E910509F06CC027C0F2
:1025600020919D0220FD57C021FD55C020919E0263
:1025700023FD5BC0089580919D0280FD48C080913D
:102580009E0280FF48C080919D0284FD46C083EE7C
:1025900051C080919D0282FF3CC0F5CF80919D0289
:1025A00082FD37C080919E0280FD35C0ECCF8091C6
:1025B0009E0281FF36C080919D0284FD2EC087EE71
:1025C00039C080919D0283FF2AC0F5CF80919D0282
:1025D00083FD25C080919E0281FD23C0ECCF8091B8
:1025E0009D0285FD22C01FC080919D0285FD1BC0FC
:1025F00080919E0283FF19C00AC080919D0286FDD2
:1026000016C017C080919D0286FD13C010C089E3DB
:1026100011C082EE0FC080EE0DC080E00BC086EED0
:1026200009C084EE07C085E305C089E203C08AE2E1
:1026300001C081E390E0089520916C029091230203
:1026400059E02917A9F030E0529FF001539FF00D97
:102650001124EC5DFD4F7181761306C070817813F3
:1026600003C07581741306C02F5F3F4F2770E9CFF9
:1026700080E0089581E008957E30B0F46630A0F4E3
:102680008830A0F494E5899FF001112486E0789FBA
:10269000E00DF11D1124E60FF11DEE0FFF1FE458B0
:1026A000FE4F85919491089580E001C081E090E013
:1026B00008951F93CF93DF930E948012EC01C11500
:1026C00080E5D807E8F5C11590E4D90708F0A8C05F
:1026D000C03ED10530F5CD3CD10508F094C0C83AD4
:1026E000D10578F4C53AD10508F083C0C130D105D1
:1026F00009F47CC008F4F2C0C430D10508F0F1C080
:10270000EDC0C33CD10508F0E9C0C85AD0E0CC0FF9
:10271000DD1FC159DE4F0990D881C02DCE019464D0
:10272000E1C0C11580E2D80708F0CBC0C11591E027
:10273000D90708F06BC0C83ED10508F4D2C0CEC09E
:10274000C03682E5D80728F5C03492E5D90708F0ED
:1027500079C0C03282E5D80708F06CC0C11592E597
:10276000D90708F481C04C2F4695469580E2489FD2
:10277000A0011124C37021E030E0C90102C0880F1C
:10278000991FCA95E2F7EA01C82BD92BCE019D68A3
:10279000A9C0C03A82E5D807B8F48C2F8F71C03831
:1027A00092E5D90708F07BC08695869590E2899FCF
:1027B00090011124C37081E090E002C0880F991F3E
:1027C000CA95E2F79A6868C0C03C82E5D80708F469
:1027D0006DC0C03E92E5D90708F080C0CF71DD27FB
:1027E000DC2FCC27CE01806F906A7CC081E090E026
:1027F00079C0C55AD0E0C459DE4F8881C82FD0E0D7
:10280000CE0190646FC0CE0190656CC08D2F0E9488
:102810003112182FCE0199270E9480121F715CC0BF
:10282000CE0199270E948012CC27DF70D06A8C2BB2
:102830009D2B58C0CF71D0E0DC2FCC27CE01816F0B
:10284000906A50C08C2F8F718695869590E2899FF3
:1028500090011124C37081E090E002C0880F991F9D
:10286000CA95E2F79C6818C08C2F8F710E943112B4
:1028700095E0D695C7959A95E1F7CF70D0E0DC2F1B
:10288000CC27282F30E084FF05C084E0220F331FBF
:102890008A95E1F7D069CE01822B932B23C090E07B
:1028A000D82FCC27CE01846F906A1CC08C2F8F71DB
:1028B0000E9431128F7190E0D82FCC27CE01906208
:1028C00011C08D2F8F710E943112182FCE019927C0
:1028D0000E9480121F719062912B04C080E090E0F2
:1028E00001C0CE01DF91CF911F910895A8E0B0E023
:1028F000ECE7F4E10C94C42F66EE7EEF80E090E00C
:102900000E94893060E082E090E00E946B3060E0DD
:1029100083E090E00E946B301092900210928F0240
:1029200060E074E184E090E00E94893060E086E03D
:1029300090E00E946B306FEF87E090E00E946B3078
:1029400040E050E0BA0188E090E00E947D3060E015
:1029500084E290E00E946B3060E087E190E00E94AA
:102960006B3060E08CE090E00E946B3060E08DE0C6
:1029700090E00E946B3019821A821B821C821D8299
:102980001E821F82188648E050E068E170E0CE01A8
:1029900001960E945B3040E050E0BA0180E290E096
:1029A0000E947D301092EE031092EF031092F0031C
:1029B0001092F10384E08093EE034091EE03509176
:1029C000EF036091F0037091F1038FE090E00E94BB
:1029D0007D3040E050E0BA0183E190E00E947D301C
:1029E0002896E2E00C94E02F80918E0281111092E3
:1029F0008E02089580959091E20389238093E203EB
:102A0000089580959091A00289238093A002089553
:102A10009091A0028091E203982B9093FA0180910B
:102A20008E028823D9F0892B8093FA0180910A01C4
:102A3000882331F080919D0287FF02C08EE101C0A2
:102A400086E0ECEFF1E090E0815028F02191222324
:102A5000D9F39F5FF9CF91110E94F41440E250E046
:102A60006EE672E08AEF91E00E94AA32892B21F192
:102A700080E2EAEFF1E0AEE6B2E001900D928A95D5
:102A8000E1F7E091E703F091E8033097A9F0809136
:102A90000A01882359F080919D0287FF07C0809129
:102AA000FA018093FB0186E08093FA010280F381B2
:102AB000E02D8AEF91E00995089590916D0280953F
:102AC000892380936D02282F277069F4981759F095
:102AD00090919E0292FF07C08695869586950E94EA
:102AE000222910926D02089590919E0292FB222756
:102AF00020F9281779F080FB92F990939E0260915B
:102B00009D0270919E0284E090E00E94893082E0F4
:102B10000E945D15089580916C029091230289179F
:102B200019F08F5F8770FBCF0895CF93DF9380916B
:102B3000200282958F7009F04EC080911F02882379
:102B400009F449C080916C024091230250911B020C
:102B500060911A02C0911C02D0911D0279E0841785
:102B6000D1F190E0789FF001799FF00D1124DF0101
:102B7000AC5DBD4F14962C911497222349F1119608
:102B80002C911197251324C02C91261321C0159642
:102B90002C91159721111CC012962D913C911397E1
:102BA0002C1B3D0B2538310598F4809120028F7045
:102BB000806180932002E65DFD4F80818F7080618F
:102BC00080838AE192E00E94C70C0E948B1503C0AB
:102BD00001968770C4CFDF91CF910895A8E1B0E04E
:102BE000E4EFF5E10C94BA2F8C0186E0F801DE01E8
:102BF000539601900D928A95E1F7F8018481E58062
:102C00009AE1892E92E0992E90911E02911120C096
:102C1000882309F496C1EE2009F442C0C8010E943D
:102C20006429F82E8823E1F189E0F801D4010190AC
:102C30000D928A95E1F780911E02813031F48091E6
:102C40001A0290911B020E9487280E9495157BC151
:102C5000F801D080C180A280B380F0901F02209143
:102C60001C0230911D02FF2009F410C1A501421B76
:102C7000530B4538510508F0B6C0882309F463C1E9
:102C800080912002282F207F90911B02222361F047
:102C90009C1509F469C0C8010E946429811176C09D
:102CA000C8010E94C70C4DC19C111CC090911A0212
:102CB0009D1118C040912102509122022781308538
:102CC0004217530779F4E1100DC08F708061809333
:102CD00020028AE192E00E94C70C80912002F80154
:102CE00086832DC1E1103AC040E06C2D8D2D0E94ED
:102CF0001C1340E06C2D8D2D0E941C13E82E8111B9
:102D00001EC1DB8ACC8A8B899C890E948728292F47
:102D100022952F70243020F49F70223028F009C0B3
:102D20002A50223080F014C0992349F0811107C045
:102D300013C0992321F0F8019681907F69F0805E9D
:102D4000883030F409C0803F38F0815F833020F054
:102D5000C8010E94C70CEF2CFE2CF5C08091200208
:102D6000816080932002EBC090911A029D1193CF55
:102D70004091210250912202F801278130854217AB
:102D8000530709F088CFE11086CFB8C0EE2009F4D0
:102D900087CF20912002822F82958F7090E002973A
:102DA000BCF080911A0290911B029B878A87BD8696
:102DB000AC8680911E028E871F86288B809121020F
:102DC000909122029A8B898BCE010A960E94C70CA1
:102DD00089E0F801AAE1B2E001900D928A95E1F74D
:102DE0000E949515AEC090912002292F207F51F4AA
:102DF0008AE192E00E94C70C89E0F40111928A9561
:102E0000E9F79DC0882309F49EC080911B028C11B4
:102E100015C080911A028D1111C04091210250916C
:102E20002202F801278130854217530739F4E11057
:102E300005C09683C8010E94C70C7BC0C8010E94D0
:102E40006429882309F42CCFEE2009F429CF20919E
:102E50002002822F82958F7090E002970CF4B8CFF9
:102E600080911A0290911B029A838983BC82AB8263
:102E700080911E028D831E822F838091210290916A
:102E8000220299878887CE010196A0CFA21AB30AA1
:102E9000F5E8AF16B10408F04CC0882309F451C01E
:102EA000FE2CEE2009F4FCCE80911B028C1133C065
:102EB00080911A028D112FC020912102309122029F
:102EC000F801878190852817390729F5809120021C
:102ED00080FD18C082958F70482F50E04115510534
:102EE00089F02091200226834F30510541F08F5FF9
:102EF000982F9295907F822F8F70892B8683C8019F
:102F00000E94C70C89E0F801AAE1B2E001900D929D
:102F10008A95E1F718C0C8010E946429811158CF31
:102F200080912002816080932002C8010E94C70C1A
:102F30000AC089E0F40111928A95E9F704C0F12CE6
:102F400002C0FF24F3948F2D6896ECE00C94D62FEA
:102F5000A0E0B0E0EEEAF7E10C94BE2F80910C0106
:102F600090910D01892BB9F0809193028F5F80932E
:102F70009302811110C00E94220990E090930D01EC
:102F800080930C01892B39F40E94990981E0809388
:102F90000B010E94692102EF13E07801D0E0C0E04C
:102FA00087E0C82ECC0E8C2F0E94090A8C2D0E941F
:102FB000090A8C2F0E946C0A8F73F7019081891780
:102FC00021F08083DD24D39401C0D12C8C2D0E946C
:102FD0006C0A8F73F7019781891719F0878381E055
:102FE00001C080E0D82ADD290E945D0ACF5FFFEF93
:102FF000EF1AFF0AC730A1F610929802C09197020B
:10300000CC2309F47DC00E94771E20919502309157
:103010009602AC01421B530B9A0190939602809347
:1030200095024F3F510509F018F4452B19F102C0E4
:103030002FEF30E01092970210929402E091EC038F
:10304000F091ED03AF01425F5F4F90E030E080818F
:10305000882341F0281718F010829C2F03C0821B90
:1030600080833C2F3196E417F50789F73093970258
:1030700090939402DD23B1F110929402E091EC035D
:10308000F091ED038091980290919702A5E0B4E051
:10309000AF01425F5F4F6EE1E80128813C9132173A
:1030A00079F0308131110CC060832C939881922784
:1030B000282F30E0292B81E0232B09F480E091E0D8
:1030C000319611960F5F1F4FE417F50729F780938C
:1030D00098029093970280919802CDB7DEB7E8E00E
:1030E0000C94DA2F81E0909194029923A1F381113D
:1030F000C3CF0E94771E9093960280939502BCCF17
:10310000D111F7CF80E0EFCFA6E0B0E0EAE8F8E138
:103110000C94C22F0E94771E8C0180919102909195
:1031200092020817190781F019821A820E94771EED
:10313000682F49815A81792F80E090E00E94B00A7F
:1031400010939202009391022696E4E00C94DE2FF5
:103150008091C60287FF11C08091E80082FD05C002
:10316000809156048111F8CF11C08091E8008B77CF
:103170000BC080915604882349F08091E80080FFBD
:10318000F8CF8091E8008E778093E8000895982F1B
:10319000973068F59093E900981739F07091EC003A
:1031A0002091ED005091F00003C0242F762F50E0C5
:1031B00021FD02C09F5FECCF3091EB003E7F30934A
:1031C000EB003091ED003D7F3093ED003091EB004E
:1031D00031603093EB007093EC002093ED0050933E
:1031E000F0002091EE0027FDE5CF80E008958F707C
:1031F0008093E90081E008952091CC023091CD02C6
:103200002617370748F06115710539F42091E80059
:103210002E772093E80001C0B901FC0120E0611580
:10322000710579F1809156048823F1F18530F1F12F
:103230008091E80083FD3CC08091E80082FD2EC0B3
:103240008091E80080FFEBCF2091F3008091F200A5
:1032500090E0922B6115710551F08830910538F49A
:1032600021912093F100615071090196F3CF21E083
:10327000089709F020E08091E8008E778093E800BD
:10328000CECF2111CFCF0AC080915604882361F0A0
:10329000853061F08091E80083FD0AC08091E800EC
:1032A00082FFF2CF80E0089582E0089583E00895E0
:1032B00081E0089508958091A20208959B01909164
:1032C00056049430F1F48F708093E9008FEF909161
:1032D000E800815095FD06C095ED9A95F1F7000044
:1032E0008111F5CF8091E80085FF0BC0BA01C901BB
:1032F00040E050E00E947D2E8091E8008E77809320
:10330000E800089543E050E0BC0184E00E945E19AB
:103310000895CF93DF93EC0180910A01811105C0DC
:1033200048E050E0BE0181E00BC080919D0287FF24
:1033300003C040E284E002C048E081E050E0BE010A
:103340000E945E1980E2FE01A3EAB2E001900D92B4
:103350008A95E1F7DF91CF910895AAE2B0E0E3EB1F
:10336000F9E10C94C32FE6ECF2E08EEC92E02091B0
:10337000F10021938E179F07D1F78091C702833008
:1033800009F463C030F4813071F0823009F49FC0D9
:10339000B6C08A3009F48BC08B3009F46EC0893016
:1033A00009F0ADC020C08091C602813A09F0A7C0E3
:1033B0008091E800877F8093E8008091CA02909115
:1033C000CB02892B21F460E283EA92E003C060E043
:1033D00080E090E070E00E94FC188091E8008B771C
:1033E0008093E8008CC08091C602813209F087C0CA
:1033F0008091CA029091CB02009719F0029709F0D0
:103400007EC08091E800877F8093E8008091E8008B
:1034100082FD05C0809156048111F8CF70C02091C3
:10342000F3008091F20090E0922B029731F48091AA
:10343000F100813011F0863021F48091F100809309
:10344000A2028091E8008B7756C08091C602813A33
:1034500009F055C08091CA029091CB02892B09F0E6
:103460004EC08091E800877F8093E8008091E8005B
:1034700080FFFCCF80910A0139C08091C602813261
:10348000F1F58091CA029091CB02892BC1F5809110
:10349000E800877F8093E8000E94A8188091C80206
:1034A00080930A011092A0020E94782928C080917E
:1034B000C602813221F58091E800877F8093E80081
:1034C0000E94A8188091C9028093A10218C080911F
:1034D000C602813AA1F48091E800877F8093E800DA
:1034E0008091E80080FFFCCF8091A1028093F100E1
:1034F0008091E8008E778093E8000E94A818809160
:10350000E80083FFDFC18091C6029091C702492F76
:1035100050E04A30510508F0D5C1FA01E457FF4F99
:103520000C943031803821F0823809F0CBC108C0CA
:103530008091C3029091C402992389F082600FC0E8
:103540008091CA028F70873008F0BCC18093E90077
:103550008091EB0085FB882780F91092E90090911B
:10356000E800977F9093E8008093F1001092F100BB
:1035700070C1282F2D7F09F0A5C1882319F0823052
:1035800061F0A0C18091C802813009F09BC19330E5
:1035900009F080E08093C4022EC08091C80281119E
:1035A0002AC08091CA028F702FEF280F263008F0B2
:1035B00089C18093E9002091EB0020FF1CC093306B
:1035C00021F48091EB00806214C09091EB00906137
:1035D0009093EB0021E030E0A90102C0440F551F99
:1035E0008A95E2F74093EA001092EA008091EB009E
:1035F00088608093EB001092E9008091E800877F5B
:103600008093E8000E94A8185DC181115BC11091F0
:10361000C8021F778091E3008078812B8093E300BC
:103620008091E800877F8093E8000E94A81880912D
:10363000E80080FFFCCF8091E30080688093E30086
:10364000111102C082E001C083E0809356043AC1A8
:103650008058823008F036C12091C8023091C902EA
:103660002C3D53E0350779F583E08A838AE289832C
:103670004FB7F894DE01139620E03EE051E2E32FCD
:10368000F0E050935700E49120FF03C0E295EF7003
:103690003F5FEF708E2F90E0EA3010F0C79601C0C8
:1036A000C0968D939D932F5F243149F74FBF809132
:1036B000E800877F8093E8006AE270E0CE0101961F
:1036C0000E94FC18B4C08091CA029091CB02432F93
:1036D000552743305105A9F068F44130510509F4EC
:1036E00000C14230510509F0EDC08BE590E0EFE8F4
:1036F000F7E04BC04132510529F14232510589F1C1
:10370000E1C0C901992781309105A1F058F00297D5
:1037100009F0D8C0ECEFF7E0E4918E2F90E0ECEFE9
:10372000F7E030C0EAE4F8E0E4918E2F90E0EAE4BC
:10373000F8E028C0E0E2F8E0E4918E2F90E0E0E2CB
:10374000F8E020C08330910508F0BCC0880F991FB5
:10375000FC01E255FE4F0190F081E02D89E090E000
:1037600014C08330910508F0ADC0FC01EE0FFF1FBF
:10377000E855FE4F0190F081E02DDC01AB55BE4FC6
:103780008C9190E0009709F49DC02091E800277F7C
:103790002093E8002091CC023091CD022817390700
:1037A00008F4C90140E0009789F1209156042223D2
:1037B00009F43DC02530D9F12091E80023FD37C040
:1037C0002091E80022FD2FC02091E80020FFEBCFE0
:1037D0004091F3002091F20030E0342B009759F033
:1037E0002830310540F444914093F100319601971F
:1037F0002F5F3F4FF3CF41E02830310509F040E023
:103800002091E8002E772093E800CDCF4111CDCF55
:103810000AC080915604882351F0853041F0809190
:10382000E80083FD04C08091E80082FFF2CF809120
:10383000E8008B778093E80045C0803809F042C0EB
:103840008091E800877F8093E8008091C502809393
:10385000F1008091E8008E77D3CE811133C0809142
:10386000C8029091C9029927029764F58091E800F7
:10387000877F8093E8001091C8021093C5020E94D0
:10388000A818111106C08091E30087FD02C081E0F5
:1038900001C084E08093560442E061EC81E00E9424
:1038A000C71842E261EC84E00E94C71842E261EC72
:1038B00082E00E94C71842E260EC83E00E94C718D1
:1038C000809156048091E80083FF10C08091E80049
:1038D000877F8093E8008091EB0080628093EB000B
:1038E00005C082E190E0EAEEF7E04FCFAA96E3E070
:1038F0000C94DF2F1F920F920FB60F9211242F936B
:103900003F934F935F936F937F938F939F93AF9367
:10391000BF93CF93DF93EF93FF93C091E900CF70F4
:103920008091EC00D82FD17080FDD0E81092E90092
:103930008091F000877F8093F00078940E94AD1909
:103940001092E9008091F00088608093F000CD2B08
:10395000CF70C093E900FF91EF91DF91CF91BF91BC
:10396000AF919F918F917F916F915F914F913F9117
:103970002F910F900FBE0F901F901895E8EDF0E07B
:1039800080818E7F80831092E2001092DA00109284
:10399000E100A0EEB0E08C9181608C9380818F7704
:1039A000808319BCA7EDB0E08C918E7F8C938081D1
:1039B0008F7E808310929F020895A0E0B0E0E3EE36
:1039C000FCE10C94BE2FC8EDD0E088818F7E888307
:1039D000E7EDF0E080818160808384E082BF81E058
:1039E00080939F0288818E7F888302EE10E0F80129
:1039F00010821092DA0081EEC82ED12CF6011082CE
:103A000088818F77888388818068888388818F7D8B
:103A1000888319BC109256041092C5021092C402F9
:103A20001092C30290EEE92EF12CF70180818B7F7A
:103A3000808388818160888342E060E080E00E942A
:103A4000C718F60180818E7F8083F80180818160B4
:103A50008083808188608083F70180818E7F80836E
:103A6000888180618883CDB7DEB7E8E00C94DA2FD7
:103A70001F920F920FB60F9211242F933F934F93E3
:103A80005F936F937F938F939F93AF93BF93EF93C6
:103A9000FF938091E10082FF09C08091E20082FFE4
:103AA00005C08091E1008B7F8093E1008091DA0076
:103AB00080FF2AC08091D80080FF26C08091DA0064
:103AC0008E7F8093DA008091D90080FF18C080E15A
:103AD00089BD82E189BD09B400FEFDCF81E08093FC
:103AE000560480919F0281110FC00E94BE1C0E944B
:103AF000DD1C8091E20084608093E20005C019BC67
:103B00001092560410929F028091E10080FF17C02E
:103B10008091E20080FF13C08091E2008E7F80934D
:103B2000E2008091E20080618093E2008091D80001
:103B300080628093D80019BC85E080935604809100
:103B4000E10084FF30C08091E20084FF2CC080E15E
:103B500089BD82E189BD09B400FEFDCF8091D80006
:103B60008F7D8093D8008091E1008F7E8093E1006B
:103B70008091E2008F7E8093E2008091E20081607C
:103B80008093E2008091C502882311F084E007C091
:103B90008091E30087FD02C081E001C083E0809353
:103BA0005604809156048091E10083FF27C08091E4
:103BB000E20083FF23C08091E100877F8093E100D2
:103BC00082E0809356041092C5028091E1008E7FBE
:103BD0008093E1008091E2008E7F8093E2008091EB
:103BE000E20080618093E20042E060E080E00E94B9
:103BF000C7188091F00088608093F000FF91EF91EA
:103C0000BF91AF919F918F917F916F915F914F91F4
:103C10003F912F910F900FBE0F901F9018952091FC
:103C2000E4003091E50095E64091EC00842F81702E
:103C300040FF23C08091E80080FD1DC080915604A4
:103C4000882399F0853099F08091EB0085FD11C0B3
:103C50004091E4005091E5002417350729F3915075
:103C600011F09A01E1CF84E0089582E0089583E0A5
:103C7000089581E0089580E008954091E80042FFB2
:103C8000DDCF089578941F920F920FB60F921124F2
:103C90008F939F93AF93BF938091990290919A02D3
:103CA000A0919B02B0919C020196A11DB11D809331
:103CB000990290939A02A0939B02B0939C02BF91A9
:103CC000AF919F918F910F900FBE0F901F901895FD
:103CD0009C014FB7F8948091990290919A02A0911B
:103CE0009B02B0919C024FBF821B930B08952FB78C
:103CF000F8948091990290919A02A0919B02B091C0
:103D00009C022FBF08950895A4E0B0E0EAE8FEE128
:103D10000C94C22F8C018091D90281110AC09E019E
:103D20002F5F3F4F4FEF6FEF0E94FE2B8A818093F2
:103D3000D902F8018481813051F028F0823061F499
:103D40004091D9020AC08091D90240E007C0609139
:103D5000D90240E080E003C040E080E060E00E94E3
:103D6000592BF801848190E0019663E070E00E9495
:103D70001C3184832496E4E00C94DE2FCF93DF93F0
:103D8000EC01E1E6F3E0438162818C810E948B2C9F
:103D90008C818F5F8C83DF91CF910895CF93DF93D8
:103DA000EC01EC81F0E0EA5AF74F4491E1E6F3E0F0
:103DB000628181810E948B2C8C818F5F8C83DF914B
:103DC000CF9108951F920F920FB60F9211248F93E7
:103DD0009F93AF93BF938091EB03811113C08091A8
:103DE000990290919A02A0919B02B0919C024196F7
:103DF000A11DB11D8093990290939A02A0939B02FA
:103E0000B0939C02BF91AF919F918F910F900FBE85
:103E10000F901F90189520910A012223C9F020913C
:103E20009D0227FF15C0262F2695269526952E3113
:103E3000C8F4FC01E20FF11D677081E090E001C061
:103E4000880F6A95EAF78095928189238283089585
:103E5000FC0106962281621301C012823196E81796
:103E6000F907C1F7089520910A012223C1F020919A
:103E70009D0227FF14C0262F2695269526952E31C4
:103E800030F5FC01E20FF11D677081E090E001C0A8
:103E9000880F6A95EAF79281892B82830895FC0145
:103EA00032962FEF30E04191641789F02F3F19F4DB
:103EB000411101C0232F3F5F3630A9F72F3F39F062
:103EC000FC01E20FF11D27FDFA9562830895089524
:103ED000A3E0B0E0EEE6FFE10C94C42F2091E903EB
:103EE0003091EA0328173907A1F09093EA038093F1
:103EF000E903E091E703F091E803309751F024E003
:103F000029839B838A830680F781E02DCE01019669
:103F100009952396E2E00C94E02FA3E0B0E0E3E9FA
:103F2000FFE10C94C42F2091E5033091E60328179C
:103F30003907A1F09093E6038093E503E091E7034E
:103F4000F091E803309751F023E029839B838A8323
:103F50000680F781E02DCE01019609952396E2E0D7
:103F60000C94E02FE091E703F091E803309729F0FB
:103F70000190F081E02D0995089580E008954115A4
:103F8000510511F0FA0109950895CF93DF93EC01E3
:103F90004A855B856E857F850E94BF1F8B810E944D
:103FA000FA148C810E9401150E94081586E0FE011A
:103FB00011928A95E9F7DF91CF910895CF93DF931E
:103FC000EC018D8181FD17C082608D839091E203A9
:103FD0008B81892B8093E2039091A0028C81892BA5
:103FE0008093A0020E940815488559856E857F85BB
:103FF000CE010E94BF1F1092E4031092E3038D8153
:1040000080FD03C0CE010E94C51FDF91CF910895AE
:10401000BC014091DE038091DF03942F981729F1B2
:10402000292F30E0F901EE0FFF1FEA52FC4F0190FB
:10403000F081E02DE617F70799F487E0869FF001FD
:10404000879FF00D1124E45EFE4F81E0848394137A
:104050000CC02F5F3F4F237033272093DE0308955A
:104060002F5F3F4F922F9370D9CF0895EF92FF9219
:104070000F931F93CF93DF9380916D038823D9F122
:10408000C0916C038DE0F82E80916D03C81778F510
:10409000EE24E394EC0EE0926C03D0E0FC9EF00181
:1040A000FD9EF00D1124E259FC4F84818823E9F034
:1040B00087819085892B21F481859285019659F419
:1040C000008111812281338144815581668177810C
:1040D00080850E949629FC9EF001FD9EF00D112422
:1040E000E259FC4F14821092E203CE2DCDCF1092F4
:1040F0006D0310926C03CDB7DEB7E6E00C94DC2FB5
:1041000010926B0310926A0380912101811104C007
:10411000109220011092220108951092E103109252
:10412000E003109223018091DF038093DE030E945D
:1041300080200E9436200895A0E0B0E0E2EAF0E29C
:104140000C94B42FC091DE03E7E0FE2E01E010E0F6
:10415000FDE02F2EEE24E3948091DF03C81709F4CD
:104160007AC0D0E0FE01EE0FFF1FEA52FC4F8081C3
:104170009181F89EF001F99EF00D1124E45EFE4F4E
:104180002481211165C060906D03AEE6B3E020E0AC
:1041900030E0712C5F01261508F058C01B964D9039
:1041A0005C901C97F501808091804FEF5FEF312C80
:1041B000C32CD12CF601EE0FFF1FE80DF91D659100
:1041C00074914616570609F4A601672B11F0339433
:1041D000EFCF4F3FFFEF5F07A9F1B80102C0660FB5
:1041E000771F4A95E2F7762AA801032C02C0440FF4
:1041F000551F0A94E2F741505109672D70E04617A8
:104200005707E9F4229EF001239EF00D1124E25994
:10421000FC4FF89ED001F99EB00D1124A45EBE4F54
:1042200012962D913C9113973087278374E0748305
:1042300010821182928781871596EC9207C014969E
:104240001C9214972F5F3F4F1D96A5CF0E94082008
:104250002196C37081CF0E9436200E948020CDB766
:10426000DEB7E2E10C94D02F80916903882329F016
:1042700082E20E94052A109269030895A0E2B0E04C
:10428000E4E4F1E20C94C42F9FEF99838A83CE017A
:1042900001960E94A72EA096E2E00C94E02F909148
:1042A000610390FF04C09695981748F003C08111F0
:1042B00006C090E0961718F40E94C72D08950E943A
:1042C000B92D0895882311F0FA0101C0FB01099569
:1042D0000895EF92FF920F931F93CF93DF938091F6
:1042E000610380FF08C00AED12E086E1E82E83E05A
:1042F000F82EF8011BC0EAEDF2E086E193E01182AE
:1043000010821282138234968E179F07C1F7EBCF6B
:10431000381708F4832F8383381B3183281B2083AD
:10432000981B92833496EE16FF0641F0928120810D
:104330003181892F291760F7822FEACF8091CE0231
:10434000882381F180910C0190910D01892B51F509
:1043500080910B01882331F165E070E084E80E94D0
:10436000D62E892B19F010920B011AC0CAEDD2E09B
:1043700065E070E088810E94492F65E070E08981E6
:104380000E94492F65E070E08A810E94492F65E014
:1043900070E08B810E94492F2496EC16FD0641F7B0
:1043A0000E949C2F579A8BB18F779BB190682FB743
:1043B000F894E016F10699F0F80131918F0148E088
:1043C0009BB9000000C037FF8BB9330F000000C05D
:1043D00000C000C08BB900C04A9591F7EACF2FBF4B
:1043E0008FE594E00197F1F700C00000CDB7DEB78C
:1043F000E6E00C94DC2FA0E0B0E0E1E0F2E20C9407
:10440000B92FFC018280748081E08483E6E5F8E0C6
:104410009490E5EDF8E0E49100916403069501586D
:1044200010E0000F111F012F1127C6E1D3E02AED84
:10443000C22E22E0D22EAA24AA94B12CE919EE2E83
:10444000F12C22E0281530F080916203888380915E
:1044500063038983711003C01B821A824AC08B8157
:104460008823F9F081508B832FEF829FC0011124A4
:104470006C8170E00E94A02FFB01FF27EA5AF74FE2
:104480008491E82FE9192FEFE29FC0011124B701B1
:104490000E94A02F80916403689FB00111247A8349
:1044A00028C00E943730B5010E941C318017910747
:1044B00004F582E0881588F40E943730B5010E9427
:1044C0001C3188830E943730209163032695622F28
:1044D00070E00E941C31280F29831A8280916403A6
:1044E000843120F0893C18F088EC01C084E18C8391
:1044F0008B8396014A81698188810E94FE2B2596D3
:1045000024E0C20ED11C83E0C136D80709F099CF50
:104510000E946921CDB7DEB7EDE00C94D52FEF9264
:10452000FF920F931F93CF93DF938C01CAEDD2E0DC
:10453000E12CF12CF8018481F7E0EF16F1041CF472
:10454000882339F002C0811104C09E0140916403A8
:1045500002C09E0140E060916303809162030E946B
:10456000FE2B8FEFE81AF80A24969FE0E916F10473
:1045700009F70E946921F801848190E00196817019
:1045800099278483CDB7DEB7E6E00C94DC2FA0E05A
:10459000B0E0EDECF2E20C94BA2FEC014C81042F68
:1045A00010E09801D8010E94F3309B01AC010E94F9
:1045B000BE306B017C01E0E2F0E0E01BF10BA5E511
:1045C000B0E09B01AC010E94BE304B015C019F0139
:1045D000DF010E9436319B01AC010E94C9309B0172
:1045E000AC012C0D3D1D4E1D5F1DC501B4010E9487
:1045F000D130822FF22E99E2921728F093E0299F72
:10460000900111240DC025E530E0281B3109C901B6
:10461000880F991F280F391F37FF02C02F5F3F4FA8
:1046200035952795122F10959AEDC92E92E0D92E27
:1046300000E085E5E82EEF1801FD02C08E2D01C0D7
:104640008F2D9601412F609163030E94FE2B0F5F17
:1046500084E0C80ED11C0F3079F70E9469218C814B
:10466000811102C091E003C0803219F49FEF909352
:104670001B0190911B01890F8C83CDB7DEB7ECE055
:104680000C94D62F0F931F93CF93DF93CAEDD2E0F4
:10469000FE011182108212821382349683E0E63189
:1046A000F807B9F700E010E08091D802082E000C5E
:1046B000990B0817190794F080911A01082E000C25
:1046C000990B8017910754F09E014091640360910B
:1046D0006303809162030E94FE2B04C0198218823A
:1046E0001A821B820F5F1F4F24960F301105E1F6CF
:1046F0000E946921809119019091D802980F90939E
:10470000D80220911A01280F20931A01121614F4CE
:104710009E301CF0819580931901DF91CF911F91FC
:104720000F910895A0E0B0E0E8E9F3E20C94BD2F0A
:10473000FC01828180FF03C0DD24DA9402C0DD2405
:10474000D3940AED12E0C0E0D0E02FE0B22EF801E1
:10475000118210821282138294E0E92EF12CC12C76
:104760008091D7028C0D80312CF06B2D0E940E3180
:10477000892F02C087FD815F082E000C990BC81796
:10478000D90791F4809164038E9DA0018F9D500DF7
:104790001124559547955595479598016091630368
:1047A000809162030E94FE2BCD0CF1E0EF1AF1081C
:1047B000B9F621960C5F1F4FCF30D10541F60E940C
:1047C00069218091D70291E0D91206C0811102C0FF
:1047D0008EE007C0815005C090E00196BE010E94A6
:1047E0001C318093D702CDB7DEB7E9E00C94D92F06
:1047F000EF92FF921F93CF93DF93EC018AEDE82EA7
:1048000082E0F82E10E08C81970140916403609162
:104810006303810F0E94FE2B1F5E84E0E80EF11CF3
:104820001F3F89F70E9469219A818C8190FF02C005
:104830008F5F01C081508C83DF91CF911F91FF90DA
:10484000EF90089560916103669570E04BE050E051
:104850008EE091E00E949D32892B19F481E08093D3
:10486000D6020E94771E9093D0028093CF020895C3
:10487000A6E4B0E0EEE3F4E20C94B82F85B78068CC
:1048800085BF85B7806885BF84B7877F84BF0FB633
:10489000F894A895809160008861809360001092E0
:1048A00060000FBE90E080E80FB6F894809361003E
:1048B000909361000FBE8FE292E19093ED0180939F
:1048C000EC010E94BE1C0E94DD1C8091E20084600D
:1048D0008093E2007894809156048823A1F010918F
:1048E000E9001F709091EC00892F817090FD80E8A5
:1048F000182B1092E9008091E80083FD0E94AD1909
:104900001F701093E90082E084BD93E095BD9AEF9B
:1049100097BD80936E000E94220990E090930D0154
:1049200080930C010E945D0A0E94A30AE2EFF3E06B
:1049300080E094E0A5E0B4E011921D928E179F07ED
:10494000D9F78EE090E00E947C318093EC03909345
:10495000ED03FC010E961192E817F907E1F789EAD9
:104960008093800089E08093810024982C983F9860
:104970008AB18F7C8AB96E98479A8BB180638BB964
:10498000769A8FE090E00E944F306093EE03709330
:10499000EF038093F0039093F10367702FEF629F12
:1049A000B001112475956795759567957727709374
:1049B00089006093880070938B0060938A007093E5
:1049C0008D0060938C000E94990980E090E00E9425
:1049D0005530863E9E4F11F00E94761482E090E0A2
:1049E0000E9447308093130484E090E00E94553089
:1049F00090939E0280939D0283E090E00E94473056
:104A000090E00E94442980910104909102040E9448
:104A10001D0880910004811175C080E090E00E9423
:104A20005530863E9E4F21F00E9476140E94EB2B5B
:104A300088E090E00E944F304B015C0184E290E0FE
:104A40000E944730282F30E040E050E060E070E006
:104A500080E090E000E20E944531282939294A2966
:104A60005B29209361033093620340936303509367
:104A70006403609365037093660380936703909368
:104A800068032E7F89F50E94EB2B88E090E00E945E
:104A90004F306B017C0184E290E00E944730282F68
:104AA00030E040E050E060E070E080E090E00E94A4
:104AB0004531B22FA32FF42FE52F5B01970186011B
:104AC000BC29A12BF22BE32BB0936103A0936203CB
:104AD000F0936303E093640360936503B09266030D
:104AE00080936703909368030E946B2B1092D60209
:104AF0008091610380FF03C086950E94AC2D81E008
:104B00008093000480910104909102040E941D088A
:104B100084E291E09093E8038093E70328E1E22E9A
:104B2000F12C80915604853009F078C000E4B02E55
:104B300003E114E0AA24A39480E1C82E92E1D92EC7
:104B400080915604853009F05AC080915604843013
:104B500009F434C01092D6028091040481110DC072
:104B6000A092040480916103982F917090930304A4
:104B70008E7F809361030E9469211092EB030FB630
:104B8000F894A895E09260000FBEB092600083B7E1
:104B9000817F846083BF83B7816083BF7894889569
:104BA00083B78E7F83BF0FB6F894A895809160007D
:104BB000886180936000109260000FBE8091C402F3
:104BC000882309F4BDCF0E94220990E090930D0143
:104BD00080930C010E945D0A0E94A30AE5E0F4E0C4
:104BE00011920E171F07E1F70E94A817E5E0F4E005
:104BF0008191811140C20E171F07D1F7A1CF1092EA
:104C0000A0020E9478290E94B21F10920404809191
:104C1000030481110E94B02D0E9422240E94A81733
:104C200014E1C12E14E0D12EA5E0B4E0F60191917B
:104C30008D91892724E0E232F20719F08823B9F335
:104C400005C0811103C00E94841854C0B5E08B2EAA
:104C5000B4E09B2E10E0F40171904F01F601A080AA
:104C6000A724B1F100E0BB24B394662463948A2D99
:104C70008B2141F122960FAF229723961FAF2397E6
:104C80000E94771E25969FAF8EAF259726966FAE12
:104C9000269791E0872D8B2109F490E027969FAF0E
:104CA000279722964FAD229723965FAD23972496A0
:104CB0006FAD249725967FAD259726968FAD2697C5
:104CC0000E94B00A0F5FBB0C063089F6F6017082B5
:104CD0001F5FFFEFCF1ADF0A1E3009F0BCCF8FB77E
:104CE000F8944091990250919A0260919B027091C0
:104CF0009C028FBF8091E3039091E403892BE9F03C
:104D000080912204909123040E94681E86389105A8
:104D1000A0F08091E3039091E4039927A4E0880F29
:104D2000991FAA95E1F7FC01EF5CFE4F208122FD5F
:104D300004C0845D9E4F0E94DE1F80912301882362
:104D400041F18091E0039091E103009711F10E94FD
:104D5000681E20916A0330916B0328173907C8F445
:104D60009091DE038091DF03981759F00E949C20F8
:104D700010926B0310926A031092E1031092E00309
:104D800008C00E9436201092E1031092E0030E94B6
:104D9000802080916903882369F00E94771E20910A
:104DA000240430912504821B930B8F3F9F4710F4FE
:104DB0000E9434218091D602882309F4A5C08091F5
:104DC000D502E0916103E695E81BE093D1028230C1
:104DD00059F4F0E0E959F64FE4910E2F10E0FEECA3
:104DE000CF2EFEE1DF2E6BC0863059F4F0E0EC5997
:104DF000F64FE4910E2F10E0EEEBCE2EEEE1DE2E1C
:104E00005EC0893061F4E695F0E0EF59F64FE49129
:104E10000E2F10E078EFC72E73E2D72E50C08F30E0
:104E200061F4E695F0E0E25AF64FE4910E2F10E0BF
:104E300062E9C62E63E2D62E42C0853159F4F0E015
:104E4000E55AF64FE4910E2F10E052E4C52E53E2DE
:104E5000D52E35C08831F9F0833249F4E9E5F9E01F
:104E60000591149144E8C42E4EE1D42E28C084321A
:104E7000C9F08532F1F48E2F63E00E940231E92FF0
:104E8000F0E0EA5AF64FE4910E2F10E03BEFC32E0C
:104E900031E2D32E14C008E210E027ECC22E22E249
:104EA000D22E0DC004EF11E09FE8C92E92E2D92E58
:104EB00006C000ED17E083E8C82E8EE1D82E809161
:104EC000D202882361F01092D2020E94771E909342
:104ED000D0028093CF021092D4021092D3020E948B
:104EE000771EE091CF02F091D0028E1B9F0B8F3F77
:104EF0009F4750F40E0F1F1F1093D0020093CF0254
:104F00008FEC92E0F60109950E94B21F9091260461
:104F1000891769F0809326048FB7F894409199021D
:104F200050919A0260919B0270919C028FBF809178
:104F30005604843009F0F5CD83E08093E900809138
:104F4000E80082FFEECD8091E80085FF22C00E943C
:104F50000F1E81111CC000E210E06E01F1E2CF0EC5
:104F6000D11C08C08091F100F60181936F010150BE
:104F7000110969F08091E80085FDF4CF8091E80087
:104F80008B778093E8000E940F1E882399F391E0AD
:104F900001C090E08091E8008B778093E80099232E
:104FA00009F4BFCD89A1863009F450C0A0F4823045
:104FB00009F4B7CD58F4882301F1813009F057C0C6
:104FC0008093530484E089838EEF4BC0843011F1C9
:104FD0008530E1F14CC08930C9F128F4873089F17E
:104FE0008830A1F144C08A3099F18E3F09F03FC06A
:104FF000898394E09A838B8335C019828CE0E4EB3B
:10500000F1E0DE01129601900D928A95E1F78EEFA4
:105010008D8728C080915304882309F482CD8AA10A
:10502000811104C08BA10E9422297BCD81E090E0F8
:105030000BA002C0880F991F0A94E2F70E94FB2878
:1050400070CD81E08093550485E012C084E010C0EB
:1050500081E09AA1911101C080E0809355049BE00A
:1050600099838A83CE0101960E94A72E5ACD8FEF95
:105070000E943E2156CDC9BCD9BC09B400FEFDCF6B
:105080008091D8008F7D8093D8008091E00082606D
:105090008093E0008091E00081FDFCCF1092A0029F
:1050A0000E9478294DCDA0E0B0E0E9E5F8E20C944B
:1050B000BD2F7C01009101041091020480918F02A8
:1050C00090919002082B192BCFE0D0E0CC24C39410
:1050D000D12CC6010C2E02C0880F991F0A94E2F74A
:1050E00080239123892B21F4219798F7B12C09C0B3
:1050F000BC2EB7018C2F0E943C130E9459130197BC
:1051000099F38B2DCDB7DEB7E9E00C94D92FCF936F
:10511000DF93EC010E945328BE010E943C130E94C1
:105120005913DF91CF9108959E3078F5863068F558
:10513000E82FF0E086E0989FE00DF11D11249E2FEE
:10514000977083E0F695E7958A95E1F7EE0FFF1FDC
:10515000EE0FFF1FE95DFB4F40E050E080E0219142
:1051600030E0092E02C0369527950A94E2F72170A7
:105170003327042E01C0220F0A94EAF7822B4F5FD7
:105180005F4F4430510559F7089580E008959E30EF
:1051900088F5863078F5E82FF0E086E0989FE00DFE
:1051A000F11D11248E2F877051E001C0550F8A9593
:1051B000EAF783E0F695E7958A95E1F7EE0FFF1F92
:1051C000EE0FFF1FE95DFB4F20E030E070E0408113
:1051D000CB01022E02C0969587950A94E2F7817062
:1051E000819584278523842781932F5F3F4F243027
:1051F000310569F70895A0E2B0E0E1E0F9E20C942E
:10520000C22F0E941D088C0180915304882391F0C5
:105210008FE39CE90197F1F700C0000085E08983E6
:10522000C8010E94AF078A838EEF8B83CE0101965F
:105230000E94A72E1093020400930104A096E4E0BC
:105240000C94DE2F21E030E002C0220F331F8A953C
:10525000E2F7209530958091010490910204822319
:1052600093230E94FB28089521E030E002C0220F22
:10527000331F8A95E2F78091010490910204822BFA
:10528000932B0E94FB2808959093900280938F02A5
:10529000089592959F70963079F010F4925001C065
:1052A0009A50923068F4803F69F018F4883E40F4D8
:1052B00009C0843F29F406C0883E20F0813F11F0E8
:1052C00080E0089581E00895FC012481222371F09B
:1052D00087819085009719F00E94591304C080813E
:1052E00091810E9487280E944929089580E00895AD
:1052F00080910A01882331F080919D0287FF02C0CE
:105300008EE101C086E0ECEFF1E0DF011D928A95AD
:10531000E9F780E090E00E948D1F80E090E00E941D
:10532000681F1092E2030E9408150895A2E1B0E000
:10533000ECE9F9E20C94C22F0A871B872C873D8782
:105340004E875F87688B798B8A8BCE010A960E9485
:10535000EE1581113DC089E0FE013A96DE011196FD
:1053600001900D928A95E1F76E85662389F120916F
:10537000230230E0C90101968770992740916C02A1
:1053800050E084179507A1F06D8399E0929FD001BA
:10539000939FB00D1124AC5DBD4FFE01319601907D
:1053A0000D929A95E1F7809323020E948B1510C00D
:1053B0001092A0020E9478291092230210926C028F
:1053C000EAE1F2E089E0DF011D928A95E9F719C070
:1053D00019E080916C0290912302891791F0189F37
:1053E000C00111248C5D9D4F0E94EE15882349F069
:1053F00080916C0290E001968770992780936C02EF
:10540000E8CF6296E4E00C94DE2F882321F00E941E
:10541000FA140E9408150895882339F09091E20348
:10542000892B8093E2030E9408150895882321F0B8
:105430000E9401150E9408150895882339F0909163
:10544000A002892B8093A0020E940815089588234A
:1054500009F455C0682F823869F40E94B21F81FF99
:105460004EC069E38AEF91E00E94331F0E94081545
:1054700069E30EC0833899F40E94B21F80FF3FC0D9
:1054800063E58AEF91E00E94331F0E94081563E5EF
:105490008AEF91E00E940B1F0E940815089584383E
:1054A00069F40E94B21F82FF2AC067E48AEF91E08C
:1054B0000E94331F0E94081567E4EACF8CEF860F25
:1054C000813A30F380E2860F883048F4677081E0DB
:1054D00001C0880F6A95EAF70E940115DDCF8BE5C0
:1054E000860F833028F480E090E00E948D1F08959D
:1054F000685A6B3120F480E090E00E94681F0895A4
:10550000CF93882309F4B4C0C82F8238B1F40E9425
:10551000B21F81FDADC069E38AEF91E00E94331FA5
:105520000E9408152FEF87EE93E0215080409040B5
:10553000E1F700C0000069E317C08338E1F40E947E
:10554000B21F80FD95C063E58AEF91E00E94331F92
:105550000E9408152FEF81EE94E02150804090408A
:10556000E1F700C0000063E58AEF91E00E940B1FA5
:105570000E9408157DC08438B1F40E94B21F82FDDC
:1055800077C067E48AEF91E00E94331F0E940815FC
:105590002FEF81EE94E0215080409040E1F700C071
:1055A000000067E4E1CF8CEF8C0F813AB8F5809171
:1055B0000A018823E1F080919D0287FF18C0EC2F3B
:1055C000E695E695E695F0E0E650FE4F8281282FBD
:1055D00030E04C2F477081E090E002C0880F991FA7
:1055E0004A95E2F782239323892B59F411C0ECEFFB
:1055F000F1E08191C81729F022E0E230F207C9F703
:1056000007C06C2F8AEF91E00E940B1F0E940815C3
:105610006C2F8AEF91E00E94331FAACF80E28C0F9B
:10562000883068F4C77081E090E001C0880FCA95A7
:10563000EAF79091A002892B8093A00299CFEBE525
:10564000EC0FE33040F4F0E0E459FE4F808190E04D
:105650000E948D1F0DC0C85ACB3150F4EC2FF0E0E2
:10566000EE0FFF1FE159FE4F808191810E94681F5C
:10567000CF9108951F93CF93DF93182F893319F09B
:10568000C0E0D0E002C0C0E5D0E0812F0E94802AB7
:10569000209741F08FE99FE00197F1F700C00000EB
:1056A0002197F6CF812F0E94272ADF91CF911F915A
:1056B00008959091610390FF0DC0EAEDF2E08183BF
:1056C000608342831382349693E0E631F907B9F799
:1056D0000E946921089580916103282F269530E06A
:1056E0002115310519F48170826005C02B32310516
:1056F00024F081708465809361030895A0E0B0E098
:10570000E4E8FBE20C94BA2F49015A016B017C01D9
:105710000E946B2B8401A4016A2D7B2D88E090E010
:105720000E947D3094014A2D5B2DB601C70100E235
:105730000E946031622F84E290E00E946B30CDB70E
:10574000DEB7ECE00C94D62F80916503882319F026
:1057500081508093650320916103309162034091F1
:1057600063035091640360916503709166038091B7
:105770006703909168030E947E2B089580916503D2
:10578000833018F48F5F809365032091610330911B
:1057900062034091630350916403609165037091CB
:1057A000660380916703909168030E947E2B0895A1
:1057B000E1E6F3E020812E7F208331814281538115
:1057C00064817581868197810E947E2B1092D6021A
:1057D0000E9469210895E1E6F3E023E0208311822D
:1057E0008FEF828383831482758130E04FEF5FEF08
:1057F00060E0868197810E947E2B0895A0E0B0E052
:10580000E4E0FCE20C94BC2FE82EF62EE901E42F34
:10581000F0E0611106C0E559F64FE4914E2F2E2FAE
:1058200071C0062F10E0E559F64F4491F42FC42EB5
:10583000D12C26E0829FC00111242FEF30E0B90166
:105840000E94A02F5BEA5603C001579F900D1124C0
:105850008E0D911D8E0D911D582F550F580FD9018A
:10586000A01BB10BAC9DC001AD9D900DBC9D900DDA
:105870001124E92FF59ED0011124AB2FBB2779010C
:10588000EA1AFB0AEC9CD001ED9CB00DFC9CB00D1B
:1058900011245901A51AB108A09E7001A19EF00C17
:1058A000B09EF00C1124EF2CFF242E193F092C9DE3
:1058B00080012D9D100D3C9D100D1124212F623073
:1058C000710591F048F461157105E1F061307105E1
:1058D000B9F4242F4B2F16C06430710569F040F0E5
:1058E0006630710579F00CC0242F492FE12F0AC0D2
:1058F000492FEF2F2B2F06C0292FE42F412F02C055
:10590000292FEB2F49832883EA831B82CDB7DEB78B
:10591000EAE00C94D82FA4E0B0E0E1E9FCE20C94BA
:10592000C42F9091610390FF0AC09E012F5F3F4FEB
:105930000E94FE2B4B8169818A810E94592B2496FB
:10594000E2E00C94E02FA4E0B0E0E9EAFCE20C9481
:10595000B72FF82E762EE42E622E9091610390FFE1
:105960006CC0E92FE695AE2FB0E0A054BE4F8C91ED
:105970008093D5029E7F923061F49E012F5F3F4F4E
:105980008F2D0E94FE2B4B8169818A810E94592BA9
:105990003DC0823019F4E090640338C0863019F4B9
:1059A000F090620333C08930D9F3893179F5E95138
:1059B0008E2F8170582EE695F0E0E559F54FE49171
:1059C0000E2F10E08AEDC82E82E0D82EA12CB12C2B
:1059D0009FE0892E912CC501B4010E94A02F8F2D2C
:1059E000511002C0860F01C0861B96014E2D672DF7
:1059F0000E94FE2BA00EB11E84E0C80ED11C86E1D1
:105A0000C81683E0D80639F70E946921F092620334
:105A100070926303E0926403662079F02091610341
:105A200060916503709166033F2D472D5E2D809137
:105A30006703909168030E947E2B2496EFE00C94FC
:105A4000D32FE1E6F3E043812CE0421B08F440E071
:105A500021E0628181810E94A32C0895E1E6F3E0B8
:105A600043812CE0420F08F44FEF21E062818181F5
:105A70000E94A32C0895E1E6F3E0628121E1621B1C
:105A800008F460E021E0438181810E94A32C089505
:105A9000E1E6F3E0628121E1620F08F46FEF21E0BB
:105AA000438181810E94A32C0895E1E6F3E0818186
:105AB00021E0438162818C500E94A32C0895E1E68D
:105AC000F3E0818121E043816281845F0E94A32C05
:105AD00008959091610390FF3EC09170811102C0C2
