:100000000C94B5030C94D2030C94D2030C94D20339
:100010000C94D2030C94D2030C94D2030C94D2030C
:100020000C94D2030C94D2030C94CE140C941014A0
:100030000C94291E0C94D2030C94D2030C94D2037A
:100040000C94D2030C94D2030C94D2030C94D203DC
:100050000C94D2030C94E81D0C94D2030C94D2039C
:100060000C94D2030C94D2030C94D2030C94D203BC
:100070000C94D2030C94D2030C94D2030C94D203AC
:100080000C94D2030C94D2030C94D2030C94D2039C
:100090000C94D2030C94D2030C94D2030C94D2038C
:1000A0000C94D2030C94D2030C94D203FA07FA07EF
:1000B0002C082C0896083C0A3C0A3C0AB208900915
:1000C000A109A10928124F12F8134F12F8139B121D
:1000D000BE12F813B313C313131B161B251B191BD6
:1000E0001E1B231B211BB11CB41CB71CBA1CBD1C3E
:1000F000C01CC31C00000000000000000000000045
:1001000000000000000000000000000000000000EF
:1001100000000000000000007E0F00D4FFFFFFC7BA
:100120000000007800000000000000002A2B2800DA
:100130000000000000000000000000000000002996
:10014000000000002C1E3420212224342627252ED6
:10015000362D3738271E1F2021222324252633330E
:10016000362E37381F0405060708090A0B0C0D0E3A
:100170000F101112131415161718191A1B1C1D2F06
:100180003130232D350405060708090A0B0C0D0E26
:100190000F101112131415161718191A1B1C1D2FE6
:1001A0003130354C01012901043130307C01012B03
:1001B00001043130307C01012901043130307C01EF
:1001C000012B01043130307C0101290029002B0072
:1001D000E000E100010000001E00140004001D000A
:1001E000AE5D4D001F001A0016001B000100E30069
:1001F000200008000700060001000254210015003D
:100200000900190002544A00220017000A000500E4
:10021000000065640100500100004A000000E30096
:1002200001004F1100004D000000E20023001C00FF
:100230000B0011000000E600240018000D00100063
:1002400001544B0025000C000E00360050002C41DC
:10025000260012000F00370051002C002700130069
:100260003300380052004E0035022A0028003400C6
:100270004F000000B25D2B020100010001000000F0
:10028000010001002D020100010001000100310206
:100290003100010001000100010001002E020100F7
:1002A00001000100010001002D000100010001001A
:1002B000010001002E00010000000100010001000A
:1002C0000000010000000100010001000000010029
:1002D0000000010001000100010001000000010018
:1002E00001002F002F022602010001000100300052
:1002F000300227020100010001000100010001009D
:1003000001000100010001000100010001000100E5
:1003100001000100010001000100000001000100D6
:10032000E000E10001000000010001000100010007
:1003300001000100010001000100010001000100B5
:1003400001000100010001000100010001000100A5
:100350000100010001000100010001000100010095
:100360000000010001000100000001000000010088
:100370000100010000000100000001000100010077
:1003800050000100000001000100010051000100C7
:100390000100010001000100520001000100010004
:1003A000010001004F0001000100010001000100F7
:1003B0000100010001000100010001000100010035
:1003C0000100000005010980A101850319012AB778
:1003D00000150126B700950175108100C0050C09B4
:1003E00001A101850419012AA002150126A0029588
:1003F0000175108100C005010906A10185060507E8
:1004000019E029E715002501950875018102050706
:10041000190029EF1500250195F0750181020508E5
:100420001901290595057501910295017503910141
:10043000C00660FF0961A1010962150026FF009551
:1004400020750881020963150026FF0095207508B4
:100450009102C005010906A101050719E029E71568
:100460000025019508750181029501750881010536
:1004700007190029FF150026FF0095067508810061
:100480000508190129059505750191029501750366
:100490009101C009025B00030100A0FA09040000F9
:1004A000010301010009211101000122400007059B
:1004B0008103080001090401000203000000092172
:1004C0001101000122220007058203200001070517
:1004D00003032000010904020001030000000921B8
:1004E00011010001226D00070584032000011201A3
:1004F0000002000000089732754901000102000166
:1005000022034500720067006F0044006F0078000E
:10051000200045005A0020005300680069006E006A
:100520006500000028035A005300410020005400D9
:100530006500630068006E006F006C006F0067006C
:10054000790020004C006100620073000000040389
:10055000090400047F3F1F643214643214783C1E87
:100560001E140A052223252628292A2C2D2F303255
:10057000333536383A3B3D3E4042434547494A4C85
:100580004E5051535557595A5C5E606264666869B3
:100590006B6D6F71737577797B7D7F8183858789BB
:1005A0008A8C8E90929496989A9C9E9FA1A3A5A7C0
:1005B000A8AAACAEAFB1B3B4B6B8B9BBBCBEBFC1EC
:1005C000C2C3C5C6C7C9CACBCCCDCED0D1D2D2D377
:1005D000D4D5D6D7D7D8D9D9DADADBDBDBDCDCDC8B
:1005E000DCDCDDDDDDDDDCDCDCDCDCDBDBDBDADA4E
:1005F000D9D9D8D7D7D6D5D4D3D2D2D1D0CECDCCC5
:10060000CBCAC9C7C6C5C3C2C1BFBEBCBBB9B8B6D9
:10061000B4B3B1AFAEACAAA8A7A5A3A19F9E9C9A64
:1006200098969492908E8C8A89878583817F7D7B32
:1006300079777573716F6D6B6968666462605E5C13
:100640005A5957555351504E4C4A494745434240D9
:100650003E3D3B3A3836353332302F2D2C2A29286F
:1006600026252322000101010101010101010202ED
:100670000202020202020203030303030303030450
:10068000040404040404050505050506060606061B
:10069000070707070708080808090909090A0A0AD5
:1006A0000B0B0B0C0C0C0D0D0D0E0E0E0F0F0F1077
:1006B0001011111112121313141415151616171701
:1006C000181819191A1A1B1B1C1D1D1E1E1F20206D
:1006D000212222232424252626272829292A2B2CB7
:1006E0002D2D2E2F30313232333435363738393ADA
:1006F0003B3C3D3E3F404142434445464748494AD2
:100700004C4D4E4F50515354555658595A5B5D5E9F
:100710005F616264656668696B6C6D6F707273753A
:1007200077787A7B7D7E8082838587888A8C8E8F9E
:1007300091939596989A9C9EA0A2A3A5A7A9ABADCC
:10074000AFB1B3B5B7BABCBEC0C2C4C6C9CBCDCFBA
:10075000D1D4D6D8DBDDDFE2E4E7E9EBEEF0F3F568
:10076000F8FAFDFFFFAA7F55400011241FBECFEF0E
:10077000DAE0DEBFCDBF11E0A0E0B1E0E4E4F3E5F4
:1007800002C005900D92A839B107D9F723E0A8E976
:10079000B1E001C01D92A533B207E1F70E942E1609
:1007A0000C94A0290C940000A5E2B0E0EAEDF3E07F
:1007B0000C94D626FC018081918123813481232BE6
:1007C00031F09F3F31F491E08F3F19F403C091E085
:1007D00001C090E090FD7DC67F0185E0DE0191962D
:1007E00001900D928A95E1F7D70112962C9189A17B
:1007F0009AA1222349F00E947923182F682F89A1FA
:100800009AA10E94F72303C00E94C223182F69A156
:100810007AA1812F0E94B20A8C0180915102882313
:1008200009F44FC0F70182818111FFC1E0919A0163
:10083000E330A0F481E08E0F80939A01F0E0EE0F98
:10084000FF1FE157FD4FD7018D919C9191838083CC
:1008500082E08983CE0101960E940216BFEFE3ED8C
:10086000F0E3B150E040F040E1F700C000008091BB
:100870009A01833009F0D9C110929A01E5E9F2E0BA
:10088000AFE8B2E08BE992E0318111962C9111979B
:10089000321330C030812C9132132CC03296129614
:1008A0008E179F0789F784E0898381E08093520245
:1008B0008EEF8A8310925102CE0101960E94021699
:1008C000B4C1809152028823D1F0D70112968C9145
:1008D000882311F086E001C087E08983F7018081D9
:1008E0008A8381818B838EEF8C83CE0101960E9457
:1008F000021605C083E0898310925202D9CF0F3AC5
:10090000FDE51F0709F043C0D70112968C9188239B
:1009100009F429C19091560281E0890F8770987F70
:10092000853020F4892B8093560202C090935602A2
:10093000809156028770BFEF8B9FC001112495955F
:10094000879595958795992790938900809388003E
:1009500090938B0080938A0090938D0080938C00FD
:10096000409156025091570260915802709159027D
:100970008FE090E00E94AD276091690270916A0259
:1009800080916B0290916C020E94F81AECC0013BBE
:10099000EDE51E0709F4D0C0023BFDE51F0731F06D
:1009A000003B2DE5120709F4CEC0D9C0D70112963D
:1009B0008C91882309F4D7C024EAC22E21E0D22EDC
:1009C0003AE0432EF6012491222309F4CCC02130D1
:1009D00009F04EC031968491813069F4F2E0CF0E77
:1009E000D11CF6018491893319F460E570E09CC054
:1009F00060E070E099C0823041F4F2E0CF0ED11C8B
:100A0000F60184910E94342593C0833041F4F2E0D2
:100A1000CF0ED11CF60184910E94082589C0843034
:100A200009F085C0F2E0CF0ED11CF601249180E0E0
:100A300090E030E0205331092A30310570F4489EAF
:100A4000A001499E500D1124C901840F951FFFEF8D
:100A5000CF1ADF0AF6012491ECCF009709F468C0A1
:100A6000AFE9BFE01197F1F700C000000197F5CFA3
:100A7000E22FF0E0EC5DFE4F5490822F8695869534
:100A8000869590E0FC01EC5EFE4F64902770712C1F
:100A9000022E02C0759467940A94E2F7B1E06B22CB
:100AA0007724FC01EC5FFE4F8490912C022E02C053
:100AB000959487940A94E2F7E1E08E229924FC0150
:100AC000EC50FF4FA490B12C02C0B594A7942A9586
:100AD000E2F7F1E0AF22BB246114710419F081EE5A
:100AE0000E9434258114910409F4B8C086EE0E9456
:100AF000342529E3521609F4ABC060E070E0852D7F
:100B00000E94D4258114910419F086EE0E940825D4
:100B10006114710419F081EE0E940825A114B1043A
:100B200039F060E070E08CE20E94D42501C06F01D2
:100B30003FEFC31AD30A46CFD70112968C91882370
:100B400009F473C03CC0F7018281882309F46DC0A9
:100B500090919B0181E0892780939B0166C00E3AAA
:100B60002DE51207A9F18091E902882309F482C1D9
:100B7000D0902302C09015020E941D1E88579C4EE3
:100B800090938D0280938C02F701828181116FC056
:100B90008091230282720D3C2CE5120709F44EC1AC
:100BA00008F4CAC0023D3CE5130709F454C160F5DE
:100BB0000F3C9CE5190709F448C108F002C181E027
:100BC00004C081608093E30286950E9453232DC068
:100BD000D70112968C91882341F18091E9028823F4
:100BE00019F00E94B31E21C0109223020E94D10C62
:100BF0000E941D1E88579C4E90938D0280938C02FC
:100C000081E08093E90211C0053DFCE51F0709F46E
:100C100028C108F4E3C0063D9CE5190709F426C184
:100C20000F35ADE51A0709F099C18091F40187707D
:100C300009F44FC4D70112968C91882309F449C452
:100C40008091F60282FF45C482E00E94330D41C4C8
:100C500060E570E089E30E94D42557CFF9E35F1285
:100C60004CCF60E570E089E30E94D42551CF8C2DF4
:100C70008D298D7909F05DC00115F5E51F07B0F4E8
:100C8000011523E5120708F0F5C0011530E513073B
:100C900040F4011580E4180710F5063E110539F5FA
:100CA000E9C0011592E5190710F5E4C00115A9E5A1
:100CB0001A0750F40115B8E51B0708F0DBC0043132
:100CC000E5E51E07A1F4D6C0C801905681159042F3
:100CD00070F4D70115968C91807F31F42AC0F7010A
:100CE0008581807F09F4C6C0C801992701C0C80169
:100CF0001092E8028832910538F48E31910508F09F
:100D0000B7C00497B0F011C08D32910571F020F496
:100D10008A9709F4ADC00DC08C34910509F4A8C0C0
:100D20008D32924009F4A4C004C082E08093E802AE
:100D30009FC00E94B31E9EC0073C9CE5190709F4A2
:100D400069C0D8F4043CBCE51B0709F459C030F471
:100D5000033CFCE51F0709F44CC000C1053C2CE531
:100D6000120709F452C0063C3CE5130709F0F6C02F
:100D70004AEF52E264E073E265C00A3C9CE5190761
:100D800009F452C078F4083CBCE51B0709F447C0DD
:100D9000093CECE51E0709F0E1C04DEE52E260EEC1
:100DA00072E250C00B3CFCE51F0709F442C00C3C4A
:100DB0002CE5120709F0D2C04BE551E26DE671E275
:100DC00041C0003DBCE51B0709F442C0013DECE514
:100DD0001E0709F0C3C06EE089E045C0033D3CE555
:100DE0001307E1F1043D8CE5180709F0B7C088E16D
:100DF000ECCE8091E30280FFE4CE0E947F2115CFEC
:100E000047E553E261E673E21DC041E653E267E560
:100E100073E218C044E053E26AEF72E213C040EE9E
:100E200052E26DEE72E20EC046EC52E263ED72E207
:100E300009C043ED52E266EC72E204C04DE651E2B5
:100E40006BE571E20E94F31EF0CE65E082E00BC01C
:100E500068E086E008C064E18FE005C067E185E1F5
:100E600002C062E289E10E94E01EDFCE83E2ADCEE5
:100E70000E94DE0CD70112968C91882309F488CE4B
:100E80000C35BDE51B0709F464C060F40115FCE5F1
:100E90001F07A9F00F3D2CE5120709F05FC00E9463
:100EA000540C4CC00E353DE5130709F44AC008F454
:100EB00052C0093A9DE5190709F440C04FC010928D
:100EC00023020E94E324AFEFB4E3ECE0A150B04072
:100ED000E040E1F700C00000F89481E08093E0007A
:100EE00080E28093D8001092C9008FE19EE40197C0
:100EF000F1F700C000001DBA109268001CBC10BEC3
:100F00001FBA10927A0010926E0010926F00109229
:100F10007100109272001092C9001092BC0014B8B7
:100F200017B81AB81DB810BA1092BC0015B818B886
:100F30001BB81EB811BA0C94003F77CE0E94E01A7D
:100F400074CE8091F60282FB882780F991E0892790
:100F500003C081E001C080E00E94500DF701828152
:100F600000811181882349F0C8010E947923D82E7D
:100F7000682FC8010E94F72304C0C8010E94C22341
:100F8000D82EB8018D2D0E94B20A0E94CB0A8C0186
:100F9000982EF701D280A580A2949FE0A92280918B
:100FA000F4018770B9F0DD20A9F0812F807F8034B3
:100FB00021F080E2800F883068F08091F60282FF95
:100FC00009C082E00E94330D8091F4018770CC2427
:100FD000C3948111C12CB12EB2948FE0B8228B2D15
:100FE00090E08C30910508F047C2FC01EA5AFF4FAF
:100FF0000C944428812F807F1F70882311F0129554
:10100000107FDD20B9F0112309F423C280E2800FA4
:10101000883010F0911006C080912302182B109395
:10102000230205C08091E802182B1093E8020E9469
:10103000DE0C0FC2802F0E940825112309F41CC268
:10104000005E083078F1992069F110958091E802EE
:1010500018231093E80229C0812F807F1F708032EF
:1010600011F01295107F992021F0F1E09F16D9F12F
:1010700047C08091F60282FD1BC0DD2069F011237C
:1010800039F080912302182B109323020E94DE0C6A
:1010900080E00E943425F0C180E00E9408251123E1
:1010A00009F4EAC1812F0E94D70C0E94DE0CE4C132
:1010B000DD2081F080911502AA2051F001E0A012FC
:1010C00007C0182B181709F4D7C110931502D4C103
:1010D000812B10C0AA2021F021E0A21609F4CCC176
:1010E0000E94D10C1FC0DD2041F031E03A1508F418
:1010F000C3C1812F0E94FE24BFC1A110BDC112C077
:10110000DD2019F0AA20A9F3A4C1AA2059F00933BF
:1011100009F0AFC18FEF97EEA3E081509040A0405F
:10112000E1F7A5C1812F0E94F724A6C1812F8695E2
:101130008695837019F0813059F09EC1DD2019F039
:10114000C801937002C080E090E00E94901E9AC196
:10115000DD2019F0C801937002C080E090E00E9489
:101160007A1E90C1812F837009F069C0D11088C1A7
:10117000902F929596959770990F990F802F8F7059
:10118000882E912CA12CB12C092E04C0880C991CFE
:10119000AA1CBB1C0A94D2F704FF12C04FE050E017
:1011A00060E070E004C0440F551F661F771F9A95DA
:1011B000D2F7DB01CA0180959095A095B09503C048
:1011C00080E090E0DC0116951695412F4370423087
:1011D00019F1C8F40091160210911702209118021B
:1011E00030911902413059F088299929AA29BB293F
:1011F000BC01CD0160237123822393230AC0802A7E
:10120000912AA22AB32ABC01CD01682979298A2909
:101210009B290E94B82434C188299929AA29BB296D
:1012200000911602109117022091180230911902B4
:10123000BC01CD016027712782279327EACFDD20EB
:1012400019F0812F817001C08695882309F418C197
:10125000902F929596959770990F990F802F8F7078
:10126000882E912CA12CB12C092E04C0880C991C1D
:10127000AA1CBB1C0A94D2F704FF12C04FE050E036
:1012800060E070E004C0440F551F661F771F9A95F9
:10129000D2F7DB01CA0180959095A095B09503C067
:1012A00080E090E0DC0116951695412F43704230A6
:1012B000D9F068F50091690210916A0220916B02E1
:1012C00030916C02413059F088299929AA29BB290B
:1012D000BC01CD0160237123822393231EC0802A89
:1012E000912AA22AB32A13C088299929AA29BB299D
:1012F0000091690210916A0220916B0230916C0298
:10130000BC01CD01602771278227932706C0BC014D
:10131000CD01682979298A299B290E942D24B0C0F2
:101320001F70DD2039F0812F0E949624802F0E94AB
:10133000FE24A6C0802F0E94F724812F0E947024D3
:101340009FC0802FB2EF9B1609F441C0B91538F049
:10135000E0EF9E1659F0F1EF9F16A1F175C023EF53
:101360009216E1F134EF931649F16EC0DD2009F1D8
:10137000A11082C01F7181E090E0A0E0B0E0AC015C
:10138000BD0104C0440F551F661F771F1A95D2F781
:101390008091690290916A02A0916B02B0916C02F7
:1013A0008A019B01082719272A273B27C901B80171
:1013B00029C021E02A1508F45FC0DCCF8091F60235
:1013C00082FD23C0DD2029F0812F8F7130C0DD2008
:1013D000D9F3812F8F710E9470244EC0DD2079F0E7
:1013E0001F7181E090E0A0E0B0E0BC01CD0104C03D
:1013F000660F771F881F991F1A95D2F703C060E008
:1014000070E0CB010E942D2437C0DD2099F01F71C0
:10141000812F0E9496248091F60282FF07C038E057
:10142000139FC001112483608093F401812F0E94D7
:10143000962422C081E00E94330D81E08A15E0F4F9
:1014400082E00E94330D18C0DD2029F0AA2009F4A3
:10145000BBCF802F1ECEAA2009F4BBCF893349F41D
:101460009FEFA7EEB3E09150A040B040E1F700C07D
:101470000000802F0E94082588EF8B0D843010F427
:101480000E94A61ECC20A9F08091F40180FD11C01D
:10149000F70112828595859585950E949624C7014E
:1014A0000E94D4038091F4018595859585950E94CD
:1014B000702485E0F701DE01119601900D928A9566
:1014C000E1F709811A81C8010E94C223B8010E9474
:1014D000B20AA596E0E10C94F22680E0089590917E
:1014E000F50292FF0DC0282F2871283019F4877F4C
:1014F000846006C0282F2471243011F48B7F88600B
:1015000093FF0DC0282F2871283119F4877E84613C
:1015100006C0282F2471243111F48B7E886120911C
:10152000F60220FF0DC0382F3871383019F4877F4C
:10153000816006C0382F3171313011F48E7F8860A0
:1015400021FF0DC0282F2871283119F4877E816171
:1015500006C0282F2171213111F48E7E886194FDFF
:10156000877E08957E30A0F4663090F494E5899FDC
:10157000F001112486E0789FE00DF11D1124E60FA3
:10158000F11DEE0FFF1FE453FE4F859194910895D6
:1015900080E090E00895CF93DF938238910569F160
:1015A000B0F48133910509F46FC048F48932910594
:1015B00009F465C08A32910509F46BC08AC085338D
:1015C000910509F457C089339105B9F082C0833E73
:1015D000910571F138F4803E9105B1F0823E91059C
:1015E00011F177C0863E9105B9F1873E9105C9F1A9
:1015F000843E910509F06DC024C02091F50220FDC4
:1016000053C021FD51C065C08091F50280FD46C0E8
:101610008091F60280FF48C08091F50284FD3FC1B1
:1016200083EE90E03EC18091F50282FF3AC0F4CF94
:101630008091F50282FD35C08091F60280FD34C0B4
:10164000EBCF8091F60281FF35C08091F50284FDD9
:1016500026C187EE90E025C18091F50283FF27C067
:10166000F4CF8091F50283FD22C08091F60281FDC6
:1016700021C0EBCF8091F50285FD1FC021C0809174
:10168000F50285FD1DC019C08091F50286FD1BC0C5
:101690001DC08091F50286FD19C015C089E390E058
:1016A00000C182EE90E0FDC080EE90E0FAC086EED0
:1016B00090E0F7C084EE90E0F4C089E290E0F1C0E1
:1016C00085E390E0EEC08AE290E0EBC081E390E039
:1016D000E8C0811532E5930708F069C0811541E53E
:1016E000940728F0982F8827816F906ADAC0883E87
:1016F000910568F5803E910508F0D3C0883A9105C0
:10170000B8F4853A910548F0855AE82FF0E0E95D94
:10171000FE4F808190E09064C4C08130910509F44F
:10172000BBC008F4BCC08430910508F4B8C0B9C08F
:101730008F3B910508F0B3C0885AE82FF0E0EE0F18
:10174000FF1FE65DFE4F808191819464AAC08115E0
:1017500020E59207F0F09C0174E0369527957A9584
:10176000E1F7922F9370482F437021E030E002C0E0
:10177000220F331F4A95E2F73C68392B8F70982F60
:101780009695969540E2949FC0011124822B932B4D
:1017900088C0811530E4930718F09F70906A81C06B
:1017A0009C013A9521153F4108F47BC078C0EC01BB
:1017B000C11586E5D807E8F5C11525E5D20748F03B
:1017C0008C2F0E946F0A8F7190E0982F882790626B
:1017D00068C0C11534E5D30728F09C2F8827846F93
:1017E000906A5FC0AE01437055272C2F2695269531
:1017F000C115D34578F481E090E002C0880F991FAD
:101800004A95E2F740E2249F90011124822B932B0A
:101810009C6847C081E090E002C0880F991F4A95FC
:10182000E2F740E2249F90011124822B932B9A68C7
:1018300038C0C1152AE5D207F8F4C11539E5D30738
:1018400090F08C2F8F700E946F0A94E0D695C79508
:101850009A95E1F7CF70D0E0DC2FCC27D0699E01BC
:10186000282BC9011EC0C11548E5D407C0F09C2F24
:101870008827806F906A15C0CE01905681159042DE
:1018800070F48D2F8F710E946F0A282F2F71CE0157
:1018900099279062922B05C081E090E002C080E021
:1018A00090E0DF91CF91089568EE7EEF80E090E0C8
:1018B0000E94B92760E082E090E00E949B2760E0F0
:1018C00083E090E00E949B2710921602109217026C
:1018D000109218021092190260E084E090E00E94D9
:1018E0009B2764E082E290E00E949B2760E085E015
:1018F00090E00E949B2760E086E090E00E949B279A
:101900006FEF87E090E00E949B2740E050E0BA0133
:1019100088E090E00E94AD2760E08DE090E00E94BA
:101920009B2740E050E0BA0188E190E00E94AD279B
:1019300060E087E190E00E949B2740E050E0BA0120
:101940008CE190E00E94AD2760E070E080E290E0E2
:101950000E94B92740E050E0BA0188E190E00E947F
:10196000AD27109256021092570210925802109210
:10197000590284E080618093560240915602509152
:10198000570260915802709159028FE090E00E94D6
:10199000AD2740E050E0BA0183E190E00E94AD271E
:1019A0000895809115028111109215020895809575
:1019B000909123028923809323020895909123021A
:1019C0008091E802982B90939C01809115028823C6
:1019D000D9F0892B80939C0180910A01882331F0F2
:1019E0008091F50287FF02C08EE101C086E0EEE93A
:1019F000F1E090E0815028F021912223D9F39F5FFC
:101A0000F9CF91110E94D10C40E250E065EF71E0F6
:101A10008CE991E00E949329892B21F180E2ECE985
:101A2000F1E0A5EFB1E001900D928A95E1F7E09128
:101A3000EC02F091ED023097A9F080910A01882321
:101A400059F08091F50287FF07C080919C01809337
:101A50009D0186E080939C010280F381E02D8CE95A
:101A600091E0099508952091F40180958223809357
:101A7000F401982F977099F430E0482F082E000C4D
:101A8000550B2417350759F09091F60292FF07C0C5
:101A90008595859585950E9470241092F40108958E
:101AA000CF93C091F602C2FB992790F9981791F055
:101AB00080FBC2F9C093F6026091F50284E090E0E9
:101AC0000E949B276C2F82E290E00E949B2782E07D
:101AD0000E94330DCF9108958091F3019091C2013E
:101AE000891719F08F5F8770FBCF08950F931F93AD
:101AF000CF93DF938091C10182958F7009F05AC016
:101B00008091BE01882309F455C08091F3011091A2
:101B1000C2016091BC017091BD01C091BF01D09123
:101B2000C00191E06F3F09F090E0292F06E0811796
:101B300009F440C0209721F07F3F21F030E003C03E
:101B400031E001C0322F90E030FD31C0089FF0013C
:101B5000099FF00D1124DF01AD53BE4F11963C914A
:101B60001197371324C03C91361321C012963C9133
:101B7000129731111CC013964D915C9114974C1B18
:101B80005D0B483C510598F48091C1018F708061D4
:101B90008093C101E853FE4F80818F708061808304
:101BA0008CEB91E00E94D4030E946C0D03C001965F
:101BB0008770BDCFDF91CF911F910F910895A1E163
:101BC000B0E0E5EEFDE00C94DB268C0185E0F80149
:101BD000DE011D9601900D928A95E1F7F801E280F1
:101BE0009091BC016091BD014091BF015091C00135
:101BF0004115510531F06F3F31F481E09F3F19F4F9
:101C000003C081E001C080E0F82FF1709F2E80FDBD
:101C10001BC1F80130812181C380D4808CEBA82EB8
:101C200081E0B82EF090BE01F601E41BF50BFF2019
:101C300009F4C7C08091C101E83CF10508F092C0E9
:101C4000482F407F09F051C0621311C093130FC099
:101C5000FE2CE1100CC08F7080618093C101C50122
:101C60000E94D4038091C101F80185832AC1C11467
:101C7000D10431F02F3F31F481E03F3F19F403C02C
:101C800081E001C080E080FD03C081E08E2502C0BC
:101C900080E090E0F82FF170FF2E80FF1CC0809153
:101CA000F3014091C20156E0841709F4E8C090E0C6
:101CB000589FF001599FF00D1124ED53FE4F6181A3
:101CC000261306C06081631303C06281E61203C05D
:101CD00001968770E9CFFE2CEE2009F4F2C08091C6
:101CE000C10181608093C10149C0621306C0931392
:101CF00004C0E11002C0F80186C0C8010E94C324DC
:101D0000882351F1EE2041F12091C101822F82956B
:101D10008F7090E0029774F08091BC019091BD01AA
:101D200098878F831986DB86CA862C87CE01079613
:101D30000E94D40386E0F801ACEBB1E001900D9273
:101D40008A95E1F70E94760D0AC06217C9F0C801B2
:101D50000E94C32481111EC0C8010E94D403FF2425
:101D6000F394AFC0482F407F81F78CEB91E00E9445
:101D7000D40386E0F50111928A95E9F7F12CA1C010
:101D80009313E5CFE110E3CFF8018583C8010E94EA
:101D9000D40354C0EE2001F32091C101822F82951B
:101DA0008F7090E0029734F28091BC019091BD0158
:101DB0009A8389831B82DD82CC822E83CE01019699
:101DC000B7CFE83CF105D0F5FE2CEE2029F26213E6
:101DD00027C0931325C02091C10120FD18C0822F78
:101DE00082958F70482F50E04115510581F0F80120
:101DF00025834F30510541F08F5F982F9295907F4A
:101E0000822F8F70892B8583C8010E94D40386E0BE
:101E1000F801ACEBB1E001900D928A95E1F751C069
:101E2000C8010E94C324811185CF8091C1018160C6
:101E30008093C101C8010E94D40343C086E0F5012C
:101E400011928A95E9F73DC0EE2009F485CFC801CB
:101E50000E94C324F82E882309F47ECF86E0F8017F
:101E6000ACEBB1E001900D928A95E1F78091BC0155
:101E70009091BD010E94B5230E94760D22C03D873E
:101E80002E878D859E850E94B523292F22952F7040
:101E9000223028F49F7039F0811105C00BC0243026
:101EA00028F49F7049F4805E883020F0C8010E94B9
:101EB000D4039F2CF92C05C0F8019581907F99F7E8
:101EC000F9CF8F2D6196EBE00C94F726A0E0B0E0FF
:101ED000ECE6FFE00C94DD2680911701909118014B
:101EE000892B91F080911A028F5F80931A028111E1
:101EF0000BC00E948C1B90E09093180180931701F7
:101F0000892B11F40E94031C0AE512E07801B12C20
:101F1000C0E087E0C82ECC0E8C2F0E94731C8C2D45
:101F20000E94731C8C2F0E94D61C8F73F701908126
:101F3000891721F08083DD24D39401C0D12C8C2D0E
:101F40000E94D61C8F73F7019781891719F0878338
:101F500081E001C080E0D82ABD280E94C71CCF5F65
:101F6000FFEFEF1AFF0AC730A1F6C0911E02CC2383
:101F7000C9F10E941D1E20911C0230911D02AC016E
:101F8000421B530B9A0190931D0280931C024F3FFA
:101F9000510509F020F4452B09F4AEC002C02FEF23
:101FA00030E010921E0210921B02E0915402F09158
:101FB0005502AF01425F5F4F90E030E0808188239F
:101FC00041F0281718F010829C2F03C0821B8083D9
:101FD0003C2F3196E417F50789F730931E02909352
:101FE0001B028AC0BB2009F47EC00E941D1E909374
:101FF0001D0280931C02E0915402F09155028091E1
:102000001E02AFE6B2E09F01225F3F4F4EE1E801C2
:1020100099918E015C91591731F05081511103C093
:1020200040839C9381E031961196E217F30779F78C
:1020300080931E02209151028091200290912102F2
:10204000222309F43FC0892B31F425982D98269836
:102050002E9827982F9880912002909121029170BC
:10206000892B79F480911F02882319F026982E98E5
:1020700002C0269A2E9A90911F0281E089278093B0
:102080001F0280912002909121028130984780F0B8
:10209000109251026091690270916A0280916B0204
:1020A00090916C020E94F81A109221021092200264
:1020B00080912002909121020196909321028093B9
:1020C00020021EC0892BE1F0109221021092200202
:1020D0006091690270916A0280916B0290916C022A
:1020E0000E94F81A0DC080E090911B02992309F418
:1020F000A1CF811180CF79CFB1107DCF81E0F4CF16
:102100008B2DCDB7DEB7E9E00C94F926809149021A
:1021100087FF11C08091E80082FD05C080915302C5
:102120008111F8CF11C08091E8008B770BC08091AE
:102130005302882349F08091E80080FFF8CF809116
:10214000E8008E778093E8000895982F973068F51F
:102150009093E900981739F07091EC002091ED0010
:102160005091F00003C0242F762F50E021FD02C0D3
:102170009F5FECCF3091EB003E7F3093EB003091CE
:10218000ED003D7F3093ED003091EB0031603093F6
:10219000EB007093EC002093ED005093F000209141
:1021A000EE0027FDE5CF80E008958F708093E90071
:1021B00081E0089520914F02309150022617370791
:1021C00048F06115710539F42091E8002E772093CD
:1021D000E80001C0B901FC0120E06115710579F149
:1021E000809153028823F1F18530F1F18091E8006C
:1021F00083FD3CC08091E80082FD2EC08091E80004
:1022000080FFEBCF2091F3008091F20090E0922BC1
:102210006115710551F08830910538F421912093B2
:10222000F100615071090196F3CF21E0089709F0A0
:1022300020E08091E8008E778093E800CECF2111D6
:10224000CFCF0AC080915302882361F0853061F0BE
:102250008091E80083FD0AC08091E80082FFF2CF00
:1022600080E0089582E0089583E0089581E0089574
:102270000895BC0184E00E94BE1D0895BC0183E066
:102280000E94BE1D0895AAE2B0E0E9E4F1E10C94D9
:10229000E326E9E4F2E081E592E02091F100219368
:1022A0008E179F07D1F780914A02833009F463C0EB
:1022B00030F4813071F0823009F49FC0B6C08A30AA
:1022C00009F48BC08B3009F46EC0893009F0ADC0C1
:1022D00020C080914902813A09F0A7C08091E800AE
:1022E000877F8093E80080914D0290914E02892B68
:1022F00021F460E286E292E003C060E080E090E0DA
:1023000070E00E94DA108091E8008B778093E800FB
:102310008CC080914902813209F087C080914D02C2
:1023200090914E02009719F0029709F07EC08091BB
:10233000E800877F8093E8008091E80082FD05C077
:10234000809153028111F8CF70C02091F3008091E9
:10235000F20090E0922B029731F48091F1008130ED
:1023600011F0863021F48091F10080932502809154
:10237000E8008B7756C080914902813A09F055C038
:1023800080914D0290914E02892B09F04EC08091B0
:10239000E800877F8093E8008091E80080FFFCCF11
:1023A00080910A0139C0809149028132F1F5809112
:1023B0004D0290914E02892BC1F58091E800877FF4
:1023C0008093E8000E94861080914B0280930A015E
:1023D000109223020E94E32428C080914902813296
:1023E00021F58091E800877F8093E8000E948610A5
:1023F00080914C028093240218C080914902813A56
:10240000A1F48091E800877F8093E8008091E80044
:1024100080FFFCCF809124028093F1008091E8003E
:102420008E778093E8000E9486108091E80083FFF9
:10243000DFC18091490290914A02492F50E04A3011
:10244000510508F0D5C1FA01EE59FF4F0C9444280C
:10245000803821F0823809F0CBC108C08091460253
:1024600090914702992389F082600FC080914D02BC
:102470008F70873008F0BCC18093E9008091EB0039
:1024800085FB882780F91092E9009091E800977FFA
:102490009093E8008093F1001092F10070C1282F12
:1024A0002D7F09F0A5C1882319F0823061F0A0C109
:1024B00080914B02813009F09BC1933009F080E09C
:1024C000809347022EC080914B0281112AC08091D7
:1024D0004D028F702FEF280F263008F089C18093AE
:1024E000E9002091EB0020FF1CC0933021F4809183
:1024F000EB00806214C09091EB0090619093EB0030
:1025000021E030E0A90102C0440F551F8A95E2F78F
:102510004093EA001092EA008091EB00886080937B
:10252000EB001092E9008091E800877F8093E8003B
:102530000E9486105DC181115BC110914B021F7713
:102540008091E3008078812B8093E3008091E80004
:10255000877F8093E8000E9486108091E80080FFCA
:10256000FCCF8091E30080688093E300111102C0EA
:1025700082E001C083E0809353023AC180588230E8
:1025800008F036C120914B0230914C022C3D53E0B3
:10259000350779F583E08A838AE289834FB7F89417
:1025A000DE01139620E03EE051E2E32FF0E050938D
:1025B0005700E49120FF03C0E295EF703F5FEF709A
:1025C0008E2F90E0EA3010F0C79601C0C0968D9330
:1025D0009D932F5F243149F74FBF8091E800877F9B
:1025E0008093E8006AE270E0CE0101960E94DA1062
:1025F000B4C080914D0290914E02432F5527433035
:102600005105A9F068F44130510509F400C1423088
:10261000510509F0EDC08BE590E0E3E9F4E04BC033
:102620004132510529F14232510589F1E1C0C90118
:10263000992781309105A1F058F0029709F0D8C090
:10264000E0E0F5E0E4918E2F90E0E0E0F5E030C0CE
:10265000EEE4F5E0E4918E2F90E0EEE4F5E028C0A2
:10266000E4E2F5E0E4918E2F90E0E4E2F5E020C0B2
:102670008330910508F0BCC0880F991FFC01EF5909
:10268000FE4F0190F081E02D89E090E014C083308E
:10269000910508F0ADC0FC01EE0FFF1FE55AFE4F9B
:1026A0000190F081E02DDC01A85ABE4F8C9190E0A2
:1026B000009709F49DC02091E800277F2093E8004F
:1026C00020914F02309150022817390708F4C901B0
:1026D00040E0009789F120915302222309F43DC084
:1026E0002530D9F12091E80023FD37C02091E80082
:1026F00022FD2FC02091E80020FFEBCF4091F30096
:102700002091F20030E0342B009759F02830310549
:1027100040F444914093F100319601972F5F3F4F71
:10272000F3CF41E02830310509F040E02091E80086
:102730002E772093E800CDCF4111CDCF0AC08091F4
:102740005302882351F0853041F08091E80083FDE9
:1027500004C08091E80082FFF2CF8091E8008B777F
:102760008093E80045C0803809F042C08091E800BD
:10277000877F8093E800809148028093F1008091E8
:10278000E8008E77D3CE811133C080914B029091B7
:102790004C029927029764F58091E800877F809327
:1027A000E80010914B02109348020E94861011110C
:1027B00006C08091E30087FD02C081E001C084E093
:1027C0008093530242E061EC81E00E94A51042E256
:1027D00061EC84E00E94A51042E261EC82E00E947C
:1027E000A51042E260EC83E00E94A51080915302A4
:1027F0008091E80083FF10C08091E800877F80937C
:10280000E8008091EB0080628093EB0005C082E1DC
:1028100090E0EEEEF4E04FCFAA96E3E00C94FF26B2
:102820001F920F920FB60F9211242F933F934F9345
:102830005F936F937F938F939F93AF93BF93CF9348
:10284000DF93EF93FF93C091E900CF708091EC008C
:10285000D82FD17080FDD0E81092E9008091F0006F
:10286000877F8093F00078940E9443111092E900D2
:102870008091F00088608093F000CD2BCF70C093E2
:10288000E900FF91EF91DF91CF91BF91AF919F91BF
:102890008F917F916F915F914F913F912F910F9009
:1028A0000FBE0F901F901895E8EDF0E080818E7FAD
:1028B00080831092E2001092DA001092E100A0EE04
:1028C000B0E08C9181608C9380818F77808319BC7C
:1028D000A7EDB0E08C918E7F8C9380818F7E80837A
:1028E000109222020895A0E0B0E0E9E7F4E10C9430
:1028F000DE26C8EDD0E088818F7E8883E7EDF0E0AA
:1029000080818160808384E082BF81E080932202A5
:1029100088818E7F888302EE10E0F8011082109289
:10292000DA0081EEC82ED12CF601108288818F77D3
:10293000888388818068888388818F7D888319BC9B
:1029400010925302109248021092470210924602CF
:1029500090EEE92EF12CF70180818B7F80838881B6
:102960008160888342E060E080E00E94A510F6016B
:1029700080818E7F8083F801808181608083808167
:1029800088608083F70180818E7F80838881806169
:102990008883CDB7DEB7E8E00C94FA261F920F9239
:1029A0000FB60F9211242F933F934F935F936F9322
:1029B0007F938F939F93AF93BF93EF93FF938091F8
:1029C000E10082FF09C08091E20082FF05C0809192
:1029D000E1008B7F8093E1008091DA0080FF2AC0C4
:1029E0008091D80080FF26C08091DA008E7F80938E
:1029F000DA008091D90080FF18C080E189BD82E1B2
:102A000089BD09B400FEFDCF81E08093530280911F
:102A1000220281110FC00E9454140E9473148091ED
:102A2000E20084608093E20005C019BC109253025A
:102A3000109222028091E10080FF17C08091E20095
:102A400080FF13C08091E2008E7F8093E20080912E
:102A5000E20080618093E2008091D80080628093E0
:102A6000D80019BC85E0809353028091E10084FF77
:102A700030C08091E20084FF2CC080E189BD82E1FA
:102A800089BD09B400FEFDCF8091D8008F7D809371
:102A9000D8008091E1008F7E8093E1008091E20078
:102AA0008F7E8093E2008091E20081608093E2005B
:102AB00080914802882311F084E007C08091E300F0
:102AC00087FD02C081E001C083E0809353028091C2
:102AD00053028091E10083FF27C08091E20083FFD1
:102AE00023C08091E100877F8093E10082E08093A2
:102AF0005302109248028091E1008E7F8093E100A2
:102B00008091E2008E7F8093E2008091E2008061FC
:102B10008093E20042E060E080E00E94A510809196
:102B2000F00088608093F000FF91EF91BF91AF912A
:102B30009F918F917F916F915F914F913F912F91D5
:102B40000F900FBE0F901F9018952091E4003091C8
:102B5000E50095E64091EC00842F817040FF23C092
:102B60008091E80080FD1DC080915302882399F078
:102B7000853099F08091EB0085FD11C04091E40013
:102B80005091E5002417350729F3915011F09A016F
:102B9000E1CF84E0089582E0089583E0089581E024
:102BA000089580E008954091E80042FFDDCF089548
:102BB000EF92FF920F931F93CF93DF937C018B01D2
:102BC0000E94A515811119C0E70101151105A1F099
:102BD0008091E80085FD0AC08091E8008E7780939F
:102BE000E8000E94A515882381F307C0899180938E
:102BF000F10001501109E9CF80E0CDB7DEB7E6E082
:102C00000C94FC26CF9320915302243029F5C091D7
:102C1000E900CF703091EC00232F217030FD20E8C7
:102C2000C22B22E02093E9002091E80020FF11C090
:102C300040E050E060E270E00E94D815882321F067
:102C400010925102109252028091E8008E77809388
:102C5000E800CF70C093E900CF910895CF93DF9340
:102C6000CDB7DEB7CC55D1090FB6F894DEBF0FBE95
:102C7000CDBF85B7806885BF85B7806885BF84B7BD
:102C8000877F84BF0FB6F894A89580916000886113
:102C900080936000109260000FBE90E080E80FB655
:102CA000F89480936100909361000FBE8DE69AE0E6
:102CB00090939901809398010E9454140E94731478
:102CC0008091E20084608093E200789480915302C6
:102CD0008823A1F01091E9001F709091EC00892FDA
:102CE000817090FD80E8182B1092E9008091E80037
:102CF00083FD0E9443111F701093E90082E084BDA0
:102D000093E095BD9AEF97BD80936E000E948C1B57
:102D100090E090931801809317010E94C71C0E94B5
:102D20000D1DEAE5F2E0AFE6B2E011921D9222E05D
:102D3000E836F207D1F78EE090E00E946528809394
:102D4000540290935502FC010E961192E817F90770
:102D5000E1F789EA8093800089E0809381002498DC
:102D60002C983F988AB18F7C8AB96E98479A8BB11C
:102D700080638BB9769A8FE090E00E947F27609302
:102D800056027093570280935802909359026770CD
:102D90008FEF689FB00111247595679575956795BC
:102DA0007727709389006093880070938B006093FD
:102DB0008A0070938D0060938C000E94031C80E059
:102DC00090E00E948527883E9E4F11F00E94540C8F
:102DD00082E090E00E94772780937D0284E090E07B
:102DE0000E947727182F82E290E00E947727212FF8
:102DF00030E0382B3093F6022093F50283E090E028
:102E00000E947727682F70E080E090E00E94B8244D
:102E10006091690270916A0280916B0290916C02DC
:102E20000E94F81A80916802811136C080E090E01B
:102E30000E948527883E9E4F21F00E94540C0E94DC
:102E4000982188E090E00E947F276093E3027093CE
:102E5000E4028093E5029093E6026E7F71F40E9493
:102E6000982188E090E00E947F276093E3027093AE
:102E7000E4028093E5029093E6020E9435211092CD
:102E8000A3028091E30280FF04C060E086950E9467
:102E90000E2381E0809368026091690270916A025A
:102EA00080916B0290916C020E94F81A8BE091E085
:102EB0009093ED028093EC02A8E1EA2EF12CB0E4AD
:102EC000DB2E80915302853009F07DC0BB24B39482
:102ED00000E112E180915302853009F065C08091D4
:102EE0005302843009F43DC01092A30280916E0217
:102EF000811116C0B0926E028091E302982F9170FA
:102F000090936D028E7F8093E3022FEF80E792E033
:102F1000215080409040E1F700C000000E94101F47
:102F20001092F0020FB6F894A895E09260000FBEE0
:102F3000D092600083B7817F846083BF83B7816054
:102F400083BF7894889583B78E7F83BF0FB6F8943C
:102F5000A895809160008861809360001092600065
:102F60000FBE80914702882309F4B4CF0E948C1BC6
:102F700090E090931801809317010E94C71C0E9453
:102F80000D1DEFE6F2E0119222E0ED37F207D9F7DE
:102F90000E94660FEFE6F2E0819181110AC282E0A1
:102FA000ED37F807C9F796CF109223020E94E32469
:102FB0000E94A61E10926E0280916D0281110E94E5
:102FC00049230E94FA1E0E94660F882359F08FB78A
:102FD000F8944091F1025091F2026091F3027091E5
:102FE000F4028FBFAEE7B2E0EFE6F2E000E010E0FF
:102FF000302F21919D919227A1F180E0BB24B394C1
:10300000492F4B2151F164968FAF649765963FAF7E
:1030100065972B2181E009F480E066968FAF669773
:103020000E941D1E8160782F68969FAF8EAF6897B3
:1030300064964FAD649765965FAD659766966FAD84
:10304000669768968FAD68970E94F119F801E2586B
:10305000FD4F8081B826B0822AC08F5FBB0C8630BE
:1030600079F60F5F1F4F0E30110509F0C1CF8FEFBA
:1030700069968FAF69976A968FAF6A976B961FAE06
:103080006B970E941D1E8160782F6D969FAF8EAF4B
:103090006D9769964FAD69976A965FAD6A976B9623
:1030A0006FAD6B976D968FAD6D970E94F119809102
:1030B000E902882369F00E941D1E20918C02309144
:1030C0008D02821B930B8F3F9F4710F40E94B31E0B
:1030D0008091A302882309F493C08091A202E09119
:1030E000E302E695E81BE0939E02823059F4F0E09B
:1030F000E05AFA4FE4910E2F10E0FAEAAF2EFDE10C
:10310000BF2E59C0863059F4F0E0E35AFA4FE491EB
:103110000E2F10E0EAE9AE2EEDE1BE2E4CC0893054
:1031200061F4E695F0E0E65AFA4FE4910E2F10E0D4
:1031300079EFA72E70E2B72E3EC08F3061F4E6958E
:10314000F0E0E95AFA4FE4910E2F10E063E9A62E61
:1031500060E2B62E30C0853159F4F0E0EC5AFA4FF7
:10316000E4910E2F10E053E4A52E50E2B52E23C0BB
:103170008831A1F0833249F4E2E5F5E0059114913C
:1031800040E6A42E4DE1B42E16C0843271F404EF53
:1031900011E030E9A32E3FE1B32E0DC008E210E0AC
:1031A00028ECA22E2FE1B22E06C000ED17E09AE126
:1031B000A92E9DE1B92E80919F02882361F0109283
:1031C0009F020E941D1E90939D0280939C0210926C
:1031D000A1021092A0020E941D1EE0919C02F0919B
:1031E0009D028E1B9F0B8F3F9F4750F40E0F1F1F9A
:1031F00010939D0200939C028CE992E0F5010995E1
:103200000E94A61E90918E02891380938E02809157
:103210005302843009F055CE83E08093E900809119
:10322000E80082FF4ECE8091E80085FF22C00E9418
:10323000A51581111CC000E210E05E01F1E2AF0EA5
:10324000B11C08C08091F100F50181935F0101502C
:10325000110969F08091E80085FDF4CF8091E800C4
:103260008B778093E8000E94A515882399F391E05D
:1032700001C090E08091E8008B778093E80099236B
:1032800009F41FCE89A18130E9F158F1823021F093
:10329000843009F480C015CE8BA19AA190938F023F
:1032A000809390028DA19CA19093910280939202B1
:1032B0008FA19EA1909393028093940242E150E0EB
:1032C00063E270E0CE018F5B9F4F0E94672784E02E
:1032D000898381E0809352028EEF8A83109251029B
:1032E0000CC019828CE0E7E6F1E0DE011296019055
:1032F0000D928A95E1F78EEF8D87CE0101960E949F
:103300000216DFCD05E912E08BE9A82E82E0B82E87
:103310000E94C11EF801819391938F01AE16BF06E2
:10332000B9F781E08983909195029A8390919602F2
:103330009B83909197029C83909198029D8390919A
:1033400099029E8390919A029F839EEF9887809323
:103350005102CE0101960E94021642E150E063E262
:1033600070E0CE0101960E946727FE01319682E14E
:1033700083301CF09189928B01C0128A8150319761
:103380008F3FB1F742E150E063E270E0CE01019679
:103390000E948B2796CD80915202882309F491CD0B
:1033A00060E070E0CB010E942D248AA10E94962447
:1033B00088CD09BD19BD09B400FEFDCF8091D800AC
:1033C0008F7D8093D8008091E00082608093E00040
:1033D0008091E00081FDFCCF109223020E94E32443
:1033E00079CDA7E1B0E0E7EFF9E10C94E3264B8B50
:1033F0005C8B6D8B7E8B8F8B61111092E80286E067
:103400009E01235F3F4FD901E82F1D92EA95E9F70E
:1034100095E0FE017396D90101900D929A95E1F71E
:103420009C894E895F897B897D879E876F87598BB1
:10343000488BF901DE01179601900D928A95E1F70C
:10344000CE0107960E94DF0D81113EC086E0FE018D
:103450003796DE01119601900D928A95E1F7FF8172
:10346000E8856A857B856115710531F0EF3F31F4A0
:1034700081E0FF3F19F403C081E001C080E080FDDE
:1034800023C02091C20130E0C901019687709927BD
:103490004091F30150E08417950779F1F983EA83AD
:1034A0007D836C8396E0929FD001939FB00D112491
:1034B000AD53BE4FFE01319601900D929A95E1F702
:1034C0008093C2010E946C0D16E08091F3019091EF
:1034D000C201891709F1189FC00111248D539E4F15
:1034E0000E94DF0D8823C1F08091F30190E00196E6
:1034F000877099278093F301E8CF109223020E94EE
:10350000E3241092C2011092F301ECEBF1E086E0AB
:10351000DF011D928A95E9F76796E3E00C94FF2698
:10352000CF92DF92EF92FF926C01EE24FF24C11440
:10353000D104E104F10421F0C701B60120E101C08A
:1035400020E0C72ED82EE92EFF24C114D104E104B7
:10355000F10419F0285FC701B6016B017C0154E04A
:10356000F694E794D794C7945A95D1F7C114D1042F
:10357000E104F10419F02C5FC701B6016B017C0175
:1035800042E0F694E794D794C7944A95D1F7C114D2
:10359000D104E104F10419F02E5FC701B601DC018A
:1035A000CB01B695A79597958795892B8A2B8B2B61
:1035B00009F02F5F822FFF90EF90DF90CF9008955A
:1035C000109223020E94E3242FEF84E39CE0215019
:1035D00080409040E1F700C000009AE088E10FB61B
:1035E000F894A895809360000FBE90936000FFCF81
:1035F000CF92DF92EF92FF926B017C010E94901AB2
:1036000056985E9825982D9826982E9827982F984A
:10361000482F50E0FA013197E730F105C8F4E4593A
:10362000FF4F0C944428259A2D9A27C0269A2E9A4B
:1036300033C0259A2D9A269A2E9A3FC0259A2D9A04
:1036400004C0259A2D9A269A2E9A279A2F9A35C029
:10365000813099F018F0823081F51EC080919B0175
:10366000811153C00E94492360E081E00E940E2333
:1036700020E04FEB62EE86E81DC080919B01811136
:1036800044C00E94492360E081E00E940E2320E0B4
:103690004FEF6FEF8CEB0EC080919B01811135C015
:1036A0000E94492360E081E00E940E2320E04FEF5A
:1036B0006FEF88E90E944D2228C080919B01811103
:1036C00024C088E090E00E947F276093E30270931B
:1036D000E4028093E5029093E602862F60FF13C018
:1036E00081608093E30286950E9453238091E302D8
:1036F00086950E94532321E04091E6026091E50205
:103700008091E402D7CF0E947F21C701B601FF90CC
:10371000EF90DF90CF90089580E290E090931801B1
:103720008093170180919B0281110EC00E94EC25AD
:1037300081E080939B022FEF83ED90E32150804046
:103740009040E1F700C0000064E670E080E40E9471
:10375000F2259093180180931701892B09F04EC030
:1037600064E670E080E00E946726909318018093E1
:103770001701892B09F042C064E670E080E00E94E6
:1037800067269093180180931701892BB9F564E699
:1037900070E08FE30E9467269093180180931701D1
:1037A000892B61F50E94BC2664E670E080E40E94EB
:1037B000F2259093180180931701892BF9F464E6A0
:1037C00070E08CE00E9467269093180180931701A7
:1037D000892BA1F464E670E080E00E946726909354
:1037E000180180931701892B49F464E670E08FE398
:1037F0000E94672690931801809317010E94BC26AF
:10380000809117010895CF93DF9356985E9825987D
:103810002D9826982E9827982F98C8E8D0E08FEFFB
:1038200090E099838883AAE8B0E011969C938E93E8
:10383000ECE8F0E091838083259A2D9A2FEF80E7C2
:1038400092E0215080409040E1F700C00000269AAD
:103850002E9A2FEF80E792E0215080409040E1F7D0
:1038600000C00000279A2F9A2FEF80E792E02150A6
:1038700080409040E1F700C0000025982D982FEF80
:1038800080E792E0215080409040E1F700C00000C6
:1038900026982E982FEF80E792E0215080409040AC
:1038A000E1F700C0000027982F988091560287709A
:1038B0002FEF829FC0011124959587959595879547
:1038C00099279983888311969C938E939183808303
:1038D00056985E9825982D9826982E9827982F9878
:1038E000DF91CF910895CF93E82F873080F58091B5
:1038F000170190911801892B09F047C0CE2F64E67B
:1039000070E080E40E94F2259093180180931701E3
:10391000892BD1F464E670E082E10E9467269093DF
:10392000180180931701892B79F481E090E001C0A0
:10393000880FCA95EAF764E670E080950E946726D2
:1039400090931801809317010E94BC261EC090E03E
:10395000FC013797E730F105C0F4ED58FF4F0C94A8
:103960004428209A289811C0219A29980EC0229A9A
:103970002A980BC0239A2B9808C0529A5A9805C0CF
:10398000539A5B9802C03E9A4698CF91089520982A
:1039900028982198299822982A9823982B98529809
:1039A0005A9853985B983E9846980895CF938730DD
:1039B00040F58091170190911801892B59F564E623
:1039C00070E081E40E94F225909318018093170122
:1039D000892B11F0C0E011C084E690E00E94972688
:1039E00097FF05C09093180180931701F3CFC82F5C
:1039F000C09510921801109217010E94BC268C2FBE
:103A00000AC09FB18FB1807F869586959370892B70
:103A1000809501C080E0CF9108958098889A819820
:103A2000899A84988C9A85988D9A86988E9A879888
:103A30008F9A089508950895809125020895CF934F
:103A4000DF9320910A01222339F02091F50227FF0C
:103A500003C060E224E002C068E021E02093E900B6
:103A60002FEF3091E800215035FD06C035ED3A9535
:103A7000F1F700002111F5CF2091E80025FF1DC0CE
:103A8000EC0180910A01811105C040E050E068E03E
:103A900070E003C070E040E050E0CE010E94D81515
:103AA0008091E8008E778093E80080E2FE01A6E234
:103AB000B2E001900D928A95E1F7DF91CF910895E0
:103AC000A4E0B0E0E6E6FDE10C94E2268C018091F2
:103AD000A60281110AC09E012F5F3F4F4FEF6FEF8B
:103AE0000E94A8218A818093A602F80184818130F6
:103AF00051F028F0823061F44091A6020AC0809112
:103B0000A60240E007C06091A60240E080E003C04A
:103B100040E080E060E00E942321F801848190E091
:103B2000019663E070E00E94302884832496E4E0EC
:103B30000C94FE26CF93DF93EC01E3EEF2E0438199
:103B400062818C810E9435228C818F5F8C83DF9112
:103B5000CF910895CF93DF93EC01EC81F0E0EC5925
:103B6000FA4F4491E3EEF2E0628181810E943522B6
:103B70008C818F5F8C83DF91CF9108958093F702C2
:103B80007093F9026093F802809153028430F9F443
:103B90008093E9008FEF9091E800815095FD06C079
:103BA00095ED9A95F1F700008111F5CF8091E8002D
:103BB00085FF0DC040E050E063E070E087EF92E0E9
:103BC0000E94D8158091E8008E778093E8000895D0
:103BD00078941F920F920FB60F9211248F939F9398
:103BE000AF93BF938091F1029091F202A091F30202
:103BF000B091F4020196A11DB11D8093F102909342
:103C0000F202A093F302B093F402BF91AF919F919F
:103C10008F910F900FBE0F901F9018959C014FB77A
:103C2000F8948091F1029091F202A091F302B09188
:103C3000F4024FBF821B930B08952FB7F894809125
:103C4000F1029091F202A091F302B091F4022FBF21
:103C500008951F920F920FB60F9211248F939F9386
:103C6000AF93BF938091F002811113C08091F10254
:103C70009091F202A091F302B091F4024196A11D3D
:103C8000B11D8093F1029093F202A093F302B093DE
:103C9000F402BF91AF919F918F910F900FBE0F9043
:103CA0001F90189520910A012223C9F02091F50256
:103CB00027FF15C0262F2695269526952E31C8F468
:103CC000FC01E20FF11D677081E090E001C0880FF8
:103CD0006A95EAF780959281892382830895FC0191
:103CE00006962281621301C012823196E817F90705
:103CF000C1F708952091EE023091EF02281739079D
:103D000071F09093EF028093EE02E091EC02F0915B
:103D1000ED02309721F00084F185E02D099508959A
:103D20002091EA023091EB022817390771F0909345
:103D3000EB028093EA02E091EC02F091ED02309701
:103D400021F00680F781E02D09950895E091EC02BD
:103D5000F091ED02309729F00190F081E02D099566
:103D6000089580E008958091E902882349F08091C8
:103D7000E8028D7D8093E8020E94DE0C1092E90239
:103D80000895CF93DF930E94572766E070E00E946A
:103D90003028D82F0E9457276EE070E00E9430280C
:103DA000C82F6D2F782F80E00E94B20A892B19F05E
:103DB0008D2F9C2F02C00E94C11EDF91CF910895CC
:103DC0009091E30290FF04C09695981748F003C0C5
:103DD000811106C090E0961718F40E94612308959F
:103DE0000E9453230895882311F0FA0101C0FB01BA
:103DF000099508956091E302669570E04BE050E00C
:103E000089E191E00E948629892B19F481E0809351
:103E1000A3020E941D1E90939D0280939C02089510
:103E2000EF92FF920F931F93CF93DF938091E30262
:103E300080FF08C007EA12E083EEE82E82E0F82E49
:103E4000F8010DC0E7EAF2E083EE92E01182108201
:103E50001282138234968E179F07C1F7EBCF92819F
:103E600020813181892F291708F4822F381708F40F
:103E7000832F8383381B3183281B2083981B9283D5
:103E80003496EE16FF0659F70E94EC2564E670E0C2
:103E900084E80E94F225C7EAD2E064E670E08881F7
:103EA0000E94672664E670E089810E94672664E6C6
:103EB00070E08A810E94672664E670E08B810E9430
:103EC00067262496EC16FD0641F70E94BC26579AF9
:103ED0008BB18F779BB190682FB7F894E016F106FD
:103EE00099F0F80131918F0148E09BB9000000C0C2
:103EF00037FF8BB9330F000000C000C000C08BB982
:103F000000C04A9591F7EACF2FBF8FE594E0019763
:103F1000F1F700C00000CDB7DEB7E6E00C94FC2658
:103F2000EF92FF920F931F93CF93DF938C01C7EA19
:103F3000D2E0E12CF12CF8018481F7E0EF16F104D6
:103F40001CF4882339F002C0811104C09E01409105
:103F5000E60202C09E0140E06091E5028091E40229
:103F60000E94A8218FEFE81AF80A24969FE0E9162C
:103F7000F10409F70E94101FF801848190E0019676
:103F8000817099278483CDB7DEB7E6E00C94FC26D8
:103F9000A0E0B0E0EEECFFE10C94DA26EC014C81FD
:103FA000042F10E09801D8010E9413289B01AC0156
:103FB0000E94DE276B017C01E0E2F0E0E01BF10BE8
:103FC000A5E5B0E09B01AC010E94DE274B015C013E
:103FD0009F01DF010E944A289B01AC010E94E92752
:103FE0009B01AC012C0D3D1D4E1D5F1DC501B40193
:103FF0000E94F127822FF22E99E2921728F093E087
:10400000299F900111240DC025E530E0281B3109BE
:10401000C901880F991F280F391F37FF02C02F5F72
:104020003F4F35952795122F109597EAC92E92E0AC
:10403000D92E00E085E5E82EEF1801FD02C08E2D97
:1040400001C08F2D9601412F6091E5020E94A821A9
:104050000F5F84E0C80ED11C0F3079F70E94101F4B
:104060008C81811102C091E003C0803219F49FEF6E
:104070009093260190912601890F8C83CDB7DEB7EE
:10408000ECE00C94F6260F931F93CF93DF93C7EACF
:10409000D2E0FE011182108212821382349682E0F5
:1040A000E33EF807B9F700E010E08091A502082E82
:1040B000000C990B0817190794F080912501082E20
:1040C000000C990B8017910754F09E014091E60275
:1040D0006091E5028091E4020E94A82104C0198247
:1040E00018821A821B820F5F1F4F24960F30110512
:1040F000E1F60E94101F809124019091A502980F73
:104100009093A50220912501280F209325011216D6
:1041100014F49E301CF0819580932401DF91CF919F
:104120001F910F910895A0E0B0E0E9E9F0E20C944E
:10413000DD26FC01828180FF03C0DD24DA9402C009
:10414000DD24D39407EA12E0C0E0D0E02FE0B22EE5
:10415000F801118210821282138294E0E92EF12C70
:10416000C12C8091A4028C0D80312CF06B2D0E940B
:104170002228892F02C087FD815F082E000C990B31
:10418000C817D90791F48091E6028E9DA0018F9DFA
:10419000500D112455954795559547959801609177
:1041A000E5028091E4020E94A821CD0CF1E0EF1A13
:1041B000F108B9F621960C5F1F4FCF30D10541F6BB
:1041C0000E94101F8091A40291E0D91206C08111B3
:1041D00002C08EE007C0815005C090E00196BE018C
:1041E0000E9430288093A402CDB7DEB7E9E00C949A
:1041F000F926EF92FF921F93CF93DF93EC0187EAAA
:10420000E82E82E0F82E10E08C8197014091E602C2
:104210006091E502810F0E94A8211F5E84E0E80EF4
:10422000F11C1F3F89F70E94101F9A818C8190FF1B
:1042300002C08F5F01C081508C83DF91CF911F91AD
:10424000FF90EF9008959091E30290FF0DC0E7EA90
:10425000F2E08183608342831382349692E0E33EEE
:10426000F907B9F70E94101F08958091E302282FE3
:10427000269530E02115310519F48170826005C062
:104280002532310524F0817088648093E30208951B
:10429000CF92DF92EF92FF926B017C010E94352159
:1042A000B701A60188E090E00E94AD27FF90EF9053
:1042B000DF90CF9008958091E702882319F0815014
:1042C0008093E7026091E3027091E4028091E5023D
:1042D0009091E6020E94482108958091E702833080
:1042E00018F48F5F8093E7026091E3027091E4021B
:1042F0008091E5029091E6020E9448210895E3EE44
:10430000F2E080818E7F80836081718182819381E0
:104310000E9448211092A3022FEF80E792E02150E3
:1043200080409040E1F700C000000E94101F0895F7
:10433000E3EEF2E083E0808311828FEF8283838358
:10434000148260817181828193810E944821089545
:10435000A0E0B0E0EEEAF1E20C94DC26E82EF62EC6
:10436000E901E42FF0E0611106C0EC59F94FE49146
:104370004E2F2E2F71C0062F10E0EC59F94F4491AB
:10438000F42FC42ED12C26E0829FC00111242FEFE0
:1043900030E0B9010E94C0265BEA5603C001579F76
:1043A000900D11248E0D911D8E0D911D582F550FBE
:1043B000580FD901A01BB10BAC9DC001AD9D900D54
:1043C000BC9D900D1124E92FF59ED0011124AB2F37
:1043D000BB277901EA1AFB0AEC9CD001ED9CB00DD9
:1043E000FC9CB00D11245901A51AB108A09E7001C2
:1043F000A19EF00CB09EF00C1124EF2CFF242E197E
:104400003F092C9D80012D9D100D3C9D100D112408
:10441000212F6230710591F048F461157105E1F0CA
:1044200061307105B9F4242F4B2F16C0643071052B
:1044300069F040F06630710579F00CC0242F492FE7
:10444000E12F0AC0492FEF2F2B2F06C0292FE42F71
:10445000412F02C0292FEB2F49832883EA831B8237
:10446000CDB7DEB7EAE00C94F826A4E0B0E0EBE3C9
:10447000F2E20C94E4269091E30290FF0AC09E01C0
:104480002F5F3F4F0E94A8214B8169818A810E9442
:1044900023212496E2E00C940027A4E0B0E0E3E5B9
:1044A000F2E20C94D726F82E762EE42E622E90910E
:1044B000E30290FF67C0E92FE695AE2FB0E0AD585C
:1044C000BE4F8C918093A2029E7F923061F49E0138
:1044D0002F5F3F4F8F2D0E94A8214B8169818A81D8
:1044E0000E9423213DC0823019F4E090E60238C0DA
:1044F000863019F4F090E40233C08930D9F3893161
:1045000079F5E9518E2F8170582EE695F0E0EC593F
:10451000F84FE4910E2F10E087EAC82E82E0D82EE3
:10452000A12CB12C9FE0892E912CC501B4010E94D1
:10453000C0268F2D511002C0860F01C0861B960128
:104540004E2D672D0E94A821A00EB11E84E0C80E3A
:10455000D11C83EEC81682E0D80639F70E94101FDE
:10456000F092E4027092E502E092E602662051F0D9
:104570006091E3027091E4028091E5029091E6027D
:104580000E9448212496EFE00C94F326E3EEF2E03B
:1045900043812CE0421B08F440E021E062818181EC
:1045A0000E944D220895E3EEF2E043812CE0420F99
:1045B00008F44FEF21E0628181810E944D2208952D
:1045C000E3EEF2E062812FEF621B08F460E021E08D
:1045D000438181810E944D220895E3EEF2E06281E1
:1045E0002FEF620F08F46FEF21E0438181810E9479
:1045F0004D220895E3EEF2E0818121E04381628162
:104600008C500E944D220895E3EEF2E0818121E07A
:1046100043816281845F0E944D2208959091E3025C
:1046200090FF36C09170811102C0926006C0853241
:1046300010F0986402C0880F982B9093E3026623D1
:1046400051F06091E3027091E4028091E502909153
:10465000E6020E9448216091E302669570E04BE01B
:1046600050E089E191E00E948629892B19F010928F
:10467000A30202C00E94FA1E81E080939F0220E004
:104680004091E6026091E5028091E4020E944D2291
:104690000895E3EEF2E080818160808360E086959A
:1046A0000E940E23089561E00E940E2308958091D8
:1046B000E3028695815009F484E261E00E940E23B2
:1046C00008958091E30286958F5F853208F081E03E
:1046D00061E00E940E23089580E090E00E94901E09
:1046E00080E090E00E947A1E1092E8020E94DE0CA8
:1046F0000895A0E0B0E0EFE7F3E20C94DD268C0132
:10470000C0906902D0906A02E0906B02F0906C0257
:104710008091160290911702A0911802B09119028F
:10472000C82AD92AEA2AFB2ACFE1D0E0D701C6015C
:104730000C2E04C0B695A795979587950A94D2F745
:1047400080FD04C0219790F7B12C09C0BC2EB801A0
:104750008C2F0E94B20A0E94CB0A019799F38B2DED
:10476000CDB7DEB7E9E00C94F926CF93DF93EC01E7
:104770000E947923BE010E94B20A0E94CB0ADF91F7
:10478000CF910895292F9E3080F5863070F590E006
:1047900036E0239F800D911D1124682F677023E060
:1047A000969587952A95E1F725E0289FF001299FA6
:1047B000F00D1124E650FD4F40E050E080E02191E3
:1047C00030E0062E02C0369527950A94E2F7217054
:1047D0003327042E01C0220F0A94EAF7822B4F5F81
:1047E0005F4F4530510559F7089580E00895292F0E
:1047F0009E3090F5863080F590E036E0239F800D66
:10480000911D1124282F277051E001C0550F2A95C2
:10481000EAF723E0969587952A95E1F725E0289F0A
:10482000F001299FF00D1124E650FD4F20E030E00B
:1048300070E04081CB01022E02C0969587950A94C4
:10484000E2F78170819584278523842781932F5FE8
:104850003F4F2530310569F70895CF92DF92EF92EF
:10486000FF92CF93DF93CDB7DEB7A0970FB6F89442
:10487000DEBF0FBECDBF0E94F81A6B017C01809194
:1048800052028823B1F02FEF80E792E02150804060
:104890009040E1F700C0000085E08983C701B601C0
:1048A0000E94901A8A838EEF8B83CE0101960E941C
:1048B0000216C0926902D0926A02E0926B02F092F4
:1048C0006C020E946C23A0960FB6F894DEBF0FBE58
:1048D000CDBFDF91CF91FF90EF90DF90CF90089503
:1048E0000F931F9341E050E060E070E004C0440F7C
:1048F000551F661F771F8A95D2F740955095609592
:1049000070958091690290916A02A0916B02B091BA
:104910006C028A019B01082319232A233B23C90126
:10492000B8010E942D241F910F9108950F931F939A
:1049300041E050E060E070E004C0440F551F661F86
:10494000771F8A95D2F78091690290916A02A091AF
:104950006B02B0916C028A019B01082B192B2A2B48
:104960003B2BC901B8010E942D241F910F9108957E
:1049700060931602709317028093180290931902A5
:104980000E946C230895FC01808191810E94B523CF
:1049900092959F70963079F010F4925001C09A5021
:1049A000923068F4803F69F018F4883E40F409C002
:1049B000843F29F406C0883E20F0813F11F080E05A
:1049C000089581E0089580910A01882331F0809153
:1049D000F50287FF02C08EE101C086E0EEE9F1E05A
:1049E000DF011D928A95E9F70E946C2308958823C0
:1049F00021F00E94D70C0E94DE0C0895882339F024
:104A000090912302892B809323020E94DE0C08954B
:104A1000882349F1682F8CEF860F813A28F48CE9BE
:104A200091E00E94521E0CC080E2860F883058F43C
:104A3000677081E001C0880F6A95EAF70E94D70C81
:104A40000E94DE0C08958BE5860F833028F480E009
:104A500090E00E94901E0895685A673120F480E02B
:104A600090E00E947A1E0895CF93882309F49AC09B
:104A7000C82F8CEF8C0F813A08F05EC080910A013C
:104A80008823E1F08091F50287FF18C0EC2FE695AE
:104A9000E695E695F0E0E456FE4F8281282F30E05F
:104AA0004C2F477081E090E002C0880F991F4A9513
:104AB000E2F782239323892B59F411C0EEE9F1E048
:104AC0008191C81729F081E0E43AF807C9F707C0D7
:104AD0006C2F8CE991E00E94521E0E94DE0C8091A6
:104AE0000A018823C9F08091F50287FF15C0AC2F19
:104AF000A695A695A695B0E0A456BE4FC77081E0D6
:104B000090E001C0880FCA95EAF712969C9112971F
:104B1000892B12968C9320C0AEE9B1E0EFEF80E0D4
:104B20009D91C917C9F0EF3F19F4911101C0E82F09
:104B30008F5F8630A9F72DC080E28C0F883078F423
:104B4000C77081E090E001C0880FCA95EAF79091A4
:104B50002302892B809323020E94DE0C23C0EBE505
:104B6000EC0FE33040F4F0E0E95DFE4F808190E02F
:104B70000E94901E17C0C85AC731A0F4EC2FF0E075
:104B8000EE0FFF1FE65DFE4F808191810E947A1E2D
:104B900009C0EF3F09F30E2E000CFF0BE456FE4F49
:104BA000C283DACFCF9108951F93CF93DF93182F4D
:104BB000EB010E943425209741F08FE99FE0019797
:104BC000F1F700C000002197F6CF812F0E94082541
:104BD000DF91CF911F9108951092B9008CE08093DE
:104BE000B8000895A0E0B0E0E8EFF5E20C94DB2611
:104BF000B82EEB010E941D1E6C01C431D10558F086
:104C0000CF3F8FEFD80759F0CE0164E170E00E94EA
:104C1000C0267B0107C0EE24E394F12C03C025E0FD
:104C2000E22EF12C84E8A82E94EA992E1092BC0072
:104C30009092BC000E941D1E8C018091BC0087FDDB
:104C400008C00E941D1E801B910B8E159F05A8F3A6
:104C50002AC08091B900887F883041F08091B900E6
:104C6000887F803119F00FEF1FEF1FC0B092BB009B
:104C7000A092BC000E941D1E8C018091BC0087FD8B
:104C800008C00E941D1E801B910B8E159F05A8F366
:104C90000AC08091B900887F883111F0803419F7FB
:104CA00000E010E00EC00EEF1FEFCF3F8FEFD807F0
:104CB00009F4BCCFC6010E940E1E8C179D0708F494
:104CC000B5CFC801CDB7DEB7EBE00C94F7260F9354
:104CD0001F93CF93DF93EB018093BB0084E8809315
:104CE000BC000E941D1E8C018091BC0087FD0EC07F
:104CF000CF3F8FEFD807C1F30E941D1E801B910B81
:104D00008C179D0788F38EEF9FEF0CC02091B900A0
:104D1000287F81E090E0283211F480E090E09195C6
:104D200081959109DF91CF911F910F9108950F9374
:104D30001F93CF93DF93EC0184E88093BC000E9423
:104D40001D1E8C018091BC0087FD0EC0CF3F8FEFF0
:104D5000D807C1F30E941D1E801B910B8C179D0765
:104D600088F38EEF9FEF03C08091BB0090E0DF914E
:104D7000CF911F910F91089584E98093BC0008950D
:104D8000AA1BBB1B51E107C0AA1FBB1FA617B70771
:104D900010F0A61BB70B881F991F5A95A9F780958D
:104DA0009095BC01CD0108952F923F924F925F9252
:104DB0006F927F928F929F92AF92BF92CF92DF922B
:104DC000EF92FF920F931F93CF93DF93CDB7DEB790
:104DD000CA1BDB0B0FB6F894DEBF0FBECDBF099424
:104DE0002A88398848885F846E847D848C849B847B
:104DF000AA84B984C884DF80EE80FD800C811B8189
:104E0000AA81B981CE0FD11D0FB6F894DEBF0FBEB7
:104E1000CDBFED0108958F929F92AF92BF92CF9236
:104E2000DF92EF92FF92CF93DF93EC01688179815B
:104E30008A819B81611571058105910521F464E2E8
:104E400079ED8BE597E02DE133EF41E050E00E94F2
:104E5000BF2749015A019B01AC01A7EAB1E40E94B6
:104E6000DE276B017C01ACEEB4EFA50194010E943A
:104E7000EC27DC01CB018C0D9D1DAE1DBF1DB7FFC6
:104E800003C00197A109B04888839983AA83BB8393
:104E90009F77DF91CF91FF90EF90DF90CF90BF9001
:104EA000AF909F908F9008950E940B27089580E007
:104EB00091E00E940B270895A0E0B0E080930001EC
:104EC00090930101A0930201B09303010895DC01C6
:104ED000CB01FC01F999FECF06C0F2BDE1BDF89A05
:104EE000319600B40D9241505040B8F70895F999A9
:104EF000FECF92BD81BDF89A992780B50895A6E1AD
:104F0000B0E044E050E00C946927A8E1B0E042E052
:104F100050E00C946927DC01A40FB51F41505040AC
:104F200048F0CB01840F951F2E910E949C27415081
:104F30005040D0F70895262FF999FECF92BD81BD3C
:104F4000F89A019700B4021639F01FBA20BD0FB6C7
:104F5000F894FA9AF99A0FBE08950396272F0E94A3
:104F60009C270E949B27252F0E949C27242F0C946E
:104F70009C270196272F0E949C270C949B27052E87
:104F800097FB1EF400940E94D62757FD07D00E947D
:104F9000F12707FC03D04EF40C94D627509540958A
:104FA000309521953F4F4F4F5F4F089590958095D5
:104FB000709561957F4F8F4F9F4F08950E941328E2
:104FC000A59F900DB49F900DA49F800D911D11245D
:104FD0000895B7FF0C94DE270E94DE27821B930BF7
:104FE0000895A1E21A2EAA1BBB1BFD010DC0AA1F2A
:104FF000BB1FEE1FFF1FA217B307E407F50720F042
:10500000A21BB30BE40BF50B661F771F881F991FBC
:105010001A9469F760957095809590959B01AC0105
:10502000BD01CF010895A29FB001B39FC001A39F0E
:10503000700D811D1124911DB29F700D811D1124D1
:10504000911D089587FB082E062687FD819567FD33
:1050500061950E9459280EF4919507FC8195089559
:1050600097FB072E16F4009407D077FD09D00E9415
:10507000C02607FC05D03EF4909581959F4F08957A
:10508000709561957F4F0895EE0FFF1F0590F49185
:10509000E02D09940E941328332312F48A1B9B0BE2
:1050A0000C9454280E941328B7FF0895821B930B79
:1050B0000895991B79E004C0991F961708F0961B74
:1050C000881F7A95C9F7809508950F931F93CF9302
:1050D000DF938230910510F482E090E0E091330399
:1050E000F091340320E030E0A0E0B0E0309719F117
:1050F000408151810281138148175907C8F08417F4
:10510000950769F4109731F012960C931297139645
:105110001C9327C0009333031093340322C021153E
:10512000310519F04217530718F49A01BD01EF0138
:10513000DF01F801DBCF21153105F9F0281B390B10
:105140002430310580F48A819B816115710521F03D
:10515000FB019383828304C09093340380933303D1
:10516000FE01329644C0FE01E20FF31F819391933A
:1051700022503109398328833AC02091310330917C
:105180003203232B41F42091060130910701309323
:105190003203209331032091040130910501211540
:1051A000310541F42DB73EB74091080150910901F6
:1051B000241B350BE0913103F0913203E217F30722
:1051C000A0F42E1B3F0B2817390778F0AC014E5F77
:1051D0005F4F2417350748F04E0F5F1F509332037F
:1051E000409331038193919302C0E0E0F0E0CF015E
:1051F000DF91CF911F910F910895CF93DF93009787
:1052000009F481C0FC01329713821282A09133030A
:10521000B0913403109781F420813181820F931F64
:1052200020913103309132032817390751F5F0935B
:105230003203E093310367C0ED0120E030E0CE1788
:10524000DF0740F44A815B819E0141155105F1F071
:10525000EA01F5CFD383C28340815181840F951F2A
:10526000C817D90759F488819981840F951F029630
:10527000918380838A819B81938382832115310569
:1052800029F4F0933403E09333033DC0E901FB8339
:10529000EA8349915991C40FD51FEC17FD0761F4BA
:1052A00080819181840F951F0296E90199838883FB
:1052B000828193819B838A83E0E0F0E012968D9156
:1052C0009C911397009719F0FD01DC01F7CF8D91A8
:1052D0009C9111979D012E5F3F4F820F931F20914C
:1052E0003103309132032817390769F4309729F4D4
:1052F000109234031092330302C013821282B093CF
:105300003203A0933103DF91CF910895FC01415006
:10531000504030F001900616D1F73197CF01089533
:10532000882799270895FB01DC0104C08D91019025
:10533000801921F441505040C8F7881B990B0895FB
:04534000F894FFCF0F
:1053440001000000000035032000011C1D1F1D1B6F
:105354001D3E1139113811200001191A1B1C1D1E84
:105364001F202122010201818283E200E900EA0078
:10537400B500B600B700CD008301CC008A019201CC
:1053840094012102230224022502260227022A0272
:10539400B300B4006F00700040226D53043104C4A4
:1053A40003A504BE04DE0457724B59342F364C4116
:1053B4004B4E000001020202020606060909090911
:1053C40009090F0F0F0F0F0F1515151819191919B2
:0853D4001919191919192324F4
:00000001FF
