:100000000C94C9030C94E6030C94E6030C94E603E9
:100010000C94E6030C94E6030C94E6030C94E603BC
:100020000C94E6030C94E6030C94A2140C94E413D1
:100030000C94181E0C94E6030C94E6030C94E6034F
:100040000C94E6030C94E6030C94E6030C94E6038C
:100050000C94E6030C94AC150C94E6030C94E603A4
:100060000C94E6030C94E6030C94E6030C94E6036C
:100070000C94E6030C94E6030C94E6030C94E6035C
:100080000C94E6030C94E6030C94E6030C94E6034C
:100090000C94E6030C94E6030C94E6030C94E6033C
:1000A0000C94E6030C94E6030C94E6035D075D07ED
:1000B0008F078F07F9079F099F099F091508F30804
:1000C00004090409FC112312CC132312CC136F1260
:1000D0009212CC13871397132B2530253A252E2502
:1000E00033253825362568266B266E26712674261C
:1000F00077267A260101E001043130307C01014F7E
:10010000000101E001043130307C01015000290080
:100110002B00E000E100010000001E0014000400BC
:100120001D00AE5D4D001F001A0016001B00E1040B
:10013000E3002000080007000600500002542100E0
:1001400015000900190002544A00220017000A0095
:100150000500000065640100B25D00004A00000077
:10016000E3000100B35D00004D000000E200230049
:100170001C000B0011000000E600240018000D0018
:10018000100001544B0025000C000E0036005000FA
:100190000154260012000F00370051002C002700E8
:1001A00013003300380052004E0035022A002800A8
:1001B00034004F00000001000100010001000100B7
:1001C0000000010001002D020100010001000100FA
:1001D00031023100010001000100010001002E0286
:1001E000010001000100010001002D0001000100DB
:1001F0000100010001002E000100000001000100CB
:1002000001000000010000000100010001000000E9
:1002100001000000010001000100010001000000D8
:10022000010001002F002F02260201000100010041
:10023000300030022702010001000100010001002E
:1002400001000100010001000100010001000100A6
:100250000100010001000100010001000000010097
:100260000100E000E10001000000010001000100C8
:100270000100010001000100010001000100010076
:100280000100010001000100010001000100010066
:100290000100010001000100010001000100010056
:1002A0000100000001000100010000000100000049
:1002B0000100010001000000010000000100010038
:1002C0000100500001000000010001000100510088
:1002D00001000100010001000100520001000100C5
:1002E0000100010001004F000100010001000100B8
:1002F00001000100010001000100010001000100F6
:1003000001000100000005010980A1018503190118
:100310002AB700150126B700950175108100C005A8
:100320000C0901A101850419012AA002150126A0CA
:1003300002950175108100C005010906A10185061D
:10034000050719E029E715002501950875018102C7
:100350000507190029EF1500250195F075018102A7
:100360000508190129059505750191029501750387
:100370009101C00660FF0961A1010962150026FF15
:10038000009520750881020963150026FF0095205D
:1003900075089102C005010906A101050719E029A8
:1003A000E715002501950875018102950175088101
:1003B000010507190029FF150026FF00950675089D
:1003C000810005081901290595057501910295011E
:1003D00075039101C009025B00030100A0FA090442
:1003E0000000010301010009211101000122400068
:1003F0000705810308000109040100020300000051
:1004000009211101000122220007058203200001B9
:100410000705030320000109040200010300000096
:10042000092111010001226D00070584032000014C
:100430001201000200000008973276490100010213
:10044000000120034500720067006F0044006F0048
:100450007800200045005A00200047006C006F0023
:100460007700000028035A00530041002000540088
:100470006500630068006E006F006C006F0067002D
:10048000790020004C00610062007300000004034A
:10049000090400010101010101010101020202023E
:1004A000020202020203030303030303030404041E
:1004B00004040404050505050506060606060707E7
:1004C00007070708080808090909090A0A0A0B0B9F
:1004D0000B0C0C0C0D0D0D0E0E0E0F0F0F1010113E
:1004E00011111212131314141515161617171818C4
:1004F00019191A1A1B1B1C1D1D1E1E1F202021222C
:1005000022232424252626272829292A2B2C2D2D71
:100510002E2F30313232333435363738393A3B3C8E
:100520003D3E3F404142434445464748494A4C4D81
:100530004E4F50515354555658595A5B5D5E5F614A
:100540006264656668696B6C6D6F707273757778DD
:100550007A7B7D7E8082838587888A8C8E8F91933B
:100560009596989A9C9EA0A2A3A5A7A9ABADAFB162
:10057000B3B5B7BABCBEC0C2C4C6C9CBCDCFD1D447
:10058000D6D8DBDDDFE2E4E7E9EBEEF0F3F5F8FAED
:10059000FDFF86E2BF86E2BF86E2BF86E2BF86E25B
:1005A000BF86E2BF86E2BF86E2BF86E2BF86E2BFC9
:1005B00086E2BF86E2BF86E2BF86E2BF86E2BF86F2
:1005C000E2BF86E2BF86E2BF86E2BF86E2BF86E286
:1005D000BF86E2BF86E2BF86E2BF86E2BF86E2BF99
:1005E00086E2BF86E2BF86E2BF86E2BF86E2BF86C2
:1005F000E2BF86E2BF86E2BF86E2BF86E2BF86E256
:10060000BF86E2BF86E2BF86E2BF86E2BF86E2BF68
:1006100086E2BF86E2BF86E2BF86E2BF86E2BF8691
:10062000E2BF00443454007464840055456500857D
:1006300075950036264600665676009686A60037E3
:10064000274700776787003828480088789800395E
:10065000294900695979009989A9003A2A4A006A0A
:100660005A7A003B2B4B006B5B7B004C3C5C007C64
:100670006C8C005D4D6D008D7D9D003E2E4E006E9C
:100680005E7E0144345401746484015545650185DE
:1006900075950136264601665676019686A601377F
:1006A00027470177678701382848018878980139FA
:1006B000294901695979019989A9013A2A4A016AA6
:1006C0005A7A013B2B4B016B5B7B014C3C5C017C00
:1006D0006C8C015D4D6D018D7D9D013E2E4E016E38
:1006E0005E7E00000000000000000000000000002E
:1006F00000000000000000000000000000000000FA
:100700000000000000007E0F00D4FFFFFFC70000C4
:10071000007800000000000000002A2B28000000E4
:1007200000000000000000000000000000290000A0
:1007300000002C1E3420212224342627252E362D7D
:100740003738271E1F202122232425263333362E17
:1007500037381F0405060708090A0B0C0D0E0F1089
:100760001112131415161718191A1B1C1D2F3130CE
:10077000232D350405060708090A0B0C0D0E0F1072
:100780001112131415161718191A1B1C1D2F3130AE
:10079000354C11241FBECFEFDAE0DEBFCDBF12E033
:1007A000A0E0B1E0EEE0F1E602C005900D92AA35BE
:1007B000B107D9F725E0AAE5B2E001C01D92A33147
:1007C000B207E1F70E9454200C9485300C9400008D
:1007D000A5E2B0E0EEEEF3E00C94502CFC01808139
:1007E000918123813481232B31F09F3F31F491E0BB
:1007F0008F3F19F403C091E001C090E090FDCCC59B
:100800007F0185E0DE01919601900D928A95E1F7D6
:10081000D70112962C9189A19AA1222349F00E9416
:10082000DE26182F682F89A19AA10E945C2703C099
:100830000E942727182F69A17AA1812F0E94150AEB
:100840008C0180910505882309F44FC0F70182814E
:10085000811191C1E0915C02E330A0F481E08E0F40
:1008600080935C02F0E0EE0FFF1FE354FB4FD701D3
:100870008D919C919183808382E08983CE01019642
:100880000E949429BFEFE3EDF0E3B150E040F04067
:10089000E1F700C0000080915C02833009F06BC179
:1008A00010925C02E3ECF4E0ADEBB4E089EC94E090
:1008B000318111962C911197321330C030812C91D7
:1008C00032132CC0329612968E179F0789F784E058
:1008D000898381E0809306058EEF8A831092050557
:1008E000CE0101960E94942946C180910605882375
:1008F000D1F0D70112968C91882311F086E001C0C7
:1009000087E08983F70180818A8381818B838EEFE1
:100910008C83CE0101960E94942905C083E08983CF
:1009200010920605D9CF0F3AFDE51F0709F043C025
:10093000D70112968C91882309F4BCC090912303AF
:1009400081E0890F8770987F853020F4892B809310
:10095000230302C090932303809123038770BFEF8A
:100960008B9FC0011124959587959595879599271B
:10097000909389008093880090938B0080938A00E5
:1009800090938D0080938C00409123035091240319
:1009900060912503709126038FE090E00E942C2D3A
:1009A00060911F0370912003809121039091220395
:1009B0000E9411257FC0003B2DE5120721F5F701AC
:1009C0008281882309F476C08091230383FB222748
:1009D00020F991E0922790FB83F9809323039923D8
:1009E00029F040E060E080E00E94E8174091230396
:1009F0005091240360912503709126038FE090E0CD
:100A00000E942C2D57C0033C3CE5130751F5D7013C
:100A100012968C91882309F4AEC090910E058091B6
:100A200023039F3F59F410920E058F7E809323037A
:100A300040E060E080E00E94E81706C09FEF9093DE
:100A40000E0580618093230340912303509124037A
:100A500060912503709126038FE090E00E942C2D79
:100A60008AC0023BBDE51B0749F0033BEDE51E07CD
:100A700069F0013BFDE51F0791F018C0D701129600
:100A80008C918823B9F081E091E006C0F701828162
:100A9000882381F084EF90E00E9431240BC0D701BD
:100AA00012968C91882309F466C035C00E3A8DE504
:100AB0001807E1F180918504882309F43EC1D090A4
:100AC000ED02C090D6020E94E11588579C4E90938B
:100AD000BB048093BA04D70112968C9181115EC039
:100AE0008091ED0282720B3CECE51E0709F410C107
:100AF00008F4B9C0003D9CE5190709F41AC188F54E
:100B00000D3CBCE51B0709F40DC108F406C10E3C01
:100B1000FCE51F0711F481E006C00F3C2CE512072D
:100B200009F07FC185E00E94512925C0F70182812B
:100B3000882309F180918504882319F00E94A21E60
:100B40001AC01092ED020E94340C0E94E1158857E1
:100B50009C4E9093BB048093BA0481E080938504FB
:100B60000AC0073D3CE5130708F4ADC00F359DE50D
:100B7000190709F056C18091B502877009F40CC4B9
:100B8000D70112968C91882309F406C48091E8025B
:100B900082FF02C482E00E94960CFEC38C2D8D2938
:100BA0008D7909F05DC00115B5E51B07B0F401159D
:100BB000E3E51E0708F0C1C00115F0E51F0740F48A
:100BC000011520E4120708F5063E110539F5B5C0F8
:100BD000011532E5130710F5B0C0011589E51807B6
:100BE00050F4011598E5190708F0A7C00431A5E5F0
:100BF0001A07A1F4A2C0C80190568115904270F462
:100C0000F7018581807F39F42BC0D70115968C912F
:100C1000807F09F492C0C801992701C0C8011092D1
:100C200084048832910538F48E31910508F083C030
:100C30000497B0F011C08D32910571F020F48A97BD
:100C400009F479C00DC08C34910509F474C08D325B
:100C5000924009F470C004C082E0809384046BC0A9
:100C60000E94A21E6AC0063C2CE51207E9F1C0F4FE
:100C7000043C9CE5190771F190F5033CBCE51B07AA
:100C800009F0CFC09091090581E08927809309057B
:100C900010921E01809108058160809308056BCF3A
:100CA000083CECE51E0751F120F1093C2CE5120748
:100CB00051F10A3C3CE5130709F0B3C04BEB5DE191
:100CC00068EC7DE133C0023D8CE5180708F053CF96
:100CD00081E129CF43E05EE16DE07EE127C04DE098
:100CE0005EE163E07EE122C04FEE5DE169EF7DE110
:100CF0001DC049EF5DE16FEE7DE118C045ED5DE19E
:100D000062EE7DE113C042EE5DE165ED7DE10EC076
:100D100048EC5DE16BEB7DE109C045ED5BE163EE25
:100D20007BE104C043EE5BE165ED7BE10E94CF1EF9
:100D300022CF8CE0F8CE0E94410CD70112968C9104
:100D4000882309F4CDCE0C35ADE51A0709F464C04B
:100D500060F40115ECE51E07A9F00F3DFCE51F0747
:100D600009F05FC00E94B70B4CC00E352DE512078D
:100D700009F44AC008F452C0093A8DE5180709F48D
:100D800040C04FC01092ED020E9448289FEFA4E39C
:100D9000BCE09150A040B040E1F700C00000F894E2
:100DA00081E08093E00080E28093D8001092C90037
:100DB000EFE1FEE43197F1F700C000001DBA109298
:100DC00068001CBC10BE1FBA10927A0010926E0010
:100DD00010926F0010927100109272001092C90070
:100DE0001092BC0014B817B81AB81DB810BA1092F7
:100DF000BC0015B818B81BB81EB811BA0C94003F47
:100E0000BACE0E94F924B7CE8091E80282FB8827EF
:100E100080F991E0892703C081E001C080E00E9451
:100E2000B30CF701828100811181882349F0C80148
:100E30000E94DE26D82E682FC8010E945C2704C0BD
:100E4000C8010E942727D82EB8018D2D0E94150AAF
:100E50000E942E0A8C01982EF701D280A580A294C0
:100E60009FE0A9228091B5028770B9F0DD20A9F03A
:100E7000812F807F803421F080E2800F883068F0FD
:100E80008091E80282FF09C082E00E94960C809166
:100E9000B5028770CC24C3948111C12CB12EB294B9
:100EA0008FE0B8228B2D90E08C30910508F047C27E
:100EB000FC01EA5AFF4F0C94512F812F807F1F7045
:100EC000882311F01295107FDD20B9F0112309F469
:100ED00023C280E2800F883010F0911006C080910C
:100EE000ED02182B1093ED0205C080918404182B9D
:100EF000109384040E94410C0FC2802F0E946D2821
:100F0000112309F41CC2005E083078F1992069F1C0
:100F100010958091840418231093840429C0812F94
:100F2000807F1F70803211F01295107F992021F080
:100F3000F1E09F16D9F147C08091E80282FD1BC005
:100F4000DD2069F0112339F08091ED02182B109308
:100F5000ED020E94410C80E00E949928F0C180E0DF
:100F60000E946D28112309F4EAC1812F0E943A0CD6
:100F70000E94410CE4C1DD2081F08091D602AA20BC
:100F800051F001E0A01207C0182B181709F4D7C1BF
:100F90001093D602D4C1812B10C0AA2021F021E0E9
:100FA000A21609F4CCC10E94340C1FC0DD2041F010
:100FB00031E03A1508F4C3C1812F0E946328BFC1F4
:100FC000A110BDC112C0DD2019F0AA20A9F3A4C14F
:100FD000AA2059F0093309F0AFC18FEF97EEA3E0D3
:100FE00081509040A040E1F7A5C1812F0E945C286C
:100FF000A6C1812F86958695837019F0813059F0AE
:101000009EC1DD2019F0C801937002C080E090E01D
:101010000E947F1E9AC1DD2019F0C801937002C0A2
:1010200080E090E00E94691E90C1812F837009F0DA
:1010300069C0D11088C1902F929596959770990F9D
:10104000990F802F8F70882E912CA12CB12C092EF6
:1010500004C0880C991CAA1CBB1C0A94D2F704FF7C
:1010600012C04FE050E060E070E004C0440F551F34
:10107000661F771F9A95D2F7DB01CA01809590957C
:10108000A095B09503C080E090E0DC011695169520
:10109000412F4370423019F1C8F40091D7021091EA
:1010A000D8022091D9023091DA02413059F08829D2
:1010B0009929AA29BB29BC01CD0160237123822370
:1010C00093230AC0802A912AA22AB32ABC01CD0107
:1010D000682979298A299B290E941D2834C18829D9
:1010E0009929AA29BB290091D7021091D8022091F1
:1010F000D9023091DA02BC01CD0160277127822725
:101100009327EACFDD2019F0812F817001C08695E9
:10111000882309F418C1902F929596959770990F8E
:10112000990F802F8F70882E912CA12CB12C092E15
:1011300004C0880C991CAA1CBB1C0A94D2F704FF9B
:1011400012C04FE050E060E070E004C0440F551F53
:10115000661F771F9A95D2F7DB01CA01809590959B
:10116000A095B09503C080E090E0DC01169516953F
:10117000412F43704230D9F068F500911F03109160
:1011800020032091210330912203413059F0882916
:101190009929AA29BB29BC01CD016023712382238F
:1011A00093231EC0802A912AA22AB32A13C0882919
:1011B0009929AA29BB2900911F031091200320918E
:1011C000210330912203BC01CD01602771278227C2
:1011D000932706C0BC01CD01682979298A299B295A
:1011E0000E949227B0C01F70DD2039F0812F0E942D
:1011F000FB27802F0E946328A6C0802F0E945C28B6
:10120000812F0E94D5279FC0802FB2EF9B1609F433
:1012100041C0B91538F0E0EF9E1659F0F1EF9F1676
:10122000A1F175C023EF9216E1F134EF931649F165
:101230006EC0DD2009F1A11082C01F7181E090E035
:10124000A0E0B0E0AC01BD0104C0440F551F661F13
:10125000771F1A95D2F780911F0390912003A091D8
:101260002103B09122038A019B01082719272A270D
:101270003B27C901B80129C021E02A1508F45FC045
:10128000DCCF8091E80282FD23C0DD2029F0812F90
:101290008F7130C0DD20D9F3812F8F710E94D52747
:1012A0004EC0DD2079F01F7181E090E0A0E0B0E059
:1012B000BC01CD0104C0660F771F881F991F1A95C6
:1012C000D2F703C060E070E0CB010E94922737C0E4
:1012D000DD2099F01F71812F0E94FB278091E80289
:1012E00082FF07C038E0139FC00111248360809300
:1012F000B502812F0E94FB2722C081E00E94960C3C
:1013000081E08A15E0F482E00E94960C18C0DD208E
:1013100029F0AA2009F4BBCF802F1ECEAA2009F401
:10132000BBCF893349F49FEFA7EEB3E09150A040C3
:10133000B040E1F700C00000802F0E946D2888EFC8
:101340008B0D843010F40E94951ECC20A9F0809162
:10135000B50280FD11C0F7011282859585958595AE
:101360000E94FB27C7010E94E8038091B502859582
:10137000859585950E94D52785E0F701DE011196B8
:1013800001900D928A95E1F709811A81C8010E94A6
:101390002727B8010E94150AA596ECE00C946C2C46
:1013A00080E008959091E70292FF0DC0282F2871E8
:1013B000283019F4877F846006C0282F24712430D8
:1013C00011F48B7F886093FF0DC0282F287128317E
:1013D00019F4877E846106C0282F2471243111F40A
:1013E0008B7E88612091E80220FF0DC0382F387174
:1013F000383019F4877F816006C0382F3171313061
:1014000011F48E7F886021FF0DC0282F28712831AC
:1014100019F4877E816106C0282F2171213111F4D2
:101420008E7E886194FD877E08957E30A0F46630BC
:1014300090F494E5899FF001112486E0789FE00DF7
:10144000F11D1124E60FF11DEE0FFF1FE25FFE4FAD
:1014500085919491089580E090E00895CF93DF9373
:101460008238910569F1B0F48133910509F46FC0B8
:1014700048F48932910509F465C08A32910509F46E
:101480006BC08AC08533910509F457C08933910533
:10149000B9F082C0833E910571F138F4803E910528
:1014A000B1F0823E910511F177C0863E9105B9F108
:1014B000873E9105C9F1843E910509F06DC024C0B5
:1014C0002091E70220FD53C021FD51C065C08091ED
:1014D000E70280FD46C08091E80280FF48C080910D
:1014E000E70284FD3FC183EE90E03EC18091E702B8
:1014F00082FF3AC0F4CF8091E70282FD35C080912F
:10150000E80280FD34C0EBCF8091E80281FF35C056
:101510008091E70284FD26C187EE90E025C180918D
:10152000E70283FF27C0F4CF8091E70283FD22C04A
:101530008091E80281FD21C0EBCF8091E70285FD1B
:101540001FC021C08091E70285FD1DC019C0809198
:10155000E70286FD1BC01DC08091E70286FD19C011
:1015600015C089E390E000C182EE90E0FDC080EEFE
:1015700090E0FAC086EE90E0F7C084EE90E0F4C010
:1015800089E290E0F1C085E390E0EEC08AE290E06D
:10159000EBC081E390E0E8C0811532E5930708F0E5
:1015A00069C0811541E5940728F0982F8827816F3D
:1015B000906ADAC0883E910568F5803E910508F092
:1015C000D3C0883A9105B8F4853A910548F0855A18
:1015D000E82FF0E0EE5DFE4F808190E09064C4C0A3
:1015E0008130910509F4BBC008F4BCC0843091057A
:1015F00008F4B8C0B9C08F3B910508F0B3C0885A51
:10160000E82FF0E0EE0FFF1FEB5DFE4F8081918130
:101610009464AAC0811520E59207F0F09C0174E063
:10162000369527957A95E1F7922F9370482F43705E
:1016300021E030E002C0220F331F4A95E2F73C68F8
:10164000392B8F70982F9695969540E2949FC00104
:101650001124822B932B88C0811530E4930718F056
:101660009F70906A81C09C013A9521153F4108F412
:101670007BC078C0EC01C11586E5D807E8F5C11537
:1016800025E5D20748F08C2F0E94D2098F7190E097
:10169000982F8827906268C0C11534E5D30728F0D9
:1016A0009C2F8827846F906A5FC0AE0143705527D6
:1016B0002C2F26952695C115D34578F481E090E02E
:1016C00002C0880F991F4A95E2F740E2249F9001DB
:1016D0001124822B932B9C6847C081E090E002C0CC
:1016E000880F991F4A95E2F740E2249F9001112448
:1016F000822B932B9A6838C0C1152AE5D207F8F4DB
:10170000C11539E5D30790F08C2F8F700E94D20954
:1017100094E0D695C7959A95E1F7CF70D0E0DC2F8D
:10172000CC27D0699E01282BC9011EC0C11548E5F0
:10173000D407C0F09C2F8827806F906A15C0CE0117
:1017400090568115904270F48D2F8F710E94D209AE
:10175000282F2F71CE0199279062922B05C081E02E
:1017600090E002C080E090E0DF91CF91089568EEB4
:101770007EEF80E090E00E94382D60E082E090E013
:101780000E941A2D60E083E090E00E941A2D1092D2
:10179000D7021092D8021092D9021092DA0260E0B9
:1017A00084E090E00E941A2D64E082E290E00E94C2
:1017B0001A2D60E085E090E00E941A2D60E086E03E
:1017C00090E00E941A2D6FEF87E090E00E941A2DA2
:1017D00040E050E0BA0188E090E00E942C2D60E0EB
:1017E0008DE090E00E941A2D40E050E0BA0188E1BF
:1017F00090E00E942C2D60E087E190E00E941A2D7D
:1018000040E050E0BA018CE190E00E942C2D60E0B5
:1018100070E080E290E00E94382D40E050E0BA0194
:1018200088E190E00E942C2D109223031092240353
:10183000109225031092260384E080618093230395
:101840004091230350912403609125037091260356
:101850008FE090E00E942C2D40E050E0BA0183E13F
:1018600090E00E942C2D08958091D6028111109253
:10187000D602089580959091ED0289238093ED0220
:1018800008959091ED0280918404982B90935D02CD
:101890008091D6028823D9F0892B80935D028091B4
:1018A0000A01882331F08091E70287FF02C08EE1B0
:1018B00001C086E0EFE5F2E090E0815028F0219150
:1018C0002223D9F39F5FF9CF91110E94340C40E29B
:1018D00050E066EB72E08DE592E00E947830892B53
:1018E00021F180E2EDE5F2E0A6EBB2E001900D928D
:1018F0008A95E1F7E0918804F09189043097A9F086
:1019000080910A01882359F08091E70287FF07C080
:1019100080915D0280935E0286E080935D0202808A
:10192000F381E02D8DE592E0099508952091B502AF
:10193000809582238093B502982F977099F430E0B8
:10194000482F082E000C550B2417350759F090919D
:10195000E80292FF07C08595859585950E94D52759
:101960001092B5020895CF93C091E802C2FB992767
:1019700090F9981791F080FBC2F9C093E80260914A
:10198000E70284E090E00E941A2D6C2F82E290E042
:101990000E941A2D82E00E94960CCF9108958091AA
:1019A000B40290918302891719F08F5F8770FBCF83
:1019B00008950F931F93CF93DF93809182028295B6
:1019C0008F7009F05AC080917F02882309F455C0B6
:1019D0008091B4021091830260917D0270917E0229
:1019E000C0918002D091810291E06F3F09F090E0B8
:1019F000292F06E0811709F440C0209721F07F3F8E
:101A000021F030E003C031E001C0322F90E030FD22
:101A100031C0089FF001099FF00D1124DF01AC5780
:101A2000BD4F11963C911197371324C03C9136134A
:101A300021C012963C91129731111CC013964D9102
:101A40005C9114974C1B5D0B483C510598F48091B8
:101A500082028F70806180938202E757FD4F808100
:101A60008F70806180838DE792E00E94E8030E947E
:101A7000CF0C03C001968770BDCFDF91CF911F912E
:101A80000F910895A1E1B0E0E8E4FDE00C94512C41
:101A90008C0185E0F801DE011D9601900D928A957A
:101AA000E1F7F801E28090917D0260917E02409121
:101AB0008002509181024115510531F06F3F31F4A0
:101AC00081E09F3F19F403C081E001C080E0F82F5E
:101AD000F1709F2E80FD1BC1F80130812181C380F0
:101AE000D4808DE7A82E82E0B82EF0907F02F60118
:101AF000E41BF50BFF2009F4C7C080918202E83C8B
:101B0000F10508F092C0482F407F09F051C06213E0
:101B100011C093130FC0FE2CE1100CC08F708061B8
:101B200080938202C5010E94E80380918202F8013D
:101B300085832AC1C114D10431F02F3F31F481E0F3
:101B40003F3F19F403C081E001C080E080FD03C085
:101B500081E08E2502C080E090E0F82FF170FF2E2A
:101B600080FF1CC08091B4024091830256E084172C
:101B700009F4E8C090E0589FF001599FF00D11243E
:101B8000EC57FD4F6181261306C06081631303C0CB
:101B90006281E61203C001968770E9CFFE2CEE2029
:101BA00009F4F2C08091820281608093820249C070
:101BB000621306C0931304C0E11002C0F80186C08E
:101BC000C8010E942828882351F1EE2041F120917C
:101BD0008202822F82958F7090E0029774F080913C
:101BE0007D0290917E0298878F831986DB86CA8654
:101BF0002C87CE0107960E94E80386E0F801ADE746
:101C0000B2E001900D928A95E1F70E94D90C0AC0CA
:101C10006217C9F0C8010E94282881111EC0C8019E
:101C20000E94E803FF24F394AFC0482F407F81F760
:101C30008DE792E00E94E80386E0F50111928A9513
:101C4000E9F7F12CA1C09313E5CFE110E3CFF80140
:101C50008583C8010E94E80354C0EE2001F320915F
:101C60008202822F82958F7090E0029734F28091E9
:101C70007D0290917E029A8389831B82DD82CC82D1
:101C80002E83CE010196B7CFE83CF105D0F5FE2CAE
:101C9000EE2029F2621327C0931325C020918202FF
:101CA00020FD18C0822F82958F70482F50E041157B
:101CB000510581F0F80125834F30510541F08F5FC8
:101CC000982F9295907F822F8F70892B8583C801E2
:101CD0000E94E80386E0F801ADE7B2E001900D92C2
:101CE0008A95E1F751C0C8010E942828811185CF4B
:101CF00080918202816080938202C8010E94E80381
:101D000043C086E0F50111928A95E9F73DC0EE20C7
:101D100009F485CFC8010E942828F82E882309F4E9
:101D20007ECF86E0F801ADE7B2E001900D928A9592
:101D3000E1F780917D0290917E020E941A270E9415
:101D4000D90C22C03D872E878D859E850E941A273B
:101D5000292F22952F70223028F49F7039F081119D
:101D600005C00BC0243028F49F7049F4805E883091
:101D700020F0C8010E94E8039F2CF92C05C0F8014F
:101D80009581907F99F7F9CF8F2D6196EBE00C94B8
:101D90006D2CA0E0B0E0EFECFEE00C94532C8091B1
:101DA000190190911A01892BA1F08091DB028F5FBC
:101DB0008093DB0281110DC00E94432590E0909337
:101DC0001A0180931901892B21F40E94BA250E94DF
:101DD000421F0FE814E07801B12CC0E087E0C82E64
:101DE000CC0E8C2F0E942A268C2D0E942A268C2F06
:101DF0000E948D268F73F7019081891721F08083CF
:101E0000DD24D39401C0D12C8C2D0E948D268F739C
:101E1000F7019781891719F0878381E001C080E07D
:101E2000D82ABD280E947E26CF5FFFEFEF1AFF0A57
:101E3000C730A1F6C091DF02CC23C9F10E94E115A1
:101E40002091DD023091DE02AC01421B530B9A015E
:101E50009093DE028093DD024F3F510509F020F49C
:101E6000452B09F4AEC002C02FEF30E01092DF0224
:101E70001092DC02E0918D04F0918E04AF01425F7C
:101E80005F4F90E030E08081882341F0281718F000
:101E900010829C2F03C0821B80833C2F3196E41755
:101EA000F50789F73093DF029093DC028AC0BB20EC
:101EB00009F47EC00E94E1159093DE028093DD025A
:101EC000E0918D04F0918E048091DF02ADE9B4E0E1
:101ED0009F01225F3F4F4EE1E80199918E015C9195
:101EE000591731F05081511103C040839C9381E018
:101EF00031961196E217F30779F78093DF0220916C
:101F000005058091E1029091E202222309F43FC08D
:101F1000892B31F425982D9826982E9827982F985C
:101F20008091E1029091E2029170892B79F4809185
:101F3000E002882319F026982E9802C0269A2E9A3D
:101F40009091E00281E089278093E0028091E10294
:101F50009091E2028130984780F0109205056091DF
:101F60001F037091200380912103909122030E940E
:101F700011251092E2021092E1028091E10290910B
:101F8000E20201969093E2028093E1021EC0892B47
:101F9000E1F01092E2021092E10260911F03709151
:101FA000200380912103909122030E9411250DC0EE
:101FB00080E09091DC02992309F4A1CF811180CFB8
:101FC00079CFB1107DCF81E0F4CF8B2DCDB7DEB7C7
:101FD000E9E00C946F2C8091130387FF11C080916E
:101FE000E80082FD05C0809107058111F8CF11C07E
:101FF0008091E8008B770BC080910705882349F01A
:102000008091E80080FFF8CF8091E8008E77809380
:10201000E8000895982F973068F59093E900981795
:1020200039F07091EC002091ED005091F00003C068
:10203000242F762F50E021FD02C09F5FECCF30911E
:10204000EB003E7F3093EB003091ED003D7F30930D
:10205000ED003091EB0031603093EB007093EC00B9
:102060002093ED005093F0002091EE0027FDE5CF86
:1020700080E008958F708093E90081E008952091B9
:10208000190330911A032617370748F061157105B7
:1020900039F42091E8002E772093E80001C0B901BF
:1020A000FC0120E06115710579F180910705882315
:1020B000F1F18530F1F18091E80083FD3CC0809121
:1020C000E80082FD2EC08091E80080FFEBCF2091D8
:1020D000F3008091F20090E0922B6115710551F0B0
:1020E0008830910538F421912093F10061507109F5
:1020F0000196F3CF21E0089709F020E08091E800F5
:102100008E778093E800CECF2111CFCF0AC0809187
:102110000705882361F0853061F08091E80083FD38
:102120000AC08091E80082FFF2CF80E0089582E04B
:10213000089583E0089581E00895089508958091B9
:10214000EF0208958093E9027093EB026093EA0234
:10215000809107058430F9F48093E9008FEF909126
:10216000E800815095FD06C095ED9A95F1F70000C5
:102170008111F5CF8091E80085FF0DC040E050E06F
:1021800063E070E089EE92E00E946A298091E800A5
:102190008E778093E8000895BC0184E00E94A2102D
:1021A0000895BC0183E00E94A2100895CF93DF93AD
:1021B00020910A01222339F02091E70227FF03C072
:1021C00060E224E002C068E021E02093E9002FEF04
:1021D0003091E800215035FD06C035ED3A95F1F714
:1021E00000002111F5CF2091E80025FF1DC0EC0172
:1021F00080910A01811105C040E050E068E070E084
:1022000003C070E040E050E0CE010E946A29809156
:10221000E8008E778093E80080E2FE01A0EFB2E054
:1022200001900D928A95E1F7DF91CF910895AAE28E
:10223000B0E0EDE1F1E10C94592CE3E1F3E08BE146
:1022400093E02091F10021938E179F07D1F78091A1
:102250001403833009F463C030F4813071F08230AC
:1022600009F49FC0B6C08A3009F48BC08B3009F4E2
:102270006EC0893009F0ADC020C080911303813A4F
:1022800009F0A7C08091E800877F8093E8008091E3
:10229000170390911803892B21F460E280EF92E0FC
:1022A00003C060E080E090E070E00E943F10809109
:1022B000E8008B778093E8008CC080911303813213
:1022C00009F087C08091170390911803009719F0C7
:1022D000029709F07EC08091E800877F8093E80034
:1022E0008091E80082FD05C0809107058111F8CF3B
:1022F00070C02091F3008091F20090E0922B029741
:1023000031F48091F100813011F0863021F4809118
:10231000F1008093EF028091E8008B7756C08091A6
:102320001303813A09F055C0809117039091180367
:10233000892B09F04EC08091E800877F8093E800E8
:102340008091E80080FFFCCF80910A0139C0809124
:1023500013038132F1F58091170390911803892BB3
:10236000C1F58091E800877F8093E8000E94EB0F21
:102370008091150380930A011092ED020E94482873
:1023800028C080911303813221F58091E800877F76
:102390008093E8000E94EB0F809116038093EE0279
:1023A00018C080911303813AA1F48091E800877FDF
:1023B0008093E8008091E80080FFFCCF8091EE02DE
:1023C0008093F1008091E8008E778093E8000E946E
:1023D000EB0F8091E80083FFDFC1809113039091A0
:1023E0001403492F50E04A30510508F0D5C1FA01D5
:1023F000EE59FF4F0C94512F803821F0823809F0AC
:10240000CBC108C08091100390911103992389F0EA
:1024100082600FC0809117038F70873008F0BCC1B5
:102420008093E9008091EB0085FB882780F910926A
:10243000E9009091E800977F9093E8008093F10085
:102440001092F10070C1282F2D7F09F0A5C18823BB
:1024500019F0823061F0A0C180911503813009F03C
:102460009BC1933009F080E0809311032EC08091CE
:10247000150381112AC0809117038F702FEF280F49
:10248000263008F089C18093E9002091EB0020FFFD
:102490001CC0933021F48091EB00806214C09091B5
:1024A000EB0090619093EB0021E030E0A90102C0C5
:1024B000440F551F8A95E2F74093EA001092EA0014
:1024C0008091EB0088608093EB001092E90080918E
:1024D000E800877F8093E8000E94EB0F5DC18111C7
:1024E0005BC1109115031F778091E3008078812BE9
:1024F0008093E3008091E800877F8093E8000E944A
:10250000EB0F8091E80080FFFCCF8091E3008068B2
:102510008093E300111102C082E001C083E0809348
:1025200007053AC18058823008F036C12091150362
:10253000309116032C3D53E0350779F583E08A830B
:102540008AE289834FB7F894DE01139620E03EE0DB
:1025500051E2E32FF0E050935700E49120FF03C0D5
:10256000E295EF703F5FEF708E2F90E0EA3010F051
:10257000C79601C0C0968D939D932F5F243149F774
:102580004FBF8091E800877F8093E8006AE270E0A7
:10259000CE0101960E943F10B4C080911703909124
:1025A0001803432F552743305105A9F068F44130F3
:1025B000510509F400C14230510509F0EDC08BE529
:1025C00090E0E5EDF3E04BC04132510529F1423294
:1025D000510589F1E1C0C901992781309105A1F028
:1025E00058F0029709F0D8C0E2E4F4E0E4918E2FAD
:1025F00090E0E2E4F4E030C0EEE8F4E0E4918E2F05
:1026000090E0EEE8F4E028C0E4E6F4E0E4918E2FF8
:1026100090E0E4E6F4E020C08330910508F0BCC00F
:10262000880F991FFC01E45AFE4F0190F081E02DC4
:1026300089E090E014C08330910508F0ADC0FC0142
:10264000EE0FFF1FEA5AFE4F0190F081E02DDC01F2
:10265000AD5ABE4F8C9190E0009709F49DC0209137
:10266000E800277F2093E8002091190330911A0396
:102670002817390708F4C90140E0009789F1209133
:102680000705222309F43DC02530D9F12091E80047
:1026900023FD37C02091E80022FD2FC02091E800E3
:1026A00020FFEBCF4091F3002091F20030E0342B7B
:1026B000009759F02830310540F444914093F100DF
:1026C000319601972F5F3F4FF3CF41E0283031051E
:1026D00009F040E02091E8002E772093E800CDCF6C
:1026E0004111CDCF0AC080910705882351F0853074
:1026F00041F08091E80083FD04C08091E80082FFF2
:10270000F2CF8091E8008B778093E80045C0803855
:1027100009F042C08091E800877F8093E8008091B3
:1027200012038093F1008091E8008E77D3CE81115F
:1027300033C080911503909116039927029764F591
:102740008091E800877F8093E80010911503109333
:1027500012030E94EB0F111106C08091E30087FD68
:1027600002C081E001C084E08093070542E061EC93
:1027700081E00E940A1042E261EC84E00E940A10AB
:1027800042E261EC82E00E940A1042E260EC83E0E7
:102790000E940A10809107058091E80083FF10C015
:1027A0008091E800877F8093E8008091EB00806251
:1027B0008093EB0005C082E190E0E0E3F4E04FCFCE
:1027C000AA96E3E00C94752C1F920F920FB60F920D
:1027D00011242F933F934F935F936F937F938F9326
:1027E0009F93AF93BF93CF93DF93EF93FF93C091EA
:1027F000E900CF708091EC00D82FD17080FDD0E837
:102800001092E9008091F000877F8093F000789427
:102810000E9417111092E9008091F0008860809367
:10282000F000CD2BCF70C093E900FF91EF91DF91C5
:10283000CF91BF91AF919F918F917F916F915F9158
:102840004F913F912F910F900FBE0F901F901895B1
:10285000E8EDF0E080818E7F80831092E20010929C
:10286000DA001092E100A0EEB0E08C9181608C93D0
:1028700080818F77808319BCA7EDB0E08C918E7F2B
:102880008C9380818F7E80831092EC020895A0E06B
:10289000B0E0EDE4F4E10C94542CC8EDD0E0888174
:1028A0008F7E8883E7EDF0E080818160808384E023
:1028B00082BF81E08093EC0288818E7F888302EE64
:1028C00010E0F80110821092DA0081EEC82ED12CAF
:1028D000F601108288818F77888388818068888359
:1028E00088818F7D888319BC10920705109212038E
:1028F000109211031092100390EEE92EF12CF701C3
:1029000080818B7F808388818160888342E060E062
:1029100080E00E940A10F60180818E7F8083F8019A
:10292000808181608083808188608083F7018081DD
:102930008E7F8083888180618883CDB7DEB7E8E0B1
:102940000C94702C1F920F920FB60F9211242F939C
:102950003F934F935F936F937F938F939F93AF9327
:10296000BF93EF93FF938091E10082FF09C08091B4
:10297000E20082FF05C08091E1008B7F8093E1003F
:102980008091DA0080FF2AC08091D80080FF26C0A5
:102990008091DA008E7F8093DA008091D90080FFE9
:1029A00018C080E189BD82E189BD09B400FEFDCF78
:1029B00081E0809307058091EC0281110FC00E9495
:1029C00028140E9447148091E20084608093E20002
:1029D00005C019BC109207051092EC028091E1002D
:1029E00080FF17C08091E20080FF13C08091E20059
:1029F0008E7F8093E2008091E20080618093E2000C
:102A00008091D80080628093D80019BC85E08093C3
:102A100007058091E10084FF30C08091E20084FFCF
:102A20002CC080E189BD82E189BD09B400FEFDCFE3
:102A30008091D8008F7D8093D8008091E1008F7EB7
:102A40008093E1008091E2008F7E8093E20080918C
:102A5000E20081608093E20080911203882311F0EC
:102A600084E007C08091E30087FD02C081E001C0DF
:102A700083E080930705809107058091E10083FF43
:102A800027C08091E20083FF23C08091E100877F0F
:102A90008093E10082E080930705109212038091F9
:102AA000E1008E7F8093E1008091E2008E7F809331
:102AB000E2008091E20080618093E20042E060E009
:102AC00080E00E940A108091F00088608093F000FE
:102AD000FF91EF91BF91AF919F918F917F916F91F6
:102AE0005F914F913F912F910F900FBE0F901F90CC
:102AF00018952091E4003091E50095E64091EC00B6
:102B0000842F817040FF23C08091E80080FD1DC0AC
:102B100080910705882399F0853099F08091EB002A
:102B200085FD11C04091E4005091E5002417350760
:102B300029F3915011F09A01E1CF84E0089582E0E9
:102B4000089583E0089581E0089580E0089540911C
:102B5000E80042FFDDCF089578941F920F920FB6E0
:102B60000F9211248F939F93AF93BF938091E302B1
:102B70009091E402A091E502B091E6020196A11DB8
:102B8000B11D8093E3029093E402A093E502B09319
:102B9000E602BF91AF919F918F910F900FBE0F9062
:102BA0001F9018959C014FB7F8948091E302909183
:102BB000E402A091E502B091E6024FBF821B930BA5
:102BC00008952FB7F8948091E3029091E402A091C8
:102BD000E502B091E6022FBF08950F931F9310E016
:102BE000F801EE0FFF1FE653FE4F9081905797FDBF
:102BF0009195000F111FF801E553FE4FE081F0E0C1
:102C0000B097DF01AA0FBB1F8D010E0F1F1F2003FE
:102C1000D001219FB00D1124E8E3F0E0E91BF10998
:102C200097FDF3959F01220F331F89010E0F1F1F80
:102C300040039001419F300D11242A0F3B1F37FFA5
:102C400002C021583F4F220F232F221F330B620F48
:102C50001F910F9108950F931F93522F10E0F801C9
:102C6000EE0FFF1FE553FE4FE081F0E0B097EE0F4F
:102C7000FF1F9F015203D001539FB00D1124000F7D
:102C8000111FF801E653FE4F008110E000571109B3
:102C9000000F111F40039001419F300D11242A0F96
:102CA0003B1F37FF02C021583F4F220F232F221F07
:102CB000330B620F1F910F9108950F931F93522FA3
:102CC00010E0F801EE0FFF1FE553FE4FE081F0E04A
:102CD000B0979F015203D001539FB00D1124000FF4
:102CE000111FF801E653FE4F008110E00057110953
:102CF00040039001419F300D11242A0F3B1F37FFE5
:102D000002C021583F4F220F232F221F330B620F87
:102D10001F910F910895EF920F931F9393E0099FD6
:102D200080011124159507956E2D600F1F910F914D
:102D3000EF900895A22F50E0FA01EE0FFF1FE55328
:102D4000FE4F9081905297FD9195440F551FFA01C7
:102D5000E653FE4F3081232F30E02A1B3109290F23
:102D6000311D97FD3A95620F0895E42FF0E0EE0FC4
:102D7000FF1FE553FE4F6081621B0895E42FF0E0D2
:102D8000EE0FFF1FE653FE4F6081621B0895E42F94
:102D9000F0E0EE0FFF1FE653FE4F408134EE439FFD
:102DA000412D1124E82FF0E050E0445E5F4FDA013E
:102DB000A21BB1099D01B7FF03C0319521953109CF
:102DC00093E0220F331F9A95E1F7AF01421B530B9B
:102DD0009A0157FF02C020E030E0582F259F212D97
:102DE0001124822F0895E42FF0E0EE0FFF1FE65329
:102DF000FE4F408134EE439F412D1124E72FF0E038
:102E000050E0445E5F4FDA01A21BB1099D01B7FF9C
:102E100003C031952195310993E0220F331F9A9514
:102E2000E1F7AF01421B530B9A0157FF02C020E0AC
:102E300030E0279F212D1124722F0895FC019B0162
:102E4000009721F477FF2BC080E80895AC0197FF2D
:102E500004C044275527481B590BB901640F751F3F
:102E600037FD0CC0241B350BC901A5E0880F991F45
:102E7000AA95E1F70E943D2F80E20CC0CB0165E0EE
:102E8000880F991F6A95E1F7BA01621B730B0E94C4
:102E90003D2F80E6861BF7FF03C08195089580E0F3
:102EA0000895EF920F93CF93DF93D72FC82FC901C7
:102EB0000E19BA010E941E17602F681B7D2F8C2FE0
:102EC000DF91CF910F91EF9008950F93CF93DF9300
:102ED000D72FC82FC901BA010E941E17682F600F93
:102EE0007D2F8C2FDF91CF910F910895EF920F934B
:102EF0001F93CF93DF93D62FC72F182FC9010E1919
:102F0000010FBA010E941E17081B202F219F212D9F
:102F10001124822F6D2F7C2FDF91CF911F910F9164
:102F2000EF900895EF920F931F93CF93DF93D62FD7
:102F3000172FC82FC9010E19070FBA010E941E17BB
:102F4000702F781B719F712D11246D2F8C2FDF91A5
:102F5000CF911F910F91EF900895FF920F931F93C0
:102F6000CF93DF93F62ED72F182FC901C12FC01B87
:102F7000BA010E941E17982F990F890FC81B2C2F7A
:102F8000219F212D1124822F6F2D7D2FCDB7DEB7EC
:102F9000E5E00C94732CFF920F931F93CF93DF9374
:102FA000F62E172FD82FC901C72FC01BBA010E94B8
:102FB0001E17982F990F890F7C2F781B719F712DE9
:102FC00011246F2D8D2FCDB7DEB7E5E00C94732C57
:102FD0000E942F1C08950E94F11B0895E9E0F5E07E
:102FE00081E3808380911F0190912001A0912101B4
:102FF00081839283A3838CE384838FEF858346E070
:1030000050E06CE170E0CF010E940A2D109208059B
:103010000895482F982F46FD9095E92FEF739F70E4
:1030200046FD9F5FE295EF70EE0FF0E0EE59FE4F28
:103030002181299F802D212D112482958F70229529
:10304000207F822B3081982F930F892F47FD819508
:1030500080580895BC018230910508F40895613EBE
:103060008EE1780748F49B0195E0369527959A956F
:10307000E1F748E0420F01C04FEF91E0242F30E02C
:10308000290F311D35952795229FF001239FF00DC3
:10309000F00D11246E177F0718F44FEF420F04C094
:1030A0002F3F39F091E0920F491740F78FEF890FCA
:1030B00008958FEF08950F93CF93DF93D72FC82FE5
:1030C00047FD4195E8E3F0E0CF01841B910947FDFE
:1030D0009395889FB001899F700D700D1124229FD8
:1030E000C001239F900D900D1124860F971F0E9401
:1030F0002A18682F660F860F682F600F7D2F8C2F80
:10310000DF91CF910F91089520E030E0869F212D2F
:10311000969F200D311D1124C9010895A0E0B0E053
:10312000E4E9F8E10C94542CF62E472FE82FF0E058
:10313000711106C0EE56FB4F8491782F682F73C033
:10314000272F30E0EE56FB4FE491FE2F0E2F10E0BC
:1031500056E0659FC0011124CFEFD0E0BE010E9470
:10316000362C5BEA5603C001579F900D11248F0D3A
:10317000911D8F0D911D982F990F980F7E01E21AC6
:10318000F30AE09ED001E19EB00DF09EB00D112437
:103190008B2F499FA0011124452F55277E01E41A4A
:1031A000F50AE09EA001E19E500DF09E500D112405
:1031B0006E01C91AD108C29E7001C39EF00CD29E46
:1031C000F00C11242F2D3327C21BD30BC09F90016D
:1031D000C19F300DD09F300D1124932F62307105A7
:1031E00091F048F461157105E1F061307105B9F4B1
:1031F0009E2FE52F16C06430710569F040F06630EF
:10320000710579F00CC09E2FEB2F832F0AC0EB2F96
:103210008F2F952F06C09B2F8E2FE32F02C09B2F41
:10322000852F7E2F692FCDB7DEB7E8E00C94702C88
:10323000A0E0B0E0EEE1F9E10C94532CC82F8091AE
:103240000C018C130DC020910905237030E04091D2
:103250000B0150E081E02417350719F480E001C02C
:1032600081E0817080931D0180910E0590911C0179
:10327000981739F080931C0140E060E080E00E94E4
:10328000E817CC3029F48EEB96E10E94E72A39C08A
:10329000CD3008F097C1C53009F447C008F06FC1C0
:1032A000C23009F085C080911B01D82FDD0FDD0FE2
:1032B000D80FA5E0EA2EED0E20E32E1510F4F0E372
:1032C000EF2E00910B0510910C05F0900A056F2D63
:1032D000702F812F0E948E18D62EC72EB82E609187
:1032E0000D056F0D702F812F0E948E18162F072F3E
:1032F000F82EDE1508F48CC081E03FE23E1508F49C
:1033000085C090911B019F5F90931B01811148C262
:1033100082E080931E0180911D01811141C2C11183
:103320003FC283E080931E013BC280911B01D82FD6
:10333000DD0FDD0FD80F15E01D0F113308F010E37E
:10334000F0900A0500910B05E0900C0560910D05C9
:1033500066956695669580910105909102050E949B
:1033600084180E940918805887FD8195880F282F9E
:103370003E2D239F212D1124822F6F2D702F0E940F
:103380008E18062FF72EE82ED11790F5ED2FF0E0CE
:10339000DF01A65DBD4F8C9190911C01982331F007
:1033A0002E2D402F6F2DCF010E94EB17DF5FECCF4A
:1033B000C33008F056C0CC2301F1C13009F058C029
:1033C00080911B01D82FDD0FDD0FD80F15E01D0FE9
:1033D000113308F010E360910A0570910B0580919C
:1033E0000C050E948E18062FF72EE82ED11738F103
:1033F00081E0103308F485CF09C080911D01882336
:1034000029F040E060E080E00E94E81780E079CF9A
:103410008D2F90E0FC01E65DFD4F308120911C0175
:10342000232359F030FF04C02F2D412F602F03C0FC
:103430002B2D4D2D6C2D0E94EB17DF5F5ACFED2FFA
:10344000F0E0DF01A65DBD4F8C9190911C019823A7
:1034500031F02E2D402F6F2DCF010E94EB17DF5F33
:10346000C5CF80911B01C33049F0C43009F44AC074
:1034700080911B018F5F80931B014ACFD82FDD0FF6
:10348000DD0FD80FE5E0FE2EFD0E80E38F1510F462
:1034900070E3F72ED0900B05C0900C0520910D0520
:1034A00060E4E62E3E2D329F312D1124E32EDF15F0
:1034B00018F50D2F10E0F801E65DFD4F9081809129
:1034C0001C018923B9F0F801EE0FFF1FE553FE4FF1
:1034D000808182958F7060910A058E9D600D112408
:1034E0007D2D8C2D0E948E18462F282F672FC80106
:1034F0000E94EB17DF5FDBCF81E09FE29F1508F0B2
:1035000000CF84CFD82FDD0FDD0FD80F15E01D0FB2
:10351000113308F010E3D0900B05C0900C052091FA
:103520000D0500E4029F012D1124D11708F060CF92
:10353000ED2EF12CF701E65DFD4F908180911C018D
:103540008923D9F0F701EE0FFF1FE653FE4F60818C
:10355000069FB001112445E0759567954A95E1F7FE
:1035600080910A05680F7D2D8C2D0E948E18462FA4
:10357000282F672FC7010E94EB17DF5FD6CFC83017
:1035800051F48BEC97E104C0CB30B8F48DEA97E1AD
:103590000E94912AB6CEC93058F4C63019F483EF90
:1035A00096E173CEC73009F063CF87EC96E16DCE1C
:1035B000CA3051F782E997E102C086E797E10E949D
:1035C000152A9FCEC23119F481E597E1F8CFC331B6
:1035D000E8F4CF3019F48BE896E1F1CFC03158F41C
:1035E000CD3019F485EB96E150CECE3009F040CFC6
:1035F0008AE996E14ACEC03119F48BE598E1C8CF4B
:10360000C13109F035CF85E697E1C2CFC53129F444
:103610008DEE95E10E94C02974CEC63158F4C331B5
:1036200019F48DE596E1F6CFC43109F021CF8BE294
:1036300096E1F0CFC73109F040C080911D018111A2
:103640001EC060910D0520E1620F08F46FEF8091BC
:103650000105909102050E94841865E070E00E94C7
:10366000362C892B09F0D2CE0E94CD2C60E370E07D
:103670000E943D2F60911C010E94D61EC7CE8091F2
:103680001B01082F000F000F080FD5E0D00FD1331A
:1036900008F0D0E310E0ED2EF12C0E151F0544F4D8
:1036A00060911C01C8010E94D61E0F5F1F4FF5CF0D
:1036B00081E0D03308F425CEA9CEC73108F03CC054
:1036C00080911D0181111EC060910D0520E1620FE6
:1036D00008F46FEF80910105909102050E94841813
:1036E0006AE070E00E94362C892B09F08FCE0E9490
:1036F000CD2C60E370E00E943D2F60911C010E9480
:10370000FA1E84CE80911B01082F000F000F080FB6
:10371000D5E0D00FD13308F0D0E310E0ED2EF12C3E
:103720000E151F050CF0C4CF60911C01C8010E944A
:10373000FA1E0F5F1F4FF4CFCF3F09F099CE809153
:10374000010590910205A0910305B0910405882719
:103750009C70AA27BB272AE0B695A79597958795D1
:103760002A95D1F782309105A105B10571F083301A
:103770009105A105B10569F040E00197A105B105EA
:1037800011F060E008C064E102C044E160E080E064
:1037900003C044E164E184E10E94E81782E0C2CD05
:1037A000CDB7DEB7E9E00C946F2CE9E0F5E02481B9
:1037B00030E1231B08F420E0248380910805816018
:1037C000809308050895E9E0F5E0248130E1230FB6
:1037D00008F42FEF24838091080581608093080509
:1037E0000895A4E0B0E0E7EFFBE10C94572C8033A0
:1037F000910588F5122F042FF62EBC01660F771F56
:10380000660F771F6E5D794F44E050E0CE01019660
:103810000E94DD2C898183704A81282F30E050E995
:10382000859FC0011124825C9C4FFC01E40FF11DB7
:10383000B497F0824B81FC01E40FF11DB497008333
:103840004C81840F911DFC01B4971083F901E45C55
:10385000FC4F81E080832496E5E00C94732CFF926A
:103860000F931F93CF93DF93182F062FF42EC0E0F2
:10387000D0E02F2D402F612FCE010E94F11B219609
:10388000C033D105B1F7CDB7DEB7E5E00C94732CAA
:103890000F931F93CF93DF93082F000FEB0114E2D8
:1038A00010932803E9E2F3E0DE018D91819383E038
:1038B000E933F807D1F724E630E041E150E068E26F
:1038C00073E0802F0E94112C105F6096143B41F72B
:1038D000DF91CF911F910F91089580913C03882330
:1038E00029F06EE373E084E70E94481C10923C03C9
:1038F00080913D03882329F06EEC73E087E70E94F6
:10390000481C10923D030895E8E2F3E06083418390
:1039100024E630E042E050E0BF01880F0E94112C05
:103920000895A0E0B0E0E7E9FCE10C94552C262FC7
:1039300030E0A9014E575B4F7A01FA019081911155
:1039400007C0F7011082CDB7DEB7E7E00C94712C09
:10395000D82EF2E16F9FE001112400E010E0F801A1
:10396000EC0FFD1FE25AFB4F4081602F8D2D0E940E
:10397000841C0F5F1F4F0231110589F7E2CFCF93EF
:10398000DF93C82F4BE06DEF0E94841C40E06AE09B
:103990008C2F0E94841C8FE39CE90197F1F700C0F3
:1039A000000040E060E08C2F0E94841C40E061E059
:1039B0008C2F0E94841C40E066E08C2F0E94841CA7
:1039C00040E06DEF8C2F0E94841CD0E040E06D2F12
:1039D0008C2F0E94841CDF5FD231C1F740E06D2F35
:1039E0008C2F0E94841CDF5FD432C1F740E06D2F22
:1039F0008C2F0E94841CDF5FD43BC1F74BE06DEF3E
:103A00008C2F0E94841C41E06AE08C2F0E94841C51
:103A100040E06DEF8C2F0E94841CDF91CF910895C0
:103A2000A4E0B0E0E6E1FDE10C944E2C0E94412BB5
:103A300084E70E94BF1C87E70E94BF1C02E216E0D9
:103A400072E1772EE8E0CE2ED12CEE24E394F12C17
:103A50006624639444E050E0B801CE0101960E94D0
:103A6000DD2C2A8130E0C9018497AB80B12C44E27F
:103A7000A41AB108EC81F0E0B497AC0197FF02C042
:103A8000495F5F4F63E0559547956A95E1F7298156
:103A9000237030E0729EB001739E700D1124625A43
:103AA0007B4F4B01840E911CB6010E943D2FD70124
:103AB00002C0AA0FBB1F8A95E2F7CD01D4019C91E9
:103AC000892B8C93C501B7FC079653E09595879594
:103AD0005A95E1F7729EA001739E500D1124425A2F
:103AE0005B4F4A01880E911CC501B6010E943D2F13
:103AF000A70102C0440F551F8A95E2F7CA01D401FD
:103B00009C91892B8C93CF01F7FD079643E0959507
:103B100087954A95E1F7729EA001739E500D11247E
:103B2000425A5B4F5A01A80EB11CCF01B6010E9448
:103B30003D2FF70102C0EE0FFF1F8A95E2F7CF017C
:103B4000D5019C91892B8C93F901EE57FB4F608234
:103B50000C5F1F4FB6E0023E1B0709F07BCF60E011
:103B600084E70E94911C61E087E70E94911C2496E3
:103B7000EEE00C946A2CE9E0F5E0438120E1421B81
:103B800008F440E08181628190E00E94312B089529
:103B9000E9E0F5E0438120E1420F08F44FEF818135
:103BA000628190E00E94312B0895E9E0F5E06281A6
:103BB00020E1621B08F460E08181438190E00E9473
:103BC000312B0895E9E0F5E0628120E1620F08F40D
:103BD0006FEF8181438190E00E94312B0895E9E0ED
:103BE000F5E0818190E04381628108970E94312B4A
:103BF0000895E9E0F5E0818190E0438162810896D3
:103C00000E94312B089580910905869586958150F3
:103C100009F487E10E94512908958091090586954C
:103C200086958F5F883108F081E00E9451290895C0
:103C30001F920F920FB60F9211248F939F93AF9301
:103C4000BF9380918C04811113C08091E302909105
:103C5000E402A091E502B091E6024196A11DB11DDA
:103C60008093E3029093E402A093E502B093E6020E
:103C7000BF91AF919F918F910F900FBE0F901F90AA
:103C8000189520910A012223C9F02091E70227FF0D
:103C900015C0262F2695269526952E31C8F4FC01B1
:103CA000E20FF11D677081E090E001C0880F6A9516
:103CB000EAF780959281892382830895FC01069614
:103CC0002281621301C012823196E817F907C1F709
:103CD000089520918A0430918B042817390771F0D8
:103CE00090938B0480938A04E0918804F091890476
:103CF000309721F00084F185E02D099508952091F9
:103D00008604309187042817390771F0909387044F
:103D100080938604E0918804F0918904309721F023
:103D20000680F781E02D09950895E0918804F091CF
:103D30008904309729F00190F081E02D09950895CC
:103D400080E0089580918504882349F0809184045F
:103D50008D7D809384040E94410C10928504089507
:103D6000CF93DF930E94CD2C66E070E00E943D2F40
:103D7000D82F0E94CD2C6EE070E00E943D2FC82FFE
:103D80006D2F782F80E00E94150A892B19F08D2F56
:103D90009C2F02C00E94B01EDF91CF91089588230E
:103DA00011F0FA0101C0FB01099508951F93CF930B
:103DB000DF93FC01E65DFD4F20816223B9F0EC0149
:103DC0000E94CD2C182F0E94CD2C8F77782F20E8C1
:103DD000720F08F47FEF612F80910C050E948E18FE
:103DE000462F282F672FCE010E94EB17DF91CF912E
:103DF0001F910895A0E0B0E0E0E0FFE10C94552CA5
:103E0000EC01FC01E65DFD4F9081692349F1D09002
:103E10000B0500910C0510910A05E12EF12C0E9472
:103E2000CD2C282FC7018C549F4F68E671E00E946B
:103E30003D2F8E199F0997FD03969595879595952A
:103E400087952370612F289F600D11247D2D802F71
:103E50000E948E18462F282F672FCE010E94EB1745
:103E6000CDB7DEB7E7E00C94712C80910905837023
:103E700011F410921E01809109058C7F816080935E
:103E8000090508950E94101D80E090E00E94042D15
:103E9000883E9E4F21F00E94B70B0E94EE1746E02D
:103EA00050E06CE170E089E095E00E94E62C109211
:103EB0000805809109058C7F11F40E94EE17089582
:103EC000A0E0B0E0E6E6FFE10C94512C8FB7F89447
:103ED0004091E3025091E4026091E5027091E602A4
:103EE0008FBF40931B0350931C0360931D0370937B
:103EF0001E0380912703811108C0C09109058C2FF2
:103F0000837019F0C695C69501C0C0E080911E016E
:103F10008130A1F038F0823009F489C0833009F48F
:103F200093C0BDC010921B01409301055093020540
:103F3000609303057093040581E083C08C2F0E9479
:103F40001819CC2309F4ABC08091230383FDA7C0CB
:103F500060911F03709120038091210390912203AF
:103F60000E94E12381115AC002E915E0C0E0D0E0CF
:103F7000F80164913196749131968491611107C072
:103F8000711105C0811103C020E040E03CC00E94D7
:103F90008E18962EB72EA82E60910C0570E080E04A
:103FA00090E00E94422E20E030E04FE753E40E9470
:103FB000A12D6B017C016A2D70E080E090E00E94F1
:103FC000442EA70196010E94D02E0E94132EA62EE9
:103FD000692D70E080E090E00E94442EA7019601D8
:103FE0000E94D02E0E94132E962E6B2D70E080E042
:103FF00090E00E94442EA70196010E94D02E0E94BC
:10400000132E2A2D492DCE010E94EB1721960D5F0C
:104010001F4FC033D10509F0ABCF41C080910E05D1
:1040200081113DC040E060E00E94E81738C0C093B5
:104030000C0180910905837080930B010E946D1C17
:1040400083E080931E012BC080910805882351F0E6
:1040500046E050E06CE170E089E095E00E940A2DB6
:1040600010920805409101055091020560910305E9
:10407000709104052FB7F8948091E3029091E402C7
:10408000A091E502B091E6022FBF841B950BA60B11
:10409000B70B4A97A105B10510F010921E01CDB7DC
:1040A000DEB7EBE00C946D2CCF93DF93CDB7DEB78A
:1040B000CC55D1090FB6F894DEBF0FBECDBF85B782
:1040C000806885BF85B7806885BF84B7877F84BFD8
:1040D0000FB6F894A8958091600088618093600085
:1040E000109260000FBE90E080E80FB6F8948093C5
:1040F0006100909361000FBE80ED99E090935B02A8
:1041000080935A020E9428140E9447148091E20072
:1041100084608093E2007894809107058823A1F061
:104120001091E9001F709091EC00892F817090FD33
:1041300080E8182B1092E9008091E80083FD0E942E
:1041400017111F701093E90082E084BD93E095BDC4
:104150009AEF97BD80936E000E94432590E0909364
:104160001A01809319010E947E260E94C426EFE85E
:10417000F4E0ADE9B4E011921D9224E0ED39F207CC
:10418000D1F78EE090E00E94572F80938D0490939A
:104190008E04FC010E961192E817F907E1F789EAFF
:1041A0008093800089E08093810024982C983F9828
:1041B0008AB18F7C8AB96E98479A8BB180638BB92C
:1041C000769A8FE090E00E94FE2C60932303709318
:1041D0002403809325039093260367708FEF869FB7
:1041E000B00111247595679575956795772770933C
:1041F00089006093880070938B0060938A007093AD
:104200008D0060938C009091230394FF03C08093F2
:104210000E0502C010920E050E94BA2580E090E0C3
:104220000E94042D883E9E4F11F00E94B70B82E041
:1042300090E00E94F62C8093AB0484E090E00E9412
:10424000F62C182F82E290E00E94F62C212F30E00D
:10425000382B3093E8022093E70283E090E00E943D
:10426000F62C682F70E080E090E00E941D2860919D
:104270001F037091200380912103909122030E94DB
:1042800011250E94421F0E94351F0E94351F8091F8
:1042900008058160809308058DE091E09093890482
:1042A0008093880428E1C22ED12CEE24E394BB2411
:1042B000B39480910705853009F071C080E4F82E31
:1042C00093E0992E00E112E180910705853009F015
:1042D0005EC080910705843009F436C00E94601FDB
:1042E0008091270381110DC00E94181910920C01B2
:1042F00080910905837080930B010E946D1C909240
:104300001E01B092270310928C040FB6F894A89562
:10431000C09260000FBEF092600083B7817F84601E
:1043200083BF83B7816083BF7894889583B78E7F7E
:1043300083BF0FB6F894A895809160008861809340
:104340006000109260000FBE80911103882309F471
:10435000BBCF0E94432590E090931A0180931901EE
:104360000E947E260E94C426EDE9F4E0119224E02A
:10437000EB3AF207D9F70E94C90EEDE9F4E081911A
:10438000811168C184E0EB3AF807C9F79DCF10921C
:10439000ED020E9448280E94951E109227030E9459
:1043A000C90E882359F08FB7F8944091E3025091D9
:1043B000E4026091E5027091E6028FBFACEAB4E0DE
:1043C000EDE9F4E000E010E0302F21919D9192277B
:1043D000A1F180E0FF24F394492F4F2151F164961D
:1043E0008FAF649765963FAF65972F2181E009F401
:1043F00080E066968FAF66970E94E1158160782F06
:1044000068969FAF8EAF689764964FAD6497659638
:104410005FAD659766966FAD669768968FAD689746
:104420000E944223F801E455FB4F8081F826F08278
:104430002AC08F5FFF0C863079F60F5F1F4F0E305A
:10444000110509F0C1CF8FEF69968FAF69976A9612
:104450008FAF6A976B961FAE6B970E94E1158160D4
:10446000782F6D969FAF8EAF6D9769964FAD699718
:104470006A965FAD6A976B966FAD6B976D968FADD1
:104480006D970E94422380918504882369F00E94E1
:10449000E1152091BA043091BB04821B930B8F3F2E
:1044A0009F4710F40E94A21E0E94601F0E94951E4A
:1044B0009091BC0489138093BC04809107058430DB
:1044C00009F0F7CE83E08093E9008091E80082FF55
:1044D000F0CE8091E80085FF22C00E9479158111FD
:1044E0001CC000E210E04E01F1E28F0E911C08C0EA
:1044F0008091F100F40181934F010150110969F09D
:104500008091E80085FDF4CF8091E8008B7780935F
:10451000E8000E947915882399F391E001C090E0AA
:104520008091E8008B778093E800992309F4C1CE4D
:1045300089A18130E1F150F1823021F0843009F419
:104540007BC0B7CE8BA19AA19093BD048093BE048B
:104550008DA19CA19093BF048093C0048FA19EA1C4
:104560009093C1048093C20442E150E063E270E0A2
:10457000CE018F5B9F4F0E94E62C84E08983E092FE
:1045800006058EEF8A83109205050CC019828CE017
:10459000EAE6F1E0DE01129601900D928A95E1F7CC
:1045A0008EEF8D87CE0101960E94942982CE03EC76
:1045B00014E00E94B01EF801819391938F01F4E002
:1045C000093C1F07B1F7E9828091C3048A83809177
:1045D000C4048B838091C5048C838091C6048D8331
:1045E0008091C7048E838091C8048F838EEF888763
:1045F000E0920505CE0101960E94942942E150E027
:1046000063E270E0CE0101960E94E62CFE01319635
:1046100082E183301CF09189928B01C0128A815013
:1046200031978F3FB1F742E150E063E270E0CE0195
:1046300001960E940A2D3DCE80910605882309F43B
:1046400038CE60E070E0CB010E9492278AA10E94E0
:10465000FB272FCE09BD19BD09B400FEFDCF809107
:10466000D8008F7D8093D8008091E0008260809395
:10467000E0008091E00081FDFCCF1092ED020E94ED
:10468000482822CEA7E1B0E0E8E4F3E20C94592CEC
:104690004B8B5C8B6D8B7E8B8F8B611110928404A6
:1046A00086E09E01235F3F4FD901E82F1D92EA95D6
:1046B000E9F795E0FE017396D90101900D929A9564
:1046C000E1F79C894E895F897B897D879E876F870B
:1046D000598B488BF901DE01179601900D928A954E
:1046E000E1F7CE0107960E94420D81113EC086E09F
:1046F000FE013796DE01119601900D928A95E1F741
:10470000FF81E8856A857B856115710531F0EF3F92
:1047100031F481E0FF3F19F403C081E001C080E083
:1047200080FD23C02091830230E0C901019687708B
:1047300099274091B40250E08417950779F1F983E5
:10474000EA837D836C8396E0929FD001939FB00DA6
:104750001124AC57BD4FFE01319601900D929A95F0
:10476000E1F7809383020E94CF0C16E08091B4029F
:1047700090918302891709F1189FC00111248C5769
:104780009D4F0E94420D8823C1F08091B40290E0B9
:104790000196877099278093B402E8CF1092ED02BA
:1047A0000E944828109283021092B402EDE7F2E0D2
:1047B00086E0DF011D928A95E9F76796E3E00C94A5
:1047C000752CCF92DF92EF92FF926C01EE24FF24C2
:1047D000C114D104E104F10421F0C701B60120E1C4
:1047E00001C020E0C72ED82EE92EFF24C114D10429
:1047F000E104F10419F0285FC701B6016B017C01E7
:1048000054E0F694E794D794C7945A95D1F7C1141D
:10481000D104E104F10419F02C5FC701B6016B016A
:104820007C0142E0F694E794D794C7944A95D1F777
:10483000C114D104E104F10419F02E5FC701B601DF
:10484000DC01CB01B695A79597958795892B8A2B87
:104850008B2B09F02F5F822FFF90EF90DF90CF908E
:104860000895A0E0B0E0E7E3F4E20C94522CEC01F0
:104870008AE0A82EFE012491222309F4B5C021303C
:1048800009F044C031968491813059F42296FE019A
:104890008491893319F060E070E091C060E570E0C8
:1048A0008EC0823031F42296FE0184910E949928B4
:1048B0008AC0833031F42296FE0184910E946D28D3
:1048C00082C0843009F07EC02296FE01249180E0EF
:1048D00090E030E0205331092A30310560F4A89E81
:1048E000A001A99E500D1124C901840F951F219686
:1048F000FE012491EECF009709F465C0EFE9FFE0D7
:104900003197F1F700C000000197F5CFE22FF0E0FA
:10491000EE5EF84FB490822F86958695869590E04E
:10492000FC01EE5FF84FE4902770F12C022E02C0DC
:10493000F594E7940A94E2F7F1E0EF22FF24FC01FA
:10494000EE50F94FC490D12C022E02C0D594C794DA
:104950000A94E2F731E0C322DD24FC01EE51F94F65
:10496000049110E002C0159507952A95E2F70170B1
:104970001127E114F10419F081EE0E949928C11465
:10498000D10449F186EE0E94992889E3B816E9F02E
:1049900060E070E08B2D0E943929C114D10419F018
:1049A00086EE0E946D28E114F10419F081EE0E9458
:1049B0006D280115110539F060E070E08CE20E946D
:1049C000392901C0EF01219655CF60E570E089E3F8
:1049D0000E943929E5CFE9E3BE12DACF60E570E045
:1049E00089E30E943929DFCFCDB7DEB7EAE00C9426
:1049F0006E2C1092ED020E9448282FEF84E39CE079
:104A0000215080409040E1F700C000009AE088E12A
:104A10000FB6F894A895809360000FBE9093600045
:104A2000FFCFCF92DF92EF92FF926B017C010E9449
:104A3000E12356985E9825982D9826982E982798C9
:104A40002F9890E0FC013197E730F105A8F4E45984
:104A5000FF4F0C94512F259A2D9A0EC0259A2D9A0E
:104A6000269A2E9A09C0259A2D9A04C0259A2D9A25
:104A7000269A2E9A279A2F9AC701B601FF90EF9097
:104A8000DF90CF90089580E290E090931A01809398
:104A900019018091C90481110EC00E94412B81E04F
:104AA0008093C9042FEF83ED90E321508040904024
:104AB000E1F700C0000064E670E080E40E94472B4C
:104AC00090931A0180931901892B09F04EC064E676
:104AD00070E080E00E94BC2B90931A018093190132
:104AE000892B09F042C064E670E080E00E94BC2B94
:104AF00090931A0180931901892BB9F564E670E04F
:104B00008FE30E94BC2B90931A0180931901892B8B
:104B100061F50E94322C64E670E080E40E94472B2D
:104B200090931A0180931901892BF9F464E670E0DF
:104B30008CE00E94BC2B90931A0180931901892B61
:104B4000A1F464E670E080E00E94BC2B90931A010F
:104B500080931901892B49F464E670E08FE30E9489
:104B6000BC2B90931A01809319010E94322C8091E2
:104B700019010895CF93DF9356985E9825982D9844
:104B800026982E9827982F98C8E8D0E08FEF90E0CD
:104B900099838883AAE8B0E011969C938E93ECE801
:104BA000F0E091838083259A2D9A2FEF80E792E0A1
:104BB000215080409040E1F700C00000269A2E9AD4
:104BC0002FEF80E792E0215080409040E1F700C055
:104BD0000000279A2F9A2FEF80E792E02150804023
:104BE0009040E1F700C0000025982D982FEF80E756
:104BF00092E0215080409040E1F700C000002698EC
:104C00002E982FEF80E792E0215080409040E1F70E
:104C100000C0000027982F988091230387702FEF02
:104C2000829FC00111249595879595958795992721
:104C30009983888311969C938E9391838083569851
:104C40005E9825982D9826982E9827982F98DF9172
:104C5000CF910895CF93E82F873080F58091190187
:104C600090911A01892B09F047C0CE2F64E670E0BD
:104C700080E40E94472B90931A0180931901892B9D
:104C8000D1F464E670E082E10E94BC2B90931A019B
:104C900080931901892B79F481E090E001C0880F9D
:104CA000CA95EAF764E670E080950E94BC2B909369
:104CB0001A01809319010E94322C1EC090E0FC0161
:104CC0003797E730F105C0F4ED58FF4F0C94512FA2
:104CD000209A289811C0219A29980EC0229A2A98C1
:104CE0000BC0239A2B9808C0529A5A9805C0539A21
:104CF0005B9802C03E9A4698CF91089520982898D4
:104D00002198299822982A9823982B9852985A9853
:104D100053985B983E9846980895CF93873040F516
:104D20008091190190911A01892B59F564E670E080
:104D300081E40E94472B90931A0180931901892BDB
:104D400011F0C0E011C084E690E00E94EC2B97FFC8
:104D500005C090931A0180931901F3CFC82FC09515
:104D600010921A01109219010E94322C8C2F0AC045
:104D70009FB18FB1807F869586959370892B8095A2
:104D800001C080E0CF9108958098889A8198899A8F
:104D900084988C9A85988D9A86988E9A87988F9AFF
:104DA000089580E090E00E947F1E80E090E00E94E5
:104DB000691E109284040E94410C0895A0E0B0E0A6
:104DC000E4EEF6E20C94532C8C01C0901F03D090BB
:104DD0002003E0902103F09022038091D70290916C
:104DE000D802A091D902B091DA02C82AD92AEA2AB7
:104DF000FB2ACFE1D0E0D701C6010C2E04C0B69546
:104E0000A795979587950A94D2F780FD04C02197BE
:104E100090F7B12C09C0BC2EB8018C2F0E94150A46
:104E20000E942E0A019799F38B2DCDB7DEB7E9E0EA
:104E30000C946F2CCF93DF93EC010E94DE26BE0111
:104E40000E94150A0E942E0ADF91CF910895292F02
:104E50009E3080F5863070F590E036E0239F800D1F
:104E6000911D1124682F677023E0969587952A95E8
:104E7000E1F725E0289FF001299FF00D1124E6536A
:104E8000FB4F40E050E080E0219130E0062E02C070
:104E9000369527950A94E2F721703327042E01C036
:104EA000220F0A94EAF7822B4F5F5F4F453051057E
:104EB00059F7089580E00895292F9E3090F58630A7
:104EC00080F590E036E0239F800D911D1124282F5E
:104ED000277051E001C0550F2A95EAF723E0969517
:104EE00087952A95E1F725E0289FF001299FF00D8D
:104EF0001124E653FB4F20E030E070E04081CB010D
:104F0000022E02C0969587950A94E2F781708195EA
:104F100084278523842781932F5F3F4F25303105D8
:104F200069F70895CF92DF92EF92FF92CF93DF93CC
:104F3000CDB7DEB7A0970FB6F894DEBF0FBECDBFDA
:104F40000E9411256B017C01809106058823B1F038
:104F50002FEF80E792E0215080409040E1F700C0C1
:104F6000000085E08983C701B6010E94E1238A839E
:104F70008EEF8B83CE0101960E949429C0921F036D
:104F8000D0922003E0922103F09222030E94D126C6
:104F9000A0960FB6F894DEBF0FBECDBFDF91CF91C4
:104FA000FF90EF90DF90CF9008950F931F9341E013
:104FB00050E060E070E004C0440F551F661F771F8B
:104FC0008A95D2F7409550956095709580911F0312
:104FD00090912003A0912103B09122038A019B01AB
:104FE000082319232A233B23C901B8010E949227D1
:104FF0001F910F9108950F931F9341E050E060E0DF
:1050000070E004C0440F551F661F771F8A95D2F7C2
:1050100080911F0390912003A0912103B09122035E
:105020008A019B01082B192B2A2B3B2BC901B801A4
:105030000E9492271F910F9108956093D702709359
:10504000D8028093D9029093DA020E94D126089563
:10505000FC01808191810E941A2792959F70963061
:1050600079F010F4925001C09A50923068F4803F69
:1050700069F018F4883E40F409C0843F29F406C062
:10508000883E20F0813F11F080E0089581E008958E
:1050900080910A01882331F08091E70287FF02C0E6
:1050A0008EE101C086E0EFE5F2E0DF011D928A9516
:1050B000E9F70E94D1260895882321F00E943A0C36
:1050C0000E94410C0895882339F09091ED02892BBC
:1050D0008093ED020E94410C0895882349F1682FC6
:1050E0008CEF860F813A28F48DE592E00E94411EF4
:1050F0000CC080E2860F883058F4677081E001C0F0
:10510000880F6A95EAF70E943A0C0E94410C0895B4
:105110008BE5860F833028F480E090E00E947F1EAC
:105120000895685A673120F480E090E00E94691E7B
:105130000895CF93882309F49AC0C82F8CEF8C0F61
:10514000813A08F05EC080910A018823E1F08091E5
:10515000E70287FF18C0EC2FE695E695E695F0E0AC
:10516000E35AFD4F8281282F30E04C2F477081E0B9
:1051700090E002C0880F991F4A95E2F7822393239B
:10518000892B59F411C0EFE5F2E08191C81729F09D
:1051900082E0E536F807C9F707C06C2F8DE592E08D
:1051A0000E94411E0E94410C80910A018823C9F08F
:1051B0008091E70287FF15C0AC2FA695A695A6950E
:1051C000B0E0A35ABD4FC77081E090E001C0880FE6
:1051D000CA95EAF712969C911297892B12968C9396
:1051E00020C0AFE5B2E0EFEF80E09D91C917C9F0B4
:1051F000EF3F19F4911101C0E82F8F5F8630A9F7B6
:105200002DC080E28C0F883078F4C77081E090E088
:1052100001C0880FCA95EAF79091ED02892B80931F
:10522000ED020E94410C23C0EBE5EC0FE33040F4AB
:10523000F0E0EE5DFE4F808190E00E947F1E17C07F
:10524000C85AC731A0F4EC2FF0E0EE0FFF1FEB5D62
:10525000FE4F808191810E94691E09C0EF3F09F3D2
:105260000E2E000CFF0BE35AFD4FC283DACFCF9115
:1052700008951F93CF93DF93182FEB010E94992875
:10528000209741F08FE99FE00197F1F700C00000FF
:105290002197F6CF812F0E946D28DF91CF911F912A
:1052A0000895909109059370A1F0811102C0946056
:1052B00007C0883110F09C6503C0880F880F982BB9
:1052C0009093090510921E018091080581608093DA
:1052D00008050895EF92FF920F931F93CF93DF93EA
:1052E0007C018B010E947915811119C0E70101151C
:1052F0001105A1F08091E80085FD0AC08091E800C9
:105300008E778093E8000E947915882381F307C087
:1053100089918093F10001501109E9CF80E0CDB768
:10532000DEB7E6E00C94722CCF9320910705243071
:1053300029F5C091E900CF703091EC00232F217046
:1053400030FD20E8C22B22E02093E9002091E80004
:1053500020FF11C040E050E060E270E00E946A2946
:10536000882321F010920505109206058091E8002F
:105370008E778093E800CF70C093E900CF910895B5
:10538000A0E0B0E0E6ECF9E20C94512C6C018091C5
:105390001B01C82FCC0FCC0FC80F15E01C0F113309
:1053A00008F010E360910D05669566958091010502
:1053B000909102050E948418D82F80E48D0F0E94DE
:1053C000091890E8F92EF80E8D2F0E94091820E890
:1053D000922E980EC11700F5AC2EB12CF501E65DAA
:1053E000FD4F908180911C018923A1F060910A05F5
:1053F00070910B0580910C05ED2E0C2F292D4F2D52
:10540000F60109950E948E18462F282F672FC50197
:105410000E94EB17CF5FDECF81E0103308F080E011
:10542000CDB7DEB7EBE00C946D2C6F927F928F922C
:105430009F92AF92BF92CF92DF92EF920F931F9302
:10544000CF93DF933C0180911B01C82FCC0FCC0F71
:10545000C80FD5E0DC0FD13308F0D0E360910D0523
:10546000669580910105909102050E948418182F7D
:10547000CD1708F044C08C2E912CF401E65DFD4F51
:10548000908180911C018923C1F1F401EE0FFF1F6F
:10549000E653FE4FC080D12C80E7C81AD108F40132
:1054A000EE0FFF1FE553FE4FA080B12CE0E2AE1AD5
:1054B000B108CC9C9001CD9C300D300D1124AA9CDC
:1054C000C001AB9C900D900D1124820F931F0E9480
:1054D0002A18082F60910A0570910B0580910C0520
:1054E000E12E9501A601F30109950E948E18462F21
:1054F000282F672FC4010E94EB17CF5FB9CF81E03F
:10550000D03308F080E0DF91CF911F910F91EF90A1
:10551000DF90CF90BF90AF909F908F907F906F90D3
:105520000895A0E0B0E0E7E9FAE20C94542C6C0195
:1055300080911B01C82FCC0FCC0FC80FD5E0DC0F1A
:10554000D13308F0D0E360910D0566958091010597
:10555000909102050E948418182FCD1778F5EC2E33
:10556000F12CF701E65DFD4F908180911C018923AC
:1055700019F1F701EE0FFF1FE553FE4F208130E0D8
:1055800020523109F701EE0FFF1FE653FE4F408115
:1055900050E04057510960910A0570910B058091C8
:1055A0000C05012FF60109950E948E18462F282F11
:1055B000672FC7010E94EB17CF5FCFCF81E0D033B9
:1055C00008F080E0CDB7DEB7E8E00C94702CA0E0E6
:1055D000B0E0EDEEFAE20C94552C8C0180911B01A9
:1055E000C82FCC0FCC0FC80FD5E0DC0FD13308F09B
:1055F000D0E360910D056695669521E0620F08F491
:105600006FEF80910105909102050E948418D82EB9
:10561000CD17F0F4EC2EF12CF701E65DFD4F9081F3
:1056200080911C01892391F060910A0570910B050E
:1056300080910C052D2D4C2FF80109950E948E1894
:10564000462F282F672FC7010E94EB17CF5FE0CFAF
:1056500081E0D03308F080E0CDB7DEB7E7E00C940E
:10566000712C90910905937059F080930A0560930D
:105670000B0540930C058091080581608093080517
:1056800008951092B9008CE08093B8000895A0E0CE
:10569000B0E0EDE4FBE20C94512CB82EEB010E943B
:1056A000E1156C01C431D10558F0CF3F8FEFD80719
:1056B00059F0CE0164E170E00E94362C7B0107C0F6
:1056C000EE24E394F12C03C025E0E22EF12C84E8D3
:1056D000A82E94EA992E1092BC009092BC000E94D1
:1056E000E1158C018091BC0087FD08C00E94E11586
:1056F000801B910B8E159F05A8F32AC08091B900DD
:10570000887F883041F08091B900887F803119F01E
:105710000FEF1FEF1FC0B092BB00A092BC000E9411
:10572000E1158C018091BC0087FD08C00E94E11545
:10573000801B910B8E159F05A8F30AC08091B900BC
:10574000887F883111F0803419F700E010E00EC036
:105750000EEF1FEFCF3F8FEFD80709F4BCCFC60184
:105760000E94D2158C179D0708F4B5CFC801CDB79C
:10577000DEB7EBE00C946D2C0F931F93CF93DF9368
:10578000EB018093BB0084E88093BC000E94E1158C
:105790008C018091BC0087FD0EC0CF3F8FEFD807F2
:1057A000C1F30E94E115801B910B8C179D0788F3B4
:1057B0008EEF9FEF0CC02091B900287F81E090E030
:1057C000283211F480E090E0919581959109DF9164
:1057D000CF911F910F9108950F931F93CF93DF9354
:1057E000EC0184E88093BC000E94E1158C0180915B
:1057F000BC0087FD0EC0CF3F8FEFD807C1F30E94DA
:10580000E115801B910B8C179D0788F38EEF9FEF9E
:1058100003C08091BB0090E0DF91CF911F910F9169
:105820000895A0E0B0E0E7E1FCE20C94542C6B0199
:105830008A017901B9010E94472BE6010C0D1D1D5B
:10584000C017D10741F424E92093BC00CDB7DEB7DF
:10585000E8E00C94702C97FDF6CFB70189910E9477
:10586000BC2BEECF84E98093BC000895AA1BBB1B20
:1058700051E107C0AA1FBB1FA617B70710F0A61B50
:10588000B70B881F991F5A95A9F780959095BC0171
:10589000CD0108952F923F924F925F926F927F9227
:1058A0008F929F92AF92BF92CF92DF92EF92FF9230
:1058B0000F931F93CF93DF93CDB7DEB7CA1BDB0BDC
:1058C0000FB6F894DEBF0FBECDBF09942A88398881
:1058D00048885F846E847D848C849B84AA84B98488
:1058E000C884DF80EE80FD800C811B81AA81B98194
:1058F000CE0FD11D0FB6F894DEBF0FBECDBFED01A8
:1059000008958F929F92AF92BF92CF92DF92EF92C3
:10591000FF92CF93DF93EC01688179818A819B812B
:10592000611571058105910521F464E279ED8BE53E
:1059300097E02DE133EF41E050E00E943E2D490118
:105940005A019B01AC01A7EAB1E40E945D2D6B01F5
:105950007C01ACEEB4EFA50194010E946B2DDC013B
:10596000CB018C0D9D1DAE1DBF1DB7FF03C0019760
:10597000A109B04888839983AA83BB839F77DF916D
:10598000CF91FF90EF90DF90CF90BF90AF909F901E
:105990008F9008950E94812C089580E091E00E94EC
:1059A000812C0895A0E0B0E0809300019093010164
:1059B000A0930201B09303010895FB01DC0102C032
:1059C00005900D9241505040D8F70895DC01CB016D
:1059D000FC01F999FECF06C0F2BDE1BDF89A3196FF
:1059E00000B40D9241505040B8F70895F999FECF98
:1059F00092BD81BDF89A992780B50895A6E1B0E0DF
:105A000044E050E00C94E82CA8E1B0E042E050E023
:105A10000C94E82CDC01A40FB51F4150504048F015
:105A2000CB01840F951F2E910E941B2D4150504099
:105A3000D0F70895262FF999FECF92BD81BDF89A2F
:105A4000019700B4021639F01FBA20BD0FB6F894C2
:105A5000FA9AF99A0FBE08950396272F0E941B2DDC
:105A60000E941A2D252F0E941B2D242F0C941B2DD4
:105A70000196272F0E941B2D0C941A2D052E97FBA3
:105A80001EF400940E94552D57FD07D00E94702DE2
:105A900007FC03D04EF40C94552D5095409530954D
:105AA00021953F4F4F4F5F4F08959095809570958A
:105AB00061957F4F8F4F9F4F08950E94922DA59F14
:105AC000900DB49F900DA49F800D911D11240895F9
:105AD000B7FF0C945D2D0E945D2D821B930B0895E2
