:100000000C94B1040C94CE040C94CE040C94CE0445
:100010000C94CE040C94CE040C94CE040C94CE0418
:100020000C94CE040C94CE040C9431150C947314DF
:100030000C94FE1D0C94CE040C94CE040C94CE04AF
:100040000C94CE040C94CE040C94CE040C94CE04E8
:100050000C94CE040C94BD1D0C94CE040C94CE04D0
:100060000C94CE040C94CE040C94CE040C94CE04C8
:100070000C94CE040C94CE040C94CE040C94CE04B8
:100080000C94CE040C94CE040C94CE040C94CE04A8
:100090000C94CE040C94CE040C94CE040C94CE0498
:1000A0000C94CE040C94CE040C94CE04F208F20806
:1000B000250925099009AD0AAD0AAD0AAE09220A43
:1000C000330A330A8B12B2125B14B2125B14FE12A3
:1000D00021135B1416142614EC1AEF1AFE1AF21AE6
:1000E000F71AFC1AFA1A861C891C8C1C8F1C921C8D
:1000F000951C981C0000000000000000000000009B
:1001000000000000000000000000000000000000EF
:1001100000000000000000007E0F00D4FFFFFFC7BA
:100120000000007800000000000000002A2B2800DA
:100130000000000000000000000000000000002996
:10014000000000002C1E3420212224342627252ED6
:10015000362D3738271E1F2021222324252633330E
:10016000362E37381F0405060708090A0B0C0D0E3A
:100170000F101112131415161718191A1B1C1D2F06
:100180003130232D350405060708090A0B0C0D0E26
:100190000F101112131415161718191A1B1C1D2FE6
:1001A0003130354C01012901043130307C01012B03
:1001B00001043130307C01012B01043130307C01ED
:1001C000012B01043130307C0101290029002B0072
:1001D000E000E100AE5D00001E00140004001D0000
:1001E000010035661F001A0016001B000100E30025
:1001F0002000080007000600E2000254210015005C
:100200000900190002542C00220017000A00050002
:10021000000003532300500300004A000000045371
:1002200022004F1300004D0000004B0023001C0073
:100230000B00110000002C0E240018000D0010000F
:1002400001544E0025000C000E003600E2002C4147
:10025000260012000F00370001002C0027001300B9
:10026000330038000100290035002A00280034003E
:10027000100F0000B25D2B02010001000100000020
:10028000010001002D020100010001000100310206
:100290003100010001000100010001002E020100F7
:1002A00001000100010001002D000100010001001A
:1002B000010001002E00010000000100010001000A
:1002C0000000010000000100010001000000010029
:1002D0000000010001000100010001000000010018
:1002E00001002F002F022602010001000100300052
:1002F000300227020100010001000100010001009D
:1003000001000100010001000100010001000100E5
:1003100001000100010001000100000029000100AE
:10032000E000E10001000000010001000100010007
:10033000010001003B040100010001000100010077
:100340000100010001001004010001000100010092
:10035000010001000100010001001705010001007A
:100360000000010001000100000001000000010088
:100370000100010000000100000001000100010077
:1003800050000100000001000100010051000100C7
:100390000100010001000100520001000100010004
:1003A000010001004F0001000100010001000100F7
:1003B0000100010001000100010001000100010035
:1003C00001000000290001000100010001000000FF
:1003D0003A003F0044000100010001003B004000E2
:1003E00045000100010001003C00410068000100DF
:1003F000010001003D004200690001000100010010
:100400003E0043006A00010000000100A800A900AE
:100410000000AA00000001000100AE00000048003A
:1004200000000100010001000100010000000100C6
:1004300001000100010001000100010001000100B4
:10044000010001000100AB000100010001000100FA
:100450000100AC00010001000100010001000100E9
:10046000010001000100010001000000290001005D
:100470000100010001000000010001000100010075
:100480000100010001000100010001000100010064
:100490000100010001000100010001000100010054
:1004A0000100010001000100010001000100010044
:1004B0000000010001000100000001000000010037
:1004C0000100010000000100000001000100110016
:1004D00023022E00000001004C00240021001E0019
:1004E000360001003800250022001F00270001000F
:1004F0002502260023002000630001002D002E02AB
:1005000028002B002B120100010001000100010056
:1005100001000000010001000100010001000000D5
:1005200001000100010001000100010001000100C3
:1005300001000100010001000100010001000100B3
:1005400001000100010001000100010001000100A3
:100550000100010001000100000001000100010094
:100560000000010000000100010001000000010086
:1005700000000100010001000B0601000000010065
:10058000010001000D060100010001000100010051
:100590000100010001000100010001000100010053
:1005A0000100010001000100010001000100010043
:1005B00001000100010001000100000005010980A7
:1005C000A101850319012AB700150126B70095017D
:1005D00075108100C0050C0901A101850419012ACB
:1005E000A002150126A002950175108100C0050129
:1005F0000906A1018506050719E029E7150025016F
:100600009508750181020507190029EF15002501DC
:1006100095F07501810205081901290595057501F7
:100620009102950175039101C00660FF0961A10166
:100630000962150026FF00952075088102096315DF
:100640000026FF00952075089102C005010906A14A
:1006500001050719E029E7150025019508750181B5
:10066000029501750881010507190029FF1500266B
:10067000FF009506750881000508190129059505F3
:1006800075019102950175039101C009025B000398
:100690000100A0FA09040000010301010009211171
:1006A000010001224000070581030800010904013F
:1006B00000020300000009211101000122220007AD
:1006C000058203200001070503032000010904023D
:1006D000000103000000092111010001226D000743
:1006E0000584032000011201000200000008973277
:1006F00075490100010200012203450072006700F4
:100700006F0044006F007800200045005A00200070
:100710005300680069006E006500000028035A005D
:1007200053004100200054006500630068006E0023
:100730006F006C006F006700790020004C006100C2
:100740006200730000000403090400047F3F1F647B
:100750003214643214783C1E1E140A052223252606
:1007600028292A2C2D2F3032333536383A3B3D3E5E
:100770004042434547494A4C4E5051535557595AA8
:100780005C5E6062646668696B6D6F7173757779C2
:100790007B7D7F81838587898A8C8E9092949698C1
:1007A0009A9C9E9FA1A3A5A7A8AAACAEAFB1B3B4D3
:1007B000B6B8B9BBBCBEBFC1C2C3C5C6C7C9CACB28
:1007C000CCCDCED0D1D2D2D3D4D5D6D7D7D8D9D9F3
:1007D000DADADBDBDBDCDCDCDCDCDDDDDDDDDCDC5C
:1007E000DCDCDCDBDBDBDADAD9D9D8D7D7D6D5D479
:1007F000D3D2D2D1D0CECDCCCBCAC9C7C6C5C3C245
:10080000C1BFBEBCBBB9B8B6B4B3B1AFAEACAAA899
:10081000A7A5A3A19F9E9C9A98969492908E8C8A4D
:1008200089878583817F7D7B79777573716F6D6B28
:100830006968666462605E5C5A5957555351504E00
:100840004C4A4947454342403E3D3B3A38363533B2
:1008500032302F2D2C2A29282625232200010101A0
:10086000010101010101020202020202020202036D
:10087000030303030303030404040404040405053D
:100880000505050606060606070707070708080800
:1008900008090909090A0A0A0B0B0B0C0C0C0D0DAF
:1008A0000D0E0E0E0F0F0F10101111111212131347
:1008B0001414151516161717181819191A1A1B1BC0
:1008C0001C1D1D1E1E1F202021222223242425261C
:1008D00026272829292A2B2C2D2D2E2F3031323254
:1008E000333435363738393A3B3C3D3E3F40414260
:1008F000434445464748494A4C4D4E4F5051535446
:10090000555658595A5B5D5E5F61626465666869F9
:100910006B6C6D6F7072737577787A7B7D7E808279
:10092000838587888A8C8E8F91939596989A9C9EC2
:10093000A0A2A3A5A7A9ABADAFB1B3B5B7BABCBED2
:10094000C0C2C4C6C9CBCDCFD1D4D6D8DBDDDFE29F
:10095000E4E7E9EBEEF0F3F5F8FAFDFFFFAA7F55C7
:10096000400011241FBECFEFDAE0DEBFCDBF11E0A3
:10097000A0E0B1E0E0EDF2E502C005900D92AA39E9
:10098000B107D9F723E0AAE9B1E001C01D92AB316C
:10099000B207E1F70E9491160C9466290C940000AE
:1009A000A5E2B0E0E6EDF4E00C949C26FC01808129
:1009B000918123813481232B31F09F3F31F491E0E9
:1009C0008F3F19F403C091E001C090E090FDF3C5A2
:1009D0007F0185E0DE01919601900D928A95E1F705
:1009E000D70112962C9189A19AA1222349F00E9445
:1009F0009C23182F682F89A19AA10E940C2403C060
:100A00000E94D823182F69A17AA1812F0E94240B5C
:100A10008C0180915002882309F44FC0F701828134
:100A20008111F8C1E0919C01E330A0F481E08E0FC8
:100A300080939C01F0E0EE0FFF1FE657FD4FD701BA
:100A40008D919C919183808382E08983CE01019670
:100A50000E946516BFEFE3EDF0E3B150E040F040D7
:100A6000E1F700C0000080919C01833009F0D2C101
:100A700010929C01E0E9F2E0AAE8B2E086E992E097
:100A8000318111962C911197321330C030812C9105
:100A900032132CC0329612968E179F0789F784E086
:100AA000898381E0809351028EEF8A8310925002F5
:100AB000CE0101960E946516ADC180915102882336
:100AC000D1F0D70112968C91882311F086E001C0F5
:100AD00087E08983F70180818A8381818B838EEF10
:100AE0008C83CE0101960E94651605C083E0898340
:100AF00010925102D9CF0F3ABDE51B07E9F5D70196
:100B000012968C91882309F423C19091550281E0BB
:100B1000890F8770987F853020F4892B8093550248
:100B200002C090935502809155028770BFEF8B9F52
:100B3000C001112495958795959587959927909350
:100B400089008093880090938B0080938A00909313
:100B50008D0080938C004091550250915602609117
:100B60005702709158028FE090E00E9473278091A5
:100B700067020E94D51AECC0013BEDE51E0709F49F
:100B8000D0C0023BFDE51F0731F0003B2DE5120709
:100B900009F4CEC0D9C0D70112968C91882309F4EC
:100BA000D7C024EAC22E21E0D22E3AE0432EF6012D
:100BB0002491222309F4CCC0213009F04EC0319693
:100BC0008491813069F4F2E0CF0ED11CF60184915A
:100BD000893319F460E570E09CC060E070E099C072
:100BE000823041F4F2E0CF0ED11CF60184910E94D4
:100BF000FA2493C0833041F4F2E0CF0ED11CF60109
:100C000084910E94CE2489C0843009F085C0F2E02E
:100C1000CF0ED11CF601249180E090E030E020530B
:100C200031092A30310570F4489EA001499E500DCB
:100C30001124C901840F951FFFEFCF1ADF0AF601B7
:100C40002491ECCF009709F468C0AFE9BFE0119799
:100C5000F1F700C000000197F5CFE22FF0E0EC5D66
:100C6000FE4F5490822F86958695869590E0FC01E4
:100C7000EC5EFE4F64902770712C022E02C07594BA
:100C800067940A94E2F7B1E06B227724FC01EC5FF1
:100C9000FE4F8490912C022E02C0959487940A9462
:100CA000E2F7E1E08E229924FC01EC50FF4FA49082
:100CB000B12C02C0B594A7942A95E2F7F1E0AF22D7
:100CC000BB246114710419F081EE0E94FA2481148E
:100CD000910409F4B8C086EE0E94FA2429E3521662
:100CE00009F4ABC060E070E0852D0E949A25811464
:100CF000910419F086EE0E94CE246114710419F05B
:100D000081EE0E94CE24A114B10439F060E070E0BD
:100D10008CE20E949A2501C06F013FEFC31AD30AEB
:100D200046CFD70112968C91882309F473C03CC03A
:100D3000F7018281882309F46DC090919D0181E0C3
:100D4000892780939D0166C00E3AEDE51E07A9F143
:100D50008091E402882309F484C1D0902202C090DB
:100D600017020E94F21D88579C4E90938802809330
:100D70008702F701828181116FC080912202827205
:100D80000D3C2CE5120709F450C108F4CCC0023D1B
:100D90003CE5130709F456C160F50F3C9CE51907C3
:100DA00009F44AC108F004C181E004C08160809365
:100DB000DE0286950E9476232DC0D70112968C9173
:100DC000882341F18091E402882319F00E94881E53
:100DD00021C0109222020E943C0D0E94F21D8857F1
:100DE0009C4E909388028093870281E08093E40276
:100DF00011C0053DFCE51F0709F42AC108F4E5C050
:100E0000063D9CE5190709F428C10F35ADE51A0721
:100E100009F09BC18091F601877009F4CCC3D7011A
:100E200012968C91882309F4C6C38091F10282FF47
:100E3000C2C382E00E949E0DBEC360E570E089E3FC
:100E40000E949A2557CFF9E35F124CCF60E570E01E
:100E500089E30E949A2551CF8C2D8D298D7909F037
:100E60005FC00115F5E51F07B0F4011523E5120772
:100E700008F0F7C0011530E5130740F4011580E4D0
:100E8000180710F5063E110539F5EBC0011592E57E
:100E9000190710F5E6C00115A9E51A0750F4011568
:100EA000B8E51B0708F0DDC00431E5E51E07A1F435
:100EB000D8C0C80190568115904270F4D70115969C
:100EC0008C91807F31F42CC0F7018581807F09F4FB
:100ED000C8C0C801992701C0C8011092E302883236
:100EE000910538F48E31910508F0B9C00497C0F02F
:100EF00011C08D32910571F020F48A9709F4AFC0CA
:100F00000FC08C34910509F4AAC08D32924009F4C7
:100F1000A6C006C082E08093E3020E94490D9FC0F4
:100F20000E94881E9EC0073C9CE5190709F469C011
:100F3000D8F4043CBCE51B0709F459C030F4033C69
:100F4000FCE51F0709F44CC000C1053C2CE5120765
:100F500009F452C0063C3CE5130709F0F6C042EE26
:100F600052E26CEE72E265C00A3C9CE5190709F496
:100F700052C078F4083CBCE51B0709F447C0093CA3
:100F8000ECE51E0709F0E1C045ED52E268EC72E2C3
:100F900050C00B3CFCE51F0709F442C00C3C2CE59B
:100FA000120709F0D2C041E351E263E471E241C0AB
:100FB000003DBCE51B0709F442C0013DECE51E07FE
:100FC00009F0C3C06EE089E045C0033D3CE513076E
:100FD000E1F1043D8CE5180709F0B7C088E1EACEDD
:100FE0008091DE0280FFE2CE0E94772113CF4AE794
:100FF00053E264E873E21DC044E853E26AE773E237
:1010000018C04CEE52E262EE72E213C048EC52E2BB
:1010100065ED72E20EC04EEA52E26BEB72E209C07D
:101020004BEB52E26EEA72E204C043E451E261E348
:1010300071E20E94C91EEECE65E082E00BC068E05E
:1010400086E008C064E18FE005C067E185E102C089
:1010500062E289E10E94B61EDDCE83E2ABCE0E9441
:10106000490DD70112968C91882309F486CE0C3550
:10107000BDE51B0709F464C060F40115FCE51F071A
:10108000A9F00F3D2CE5120709F05FC00E94C60CC5
:101090004CC00E353DE5130709F44AC008F452C0B0
:1010A000093A9DE5190709F440C04FC01092220289
:1010B0000E94A924AFEFB4E3ECE0A150B040E040BF
:1010C000E1F700C00000F89481E08093E00080E246
:1010D0008093D8001092C9008FE19EE40197F1F748
:1010E00000C000001DBA109268001CBC10BE1FBAE0
:1010F00010927A0010926E0010926F0010927100A0
:10110000109272001092C9001092BC0014B817B867
:101110001AB81DB810BA1092BC0015B818B81BB890
:101120001EB811BA0C94003F75CE0E94BD1A72CE43
:101130008091F10282FB882780F991E0892703C022
:1011400081E001C080E00E94BB0DF7018281008137
:101150001181882349F0C8010E949C23D82E682F52
:10116000C8010E940C2404C0C8010E94D823D82EB4
:10117000B8018D2D0E94240B0E943D0BB82E192F13
:10118000982EF7010281A580A2949FE0A922809168
:10119000F6018770B9F00023A9F0812F807F803499
:1011A00021F080E28B0D883068F08091F10282FF9F
:1011B00009C082E00E949E0D8091F6018770DD24B7
:1011C000D3948111D12CC12EC2948FE0C8228C2DD2
:1011D00090E08C30910508F0C0C1FC01EA5AFF4F45
:1011E0000C940A28812F807F1F70882311F012959C
:1011F000107F0023B9F0112309F49DC180E28B0D0B
:10120000883010F0911006C080912202182B1093A4
:10121000220205C08091E302182B1093E3020E9482
:10122000490D89C18B2D0E94CE24112309F495C14B
:1012300080E28B0D883080F1992071F110958091BA
:10124000E30218231093E3022AC0812F807F1F70CE
:10125000803211F01295107F8B2D992021F0F1E052
:101260009F16D9F147C08091F10282FD1BC0002377
:1012700069F0112339F080912202182B1093220279
:101280000E94490D80E00E94FA2467C180E00E941C
:10129000CE24112309F461C1812F0E94420D0E94C6
:1012A000490D5BC1002381F080911702AA2051F003
:1012B00021E0A21207C0182B181709F44EC1109391
:1012C00017024BC1812B10C0AA2021F031E0A316D8
:1012D00009F443C10E943C0D1FC0002341F081E08E
:1012E0008A1508F43AC1812F0E94C42436C1A11086
:1012F00034C112C0002319F0AA20A9F31CC1AA20EE
:1013000059F0893309F026C19FEFA7EEB3E0915061
:10131000A040B040E1F71CC1812F0E94BD241DC137
:10132000812F86958695837019F0813061F015C103
:10133000002321F08B2D912F937002C080E090E06C
:101340000E94651E10C1002321F08B2D912F9370F8
:1013500002C080E090E00E944F1E05C1812F837083
:10136000A9F50111FEC04B2D429546954770440FDB
:10137000440F8B2D8F7090E09C01042E01C0220F32
:101380000A94EAF7B4FE08C08FE090E001C0880F2D
:101390004A95EAF7809501C080E01695169513707E
:1013A000123069F088F490911802113019F0822BF4
:1013B000892302C0922B892B0E948424D2C0822BC5
:1013C000909118028927F8CF822BF6CF002319F0CD
:1013D000812F817001C08695882309F4C2C04B2DEE
:1013E000429546954770440F440F8B2D8F7090E0C7
:1013F0009C01042E01C0220F0A94EAF7B4FE08C033
:101400008FE090E001C0880F4A95EAF7809501C00F
:1014100080E0169516951370123059F078F490917B
:101420006702113019F0822B892309C0922B892B76
:1014300006C0822B90916702892701C0822B0E94EF
:1014400041248FC01F70002339F0812F0E9478241F
:101450008B2D0E94C42485C08B2D0E94BD24812F1A
:101460000E946B247EC08B2DE2EF9E1669F1E91578
:1014700038F0F0EF9F1659F021EF921601F157C0A6
:1014800033EF931641F194EF9916A9F050C0002361
:1014900069F0A11062C01F7181E090E001C0880F67
:1014A0001A95EAF79091670289271FC0A1E0AA1553
:1014B00008F453C0F0CF8091F10282FD19C00023DF
:1014C00029F0812F8F7126C00023D9F3812F8F71CE
:1014D0000E946B2442C0002339F01F7181E001C0DB
:1014E000880F1A95EAF701C080E00E94412435C0B8
:1014F000002399F01F71812F0E9478248091F102BE
:1015000082FF07C0B8E01B9FC00111248360809355
:10151000F601812F0E94782420C081E00E949E0D58
:10152000E1E0EA15D0F482E00E949E0D16C000238F
:1015300021F0AA2031F28B2DA6CEAA2039F28933D0
:1015400049F4FFEF27EE33E0F15020403040E1F75F
:1015500000C000008B2D0E94CE2488EF8C0D8430BB
:1015600010F40E947B1EDD20B1F08091F60180FD19
:1015700012C0D70112961C928595859585950E947B
:101580007824C7010E94D0048091F6018595859545
:1015900085950E946B2485E0F701DE01119601908C
:1015A0000D928A95E1F709811A81C8010E94D8231A
:1015B000B8010E94240BA596E0E10C94B82680E0C7
:1015C00008959091F00292FF0DC0282F28712830C5
:1015D00019F4877F846006C0282F2471243011F409
:1015E0008B7F886093FF0DC0282F2871283119F454
:1015F000877E846106C0282F2471243111F48B7EEC
:1016000088612091F10220FF0DC0382F38713830E9
:1016100019F4877F816006C0382F3171313011F4A1
:101620008E7F886021FF0DC0282F2871283119F482
:10163000877E816106C0282F2171213111F48E7EB1
:10164000886194FD877E08957E30A0F4663090F422
:1016500094E5899FF001112486E0789FE00DF11D4B
:101660001124E60FF11DEE0FFF1FE453FE4F85918D
:101670009491089580E090E00895CF93DF938238AD
:10168000910569F1B0F48133910509F46FC048F414
:101690008932910509F465C08A32910509F46BC05D
:1016A0008AC08533910509F457C089339105B9F093
:1016B00082C0833E910571F138F4803E9105B1F00E
:1016C000823E910511F177C0863E9105B9F1873EC2
:1016D0009105C9F1843E910509F06DC024C02091A7
:1016E000F00220FD53C021FD51C065C08091F00281
:1016F00080FD46C08091F10280FF48C08091F002D9
:1017000084FD3FC183EE90E03EC18091F00282FFF4
:101710003AC0F4CF8091F00282FD35C08091F10291
:1017200080FD34C0EBCF8091F10281FF35C0809104
:10173000F00284FD26C187EE90E025C18091F00281
:1017400083FF27C0F4CF8091F00283FD22C08091F7
:10175000F10281FD21C0EBCF8091F00285FD1FC019
:1017600021C08091F00285FD1DC019C08091F0025A
:1017700086FD1BC01DC08091F00286FD19C015C0FA
:1017800089E390E000C182EE90E0FDC080EE90E041
:10179000FAC086EE90E0F7C084EE90E0F4C089E2F3
:1017A00090E0F1C085E390E0EEC08AE290E0EBC00B
:1017B00081E390E0E8C0811532E5930708F069C045
:1017C000811541E5940728F0982F8827816F906A4A
:1017D000DAC0883E910568F5803E910508F0D3C0D7
:1017E000883A9105B8F4853A910548F0855AE82F72
:1017F000F0E0E85DFE4F808190E09064C4C08130ED
:10180000910509F4BBC008F4BCC08430910508F40C
:10181000B8C0B9C08F3B910508F0B3C0885AE82F13
:10182000F0E0EE0FFF1FE55DFE4F80819181946433
:10183000AAC0811520E59207F0F09C0174E036956E
:1018400027957A95E1F7922F9370482F437021E006
:1018500030E002C0220F331F4A95E2F73C68392B73
:101860008F70982F9695969540E2949FC001112411
:10187000822B932B88C0811530E4930718F09F705A
:10188000906A81C09C013A9521153F4108F47BC0C4
:1018900078C0EC01C11586E5D807E8F5C11525E546
:1018A000D20748F08C2F0E94E10A8F7190E0982FA8
:1018B0008827906268C0C11534E5D30728F09C2FB3
:1018C0008827846F906A5FC0AE01437055272C2F24
:1018D00026952695C115D34578F481E090E002C0A5
:1018E000880F991F4A95E2F740E2249F9001112446
:1018F000822B932B9C6847C081E090E002C0880F48
:10190000991F4A95E2F740E2249F90011124822B0F
:10191000932B9A6838C0C1152AE5D207F8F4C1158F
:1019200039E5D30790F08C2F8F700E94E10A94E084
:10193000D695C7959A95E1F7CF70D0E0DC2FCC27EC
:10194000D0699E01282BC9011EC0C11548E5D407E6
:10195000C0F09C2F8827806F906A15C0CE019056EA
:101960008115904270F48D2F8F710E94E10A282F0B
:101970002F71CE0199279062922B05C081E090E0F3
:1019800002C080E090E0DF91CF91089568EE7EEF95
:1019900080E090E00E947F2760E082E090E00E947B
:1019A000612760E083E090E00E94612710921802B6
:1019B00060E084E090E00E94612764E082E290E0D1
:1019C0000E94612760E085E090E00E94612760E06E
:1019D00086E090E00E9461276FEF87E090E00E9430
:1019E000612740E050E0BA0188E090E00E94732750
:1019F00060E08DE090E00E94612740E050E0BA0195
:101A000088E190E00E94732760E087E190E00E9407
:101A1000612740E050E0BA018CE190E00E9473271A
:101A200060E070E080E290E00E947F2740E050E0BC
:101A3000BA0188E190E00E9473271092550210923B
:101A40005602109257021092580284E08093550279
:101A50004091550250915602609157027091580280
:101A60008FE090E00E94732740E050E0BA0183E1EC
:101A700090E00E94732708958091170281111092BF
:101A80001702089580959091220289238093220263
:101A90000895909122028091E302982B90939E01E9
:101AA000809117028823D9F0892B80939E01809121
:101AB0000A01882331F08091F00287FF02C08EE195
:101AC00001C086E0E0EAF1E090E0815028F0219149
:101AD0002223D9F39F5FF9CF91110E943C0D40E280
:101AE00050E067EF71E08EE991E00E945929892B5F
:101AF00021F180E2EEE9F1E0A7EFB1E001900D9273
:101B00008A95E1F7E091E702F091E8023097A9F0B9
:101B100080910A01882359F08091F00287FF07C065
:101B200080919E0180939F0186E080939E010280B8
:101B3000F381E02D8EE991E0099508952091F60159
:101B4000809582238093F601982F977099F430E066
:101B5000482F082E000C550B2417350759F090918B
:101B6000F10292FF07C08595859585950E946B24AB
:101B70001092F6010895CF93C091F102C2FB99270C
:101B800090F9981791F080FBC2F9C093F10260912F
:101B9000F00284E090E00E9461276C2F82E290E0E6
:101BA0000E94612782E00E949E0DCF91089580914E
:101BB000F5019091C401891719F08F5F8770FBCFF1
:101BC00008950F931F93CF93DF938091C301829564
:101BD0008F7009F05AC08091C001882309F455C064
:101BE0008091F5011091C4016091BE017091BF0117
:101BF000C091C101D091C20191E06F3F09F090E026
:101C0000292F06E0811709F440C0209721F07F3F7B
:101C100021F030E003C031E001C0322F90E030FD10
:101C200031C0089FF001099FF00D1124DF01AB5373
:101C3000BE4F11963C911197371324C03C91361337
:101C400021C012963C91129731111CC013964D91F0
:101C50005C9114974C1B5D0B483C510598F48091A6
:101C6000C3018F7080618093C301E653FE4F808172
:101C70008F70806180838EEB91E00E94D0040E947F
:101C8000D70D03C001968770BDCFDF91CF911F9113
:101C90000F910895A1E1B0E0E0E5FEE00C94A126EB
:101CA0008C0185E0F801DE011D9601900D928A9568
:101CB000E1F7F801E2809091BE016091BF0140918F
:101CC000C1015091C2014115510531F06F3F31F40E
:101CD00081E09F3F19F403C081E001C080E0F82F4C
:101CE000F1709F2E80FD1BC1F80130812181C380DE
:101CF000D4808EEBA82E81E0B82EF090C001F601C2
:101D0000E41BF50BFF2009F4C7C08091C301E83C38
:101D1000F10508F092C0482F407F09F051C06213CE
:101D200011C093130FC0FE2CE1100CC08F708061A6
:101D30008093C301C5010E94D0048091C301F801C2
:101D400085832AC1C114D10431F02F3F31F481E0E1
:101D50003F3F19F403C081E001C080E080FD03C073
:101D600081E08E2502C080E090E0F82FF170FF2E18
:101D700080FF1CC08091F5014091C40156E084179A
:101D800009F4E8C090E0589FF001599FF00D11242C
:101D9000EB53FE4F6181261306C06081631303C0BD
:101DA0006281E61203C001968770E9CFFE2CEE2017
:101DB00009F4F2C08091C30181608093C30149C0DE
:101DC000621306C0931304C0E11002C0F80186C07C
:101DD000C8010E948924882351F1EE2041F120910D
:101DE000C301822F82958F7090E0029774F08091EA
:101DF000BE019091BF0198878F831986DB86CA86C2
:101E00002C87CE0107960E94D00486E0F801AEEB45
:101E1000B1E001900D928A95E1F70E94E10D0AC0B0
:101E20006217C9F0C8010E94892481111EC0C8012F
:101E30000E94D004FF24F394AFC0482F407F81F765
:101E40008EEB91E00E94D00486E0F50111928A9514
:101E5000E9F7F12CA1C09313E5CFE110E3CFF8012E
:101E60008583C8010E94D00454C0EE2001F3209164
:101E7000C301822F82958F7090E0029734F2809197
:101E8000BE019091BF019A8389831B82DD82CC823F
:101E90002E83CE010196B7CFE83CF105D0F5FE2C9C
:101EA000EE2029F2621327C0931325C02091C301AD
:101EB00020FD18C0822F82958F70482F50E0411569
:101EC000510581F0F80125834F30510541F08F5FB6
:101ED000982F9295907F822F8F70892B8583C801D0
:101EE0000E94D00486E0F801AEEBB1E001900D92C3
:101EF0008A95E1F751C0C8010E948924811185CFDC
:101F00008091C30181608093C301C8010E94D00405
:101F100043C086E0F50111928A95E9F73DC0EE20B5
:101F200009F485CFC8010E948924F82E882309F47A
:101F30007ECF86E0F801AEEBB1E001900D928A957C
:101F4000E1F78091BE019091BF010E94CB230E94D6
:101F5000E10D22C03D872E878D859E850E94CB2373
:101F6000292F22952F70223028F49F7039F081118B
:101F700005C00BC0243028F49F7049F4805E88307F
:101F800020F0C8010E94D0049F2CF92C05C0F80154
:101F90009581907F99F7F9CF8F2D6196EBE00C94A6
:101FA000BD26A0E0B0E0E7EDFFE00C94A326809111
:101FB000180190911901892BB9F0809119028F5F56
:101FC00080931902811110C00E94611B90E09093D0
:101FD000190180931801892B39F40E94D81B81E0E4
:101FE000809317010E94312309E512E07801B12C9A
:101FF000C0E087E0C82ECC0E8C2F0E94481C8C2D90
:102000000E94481C8C2F0E94AB1C8F73F70190819B
:10201000891721F08083DD24D39401C0D12C8C2D2D
:102020000E94AB1C8F73F7019781891719F0878382
:1020300081E001C080E0D82ABD280E949C1CCF5FAF
:10204000FFEFEF1AFF0AC730A1F6C0911D02CC23A3
:10205000C9F10E94F21D20911B0230911C02AC01BB
:10206000421B530B9A0190931C0280931B024F3F1B
:10207000510509F020F4452B09F4A1C002C02FEF4F
:1020800030E010921D0210921A02E0915302F0917A
:102090005402AF01425F5F4F90E030E080818823BF
:1020A00041F0281718F010829C2F03C0821B8083F8
:1020B0003C2F3196E417F50789F730931D02909372
:1020C0001A027DC0BB2009F471C00E94F21D9093DA
:1020D0001C0280931B02E0915302F0915402809104
:1020E0001D02AAE6B2E09F01225F3F4F4EE1E801E8
:1020F00099918E015C91591731F05081511103C0B3
:1021000040839C9381E031961196E217F30779F7AB
:1021100080931D022091500280911F029091200215
:102120002223C9F1892B31F425982D9826982E98D1
:1021300027982F9880911F02909120029170892BEF
:1021400079F480911E02882319F026982E9802C0F7
:10215000269A2E9A90911E0281E0892780931E0272
:1021600080911F02909120028130984750F0109288
:102170005002809167020E94D51A1092200210929C
:102180001F0280911F0290912002019690932002DD
:1021900080931F0218C0892BB1F010922002109278
:1021A0001F02809167020E94D51A0DC080E09091B5
:1021B0001A02992309F4AECF81118DCF86CFB110C9
:1021C0008ACF81E0F4CF8B2DCDB7DEB7E9E00C9458
:1021D000BF268091480287FF11C08091E80082FDF0
:1021E00005C0809152028111F8CF11C08091E800A2
:1021F0008B770BC080915202882349F08091E800D0
:1022000080FFF8CF8091E8008E778093E8000895F2
:10221000982F973068F59093E900981739F07091EE
:10222000EC002091ED005091F00003C0242F762F98
:1022300050E021FD02C09F5FECCF3091EB003E7F6C
:102240003093EB003091ED003D7F3093ED00309105
:10225000EB0031603093EB007093EC002093ED00C5
:102260005093F0002091EE0027FDE5CF80E0089527
:102270008F708093E90081E0089520914E023091A3
:102280004F022617370748F06115710539F4209180
:10229000E8002E772093E80001C0B901FC0120E09E
:1022A0006115710579F1809152028823F1F1853031
:1022B000F1F18091E80083FD3CC08091E80082FD4F
:1022C0002EC08091E80080FFEBCF2091F300809139
:1022D000F20090E0922B6115710551F08830910564
:1022E00038F421912093F100615071090196F3CFE8
:1022F00021E0089709F020E08091E8008E77809334
:10230000E800CECF2111CFCF0AC08091520288239E
:1023100061F0853061F08091E80083FD0AC0809112
:10232000E80082FFF2CF80E0089582E0089583E024
:10233000089581E008950895BC0184E00E94931DF2
:102340000895BC0183E00E94931D0895AAE2B0E0C5
:10235000ECEAF1E10C94A926E8E4F2E080E592E0F1
:102360002091F10021938E179F07D1F780914902A8
:10237000833009F463C030F4813071F0823009F4A5
:102380009FC0B6C08A3009F48BC08B3009F46EC090
:10239000893009F0ADC020C080914802813A09F02F
:1023A000A7C08091E800877F8093E80080914C026D
:1023B00090914D02892B21F460E285E292E003C006
:1023C00060E080E090E070E00E943D118091E800C4
:1023D0008B778093E8008CC080914802813209F0AD
:1023E00087C080914C0290914D02009719F002979E
:1023F00009F07EC08091E800877F8093E80080919B
:10240000E80082FD05C0809152028111F8CF70C0B2
:102410002091F3008091F20090E0922B029731F42A
:102420008091F100813011F0863021F48091F1002B
:10243000809324028091E8008B7756C080914802F7
:10244000813A09F055C080914C0290914D02892B40
:1024500009F04EC08091E800877F8093E80080916A
:10246000E80080FFFCCF80910A0139C080914802CA
:102470008132F1F580914C0290914D02892BC1F58A
:102480008091E800877F8093E8000E94E9108091A6
:102490004A0280930A01109222020E94A92428C0B5
:1024A00080914802813221F58091E800877F8093F6
:1024B000E8000E94E91080914B028093230218C02B
:1024C00080914802813AA1F48091E800877F80934F
:1024D000E8008091E80080FFFCCF80912302809388
:1024E000F1008091E8008E778093E8000E94E91067
:1024F0008091E80083FFDFC18091480290914902FA
:10250000492F50E04A30510508F0D5C1FA01EE5983
:10251000FF4F0C940A28803821F0823809F0CBC193
:1025200008C08091450290914602992389F082600B
:102530000FC080914C028F70873008F0BCC180932F
:10254000E9008091EB0085FB882780F91092E90073
:102550009091E800977F9093E8008093F1001092AB
:10256000F10070C1282F2D7F09F0A5C1882319F033
:10257000823061F0A0C180914A02813009F09BC194
:10258000933009F080E0809346022EC080914A0289
:1025900081112AC080914C028F702FEF280F2630B6
:1025A00008F089C18093E9002091EB0020FF1CC056
:1025B000933021F48091EB00806214C09091EB0085
:1025C00090619093EB0021E030E0A90102C0440F3C
:1025D000551F8A95E2F74093EA001092EA00809135
:1025E000EB0088608093EB001092E9008091E80096
:1025F000877F8093E8000E94E9105DC181115BC173
:1026000010914A021F778091E3008078812B80939C
:10261000E3008091E800877F8093E8000E94E91042
:102620008091E80080FFFCCF8091E3008068809378
:10263000E300111102C082E001C083E080935202E6
:102640003AC18058823008F036C120914A02309158
:102650004B022C3D53E0350779F583E08A838AE20B
:1026600089834FB7F894DE01139620E03EE051E2F3
:10267000E32FF0E050935700E49120FF03C0E29570
:10268000EF703F5FEF708E2F90E0EA3010F0C7964A
:1026900001C0C0968D939D932F5F243149F74FBFA2
:1026A0008091E800877F8093E8006AE270E0CE01C5
:1026B00001960E943D11B4C080914C0290914D0250
:1026C000432F552743305105A9F068F44130510597
:1026D00009F400C14230510509F0EDC08BE590E0EE
:1026E000EBE8F6E04BC04132510529F14232510589
:1026F00089F1E1C0C901992781309105A1F058F015
:10270000029709F0D8C0E8EFF6E0E4918E2F90E050
:10271000E8EFF6E030C0E6E4F7E0E4918E2F90E0D9
:10272000E6E4F7E028C0ECE1F7E0E4918E2F90E0DA
:10273000ECE1F7E020C08330910508F0BCC0880FC1
:10274000991FFC01EE59FE4F0190F081E02D89E0C8
:1027500090E014C08330910508F0ADC0FC01EE0F8D
:10276000FF1FE45AFE4F0190F081E02DDC01A75AD3
:10277000BE4F8C9190E0009709F49DC02091E80035
:10278000277F2093E80020914E0230914F022817B6
:10279000390708F4C90140E0009789F120915202FD
:1027A000222309F43DC02530D9F12091E80023FD12
:1027B00037C02091E80022FD2FC02091E80020FFC3
:1027C000EBCF4091F3002091F20030E0342B0097E2
:1027D00059F02830310540F444914093F10031968E
:1027E00001972F5F3F4FF3CF41E02830310509F0CB
:1027F00040E02091E8002E772093E800CDCF4111F2
:10280000CDCF0AC080915202882351F0853041F02B
:102810008091E80083FD04C08091E80082FFF2CF40
:102820008091E8008B778093E80045C0803809F0FC
:1028300042C08091E800877F8093E8008091470242
:102840008093F1008091E8008E77D3CE811133C060
:1028500080914A0290914B029927029764F58091EA
:10286000E800877F8093E80010914A0210934702A6
:102870000E94E910111106C08091E30087FD02C09B
:1028800081E001C084E08093520242E061EC81E08B
:102890000E94081142E261EC84E00E94081142E2C9
:1028A00061EC82E00E94081142E260EC83E00E9449
:1028B0000811809152028091E80083FF10C080913E
:1028C000E800877F8093E8008091EB00806280932E
:1028D000EB0005C082E190E0E6EEF6E04FCFAA966D
:1028E000E3E00C94C5261F920F920FB60F921124AD
:1028F0002F933F934F935F936F937F938F939F9308
:10290000AF93BF93CF93DF93EF93FF93C091E90011
:10291000CF708091EC00D82FD17080FDD0E810925C
:10292000E9008091F000877F8093F00078940E9406
:10293000A6111092E9008091F00088608093F00069
:10294000CD2BCF70C093E900FF91EF91DF91CF9134
:10295000BF91AF919F918F917F916F915F914F91B7
:102960003F912F910F900FBE0F901F901895E8ED9B
:10297000F0E080818E7F80831092E2001092DA0076
:102980001092E100A0EEB0E08C9181608C93808188
:102990008F77808319BCA7EDB0E08C918E7F8C93EC
:1029A00080818F7E8083109221020895A0E0B0E0A4
:1029B000ECEDF4E10C94A426C8EDD0E088818F7E84
:1029C0008883E7EDF0E080818160808384E082BFCE
:1029D00081E08093210288818E7F888302EE10E05F
:1029E000F80110821092DA0081EEC82ED12CF60187
:1029F000108288818F778883888180688883888126
:102A00008F7D888319BC1092520210924702109257
:102A100046021092450290EEE92EF12CF7018081DA
:102A20008B7F808388818160888342E060E080E0E2
:102A30000E940811F60180818E7F8083F8018081D9
:102A400081608083808188608083F70180818E7FB0
:102A50008083888180618883CDB7DEB7E8E00C94FD
:102A6000C0261F920F920FB60F9211242F933F93FF
:102A70004F935F936F937F938F939F93AF93BF9386
:102A8000EF93FF938091E10082FF09C08091E20003
:102A900082FF05C08091E1008B7F8093E1008091EF
:102AA000DA0080FF2AC08091D80080FF26C0809184
:102AB000DA008E7F8093DA008091D90080FF18C001
:102AC00080E189BD82E189BD09B400FEFDCF81E0CE
:102AD000809352028091210281110FC00E94B7148D
:102AE0000E94D6148091E20084608093E20005C0C9
:102AF00019BC10925202109221028091E10080FFD5
:102B000017C08091E20080FF13C08091E2008E7FA9
:102B10008093E2008091E20080618093E2008091E6
:102B2000D80080628093D80019BC85E0809352025F
:102B30008091E10084FF30C08091E20084FF2CC0CE
:102B400080E189BD82E189BD09B400FEFDCF80919D
:102B5000D8008F7D8093D8008091E1008F7E809394
:102B6000E1008091E2008F7E8093E2008091E2009C
:102B700081608093E20080914702882311F084E015
:102B800007C08091E30087FD02C081E001C083E0BF
:102B900080935202809152028091E10083FF27C00E
:102BA0008091E20083FF23C08091E100877F8093C2
:102BB000E10082E080935202109247028091E1008E
:102BC0008E7F8093E1008091E2008E7F8093E2000F
:102BD0008091E20080618093E20042E060E080E06A
:102BE0000E9408118091F00088608093F000FF91AE
:102BF000EF91BF91AF919F918F917F916F915F9175
:102C00004F913F912F910F900FBE0F901F901895ED
:102C10002091E4003091E50095E64091EC00842F8E
:102C2000817040FF23C08091E80080FD1DC080912D
:102C30005202882399F0853099F08091EB0085FD50
:102C400011C04091E4005091E5002417350729F3A5
:102C5000915011F09A01E1CF84E0089582E0089547
:102C600083E0089581E0089580E008954091E800B0
:102C700042FFDDCF0895EF92FF920F931F93CF9302
:102C8000DF937C018B010E940816811119C0E701B6
:102C900001151105A1F08091E80085FD0AC0809121
:102CA000E8008E778093E8000E940816882381F35D
:102CB00007C089918093F10001501109E9CF80E0AC
:102CC000CDB7DEB7E6E00C94C226CF932091520236
:102CD000243029F5C091E900CF703091EC00232F0A
:102CE000217030FD20E8C22B22E02093E9002091E2
:102CF000E80020FF11C040E050E060E270E00E9478
:102D00003B16882321F010925002109251028091BC
:102D1000E8008E778093E800CF70C093E900CF91F0
:102D20000895CF93DF93CDB7DEB7CC55D1090FB659
:102D3000F894DEBF0FBECDBF85B7806885BF85B76D
:102D4000806885BF84B7877F84BF0FB6F894A89545
:102D500080916000886180936000109260000FBED7
:102D600090E080E80FB6F894809361009093610042
:102D70000FBE8FED9AE090939B0180939A010E9481
:102D8000B7140E94D6148091E20084608093E20020
:102D90007894809152028823A1F01091E9001F706D
:102DA0009091EC00892F817090FD80E8182B109293
:102DB000E9008091E80083FD0E94A6111F70109326
:102DC000E90082E084BD93E095BD9AEF97BD8093C2
:102DD0006E000E94611B90E090931901809318018E
:102DE0000E949C1C0E94E21CE9E5F2E0AAE6B2E027
:102DF00011921D9222E0E736F207D1F78EE090E0C3
:102E00000E942B288093530290935402FC010E964B
:102E10001192E817F907E1F789EA8093800089E0C9
:102E20008093810024982C983F988AB18F7C8AB92E
:102E30006E98479A8BB180638BB9769A8FE090E059
:102E40000E94452760935502709356028093570263
:102E50009093580267708FEF689FB00111247595A9
:102E600067957595679577277093890060938800BB
:102E700070938B0060938A0070938D0060938C0038
:102E80000E94D81B80E090E00E944B27883E9E4F16
:102E900011F00E94C60C82E090E00E943D278093D2
:102EA000780284E090E00E943D27182F82E290E0B3
:102EB0000E943D27212F30E0382B3093F1022093E0
:102EC000F00283E090E00E943D270E9484248091DC
:102ED00067020E94D51A0E943123809167020E94E6
:102EE000D51A8BE091E09093E8028093E702A8E185
:102EF000EA2EF12CB0E4DB2E80915202853009F0ED
:102F00007DC0BB24B39400E112E180915202853070
:102F100009F065C080915202843009F43DC01092DE
:102F20009E0280916902811116C0B092690280915F
:102F3000DE02982F9170909368028E7F8093DE025C
:102F4000FFEF20E782E0F15020408040E1F700C031
:102F500000000E94E61E1092EB020FB6F894A895AE
:102F6000E09260000FBED092600083B7817F8460E2
:102F700083BF83B7816083BF7894889583B78E7F42
:102F800083BF0FB6F894A895809160008861809304
:102F90006000109260000FBE80914602882309F401
:102FA000B4CF0E94611B90E09093190180931801A7
:102FB0000E949C1C0E94E21CEAE6F2E0119292E060
:102FC000E837F907D9F70E94D10FEAE6F2E08191DC
:102FD000811108C222E0E837F207C9F796CF1092B4
:102FE00022020E94A9240E947B1E109269028091F5
:102FF000680281110E946C230E94D01E0E94D10F92
:10300000882359F08FB7F8944091EC025091ED026B
:103010006091EE027091EF028FBFA9E7B2E0EAE69D
:10302000F2E000E010E0302F21919D919227A1F174
:1030300080E0BB24B394492F4B2151F164968FAFAC
:10304000649765963FAF65972B2181E009F480E096
:1030500066968FAF66970E94F21D8160782F689602
:103060009FAF8EAF689764964FAD649765965FADDE
:10307000659766966FAD669768968FAD68970E9464
:103080000A1AF801E758FD4F8081B826B0822AC09D
:103090008F5FBB0C863079F60F5F1F4F0E30110526
:1030A00009F0C1CF8FEF69968FAF69976A968FAF9E
:1030B0006A976B961FAE6B970E94F21D8160782F06
:1030C0006D969FAF8EAF6D9769964FAD69976A9673
:1030D0005FAD6A976B966FAD6B976D968FAD6D9781
:1030E0000E940A1A8091E402882369F00E94F21D6E
:1030F0002091870230918802821B930B8F3F9F475C
:1031000010F40E94881E80919E02882309F493C0C7
:1031100080919D02E091DE02E695E81BE093990222
:10312000823059F4F0E0E85AF84FE4910E2F10E0A5
:10313000FFE7AF2EFDE1BF2E59C0863059F4F0E015
:10314000EB5AF84FE4910E2F10E0EFE6AE2EEDE1D2
:10315000BE2E4CC0893061F4E695F0E0EE5AF84F8F
:10316000E4910E2F10E071EEA72E70E2B72E3EC054
:103170008F3061F4E695F0E0E15BF84FE4910E2FBB
:1031800010E06BE7A62E60E2B62E30C0853159F410
:10319000F0E0E45BF84FE4910E2F10E05BE2A52E27
:1031A00050E2B52E23C08831A1F0833249F4EAE41D
:1031B000F7E00591149145E3A42E4DE1B42E16C01D
:1031C000843271F404EF11E038E7A32E3FE1B32E0F
:1031D0000DC008E210E020EBA22E2FE1B22E06C0B7
:1031E00000ED17E09FEEA92E9CE1B92E80919A0286
:1031F000882361F010929A020E94F21D9093980227
:103200008093970210929C0210929B020E94F21DE2
:10321000E0919702F09198028E1B9F0B8F3F9F4782
:1032200050F40E0F1F1F109398020093970287E926
:1032300092E0F50109950E947B1E90918902891305
:103240008093890280915202843009F055CE83E048
:103250008093E9008091E80082FF4ECE8091E800E3
:1032600085FF22C00E94081681111CC000E210E0F8
:103270005E01F1E2AF0EB11C08C08091F100F501D2
:1032800081935F010150110969F08091E80085FD8B
:10329000F4CF8091E8008B778093E8000E940816B5
:1032A000882399F391E001C090E08091E8008B774A
:1032B0008093E800992309F41FCE89A18130E9F1B8
:1032C00058F1823021F0843009F480C015CE8BA1F2
:1032D0009AA190938A0280938B028DA19CA19093D6
:1032E0008C0280938D028FA19EA190938E02809379
:1032F0008F0242E150E063E270E0CE018F5B9F4FAE
:103300000E942D2784E0898381E0809351028EEF13
:103310008A83109250020CC019828CE0E8E6F1E03A
:10332000DE01129601900D928A95E1F78EEF8D875E
:10333000CE0101960E946516DFCD00E912E086E914
:10334000A82E82E0B82E0E94961EF80181939193D8
:103350008F01AE16BF06B9F781E089839091900284
:103360009A83909191029B83909192029C83909179
:1033700093029D83909194029E83909195029F83E6
:103380009EEF988780935002CE0101960E946516A9
:1033900042E150E063E270E0CE0101960E942D27E9
:1033A000FE01319682E183301CF09189928B01C03D
:1033B000128A815031978F3FB1F742E150E063E2CA
:1033C00070E0CE0101960E94512796CD8091510266
:1033D000882309F491CD80E00E9441248AA10E94B3
:1033E00078248ACD09BD19BD09B400FEFDCF8091B6
:1033F000D8008F7D8093D8008091E0008260809318
:10340000E0008091E00081FDFCCF109222020E943A
:10341000A9247BCDA7E1B0E0E0E1FAE10C94A92674
:103420004B8B5C8B6D8B7E8B8F8B61111092E302CB
:1034300086E09E01235F3F4FD901E82F1D92EA9558
:10344000E9F795E0FE017396D90101900D929A95E6
:10345000E1F79C894E895F897B897D879E876F878D
:10346000598B488BF901DE01179601900D928A95D0
:10347000E1F7CE0107960E944A0E81113EC086E018
:10348000FE013796DE01119601900D928A95E1F7C3
:10349000FF81E8856A857B856115710531F0EF3F15
:1034A00031F481E0FF3F19F403C081E001C080E006
:1034B00080FD23C02091C40130E0C90101968770CE
:1034C00099274091F50150E08417950779F1F98328
:1034D000EA837D836C8396E0929FD001939FB00D29
:1034E0001124AB53BE4FFE01319601900D929A9577
:1034F000E1F78093C4010E94D70D16E08091F50199
:103500009091C401891709F1189FC00111248B53B0
:103510009E4F0E944A0E8823C1F08091F50190E0F1
:103520000196877099278093F501E8CF10922202C7
:103530000E94A9241092C4011092F501EEEBF1E073
:1035400086E0DF011D928A95E9F76796E3E00C9427
:10355000C526982F92959F7019F0892F24E001C0FD
:1035600020E0982F9695969511F02E5F892F982F31
:10357000969509F02F5F822F0895109222020E94E3
:10358000A9242FEF84E39CE0215080409040E1F794
:1035900000C000009AE088E10FB6F894A8958093E7
:1035A00060000FBE90936000FFCFCF93C82F0E94A2
:1035B000A91A56985E9825982D9826982E9827989F
:1035C0002F98482F50E0FA013197E730F105C8F401
:1035D000E459FF4F0C940A28259A2D9A27C0269A61
:1035E0002E9A33C0259A2D9A269A2E9A3FC0259A54
:1035F0002D9A04C0259A2D9A269A2E9A279A2F9AA8
:1036000035C0813099F018F0823081F51EC080916C
:103610009D01811153C00E946C2360E081E00E94F3
:10362000F62220E04FEB62EE86E81DC080919D01FE
:10363000811144C00E946C2360E081E00E94F62268
:1036400020E04FEF6FEF8CEB0EC080919D01811158
:1036500035C00E946C2360E081E00E94F62220E0E9
:103660004FEF6FEF88E90E94352228C080919D01BD
:10367000811124C088E090E00E9445276093DE021B
:103680007093DF028093E0029093E102862F60FF47
:1036900013C081608093DE0286950E94762380911C
:1036A000DE0286950E94762321E04091E10260913E
:1036B000E0028091DF02D7CF0E9477218C2FCF913B
:1036C000089580E290E09093190180931801809111
:1036D000960281110EC00E94B22581E0809396026D
:1036E0002FEF83ED90E3215080409040E1F700C040
:1036F000000064E670E080E40E94B8259093190110
:1037000080931801892B09F04EC064E670E080E0D8
:103710000E942D269093190180931801892B09F09E
:1037200042C064E670E080E00E942D26909319016B
:1037300080931801892BB9F564E670E08FE30E944D
:103740002D269093190180931801892B61F50E9411
:10375000822664E670E080E40E94B8259093190107
:1037600080931801892BF9F464E670E08CE00E94E4
:103770002D269093190180931801892BA1F464E6FA
:1037800070E080E00E942D2690931901809318012B
:10379000892B49F464E670E08FE30E942D26909314
:1037A0001901809318010E948226809118010895C2
:1037B000CF93DF9356985E9825982D9826982E984B
:1037C00027982F98C8E8D0E08FEF90E099838883FE
:1037D000AAE8B0E011969C938E93ECE8F0E0918318
:1037E0008083259A2D9A2FEF80E792E02150804028
:1037F0009040E1F700C00000269A2E9A2FEF80E754
:1038000092E0215080409040E1F700C00000279AEC
:103810002F9A2FEF80E792E0215080409040E1F70F
:1038200000C0000025982D982FEF80E792E02150EE
:1038300080409040E1F700C0000026982E982FEFBE
:1038400080E792E0215080409040E1F700C0000006
:1038500027982F988091550287702FEF829FC00183
:1038600011249595879595958795992799838883B0
:1038700011969C938E939183808356985E98259899
:103880002D9826982E9827982F98DF91CF910895FC
:10389000CF93E82F873080F580911801909119011E
:1038A000892B09F047C0CE2F64E670E080E40E94C7
:1038B000B8259093190180931801892BD1F464E6FF
:1038C00070E082E10E942D269093190180931801E7
:1038D000892B79F481E090E001C0880FCA95EAF75E
:1038E00064E670E080950E942D26909319018093E4
:1038F00018010E9482261EC090E0FC013797E73035
:10390000F105C0F4ED58FF4F0C940A28209A28982E
:1039100011C0219A29980EC0229A2A980BC0239A86
:103920002B9808C0529A5A9805C0539A5B9802C0C7
:103930003E9A4698CF9108952098289821982998E2
:1039400022982A9823982B9852985A9853985B98C3
:103950003E9846980895CF93873040F5809118019E
:1039600090911901892B59F564E670E081E40E9479
:10397000B8259093190180931801892B11F0C0E0AC
:1039800011C084E690E00E945D2697FF05C09093E9
:10399000190180931801F3CFC82FC0951092190117
:1039A000109218010E9482268C2F0AC09FB18FB1FD
:1039B000807F869586959370892B809501C080E0E5
:1039C000CF9108958098889A8198899A84988C9A42
:1039D00085988D9A86988E9A87988F9A08950895DB
:1039E0000895809124020895CF93DF9320910A01D6
:1039F000222339F02091F00227FF03C060E224E087
:103A000002C068E021E02093E9002FEF3091E80048
:103A1000215035FD06C035ED3A95F1F70000211132
:103A2000F5CF2091E80025FF1DC0EC0180910A012F
:103A3000811105C040E050E068E070E003C070E034
:103A400040E050E0CE010E943B168091E8008E7766
:103A50008093E80080E2FE01A5E2B2E001900D92C1
:103A60008A95E1F7DF91CF910895A4E0B0E0EBE310
:103A7000FDE10C94A8268C018091A10281110AC05D
:103A80009E012F5F3F4F4FEF6FEF0E9490218A8181
:103A90008093A102F8018481813051F028F08230B6
:103AA00061F44091A1020AC08091A10240E007C0E8
:103AB0006091A10240E080E003C040E080E060E06F
:103AC0000E946521F801848190E0019663E070E036
:103AD0000E94F62784832496E4E00C94C426CF93B6
:103AE000DF93EC01EEEDF2E0438162818C810E9474
:103AF0001D228C818F5F8C83DF91CF910895CF93AE
:103B0000DF93EC01EC81F0E0E45AF84F4491EEEDE4
:103B1000F2E0628181810E941D228C818F5F8C8303
:103B2000DF91CF9108958093F2027093F402609335
:103B3000F302809152028430F9F48093E9008FEF10
:103B40009091E800815095FD06C095ED9A95F1F7AA
:103B500000008111F5CF8091E80085FF0DC040E0A5
:103B600050E063E070E082EF92E00E943B168091AB
:103B7000E8008E778093E800089578941F920F9262
:103B80000FB60F9211248F939F93AF93BF938091A1
:103B9000EC029091ED02A091EE02B091EF0201963D
:103BA000A11DB11D8093EC029093ED02A093EE0253
:103BB000B093EF02BF91AF919F918F910F900FBE85
:103BC0000F901F9018959C014FB7F8948091EC02CC
:103BD0009091ED02A091EE02B091EF024FBF821BD7
:103BE000930B08952FB7F8948091EC029091ED0219
:103BF000A091EE02B091EF022FBF08951F920F9295
:103C00000FB60F9211248F939F93AF93BF93809120
:103C1000EB02811113C08091EC029091ED02A09112
:103C2000EE02B091EF024196A11DB11D8093EC020E
:103C30009093ED02A093EE02B093EF02BF91AF918B
:103C40009F918F910F900FBE0F901F90189520910C
:103C50000A012223C9F02091F00227FF15C0262F68
:103C60002695269526952E31C8F4FC01E20FF11D0C
:103C7000677081E090E001C0880F6A95EAF780954F
:103C80009281892382830895FC0106962281621322
:103C900001C012823196E817F907C1F70895209103
:103CA000E9023091EA022817390771F09093EA028D
:103CB0008093E902E091E702F091E802309721F069
:103CC0000084F185E02D099508952091E502309159
:103CD000E6022817390771F09093E6028093E50217
:103CE000E091E702F091E802309721F00680F78139
:103CF000E02D09950895E091E702F091E8023097F0
:103D000029F00190F081E02D0995089580E0089553
:103D10008091E402882349F08091E3028D7D8093B5
:103D2000E3020E94490D1092E4020895CF93DF93BD
:103D30000E941D2766E070E00E94F627D82F0E949F
:103D40001D276EE070E00E94F627C82F6D2F782F98
:103D500080E00E94240B0497C59718F48D2F9C2FA8
:103D600002C00E94961EDF91CF9108959091DE02CD
:103D700090FF04C09695981748F003C0811106C0C3
:103D800090E0961718F40E94842308950E947623E9
:103D90000895882311F0FA0101C0FB0109950895E7
:103DA0006091DE02669570E04BE050E08AE191E0C0
:103DB0000E944C29892B19F481E080939E020E9475
:103DC000F21D90939802809397020895EF92FF92CC
:103DD0000F931F93CF93DF938091DE0280FF08C083
:103DE00002EA12E08EEDE82E82E0F82EF8011BC008
:103DF000E2EAF2E08EED92E01182108212821382EA
:103E000034968E179F07C1F7EBCF381708F4832F2E
:103E10008383381B3183281B2083981B928334961D
:103E2000EE16FF0641F0928120813181892F2917FA
:103E300060F7822FEACF80919602882381F18091EA
:103E4000180190911901892B51F580911701882350
:103E500031F164E670E084E80E94B825892B19F0FE
:103E6000109217011AC0C2EAD2E064E670E08881BD
:103E70000E942D2664E670E089810E942D2664E66A
:103E800070E08A810E942D2664E670E08B810E949A
:103E90002D262496EC16FD0641F70E948226579A9D
:103EA0008BB18F779BB190682FB7F894E016F1062D
:103EB00099F0F80131918F0148E09BB9000000C0F2
:103EC00037FF8BB9330F000000C000C000C08BB9B2
:103ED00000C04A9591F7EACF2FBF8FE594E0019794
:103EE000F1F700C00000CDB7DEB7E6E00C94C226C3
:103EF000EF92FF920F931F93CF93DF938C01C2EA4F
:103F0000D2E0E12CF12CF8018481F7E0EF16F10406
:103F10001CF4882339F002C0811104C09E01409135
:103F2000E10202C09E0140E06091E0028091DF0268
:103F30000E9490218FEFE81AF80A24969FE0E91674
:103F4000F10409F70E94E61EF801848190E00196D1
:103F5000817099278483CDB7DEB7E6E00C94C22642
:103F6000A0E0B0E0E6EBFFE10C94A026EC014C8170
:103F7000042F10E09801D8010E94D9279B01AC01C1
:103F80000E94A4276B017C01E0E2F0E0E01BF10B52
:103F9000A5E5B0E09B01AC010E94A4274B015C01A8
:103FA0009F01DF010E9410289B01AC010E94AF27F6
:103FB0009B01AC012C0D3D1D4E1D5F1DC501B401C3
:103FC0000E94B727822FF22E99E2921728F093E0F1
:103FD000299F900111240DC025E530E0281B3109EF
:103FE000C901880F991F280F391F37FF02C02F5FA3
:103FF0003F4F35952795122F109592EAC92E92E0E2
:10400000D92E00E085E5E82EEF1801FD02C08E2DC7
:1040100001C08F2D9601412F6091E0020E949021F6
:104020000F5F84E0C80ED11C0F3079F70E94E61EA6
:104030008C81811102C091E003C0803219F49FEF9E
:104040009093270190912701890F8C83CDB7DEB71C
:10405000ECE00C94BC260F931F93CF93DF93C2EA3E
:10406000D2E0FE011182108212821382349682E025
:10407000EE3DF807B9F700E010E08091A002082EAD
:10408000000C990B0817190794F080912601082E4F
:10409000000C990B8017910754F09E014091E102AA
:1040A0006091E0028091DF020E94902104C0198299
:1040B00018821A821B820F5F1F4F24960F30110542
:1040C000E1F60E94E61E809125019091A002980FD2
:1040D0009093A00220912601280F2093260112160A
:1040E00014F49E301CF0819580932501DF91CF91CF
:1040F0001F910F910895A0E0B0E0E1E8F0E20C9488
:10410000A326FC01828180FF03C0DD24DA9402C073
:10411000DD24D39402EA12E0C0E0D0E02FE0B22E1A
:10412000F801118210821282138294E0E92EF12CA0
:10413000C12C80919F028C0D80312CF06B2D0E9440
:10414000E827892F02C087FD815F082E000C990B9C
:10415000C817D90791F48091E1028E9DA0018F9D2F
:10416000500D1124559547955595479598016091A7
:10417000E0028091DF020E949021CD0CF1E0EF1A65
:10418000F108B9F621960C5F1F4FCF30D10541F6EB
:104190000E94E61E80919F0291E0D91206C0811113
:1041A00002C08EE007C0815005C090E00196BE01BC
:1041B0000E94F62780939F02CDB7DEB7E9E00C940A
:1041C000BF26EF92FF921F93CF93DF93EC0182EA19
:1041D000E82E82E0F82E10E08C8197014091E102F8
:1041E0006091E002810F0E9490211F5E84E0E80E42
:1041F000F11C1F3F89F70E94E61E9A818C8190FF77
:1042000002C08F5F01C081508C83DF91CF911F91DD
:10421000FF90EF9008958091DE02282F269530E0E0
:104220002115310519F48170826005C025323105F0
:1042300024F0817088648093DE020895CF92DF922B
:10424000EF92FF926B017C010E940B21B701A60146
:1042500088E090E00E947327FF90EF90DF90CF906E
:1042600008958091E202882319F081508093E20240
:104270006091DE027091DF028091E0029091E10294
:104280000E941E2108958091E202833018F48F5F0E
:104290008093E2026091DE027091DF028091E00281
:1042A0009091E1020E941E210895EEEDF2E083E07C
:1042B000808311828FEF8283838314826081718176
:1042C000828193810E941E2108959091DE0290FFC9
:1042D0000DC0E2EAF2E08183608342831382349668
:1042E00092E0EE3DF907B9F70E94E61E0895EEED63
:1042F000F2E080818E7F80836081718182819381F1
:104300000E941E2110929E022FEF80E792E0215022
:1043100080409040E1F700C000000E94E61E089532
:10432000A0E0B0E0E6E9F1E20C94A226E82EF62E39
:10433000E901E42FF0E0611106C0E45AF74FE4917F
:104340004E2F2E2F71C0062F10E0E45AF74F4491E4
:10435000F42FC42ED12C26E0829FC00111242FEF10
:1043600030E0B9010E9486265BEA5603C001579FE0
:10437000900D11248E0D911D8E0D911D582F550FEE
:10438000580FD901A01BB10BAC9DC001AD9D900D84
:10439000BC9D900D1124E92FF59ED0011124AB2F67
:1043A000BB277901EA1AFB0AEC9CD001ED9CB00D09
:1043B000FC9CB00D11245901A51AB108A09E7001F2
:1043C000A19EF00CB09EF00C1124EF2CFF242E19AE
:1043D0003F092C9D80012D9D100D3C9D100D112439
:1043E000212F6230710591F048F461157105E1F0FB
:1043F00061307105B9F4242F4B2F16C0643071055C
:1044000069F040F06630710579F00CC0242F492F17
:10441000E12F0AC0492FEF2F2B2F06C0292FE42FA1
:10442000412F02C0292FEB2F49832883EA831B8267
:10443000CDB7DEB7EAE00C94BE26A4E0B0E0E3E23C
:10444000F2E20C94AA269091DE0290FF0AC09E012F
:104450002F5F3F4F0E9490214B8169818A810E948A
:1044600065212496E2E00C94C626A4E0B0E0EBE3DC
:10447000F2E20C949D26F82E762EE42E622E909178
:10448000DE0290FF67C0E92FE695AE2FB0E0AC5892
:10449000BE4F8C9180939D029E7F923061F49E016D
:1044A0002F5F3F4F8F2D0E9490214B8169818A8120
:1044B0000E9465213DC0823019F4E090E10238C0CD
:1044C000863019F4F090DF0233C08930D9F3893196
:1044D00079F5E9518E2F8170582EE695F0E0E45A77
:1044E000F64FE4910E2F10E082EAC82E82E0D82E1B
:1044F000A12CB12C9FE0892E912CC501B4010E9402
:1045000086268F2D511002C0860F01C0861B960192
:104510004E2D672D0E949021A00EB11E84E0C80E82
:10452000D11C8EEDC81682E0D80639F70E94E61E2F
:10453000F092DF027092E002E092E102662051F018
:104540006091DE027091DF028091E0029091E102C1
:104550000E941E212496EFE00C94B926EEEDF2E0C5
:1045600043812CE0421B08F440E021E0628181811C
:104570000E9435220895EEEDF2E043812CE0420FD7
:1045800008F44FEF21E0628181810E943522089575
:10459000EEEDF2E062812FEF621B08F460E021E0B3
:1045A000438181810E9435220895EEEDF2E062811F
:1045B0002FEF620F08F46FEF21E0438181810E94A9
:1045C00035220895EEEDF2E0818121E043816281A0
:1045D0008C500E9435220895EEEDF2E0818121E0B9
:1045E00043816281845F0E94352208959091DE02AA
:1045F00090FF36C09170811102C0926006C0853272
:1046000010F0986402C0880F982B9093DE02662306
:1046100051F06091DE027091DF028091E002909192
:10462000E1020E941E216091DE02669570E04BE07F
:1046300050E08AE191E00E944C29892B19F01092F8
:104640009E0202C00E94D01E81E080939A0220E068
:104650004091E1026091E0028091DF020E943522E8
:1046600008958091F502811136C080E090E00E94AB
:104670004B27883E9E4F21F00E94C60C0E94552178
:1046800088E090E00E9445276093DE027093DF028D
:104690008093E0029093E1026E7F71F40E945521B5
:1046A00088E090E00E9445276093DE027093DF026D
:1046B0008093E0029093E1020E940B2110929E02EF
:1046C0008091DE0280FF04C060E086950E94F622A1
:1046D00081E08093F5020895EEEDF2E08081816043
:1046E000808360E086950E94F622089561E00E9432
:1046F000F62208958091DE028695815009F484E2C5
:1047000061E00E94F62208958091DE0286958F5F17
:10471000853208F081E061E00E94F622089580E091
:1047200090E00E94651E80E090E00E944F1E109273
:10473000E3020E94490D0895CF92DF92FF920F93FA
:104740001F93CF93DF936C01009167028091180251
:10475000082BC7E0D0E010E0C8010C2E02C09595F0
:1047600087950A94E2F780FD04C02197A8F7F12C01
:1047700009C0FC2EB6018C2F0E94240B0E943D0B19
:10478000019799F38F2DDF91CF911F910F91FF909A
:10479000DF90CF900895CF93DF93EC010E949C238C
:1047A000BE010E94240B0E943D0BDF91CF91089522
:1047B000292F9E3078F5863068F590E036E0239F0B
:1047C000800D911D1124682F677023E096958795C1
:1047D0002A95E1F7FC01EE0FFF1FE80FF91FEA50E1
:1047E000FD4F40E050E080E0219130E0062E02C015
:1047F000369527950A94E2F721703327042E01C0DD
:10480000220F0A94EAF7822B4F5F5F4F4330510526
:1048100059F7089580E00895292F9E3088F5863055
:1048200078F590E036E0239F800D911D1124282F0C
:10483000277051E001C0550F2A95EAF723E09695BD
:1048400087952A95E1F7FC01EE0FFF1FE80FF91F8E
:10485000EA50FD4F20E030E070E04081CB01022EB5
:1048600002C0969587950A94E2F781708195842716
:104870008523842781932F5F3F4F2330310569F7CC
:104880000895A0E2B0E0E7E4F4E20C94A9260E94C7
:10489000D51A182F809151028823A9F02FEF80E7B5
:1048A00092E0215080409040E1F700C0000085E098
:1048B0008983812F0E94A91A8A838EEF8B83CE0170
:1048C00001960E946516109367020E948F23A0969E
:1048D000E3E00C94C52621E030E001C0220F8A9568
:1048E000EAF720958091670282230E94412408956F
:1048F00021E030E001C0220F8A95EAF7809167023B
:10490000822B0E9441240895809318020E948F23D5
:104910000895FC01808191810E94CB2392959F7024
:10492000963079F010F4925001C09A50923068F4A9
:10493000803F69F018F4883E40F409C0843F29F4B0
:1049400006C0883E20F0813F11F080E0089581E0AC
:10495000089580910A01882331F08091F00287FF49
:1049600002C08EE101C086E0E0EAF1E0DF011D92C5
:104970008A95E9F70E948F230895882321F00E94E9
:10498000420D0E94490D0895882339F0909122022A
:10499000892B809322020E94490D0895882349F1B2
:1049A000682F8CEF860F813A28F48EE991E00E94FF
:1049B000271E0CC080E2860F883058F4677081E0B3
:1049C00001C0880F6A95EAF70E94420D0E94490DC6
:1049D00008958BE5860F833028F480E090E00E94F4
:1049E000651E0895685A673120F480E090E00E94C7
:1049F0004F1E0895CF93882309F49AC0C82F8CEFD7
:104A00008C0F813A08F05EC080910A018823E1F0A2
:104A10008091F00287FF18C0EC2FE695E695E695A9
:104A2000F0E0E256FE4F8281282F30E04C2F477095
:104A300081E090E002C0880F991F4A95E2F7822337
:104A40009323892B59F411C0E0EAF1E08191C81752
:104A500029F081E0E63AF807C9F707C06C2F8EE924
:104A600091E00E94271E0E94490D80910A0188232F
:104A7000C9F08091F00287FF15C0AC2FA695A695CE
:104A8000A695B0E0A256BE4FC77081E090E001C08D
:104A9000880FCA95EAF712969C911297892B129665
:104AA0008C9320C0A0EAB1E0EFEF80E09D91C917A0
:104AB000C9F0EF3F19F4911101C0E82F8F5F8630E4
:104AC000A9F72DC080E28C0F883078F4C77081E0A0
:104AD00090E001C0880FCA95EAF790912202892BD5
:104AE000809322020E94490D23C0EBE5EC0FE330D6
:104AF00040F4F0E0E85DFE4F808190E00E94651E8A
:104B000017C0C85AC731A0F4EC2FF0E0EE0FFF1F1A
:104B1000E55DFE4F808191810E944F1E09C0EF3FED
:104B200009F30E2E000CFF0BE256FE4FC283DACFC4
:104B3000CF9108951F93CF93DF93182FEB010E941D
:104B4000FA24209741F08FE99FE00197F1F700C028
:104B500000002197F6CF812F0E94CE24DF91CF91C4
:104B60001F9108951092B9008CE08093B8000895C9
:104B7000A0E0B0E0EEEBF5E20C94A126B82EEB013C
:104B80000E94F21D6C01C431D10558F0CF3F8FEF68
:104B9000D80759F0CE0164E170E00E9486267B01BF
:104BA00007C0EE24E394F12C03C025E0E22EF12CA3
:104BB00084E8A82E94EA992E1092BC009092BC0032
:104BC0000E94F21D8C018091BC0087FD08C00E94EC
:104BD000F21D801B910B8E159F05A8F32AC08091B2
:104BE000B900887F883041F08091B900887F80319A
:104BF00019F00FEF1FEF1FC0B092BB00A092BC00D6
:104C00000E94F21D8C018091BC0087FD08C00E94AB
:104C1000F21D801B910B8E159F05A8F30AC0809191
:104C2000B900887F883111F0803419F700E010E076
:104C30000EC00EEF1FEFCF3F8FEFD80709F4BCCFA8
:104C4000C6010E94E31D8C179D0708F4B5CFC8016B
:104C5000CDB7DEB7EBE00C94BD260F931F93CF9337
:104C6000DF93EB018093BB0084E88093BC000E943B
:104C7000F21D8C018091BC0087FD0EC0CF3F8FEFED
:104C8000D807C1F30E94F21D801B910B8C179D0762
:104C900088F38EEF9FEF0CC02091B900287F81E050
:104CA00090E0283211F480E090E09195819591098F
:104CB000DF91CF911F910F9108950F931F93CF9381
:104CC000DF93EC0184E88093BC000E94F21D8C010C
:104CD0008091BC0087FD0EC0CF3F8FEFD807C1F396
:104CE0000E94F21D801B910B8C179D0788F38EEF9D
:104CF0009FEF03C08091BB0090E0DF91CF911F91A7
:104D00000F91089584E98093BC000895AA1BBB1BF2
:104D100051E107C0AA1FBB1FA617B70710F0A61BBB
:104D2000B70B881F991F5A95A9F780959095BC01DC
:104D3000CD0108952F923F924F925F926F927F9292
:104D40008F929F92AF92BF92CF92DF92EF92FF929B
:104D50000F931F93CF93DF93CDB7DEB7CA1BDB0B47
:104D60000FB6F894DEBF0FBECDBF09942A883988EC
:104D700048885F846E847D848C849B84AA84B984F3
:104D8000C884DF80EE80FD800C811B81AA81B981FF
:104D9000CE0FD11D0FB6F894DEBF0FBECDBFED0113
:104DA00008958F929F92AF92BF92CF92DF92EF922F
:104DB000FF92CF93DF93EC01688179818A819B8197
:104DC000611571058105910521F464E279ED8BE5AA
:104DD00097E02DE133EF41E050E00E948527490143
:104DE0005A019B01AC01A7EAB1E40E94A4276B0120
:104DF0007C01ACEEB4EFA50194010E94B227DC0166
:104E0000CB018C0D9D1DAE1DBF1DB7FF03C00197CB
:104E1000A109B04888839983AA83BB839F77DF91D8
:104E2000CF91FF90EF90DF90CF90BF90AF909F9089
:104E30008F9008950E94D126089580E091E00E940D
:104E4000D1260895A0E0B0E0809300019093010185
:104E5000A0930201B09303010895DC01CB01FC0192
:104E6000F999FECF06C0F2BDE1BDF89A319600B4C3
:104E70000D9241505040B8F70895F999FECF92BD78
:104E800081BDF89A992780B50895A6E1B0E044E085
:104E900050E00C942F27A8E1B0E042E050E00C94E1
:104EA0002F27DC01A40FB51F4150504048F0CB0123
:104EB000840F951F2E910E94622741505040D0F7D9
:104EC0000895262FF999FECF92BD81BDF89A0197DA
:104ED00000B4021639F01FBA20BD0FB6F894FA9A42
:104EE000F99A0FBE08950396272F0E9462270E9409
:104EF0006127252F0E946227242F0C946227019698
:104F0000272F0E9462270C946127052E97FB1EF421
:104F100000940E949C2757FD07D00E94B72707FCEA
:104F200003D04EF40C949C275095409530952195D4
:104F30003F4F4F4F5F4F08959095809570956195C5
:104F40007F4F8F4F9F4F08950E94D927A59F900DA7
:104F5000B49F900DA49F800D911D11240895B7FF5B
:104F60000C94A4270E94A427821B930B0895A1E20E
:104F70001A2EAA1BBB1BFD010DC0AA1FBB1FEE1FD3
:104F8000FF1FA217B307E407F50720F0A21BB30B1E
:104F9000E40BF50B661F771F881F991F1A9469F79A
:104FA00060957095809590959B01AC01BD01CF01F6
:104FB0000895A29FB001B39FC001A39F700D811DF2
:104FC0001124911DB29F700D811D1124911D089512
:104FD00087FB082E062687FD819567FD61950E9457
:104FE0001F280EF4919507FC8195089597FB072ED5
:104FF00016F4009407D077FD09D00E94862607FC9E
:1050000005D03EF4909581959F4F089570956195D8
:105010007F4F0895EE0FFF1F0590F491E02D099446
:105020000E94D927332312F48A1B9B0B0C941A2855
:105030000E94D927B7FF0895821B930B0895991BEF
:1050400079E004C0991F961708F0961B881F7A957F
:10505000C9F7809508950F931F93CF93DF93823004
:10506000910510F482E090E0E0911903F0911A03A9
:1050700020E030E0A0E0B0E0309719F140815181AC
:105080000281138148175907C8F08417950769F4FE
:10509000109731F012960C93129713961C9327C019
:1050A0000093190310931A0322C02115310519F03A
:1050B0004217530718F49A01BD01EF01DF01F8010F
:1050C000DBCF21153105F9F0281B390B24303105D0
:1050D00080F48A819B816115710521F0FB01938326
:1050E000828304C090931A0380931903FE013296C1
:1050F00044C0FE01E20FF31F8193919322503109C6
:10510000398328833AC02091170330911803232B49
:1051100041F4209106013091070130931803209348
:10512000170320910401309105012115310541F447
:105130002DB73EB74091080150910901241B350B52
:10514000E0911703F0911803E217F307A0F42E1B68
:105150003F0B2817390778F0AC014E5F5F4F2417DB
:10516000350748F04E0F5F1F509318034093170305
:105170008193919302C0E0E0F0E0CF01DF91CF9105
:105180001F910F910895CF93DF93009709F481C089
:10519000FC01329713821282A0911903B0911A0375
:1051A000109781F420813181820F931F2091170382
:1051B000309118032817390751F5F0931803E0933D
:1051C000170367C0ED0120E030E0CE17DF0740F4A1
:1051D0004A815B819E0141155105F1F0EA01F5CF4D
:1051E000D383C28340815181840F951FC817D9078B
:1051F00059F488819981840F951F02969183808349
:105200008A819B81938382832115310529F4F09350
:105210001A03E09319033DC0E901FB83EA83499136
:105220005991C40FD51FEC17FD0761F4808191815E
:10523000840F951F0296E901998388838281938167
:105240009B838A83E0E0F0E012968D919C91139706
:10525000009719F0FD01DC01F7CF8D919C9111971A
:105260009D012E5F3F4F820F931F209117033091B6
:1052700018032817390769F4309729F410921A0394
:105280001092190302C013821282B0931803A093E4
:105290001703DF91CF910895FC014150504030F049
:1052A00001900616D1F73197CF01089588279927E5
:1052B0000895FB01DC0104C08D910190801921F457
:1052C00041505040C8F7881B990B0895F894FFCFC0
:1052D0000100000000001B03200001F11CF41CF081
:1052E0001CA1119C119B1101200001191A1B1C1DEE
:1052F0001E1F202122010201818283E200E900EACF
:1053000000B500B600B700CD008301CC008A019241
:105310000194012102230224022502260227022AE7
:1053200002B300B4006F00700040226D4B062906E6
:10533000BC059D06B606D60657724B59342F6772C8
:10534000646F6100000102020202060606090909F3
:105350000909090F0F0F0F0F0F1515151819191936
:0A536000191919191919192324004D
:00000001FF
