:100000000C9471050C948E050C948E050C948E0541
:100010000C948E050C948E050C948E050C948E0514
:100020000C948E050C948E050C94BE190C9400193A
:100030000C94A4240C948E050C948E050C948E05BF
:100040000C948E050C948E050C948E050C948E05E4
:100050000C948E050C9463240C948E050C948E05E0
:100060000C948E050C948E050C948E050C948E05C4
:100070000C948E050C948E050C948E050C948E05B4
:100080000C948E050C948E050C948E050C948E05A4
:100090000C948E050C948E050C948E050C948E0594
:1000A0000C948E050C948E050C948E05F806F406BF
:1000B000CE06D406DA06E006E606EC069A099A09A8
:1000C000C909C909330A4E0B4E0B4E0B4F0AC30A1E
:1000D000D40AD40A620D650D740D680D6D0D720D94
:1000E000700DFC0EFF0E020F050F080F0B0F0E0F09
:1000F00018173F17E8183F17E8188B17AE17E818BE
:10010000A318B31801014F01043130307C01014FB5
:1001100001043130307C01014F01043130307C0169
:10012000014F01043130307C01014F0001015201C7
:10013000043130307C01015201043130307C010146
:100140005201043130307C01015201043130307CE5
:100150000101520001015101043130307C01015193
:1001600001043130307C01015101043130307C0117
:10017000015101043130307C010151000101500175
:10018000043130307C01015001043130307C0101F8
:100190005001043130307C01015001043130307C99
:1001A0000101500001012901043130307C01012995
:1001B00001043130307C01012901043130307C01EF
:1001C000012901043130307C01012900010129019C
:1001D000043130307C01012B01043130307C0101CD
:1001E0002B01043130307C01012B01043130307C93
:1001F00001012900000000000000000000000000D4
:1002000000000000000000000000000000000000EE
:1002100000000000000000007E0F00D4FFFFFFC7B9
:100220000000007800000000000000002A2B2800D9
:100230000000000000000000000000000000002995
:10024000000000002C1E3420212224342627252ED5
:10025000362D3738271E1F2021222324252633330D
:10026000362E37381F0405060708090A0B0C0D0E39
:100270000F101112131415161718191A1B1C1D2F05
:100280003130232D350405060708090A0B0C0D0E25
:100290000F101112131415161718191A1B1C1D2FE5
:1002A0003130354C29002B00E000E100AE5D00004C
:1002B0001E00140004001D00010035661F001A0016
:1002C00016001B000100E3002000080007000600E4
:1002D000E2000254210015000900190002542C000C
:1002E000220017000A0005000000035323004A0201
:1002F00000004A000000045322004D0200004D009F
:1003000000004B0023001C000B00110000002C0E0D
:10031000240018000D00100001544E0025000C00B0
:100320000E003600E2002C41260012000F003700BC
:1003300001002C002700130033003800005729006B
:1003400035002A0028003400100F0000B25D2B0297
:100350000100010001000000010001002D02010068
:100360000100010001003102310001000100010023
:10037000010001002E020100010001000100010046
:100380002D00010001000100010001002E0001000C
:100390000000010001000100000001000000010058
:1003A0000100010000000100000001000100010047
:1003B000010001000000010001002F002F022602B1
:1003C000010001000100300030022702010001009D
:1003D0000100010001000100010001000100010015
:1003E0000100010001000100010001000100010005
:1003F0000100000029000100E000E1000100000010
:100400000100010001000100010001003B040100A6
:100410000100110401000100010001004E00100460
:10042000010001000100010001001314010001009E
:10043000010017050100010000000100010001009A
:1004400000000100000001000100010000000100A7
:100450000000010001000100500001000000010047
:1004600001004B00510010040100010001000100D7
:10047000520001000100E500010001004F000100F1
:1004800001001650010001000100010001000100FF
:10049000010001000100010001000000290001002D
:1004A00001000100010000003A003F00440001008B
:1004B000010001003B004000450001000100010077
:1004C0003C00410068000100010001003D004200C5
:1004D00069000100010001003E0043006A000100C4
:1004E00000000100A800A9000000AA00000001000F
:1004F0000100AE0000004800000001000100010002
:1005000001000100000001000100010001000100E4
:100510000100010001000100010001000100AB0029
:1005200001000100010001000100AC000100010018
:1005300001000100010001000100010001000100B3
:10054000010000002900010001000100010000007D
:100550000100010001000100010001000100010093
:100560000100010001000100010001000100010083
:100570000100010001000100010001000100010073
:100580000100010001000100000001000100010064
:100590000000010000000100010001000000010056
:1005A000000001000100110023022E0000000100E4
:1005B0004C00240021001E003600010038002500F8
:1005C00022001F0027000100250226002300200032
:1005D000630001002D002E0228002B002B120100C9
:1005E0000100010001000100010000000100010004
:1005F00001000100010000000100010001000100F4
:1006000001000100010001000100010001000100E2
:1006100001000100010001000100010001000100D2
:1006200001000100010001000100010001000100C2
:1006300000000100010001000000010000000100B5
:1006400001000100000001000000010001000100A4
:100650000B06010000000100010001000D06010071
:100660000100010001000100010001000100010082
:100670000100010001000100010001000100010072
:100680000100010001000100010001000100010062
:1006900001000000B35D0100010001000100000045
:1006A0000100010001000100010001000100010042
:1006B0000100010001000100010001000100010032
:1006C0000100010001000100010001000100010022
:1006D0000100010001000100000001000100010013
:1006E0000000010000000100010001000000010005
:1006F0000000010001000100B45D010000000100E4
:1007000001000100B55D01000100010001000100D0
:10071000B65D01000100010001000100B75D0100AC
:1007200001000100010001000100010001000100C1
:100730000100010001000100010000000501098025
:10074000A101850319012AB700150126B7009501FB
:1007500075108100C0050C0901A101850419012A49
:10076000A002150126A002950175108100C00501A7
:100770000906A1018506050719E029E715002501ED
:100780009508750181020507190029EF150025015B
:1007900095F0750181020508190129059505750176
:1007A0009102950175039101C00660FF0961A101E5
:1007B0000962150026FF009520750881020963155E
:1007C0000026FF00952075089102C005010906A1C9
:1007D00001050719E029E715002501950875018134
:1007E000029501750881010507190029FF150026EA
:1007F000FF00950675088100050819012905950572
:1008000075019102950175039101C009025B000316
:100810000100A0FA090400000103010100092111EF
:1008200001000122400007058103080001090401BD
:10083000000203000000092111010001222200072B
:1008400005820320000107050303200001090402BB
:10085000000103000000092111010001226D0007C1
:1008600005840320000112010002000000089732F5
:100870007549010001020001220345007200670072
:100880006F0044006F007800200045005A002000EF
:100890005300680069006E006500000028035A00DC
:1008A00053004100200054006500630068006E00A2
:1008B0006F006C006F006700790020004C00610041
:1008C0006200730000000403090400047F3F1F64FA
:1008D0003214643214783C1E1E140A050001010112
:1008E00001010101010102020202020202020203ED
:1008F00003030303030303040404040404040505BD
:10090000050505060606060607070707070808087F
:1009100008090909090A0A0A0B0B0B0C0C0C0D0D2E
:100920000D0E0E0E0F0F0F101011111112121313C6
:100930001414151516161717181819191A1A1B1B3F
:100940001C1D1D1E1E1F202021222223242425269B
:1009500026272829292A2B2C2D2D2E2F30313232D3
:10096000333435363738393A3B3C3D3E3F404142DF
:10097000434445464748494A4C4D4E4F50515354C5
:10098000555658595A5B5D5E5F6162646566686979
:100990006B6C6D6F7072737577787A7B7D7E8082F9
:1009A000838587888A8C8E8F91939596989A9C9E42
:1009B000A0A2A3A5A7A9ABADAFB1B3B5B7BABCBE52
:1009C000C0C2C4C6C9CBCDCFD1D4D6D8DBDDDFE21F
:1009D000E4E7E9EBEEF0F3F5F8FAFDFFFFAA7F5547
:1009E000402223252628292A2C2D2F303233353634
:1009F000383A3B3D3E4042434547494A4C4E5051B0
:100A0000535557595A5C5E6062646668696B6D6FD6
:100A100071737577797B7D7F81838587898A8C8ED9
:100A200090929496989A9C9E9FA1A3A5A7A8AAACE1
:100A3000AEAFB1B3B4B6B8B9BBBCBEBFC1C2C3C51B
:100A4000C6C7C9CACBCCCDCED0D1D2D2D3D4D5D6BD
:100A5000D7D7D8D9D9DADADBDBDBDCDCDCDCDCDDF0
:100A6000DDDDDDDCDCDCDCDCDBDBDBDADAD9D9D8D4
:100A7000D7D7D6D5D4D3D2D2D1D0CECDCCCBCAC96C
:100A8000C7C6C5C3C2C1BFBEBCBBB9B8B6B4B3B19B
:100A9000AFAEACAAA8A7A5A3A19F9E9C9A98969436
:100AA00092908E8C8A89878583817F7D7B7977750B
:100AB00073716F6D6B6968666462605E5C5A5957EA
:100AC000555351504E4C4A4947454342403E3D3BA9
:100AD0003A3836353332302F2D2C2A292826252333
:100AE000220011241FBECFEFDAE0DEBFCDBF11E040
:100AF000A0E0B1E0E0E8F7E502C005900D92A23B6E
:100B0000B107D9F723E0A2EBB1E001C01D92A733F2
:100B1000B207E1F70E941E1B0C94BE2B0C94000040
:100B2000A5E2B0E0E6E9F5E00C94F928FC0180814B
:100B3000918123813481232B31F09F3F31F491E067
:100B40008F3F19F403C091E001C090E090FDD3C540
:100B50007F0185E0DE01919601900D928A95E1F783
:100B6000D70112962C9189A19AA1222349F00E94C3
:100B7000E325182F682F89A19AA10E94532603C04C
:100B80000E941F26182F69A17AA1812F0E94AA0F07
:100B90008C01F7018281811105C080916A02811167
:100BA00041C090C080911701909118010196A9F35E
:100BB0004AE2C42E41E0D42EA12CB12C9924939466
:100BC00080911701909118018A159B0534F3D60185
:100BD00016968C9116978823F1F019968D919C9119
:100BE0001A978017910739F48091FF0290910003C2
:100BF0008017910781F0F601978614870387818912
:100C0000811103C0C6010E942E25C60106960E94CE
:100C10004D2510920103FFEFAF1ABF0A26E1C20E65
:100C2000D11CCECFD70112968C911297811123C37C
:100C3000E091B401E33098F481E08E0F8093B40129
:100C4000F0E0EE0FFF1FEC55FD4F8D919C919183CD
:100C5000808382E08983CE0101960E94F21ABFEF61
:100C6000E3EDF0E3B150E040F040E1F700C00000F8
:100C70008091B401833009F0FEC21092B401EAEA17
:100C8000F2E0A4EAB2E080EB92E0318111962C917F
:100C90001197321330C030812C9132132CC0329610
:100CA00012968E179F0789F784E0898381E08093ED
:100CB0006B028EEF8A8310926A02CE0101960E9427
:100CC000F21AD9C280916B028823D1F0D701129613
:100CD0008C91882311F086E001C087E08983F701B9
:100CE00080818A8381818B838EEF8C83CE010196F4
:100CF0000E94F21A05C083E0898310926B02D9CF5B
:100D00000F3AFDE51F07E9F5D70112968C9188236C
:100D100009F4C8C090916F0281E0890F8770987FB5
:100D2000853020F4892B80936F0202C090936F026C
:100D300080916F028770BFEF8B9FC0011124959542
:100D4000879595958795992790938900809388003A
:100D500090938B0080938A0090938D0080938C00F9
:100D600040916F0250917002609171027091720215
:100D70008FE090E00E94CB29809181020E944B0D70
:100D800091C0F801E05BFD45E830F105D8F5EA5A7D
:100D9000FF4FD70112968C910C94622A882309F494
:100DA00081C08CEC91E01DC0882309F47BC084EAEB
:100DB00091E017C0882309F475C08CE791E011C059
:100DC000882309F46FC084E591E00BC0882309F4FF
:100DD00069C08CE291E005C0882309F463C084E017
:100DE00091E00E946B0C5EC0882309F444C2B2C13A
:100DF000882309F440C29091B50181E0892780934E
:100E0000B50139C2C80197558F3F910511F008F01F
:100E100049C020911701309118012817390724F48F
:100E20009093180180931701F701228136E1389FD2
:100E30005001399FB00C1124C501865D9E4F6C0195
:100E4000DC0150962C935097928116968C911697B0
:100E5000992309F448C01A961C930E9319978F5F33
:100E600016968C930E949824F60196878587809128
:100E7000310287839091010380913C02892B808706
:100E80000190F081E02DC501805D9E4F309731F0DB
:100E9000D60154966D917C91559709951093000356
:100EA0000093FF020E3AFDE51F07F9F4D7011296F1
:100EB0008C91882309F4DFC18091FE02882319F008
:100EC0000E949225D8C110923C020E94C2110E9439
:100ED000982488579C4E9093A2028093A10281E0AF
:100EE0008093FE02C8C181114CC18091FE0288230B
:100EF00009F474C0D0903C02C09031020E94982442
:100F000088579C4E9093A2028093A102F7018281A0
:100F1000882309F468C08C2D8D298D7909F059C07A
:100F20000115F5E51F07B0F4011523E5120708F0D8
:100F300055C0011580E5180740F4011590E4190724
:100F400008F5063E110529F549C00115A2E51A0765
:100F500000F544C00115B9E51B0748F40115E8E5A3
:100F60001E07E0F50431F5E51F0799F437C0C80105
:100F700090568115904268F4D70115968C91807F28
:100F800029F427C0F7018581807F41F1C8019927A5
:100F900001C0C801109201038832910530F48E31EE
:100FA0009105D0F40497A8F00EC08D32910559F048
:100FB00018F48A9789F00DC08C34910569F08D3250
:100FC000924051F006C082E0809301030E94D61146
:100FD00003C00E94922502C00E94D611D70112962A
:100FE0008C918111D9C080913C0282720D3C2CE51C
:100FF000120709F4A8C008F045C0073CACE51A0781
:1010000009F48DC0D8F4043CECE51E0709F47DC05A
:1010100030F4033C2CE5120709F46BC03FC1053CDA
:101020009CE5190709F476C0063CACE51A0709F0FF
:1010300035C14FE351E269E471E289C00A3CBCE585
:101040001B0709F476C078F4083CFCE51F0709F497
:101050006BC0093C2CE5120709F020C142E351E2C4
:1010600065E271E274C00B3C9CE5190709F466C0A7
:101070000C3CACE51A0709F011C14CEF5EE16EE0E3
:101080007FE165C0023DBCE51B0709F46BC0A0F41D
:101090000F3CFCE51F0709F45FC008F45BC0003D8E
:1010A0008CE5180709F45BC0013D9CE5190709F0C0
:1010B000F5C06EE089E05EC0053DACE51A0709F4B5
:1010C00057C060F4033DECE51E0709F44EC0043D33
:1010D000FCE51F0709F0E2C088E150C0063D2CE5A1
:1010E000120709F44AC00F358DE5180709F4C3C08B
:1010F000D5C08091F90280FF03C00E94D41FBBC0FD
:1011000081608093F902869539C04DEE51E267EF18
:1011100071E21DC047EF51E26DEE71E218C049E483
:1011200051E26FE371E213C045E251E262E371E222
:101130000EC04BE051E268E171E209C048E151E2C2
:101140006BE071E204C04EE05FE16CEF7EE10E9473
:10115000CF2591C081E012C065E082E00BC068E05D
:1011600086E008C064E18FE005C067E185E102C068
:1011700062E289E10E94BC257EC083E20E94E921EF
:101180007AC0F6018189882309F4AFCEC501805D5C
:101190009E4F0E944D2586CE0C359DE5190709F41A
:1011A00064C060F40115BCE51B07A9F00F3DECE538
:1011B0001E0709F073C00E944C114CC00E35FDE5AE
:1011C0001F0709F44AC008F452C0093A8DE5180710
:1011D00009F440C063C010923C020E94F0269FEFC9
:1011E000A4E3BCE09150A040B040E1F700C0000093
:1011F000F89481E08093E00080E28093D800109220
:10120000C900EFE1FEE43197F1F700C000001DBA1C
:10121000109268001CBC10BE1FBA10927A00109287
:101220006E0010926F001092710010927200109276
:10123000C9001092BC0014B817B81AB81DB810BA7B
:101240001092BC0015B818B81BB81EB811BA0C948F
:10125000003F11C00E94330D0EC080910E0382FB2F
:10126000882780F991E0892703C081E001C080E0F0
:101270000E94481213C080911002877009F43BC28B
:10128000D70112968C91882309F435C280910E0300
:1012900082FF31C282E00E942B122DC2F7018281AF
:1012A00000811181882349F0C8010E94E325D82ECE
:1012B000682FC8010E94532604C0C8010E941F263F
:1012C000D82EB8018D2D0E94AA0F0E94C30F8C0149
:1012D000982EF701D280C580C2949FE0C9228091E8
:1012E00010028770B9F0DD20A9F0812F807F803453
:1012F00021F080E2800F883068F080910E0382FF39
:1013000009C082E00E942B12809110028770BB24DA
:10131000B3948111B12CA12EA2948FE0A8228A2D22
:1013200090E08C30910508F0B9C1FC01E25AFF4F02
:101330000C94622A812F807F1F70882311F01295F0
:10134000107FDD20B9F0112309F496C180E2800FEF
:10135000883010F0911006C080913C02182B109339
:101360003C0205C080910103182B109301030E94D9
:10137000D61182C1802F0E942627112309F48EC125
:10138000005E812F083060F1992051F10E94C81150
:1013900029C0812F807F1F70803211F01295107F3D
:1013A000992021F0F1E09F16D9F147C080910E03FA
:1013B00082FD1BC0DD2069F0112339F080913C02D1
:1013C000182B10933C020E94D61180E00E945227F5
:1013D00065C180E00E942627112309F45FC1812F97
:1013E0000E94CF110E94D61159C1DD2081F0809159
:1013F0003102CC2051F021E0C21207C0182B18177F
:1014000009F44CC11093310249C1812B10C0CC208A
:1014100021F081E0C81609F441C10E94C2111FC029
:10142000DD2041F091E09C1508F438C1812F0E9425
:101430001C2734C1C11032C112C0DD2019F0CC20EC
:10144000A9F31AC1CC2059F0093309F024C1AFEF38
:10145000B7EEE3E0A150B040E040E1F71AC1812FC0
:101460000E9415271BC1812F86958695837019F0E0
:10147000813059F013C1DD2019F0C801937002C00A
:1014800080E090E00E940B250FC1DD2019F0C8011B
:10149000937002C080E090E00E94F52405C1812F86
:1014A0008370A9F5D110FEC0402F42954695477034
:1014B000440F440F802F8F7090E09C01042E01C0D8
:1014C000220F0A94EAF704FF08C08FE090E001C001
:1014D000880F4A95EAF7809501C080E01695169529
:1014E0001370123069F088F490913202113019F0C3
:1014F000822B892302C0922B892B0E94CB26D2C03B
:10150000822B909132028927F8CF822BF6CFDD20F3
:1015100019F0812F817001C08695882309F4C2C01B
:10152000402F429546954770440F440F802F8F708F
:1015300090E09C01042E01C0220F0A94EAF704FFF8
:1015400008C08FE090E001C0880F4A95EAF78095C7
:1015500001C080E0169516951370123059F078F49A
:1015600090918102113019F0822B892309C0922BAE
:10157000892B06C0822B90918102892701C0822B82
:101580000E9488268FC01F70DD2039F0812F0E94B5
:10159000BF26802F0E941C2785C0802F0E94152700
:1015A000812F0E94B2267EC0802FF2EF9F1669F134
:1015B000F91538F020EF921659F091EF991601F1D4
:1015C00057C0A3EF9A1641F1B4EF9B16A9F050C093
:1015D000DD2069F0C11062C01F7181E090E001C0A0
:1015E000880F1A95EAF79091810289271FC0E1E0E0
:1015F000EC1508F453C0F0CF80910E0382FD19C0A2
:10160000DD2029F0812F8F7126C0DD20D9F3812FB5
:101610008F710E94B22642C0DD2039F01F7181E037
:1016200001C0880F1A95EAF701C080E00E94882661
:1016300035C0DD2099F01F71812F0E94BF26809157
:101640000E0382FF07C0F8E01F9FC00111248360D2
:1016500080931002812F0E94BF2620C081E00E944B
:101660002B1221E02C15D0F482E00E942B1216C020
:10167000DD2021F0CC2031F2802FA8CECC2039F211
:10168000893349F48FEF97EEA3E081509040A0405A
:10169000E1F700C00000802F0E94262788EF8A0D06
:1016A000843010F40E942125BB20A9F08091100203
:1016B00080FD11C0F70112828595859585950E9460
:1016C000BF26C7010E9490058091100285958595DF
:1016D00085950E94B22685E0F701DE011196019002
:1016E0000D928A95E1F709811A81C8010E941F268F
:1016F000B8010E94AA0FA596EBE00C9415298FE380
:101700009CE90197F1F700C000008091B701833098
:1017100031F487EA0E94262780E00E940427109275
:10172000B7010895FC019081913041F481858111C8
:1017300014C08285882389F092E00FC0923041F472
:101740008185811107C08285811106C093E005C0A3
:1017500096E003C095E001C094E09093B701933008
:1017600031F480E00E940B2787EA0E9452270895F7
:10177000A7E1B0E0EEEBFBE00C9401294B8B5C8B16
:101780006D8B7E8B8F8B61111092010386E09E0121
:10179000235F3F4FD901E82F1D92EA95E9F795E0C5
:1017A000FE017396D90101900D929A95E1F79C89FB
:1017B0004E895F897B897D879E876F87598B488B90
:1017C000F901DE01179601900D928A95E1F7CE019D
:1017D00007960E94D71281113EC086E0FE0137961F
:1017E000DE01119601900D928A95E1F7FF81E8855F
:1017F0006A857B856115710531F0EF3F31F481E039
:10180000FF3F19F403C081E001C080E080FD23C0E8
:101810002091DE0130E0C90101968770992740913F
:101820000F0250E08417950779F1F983EA837D83ED
:101830006C8396E0929FD001939FB00D1124A1522A
:10184000BE4FFE01319601900D929A95E1F780937B
:10185000DE010E94641216E080910F029091DE0179
:10186000891709F1189FC001112481529E4F0E94CF
:10187000D7128823C1F080910F0290E00196877003
:10188000992780930F02E8CF10923C020E94F02625
:101890001092DE0110920F02E8EDF1E086E0DF0128
:1018A0001D928A95E9F76796E3E00C941D29982F1D
:1018B00092959F7019F0892F24E001C020E0982FA5
:1018C0009695969511F02E5F892F982F969509F091
:1018D0002F5F822F0895A0E0B0E0E1E7FCE00C94D8
:1018E000FA28EC018AE0A82EFE012491222309F4B3
:1018F000B5C0213009F044C031968491813059F44B
:101900002296FE018491893319F060E070E091C065
:1019100060E570E08EC0823031F42296FE01849141
:101920000E9452278AC0833031F42296FE018491AE
:101930000E94262782C0843009F07EC02296FE01D4
:10194000249180E090E030E0205331092A303105C5
:1019500060F4A89EA001A99E500D1124C901840F16
:10196000951F2196FE012491EECF009709F465C0E2
:10197000EFE9FFE03197F1F700C000000197F5CFE4
:10198000E22FF0E0EC5DFD4FB490822F86958695B6
:10199000869590E0FC01EC5EFD4FE4902770F12C01
:1019A000022E02C0F594E7940A94E2F7F1E0EF22E8
:1019B000FF24FC01EC5FFD4FC490D12C022E02C02D
:1019C000D594C7940A94E2F731E0C322DD24FC01E8
:1019D000EC50FE4F049110E002C0159507952A9532
:1019E000E2F701701127E114F10419F081EE0E9471
:1019F0005227C114D10449F186EE0E94522789E38F
:101A0000B816E9F060E070E08B2D0E94F227C11457
:101A1000D10419F086EE0E942627E114F10419F092
:101A200081EE0E9426270115110539F060E070E073
:101A30008CE20E94F22701C0EF01219655CF60E5AC
:101A400070E089E30E94F227E5CFE9E3BE12DACF26
:101A500060E570E089E30E94F227DFCFCDB7DEB703
:101A6000EAE00C94162910923C020E94F0262FEF17
:101A700084E39CE0215080409040E1F700C00000EA
:101A80009AE088E10FB6F894A895809360000FBEA5
:101A900090936000FFCFCF93C82F0E94570C5698A9
:101AA0005E9825982D9826982E9827982F98482F3D
:101AB00050E0FA013197E730F105C8F4E659FF4FDD
:101AC0000C94622A259A2D9A27C0269A2E9A33C002
:101AD000259A2D9A269A2E9A3FC0259A2D9A04C0AF
:101AE000259A2D9A269A2E9A279A2F9A35C08130B8
:101AF00099F018F0823081F51EC08091B5018111F6
:101B000053C00E94DF2160E081E00E94692120E053
:101B10004FEB62EE86E81DC08091B501811144C093
:101B20000E94DF2160E081E00E94692120E04FEF08
:101B30006FEF8CEB0EC08091B501811135C00E9412
:101B4000DF2160E081E00E94692120E04FEF6FEF2C
:101B500088E90E94922028C08091B501811124C09B
:101B600088E090E00E949D296093F9027093FA0248
:101B70008093FB029093FC02862F60FF13C081606C
:101B80008093F90286950E94E9218091F902869559
:101B90000E94E92121E04091FC026091FB028091CA
:101BA000FA02D7CF0E94D41F8C2FCF91089580E2E4
:101BB00090E090931B0180931A018091B1028111F2
:101BC0000EC00E940A2881E08093B1022FEF83EDBE
:101BD00090E3215080409040E1F700C0000064E6AF
:101BE00070E080E40E94102890931B0180931A01FA
:101BF000892B09F04EC064E670E080E00E948528E1
:101C000090931B0180931A01892B09F042C064E66E
:101C100070E080E00E94852890931B0180931A0158
:101C2000892BB9F564E670E08FE30E9485289093D4
:101C30001B0180931A01892B61F50E94DA2864E662
:101C400070E080E40E94102890931B0180931A0199
:101C5000892BF9F464E670E08CE00E94852890936B
:101C60001B0180931A01892BA1F464E670E080E0E7
:101C70000E94852890931B0180931A01892B49F4B7
:101C800064E670E08FE30E94852890931B018093A7
:101C90001A010E94DA2880911A010895CF93DF93E8
:101CA00056985E9825982D9826982E9827982F98C4
:101CB000C8E8D0E08FEF90E099838883AAE8B0E08D
:101CC00011969C938E93ECE8F0E091838083259AA3
:101CD0002D9A2FEF80E792E0215080409040E1F76D
:101CE00000C00000269A2E9A2FEF80E792E0215044
:101CF00080409040E1F700C00000279A2F9A2FEF14
:101D000080E792E0215080409040E1F700C0000061
:101D100025982D982FEF80E792E021508040904049
:101D2000E1F700C0000026982E982FEF80E792E0A0
:101D3000215080409040E1F700C0000027982F9884
:101D400080916F0287702FEF829FC00111249595BB
:101D500087959595879599279983888311969C9364
:101D60008E939183808356985E9825982D98269817
:101D70002E9827982F98DF91CF910895CF93E82F31
:101D8000873080F580911A0190911B01892B09F011
:101D900047C0CE2F64E670E080E40E941028909344
:101DA0001B0180931A01892BD1F464E670E082E173
:101DB0000E94852890931B0180931A01892B79F446
:101DC00081E090E001C0880FCA95EAF764E670E010
:101DD00080950E94852890931B0180931A010E9490
:101DE000DA281EC090E0FC013797E730F105C0F417
:101DF000EF58FF4F0C94622A209A289811C0219A1C
:101E000029980EC0229A2A980BC0239A2B9808C0B2
:101E1000529A5A9805C0539A5B9802C03E9A4698C7
:101E2000CF910895209828982198299822982A9847
:101E300023982B9852985A9853985B983E984698B6
:101E40000895CF93873040F580911A0190911B013E
:101E5000892B59F564E670E081E40E941028909384
:101E60001B0180931A01892B11F0C0E011C084E698
:101E700090E00E94B52897FF05C090931B018093C6
:101E80001A01F3CFC82FC09510921B0110921A01AE
:101E90000E94DA288C2F0AC09FB18FB1807F86956F
:101EA00086959370892B809501C080E0CF9108952D
:101EB0008098889A8198899A84988C9A85988D9A26
:101EC00086988E9A87988F9A089580E008959091C9
:101ED0000D0392FF0DC0282F2871283019F4877F39
:101EE000846006C0282F2471243011F48B7F886011
:101EF00093FF0DC0282F2871283119F4877E846143
:101F000006C0282F2471243111F48B7E8861209122
:101F10000E0320FF0DC0382F3871383019F4877F39
:101F2000816006C0382F3171313011F48E7F8860A6
:101F300021FF0DC0282F2871283119F4877E816177
:101F400006C0282F2171213111F48E7E886194FD05
:101F5000877E08957E30A0F4663090F494E5899FE2
:101F6000F001112486E0789FE00DF11D1124E60FA9
:101F7000F11DEE0FFF1FEC55FD4F859194910895D3
:101F800080E090E00895CF93DF938238910569F166
:101F9000B0F48133910509F46FC048F4893291059A
:101FA00009F465C08A32910509F46BC08AC0853393
:101FB000910509F457C089339105B9F082C0833E79
:101FC000910571F138F4803E9105B1F0823E9105A2
:101FD00011F177C0863E9105B9F1873E9105C9F1AF
:101FE000843E910509F06DC024C020910D0320FDB1
:101FF00053C021FD51C065C080910D0380FD46C0D6
:1020000080910E0380FF48C080910D0384FD3FC185
:1020100083EE90E03EC180910D0382FF3AC0F4CF81
:1020200080910D0382FD35C080910E0380FD34C088
:10203000EBCF80910E0381FF35C080910D0384FDAD
:1020400026C187EE90E025C180910D0383FF27C054
:10205000F4CF80910D0383FD22C080910E0381FD9A
:1020600021C0EBCF80910D0385FD1FC021C0809161
:102070000D0385FD1DC019C080910D0386FD1BC099
:102080001DC080910D0386FD19C015C089E390E045
:1020900000C182EE90E0FDC080EE90E0FAC086EED6
:1020A00090E0F7C084EE90E0F4C089E290E0F1C0E7
:1020B00085E390E0EEC08AE290E0EBC081E390E03F
:1020C000E8C0811532E5930708F069C0811541E544
:1020D000940728F0982F8827816F906ADAC0883E8D
:1020E000910568F5803E910508F0D3C0883A9105C6
:1020F000B8F4853A910548F0855AE82FF0E0E05CA5
:10210000FE4F808190E09064C4C08130910509F455
:10211000BBC008F4BCC08430910508F4B8C0B9C095
:102120008F3B910508F0B3C0885AE82FF0E0EE0F1E
:10213000FF1FED5BFE4F808191819464AAC08115E1
:1021400020E59207F0F09C0174E0369527957A958A
:10215000E1F7922F9370482F437021E030E002C0E6
:10216000220F331F4A95E2F73C68392B8F70982F66
:102170009695969540E2949FC0011124822B932B53
:1021800088C0811530E4930718F09F70906A81C071
:102190009C013A9521153F4108F47BC078C0EC01C1
:1021A000C11586E5D807E8F5C11525E5D20748F041
:1021B0008C2F0E94670F8F7190E0982F8827906274
:1021C00068C0C11534E5D30728F09C2F8827846F99
:1021D000906A5FC0AE01437055272C2F2695269537
:1021E000C115D34578F481E090E002C0880F991FB3
:1021F0004A95E2F740E2249F90011124822B932B11
:102200009C6847C081E090E002C0880F991F4A9502
:10221000E2F740E2249F90011124822B932B9A68CD
:1022200038C0C1152AE5D207F8F4C11539E5D3073E
:1022300090F08C2F8F700E94670F94E0D695C79511
:102240009A95E1F7CF70D0E0DC2FCC27D0699E01C2
:10225000282BC9011EC0C11548E5D407C0F09C2F2A
:102260008827806F906A15C0CE01905681159042E4
:1022700070F48D2F8F710E94670F282F2F71CE0160
:1022800099279062922B05C081E090E002C080E027
:1022900090E0DF91CF91089568EE7EEF80E090E0CE
:1022A0000E94D72960E082E090E00E94B92960E0B6
:1022B00083E090E00E94B9291092320260E084E04D
:1022C00090E00E94B92964E082E290E00E94B9297E
:1022D00060E085E090E00E94B92960E086E090E04F
:1022E0000E94B9296FEF87E090E00E94B92940E091
:1022F00050E0BA0188E090E00E94CB2960E08DE0D8
:1023000090E00E94B92940E050E0BA0188E190E0F5
:102310000E94CB2960E087E190E00E94B92940E06B
:1023200050E0BA018CE190E00E94CB2960E070E0BF
:1023300080E290E00E94D72940E050E0BA0188E1B5
:1023400090E00E94CB2910926F02109270021092BE
:1023500071021092720284E080936F0240916F02CA
:102360005091700260917102709172028FE090E062
:102370000E94CB2940E050E0BA0183E190E00E9446
:10238000CB29089580913102811110923102089574
:10239000809590910103892380930103089580958E
:1023A00090913C02892380933C02089590913C02D5
:1023B00080910103982B9093B8018091310288237A
:1023C000D9F0892B8093B80180910A01882331F0DC
:1023D00080910D0387FF02C08EE101C086E0EAEB29
:1023E000F1E090E0815028F021912223D9F39F5F02
:1023F000F9CF91110E94C21140E250E061E172E018
:1024000088EB91E00E94B12B892B21F180E2E8EB6F
:10241000F1E0A1E1B2E001900D928A95E1F7E0913F
:102420000403F09105033097A9F080910A018823F5
:1024300059F080910D0387FF07C08091B801809308
:10244000B90186E08093B8010280F381E02D88EB2A
:1024500091E0099508952091100280958223809340
:102460001002982F977099F430E0482F082E000C36
:10247000550B2417350759F090910E0392FF07C0B2
:102480008595859585950E94B22610921002089533
:10249000CF93C0910E03C2FB992790F9981791F042
:1024A00080FBC2F9C0930E0360910D0384E090E0BD
:1024B0000E94B9296C2F82E290E00E94B92982E043
:1024C0000E942B12CF91089580910F029091DE010E
:1024D000891719F08F5F8770FBCF08950F931F93B3
:1024E000CF93DF938091DD0182958F7009F05AC000
:1024F0008091DA01882309F455C080910F02109170
:10250000DE016091D8017091D901C091DB01D091B9
:10251000DC0191E06F3F09F090E0292F06E0811780
:1025200009F440C0209721F07F3F21F030E003C044
:1025300031E001C0322F90E030FD31C0089FF00142
:10254000099FF00D1124DF01A152BE4F11963C915D
:102550001197371324C03C91361321C012963C9139
:10256000129731111CC013964D915C9114974C1B1E
:102570005D0B483C510598F48091DD018F708061BE
:102580008093DD01EC51FE4F80818F7080618083EC
:1025900088ED91E00E9490050E94641203C00196AC
:1025A0008770BDCFDF91CF911F910F910895A1E169
:1025B000B0E0EDEDF2E10C94F9288C0185E0F80132
:1025C000DE011D9601900D928A95E1F7F801E280F7
:1025D0009091D8016091D9014091DB015091DC01CB
:1025E0004115510531F06F3F31F481E09F3F19F4FF
:1025F00003C081E001C080E0F82FF1709F2E80FDC4
:102600001BC1F80130812181C380D48088EDA82EC0
:1026100081E0B82EF090DA01F601E41BF50BFF2003
:1026200009F4C7C08091DD01E83CF10508F092C0D3
:10263000482F407F09F051C0621311C093130FC09F
:10264000FE2CE1100CC08F7080618093DD01C5010C
:102650000E9490058091DD01F80185832AC1C11493
:10266000D10431F02F3F31F481E03F3F19F403C032
:1026700081E001C080E080FD03C081E08E2502C0C2
:1026800080E090E0F82FF170FF2E80FF1CC0809159
:102690000F024091DE0156E0841709F4E8C090E093
:1026A000589FF001599FF00D1124E152FE4F6181B6
:1026B000261306C06081631303C06281E61203C063
:1026C00001968770E9CFFE2CEE2009F4F2C08091CC
:1026D000DD0181608093DD0149C0621306C0931360
:1026E00004C0E11002C0F80186C0C8010E94D026D3
:1026F000882351F1EE2041F12091DD01822F829556
:102700008F7090E0029774F08091D8019091D90178
:1027100098878F831986DB86CA862C87CE01079619
:102720000E94900586E0F801A8EDB1E001900D92BD
:102730008A95E1F70E946E120AC06217C9F0C801BB
:102740000E94D02681111EC0C8010E949005FF245E
:10275000F394AFC0482F407F81F788ED91E00E944D
:10276000900586E0F50111928A95E9F7F12CA1C058
:102770009313E5CFE110E3CFF8018583C8010E94F0
:10278000900554C0EE2001F32091DD01822F829547
:102790008F7090E0029734F28091D8019091D90126
:1027A0009A8389831B82DD82CC822E83CE0101969F
:1027B000B7CFE83CF105D0F5FE2CEE2029F26213EC
:1027C00027C0931325C02091DD0120FD18C0822F62
:1027D00082958F70482F50E04115510581F0F80126
:1027E00025834F30510541F08F5F982F9295907F50
:1027F000822F8F70892B8583C8010E94900586E007
:10280000F801A8EDB1E001900D928A95E1F751C071
:10281000C8010E94D026811185CF8091DD018160A1
:102820008093DD01C8010E94900543C086E0F50158
:1028300011928A95E9F73DC0EE2009F485CFC801D1
:102840000E94D026F82E882309F47ECF86E0F80176
:10285000A8EDB1E001900D928A95E1F78091D80141
:102860009091D9010E9412260E946E1222C03D87CB
:102870002E878D859E850E941226292F22952F70E6
:10288000223028F49F7039F0811105C00BC024302C
:1028900028F49F7049F4805E883020F0C8010E94BF
:1028A00090059F2CF92C05C0F8019581907F99F730
:1028B000F9CF8F2D6196EBE00C941529A0E0B0E0E4
:1028C000E4E6F4E10C94FB2880911A0190911B013D
:1028D000892BB9F0809133028F5F8093330281118D
:1028E00010C00E94D70D90E090931B0180931A01B5
:1028F000892B39F40E944E0E81E0809319010E94C9
:10290000A42103E712E07801B12CC0E087E0C82ED3
:10291000CC0E8C2F0E94BE0E8C2D0E94BE0E8C2FD2
:102920000E94210F8F73F7019081891721F0808316
:10293000DD24D39401C0D12C8C2D0E94210F8F73E4
:10294000F7019781891719F0878381E001C080E042
:10295000D82ABD280E94120FCF5FFFEFEF1AFF0A9F
:10296000C730A1F6C0913702CC23C9F10E94982448
:102970002091350230913602AC01421B530B9A0173
:1029800090933602809335024F3F510509F020F4B1
:10299000452B09F4A1C002C02FEF30E0109237029E
:1029A00010923402E0916D02F0916E02AF01425F2D
:1029B0005F4F90E030E08081882341F0281718F0C5
:1029C00010829C2F03C0821B80833C2F3196E4171A
:1029D000F50789F730933702909334027DC0BB200E
:1029E00009F471C00E9498249093360280933502B6
:1029F000E0916D02F0916E0280913702A4E8B2E09E
:102A00009F01225F3F4F4EE1E80199918E015C9159
:102A1000591731F05081511103C040839C9381E0DC
:102A200031961196E217F30779F7809337022091D8
:102A30006A028091390290913A022223C9F1892BCE
:102A400031F425982D9826982E9827982F988091C4
:102A5000390290913A029170892B79F48091380271
:102A6000882319F026982E9802C0269A2E9A9091C3
:102A7000380281E089278093380280913902909151
:102A80003A028130984750F010926A028091810298
:102A90000E944B0D10923A02109239028091390235
:102AA00090913A02019690933A028093390218C0AD
:102AB000892BB1F010923A02109239028091810272
:102AC0000E944B0D0DC080E090913402992309F4CF
:102AD000AECF81118DCF86CFB1108ACF81E0F4CFF8
:102AE0008B2DCDB7DEB7E9E00C94172980916202F7
:102AF00087FF11C08091E80082FD05C080916C02C3
:102B00008111F8CF11C08091E8008B770BC08091C4
:102B10006C02882349F08091E80080FFF8CF809113
:102B2000E8008E778093E8000895982F973068F535
:102B30009093E900981739F07091EC002091ED0026
:102B40005091F00003C0242F762F50E021FD02C0E9
:102B50009F5FECCF3091EB003E7F3093EB003091E4
:102B6000ED003D7F3093ED003091EB00316030930C
:102B7000EB007093EC002093ED005093F000209157
:102B8000EE0027FDE5CF80E008958F708093E90087
:102B900081E0089520916802309169022617370775
:102BA00048F06115710539F42091E8002E772093E3
:102BB000E80001C0B901FC0120E06115710579F15F
:102BC00080916C028823F1F18530F1F18091E80069
:102BD00083FD3CC08091E80082FD2EC08091E8001A
:102BE00080FFEBCF2091F3008091F20090E0922BD8
:102BF0006115710551F08830910538F421912093C9
:102C0000F100615071090196F3CF21E0089709F0B6
:102C100020E08091E8008E778093E800CECF2111EC
:102C2000CFCF0AC080916C02882361F0853061F0BB
:102C30008091E80083FD0AC08091E80082FFF2CF16
:102C400080E0089582E0089583E0089581E008958A
:102C50000895BC0184E00E9439240895BC0183E0FA
:102C60000E9439240895AAE2B0E0E9E3F6E10C9469
:102C70000129E2E6F2E08AE692E02091F100219358
:102C80008E179F07D1F780916302833009F463C0E8
:102C900030F4813071F0823009F49FC0B6C08A30C0
:102CA00009F48BC08B3009F46EC0893009F0ADC0D7
:102CB00020C080916202813A09F0A7C08091E800AB
:102CC000877F8093E8008091660290916702892B4C
:102CD00021F460E28FE392E003C060E080E090E0E6
:102CE00070E00E94CA158091E8008B778093E8001D
:102CF0008CC080916202813209F087C080916602A7
:102D000090916702009719F0029709F07EC08091B8
:102D1000E800877F8093E8008091E80082FD05C08D
:102D200080916C028111F8CF70C02091F3008091E6
:102D3000F20090E0922B029731F48091F100813003
:102D400011F0863021F48091F10080933E02809151
:102D5000E8008B7756C080916202813A09F055C035
:102D60008091660290916702892B09F04EC0809194
:102D7000E800877F8093E8008091E80080FFFCCF27
:102D800080910A0139C0809162028132F1F580910F
:102D9000660290916702892BC1F58091E800877FD8
:102DA0008093E8000E9476158091640280930A0166
:102DB00010923C020E94F02628C08091620281326B
:102DC00021F58091E800877F8093E8000E947615C6
:102DD0008091650280933D0218C080916202813A21
:102DE000A1F48091E800877F8093E8008091E8005B
:102DF00080FFFCCF80913D028093F1008091E8003C
:102E00008E778093E8000E9476158091E80083FF1A
:102E1000DFC18091620290916302492F50E04A30F5
:102E2000510508F0D5C1FA01E858FF4F0C94622A09
:102E3000803821F0823809F0CBC108C080915F0250
:102E400090916002992389F082600FC080916602A0
:102E50008F70873008F0BCC18093E9008091EB004F
:102E600085FB882780F91092E9009091E800977F10
:102E70009093E8008093F1001092F10070C1282F28
:102E80002D7F09F0A5C1882319F0823061F0A0C11F
:102E900080916402813009F09BC1933009F080E099
:102EA000809360022EC08091640281112AC08091BB
:102EB00066028F702FEF280F263008F089C18093AB
:102EC000E9002091EB0020FF1CC0933021F4809199
:102ED000EB00806214C09091EB0090619093EB0046
:102EE00021E030E0A90102C0440F551F8A95E2F7A6
:102EF0004093EA001092EA008091EB008860809392
:102F0000EB001092E9008091E800877F8093E80051
:102F10000E9476155DC181115BC1109164021F771B
:102F20008091E3008078812B8093E3008091E8001A
:102F3000877F8093E8000E9476158091E80080FFEB
:102F4000FCCF8091E30080688093E300111102C000
:102F500082E001C083E080936C023AC180588230E5
:102F600008F036C120916402309165022C3D53E097
:102F7000350779F583E08A838AE289834FB7F8942D
:102F8000DE01139620E03EE051E2E32FF0E05093A3
:102F90005700E49120FF03C0E295EF703F5FEF70B0
:102FA0008E2F90E0EA3010F0C79601C0C0968D9346
:102FB0009D932F5F243149F74FBF8091E800877FB1
:102FC0008093E8006AE270E0CE0101960E94CA1583
:102FD000B4C08091660290916702432F5527433019
:102FE0005105A9F068F44130510509F400C142309F
:102FF000510509F0EDC08BE590E0EBE0F8E04BC047
:103000004132510529F14232510589F1E1C0C9012E
:10301000992781309105A1F058F0029709F0D8C0A6
:10302000E8E7F8E0E4918E2F90E0E8E7F8E030C0C0
:10303000E6ECF8E0E4918E2F90E0E6ECF8E028C0B2
:10304000ECE9F8E0E4918E2F90E0ECE9F8E020C0A4
:103050008330910508F0BCC0880F991FFC01E65829
:10306000FE4F0190F081E02D89E090E014C08330A4
:10307000910508F0ADC0FC01EE0FFF1FEC58FE4FAC
:103080000190F081E02DDC01AF58BE4F8C9190E0B3
:10309000009709F49DC02091E800277F2093E80065
:1030A00020916802309169022817390708F4C90194
:1030B00040E0009789F120916C02222309F43DC081
:1030C0002530D9F12091E80023FD37C02091E80098
:1030D00022FD2FC02091E80020FFEBCF4091F300AC
:1030E0002091F20030E0342B009759F02830310560
:1030F00040F444914093F100319601972F5F3F4F88
:10310000F3CF41E02830310509F040E02091E8009C
:103110002E772093E800CDCF4111CDCF0AC080910A
:103120006C02882351F0853041F08091E80083FDE6
:1031300004C08091E80082FFF2CF8091E8008B7795
:103140008093E80045C0803809F042C08091E800D3
:10315000877F8093E800809161028093F1008091E5
:10316000E8008E77D3CE811133C0809164029091B4
:1031700065029927029764F58091E800877F809324
:10318000E80010916402109361020E9476151111FB
:1031900006C08091E30087FD02C081E001C084E0A9
:1031A00080936C0242E061EC81E00E94951542E25E
:1031B00061EC84E00E94951542E261EC82E00E949D
:1031C000951542E260EC83E00E94951580916C02B7
:1031D0008091E80083FF10C08091E800877F809392
:1031E000E8008091EB0080628093EB0005C082E1F3
:1031F00090E0E6E6F8E04FCFAA96E3E00C941D29B4
:103200001F920F920FB60F9211242F933F934F935B
:103210005F936F937F938F939F93AF93BF93CF935E
:10322000DF93EF93FF93C091E900CF708091EC00A2
:10323000D82FD17080FDD0E81092E9008091F00085
:10324000877F8093F00078940E9433161092E900F3
:103250008091F00088608093F000CD2BCF70C093F8
:10326000E900FF91EF91DF91CF91BF91AF919F91D5
:103270008F917F916F915F914F913F912F910F901F
:103280000FBE0F901F901895E8EDF0E080818E7FC3
:1032900080831092E2001092DA001092E100A0EE1A
:1032A000B0E08C9181608C9380818F77808319BC92
:1032B000A7EDB0E08C918E7F8C9380818F7E808390
:1032C00010923B020895A0E0B0E0E9E6F9E10C9429
:1032D000FC28C8EDD0E088818F7E8883E7EDF0E0A0
:1032E00080818160808384E082BF81E080933B02A3
:1032F00088818E7F888302EE10E0F80110821092A0
:10330000DA0081EEC82ED12CF601108288818F77E9
:10331000888388818068888388818F7D888319BCB1
:1033200010926C02109261021092600210925F0281
:1033300090EEE92EF12CF70180818B7F80838881CC
:103340008160888342E060E080E00E949515F6018C
:1033500080818E7F8083F80180818160808380817D
:1033600088608083F70180818E7F8083888180617F
:103370008883CDB7DEB7E8E00C9418291F920F922E
:103380000FB60F9211242F933F934F935F936F9338
:103390007F938F939F93AF93BF93EF93FF9380910E
:1033A000E10082FF09C08091E20082FF05C08091A8
:1033B000E1008B7F8093E1008091DA0080FF2AC0DA
:1033C0008091D80080FF26C08091DA008E7F8093A4
:1033D000DA008091D90080FF18C080E189BD82E1C8
:1033E00089BD09B400FEFDCF81E080936C0280911D
:1033F0003B0281110FC00E9444190E946319809101
:10340000E20084608093E20005C019BC10926C0257
:1034100010923B028091E10080FF17C08091E20092
:1034200080FF13C08091E2008E7F8093E200809144
:10343000E20080618093E2008091D80080628093F6
:10344000D80019BC85E080936C028091E10084FF74
:1034500030C08091E20084FF2CC080E189BD82E110
:1034600089BD09B400FEFDCF8091D8008F7D809387
:10347000D8008091E1008F7E8093E1008091E2008E
:103480008F7E8093E2008091E20081608093E20071
:1034900080916102882311F084E007C08091E300ED
:1034A00087FD02C081E001C083E080936C028091BF
:1034B0006C028091E10083FF27C08091E20083FFCE
:1034C00023C08091E100877F8093E10082E08093B8
:1034D0006C02109261028091E1008E7F8093E10086
:1034E0008091E2008E7F8093E2008091E200806113
:1034F0008093E20042E060E080E00E9495158091B8
:10350000F00088608093F000FF91EF91BF91AF9140
:103510009F918F917F916F915F914F913F912F91EB
:103520000F900FBE0F901F9018952091E4003091DE
:10353000E50095E64091EC00842F817040FF23C0A8
:103540008091E80080FD1DC080916C02882399F075
:10355000853099F08091EB0085FD11C04091E40029
:103560005091E5002417350729F3915011F09A0185
:10357000E1CF84E0089582E0089583E0089581E03A
:10358000089580E008954091E80042FFDDCF08955E
:10359000EF92FF920F931F93CF93DF937C018B01E8
:1035A0000E94951A811119C0E70101151105A1F0BA
:1035B0008091E80085FD0AC08091E8008E778093B5
:1035C000E8000E94951A882381F307C089918093AF
:1035D000F10001501109E9CF80E0CDB7DEB7E6E098
:1035E0000C941A29CF9320916C02243029F5C091B4
:1035F000E900CF703091EC00232F217030FD20E8DE
:10360000C22B22E02093E9002091E80020FF11C0A6
:1036100040E050E060E270E00E94C81A882321F088
:1036200010926A0210926B028091E8008E7780936C
:10363000E800CF70C093E900CF910895ACE5B0E009
:10364000E4E2FBE10C94F72885B7806885BF85B775
:10365000806885BF84B7877F84BF0FB6F894A8952C
:1036600080916000886180936000109260000FBEBE
:1036700090E080E80FB6F894809361009093610029
:103680000FBE85E69FE09093B3018093B2010E9444
:1036900044190E9463198091E20084608093E200E3
:1036A000789480916C028823A1F01091E9001F703A
:1036B0009091EC00892F817090FD80E8182B10927A
:1036C000E9008091E80083FD0E9433161F7010937B
:1036D000E90082E084BD93E095BD9AEF97BD8093A9
:1036E0006E000E94D70D90E090931B0180931A0109
:1036F0000E94120F0E94580FE3E7F2E0A4E8B2E044
:1037000011921D9222E0E138F207D1F78EE090E0AD
:103710000E94832A80936D0290936E02FC010E96A4
:103720001192E817F907E1F789EA8093800089E0B0
:103730008093810024982C983F988AB18F7C8AB915
:103740006E98479A8BB180638BB9769A8FE090E040
:103750000E949D2960936F027093700280937102A2
:103760009093720267708FEF689FB0011124759576
:1037700067957595679577277093890060938800A2
:1037800070938B0060938A0070938D0060938C001F
:103790000E944E0E80E090E00E94A329883E9E4F3A
:1037A00011F00E944C1182E090E00E9495298093D4
:1037B000920284E090E00E949529182F82E290E026
:1037C0000E949529212F30E0382B30930E0320934F
:1037D0000D0383E090E00E9495290E94CB26809102
:1037E00081020E944B0D0E94A421809181020E94BF
:1037F0004B0D8BE091E09093050380930403B8E1B7
:10380000EB2EF12C10E4D12E80916C02853009F062
:103810007DC0CC24C39400E112E180916C0285301C
:1038200009F065C080916C02843009F43DC01092AB
:10383000B90280918302811116C0C09283028091E7
:10384000F902982F9170909382028E7F8093F902F3
:10385000FFEF20E782E0F15020408040E1F700C018
:1038600000000E94301F109208030FB6F894A8952C
:10387000E09260000FBED092600083B7817F8460C9
:1038800083BF83B7816083BF7894889583B78E7F29
:1038900083BF0FB6F894A8958091600088618093EB
:1038A0006000109260000FBE80916002882309F4CE
:1038B000B4CF0E94D70D90E090931B0180931A0122
:1038C0000E94120F0E94580FE4E8F2E0119292E079
:1038D000E239F907D9F70E945E14E4E8F2E0819139
:1038E00081114CC222E0E239F207C9F796CF10925B
:1038F0003C020E94F0260E942125109283028091B2
:10390000820281110E94DF210E9453210E945E14D5
:10391000882359F08FB7F8944091090350910A0316
:1039200060910B0370910C038FBFE3E9F2E0A4E810
:10393000B2E000E010E0302F2D9191919227A1F19B
:1039400080E0BB24B394492F4B2151F164968FAF93
:10395000649765963FAF65972B2181E009F480E07D
:1039600066968FAF66970E9498248160782F68963C
:103970009FAF8EAF689764964FAD649765965FADC5
:10398000659766966FAD669768968FAD68970E944B
:10399000B80BF801ED56FD4F8081B826B0822AC0E1
:1039A0008F5FBB0C863079F60F5F1F4F0E3011050D
:1039B00009F0C1CF8FEF69968FAF69976A968FAF85
:1039C0006A976B961FAE6B970E9498248160782F40
:1039D0006D969FAF8EAF6D9769964FAD69976A965A
:1039E0005FAD6A976B966FAD6B976D968FAD6D9768
:1039F0000E94B80B8091170190911801019641F136
:103A0000C12CA6E17A2E1BC07A9CF0017B9CF00DA4
:103A10001124E65DFE4F828893888114910419F485
:103A2000F8EC8F2E912C7A9C80017B9C100D112438
:103A3000065D1E4FF801868181110FC0C394AC2C26
:103A4000B12C80911701909118018A159B05E4F61D
:103A50008091FE02882331F118C0858596850E94E9
:103A600089248816990650F7F8018189811103C0CD
:103A7000C8010E942E257A9CC0017B9C900D1124C8
:103A8000805D9E4F0E944D25D9CF0E9498242091A1
:103A9000A1023091A202821B930B8F3F9F4710F42B
:103AA0000E9492258091B902882309F493C08091E5
:103AB000B802E091F902E695E81BE093B402823087
:103AC00059F4F0E0E852F74FE4910E2F10E0E5E2F0
:103AD000AE2EE4E2BE2E59C0863059F4F0E0EB522F
:103AE000F74FE4910E2F10E075E1A72E74E2B72E88
:103AF0004CC0893061F4E695F0E0EE52F74FE49166
:103B00000E2F10E061EBA62E63E2B62E3EC08F3082
:103B100061F4E695F0E0E153F74FE4910E2F10E0E9
:103B20005BE4A52E53E2B52E30C0853159F4F0E0A8
:103B3000E453F74FE4910E2F10E04BEFA42E42E236
:103B4000B42E23C08831A1F0833249F4EAECF8E0C6
:103B5000059114913BEDA32E33E2B32E16C08432AF
:103B600071F404EF11E028E4A22E22E2B22E0DC07F
:103B700008E210E090E8A92E92E2B92E06C000ED0E
:103B800017E082E0A82E82E2B82E8091B502882349
:103B900061F01092B5020E9498249093B302809332
:103BA000B2021092B7021092B6020E949824E091DD
:103BB000B202F091B3028E1B9F0B8F3F9F4750F4D0
:103BC0000E0F1F1F1093B3020093B20282EB92E01C
:103BD000F50109950E9421259091A30289138093F4
:103BE000A30280916C02843009F00ECE83E08093B2
:103BF000E9008091E80082FF07CE8091E80085FF10
:103C000022C00E94951A81111CC000E210E05E01E2
:103C1000F1E2AF0EB11C08C08091F100F501819373
:103C20005F010150110969F08091E80085FDF4CF32
:103C30008091E8008B778093E8000E94951A882392
:103C400099F391E001C090E08091E8008B77809338
:103C5000E800992309F4D8CD89A18130E9F158F120
:103C6000823021F0843009F47DC0CECD8BA19AA1A1
:103C70009093A4028093A5028DA19CA19093A6028B
:103C80008093A7028FA19EA19093A8028093A9027E
:103C900042E150E063E270E0CE018F5B9F4F0E94F3
:103CA000852984E0898381E080936B028EEF8A838B
:103CB00010926A020CC019828CE0E0E8F1E0DE01AB
:103CC000129601900D928A95E1F78EEF8D87CE01C5
:103CD00001960E94F21A98CD0AEA12E00E949C25F1
:103CE000F801819391938F01F2E0003B1F07B1F738
:103CF00081E089839091AA029A839091AB029B8381
:103D00009091AC029C839091AD029D839091AE0204
:103D10009E839091AF029F839EEF988780936A0263
:103D2000CE0101960E94F21A42E150E063E270E097
:103D3000CE0101960E948529FE01319682E18330F1
:103D40001CF09189928B01C0128A815031978F3F6C
:103D5000B1F742E150E063E270E0CE0101960E94CB
:103D6000A92952CD80916B02882309F44DCD80E0C2
:103D70000E9488268AA10E94BF2646CD09BD19BD92
:103D800009B400FEFDCF8091D8008F7D8093D800CC
:103D90008091E00082608093E0008091E00081FDEE
:103DA000FCCF10923C020E94F02637CD8091F902A0
:103DB000282F269530E02115310519F48170826095
:103DC00005C02532310524F0817088648093F902A2
:103DD0000895CF92DF92EF92FF926B017C010E94D7
:103DE000D61EB701A60188E090E00E94CB29FF9083
:103DF000EF90DF90CF9008958091FD02882319F015
:103E000081508093FD026091F9027091FA028091D5
:103E1000FB029091FC020E94E91E08958091FD0230
:103E2000833018F48F5F8093FD026091F9027091E6
:103E3000FA028091FB029091FC020E94E91E089513
:103E4000E9EFF2E083E0808311828FEF8283838346
:103E5000148260817181828193810E94E91E08959C
:103E6000EF92FF920F931F93CF93DF938091F9020C
:103E700080FF08C00DEB12E089EFE82E82E0F82EFB
:103E8000F8011BC0EDEBF2E089EF92E011821082A5
:103E90001282138234968E179F07C1F7EBCF381723
:103EA00008F4832F8383381B3183281B2083981BBE
:103EB00092833496EE16FF0641F092812081318183
:103EC000892F291760F7822FEACF8091B1028823CA
:103ED00081F180911A0190911B01892B51F58091FC
:103EE0001901882331F164E670E084E80E9410280B
:103EF000892B19F0109219011AC0CDEBD2E064E6BB
:103F000070E088810E94852864E670E089810E94C3
:103F1000852864E670E08A810E94852864E670E066
:103F20008B810E9485282496EC16FD0641F70E949D
:103F3000DA28579A8BB18F779BB190682FB7F89496
:103F4000E016F10699F0F80131918F0148E09BB934
:103F5000000000C037FF8BB9330F000000C000C065
:103F600000C08BB900C04A9591F7EACF2FBF8FE50B
:103F700094E00197F1F700C00000CDB7DEB7E6E0AE
:103F80000C941A299091F90290FF0DC0EDEBF2E02C
:103F90008183608342831382349692E0E93FF9077C
:103FA000B9F70E94301F0895E9EFF2E080818E7F1B
:103FB000808360817181828193810E94E91E1092C9
:103FC000B9022FEF80E792E0215080409040E1F766
:103FD00000C000000E94301F0895A0E0B0E0E3EFB1
:103FE000FFE10C94FA28E82EF62EE901E42FF0E028
:103FF000611106C0E452F74FE4914E2F2E2F71C08D
:10400000062F10E0E452F74F4491F42FC42ED12C28
:1040100026E0829FC00111242FEF30E0B9010E94F9
:10402000DE285BEA5603C001579F900D11248E0DC8
:10403000911D8E0D911D582F550F580FD901A01BA2
:10404000B10BAC9DC001AD9D900DBC9D900D112498
:10405000E92FF59ED0011124AB2FBB277901EA1A75
:10406000FB0AEC9CD001ED9CB00DFC9CB00D112422
:104070005901A51AB108A09E7001A19EF00CB09E36
:10408000F00C1124EF2CFF242E193F092C9D8001E8
:104090002D9D100D3C9D100D1124212F62307105B6
:1040A00091F048F461157105E1F061307105B9F4E2
:1040B000242F4B2F16C06430710569F040F0663034
:1040C000710579F00CC0242F492FE12F0AC0492F28
:1040D000EF2F2B2F06C0292FE42F412F02C0292FAD
:1040E000EB2F49832883EA831B82CDB7DEB7EAE052
:1040F0000C941629A4E0B0E0E0E8F0E20C94022968
:104100009091F90290FF0AC09E012F5F3F4F0E94DD
:10411000ED1F4B8169818A810E94C21F2496E2E0D3
:104120000C941E29A4E0B0E0E8E9F0E20C94F52834
:10413000F82E762EE42E622E9091F90290FF67C041
:10414000E92FE695AE2FB0E0A457BE4F8C91809337
:10415000B8029E7F923061F49E012F5F3F4F8F2DFA
:104160000E94ED1F4B8169818A810E94C21F3DC060
:10417000823019F4E090FC0238C0863019F4F090D7
:10418000FA0233C08930D9F3893179F5E9518E2F9C
:104190008170582EE695F0E0E452F64FE4910E2F30
:1041A00010E08DEBC82E82E0D82EA12CB12C9FE020
:1041B000892E912CC501B4010E94DE288F2D51104B
:1041C00002C0860F01C0861B96014E2D672D0E94EE
:1041D000ED1FA00EB11E84E0C80ED11C89EFC816D9
:1041E00082E0D80639F70E94301FF092FA027092EE
:1041F000FB02E092FC02662051F06091F90270919E
:10420000FA028091FB029091FC020E94E91E249622
:10421000EFE00C941129E9EFF2E043812CE0421B1E
:1042200008F440E021E0628181810E94922008959B
:10423000E9EFF2E043812CE0420F08F44FEF21E078
:10424000628181810E9492200895E9EFF2E062810B
:104250002FEF621B08F460E021E0438181810E941E
:1042600092200895E9EFF2E062812FEF620F08F4E7
:104270006FEF21E0438181810E9492200895E9EF50
:10428000F2E0818121E0438162818C500E94922082
:104290000895E9EFF2E0818121E043816281845F4A
:1042A0000E94922008956091F902669570E04BE0BB
:1042B00050E08CE191E00E94A42B892B19F481E05D
:1042C0008093B9020E9498249093B3028093B20223
:1042D00008959091F90290FF36C09170811102C04B
:1042E000926006C0853210F0986402C0880F982B47
:1042F0009093F902662351F06091F9027091FA02ED
:104300008091FB029091FC020E94E91E6091F902EB
:10431000669570E04BE050E08CE191E00E94A42BA8
:10432000892B19F01092B90202C00E94532181E03A
:104330008093B50220E04091FC026091FB028091E5
:10434000FA020E94922008958091B002811136C035
:1043500080E090E00E94A329883E9E4F21F00E94B9
:104360004C110E94201F88E090E00E949D296093DC
:10437000F9027093FA028093FB029093FC026E7F25
:1043800071F40E94201F88E090E00E949D296093B4
:10439000F9027093FA028093FB029093FC020E9450
:1043A000D61E1092B9028091F90280FF04C060E02D
:1043B00086950E94692181E08093B0020895E9EF1B
:1043C000F2E080818160808360E086950E946921AF
:1043D000089561E00E94692108958091F90286950F
:1043E000815009F484E261E00E946921089580917E
:1043F000F90286958F5F853208F081E061E00E94C6
:10440000692108950895089580913E020895CF93FB
:10441000DF9320910A01222339F020910D0327FF19
:1044200003C060E224E002C068E021E02093E900DC
:104430002FEF3091E800215035FD06C035ED3A955B
:10444000F1F700002111F5CF2091E80025FF1DC0F4
:10445000EC0180910A01811105C040E050E068E064
:1044600070E003C070E040E050E0CE010E94C81A46
:104470008091E8008E778093E80080E2FE01AFE350
:10448000B2E001900D928A95E1F7DF91CF91089506
:10449000EF92FF920F931F93CF93DF938C01CDEB9D
:1044A000D2E0E12CF12CF8018481F7E0EF16F10461
:1044B0001CF4882339F002C0811104C09E01409190
:1044C000FC0202C09E0140E06091FB028091FA0272
:1044D0000E94ED1F8FEFE81AF80A24969FE0E91674
:1044E000F10409F70E94301FF801848190E00196E1
:1044F000817099278483CDB7DEB7E6E00C941A2942
:10450000A0E0B0E0E6E8F2E20C94F828EC014C817F
:10451000042F10E09801D8010E94312A9B01AC01C0
:104520000E94FC296B017C01E0E2F0E0E01BF10B52
:10453000A5E5B0E09B01AC010E94FC294B015C01A8
:104540009F01DF010E94682A9B01AC010E94072A9B
:104550009B01AC012C0D3D1D4E1D5F1DC501B4011D
:104560000E940F2A822FF22E99E2921728F093E0F0
:10457000299F900111240DC025E530E0281B310949
:10458000C901880F991F280F391F37FF02C02F5FFD
:104590003F4F35952795122F10959DEBC92E92E030
:1045A000D92E00E085E5E82EEF1801FD02C08E2D22
:1045B00001C08F2D9601412F6091FB020E94ED1FDB
:1045C0000F5F84E0C80ED11C0F3079F70E94301FB6
:1045D0008C81811102C091E003C0803219F49FEFF9
:1045E0009093290190912901890F8C83CDB7DEB773
:1045F000ECE00C9414290F931F93CF93DF93CDEB32
:10460000D2E0FE011182108212821382349682E07F
:10461000E93FF807B9F700E010E08091BB02082EEF
:10462000000C990B0817190794F080912801082EA7
:10463000000C990B8017910754F09E014091FC02E9
:104640006091FB028091FA020E94ED1F04C0198262
:1046500018821A821B820F5F1F4F24960F3011059C
:10466000E1F60E94301F809127019091BB02980FC4
:104670009093BB0220912801280F20932801121645
:1046800014F49E301CF0819580932701DF91CF9127
:104690001F910F910895A0E0B0E0E1E5F3E20C94E2
:1046A000FB28FC01828180FF03C0DD24DA9402C074
:1046B000DD24D3940DEB12E0C0E0D0E02FE0B22E69
:1046C000F801118210821282138294E0E92EF12CFB
:1046D000C12C8091BA028C0D80312CF06B2D0E9480
:1046E000402A892F02C087FD815F082E000C990B9C
:1046F000C817D90791F48091FC028E9DA0018F9D6F
:10470000500D112455954795559547959801609101
:10471000FB028091FA020E94ED1FCD0CF1E0EF1A2E
:10472000F108B9F621960C5F1F4FCF30D10541F645
:104730000E94301F8091BA0291E0D91206C0811107
:1047400002C08EE007C0815005C090E00196BE0116
:104750000E944E2A8093BA02CDB7DEB7E9E00C94EE
:104760001729EF92FF921F93CF93DF93EC018DEB0C
:10477000E82E82E0F82E10E08C8197014091FC0237
:104780006091FB02810F0E94ED1F1F5E84E0E80E26
:10479000F11C1F3F89F70E94301F9A818C8190FF86
:1047A00002C08F5F01C081508C83DF91CF911F9138
:1047B000FF90EF900895A4E0B0E0E1EEF3E20C94F6
:1047C00000298C018091BC0281110AC09E012F5FDB
:1047D0003F4F4FEF6FEF0E94ED1F8A818093BC0225
:1047E000F8018481813051F028F0823061F44091E9
:1047F000BC020AC08091BC0240E007C06091BC02CC
:1048000040E080E003C040E080E060E00E94C21F22
:10481000F801848190E0019663E070E00E944E2AE6
:1048200084832496E4E00C941C29CF93DF93EC015D
:10483000E9EFF2E0438162818C810E947A208C81D1
:104840008F5F8C83DF91CF910895CF93DF93EC013D
:10485000EC81F0E0EF51F64F4491E9EFF2E0628134
:1048600081810E947A208C818F5F8C83DF91CF9130
:10487000089580930F037093110360931003809148
:104880006C028430F9F48093E9008FEF9091E80096
:10489000815095FD06C095ED9A95F1F700008111C4
:1048A000F5CF8091E80085FF0DC040E050E063E067
:1048B00070E08FE093E00E94C81A8091E8008E7744
:1048C0008093E800089578941F920F920FB60F928C
:1048D00011248F939F93AF93BF938091090390917D
:1048E0000A03A0910B03B0910C030196A11DB11D09
:1048F0008093090390930A03A0930B03B0930C03D6
:10490000BF91AF919F918F910F900FBE0F901F900D
:1049100018959C014FB7F8948091090390910A0370
:10492000A0910B03B0910C034FBF821B930B089512
:104930002FB7F8948091090390910A03A0910B037B
:10494000B0910C032FBF08951F920F920FB60F92D4
:1049500011248F939F93AF93BF938091080381118C
:1049600013C08091090390910A03A0910B03B091A9
:104970000C034196A11DB11D8093090390930A0376
:10498000A0930B03B0930C03BF91AF919F918F91B4
:104990000F900FBE0F901F90189520910A012223AF
:1049A000C9F020910D0327FF15C0262F26952695C7
:1049B00026952E31C8F4FC01E20FF11D677081E0ED
:1049C00090E001C0880F6A95EAF78095928189236B
:1049D00082830895FC0106962281621301C012822F
:1049E0003196E817F907C1F7089520910603309131
:1049F00007032817390771F0909307038093060384
:104A0000E0910403F0910503309721F00084F185D3
:104A1000E02D099508952091020330910303281792
:104A2000390771F09093030380930203E09104032C
:104A3000F0910503309721F00680F781E02D09956C
:104A40000895E0910403F0910503309729F0019057
:104A5000F081E02D0995089580E00895CF93DF93CC
:104A6000EC0181E0898B90913C028F81892B8093AE
:104A70003C02909101038885892B809301030E9459
:104A8000D611EA81FB81CE010696309719F06C8928
:104A90007D890995DF91CF910895EF92FF920F9351
:104AA0001F93CF93DF93FC012285211136C0EC01C7
:104AB000E380F480F7E5FF1A26E12E9DC0012F9DCB
:104AC000900D1124DC01A65DBE4F1496ED91FC9172
:104AD0001597805D9E4F309729F054966D917C918B
:104AE0005597099586E18E9D80018F9D100D1124AB
:104AF000065D1E4FF80187810E94CF11F801808565
:104B00000E94C8110E94D611188219861B861E8227
:104B10001D82109200031092FF02CDB7DEB7E6E0CF
:104B20000C941A298091FE02882329F082E20E94C7
:104B300004271092FE020895CF93DF930E947529F7
:104B400066E070E00E944E2AD82F0E9475296EE020
:104B500070E00E944E2AC82F6D2F782F80E00E94AF
:104B6000AA0F0497C59718F48D2F9C2F02C00E949E
:104B70009C25DF91CF9108959091F90290FF04C098
:104B80009695981748F003C0811106C090E09617DB
:104B900018F40E94F72108950E94E92108958823BE
:104BA00011F0FA0101C0FB010995089580E090E041
:104BB0000E940B2580E090E00E94F52410920103F2
:104BC0000E94D6110895CF92DF92FF920F931F9308
:104BD000CF93DF936C010091810280913202082B08
:104BE000C7E0D0E010E0C8010C2E02C09595879573
:104BF0000A94E2F780FD04C02197A8F7F12C09C0C0
:104C0000FC2EB6018C2F0E94AA0F0E94C30F0197A1
:104C100099F38F2DDF91CF911F910F91FF90DF902E
:104C2000CF900895CF93DF93EC010E94E325BE015E
:104C30000E94AA0F0E94C30FDF91CF910895292FE0
:104C40009E3078F5863068F590E036E0239F800D41
:104C5000911D1124682F677023E0969587952A95FA
:104C6000E1F7FC01EE0FFF1FE80FF91FEE5EFC4FAE
:104C700040E050E080E0219130E0062E02C0369501
:104C800027950A94E2F721703327042E01C0220FE2
:104C90000A94EAF7822B4F5F5F4F4330510559F773
:104CA000089580E00895292F9E3088F5863078F5A4
:104CB00090E036E0239F800D911D1124282F27704E
:104CC00051E001C0550F2A95EAF723E096958795A4
:104CD0002A95E1F7FC01EE0FFF1FE80FF91FEE5ECA
:104CE000FC4F20E030E070E04081CB01022E02C09A
:104CF000969587950A94E2F781708195842785239C
:104D0000842781932F5F3F4F2330310569F7089542
:104D1000A0E2B0E0EEE8F6E20C9401290E944B0D0F
:104D2000182F80916B028823A9F02FEF80E792E083
:104D3000215080409040E1F700C0000085E0898369
:104D4000812F0E94570C8A838EEF8B83CE010196B0
:104D50000E94F21A109381020E94D625A096E3E0E9
:104D60000C941D2921E030E001C0220F8A95EAF75A
:104D700020958091810282230E948826089521E057
:104D800030E001C0220F8A95EAF780918102822BE0
:104D90000E9488260895809332020E94D6250895A5
:104DA000FC01808191810E94122692959F7096301D
:104DB00079F010F4925001C09A50923068F4803F1C
:104DC00069F018F4883E40F409C0843F29F406C015
:104DD000883E20F0813F11F080E0089581E0089541
:104DE00080910A01882331F080910D0387FF02C072
:104DF0008EE101C086E0EAEBF1E0DF011D928A95C9
:104E0000E9F70E94D6250895882321F00E94C81151
:104E10000E94D6110895882339F090910103892BBF
:104E2000809301030E94D6110895882321F00E94E7
:104E3000CF110E94D6110895882339F090913C0239
:104E4000892B80933C020E94D6110895882349F152
:104E5000682F8CEF860F813A28F488EB91E00E944E
:104E6000CD240CC080E2860F883058F4677081E052
:104E700001C0880F6A95EAF70E94CF110E94D611EF
:104E800008958BE5860F833028F480E090E00E943F
:104E90000B250895685A673120F480E090E00E9465
:104EA000F5240895CF93882309F49AC0C82F8CEF76
:104EB0008C0F813A08F05EC080910A018823E1F0EE
:104EC00080910D0387FF18C0EC2FE695E695E695D7
:104ED000F0E0E854FE4F8281282F30E04C2F4770DD
:104EE00081E090E002C0880F991F4A95E2F7822383
:104EF0009323892B59F411C0EAEBF1E08191C81793
:104F000029F081E0E03CF807C9F707C06C2F88EB77
:104F100091E00E94CD240E94D61180910A0188233D
:104F2000C9F080910D0387FF15C0AC2FA695A695FB
:104F3000A695B0E0A854BE4FC77081E090E001C0D4
:104F4000880FCA95EAF712969C911297892B1296B0
:104F50008C9320C0AAEBB1E0EFEF80E09D91C917E0
:104F6000C9F0EF3F19F4911101C0E82F8F5F86302F
:104F7000A9F72DC080E28C0F883078F4C77081E0EB
:104F800090E001C0880FCA95EAF790913C02892B06
:104F900080933C020E94D61123C0EBE5EC0FE33076
:104FA00040F4F0E0E05CFE4F808190E00E940B2531
:104FB00017C0C85AC731A0F4EC2FF0E0EE0FFF1F66
:104FC000ED5BFE4F808191810E94F52409C0EF3F87
:104FD00009F30E2E000CFF0BE854FE4FC283DACF0C
:104FE000CF9108951F93CF93DF93182FEB010E9469
:104FF0005227209741F08FE99FE00197F1F700C019
:1050000000002197F6CF812F0E942627DF91CF91B4
:105010001F9108951092B9008CE08093B800089514
:10502000A0E0B0E0E6E1F8E20C94F928B82EEB013C
:105030000E9498246C01C431D10558F0CF3F8FEF06
:10504000D80759F0CE0164E170E00E94DE287B01B0
:1050500007C0EE24E394F12C03C025E0E22EF12CEE
:1050600084E8A82E94EA992E1092BC009092BC007D
:105070000E9498248C018091BC0087FD08C00E948A
:105080009824801B910B8E159F05A8F32AC0809150
:10509000B900887F883041F08091B900887F8031E5
:1050A00019F00FEF1FEF1FC0B092BB00A092BC0021
:1050B0000E9498248C018091BC0087FD08C00E944A
:1050C0009824801B910B8E159F05A8F30AC0809130
:1050D000B900887F883111F0803419F700E010E0C2
:1050E0000EC00EEF1FEFCF3F8FEFD80709F4BCCFF4
:1050F000C6010E9489248C179D0708F4B5CFC8010A
:10510000CDB7DEB7EBE00C9415290F931F93CF9327
:10511000DF93EB018093BB0084E88093BC000E9486
:1051200098248C018091BC0087FD0EC0CF3F8FEF8B
:10513000D807C1F30E949824801B910B8C179D0700
:1051400088F38EEF9FEF0CC02091B900287F81E09B
:1051500090E0283211F480E090E0919581959109DA
:10516000DF91CF911F910F9108950F931F93CF93CC
:10517000DF93EC0184E88093BC000E9498248C01AA
:105180008091BC0087FD0EC0CF3F8FEFD807C1F3E1
:105190000E949824801B910B8C179D0788F38EEF3B
:1051A0009FEF03C08091BB0090E0DF91CF911F91F2
:1051B0000F91089584E98093BC000895AA1BBB1B3E
:1051C00051E107C0AA1FBB1FA617B70710F0A61B07
:1051D000B70B881F991F5A95A9F780959095BC0128
:1051E000CD0108952F923F924F925F926F927F92DE
:1051F0008F929F92AF92BF92CF92DF92EF92FF92E7
:105200000F931F93CF93DF93CDB7DEB7CA1BDB0B92
:105210000FB6F894DEBF0FBECDBF09942A88398837
:1052200048885F846E847D848C849B84AA84B9843E
:10523000C884DF80EE80FD800C811B81AA81B9814A
:10524000CE0FD11D0FB6F894DEBF0FBECDBFED015E
:1052500008958F929F92AF92BF92CF92DF92EF927A
:10526000FF92CF93DF93EC01688179818A819B81E2
:10527000611571058105910521F464E279ED8BE5F5
:1052800097E02DE133EF41E050E00E94DD29490134
:105290005A019B01AC01A7EAB1E40E94FC296B0111
:1052A0007C01ACEEB4EFA50194010E940A2ADC0156
:1052B000CB018C0D9D1DAE1DBF1DB7FF03C0019717
:1052C000A109B04888839983AA83BB839F77DF9124
:1052D000CF91FF90EF90DF90CF90BF90AF909F90D5
:1052E0008F9008950E942929089580E091E00E94FE
:1052F00029290895A0E0B0E0809300019093010176
:10530000A0930201B09303010895DC01CB01FC01DD
:10531000F999FECF06C0F2BDE1BDF89A319600B40E
:105320000D9241505040B8F70895F999FECF92BDC3
:1053300081BDF89A992780B50895A6E1B0E044E0D0
:1053400050E00C948729A8E1B0E042E050E00C94D2
:105350008729DC01A40FB51F4150504048F0CB0114
:10536000840F951F2E910E94BA2941505040D0F7CA
:105370000895262FF999FECF92BD81BDF89A019725
:1053800000B4021639F01FBA20BD0FB6F894FA9A8D
:10539000F99A0FBE08950396272F0E94BA290E94FA
:1053A000B929252F0E94BA29242F0C94BA290196D5
:1053B000272F0E94BA290C94B929052E97FB1EF4B9
:1053C00000940E94F42957FD07D00E940F2A07FC81
:1053D00003D04EF40C94F4295095409530952195C6
:1053E0003F4F4F4F5F4F0895909580957095619511
:1053F0007F4F8F4F9F4F08950E94312AA59F900D98
:10540000B49F900DA49F800D911D11240895B7FFA6
:105410000C94FC290E94FC29821B930B0895A1E2A5
:105420001A2EAA1BBB1BFD010DC0AA1FBB1FEE1F1E
:10543000FF1FA217B307E407F50720F0A21BB30B69
:10544000E40BF50B661F771F881F991F1A9469F7E5
:1054500060957095809590959B01AC01BD01CF0141
:105460000895A29FB001B39FC001A39F700D811D3D
:105470001124911DB29F700D811D1124911D08955D
:1054800087FB082E062687FD819567FD61950E94A2
:10549000772A0EF4919507FC8195089597FB072EC6
:1054A00016F4009407D077FD09D00E94DE2807FC8F
:1054B00005D03EF4909581959F4F08957095619524
:1054C0007F4F0895EE0FFF1F0590F491E02D099492
:1054D0000E94312A332312F48A1B9B0B0C94722AEC
:1054E0000E94312AB7FF0895821B930B0895991BE0
:1054F00079E004C0991F961708F0961B881F7A95CB
:10550000C9F7809508950F931F93CF93DF9382304F
:10551000910510F482E090E0E0913503F0913603BC
:1055200020E030E0A0E0B0E0309719F140815181F7
:105530000281138148175907C8F08417950769F449
:10554000109731F012960C93129713961C9327C064
:10555000009335031093360322C02115310519F04D
:105560004217530718F49A01BD01EF01DF01F8015A
:10557000DBCF21153105F9F0281B390B243031051B
:1055800080F48A819B816115710521F0FB01938371
:10559000828304C09093360380933503FE013296D4
:1055A00044C0FE01E20FF31F819391932250310911
:1055B000398328833AC02091330330913403232B5D
:1055C00041F4209106013091070130933403209378
:1055D000330320910401309105012115310541F477
:1055E0002DB73EB74091080150910901241B350B9E
:1055F000E0913303F0913403E217F307A0F42E1B7C
:105600003F0B2817390778F0AC014E5F5F4F241726
:10561000350748F04E0F5F1F509334034093330318
:105620008193919302C0E0E0F0E0CF01DF91CF9150
:105630001F910F910895CF93DF93009709F481C0D4
:10564000FC01329713821282A0913503B091360388
:10565000109781F420813181820F931F20913303B1
:10566000309134032817390751F5F0933403E09350
:10567000330367C0ED0120E030E0CE17DF0740F4D0
:105680004A815B819E0141155105F1F0EA01F5CF98
:10569000D383C28340815181840F951FC817D907D6
:1056A00059F488819981840F951F02969183808394
:1056B0008A819B81938382832115310529F4F0939C
:1056C0003603E09335033DC0E901FB83EA8349914A
:1056D0005991C40FD51FEC17FD0761F480819181AA
:1056E000840F951F0296E9019983888382819381B3
:1056F0009B838A83E0E0F0E012968D919C91139752
:10570000009719F0FD01DC01F7CF8D919C91119765
:105710009D012E5F3F4F820F931F209133033091E5
:1057200034032817390769F4309729F410923603A7
:105730001092350302C013821282B0933403A093F7
:105740003303DF91CF910895FC014150504030F078
:1057500001900616D1F73197CF0108958827992730
:105760000895FB01DC0104C08D910190801921F4A2
:1057700041505040C8F7881B990B0895F894FFCF0B
:10578000010000000000370320000104220722036B
:10579000222E1629162816FFFF01200001191A1BB8
:1057A0001C1D1E1F2021220102010000920B7F0BF5
:1057B00000000000000000000000000000000000E9
:1057C000818283E200E900EA00B500B600B700CDAF
:1057D000008301CC008A019201940121022302245A
:1057E000022502260227022A02B300B4006F0070CD
:1057F0000040226DCB07A9073C071D083608560854
:1058000057724B59342F6A4B7630780000010202F0
:1058100002020606060909090909090F0F0F0F0FF1
:105820000F151515181919191919191919191923F5
:02583000240052
:00000001FF
