:100000000C94AE030C94CB030C94CB030C94CB0355
:100010000C94CB030C94CB030C94CB030C94CB0328
:100020000C94CB030C94CB030C9412140C94541327
:100030000C94DB1D0C94CB030C94CB030C94CB03DE
:100040000C94CB030C94CB030C94CB030C94CB03F8
:100050000C94CB030C949A1D0C94CB030C94CB03FF
:100060000C94CB030C94CB030C94CB030C94CB03D8
:100070000C94CB030C94CB030C94CB030C94CB03C8
:100080000C94CB030C94CB030C94CB030C94CB03B8
:100090000C94CB030C94CB030C94CB030C94CB03A8
:1000A0000C94CB030C94CB030C94CB033E073E077C
:1000B00070077007DA07800980098009F607D408FD
:1000C000E508E5086C1193113C1393113C13DF1103
:1000D00002123C13F7120713261B2B1B351B291B7F
:1000E0002E1B331B311B631C661C691C6C1C6F1C94
:1000F000721C751C0101E001043130307C01014F9C
:10010000000101E001043130307C01015000290080
:100110002B00E000E100010000001E0014000400BC
:100120001D00AE5D4D001F001A0016001B00E1040B
:10013000E3002000080007000600500002542100E0
:1001400015000900190002544A00220017000A0095
:100150000500000065640100B25D00004A00000077
:10016000E3000100B35D00004D000000E200230049
:100170001C000B0011000000E600240018000D0018
:10018000100001544B0025000C000E0036005000FA
:100190000154260012000F00370051002C002700E8
:1001A00013003300380052004E0035022A002800A8
:1001B00034004F00000001000100010001000100B7
:1001C0000000010001002D020100010001000100FA
:1001D00031023100010001000100010001002E0286
:1001E000010001000100010001002D0001000100DB
:1001F0000100010001002E000100000001000100CB
:1002000001000000010000000100010001000000E9
:1002100001000000010001000100010001000000D8
:10022000010001002F002F02260201000100010041
:10023000300030022702010001000100010001002E
:1002400001000100010001000100010001000100A6
:100250000100010001000100010001000000010097
:100260000100E000E10001000000010001000100C8
:100270000100010001000100010001000100010076
:100280000100010001000100010001000100010066
:100290000100010001000100010001000100010056
:1002A0000100000001000100010000000100000049
:1002B0000100010001000000010000000100010038
:1002C0000100500001000000010001000100510088
:1002D00001000100010001000100520001000100C5
:1002E0000100010001004F000100010001000100B8
:1002F00001000100010001000100010001000100F6
:1003000001000100000005010980A1018503190118
:100310002AB700150126B700950175108100C005A8
:100320000C0901A101850419012AA002150126A0CA
:1003300002950175108100C005010906A10185061D
:10034000050719E029E715002501950875018102C7
:100350000507190029EF1500250195F075018102A7
:100360000508190129059505750191029501750387
:100370009101C00660FF0961A1010962150026FF15
:10038000009520750881020963150026FF0095205D
:1003900075089102C005010906A101050719E029A8
:1003A000E715002501950875018102950175088101
:1003B000010507190029FF150026FF00950675089D
:1003C000810005081901290595057501910295011E
:1003D00075039101C009025B00030100A0FA090442
:1003E0000000010301010009211101000122400068
:1003F0000705810308000109040100020300000051
:1004000009211101000122220007058203200001B9
:100410000705030320000109040200010300000096
:10042000092111010001226D00070584032000014C
:100430001201000200000008973275490100010214
:10044000000122034500720067006F0044006F0046
:100450007800200045005A00200053006800690021
:100460006E006500000028035A0053004100200080
:1004700054006500630068006E006F006C006F0040
:100480006700790020004C006100620073000000EA
:100490000403090400047F3F1F643214643214789B
:1004A0003C1E1E140A0500000000000000000000B1
:1004B000000000000000000000000000000000003C
:1004C000000000000000000000007E0F00D4FFFFCD
:1004D000FFC70000007800000000000000002A2B89
:1004E00028000000000000000000000000000000E4
:1004F0000029000000002C1E34202122243426274D
:10050000252E362D3738271E1F202122232425266D
:100510003333362E37381F0405060708090A0B0C3B
:100520000D0E0F101112131415161718191A1B1C83
:100530001D2F3130232D350405060708090A0B0C41
:100540000D0E0F101112131415161718191A1B1C63
:100550001D2F3130354C2223252628292A2C2D2FDA
:100560003032333536383A3B3D3E404243454749C9
:100570004A4C4E5051535557595A5C5E60626466FE
:1005800068696B6D6F71737577797B7D7F8183850A
:1005900087898A8C8E90929496989A9C9E9FA1A30C
:1005A000A5A7A8AAACAEAFB1B3B4B6B8B9BBBCBE30
:1005B000BFC1C2C3C5C6C7C9CACBCCCDCED0D1D2AC
:1005C000D2D3D4D5D6D7D7D8D9D9DADADBDBDBDCAE
:1005D000DCDCDCDCDDDDDDDDDCDCDCDCDCDBDBDB5A
:1005E000DADAD9D9D8D7D7D6D5D4D3D2D2D1D0CEBA
:1005F000CDCCCBCAC9C7C6C5C3C2C1BFBEBCBBB9BF
:10060000B8B6B4B3B1AFAEACAAA8A7A5A3A19F9E3C
:100610009C9A98969492908E8C8A89878583817F04
:100620007D7B79777573716F6D6B696866646260E5
:100630005E5C5A5957555351504E4C4A49474543B1
:1006400042403E3D3B3A3836353332302F2D2C2A4E
:1006500029282625232200010101010101010101B0
:100660000202020202020202020303030303030363
:100670000304040404040404050505050506060630
:100680000606070707070708080808090909090AED
:100690000A0A0B0B0B0C0C0C0D0D0D0E0E0E0F0F92
:1006A0000F10101111111212131314141515161620
:1006B0001717181819191A1A1B1B1C1D1D1E1E1F8F
:1006C0002020212222232424252626272829292ADE
:1006D0002B2C2D2D2E2F3031323233343536373806
:1006E000393A3B3C3D3E3F40414243444546474802
:1006F000494A4C4D4E4F50515354555658595A5BD8
:100700005D5E5F616264656668696B6C6D6F707277
:10071000737577787A7B7D7E8082838587888A8CE3
:100720008E8F91939596989A9C9EA0A2A3A5A7A917
:10073000ABADAFB1B3B5B7BABCBEC0C2C4C6C9CB0E
:10074000CDCFD1D4D6D8DBDDDFE2E4E7E9EBEEF0C4
:10075000F3F5F8FAFDFFFFAA7F55400011241FBEF4
:10076000CFEFDAE0DEBFCDBF11E0A0E0B1E0ECE515
:10077000F2E502C005900D92A839B107D9F723E040
:10078000A8E9B1E001C01D92A433B207E1F70E94CD
:1007900072150C942C290C940000A5E2B0E0E3ED56
:1007A000F3E00C946626FC018081918123813481E1
:1007B000232B31F09F3F31F491E08F3F19F403C0B8
:1007C00091E001C090E090FDC8C57F0185E0DE01A9
:1007D000919601900D928A95E1F7D70112962C918E
:1007E00089A19AA1222349F00E940523182F682F7E
:1007F00089A19AA10E94832303C00E944E23182F2F
:1008000069A17AA1812F0E94F6098C018091500282
:10081000882309F44FC0F701828181113EC1E09124
:100820009A01E330A0F481E08E0F80939A01F0E00A
:10083000EE0FFF1FE257FD4FD7018D919C919183E1
:10084000808382E08983CE0101960E944615BFEF26
:10085000E3EDF0E3B150E040F040E1F700C000000C
:1008600080919A01833009F018C110929A01E4E94D
:10087000F2E0AEE8B2E08AE992E0318111962C9183
:100880001197321330C030812C9132132CC0329624
:1008900012968E179F0789F784E0898381E0809301
:1008A00051028EEF8A8310925002CE0101960E946F
:1008B0004615F3C0809151028823D1F0D7011296DA
:1008C0008C91882311F086E001C087E08983F701CD
:1008D00080818A8381818B838EEF8C83CE01019608
:1008E0000E94461505C083E0898310925102D9CF3A
:1008F0000F3AFDE51F0709F043C0D70112968C910E
:10090000882309F466C09091550281E0890F8770B1
:10091000987F853020F4892B8093550202C09093F4
:100920005502809155028770BFEF8B9FC001112443
:1009300095958795959587959927909389008093AC
:10094000880090938B0080938A0090938D00809311
:100950008C0040915502509156026091570270915F
:1009600058028FE090E00E943927609168027091F0
:10097000690280916A0290916B020E940C1B29C04F
:10098000023BEDE51E0749F0033BFDE51F0769F05B
:10099000013B2DE5120791F018C0D70112968C91FA
:1009A0008823B9F081E091E006C0F70182818823B5
:1009B00081F084EF90E00E942C1A0BC0D7011296B0
:1009C0008C91882309F469C031C00E3A2DE51207D5
:1009D000C1F18091E802882309F490C1D0902202ED
:1009E000C09014020E94CF1D88579C4E90938C0299
:1009F00080938B02D70112968C91811161C08091F6
:100A0000220282720D3CECE51E0709F45AC108F47B
:100A1000BCC0023DFCE51F0709F460C168F50F3C4E
:100A20003CE5130709F454C108F0F4C061E081E02B
:100A300005C081608093E20261E086950E94A82251
:100A40002CC0F7018281882341F18091E80288233C
:100A500019F00E94651E21C0109222020E94150CFE
:100A60000E94CF1D88579C4E90938C0280938B02DE
:100A700081E08093E80211C0053DBCE51B0709F445
:100A800033C108F4D4C0063D3CE5130709F431C175
:100A90000F358DE5180709F0A5C18091F301877026
:100AA00009F45BC4D70112968C91882309F455C4CC
:100AB0008091F50282FF51C482E00E94770C4DC400
:100AC0008C2D8D298D7909F05DC00115B5E51B07C9
:100AD000B0F40115E3E51E0708F010C10115F0E5BB
:100AE0001F0740F4011520E4120708F5063E110522
:100AF00039F504C1011532E5130710F5FFC00115E2
:100B000089E5180750F4011598E5190708F0F6C0B3
:100B10000431A5E51A07A1F4F1C0C801905681156A
:100B2000904270F4F7018581807F39F42BC0D701A2
:100B300015968C91807F09F4E1C0C801992701C006
:100B4000C8011092E7028832910538F48E31910580
:100B500008F0D2C00497B0F011C08D32910571F049
:100B600020F48A9709F4C8C00DC08C34910509F4AB
:100B7000C3C08D32924009F4BFC004C082E08093AC
:100B8000E702BAC00E94651EB9C0073C2CE51207F7
:100B900009F483C0D8F4043C9CE5190709F473C038
:100BA00030F4033CBCE51B0709F44EC01BC1053CF7
:100BB000ECE51E0709F46CC0063CFCE51F0709F0D4
:100BC00011C144E952E26EE972E27FC00A3C2CE5B1
:100BD000120709F46CC078F4083C9CE5190709F485
:100BE00061C0093CACE51A0709F0FCC047E852E2D5
:100BF0006AE772E26AC00B3CBCE51B0709F45CC003
:100C00000C3CECE51E0709F0EDC04EE051E260E25D
:100C100071E25BC0003D9CE5190709F45CC0013D31
:100C2000ACE51A0709F0DEC06EE089E05FC0033D65
:100C3000FCE51F0709F455C0043D2CE5120709F037
:100C4000D1C061E088E1FACE8091E20280FFF1CE6E
:100C50008E7F8093E2026091E2027091E3028091C4
:100C6000E4029091E5020E94FB201092A2029FEF05
:100C7000A0E7B2E09150A040B040E1F700C0000012
:100C80000E94C31E0ACF43EE52E26DEE72E21DC017
:100C90004DEE52E263EE72E218C04EE952E264E9B0
:100CA00072E213C04AE752E267E872E20EC040E621
:100CB00052E26DE672E209C04DE652E260E672E28F
:100CC00004C040E251E26EE071E20E94A61EE5CE51
:100CD00065E082E00BC068E086E008C064E18FE078
:100CE00005C067E185E102C062E289E10E94921ECF
:100CF000D4CE61E083E2A2CE0E94220CD7011296EC
:100D00008C91882309F47BCE0C35EDE51E0709F4A0
:100D100064C060F401152CE51207A9F00F3D3CE515
:100D2000130709F05FC00E94980B4CC00E358DE58B
:100D3000180709F44AC008F452C0093AADE51A0789
:100D400009F440C04FC0109222020E946F24BFEFEE
:100D5000E4E3FCE0B150E040F040E1F700C0000007
:100D6000F89481E08093E00080E28093D8001092B4
:100D7000C9008FE19EE40197F1F700C000001DBAA1
:100D8000109268001CBC10BE1FBA10927A0010921C
:100D90006E0010926F00109271001092720010920B
:100DA000C9001092BC0014B817B81AB81DB810BA10
:100DB0001092BC0015B818B81BB81EB811BA0C9424
:100DC000003F6BCE0E94F41A68CE8091F50282FB40
:100DD000882780F991E0892703C081E001C080E085
:100DE0000E94940CF701828100811181882349F0CF
:100DF000C8010E940523D82E682FC8010E948323B2
:100E000004C0C8010E944E23D82EB8018D2D0E9427
:100E1000F6090E940F0A8C01982EF701D280A58056
:100E2000A2949FE0A9228091F3018770B9F0DD20A0
:100E3000A9F0812F807F803421F080E2800F8830FC
:100E400068F08091F50282FF09C082E00E94770C71
:100E50008091F3018770CC24C3948111C12CB12EF1
:100E6000B2948FE0B8228B2D90E08C30910508F081
:100E700047C2FC01EA5AFF4F0C94D027812F807F94
:100E80001F70882311F01295107FDD20B9F0112317
:100E900009F423C280E2800F883010F0911006C060
:100EA00080912202182B1093220205C08091E70244
:100EB000182B1093E7020E94220C0FC2802F0E9471
:100EC0009424112309F41CC2005E083078F19920A3
:100ED00069F110958091E70218231093E70229C069
:100EE000812F807F1F70803211F01295107F992022
:100EF00021F0F1E09F16D9F147C08091F50282FD03
:100F00001BC0DD2069F0112339F080912202182BDB
:100F1000109322020E94220C80E00E94C024F0C1A3
:100F200080E00E949424112309F4EAC1812F0E94D9
:100F30001B0C0E94220CE4C1DD2081F08091140280
:100F4000AA2051F001E0A01207C0182B181709F4CD
:100F5000D7C110931402D4C1812B10C0AA2021F054
:100F600021E0A21609F4CCC10E94150C1FC0DD209F
:100F700041F031E03A1508F4C3C1812F0E948A2460
:100F8000BFC1A110BDC112C0DD2019F0AA20A9F374
:100F9000A4C1AA2059F0093309F0AFC18FEF97EE31
:100FA000A3E081509040A040E1F7A5C1812F0E94AD
:100FB0008324A6C1812F86958695837019F0813090
:100FC00059F09EC1DD2019F0C801937002C080E085
:100FD00090E00E94421E9AC1DD2019F0C801937072
:100FE00002C080E090E00E942C1E90C1812F83708F
:100FF00009F069C0D11088C1902F9295969597708D
:10100000990F990F802F8F70882E912CA12CB12CC5
:10101000092E04C0880C991CAA1CBB1C0A94D2F788
:1010200004FF12C04FE050E060E070E004C0440FE5
:10103000551F661F771F9A95D2F7DB01CA0180956D
:101040009095A095B09503C080E090E0DC011695E6
:101050001695412F4370423019F1C8F400911502E2
:10106000109116022091170230911802413059F068
:1010700088299929AA29BB29BC01CD0160237123A4
:10108000822393230AC0802A912AA22AB32ABC0170
:10109000CD01682979298A299B290E94442434C1D9
:1010A00088299929AA29BB290091150210911602B5
:1010B0002091170230911802BC01CD0160277127E1
:1010C00082279327EACFDD2019F0812F817001C09C
:1010D0008695882309F418C1902F9295969597705C
:1010E000990F990F802F8F70882E912CA12CB12CE5
:1010F000092E04C0880C991CAA1CBB1C0A94D2F7A8
:1011000004FF12C04FE050E060E070E004C0440F04
:10111000551F661F771F9A95D2F7DB01CA0180958C
:101120009095A095B09503C080E090E0DC01169505
:101130001695412F43704230D9F068F5009168024E
:101140001091690220916A0230916B02413059F08E
:1011500088299929AA29BB29BC01CD0160237123C3
:10116000822393231EC0802A912AA22AB32A13C065
:1011700088299929AA29BB2900916802109169023E
:1011800020916A0230916B02BC01CD01602771276A
:101190008227932706C0BC01CD01682979298A29B5
:1011A0009B290E94B923B0C01F70DD2039F0812F28
:1011B0000E942224802F0E948A24A6C0802F0E9491
:1011C0008324812F0E94FC239FC0802FB2EF9B16A7
:1011D00009F441C0B91538F0E0EF9E1659F0F1EF6F
:1011E0009F16A1F175C023EF9216E1F134EF93162B
:1011F00049F16EC0DD2009F1A11082C01F7181E0AC
:1012000090E0A0E0B0E0AC01BD0104C0440F551F68
:10121000661F771F1A95D2F7809168029091690234
:10122000A0916A02B0916B028A019B0108271927DD
:101230002A273B27C901B80129C021E02A1508F453
:101240005FC0DCCF8091F50282FD23C0DD2029F054
:10125000812F8F7130C0DD20D9F3812F8F710E94D3
:10126000FC234EC0DD2079F01F7181E090E0A0E00A
:10127000B0E0BC01CD0104C0660F771F881F991F25
:101280001A95D2F703C060E070E0CB010E94B92349
:1012900037C0DD2099F01F71812F0E942224809198
:1012A000F50282FF07C038E0139FC001112483605C
:1012B0008093F301812F0E94222422C081E00E94AA
:1012C000770C81E08A15E0F482E00E94770C18C068
:1012D000DD2029F0AA2009F4BBCF802F1ECEAA2042
:1012E00009F4BBCF893349F49FEFA7EEB3E09150E7
:1012F000A040B040E1F700C00000802F0E9494247D
:1013000088EF8B0D843010F40E94581ECC20A9F079
:101310008091F30180FD11C0F701128285958595BA
:1013200085950E942224C7010E94CD038091F3017C
:101330008595859585950E94FC2385E0F701DE0162
:10134000119601900D928A95E1F709811A81C801E1
:101350000E944E23B8010E94F609A596ECE00C9479
:10136000822680E008959091F40292FF0DC0282F0C
:101370002871283019F4877F846006C0282F2471D3
:10138000243011F48B7F886093FF0DC0282F2871C3
:10139000283119F4877E846106C0282F24712431F6
:1013A00011F48B7E88612091F50220FF0DC0382F4B
:1013B0003871383019F4877F816006C0382F317159
:1013C000313011F48E7F886021FF0DC0282F2871E5
:1013D000283119F4877E816106C0282F21712131BF
:1013E00011F48E7E886194FD877E08957E30A0F48E
:1013F000663090F494E5899FF001112486E0789F8F
:10140000E00DF11D1124E60FF11DEE0FFF1FE25F4D
:10141000FE4F85919491089580E090E00895CF93D8
:10142000DF938238910569F1B0F48133910509F4B5
:101430006FC048F48932910509F465C08A3291057C
:1014400009F46BC08AC08533910509F457C089330C
:101450009105B9F082C0833E910571F138F4803E68
:101460009105B1F0823E910511F177C0863E91055C
:10147000B9F1873E9105C9F1843E910509F06DC02F
:1014800024C02091F40220FD53C021FD51C065C04D
:101490008091F40280FD46C08091F50280FF48C033
:1014A0008091F40284FD3FC183EE90E03EC18091C3
:1014B000F40282FF3AC0F4CF8091F40282FD35C07D
:1014C0008091F50280FD34C0EBCF8091F50281FF61
:1014D00035C08091F40284FD26C187EE90E025C1DD
:1014E0008091F40283FF27C0F4CF8091F40283FD42
:1014F00022C08091F50281FD21C0EBCF8091F402E2
:1015000085FD1FC021C08091F40285FD1DC019C05A
:101510008091F40286FD1BC01DC08091F40286FDFF
:1015200019C015C089E390E000C182EE90E0FDC0D3
:1015300080EE90E0FAC086EE90E0F7C084EE90E096
:10154000F4C089E290E0F1C085E390E0EEC08AE269
:1015500090E0EBC081E390E0E8C0811532E59307AD
:1015600008F069C0811541E5940728F0982F882775
:10157000816F906ADAC0883E910568F5803E9105DA
:1015800008F0D3C0883A9105B8F4853A910548F03F
:10159000855AE82FF0E0E95DFE4F808190E090648D
:1015A000C4C08130910509F4BBC008F4BCC08430CC
:1015B000910508F4B8C0B9C08F3B910508F0B3C0DD
:1015C000885AE82FF0E0EE0FFF1FE65DFE4F8081A6
:1015D00091819464AAC0811520E59207F0F09C01E6
:1015E00074E0369527957A95E1F7922F9370482FFE
:1015F000437021E030E002C0220F331F4A95E2F72A
:101600003C68392B8F70982F9695969540E2949F61
:10161000C0011124822B932B88C0811530E49307DD
:1016200018F09F70906A81C09C013A9521153F4146
:1016300008F47BC078C0EC01C11586E5D807E8F551
:10164000C11525E5D20748F08C2F0E94B3098F7190
:1016500090E0982F8827906268C0C11534E5D307C1
:1016600028F09C2F8827846F906A5FC0AE0143707A
:1016700055272C2F26952695C115D34578F481E062
:1016800090E002C0880F991F4A95E2F740E2249F3C
:1016900090011124822B932B9C6847C081E090E03D
:1016A00002C0880F991F4A95E2F740E2249F9001FB
:1016B0001124822B932B9A6838C0C1152AE5D207D2
:1016C000F8F4C11539E5D30790F08C2F8F700E9484
:1016D000B30994E0D695C7959A95E1F7CF70D0E01D
:1016E000DC2FCC27D0699E01282BC9011EC0C11553
:1016F00048E5D407C0F09C2F8827806F906A15C0FA
:10170000CE0190568115904270F48D2F8F710E94FA
:10171000B309282F2F71CE0199279062922B05C013
:1017200081E090E002C080E090E0DF91CF910895E9
:1017300068EE7EEF80E090E00E94452760E082E066
:1017400090E00E94272760E083E090E00E94272736
:10175000109215021092160210921702109218029F
:1017600060E084E090E00E94272764E082E290E05D
:101770000E94272760E085E090E00E94272760E034
:1017800086E090E00E9427276FEF87E090E00E94BC
:10179000272740E050E0BA0188E090E00E94392716
:1017A00060E08DE090E00E94272740E050E0BA0121
:1017B00088E190E00E94392760E087E190E00E9494
:1017C000272740E050E0BA018CE190E00E943927E1
:1017D00060E070E080E290E00E94452740E050E049
:1017E000BA0188E190E00E943927109255021092C8
:1017F0005602109257021092580284E08061809342
:1018000055024091550250915602609157027091D5
:1018100058028FE090E00E94392740E050E0BA0182
:1018200083E190E00E94392708958091140281118C
:10183000109214020895809590912202892380933A
:1018400022020895909122028091E702982B9093B2
:101850009B01809114028823D9F0892B80939B01EE
:1018600080910A01882331F08091F40287FF02C041
:101870008EE101C086E0EDE9F1E090E0815028F0D2
:1018800021912223D9F39F5FF9CF91110E94150C6A
:1018900040E250E064EF71E08BE991E00E941F2983
:1018A000892B21F180E2EBE9F1E0A4EFB1E00190B6
:1018B0000D928A95E1F7E091EB02F091EC023097FE
:1018C000A9F080910A01882359F08091F40287FFE2
:1018D00007C080919B0180939C0186E080939B01CF
:1018E0000280F381E02D8BE991E009950895209124
:1018F000F301809582238093F301982F977099F4D8
:1019000030E0482F082E000C550B2417350759F0EE
:101910009091F50292FF07C08595859585950E9467
:10192000FC231092F3010895CF93C091F502C2FBFE
:10193000992790F9981791F080FBC2F9C093F502AE
:101940006091F40284E090E00E9427276C2F82E2ED
:1019500090E00E94272782E00E94770CCF910895A3
:101960008091F2019091C101891719F08F5F877002
:10197000FBCF08950F931F93CF93DF938091C00106
:1019800082958F7009F05AC08091BD01882309F4B7
:1019900055C08091F2011091C1016091BB0170911D
:1019A000BC01C091BE01D091BF0191E06F3F09F031
:1019B00090E0292F06E0811709F440C0209721F01C
:1019C0007F3F21F030E003C031E001C0322F90E0D2
:1019D00030FD31C0089FF001099FF00D1124DF0197
:1019E000AE53BE4F11963C911197371324C03C91D2
:1019F000361321C012963C91129731111CC01396D8
:101A00004D915C9114974C1B5D0B483C510598F42B
:101A10008091C0018F7080618093C001E953FE4FB7
:101A200080818F70806180838BEB91E00E94CD0379
:101A30000E94B00C03C001968770BDCFDF91CF919B
:101A40001F910F910895A1E1B0E0E9E2FDE00C944F
:101A500067268C0185E0F801DE011D9601900D924C
:101A60008A95E1F7F801E2809091BB016091BC0199
:101A70004091BE015091BF014115510531F06F3FBA
:101A800031F481E09F3F19F403C081E001C080E0A0
:101A9000F82FF1709F2E80FD1BC1F801308121814C
:101AA000C380D4808BEBA82E81E0B82EF090BD01CE
:101AB000F601E41BF50BFF2009F4C7C08091C001BB
:101AC000E83CF10508F092C0482F407F09F051C072
:101AD000621311C093130FC0FE2CE1100CC08F7065
:101AE00080618093C001C5010E94CD038091C00137
:101AF000F80185832AC1C114D10431F02F3F31F49C
:101B000081E03F3F19F403C081E001C080E080FD27
:101B100003C081E08E2502C080E090E0F82FF170D4
:101B2000FF2E80FF1CC08091F2014091C10156E060
:101B3000841709F4E8C090E0589FF001599FF00D18
:101B40001124EE53FE4F6181261306C0608163139A
:101B500003C06281E61203C001968770E9CFFE2CB4
:101B6000EE2009F4F2C08091C00181608093C00131
:101B700049C0621306C0931304C0E11002C0F8010B
:101B800086C0C8010E944F24882351F1EE2041F104
:101B90002091C001822F82958F7090E0029774F09F
:101BA0008091BB019091BC0198878F831986DB8659
:101BB000CA862C87CE0107960E94CD0386E0F801E5
:101BC000ABEBB1E001900D928A95E1F70E94BA0C5F
:101BD0000AC06217C9F0C8010E944F2481111EC0BB
:101BE000C8010E94CD03FF24F394AFC0482F407F6B
:101BF00081F78BEB91E00E94CD0386E0F501119215
:101C00008A95E9F7F12CA1C09313E5CFE110E3CF5A
:101C1000F8018583C8010E94CD0354C0EE2001F372
:101C20002091C001822F82958F7090E0029734F24C
:101C30008091BB019091BC019A8389831B82DD82D4
:101C4000CC822E83CE010196B7CFE83CF105D0F5CA
:101C5000FE2CEE2029F2621327C0931325C0209199
:101C6000C00120FD18C0822F82958F70482F50E050
:101C70004115510581F0F80125834F30510541F0A0
:101C80008F5F982F9295907F822F8F70892B8583FD
:101C9000C8010E94CD0386E0F801ABEBB1E00190F2
:101CA0000D928A95E1F751C0C8010E944F2481111D
:101CB00085CF8091C00181608093C001C8010E94DE
:101CC000CD0343C086E0F50111928A95E9F73DC046
:101CD000EE2009F485CFC8010E944F24F82E8823F6
:101CE00009F47ECF86E0F801ABEBB1E001900D92F4
:101CF0008A95E1F78091BB019091BC010E9441233C
:101D00000E94BA0C22C03D872E878D859E850E9439
:101D10004123292F22952F70223028F49F7039F00B
:101D2000811105C00BC0243028F49F7049F4805EF7
:101D3000883020F0C8010E94CD039F2CF92C05C0EB
:101D4000F8019581907F99F7F9CF8F2D6196EBE09F
:101D50000C948326A0E0B0E0E0EBFEE00C94692652
:101D60008091170190911801892B91F080911902AF
:101D70008F5F8093190281110BC00E943E1B90E07F
:101D80009093180180931701892B11F40E94B51BC1
:101D900009E512E07801B12CC0E087E0C82ECC0E36
:101DA0008C2F0E94251C8C2D0E94251C8C2F0E949C
:101DB000881C8F73F7019081891721F08083DD24BF
:101DC000D39401C0D12C8C2D0E94881C8F73F701F5
:101DD0009781891719F0878381E001C080E0D82AB4
:101DE000BD280E94791CCF5FFFEFEF1AFF0AC730B2
:101DF000A1F6C0911D02CC23C9F10E94CF1D2091F4
:101E00001B0230911C02AC01421B530B9A019093B0
:101E10001C0280931B024F3F510509F020F4452B13
:101E200009F4AEC002C02FEF30E010921D021092F4
:101E30001A02E0915302F0915402AF01425F5F4FEA
:101E400090E030E08081882341F0281718F010825C
:101E50009C2F03C0821B80833C2F3196E417F5072B
:101E600089F730931D0290931A028AC0BB2009F4AF
:101E70007EC00E94CF1D90931C0280931B02E091B4
:101E80005302F091540280911D02AEE6B2E09F0130
:101E9000225F3F4F4EE1E80199918E015C91591705
:101EA00031F05081511103C040839C9381E0319601
:101EB0001196E217F30779F780931D0220915002E3
:101EC00080911F0290912002222309F43FC0892BA8
:101ED00031F425982D9826982E9827982F98809140
:101EE0001F02909120029170892B79F480911E023B
:101EF000882319F026982E9802C0269A2E9A90913F
:101F00001E0281E0892780931E0280911F0290911A
:101F100020028130984780F0109250026091680250
:101F20007091690280916A0290916B020E940C1B71
:101F30001092200210921F0280911F0290912002A5
:101F400001969093200280931F021EC0892BE1F01E
:101F50001092200210921F02609168027091690233
:101F600080916A0290916B020E940C1B0DC080E070
:101F700090911A02992309F4A1CF811180CF79CFD2
:101F8000B1107DCF81E0F4CF8B2DCDB7DEB7E9E086
:101F90000C9485268091480287FF11C08091E8004B
:101FA00082FD05C0809152028111F8CF11C080914D
:101FB000E8008B770BC080915202882349F0809112
:101FC000E80080FFF8CF8091E8008E778093E800EA
:101FD0000895982F973068F59093E900981739F095
:101FE0007091EC002091ED005091F00003C0242F7F
:101FF000762F50E021FD02C09F5FECCF3091EB00C7
:102000003E7F3093EB003091ED003D7F3093ED004B
:102010003091EB0031603093EB007093EC00209333
:10202000ED005093F0002091EE0027FDE5CF80E019
:1020300008958F708093E90081E0089520914E0209
:1020400030914F022617370748F06115710539F4B2
:102050002091E8002E772093E80001C0B901FC012F
:1020600020E06115710579F1809152028823F1F128
:102070008530F1F18091E80083FD3CC08091E8005B
:1020800082FD2EC08091E80080FFEBCF2091F3000D
:102090008091F20090E0922B6115710551F088302B
:1020A000910538F421912093F10061507109019656
:1020B000F3CF21E0089709F020E08091E8008E77C7
:1020C0008093E800CECF2111CFCF0AC08091520279
:1020D000882361F0853061F08091E80083FD0AC0BB
:1020E0008091E80082FFF2CF80E0089582E00895B9
:1020F00083E0089581E008950895BC0184E00E9482
:10210000701D0895BC0183E00E94701D0895AAE22D
:10211000B0E0EDE8F0E10C946F26E8E4F2E080E551
:1021200092E02091F10021938E179F07D1F78091C3
:102130004902833009F463C030F4813071F0823099
:1021400009F49FC0B6C08A3009F48BC08B3009F403
:102150006EC0893009F0ADC020C080914802813A3C
:1021600009F0A7C08091E800877F8093E800809104
:102170004C0290914D02892B21F460E285E292E0BD
:1021800003C060E080E090E070E00E941E1080914B
:10219000E8008B778093E8008CC080914802813200
:1021A00009F087C080914C0290914D02009719F080
:1021B000029709F07EC08091E800877F8093E80055
:1021C0008091E80082FD05C0809152028111F8CF14
:1021D00070C02091F3008091F20090E0922B029762
:1021E00031F48091F100813011F0863021F480913A
:1021F000F100809324028091E8008B7756C0809193
:102200004802813A09F055C080914C0290914D02EC
:10221000892B09F04EC08091E800877F8093E80009
:102220008091E80080FFFCCF80910A0139C0809145
:1022300048028132F1F580914C0290914D02892B38
:10224000C1F58091E800877F8093E8000E94CA0F63
:1022500080914A0280930A01109222020E946F2408
:1022600028C080914802813221F58091E800877F63
:102270008093E8000E94CA0F80914B028093230252
:1022800018C080914802813AA1F48091E800877FCC
:102290008093E8008091E80080FFFCCF80912302CA
:1022A0008093F1008091E8008E778093E8000E948F
:1022B000CA0F8091E80083FFDFC1809148029091AE
:1022C0004902492F50E04A30510508F0D5C1FA01C2
:1022D000EE59FF4F0C94D027803821F0823809F056
:1022E000CBC108C08091450290914602992389F0A4
:1022F00082600FC080914C028F70873008F0BCC1A3
:102300008093E9008091EB0085FB882780F910928B
:10231000E9009091E800977F9093E8008093F100A6
:102320001092F10070C1282F2D7F09F0A5C18823DC
:1023300019F0823061F0A0C180914A02813009F029
:102340009BC1933009F080E0809346022EC08091BB
:102350004A0281112AC080914C028F702FEF280F02
:10236000263008F089C18093E9002091EB0020FF1E
:102370001CC0933021F48091EB00806214C09091D6
:10238000EB0090619093EB0021E030E0A90102C0E6
:10239000440F551F8A95E2F74093EA001092EA0035
:1023A0008091EB0088608093EB001092E9008091AF
:1023B000E800877F8093E8000E94CA0F5DC1811109
:1023C0005BC110914A021F778091E3008078812BD6
:1023D0008093E3008091E800877F8093E8000E946B
:1023E000CA0F8091E80080FFFCCF8091E3008068F5
:1023F0008093E300111102C082E001C083E080936A
:1024000052023AC18058823008F036C120914A0207
:1024100030914B022C3D53E0350779F583E08A83F8
:102420008AE289834FB7F894DE01139620E03EE0FC
:1024300051E2E32FF0E050935700E49120FF03C0F6
:10244000E295EF703F5FEF708E2F90E0EA3010F072
:10245000C79601C0C0968D939D932F5F243149F795
:102460004FBF8091E800877F8093E8006AE270E0C8
:10247000CE0101960E941E10B4C080914C02909132
:102480004D02432F552743305105A9F068F44130E0
:10249000510509F400C14230510509F0EDC08BE54A
:1024A00090E0E5EDF3E04BC04132510529F14232B5
:1024B000510589F1E1C0C901992781309105A1F049
:1024C00058F0029709F0D8C0E2E4F4E0E4918E2FCE
:1024D00090E0E2E4F4E030C0E0E9F4E0E4918E2F33
:1024E00090E0E0E9F4E028C0E6E6F4E0E4918E2F25
:1024F00090E0E6E6F4E020C08330910508F0BCC02F
:10250000880F991FFC01EF59FE4F0190F081E02DDB
:1025100089E090E014C08330910508F0ADC0FC0163
:10252000EE0FFF1FE55AFE4F0190F081E02DDC0118
:10253000A85ABE4F8C9190E0009709F49DC020915D
:10254000E800277F2093E80020914E0230914F024F
:102550002817390708F4C90140E0009789F1209154
:102560005202222309F43DC02530D9F12091E80020
:1025700023FD37C02091E80022FD2FC02091E80004
:1025800020FFEBCF4091F3002091F20030E0342B9C
:10259000009759F02830310540F444914093F10000
:1025A000319601972F5F3F4FF3CF41E0283031053F
:1025B00009F040E02091E8002E772093E800CDCF8D
:1025C0004111CDCF0AC080915202882351F085304D
:1025D00041F08091E80083FD04C08091E80082FF13
:1025E000F2CF8091E8008B778093E80045C0803877
:1025F00009F042C08091E800877F8093E8008091D5
:1026000047028093F1008091E8008E77D3CE81114C
:1026100033C080914A0290914B029927029764F54A
:102620008091E800877F8093E80010914A02109320
:1026300047020E94CA0F111106C08091E30087FD76
:1026400002C081E001C084E08093520242E061EC6C
:1026500081E00E94E90F42E261EC84E00E94E90F10
:1026600042E261EC82E00E94E90F42E260EC83E02A
:102670000E94E90F809152028091E80083FF10C010
:102680008091E800877F8093E8008091EB00806272
:102690008093EB0005C082E190E0E0E3F4E04FCFEF
:1026A000AA96E3E00C948B261F920F920FB60F921E
:1026B00011242F933F934F935F936F937F938F9347
:1026C0009F93AF93BF93CF93DF93EF93FF93C0910B
:1026D000E900CF708091EC00D82FD17080FDD0E858
:1026E0001092E9008091F000877F8093F000789449
:1026F0000E9487101092E9008091F000886080931A
:10270000F000CD2BCF70C093E900FF91EF91DF91E6
:10271000CF91BF91AF919F918F917F916F915F9179
:102720004F913F912F910F900FBE0F901F901895D2
:10273000E8EDF0E080818E7F80831092E2001092BD
:10274000DA001092E100A0EEB0E08C9181608C93F1
:1027500080818F77808319BCA7EDB0E08C918E7F4C
:102760008C9380818F7E8083109221020895A0E057
:10277000B0E0EDEBF3E10C946A26C8EDD0E088817F
:102780008F7E8883E7EDF0E080818160808384E044
:1027900082BF81E08093210288818E7F888302EE50
:1027A00010E0F80110821092DA0081EEC82ED12CD0
:1027B000F601108288818F7788838881806888837A
:1027C00088818F7D888319BC109252021092470233
:1027D000109246021092450290EEE92EF12CF7017C
:1027E00080818B7F808388818160888342E060E084
:1027F00080E00E94E90FF60180818E7F8083F801DE
:10280000808181608083808188608083F7018081FE
:102810008E7F8083888180618883CDB7DEB7E8E0D2
:102820000C9486261F920F920FB60F9211242F93AD
:102830003F934F935F936F937F938F939F93AF9348
:10284000BF93EF93FF938091E10082FF09C08091D5
:10285000E20082FF05C08091E1008B7F8093E10060
:102860008091DA0080FF2AC08091D80080FF26C0C6
:102870008091DA008E7F8093DA008091D90080FF0A
:1028800018C080E189BD82E189BD09B400FEFDCF99
:1028900081E0809352028091210281110FC00E9439
:1028A00098130E94B7138091E20084608093E20045
:1028B00005C019BC10925202109221028091E100D1
:1028C00080FF17C08091E20080FF13C08091E2007A
:1028D0008E7F8093E2008091E20080618093E2002D
:1028E0008091D80080628093D80019BC85E08093E5
:1028F00052028091E10084FF30C08091E20084FFA9
:102900002CC080E189BD82E189BD09B400FEFDCF04
:102910008091D8008F7D8093D8008091E1008F7ED8
:102920008093E1008091E2008F7E8093E2008091AD
:10293000E20081608093E20080914702882311F0D9
:1029400084E007C08091E30087FD02C081E001C000
:1029500083E080935202809152028091E10083FFD4
:1029600027C08091E20083FF23C08091E100877F30
:102970008093E10082E0809352021092470280919E
:10298000E1008E7F8093E1008091E2008E7F809352
:10299000E2008091E20080618093E20042E060E02A
:1029A00080E00E94E90F8091F00088608093F00041
:1029B000FF91EF91BF91AF919F918F917F916F9117
:1029C0005F914F913F912F910F900FBE0F901F90ED
:1029D00018952091E4003091E50095E64091EC00D7
:1029E000842F817040FF23C08091E80080FD1DC0CE
:1029F00080915202882399F0853099F08091EB0004
:102A000085FD11C04091E4005091E5002417350781
:102A100029F3915011F09A01E1CF84E0089582E00A
:102A2000089583E0089581E0089580E0089540913D
:102A3000E80042FFDDCF0895EF92FF920F931F93BE
:102A4000CF93DF937C018B010E94E914811119C09F
:102A5000E70101151105A1F08091E80085FD0AC08C
:102A60008091E8008E778093E8000E94E914882323
:102A700081F307C089918093F10001501109E9CFDA
:102A800080E0CDB7DEB7E6E00C948826CF932091A6
:102A90005202243029F5C091E900CF703091EC004A
:102AA000232F217030FD20E8C22B22E02093E90083
:102AB0002091E80020FF11C040E050E060E270E0AB
:102AC0000E941C15882321F010925002109251028E
:102AD0008091E8008E778093E800CF70C093E90082
:102AE000CF910895CF93DF93CDB7DEB7CC55D10901
:102AF0000FB6F894DEBF0FBECDBF85B7806885BF27
:102B000085B7806885BF84B7877F84BF0FB6F89488
:102B1000A8958091600088618093600010926000A9
:102B20000FBE90E080E80FB6F89480936100909318
:102B300061000FBE81EB99E0909399018093980119
:102B40000E9498130E94B7138091E20084608093E2
:102B5000E2007894809152028823A1F01091E9005C
:102B60001F709091EC00892F817090FD80E8182BE8
:102B70001092E9008091E80083FD0E9487101F7089
:102B80001093E90082E084BD93E095BD9AEF97BD74
:102B900080936E000E943E1B90E0909318018093FA
:102BA00017010E94791C0E94BF1CE9E5F2E0AEE625
:102BB000B2E011921D9222E0E736F207D1F78EE0E3
:102BC00090E00E94F1278093530290935402FC01FD
:102BD0000E961192E817F907E1F789EA80938000D1
:102BE00089E08093810024982C983F988AB18F7C4B
:102BF0008AB96E98479A8BB180638BB9769A8FE0C9
:102C000090E00E940B2760935502709356028093C8
:102C100057029093580267708FEF689FB00111249C
:102C2000759567957595679577277093890060937B
:102C3000880070938B0060938A0070938D0060937E
:102C40008C000E94B51B80E090E00E941127883E16
:102C50009E4F11F00E94980B82E090E00E940327A3
:102C600080937C0284E090E00E940327182F82E288
:102C700090E00E940327212F30E0382B3093F5029B
:102C80002093F40283E090E00E940327682F70E015
:102C900080E090E00E944424609168027091690293
:102CA00080916A0290916B020E940C1B80916702D6
:102CB000811136C080E090E00E941127883E9E4F2F
:102CC00021F00E94980B0E94322188E090E00E943F
:102CD0000B276093E2027093E3028093E4029093E7
:102CE000E5026E7F71F40E94322188E090E00E943C
:102CF0000B276093E2027093E3028093E4029093C7
:102D0000E5020E94E8201092A2028091E20280FF78
:102D100004C060E086950E94A82281E0809367024B
:102D2000609168027091690280916A0290916B02D1
:102D30000E940C1B8BE091E09093EC028093EB02DD
:102D4000A8E1EA2EF12CB0E4DB2E8091520285300E
:102D500009F085C0BB24B39400E112E180915202D6
:102D6000853009F065C080915202843009F43DC07D
:102D70001092A20280916D02811116C0B0926D0274
:102D80008091E202982F917090936C028E7F8093D5
:102D9000E2022FEF80E792E0215080409040E1F77F
:102DA00000C000000E94C31E1092EF020FB6F894FC
:102DB000A895E09260000FBED092600083B7817F3B
:102DC000846083BF83B7816083BF7894889583B71D
:102DD0008E7F83BF0FB6F894A895809160008861BC
:102DE00080936000109260000FBE8091460288239D
:102DF00009F4B4CF0E943E1B90E090931801809399
:102E000017010E94791C0E94BF1CEEE6F2E01192AD
:102E100022E0EC37F207D9F70E94AA0EEEE6F2E0C4
:102E20008191811112C282E0EC37F807C9F796CF81
:102E3000109222020E946F240E94581E10926D026E
:102E400080916C02882349F08091E2028160809336
:102E5000E20260E086950E94A8220E94AD1E0E94B8
:102E6000AA0E882359F08FB7F8944091F002509140
:102E7000F1026091F2027091F3028FBFADE7B2E010
:102E8000EEE6F2E000E010E0302F21919D919227D4
:102E9000A1F180E0BB24B394492F4B2151F16496FA
:102EA0008FAF649765963FAF65972B2181E009F45A
:102EB00080E066968FAF66970E94CF1D8160782F65
:102EC00068969FAF8EAF689764964FAD649765968E
:102ED0005FAD659766966FAD669768968FAD68979C
:102EE0000E943D19F801E358FD4F8081B826B08259
:102EF0002AC08F5FBB0C863079F60F5F1F4F0E30F4
:102F0000110509F0C1CF8FEF69968FAF69976A9667
:102F10008FAF6A976B961FAE6B970E94CF1D816033
:102F2000782F6D969FAF8EAF6D9769964FAD69976D
:102F30006A965FAD6A976B966FAD6B976D968FAD26
:102F40006D970E943D198091E802882369F00E94E4
:102F5000CF1D20918B0230918C02821B930B8F3FEF
:102F60009F4710F40E94651E8091A202882309F4F5
:102F700093C08091A102E091E202E695E81BE09304
:102F80009D02823059F4F0E0EE55FB4FE4910E2F94
:102F900010E0FCE5AF2EFDE1BF2E59C0863059F49C
:102FA000F0E0E156FB4FE4910E2F10E0ECE4AE2E82
:102FB000EDE1BE2E4CC0893061F4E695F0E0E456B8
:102FC000FB4FE4910E2F10E07CEAA72E70E2B72EA3
:102FD0003EC08F3061F4E695F0E0E756FB4FE49198
:102FE0000E2F10E066E4A62E60E2B62E30C08531CA
:102FF00059F4F0E0EA56FB4FE4910E2F10E056EF43
:10300000A52E5FE1B52E23C08831A1F0833249F4AB
:10301000E4E9F4E00591149142E1A42E4DE1B42ECF
:1030200016C0843271F404EF11E033E4A32E3FE1C3
:10303000B32E0DC008E210E02BE7A22E2FE1B22E36
:1030400006C000ED17E09CECA92E9CE1B92E809102
:103050009E02882361F010929E020E94CF1D9093E1
:103060009C0280939B021092A00210929F020E94E9
:10307000CF1DE0919B02F0919C028E1B9F0B8F3F16
:103080009F4750F40E0F1F1F10939C0200939B024A
:103090008BE992E0F50109950E94581E90918D02EE
:1030A000891380938D0280915202843009F04DCEB5
:1030B00083E08093E9008091E80082FF46CE809112
:1030C000E80085FF22C00E94E91481111CC000E2C3
:1030D00010E05E01F1E2AF0EB11C08C08091F1007A
:1030E000F50181935F010150110969F08091E800B9
:1030F00085FDF4CF8091E8008B778093E8000E94F3
:10310000E914882399F391E001C090E08091E800F0
:103110008B778093E800992309F417CE89A1813039
:10312000E9F158F1823021F0843009F480C00DCEED
:103130008BA19AA190938E0280938F028DA19CA166
:1031400090939002809391028FA19EA190939202FE
:103150008093930242E150E063E270E0CE018F5B26
:103160009F4F0E94F32684E0898381E0809351027F
:103170008EEF8A83109250020CC019828CE0E7E631
:10318000F1E0DE01129601900D928A95E1F78EEF43
:103190008D87CE0101960E944615D7CD04E912E035
:1031A0008AE9A82E82E0B82E0E94731EF80181934E
:1031B00091938F01AE16BF06B9F781E08983909194
:1031C00094029A83909195029B83909196029C839E
:1031D000909197029D83909198029E83909199027D
:1031E0009F839EEF988780935002CE0101960E94A4
:1031F000461542E150E063E270E0CE0101960E9484
:10320000F326FE01319682E183301CF09189928B86
:1032100001C0128A815031978F3FB1F742E150E0EF
:1032200063E270E0CE0101960E9417278ECD809157
:103230005102882309F489CD60E070E0CB010E943F
:10324000B9238AA10E94222480CD09BD19BD09B4E9
:1032500000FEFDCF8091D8008F7D8093D8008091B3
:10326000E00082608093E0008091E00081FDFCCF6F
:10327000109222020E946F2471CDA7E1B0E0E3E436
:10328000F9E10C946F264B8B5C8B6D8B7E8B8F8B57
:1032900061111092E70286E09E01235F3F4FD90142
:1032A000E82F1D92EA95E9F795E0FE017396D901A2
:1032B00001900D929A95E1F79C894E895F897B89EF
:1032C0007D879E876F87598B488BF901DE011796A2
:1032D00001900D928A95E1F7CE0107960E94230D89
:1032E00081113EC086E0FE013796DE011196019005
:1032F0000D928A95E1F7FF81E8856A857B856115E6
:10330000710531F0EF3F31F481E0FF3F19F403C064
:1033100081E001C080E080FD23C02091C10130E048
:10332000C9010196877099274091F20150E08417F6
:10333000950779F1F983EA837D836C8396E0929F08
:10334000D001939FB00D1124AE53BE4FFE013196B4
:1033500001900D929A95E1F78093C1010E94B00C03
:1033600016E08091F2019091C101891709F1189F2F
:10337000C00111248E539E4F0E94230D8823C1F05B
:103380008091F20190E00196877099278093F20175
:10339000E8CF109222020E946F241092C101109275
:1033A000F201EBEBF1E086E0DF011D928A95E9F78F
:1033B0006796E3E00C948B26CF92DF92EF92FF9218
:1033C0006C01EE24FF24C114D104E104F10421F0C6
:1033D000C701B60120E101C020E0C72ED82EE92E9A
:1033E000FF24C114D104E104F10419F0285FC701DE
:1033F000B6016B017C0154E0F694E794D794C7942E
:103400005A95D1F7C114D104E104F10419F02C5FED
:10341000C701B6016B017C0142E0F694E794D794B2
:10342000C7944A95D1F7C114D104E104F10419F00D
:103430002E5FC701B601DC01CB01B695A795979524
:103440008795892B8A2B8B2B09F02F5F822FFF907A
:10345000EF90DF90CF900895A0E0B0E0E2E3FAE1D2
:103460000C946826EC018AE0A82EFE012491222308
:1034700009F4B5C0213009F044C0319684918130FF
:1034800059F42296FE018491893319F060E070E0CE
:1034900091C060E570E08EC0823031F42296FE016A
:1034A00084910E94C0248AC0833031F42296FE01A8
:1034B00084910E94942482C0843009F07EC02296B8
:1034C000FE01249180E090E030E0205331092A3061
:1034D000310560F4A89EA001A99E500D1124C901D8
:1034E000840F951F2196FE012491EECF009709F4D9
:1034F00065C0EFE9FFE03197F1F700C000000197E8
:10350000F5CFE22FF0E0EA52FB4FB490822F869580
:103510008695869590E0FC01EA53FB4FE490277076
:10352000F12C022E02C0F594E7940A94E2F7F1E040
:10353000EF22FF24FC01EA54FB4FC490D12C022E51
:1035400002C0D594C7940A94E2F731E0C322DD2487
:10355000FC01EA55FB4F049110E002C01595079558
:103560002A95E2F701701127E114F10419F081EEB8
:103570000E94C024C114D10449F186EE0E94C024E7
:1035800089E3B816E9F060E070E08B2D0E946025B9
:10359000C114D10419F086EE0E949424E114F104C0
:1035A00019F081EE0E9494240115110539F060E0B4
:1035B00070E08CE20E94602501C0EF01219655CF9A
:1035C00060E570E089E30E946025E5CFE9E3BE1283
:1035D000DACF60E570E089E30E946025DFCFCDB7E8
:1035E000DEB7EAE00C948426109222020E946F2437
:1035F0002FEF84E39CE0215080409040E1F700C031
:1036000000009AE088E10FB6F894A89580936000D6
:103610000FBE90936000FFCFCF92DF92EF92FF92A8
:103620006B017C010E94DC1956985E9825982D98B4
:1036300026982E9827982F9890E0FC013197E73034
:10364000F105A8F4E459FF4F0C94D027259A2D9A40
:103650000EC0259A2D9A269A2E9A09C0259A2D9A3F
:1036600004C0259A2D9A269A2E9A279A2F9AC70136
:10367000B601FF90EF90DF90CF90089580E290E048
:10368000909318018093170180919A0281110EC0C6
:103690000E94782581E080939A022FEF83ED90E3DA
:1036A000215080409040E1F700C0000064E670E0E7
:1036B00080E40E947E259093180180931701892B46
:1036C00009F04EC064E670E080E00E94F32590931C
:1036D000180180931701892B09F042C064E670E05D
:1036E00080E00E94F3259093180180931701892BA5
:1036F000B9F564E670E08FE30E94F325909318011A
:1037000080931701892B61F50E94482664E670E0DA
:1037100080E40E947E259093180180931701892BE5
:10372000F9F464E670E08CE00E94F32590931801B0
:1037300080931701892BA1F464E670E080E00E9479
:10374000F3259093180180931701892B49F464E6BF
:1037500070E08FE30E94F325909318018093170186
:103760000E944826809117010895CF93DF935698C1
:103770005E9825982D9826982E9827982F98C8E817
:10378000D0E08FEF90E099838883AAE8B0E01196AB
:103790009C938E93ECE8F0E091838083259A2D9A98
:1037A0002FEF80E792E0215080409040E1F700C089
:1037B0000000269A2E9A2FEF80E792E02150804059
:1037C0009040E1F700C00000279A2F9A2FEF80E782
:1037D00092E0215080409040E1F700C00000259821
:1037E0002D982FEF80E792E0215080409040E1F744
:1037F00000C0000026982E982FEF80E792E021501D
:1038000080409040E1F700C0000027982F988091F9
:10381000550287702FEF829FC001112495958795DF
:103820009595879599279983888311969C938E9374
:103830009183808356985E9825982D9826982E9887
:1038400027982F98DF91CF910895CF93E82F873055
:1038500080F58091170190911801892B09F047C0DC
:10386000CE2F64E670E080E40E947E2590931801DC
:1038700080931701892BD1F464E670E082E10E9405
:10388000F3259093180180931701892B79F481E037
:1038900090E001C0880FCA95EAF764E670E0809571
:1038A0000E94F32590931801809317010E944826E7
:1038B0001EC090E0FC013797E730F105C0F4ED58E9
:1038C000FF4F0C94D027209A289811C0219A29984C
:1038D0000EC0229A2A980BC0239A2B9808C0529A9D
:1038E0005A9805C0539A5B9802C03E9A4698CF9169
:1038F0000895209828982198299822982A98239802
:103900002B9852985A9853985B983E9846980895E9
:10391000CF93873040F58091170190911801892B42
:1039200059F564E670E081E40E947E2590931801C9
:1039300080931701892B11F0C0E011C084E690E05C
:103940000E94232697FF05C09093180180931701CA
:10395000F3CFC82FC09510921801109217010E9442
:1039600048268C2F0AC09FB18FB1807F869586959F
:103970009370892B809501C080E0CF910895809845
:10398000889A8198899A84988C9A85988D9A869835
:103990008E9A87988F9A08950895089580912402A9
:1039A0000895CF93DF9320910A01222339F02091CB
:1039B000F40227FF03C060E224E002C068E021E0D7
:1039C0002093E9002FEF3091E800215035FD06C02B
:1039D00035ED3A95F1F700002111F5CF2091E8007F
:1039E00025FF1DC0EC0180910A01811105C040E056
:1039F00050E068E070E003C070E040E050E0CE01CD
:103A00000E941C158091E8008E778093E80080E288
:103A1000FE01A5E2B2E001900D928A95E1F7DF91F7
:103A2000CF910895A4E0B0E0E8E1FDE10C946E26AA
:103A30008C018091A50281110AC09E012F5F3F4F2A
:103A40004FEF6FEF0E9442218A818093A502F80117
:103A50008481813051F028F0823061F44091A502D8
:103A60000AC08091A50240E007C06091A50240E035
:103A700080E003C040E080E060E00E94D620F801D2
:103A8000848190E0019663E070E00E94BC2784830B
:103A90002496E4E00C948A26CF93DF93EC01E2EEC7
:103AA000F2E0438162818C810E94CF218C818F5F03
:103AB0008C83DF91CF910895CF93DF93EC01EC815C
:103AC000F0E0EA5AFA4F4491E2EEF2E0628181813D
:103AD0000E94CF218C818F5F8C83DF91CF910895DD
:103AE0008093F6027093F8026093F702809152027D
:103AF0008430F9F48093E9008FEF9091E8008150D1
:103B000095FD06C095ED9A95F1F700008111F5CF6E
:103B10008091E80085FF0DC040E050E063E070E078
:103B200086EF92E00E941C158091E8008E778093CA
:103B3000E800089578941F920F920FB60F92112407
:103B40008F939F93AF93BF938091F0029091F10276
:103B5000A091F202B091F3020196A11DB11D8093D4
:103B6000F0029093F102A093F202B093F302BF919E
:103B7000AF919F918F910F900FBE0F901F9018954E
:103B80009C014FB7F8948091F0029091F102A091BE
:103B9000F202B091F3024FBF821B930B08952FB72F
:103BA000F8948091F0029091F102A091F202B0910C
:103BB000F3022FBF08951F920F920FB60F92112498
:103BC0008F939F93AF93BF938091EF02811113C0A6
:103BD0008091F0029091F102A091F202B091F30273
:103BE0004196A11DB11D8093F0029093F102A09324
:103BF000F202B093F302BF91AF919F918F910F901A
:103C00000FBE0F901F90189520910A012223C9F032
:103C10002091F40227FF15C0262F2695269526957C
:103C20002E31C8F4FC01E20FF11D677081E090E0D5
:103C300001C0880F6A95EAF7809592818923828373
:103C40000895FC0106962281621301C0128231960A
:103C5000E817F907C1F708952091ED023091EE02BF
:103C60002817390771F09093EE028093ED02E091EE
:103C7000EB02F091EC02309721F00084F185E02D09
:103C8000099508952091E9023091EA022817390731
:103C900071F09093EA028093E902E091EB02F091D7
:103CA000EC02309721F00680F781E02D0995089508
:103CB000E091EB02F091EC02309729F00190F08155
:103CC000E02D0995089580E008958091E802882309
:103CD00049F08091E7028D7D8093E7020E94220CDB
:103CE0001092E8020895CF93DF930E94E32666E0E6
:103CF00070E00E94BC27D82F0E94E3266EE070E09F
:103D00000E94BC27C82F6D2F782F80E00E94F609F3
:103D1000892B19F08D2F9C2F02C00E94731EDF91FA
:103D2000CF9108959091E20290FF04C09695981764
:103D300048F003C0811106C090E0961718F40E9465
:103D4000ED22089561E00E94A8220895882311F0D1
:103D5000FA0101C0FB01099508956091E2026695A0
:103D600070E04BE050E089E191E00E941229892B3C
:103D700019F481E08093A2020E94CF1D90939C02CF
:103D800080939B020895EF92FF920F931F93CF931E
:103D9000DF938091E20280FF08C006EA12E082EE23
:103DA000E82E82E0F82EF8010DC0E6EAF2E082EE9D
:103DB00092E0118210821282138234968E179F072E
:103DC000C1F7EBCF928120813181892F291708F427
:103DD000822F381708F4832F8383381B3183281BE5
:103DE0002083981B92833496EE16FF0659F70E94A3
:103DF000782564E670E084E80E947E25C6EAD2E079
:103E000064E670E088810E94F32564E670E08981B1
:103E10000E94F32564E670E08A810E94F32564E63F
:103E200070E08B810E94F3252496EC16FD0641F785
:103E30000E944826579A8BB18F779BB190682FB715
:103E4000F894E016F10699F0F80131918F0148E0FD
:103E50009BB9000000C037FF8BB9330F000000C0D2
:103E600000C000C08BB900C04A9591F7EACF2FBFC0
:103E70008FE594E00197F1F700C00000CDB7DEB701
:103E8000E6E00C948826EF92FF920F931F93CF9356
:103E9000DF938C01C6EAD2E0E12CF12CF801848199
:103EA000F7E0EF16F1041CF4882339F002C0811109
:103EB00004C09E014091E50202C09E0140E0609175
:103EC000E4028091E3020E9442218FEFE81AF80A8F
:103ED00024969FE0E916F10409F70E94C31EF80139
:103EE000848190E00196817099278483CDB7DEB7F5
:103EF000E6E00C948826A0E0B0E0E1E8FFE10C9455
:103F00006626EC014C81042F10E09801D8010E9434
:103F10009F279B01AC010E946A276B017C01E0E2B4
:103F2000F0E0E01BF10BA5E5B0E09B01AC010E94C5
:103F30006A274B015C019F01DF010E94D6279B018C
:103F4000AC010E9475279B01AC012C0D3D1D4E1D3F
:103F50005F1DC501B4010E947D27822FF22E99E2D8
:103F6000921728F093E0299F900111240DC025E5B8
:103F700030E0281B3109C901880F991F280F391F0C
:103F800037FF02C02F5F3F4F35952795122F1095B1
:103F900096EAC92E92E0D92E00E085E5E82EEF18CA
:103FA00001FD02C08E2D01C08F2D9601412F609121
:103FB000E4020E9442210F5F84E0C80ED11C0F3042
:103FC00079F70E94C31E8C81811102C091E003C069
:103FD000803219F49FEF9093260190912601890F6A
:103FE0008C83CDB7DEB7ECE00C9482260F931F9341
:103FF000CF93DF93C6EAD2E0FE01118210821282D3
:104000001382349682E0E23EF807B9F700E010E050
:104010008091A402082E000C990B0817190794F040
:1040200080912501082E000C990B8017910754F000
:104030009E014091E5026091E4028091E3020E94BA
:10404000422104C0198218821A821B820F5F1F4FFF
:1040500024960F301105E1F60E94C31E80912401C1
:104060009091A402980F9093A40220912501280F0B
:1040700020932501121614F49E301CF08195809334
:104080002401DF91CF911F910F910895A0E0B0E03E
:10409000ECE4F0E20C946926FC01828180FF03C00D
:1040A000DD24DA9402C0DD24D39406EA12E0C0E0F5
:1040B000D0E02FE0B22EF80111821082128213821A
:1040C00094E0E92EF12CC12C8091A3028C0D80315B
:1040D0002CF06B2D0E94AE27892F02C087FD815FD7
:1040E000082E000C990BC817D90791F48091E502AE
:1040F0008E9DA0018F9D500D112455954795559586
:10410000479598016091E4028091E3020E94422168
:10411000CD0CF1E0EF1AF108B9F621960C5F1F4FB4
:10412000CF30D10541F60E94C31E8091A30291E0D9
:10413000D91206C0811102C08EE007C0815005C0AF
:1041400090E00196BE010E94BC278093A302CDB7E8
:10415000DEB7E9E00C948526EF92FF921F93CF9390
:10416000DF93EC0186EAE82E82E0F82E10E08C81E5
:1041700097014091E5026091E402810F0E94422183
:104180001F5E84E0E80EF11C1F3F89F70E94C31EEA
:104190009A818C8190FF02C08F5F01C081508C8317
:1041A000DF91CF911F91FF90EF9008959091E202DF
:1041B00090FF0DC0E6EAF2E08183608342831382C0
:1041C000349692E0E23EF907B9F70E94C31E0895C3
:1041D0008091E202282F269530E02115310519F44F
:1041E0008170826005C02532310524F081708864B9
:1041F0008093E2020895CF92DF92EF92FF926B01DB
:104200007C010E94E820B701A60188E090E00E94AE
:104210003927FF90EF90DF90CF9008958091E602CC
:10422000882319F081508093E6026091E202709138
:10423000E3028091E4029091E5020E94FB20089540
:104240008091E602833018F48F5F8093E6026091DC
:10425000E2027091E3028091E4029091E5020E94F3
:10426000FB200895E2EEF2E083E0808311828FEF7D
:1042700082838383148260817181828193810E9411
:10428000FB200895A0E0B0E0E8E4F1E20C94682699
:10429000E82EF62EE901E42FF0E0611106C0EA5A9B
:1042A000F94FE4914E2F2E2F71C0062F10E0EA5ADD
:1042B000F94F4491F42FC42ED12C26E0829FC001E7
:1042C00011242FEF30E0B9010E944C265BEA56031F
:1042D000C001579F900D11248E0D911D8E0D911DC3
:1042E000582F550F580FD901A01BB10BAC9DC00121
:1042F000AD9D900DBC9D900D1124E92FF59ED00130
:104300001124AB2FBB277901EA1AFB0AEC9CD001E0
:10431000ED9CB00DFC9CB00D11245901A51AB108FB
:10432000A09E7001A19EF00CB09EF00C1124EF2C09
:10433000FF242E193F092C9D80012D9D100D3C9DC1
:10434000100D1124212F6230710591F048F4611590
:104350007105E1F061307105B9F4242F4B2F16C0BF
:104360006430710569F040F06630710579F00CC079
:10437000242F492FE12F0AC0492FEF2F2B2F06C0E2
:10438000292FE42F412F02C0292FEB2F49832883A7
:10439000EA831B82CDB7DEB7EAE00C948426A4E062
:1043A000B0E0E5EDF1E20C9470269091E20290FF0E
:1043B0000AC09E012F5F3F4F0E9442214B816981BD
:1043C0008A810E94D6202496E2E00C948C26A4E0F8
:1043D000B0E0EDEEF1E20C946326F82E762EE42E9A
:1043E000622E9091E20290FF67C0E92FE695AE2F12
:1043F000B0E0AD58BE4F8C918093A1029E7F923069
:1044000061F49E012F5F3F4F8F2D0E9442214B810F
:1044100069818A810E94D6203DC0823019F4E090E3
:10442000E50238C0863019F4F090E30233C08930D9
:10443000D9F3893179F5E9518E2F8170582EE6959F
:10444000F0E0EA5AF84FE4910E2F10E086EAC82E09
:1044500082E0D82EA12CB12C9FE0892E912CC50191
:10446000B4010E944C268F2D511002C0860F01C04E
:10447000861B96014E2D672D0E944221A00EB11E73
:1044800084E0C80ED11C82EEC81682E0D80639F747
:104490000E94C31EF092E3027092E402E092E502F1
:1044A000662051F06091E2027091E3028091E40293
:1044B0009091E5020E94FB202496EFE00C947F2669
:1044C000E2EEF2E043812CE0421B08F440E021E000
:1044D000628181810E94E7210895E2EEF2E043814A
:1044E0002CE0420F08F44FEF21E0628181810E94AD
:1044F000E7210895E2EEF2E062812FEF621B08F4FB
:1045000060E021E0438181810E94E7210895E2EE8D
:10451000F2E062812FEF620F08F46FEF21E0438138
:1045200081810E94E7210895E2EEF2E0818121E09D
:10453000438162818C500E94E7210895E2EEF2E00F
:10454000818121E043816281845F0E94E721089597
:104550009091E20290FF36C09170811102C092608A
:1045600006C0853210F0986402C0880F982B909393
:10457000E202662351F06091E2027091E3028091C1
:10458000E4029091E5020E94FB206091E2026695B0
:1045900070E04BE050E089E191E00E941229892B04
:1045A00019F01092A20202C00E94AD1E81E0809319
:1045B0009E0220E04091E5026091E4028091E302D6
:1045C0000E94E72108958091E2028695815009F4C6
:1045D00084E261E00E94A82208958091E20286951B
:1045E0008F5F853208F081E061E00E94A822089583
:1045F00080E090E00E94421E80E090E00E942C1E2D
:104600001092E7020E94220C0895A0E0B0E0EBE0D7
:10461000F3E20C9469268C01C0906802D090690284
:10462000E0906A02F0906B02809115029091160260
:10463000A0911702B0911802C82AD92AEA2AFB2AA7
:10464000CFE1D0E0D701C6010C2E04C0B695A795E6
:10465000979587950A94D2F780FD04C0219790F72B
:10466000B12C09C0BC2EB8018C2F0E94F6090E9403
:104670000F0A019799F38B2DCDB7DEB7E9E00C94C3
:104680008526CF93DF93EC010E940523BE010E9493
:10469000F6090E940F0ADF91CF910895292F9E30CD
:1046A00080F5863070F590E036E0239F800D911DF7
:1046B0001124682F677023E0969587952A95E1F776
:1046C00025E0289FF001299FF00D1124E750FD4FB0
:1046D00040E050E080E0219130E0062E02C03695A7
:1046E00027950A94E2F721703327042E01C0220F88
:1046F0000A94EAF7822B4F5F5F4F4530510559F717
:10470000089580E00895292F9E3090F5863080F539
:1047100090E036E0239F800D911D1124282F2770F3
:1047200051E001C0550F2A95EAF723E09695879549
:104730002A95E1F725E0289FF001299FF00D11242B
:10474000E750FD4F20E030E070E04081CB01022EC9
:1047500002C0969587950A94E2F781708195842727
:104760008523842781932F5F3F4F2530310569F7DB
:104770000895CF92DF92EF92FF92CF93DF93CDB760
:10478000DEB7A0970FB6F894DEBF0FBECDBF0E9474
:104790000C1B6B017C01809151028823B1F02FEF3B
:1047A00080E792E0215080409040E1F700C0000097
:1047B00085E08983C701B6010E94DC198A838EEFE8
:1047C0008B83CE0101960E944615C0926802D0925A
:1047D0006902E0926A02F0926B020E94F822A096AF
:1047E0000FB6F894DEBF0FBECDBFDF91CF91FF9023
:1047F000EF90DF90CF9008950F931F9341E050E02A
:1048000060E070E004C0440F551F661F771F8A9553
:10481000D2F740955095609570958091680290917F
:104820006902A0916A02B0916B028A019B01082380
:1048300019232A233B23C901B8010E94B9231F91E0
:104840000F9108950F931F9341E050E060E070E0F6
:1048500004C0440F551F661F771F8A95D2F78091B9
:10486000680290916902A0916A02B0916B028A017C
:104870009B01082B192B2A2B3B2BC901B8010E9445
:10488000B9231F910F91089560931502709316023A
:1048900080931702909318020E94F8220895FC0159
:1048A000808191810E94412392959F70963079F08A
:1048B00010F4925001C09A50923068F4803F69F031
:1048C00018F4883E40F409C0843F29F406C0883EAD
:1048D00020F0813F11F080E0089581E008958091FB
:1048E0000A01882331F08091F40287FF02C08EE133
:1048F00001C086E0EDE9F1E0DF011D928A95E9F75C
:104900000E94F8220895882321F00E941B0C0E9427
:10491000220C0895882339F090912202892B8093EC
:1049200022020E94220C0895882349F1682F8CEFFF
:10493000860F813A28F48BE991E00E94041E0CC096
:1049400080E2860F883058F4677081E001C0880FDC
:104950006A95EAF70E941B0C0E94220C08958BE5D1
:10496000860F833028F480E090E00E94421E089574
:10497000685A673120F480E090E00E942C1E089570
:10498000CF93882309F49AC0C82F8CEF8C0F813AFB
:1049900008F05EC080910A018823E1F08091F40262
:1049A00087FF18C0EC2FE695E695E695F0E0E55612
:1049B000FE4F8281282F30E04C2F477081E090E03D
:1049C00002C0880F991F4A95E2F782239323892B0F
:1049D00059F411C0EDE9F1E08191C81729F081E0A7
:1049E000E33AF807C9F707C06C2F8BE991E00E9402
:1049F000041E0E94220C80910A018823C9F0809134
:104A0000F40287FF15C0AC2FA695A695A695B0E039
:104A1000A556BE4FC77081E090E001C0880FCA95CF
:104A2000EAF712969C911297892B12968C9320C0CC
:104A3000ADE9B1E0EFEF80E09D91C917C9F0EF3F1C
:104A400019F4911101C0E82F8F5F8630A9F72DC0AE
:104A500080E28C0F883078F4C77081E090E001C06C
:104A6000880FCA95EAF790912202892B809322023F
:104A70000E94220C23C0EBE5EC0FE33040F4F0E0A1
:104A8000E95DFE4F808190E00E94421E17C0C85A27
:104A9000C731A0F4EC2FF0E0EE0FFF1FE65DFE4FF4
:104AA000808191810E942C1E09C0EF3F09F30E2ED8
:104AB000000CFF0BE556FE4FC283DACFCF9108956D
:104AC0001F93CF93DF93182FEB010E94C0242097F0
:104AD00041F08FE99FE00197F1F700C000002197B6
:104AE000F6CF812F0E949424DF91CF911F910895DA
:104AF0001092B9008CE08093B8000895A0E0B0E077
:104B0000E4E8F5E20C946726B82EEB010E94CF1D75
:104B10006C01C431D10558F0CF3F8FEFD80759F061
:104B2000CE0164E170E00E944C267B0107C0EE24B8
:104B3000E394F12C03C025E0E22EF12C84E8A82EAA
:104B400094EA992E1092BC009092BC000E94CF1D56
:104B50008C018091BC0087FD08C00E94CF1D801B86
:104B6000910B8E159F05A8F32AC08091B900887F0C
:104B7000883041F08091B900887F803119F00FEFC3
:104B80001FEF1FC0B092BB00A092BC000E94CF1DBF
:104B90008C018091BC0087FD08C00E94CF1D801B46
:104BA000910B8E159F05A8F30AC08091B900887FEC
:104BB000883111F0803419F700E010E00EC00EEFDC
:104BC0001FEFCF3F8FEFD80709F4BCCFC6010E947B
:104BD000C01D8C179D0708F4B5CFC801CDB7DEB74F
:104BE000EBE00C9483260F931F93CF93DF93EB019D
:104BF0008093BB0084E88093BC000E94CF1D8C0191
:104C00008091BC0087FD0EC0CF3F8FEFD807C1F366
:104C10000E94CF1D801B910B8C179D0788F38EEF90
:104C20009FEF0CC02091B900287F81E090E02832EE
:104C300011F480E090E0919581959109DF91CF91F9
:104C40001F910F9108950F931F93CF93DF93EC0162
:104C500084E88093BC000E94CF1D8C018091BC0031
:104C600087FD0EC0CF3F8FEFD807C1F30E94CF1D45
:104C7000801B910B8C179D0788F38EEF9FEF03C06D
:104C80008091BB0090E0DF91CF911F910F9108952B
:104C900084E98093BC000895AA1BBB1B51E107C0A7
:104CA000AA1FBB1FA617B70710F0A61BB70B881FBC
:104CB000991F5A95A9F780959095BC01CD0108954B
:104CC0002F923F924F925F926F927F928F929F921C
:104CD000AF92BF92CF92DF92EF92FF920F931F930A
:104CE000CF93DF93CDB7DEB7CA1BDB0B0FB6F894BB
:104CF000DEBF0FBECDBF09942A88398848885F84FB
:104D00006E847D848C849B84AA84B984C884DF806B
:104D1000EE80FD800C811B81AA81B981CE0FD11D4F
:104D20000FB6F894DEBF0FBECDBFED0108958F9290
:104D30009F92AF92BF92CF92DF92EF92FF92CF936A
:104D4000DF93EC01688179818A819B81611571050E
:104D50008105910521F464E279ED8BE597E02DE181
:104D600033EF41E050E00E944B2749015A019B017B
:104D7000AC01A7EAB1E40E946A276B017C01ACEEAA
:104D8000B4EFA50194010E947827DC01CB018C0DC2
:104D90009D1DAE1DBF1DB7FF03C00197A109B048FF
:104DA00088839983AA83BB839F77DF91CF91FF90FC
:104DB000EF90DF90CF90BF90AF909F908F9008952D
:104DC0000E949726089580E091E00E94972608951A
:104DD000A0E0B0E08093000190930101A093020154
:104DE000B09303010895DC01CB01FC01F999FECFDA
:104DF00006C0F2BDE1BDF89A319600B40D92415063
:104E00005040B8F70895F999FECF92BD81BDF89A48
:104E1000992780B50895A6E1B0E044E050E00C94F5
:104E2000F526A8E1B0E042E050E00C94F526DC0164
:104E3000A40FB51F4150504048F0CB01840F951F7F
:104E40002E910E94282741505040D0F70895262FD8
:104E5000F999FECF92BD81BDF89A019700B4021670
:104E600039F01FBA20BD0FB6F894FA9AF99A0FBE1E
:104E700008950396272F0E9428270E942727252F71
:104E80000E942827242F0C9428270196272F0E9460
:104E900028270C942727052E97FB1EF400940E94C8
:104EA000622757FD07D00E947D2707FC03D04EF4F0
:104EB0000C94622750954095309521953F4F4F4F68
:104EC0005F4F089590958095709561957F4F8F4FB6
:104ED0009F4F08950E949F27A59F900DB49F900D0E
:104EE000A49F800D911D11240895B7FF0C946A278B
:104EF0000E946A27821B930B0895A1E21A2EAA1B17
:104F0000BB1BFD010DC0AA1FBB1FEE1FFF1FA21779
:104F1000B307E407F50720F0A21BB30BE40BF50B76
:104F2000661F771F881F991F1A9469F760957095FF
:104F3000809590959B01AC01BD01CF010895A29F82
:104F4000B001B39FC001A39F700D811D1124911D5D
:104F5000B29F700D811D1124911D089587FB082EAD
:104F6000062687FD819567FD61950E94E5270EF471
:104F7000919507FC8195089597FB072E16F40094F0
:104F800007D077FD09D00E944C2607FC05D03EF4DF
:104F9000909581959F4F0895709561957F4F0895E5
:104FA000EE0FFF1F0590F491E02D09940E949F27BA
:104FB000332312F48A1B9B0B0C94E0270E949F273B
:104FC000B7FF0895821B930B0895991B79E004C0E5
:104FD000991F961708F0961B881F7A95C9F7809538
:104FE00008950F931F93CF93DF938230910510F4B0
:104FF00082E090E0E0913203F091330320E030E072
:10500000A0E0B0E0309719F1408151810281138115
:1050100048175907C8F08417950769F4109731F0BD
:1050200012960C93129713961C9327C00093320389
:105030001093330322C02115310519F0421753078D
:1050400018F49A01BD01EF01DF01F801DBCF211552
:105050003105F9F0281B390B2430310580F48A81A1
:105060009B816115710521F0FB019383828304C04C
:105070009093330380933203FE01329644C0FE01C5
:10508000E20FF31F819391932250310939832883D2
:105090003AC02091300330913103232B41F4209109
:1050A00006013091070130933103209330032091A2
:1050B0000401309105012115310541F42DB73EB7AA
:1050C0004091080150910901241B350BE0913003F8
:1050D000F0913103E217F307A0F42E1B3F0B2817C2
:1050E000390778F0AC014E5F5F4F2417350748F061
:1050F0004E0F5F1F50933103409330038193919380
:1051000002C0E0E0F0E0CF01DF91CF911F910F915D
:105110000895CF93DF93009709F481C0FC01329783
:1051200013821282A0913203B0913303109781F45D
:1051300020813181820F931F209130033091310300
:105140002817390751F5F0933103E093300367C016
:10515000ED0120E030E0CE17DF0740F44A815B81AB
:105160009E0141155105F1F0EA01F5CFD383C283C9
:1051700040815181840F951FC817D90759F4888140
:105180009981840F951F0296918380838A819B81E8
:10519000938382832115310529F4F0933303E0933F
:1051A00032033DC0E901FB83EA8349915991C40F61
:1051B000D51FEC17FD0761F480819181840F951F45
:1051C0000296E90199838883828193819B838A83F4
:1051D000E0E0F0E012968D919C911397009719F002
:1051E000FD01DC01F7CF8D919C9111979D012E5F00
:1051F0003F4F820F931F20913003309131032817C6
:10520000390769F4309729F410923303109232036E
:1052100002C013821282B0933103A0933003DF9156
:10522000CF910895FC014150504030F00190061696
:10523000D1F73197CF010895882799270895FB0169
:10524000DC0104C08D910190801921F4415050403F
:0C525000C8F7881B990B0895F894FFCF55
:10525C000100000000003403200001CE1CD11CCD45
:10526C001C82107D107C10200001191A1B1C1D1EA5
:10527C001F202122010201818283E200E900EA0061
:10528C00B500B600B700CD008301CC008A019201B5
:10529C0094012102230224022502260227022A025B
:1052AC00B300B4006F00700040226D9503730306C9
:1052BC0003E7030004200457724B59342F6D33332A
:1052CC004E44000001020202020606060909090901
:1052DC0009090F0F0F0F0F0F15151518191919199B
:0852EC001919191919192324DD
:00000001FF
