:10000000ACC50000C7C50000C5C50000C3C50000E1
:10001000C1C50000BFC50000BDC50000BBC50000D4
:10002000B9C50000B7C500000C9490180C947F1758
:100030000C94401AAFC50000ADC50000ABC5000070
:10004000A9C50000A7C50000A5C50000A3C5000004
:10005000A1C500000C940E1A9DC500009BC50000B0
:1000600099C5000097C5000095C5000093C5000024
:1000700091C500008FC500008DC500008BC5000034
:1000800089C5000087C5000085C5000083C5000044
:1000900081C500007FC500007DC500007BC5000054
:1000A00079C5000077C5000075C500003608AA08AC
:1000B0003E0808080C0842080F08450850081A08AE
:1000C000A0081E08540822085808820826085C0860
:1000D0008C082C0862086C081308490816084C089C
:1000E00031086708780898089A0804083A08B3089D
:1000F000F809F8092A0A2A0AB00AF90BF90BF90BD0
:10010000CE0A670B790B790B770C870C8C0C910C52
:10011000960C9B0CA00CA50CAA0CAF0CB40C130FE6
:10012000150F170F190F1C0F1F0F220F310F3D0F47
:100130004B0F590F670F750F830F900F7C24A3246B
:100140004F26A3244F26EB240E254F2609261D26D5
:1001500001012B01043130307C01012B01043130CD
:10016000307C01012B01043130307C01012B010472
:100170003130307C01012B0001012B010431303082
:100180007C01012B01043130307C01012B01043151
:1001900030307C01012B01043130307C01012B0116
:1001A000043130307C01012B01043130307C0101FD
:1001B0002B01043130307C01012B000101290104A5
:1001C0003130307C01012B01043130307C01012BB6
:1001D00001043130307C01012B01043130307C01CD
:1001E0000129001E0F0500047F3F1F643214643292
:1001F00014783C1E1E140A0529001E001F00000072
:1002000029002B00E000E100737C00001E001400B8
:1002100004001D00A8002C451F001A0016001B003A
:100220001609E3002000080007000600E2008252E1
:100230002100150009001900E2001F082200170024
:100240000A0005000000855223003C450000274AB3
:10025000000046002200454C00003D4600000A0810
:1002600023001C000B001100000085522400180020
:100270000D0010008152460C25000C000E003600C7
:10028000E2002C41260012000F00370087522C4359
:1002900027001300330038008552645035002A00CF
:1002A000280034008652000001002B0201000100EA
:1002B00001000000010001002D0201000100010009
:1002C00001003102310001000100010001000100C4
:1002D0002E02010001000100010001002D000100BB
:1002E00001000100010001002E00010000000100DA
:1002F00001000100000001000000010001000100F8
:1003000000000100000001000100010001000100E7
:100310000000010001002F002F0226020100010051
:10032000010030003002270201000100010001003D
:1003300001000100010001000100010001000100B5
:1003400001000100010001000100010001000000A6
:1003500029042B03E000E100010000003A0414042A
:1003600004041D04010001003B041A0416041B04CC
:10037000010001003C040804070406040100010018
:100380003D04150409041904010001003E04170589
:100390000A040504000001003F0401000000010000
:1003A000000001003E040100000001000000010007
:1003B0003F041C0450001104000001004004180414
:1003C000510010040100010041040C0452003604E5
:1003D0000100E500420412044F003704010001004F
:1003E00043041304330438040100010035042A04D3
:1003F000280434040100000029042B02010001003C
:1004000001000000010001000100010001000100E5
:1004100001000100010001000100010001000100D4
:1004200001000100010001000100010001000100C4
:1004300001000100010001000100010000000100B5
:1004400001000100000001000000010001000100A6
:100450000000010000000100010001005000010047
:100460000000010001000100520001000100010034
:100470000100010051000100010001000100010024
:100480004F00010001000100010001000100010016
:100490000100010001000100010001000100000055
:1004A000290001000100010001000000010001001D
:1004B0000100010001000100010001000100010034
:1004C0000100010001000100010001000100010024
:1004D0000100010001000100010001000100010014
:1004E0000100010000000100010001000000010006
:1004F00000000100010001000000010000000100F7
:100500000100110023022E00000001004C00240015
:1005100021001E00360001003800250022001F00C7
:1005200027000100250226002300200063000100AF
:100530002D002E0228002B002B12010001000100CB
:100540000100010001000000417E427E0100010027
:10055000010000003A003F004400010001000100DA
:100560003B00010001000100010001003C0001000E
:1005700068000100010001003D00010001000100D0
:10058000010001003E000100010001000000010027
:10059000A800A9000000AA00000001000100AE00B0
:1005A000000048000000010001000100AC00010053
:1005B0000000010001004B00AA00A800010001009A
:1005C00001000100A90001000100BB0001000100C1
:1005D000AB0001000100BC00010048000100010067
:1005E000010001000100AD00005701000100000002
:1005F0000052437E010001000100000001000100E3
:1006000001000100010001000100010001000100E2
:1006100001000100010001000100010001000100D2
:1006200001000100010001000100010001000100C2
:1006300001000100000001000100010000000100B4
:1006400000000100010001000000010000000100A5
:100650000100010001000100000001000100010093
:100660000100010001000100010001000100010082
:100670000100010001000100010001000100010072
:100680000100010001000100100F010001000157ED
:10069000007C010001000000005201000100010087
:1006A000010000003A004400700001000100010058
:1006B0003B00450071000100010001003C006800A2
:1006C00072000100010001003D006900730001009B
:1006D000010001003E006A0001000100000001006D
:1006E0003F006B0000000100000001003E006A00B6
:1006F00000000100000001003F006B00010001004C
:100700000000010040006C00010001000100010038
:1007100041006D00010001000100010042006E0077
:10072000010001000100010043006F000100010011
:10073000010001004C054C000257010001000000BF
:1007400005010980A101850319012AB700150126B9
:10075000B700950175108100C0050C0901A1018544
:100760000419012AA002150126A002950175108125
:1007700000C005010906A1018506050719E029E762
:10078000150025019508750181020507190029EF5B
:100790001500250195F0750181020508190129054B
:1007A000950575019102950175039101C005010937
:1007B00006A101050719E029E7150025019508752F
:1007C0000181029501750881010507190029FF15AE
:1007D0000026FF0095067508810005081901290506
:1007E000150025019505750191029501750391018B
:1007F000C009023B00020100A0FA09040000010345
:1008000001010009211101000122440007058103B3
:100810000800010904010001030000000921110181
:100820000001226D00070582032000011201000271
:1008300000000008973275490001010203011E0300
:10084000640065006600610075006C0074002F0094
:100850006C006100740065007300740000001603F2
:100860004500720067006F0064006F007800200090
:1008700045005A00000028035A00530041002000A0
:1008800054006500630068006E006F006C006F002C
:100890006700790020004C006100620073000000D6
:1008A0000403090400000000000000000000000034
:1008B0000000000000000000000000000000000038
:1008C00000000000000000007E0F00D4FFFFFFC703
:1008D0000000007800000000000000002A2B280023
:1008E00000000000000000000000000000000029DF
:1008F000000000002C1E3420212224342627252E1F
:10090000362D3738271E1F20212223242526333356
:10091000362E37381F0405060708090A0B0C0D0E82
:100920000F101112131415161718191A1B1C1D2F4E
:100930003130232D350405060708090A0B0C0D0E6E
:100940000F101112131415161718191A1B1C1D2F2E
:100950003130354CFFAA7F55402223252628292AED
:100960002C2D2F3032333536383A3B3D3E40424312
:100970004547494A4C4E5051535557595A5C5E6051
:1009800062646668696B6D6F71737577797B7D7F63
:1009900081838587898A8C8E90929496989A9C9E62
:1009A0009FA1A3A5A7A8AAACAEAFB1B3B4B6B8B97E
:1009B000BBBCBEBFC1C2C3C5C6C7C9CACBCCCDCEE6
:1009C000D0D1D2D2D3D4D5D6D7D7D8D9D9DADADBC9
:1009D000DBDBDCDCDCDCDCDDDDDDDDDCDCDCDCDC55
:1009E000DBDBDBDADAD9D9D8D7D7D6D5D4D3D2D294
:1009F000D1D0CECDCCCBCAC9C7C6C5C3C2C1BFBE7C
:100A0000BCBBB9B8B6B4B3B1AFAEACAAA8A7A5A3E6
:100A1000A19F9E9C9A98969492908E8C8A898785A5
:100A200083817F7D7B79777573716F6D6B69686684
:100A30006462605E5C5A5957555351504E4C4A4956
:100A400047454342403E3D3B3A3836353332302FFE
:100A50002D2C2A292826252322000101010101012C
:100A60000101010202020202020202020303030365
:100A70000303030304040404040404050505050535
:100A800006060606060707070707080808080909F3
:100A900009090A0A0A0B0B0B0C0C0C0D0D0D0E0E9E
:100AA0000E0F0F0F10101111111212131314141531
:100AB0001516161717181819191A1A1B1B1C1D1DA5
:100AC0001E1E1F20202122222324242526262728FB
:100AD00029292A2B2C2D2D2E2F303132323334352B
:100AE000363738393A3B3C3D3E3F4041424344452E
:100AF000464748494A4C4D4E4F505153545556580D
:100B0000595A5B5D5E5F616264656668696B6C6DB6
:100B10006F7072737577787A7B7D7E80828385872C
:100B2000888A8C8E8F91939596989A9C9EA0A2A36A
:100B3000A5A7A9ABADAFB1B3B5B7BABCBEC0C2C46F
:100B4000C6C9CBCDCFD1D4D6D8DBDDDFE2E4E7E92F
:100B5000EBEEF0F3F5F8FAFDFF0011241FBECFEF26
:100B6000DAE0DEBFCDBF11E0A0E0B1E0ECE7F1E6F6
:100B700002C005900D92A03EB107D9F724E0A0EE87
:100B8000B1E001C01D92AB37B207E1F70E94281314
:100B90000C94BC3035CAA6E0B0E0E1EDF5E00C9471
:100BA0000B2FFC012481222309F4E3C67C0161E0C0
:100BB000F1D78C01F7018581882309F454C3E091B2
:100BC0004703F0914803309709F462C00E171F07DE
:100BD00009F45EC0FF27E330F10540F464E0EE0F56
:100BE000FF1F6A95E1F7E05FFE4F02C0E0E0F0E032
:100BF00085818460858311830083CF010E944F1B10
:100C00001092450361E0C701C5D78C0181309E4732
:100C100009F042C0F7018581882309F429C3909126
:100C20007A0281E0890F8770987F853020F4892BC4
:100C300080937A0202C090937A0280917A02877040
:100C4000FFEF8F9FC0011124959587959595879506
:100C50009927909389008093880090938B008093CC
:100C60008A0090938D0080938C0040917A0250917D
:100C70007B0260917C0270917D028FE090E00E9487
:100C8000B42F8091A2029091A3020E94FE0EF0C2A6
:100C90000130FEE71F0719F201152EE7120709F4CC
:100CA000ABC0B0F40D3346E4140709F486C028F451
:100CB0000C3385E41807D1F1ABC007329AE4190769
:100CC00009F44DC00534ECE41E0709F45FC0A0C070
:100CD0000134FEE71F0781F030F400343EE71307CC
:100CE00009F482C095C002344EE7140769F003345A
:100CF0005EE7150789F08CC0F7018581882309F428
:100D00008CC08BEB91E00FC0F7018581882309F43B
:100D100084C088E791E007C0F7018581882309F442
:100D20007CC080E591E00E94E12277C0F7018681D6
:100D300082958F709581882341F0992319F080E581
:100D400091E007C080E591E008C0992321F080E59B
:100D500093E09AD776C280E593E036D772C2F70166
:100D6000868182958F709581882341F0992319F0AF
:100D70008AE490E0EECF8AE490E0EFCF992319F077
:100D80008AE492E0E6CF8AE492E0E7CFF701868139
:100D900082958F709581882341F0992319F08FE413
:100DA00091E1D7CF8FE491E1D8CF992319F08FE467
:100DB00093E0CFCF8FE493E0D0CFF7018681829587
:100DC0008F709581882341F0992319F08DE490E08C
:100DD000C0CF8DE490E0C1CF992319F08DE492E06B
:100DE000B8CF8DE492E0B9CFF7018581882309F46B
:100DF00028C261E081E0D3C1F7018581882309F42D
:100E000020C29091E20181E089278093E20119C21A
:100E10000337FCE71F0709F4C5C18091CC02882382
:100E200009F486C0D0904603C090D7030E94341ABC
:100E300088579C4E9093A00280939F02F701858172
:100E4000882309F475C08C2D8D298D7909F06BC02C
:100E50000034F2E51F07B0F4011522E5120708F08F
:100E600067C0011530E4130740F4011540E2140790
:100E7000E0F4063E1105B1F55BC0011550E515071C
:100E800048F130C0043B82E5180709F451C038F43A
:100E9000C801805692458034910520F549C0C801AB
:100EA000805C92458097F0F443C0F7018681807F93
:100EB000B1F4812F8F718231B9F028F4823099F525
:100EC00081EE90E013C0843199F1863161F586EEB0
:100ED00092E10CC0F7018681807F09F47AC0C801D5
:100EE000992704C0C80102C085EE90E01092450326
:100EF0008832910530F48E319105C0F4049798F052
:100F00000EC08D32910559F018F48A9779F00BC014
:100F10008C34910559F08D32924041F004C082E04A
:100F20008093450303C00E949D1C02C00E94292299
:100F3000C80197558F3F910511F008F045C0580141
:100F4000BB2423E0A216B1040CF07BC1C50144E030
:100F5000880F991F4A95E1F7AC01405F5E4F6A0127
:100F6000F7012581AC014B5E5E4F5A01FA01808189
:100F700020FB80F98083F7018581882309F431C142
:100F80000E94341A90939E0280939D02F601828102
:100F90008F5F82839091450380914603892B8383E1
:100FA0008091D70384834681578166857785C60102
:100FB0000E94341BF501808181FF10C190E080E028
:100FC0009093470380934803F7018581882309F4B0
:100FD00054C1C8019057839708F01FC184E090E086
:100FE0000E949D2F9093500380934F03F801E1508E
:100FF000F047E232F10520F4EA5AFF4F0C945930E1
:1010000080914F038160ACC0809150038860B4C070
:1010100080914F038260A4C080914F0320C08091D3
:101020004F0388609DC0809150031EC08091500383
:101030008260A2C080914F03806192C080914F0373
:1010400080628EC080914F0380648AC00E94812A92
:1010500080914F03806884C080914F0388608460D2
:101060007FC0809150038260816086C080914F0371
:101070008E7F76C080915003877F7EC080914F0322
:101080008D7F6EC080914F0320C080914F03877F7A
:1010900067C0809150031EC0809150038D7F6CC04B
:1010A00080914F038F7E5CC080914F038F7D58C02D
:1010B00080914F038F7B54C00E94812A80914F03FF
:1010C0008F774EC080914F03877F8B7F49C080917F
:1010D00050038D7F8E7F50C080914F0382FB22276B
:1010E00020F991E0922790FB82F990FB83F938C0B8
:1010F00080915003982F909591708E7F892B90FB53
:1011000081F93AC080914F0386FB222720F991E0B4
:10111000922790FB86F924C00E94812A80914F0378
:1011200087FB222720F991E0922790FB87F918C0CE
:1011300061E001C060E08EE090E00E94A22F1EC03E
:1011400080914F0384FB222720F991E0922790FBA6
:1011500084F906C080914F03982F909590FB80F9F9
:1011600080934F030BC08091500383FB222720F90B
:1011700091E0922790FB83F98093500360914F0395
:101180007091500384E090E00E94BC2F0E94812A5D
:1011900058C081608093F20361E0869586950E9435
:1011A000132C4FC0F7018581882309F44AC0809130
:1011B000CC02882319F00E949D1C43C01092460364
:1011C0000E94E61E0E94341A88579C4E9093A002FB
:1011D00080939F0281E08093CC0233C0902F812FB7
:1011E000EFCEF6014485558566857785C6010E9458
:1011F000341BF501808181FFE7CEC6010E943A1BB6
:1012000080914703909148038017910709F0DCCE45
:101210001092480310924703D7CE809146030631BF
:10122000FCE71F0709F056C38A7A91E009F490E0C1
:101230009093E30181111FC089E20E94A01A0E94CD
:1012400029228091AC03877009F493C3F70185814B
:10125000882309F48EC38091500382FF8AC382E001
:101260000E94FF1E86C301303EE7130709F014CD2C
:1012700001E01EE7D2CD85E3E0CF06312CE712076F
:1012800009F41EC39801205E324520323105A8F4CE
:10129000811113C00F7181E090E09C0102C0220F08
:1012A000331F0A95E2F78901622F83E090E00E94E4
:1012B000A22FC8010E94502AC4CFF701858188233C
:1012C000B1F103303CE71307E1F048F401155CE7A6
:1012D000150791F001308CE71807C9F028C00B35CD
:1012E0009CE7190709F10C35ECE71E07A9F00A3550
:1012F0001C47E9F481E019C081E05AD40E94DC194E
:10130000A0CF6FEF7FEF80E090E00E94BC2F80E0E5
:101310004FD40E94D11995CF8091500382FB88272A
:1013200080F991E0892701C080E00E941A1FF7012F
:10133000878190850097B9F4F7018581008111813B
:10134000882349F0C8010E948629D82E682FC80139
:101350000E94F72904C0C8010E94C429D82EB801F0
:101360008D2D0E94B41D0E94D11D182F092F86E0DB
:10137000F701DE01119601900D928A95E1F7F701D0
:10138000C580B680B2943FE0B3228091AC038770F1
:10139000F9F0CC20E9F0892F807F803461F080E281
:1013A000810F8830A8F0892F807E803221F412309E
:1013B00078F0BB2069F08091500382FF09C082E081
:1013C0000E94FF1E8091AC038770AA24A394811110
:1013D000A12C902E92942FE09222892D90E08C30B7
:1013E000910508F006C2FC01E858FF4F0C945930F3
:1013F000902F9F70802F807FD92E19F0D29490EF7C
:10140000D922CC20B9F0DD2009F4E1C180E2810FBE
:10141000883010F0111106C080914603D82AD0926E
:10142000460305C080914503D82AD09245030E9407
:101430002922CDC1812F0E942E2BDD2009F4D9C194
:1014400080E2810F883078F1112369F18D2D0E949F
:10145000F11E2CC0902F9F70802F807FD92E80325C
:1014600019F0D29480EFD822112321F0113009F421
:101470005FC068C08091500382FD1BC0CC2069F022
:10148000DD2039F080914603D82AD09246030E948D
:10149000292280E00E94562BACC180E00E942E2BB6
:1014A000DD2009F4A6C18D2D0E94F81E0E9429227C
:1014B000A0C1CC20C1F0BB2009F448C0F1E0BF12AC
:1014C00098C18091D7038D21D81609F492C10E944A
:1014D000341A9093D6038093D5038091D703D82AEA
:1014E000D092D70386C1B11084C18D2D0E941D2BCF
:1014F0008091D7039D2D982381F09D2D9095892370
:101500008093D703882319F00E94341A02C080E028
:1015100090E09093D6038093D5038091E4019D2DB4
:10152000982309F466C1D0948D218093E40161C1B0
:10153000CC2029F021E02B1508F45BC107C0B110C5
:1015400058C10AC0CC2031F0B11041C18D2D0E948C
:10155000242B4FC1B1103FC18D2D0E941D2B49C1BD
:10156000802F86958695837019F0813061F041C196
:10157000CC2021F0812F902F937002C080E090E06A
:101580000E94FE1A3DC1CC2021F0812F902F937034
:1015900002C080E090E00E94D71A32C1802F837091
:1015A00009F047C0C11029C1912F92959695977067
:1015B000990F990F612F6F7070E0092E02C0660FAE
:1015C000771F0A94E2F714FF0BC04FE050E002C00F
:1015D000440F551F9A95E2F79A012095309502C065
:1015E00020E030E0902F9695969593709230A9F078
:1015F000F0F44091770250917802913031F0CB01B4
:10160000822B932B8423952305C0CB01842B952B10
:10161000822B932B0E94502AF0C0CB01822B932B5C
:10162000209177023091780282279327F3CFCB0164
:10163000EFCFCC2019F0802F817001C086958823D0
:1016400009F4DBC0912F929596959770990F990F99
:10165000612F6F7070E0092E02C0660F771F0A9429
:10166000E2F714FF0BC04FE050E002C0440F551FDB
:101670009A95E2F79A012095309502C020E030E07B
:10168000902F969596959370923089F0D0F4409172
:10169000A2025091A302913031F0CB01822B932B07
:1016A0008423952311C0CB01842B952B0BC0CB0138
:1016B000822B932B2091A2023091A30282279327A1
:1016C00003C0CB01822B932B0E942B2A96C0802F24
:1016D0008F70D82ECC2031F00E94422A812F0E9498
:1016E000242B8BC0812F0E941D2B8D2D0E94322A0E
:1016F00084C0123F79F128F4103F41F0113F19F1F5
:1017000061C0133F71F1143FD1F05CC0CC2091F067
:10171000B1106FC0202F2F7181E090E002C0880FC0
:10172000991F2A95E2F72091A2023091A302822705
:10173000932727C091E09B1508F45BC0EBCF809105
:10174000500382FD21C0CC2039F0802F8F710E9480
:10175000422A4FC0CC20C9F3802F8F710E94322AB9
:1017600048C0CC2061F021E030E0902F9F71F9015A
:1017700002C0EE0FFF1F9A95E2F7CF0102C080E092
:1017800090E00E942B2A35C0CC2091F0802F8F71E1
:10179000F8E08F9F9001112423602093AC030E94F6
:1017A000422A0E94341A9093AB038093AA0321C06B
:1017B00081E00E94FF1E21E02B15D8F482E00E94F8
:1017C000FF1E17C0CC2029F0BB2009F4BECF812F0B
:1017D00061CEBB2009F2193349F43FEF47EE53E0E5
:1017E000315040405040E1F700C00000812F0E947E
:1017F0002E2B88EF890D843018F40E94251BA12C14
:10180000812F902F0E94552A882309F43FC0CC20B5
:1018100071F0BB2019F01092E90138C08091E80105
:101820008093E701809146038093E8012FC020E078
:1018300049815A816B817C818D8190E086D10091B4
:101840004603BB2019F01092E9011EC02091E5016A
:101850003091E60182179307B9F48091E90188235A
:1018600091F38091E7010E94242B193319F460E56C
:1018700070E002C060E070E0812F0E94C12B809177
:10188000E7010E941D2BDFCF0093E801AA20A1F001
:101890008091AC0380FD10C0F70115828695869576
:1018A00086950E94422AC70176D98091AC0386951D
:1018B000869586950E94322A60E0C7016BD159C097
:1018C0008091E301811104C089E20E94721AB7CCB1
:1018D00085E3FBCF8272F801E052F847EB30F10567
:1018E00010F081E0CFCCEC57FF4F0C945930809131
:1018F000F20380FF4ECC8E7F8093F20382EF93E061
:101900000E947E22109201040E9472269ACC8823A3
:1019100029F00E94502C95CC8823D9F30E94592C91
:1019200090CC882329F00E94032C8BCC8823D9F3F8
:101930000E940B2C86CC882329F00E94ED2B81CCB1
:101940008823D9F30E94F82B7CCC882329F00E94AD
:10195000D72B77CC8823D9F30E94E22B72CC882333
:1019600029F00E945C296DCC8823D9F30E94662956
:1019700068CC2696EBE00C94272F9C013A95211514
:101980003F4130F5BC0166277270AC0144275470AA
:101990009C012227387094FF0FC090FF02C080E1A5
:1019A00001C080E0672B09F08062452B09F080645C
:1019B000232B79F080680895892F8170672B09F0B7
:1019C0008260452B09F08460232B19F0886008950C
:1019D00080E00895FC018281813039F4958192FD87
:1019E00012C090FF10C082E00895823039F48581E2
:1019F00082FD06C080FD06C083E0089586E008955C
:101A000085E0089584E00895FC01EE0FFF1FEE0FBE
:101A1000FF1FDF01A551BE4F11966C9311974C9398
:101A200012962C93942F241708F4922F691708F418
:101A3000962FDF01A551BE4F13969C931397691BF8
:101A400011966C931197491B4C93291B12962C935A
:101A5000E95DFD4F9383618340832283089590E085
:101A6000FC01E259FE4F208121111AC0F894FC01BB
:101A7000E05AFE4F8081E82FE295EF70F0E031A14F
:101A8000282F2F7081E090E001C0880F2A95EAF797
:101A9000982F9095932391A392A1892B82A3789458
:101AA00008952AE030E04CE350E067E272E084E819
:101AB0000E94D22D8BB18F779BB190682FB7F8948D
:101AC000EBEEF1E032E0E732F30789F0319148E0E4
:101AD0009BB9000000C037FF8BB9330F000000C076
:101AE00000C000C08BB900C04A9591F7EBCF2FBF63
:101AF0008FE594E00197F1F700C000000895292FC9
:101B000033272115310519F0C90148E001C040E033
:101B10009C0164E0369527956A95E1F7211531051A
:101B200011F04C5FC9019C01369527953695279594
:101B30002115310511F04E5FC9019C01369527959D
:101B4000232B09F04F5F842F0895A6E0B0E0EBEA65
:101B5000FDE00C94132F49835A8349815A819923BC
:101B600061F0222351F0CA010E948629182F682FA4
:101B700089819A810E94F72904C0CA010E94C42960
:101B8000182F69817A81812F0E94B41D2696E3E087
:101B90000C942F2FFC0187819085009741F4262F0C
:101BA000408151816281738184819581CECF089576
:101BB0000E94812A2FEF84E39CE0215080409040D6
:101BC000E1F700C000000895CF93DF93EC010E947D
:101BD0002E2BCE01805E9109089710F0209729F4F2
:101BE000CE01CBDE0E941D2B04C0CE01C6DE0E94BA
:101BF0000C2BDF91CF9108958FE39CE90197F1F7CA
:101C000000C0000080916802833029F0853031F0F7
:101C1000813039F403C086EA90E002C087EA90E0A0
:101C2000D3DF1092680208958FE39CE90197F1F7E2
:101C300000C0000080916602833029F0853031F0C9
:101C4000813039F403C086EA90E002C087EA90E070
:101C5000BBDF1092660208958FE39CE90197F1F7CC
:101C600000C0000080916402833029F0853031F09B
:101C7000813039F403C08EEA90E002C088E490E03D
:101C8000A3DF109264020895CF93DF93EC01805E8E
:101C90009109089710F0209729F4CE016EDE0E947A
:101CA000242B04C0CE0169DE0E94132B8C2F0E94CE
:101CB000562BDF91CF9108950F931F93CF93DF930E
:101CC0008C01C99719F0C0E0D0E002C0C0E5D0E0B7
:101CD000C801DADF209741F08FE99FE00197F1F723
:101CE00000C000002197F6CFC8016EDFDF91CF91D1
:101CF0001F910F910895CF93DF93EC018A81833078
:101D000049F487EA90E0D8DF87EA90E0D5DF87EAF8
:101D100090E0D2DF8A81843018F087EA90E0CCDF4F
:101D2000DF91CF910895E7CF0895CF93DF93EC0132
:101D30008A81833049F488E490E0BEDF88E490E053
:101D4000BBDF88E490E0B8DF8A81843018F088E453
:101D500090E0B2DFDF91CF9108953CDE809368027E
:101D6000833029F0853031F0813051F406C086EAA5
:101D700090E005C087EA90E09FDF87EA90E084CF9B
:101D8000089528DE80936602833029F0853031F093
:101D9000813051F406C086EA90E005C087EA90E001
:101DA0008BDF87EA90E070CF089514DE80936402A1
:101DB000833029F0853031F0813051F406C08EEA4D
:101DC00090E005C088E490E077DF88E490E05CCFA5
:101DD000089527982F982F98089526982E982E9832
:101DE000089525982D982D980895279A2F9A08954B
:101DF000269A2E9A0895259A2D9A08951F93CF9387
:101E0000DF93EC017CDE182F5E98EBDFE6DFE1DF8D
:101E1000812F90E0FC013197E730F105B8F4E157EC
:101E2000FF4F0C945930E7DF28C0E2DF34C0DDDF1C
:101E300040C0E1DFDDDF4BC0DEDFD7DF56C0D8DFDB
:101E4000D4DF61C0D8DFD4DFD0DF6AC02091E201E7
:101E50008830910508F074C0FC01EA56FF4F0C94DD
:101E6000593021119BC00E94482C81E00E94462CD1
:101E70004091F50362EE86E860C08091E201811135
:101E80008DC00E94482C81E00E94462C4091F503B1
:101E90006FEF8CEB52C08091E20181117FC00E94F4
:101EA000482C81E00E94462C4091F5036FEF88E9B1
:101EB00044C08091E201811171C00E94482C81E0F0
:101EC0000E94462C4091F5036AED83EB36C0809169
:101ED000E201811163C00E94482C81E00E94462CDF
:101EE0004091F5036AED8CEA28C08091E2018111EE
:101EF00055C00E94482C81E00E94462C4091F50379
:101F00006AED82E31AC08091E201811147C00E940C
:101F1000482C81E00E94462C4091F5036FEF0CC0E5
:101F20008091E20181113AC00E94482C81E00E9418
:101F3000462C4091F50367E780E00E945A292EC0A5
:101F400021112CC082EF93E00E949F228091F20326
:101F500080FF19C081608093F20361E086958695C9
:101F60000E94132C8091F20361E0869586950E9471
:101F7000132C21E04091F5036091F4038091F30369
:101F80000E94F0280BC08E7F8093F20382EF93E0D3
:101F90000E947E22109201040E947226CE01DF91DF
:101FA000CF911F910895A1E0B0E0E9EDFFE00C941E
:101FB000122F8730F8F420910E0130910F01232B5E
:101FC000D1F521E030E0A90102C0440F551F8A95E8
:101FD000E2F7CA01809589830AE010E0AE014F5F05
:101FE0005F4F62E180E40E94182E90930F0180936E
:101FF0000E0121C090E0FC01E259FE4F2081211129
:102000001AC0F894FC01E05AFE4F8081E82FE29557
:10201000EF70F0E031A1282F2F7081E090E001C037
:10202000880F2A95EAF7932F982B91A392A1809578
:10203000892382A378942196E4E00C942E2F0F93A9
:102040001F93CF9305E711E0C7E0F80181918F015D
:10205000811102C08C2F03DDCF5FCE30B1F7CF915D
:102060001F910F910895A1E0B0E0E9E3F0E10C9435
:10207000122F082F8730C8F480910E0190910F0124
:10208000892BD9F519820AE010E021E030E0AE0199
:102090004F5F5F4F63E180E40E94602E90930F01D9
:1020A00080930E018981809529C07DDFAAE5B1E08A
:1020B00020E030E010E051E04D91E42FE295EF7028
:1020C000F0E080A190E04F7002C0959587954A9509
:1020D000E2F780FD07C0852F022E01C0880F0A9409
:1020E000EAF701C080E0182B2F5F3F4F2630310503
:1020F00019F7802FB4DC812F01C080E02196E4E045
:102100000C942E2FCF93DF93AAE5B1E040E651E087
:1021100061E070E0F8948D91E82FE295EF70F0E0C7
:1021200021A18F70EB0102C0CC0FDD1F8A95E2F771
:10213000CE019C2F9095922391A392A1892B82A3EB
:1021400078944A175B0731F7DF91CF910895A2E0A9
:10215000B0E0EDEAF0E10C94122F80E290E0909371
:102160000F0180930E018091EA0181110EC00E943F
:10217000552D81E08093EA012FEF83ED90E321500C
:1021800080409040E1F700C0000019828FE38A830D
:102190000AE010E022E030E0AE014F5F5F4F60E008
:1021A00080E40E94182E90930F0180930E01892BDA
:1021B00069F422E030E0AE014F5F5F4F6CE080E4F5
:1021C0000E94182E90930F0180930E0180910E01B2
:1021D0002296E4E00C942E2FA8E1B0E0E2EFF0E1CB
:1021E0000C94072F4B8B5C8B6D8B7E8B8F8B988F1A
:1021F000192F8823B1F020E0A8DC112339F01092C8
:10220000E9019093E6018093E5010BC02091E5017F
:102210003091E6018217930739F481E08093E90158
:1022200003C01111109245038E01065F1F4F89E014
:10223000D8011D928A95E9F786E0FE017396D801D0
:1022400001900D928A95E1F78091500382FF26C09C
:102250000E94341A2091AA033091AB03821B930B86
:102260008233914040F08091AC0382FB992790F932
:1022700081E0892701C080E080FF03C082E00E94E6
:10228000FF1E0E94341A2091D5033091D603821B81
:10229000930B8233914010F00E94E61E8E858111CF
:1022A0000CC00A851B852C853D854E855F85688918
:1022B00079898A890E94A22AC7C161E0C8016ADCC3
:1022C00061E0C80167DC61E0C80164DC6C01803555
:1022D000FCE79F0739F48F85882301F181E0809323
:1022E000470115C081352CE7920731F48F8588238B
:1022F000A9F00E94031C0BC082359C4779F48F859E
:10230000882361F080914701882341F3F2CFAA240A
:10231000A394B12CA114B10421F696C140914001BF
:1023200050914101EE24EA94FE2C90E0292F30E0F8
:10233000F901EE0FFF1FE40FF51F65917491C616AA
:10234000D70609F47901672B11F09F5FEFCF5FEF9C
:10235000E516F50609F42BC140914401411104C072
:1023600010914701212F02C020E030E0122F1170A0
:102370003F852091450180914601332309F4B6C081
:10238000112309F4B3C0211117C021E030E00E2C55
:1023900001C0220F0A94EAF7822B80934601209114
:1023A000CD023091CE022233310530F422E330E009
:1023B0003093CE022093CD0221E030E0D90102C05B
:1023C000AA0FBB1F9A95E2F7CD0101972091460114
:1023D00030E08217930709F0EBC0E0904303F090E0
:1023E0004403E114F10459F00E94341A8E199F0934
:1023F000C39728F081E08093440111E0D9C0809117
:102400004103009142038090400170904101A0E09F
:10241000B0E099249394801709F456C0282F30E037
:10242000F901EE0FFF1FE75CFC4F40815181452B06
:1024300019F4A0E4B1E002C0A0E0B0E06C90119605
:102440005C90119750E090E040E0E62DF52DE40F10
:10245000F11DE40FF11D6591749161157105A1F0F5
:1024600090E0E82DF72DE90FF11DE90FF11DE59042
:10247000F490E114F10431F06E157F0509F451E098
:102480009F5FEFCF4F5FE1CF5523C1F0941708F462
:10249000D7C01097A9F014969C921497E1E0A0344D
:1024A000BE0709F485C090914103891309C0C90191
:1024B0000196837099278093410302C0A0E0B0E0A9
:1024C000C90101968370A7CFA054B14009F470C030
:1024D00090E0FC01EE0FFF1FE75CFC4F11821082C1
:1024E0000196837099278093420362C0211116C020
:1024F00021E030E002C0220F331F9A95E2F721500D
:10250000310990E02817390709F042C0442309F443
:1025100040C080E090E00E947F1B3AC090E09C01A8
:1025200021503109282339230E2C02C09595879517
:102530000A94E2F7232B49F580FF27C080914201DE
:1025400090914301892BE9F0FE01319689E0DF018A
:102550001D928A95E9F788D7282F8B839C8384E086
:102560008D838091420190914301782F88879987CC
:1025700009811A813C8144E05E816F81892F0E942C
:10258000A22A1092450111E004C0182F117001C059
:1025900010E081E090E00E2C01C0880F0A94EAF769
:1025A00080959091460189238093460101C010E0F7
:1025B0008F85882371F1112361F156D790934403DD
:1025C000809343038091D0028830A0F591E0980F6A
:1025D0009093D00299E0FE013A96DE0111960190A7
:1025E0000D929A95E1F7BDE08B9FC00111248F52A7
:1025F0009D4F29E0FE013196DC0101900D922A9554
:10260000E1F72FEF3FEFFC0132872187D486C386A5
:1026100011C09091410380914203981719F00E94D4
:102620000F1C08C00E94AC1B10924403109243037D
:102630000E94F61B109510FBAA24A0F8B12C6ACEBC
:1026400081E080934401B4CF6896EFE00C94232F8F
:10265000A6E0B0E0EEE2F3E10C94042F85B78068C9
:1026600085BF85B7806885BF84B7877F84BF0FB675
:10267000F894A89580916000886180936000109222
:1026800060000FBE90E080E80FB6F8948093610080
:10269000909361000FBE81E080934B0187EA9CE13B
:1026A0009093E1018093E0016ED4E0D48091E20048
:1026B00084608093E20078948091E8038823A1F0FD
:1026C0001091E9001F709091EC00892F817090FDAE
:1026D00080E8182B1092E9008091E80083FD0E94A9
:1026E00097231F701093E90082E084BD93E095BDAD
:1026F0009AEF97BD80936E002ADD90E090930F01D2
:1027000080930E019CDCFEDCE9E6F2E0A0E8B2E09A
:1027100011921D9222E0E737F207D1F780E090E0B6
:102720000E949D2F833E9E4FE1F163EE7EEF80E09D
:1027300090E00E94BC2F60E082E090E00E94A22F17
:1027400081E090E0909378028093770261E083E0EB
:1027500090E00E94A22F60E074E184E090E00E948B
:10276000BC2F0E94632C10927A0210927B0210926E
:102770007C0210927D0284E080937A0240917A027A
:1027800050917B0260917C0270917D028FE090E01D
:102790000E94B42F40E050E0BA0183E190E00E9433
:1027A000B42F82E090E00E94902F80938E0284E00C
:1027B00090E00E949D2F9093500380934F030E94BE
:1027C0004821FFEF20E782E0F15020408040E1F710
:1027D00000C000000E9448218091800280FF07C055
:1027E0006FEF7FEF80E090E00E94BC2FE5D583E0A3
:1027F00090E00E94902F90E00E94502A8091A202C7
:102800009091A302FBDA8091790281112FC082EFAF
:1028100093E00E949F228091F2038C7F31F40E940A
:10282000632C82EF93E00E949F228091F203282F75
:102830002695269530E02115310519F483708460C2
:1028400005C02B32310524F08370886A8093F2032F
:1028500010920104F1D28091F20380FF04C08695AA
:1028600086950E94462C81E08093790289EA8093C4
:10287000800089E08093810024982C983F98479AA3
:1028800054985C9A55985D9A6E98769A569A8FE00D
:1028900090E00E94982F60937A0270937B0280935D
:1028A0007C0290937D0267701FEF169FB001112488
:1028B00075956795759567957727709389006093EF
:1028C000880070938B0060938A0070938D006093F2
:1028D0008C005E9886DA81DA7CDA8FEF90E0909354
:1028E00089008093880090938B0080938A00909356
:1028F0008D0080938C007FDA9FEFE0E7F2E091504B
:10290000E040F040E1F700C0000072DA2FEF80E70E
:1029100092E0215080409040E1F700C0000065DA6D
:10292000EFEFF0E722E0E150F0402040E1F700C097
:10293000000057DA8FEF90E7E2E081509040E040EE
:10294000E1F700C0000049DAFFEF20E782E0F15034
:1029500020408040E1F700C000003BDA80917A021D
:102960008770189FC0011124959587959595879537
:102970009927909389008093880090938B0080938F
:102980008A0090938D0080938C005E982ADA25DA75
:1029900020DA8091A2029091A30230DA84E091E0E3
:1029A00090934C0380934B0338E1A32EB12C4EE857
:1029B000C42E42E0D42E52E1752E66246394552431
:1029C00053948091E803853009F064C08091E80356
:1029D000853009F053C08091E803843009F435C094
:1029E0001092010480917F0281110DC060927F02DC
:1029F0008091F203982F917090937E028E7F809346
:102A0000F2030E9472261092510390E40FB6F894DC
:102A1000A895A09260000FBE9093600083B7817F5D
:102A2000846083BF83B7816083BF7894889583B7C0
:102A30008E7F83BF0FB6F894A8958091600088615F
:102A400080936000109260000FBE81DB90E0909355
:102A50000F0180930E01F3DA55DBE0E8F2E011920A
:102A6000CE16DF06E1F70E944821E0E8F2E081910E
:102A700081118FC1CE16DF06D1F7A8CF0E94812A1F
:102A8000E4D510927F0280917E0281110E94482C31
:102A90000E9470290E9448211FE8E12E12E0F12EC9
:102AA0002DE932E0A0E8B2E0F70191918D918927FC
:102AB0002E173F0719F08823C1F305C0811103C009
:102AC0000E94D2213BC0B0E88B2EB2E09B2E10E0DA
:102AD000F40121904F01F70130803224F1F000E041
:102AE00044244394832D842191F009831A83BCD418
:102AF0009C838B835D8291E0822D842109F490E098
:102B00009E8349815A816B817C818D8165DB0F5F5A
:102B1000440C063039F7F70120821F5FFFEFEF1AF0
:102B2000FF0A1E30A9F68FB7F894409152035091D6
:102B3000530360915403709155038FBF80914703F5
:102B400090914803892B01F100919D0210919E0202
:102B50008BD4801B910B8E379105B0F08091470389
:102B60009091480399278330910540F4A4E0880FA1
:102B7000991FAA95E1F7805F9E4F02C080E090E028
:102B8000FC01258122FF8BD580914701882339F1F3
:102B900000914303109144030115110501F164D420
:102BA000801B910B2091CD023091CE02281739075E
:102BB000B0F49091410380914203981751F02FD6C1
:102BC0001092CE021092CD02109244031092430351
:102BD00006C0C2D5109244031092430307D68091D9
:102BE000CC02882359F040D420919F023091A0025A
:102BF000821B930B8F3F9F4708F49FD6809101045F
:102C0000882309F4A4C080910004E091F203E695C2
:102C1000E695E81BE093FC03823059F4F0E0EC50B9
:102C2000FE4FE4910E2F10E0FDEDEF2EF8E2FF2EA7
:102C30006BC0863059F4F0E0EF50FE4FE4910E2F58
:102C400010E0EEECEE2EE8E2FE2E5EC0893061F47C
:102C5000E695F0E0E251FE4FE4910E2F10E071E6B0
:102C6000E72E78E2F72E50C08F3061F4E695F0E061
:102C7000E551FE4FE4910E2F10E065E0E62E68E28C
:102C8000F62E42C0853159F4F0E0E851FE4FE49150
:102C90000E2F10E05BEBE52E57E2F52E35C08831A4
:102CA000F9F0833249F4E6EEF1E00591149144EA3B
:102CB000E42E48E2F42E28C08432C9F08532F1F4C3
:102CC0008E2F63E00E942D30E92FF0E0ED51FE4F92
:102CD000E4910E2F10E03AE8E32E36E2F32E14C012
:102CE00008E210E027E4E22E27E2F22E0DC004EF06
:102CF00011E09AE1E92E97E2F92E06C000ED17E007
:102D000081E7E82E86E2F82E8091FD03882359F0B2
:102D10001092FD03A9D39093FB038093FA031092C2
:102D2000FF031092FE03A0D3E091FA03F091FB039E
:102D30008E1B9F0B8F3F9F4750F40E0F1F1F10934A
:102D4000FB030093FA038AEF93E0F70109957DD422
:102D50009091A102891769F08093A1028FB7F8942E
:102D60004091520350915303609154037091550365
:102D70008FBF6BD481FF02C038D823CE8091A202CE
:102D80009091A3020E947F0D833009F41ACE21D8BE
:102D900018CE8091E703882309F418CEE0E1E9BD5D
:102DA00079BC09B400FEFDCF8091D8008F7D80935F
:102DB000D8008091E00082608093E0008091E00084
:102DC00081FDFCCF0E94812A01CE2091E400309148
:102DD000E50095E64091EC00842F817040FF23C010
:102DE0008091E80080FD1DC08091E803882399F060
:102DF000853099F08091EB0085FD11C04091E40091
:102E00005091E5002417350729F3915011F09A01EC
:102E1000E1CF84E0089582E0089583E0089581E0A1
:102E2000089580E008954091E80042FFDDCF0895C5
:102E30000895809149010895579A08950F931F931B
:102E4000CF93DF938B01EA019091E8039430A1F5D1
:102E50008F708093E9008FEF9091E800815095FD8D
:102E600006C095ED9A95F1F700008111F5CF80919C
:102E7000E80085FF21C0A9DF811115C0209789F0E6
:102E80008091E80085FD06C08091E8008E778093F0
:102E9000E800F1CFF80181918F018093F100219733
:102EA000EDCF90E001C0982F8091E8008E7780935D
:102EB000E80081E0911101C080E0DF91CF911F9186
:102EC0000F91089543E050E0BC0182E0B7CF40E2AB
:102ED00050E0BC0182E0B2CFCF93DF93EC0148E039
:102EE00050E0BC0181E0AADF88E0FE01AEEDB3E076
:102EF00001900D928A95E1F7DF91CF9108951F928D
:102F00000F920FB60F9211242F933F934F935F931D
:102F10006F937F938F939F93AF93BF93CF93DF93E1
:102F2000EF93FF93C091E900CF708091EC00D82F10
:102F3000D17080FDD0E81092E9008091F000877F89
:102F40008093F00078940E9497231092E90080917A
:102F5000F00088608093F000CD2BCF70C093E90023
:102F6000FF91EF91DF91CF91BF91AF919F918F91A1
:102F70007F916F915F914F913F912F910F900FBE75
:102F80000F901F901895E8EDF0E080818E7F808390
:102F90001092E2001092DA001092E100A0EEB0E090
:102FA0008C9181608C9380818F77808319BCA7ED91
:102FB000B0E08C918E7F8C9380818F7E8083109285
:102FC000560308958091EA0387FF11C08091E800BD
:102FD00082FD05C08091E8038111F8CF11C0809176
:102FE000E8008B770BC08091E803882349F080913B
:102FF000E80080FFF8CF8091E8008E778093E800AA
:103000000895982F973068F59093E900981739F054
:103010007091EC002091ED005091F00003C0242F3E
:10302000762F50E021FD02C09F5FECCF3091EB0086
:103030003E7F3093EB003091ED003D7F3093ED000B
:103040003091EB0031603093EB007093EC002093F3
:10305000ED005093F0002091EE0027FDE5CF80E0D9
:1030600008958F708093E90081E00895A0E0B0E0BA
:10307000ECE3F8E10C940E2FC8EDD0E088818F7E50
:103080008883E7EDF0E080818160808384E082BF07
:1030900081E08093560388818E7F888302EE10E062
:1030A000F80110821092DA0081EEC82ED12CF601C0
:1030B000108288818F77888388818068888388815F
:1030C0008F7D888319BC1092E8031092E903109257
:1030D000E7031092E60390EEE92EF12CF7018081D0
:1030E0008B7F808388818160888342E060E080E01C
:1030F00088DFF60180818E7F8083F8018081816086
:103100008083808188608083F70180818E7F8083C7
:10311000888180618883CDB7DEB7E8E00C942A2FE0
:103120001F920F920FB60F9211242F933F934F933C
:103130005F936F937F938F939F93AF93BF93EF931F
:10314000FF938091E10082FF09C08091E20082FF3D
:1031500005C08091E1008B7F8093E1008091DA00CF
:1031600080FF28C08091D80080FF24C08091DA00C1
:103170008E7F8093DA008091D90080FF16C080E1B5
:1031800089BD82E189BD09B400FEFDCF81E0809355
:10319000E8038091560381110DC0F5DE67DF809151
:1031A000E20084608093E20005C019BC1092E8033D
:1031B000109256038091E10080FF1AC08091E200D6
:1031C00080FF16C08091E2008E7F8093E2008091A4
:1031D000E20080618093E2008091D8008062809359
:1031E000D80019BC85E08093E80383E080934B010D
:1031F0008091E10084FF37C08091E20084FF33C0FA
:1032000080E189BD82E189BD09B400FEFDCF8091D6
:10321000D8008F7D8093D8008091E1008F7E8093CD
:10322000E1008091E2008F7E8093E2008091E200D5
:1032300081608093E2008091E903882311F084E0AB
:1032400007C08091E30087FD02C081E001C083E0F8
:103250008093E8038091E803843011F081E001C09D
:1032600082E080934B018091E10083FF2BC080912D
:10327000E20083FF27C08091E100877F8093E10017
:1032800082E08093E8031092E9038091E1008E7F51
:103290008093E1008091E2008E7F8093E200809134
:1032A000E20080618093E20042E060E080E0A9DE1D
:1032B0008091F00088608093F00081E080934B0162
:1032C00080934A01FF91EF91BF91AF919F918F91B0
:1032D0007F916F915F914F913F912F910F900FBE12
:1032E0000F901F9018952091F0033091F10326174D
:1032F000370748F06115710539F42091E8002E7701
:103300002093E80001C0B901FC0120E061157105BE
:1033100079F18091E8038823F1F18530F1F1809112
:10332000E80083FD3CC08091E80082FD2EC08091C2
:10333000E80080FFEBCF2091F3008091F20090E055
:10334000922B6115710551F08830910538F4219167
:103350002093F100615071090196F3CF21E00897A5
:1033600009F020E08091E8008E778093E800CECFCE
:103370002111CFCF0AC08091E803882361F0853006
:1033800061F08091E80083FD0AC08091E80082FF2F
:10339000F2CF80E0089582E0089583E0089581E00F
:1033A00008959AE088E10FB6F894A895809360009C
:1033B0000FBE90936000FFCFF89481E08093E0000F
:1033C00080E28093D800E9ECF0E010828FE19EE487
:1033D0000197F1F700C000001DBA109268001CBCF4
:1033E00010BE1FBA10927A0010926E0010926F00F9
:1033F00010927100109272001082ECEBF0E01082DB
:1034000014B817B81AB81DB810BA108215B818B881
:103410001BB81EB811BA0C94003F089578941F92FF
:103420000F920FB60F9211248F939F93AF93BF9378
:103430008091520390915303A0915403B09155038E
:103440000196A11DB11D8093520390935303A09345
:103450005403B0935503BF91AF919F918F910F90FB
:103460000FBE0F901F9018952FB7F89480915203BC
:1034700090915303A0915403B09155032FBF089529
:103480001F920F920FB60F9211248F939F93AF93B9
:10349000BF9380915103811113C080915203909189
:1034A0005303A0915403B09155034196A11DB11D42
:1034B0008093520390935303A0935403B093550306
:1034C000BF91AF919F918F910F900FBE0F901F9062
:1034D0001895CF93DF93EC01C7DF8C1B9D0BDF9119
:1034E000CF91089590914A01913021F490914F032A
:1034F00097FD03C0E4EAF2E01DC0E82FE695E695EB
:10350000E695EE31E0F4F0E0E455FD4F877021E000
:1035100030E0A90102C0440F551F8A95E2F7CA01A5
:1035200080959281892382830895319652E0EA3A08
:10353000F50729F092818913F8CF1282F6CF08950A
:1035400090914A019130D1F490914F0397FF16C0AA
:10355000E82FE695E695E695EE3140F5F0E0E45586
:10356000FD4F877021E030E0A90102C0440F551FD4
:103570008A95E2F7CA019281892B16C0A6EAB2E0C9
:10358000EFEF90E02D91821789F0EF3F19F42111B0
:1035900001C0E92F9F5F9630A9F7EF3F39F00E2E5B
:1035A000000CFF0BEC55FD4F828308950895A3E0B6
:1035B000B0E0EDEDFAE10C94142F20914D03309121
:1035C0004E0328173907B1F090934E0380934D03B3
:1035D000E0914B03F0914C03309761F00084F1854A
:1035E000E02D309739F024E029839B838A83CE0134
:1035F000019609952396E2E00C94302FA3E0B0E009
:10360000E4E0FBE10C94142F2091490330914A032C
:1036100028173907B1F090934A0380934903E0914A
:103620004B03F0914C03309761F00084F185E02D5D
:10363000309739F023E029839B838A83CE0101965A
:1036400009952396E2E00C94302FE0914B03F09122
:103650004C03309739F00190F081E02D309711F054
:103660000995089580E008954115510511F0FA017A
:1036700009950895CF93DF93EC014A855B856E85AC
:103680007F85F2DF8B81ADD38C81B2D3E2D686E029
:10369000FE0111928A95E9F7DF91CF910895CF93BA
:1036A000DF93EC018D8181FD15C082608D83909147
:1036B00045038B81892B80934503909146038C8130
:1036C000892B80934603C5D6488559856E857F85AD
:1036D000CE01CADF10924803109247038D8180FD0E
:1036E00002C0CE01C7DFDF91CF910895DC01ED91DB
:1036F000FC91119784913196ED93FC930895BC0150
:103700004091410380914203942F981721F1292F72
:1037100030E0F901EE0FFF1FE75CFC4F0190F081F4
:10372000E02DE617F70791F4672B19F4E0E4F1E0D8
:1037300002C0E0E0F0E081E0848394130CC02F5FCE
:103740003F4F237033272093410308952F5F3F4F4E
:10375000922F9370DACF0895EF92FF920F931F93F9
:10376000CF93DF938091D0028823D9F1C091CF020B
:103770008DE0F82E8091D002C81778F5EE24E394FE
:10378000EC0EE092CF02D0E0FC9EF001FD9EF00D29
:103790001124EF52FD4F84818823E9F087819085C1
:1037A000892B21F481859285019659F4008111813C
:1037B00022813381448155816681778180850E9491
:1037C000A22AFC9EF001FD9EF00D1124EF52FD4F48
:1037D000148210924503CE2DCDCF1092D0021092BC
:1037E000CF02CDB7DEB7E6E00C942C2F1092CE02BC
:1037F0001092CD0280914501811104C010924401C4
:1038000010924601089510924403109243031092BF
:1038100047018091420380934103E8DF9DCFA0E000
:10382000B0E0E5E1FCE10C94042FC091410301E01C
:1038300010E09DE0392E24E0422E7724739480918D
:103840004203C81709F472C0D0E0FE01EE0FFF1F5B
:10385000E75CFC4F80819181009719F0A0E0B0E017
:1038600002C0A0E4B1E014962C91149721115BC022
:103870005090D00241ED52E020E030E0612C25155F
:1038800008F050C0FA0183849484AD90BC901197E5
:103890006FEF7FEF212CC22CD12CF601EE0FFF1F12
:1038A000EA0DFB1DE590F4908E149F0409F4B60117
:1038B000E114F10411F02394EECF6F3FFFEF7F0787
:1038C00061F1F80102C0EE0FFF1F6A95E2F76E2A60
:1038D000B801022C02C0660F771F0A94E2F761500C
:1038E0007109E62DF0E06E177F07A9F412964D914D
:1038F0005C911397329EF001339EF00D1124EF522C
:10390000FD4F5087478344821082118292878187BE
:1039100015967C9207C0FA0114822F5F3F4F435FD8
:103920005F4FADCFECDE2196C37089CF15DF5EDF30
:10393000CDB7DEB7E2E10C94202F8091CC02882332
:1039400029F082E20E940C2B1092CC02089580E0B4
:10395000089590914F0392FF10C041E0282F2471E9
:10396000243009F040E031E0282F2871283009F098
:1039700030E0431711F02CE0822793FF10C041E0A4
:10398000282F2471243109F040E031E0282F2871DC
:10399000283109F030E0431711F02CE082273091F4
:1039A000500330FF10C051E0282F2171213009F061
:1039B00050E041E0282F2871283009F040E05417EA
:1039C00011F029E0822731FF10C041E0282F21713A
:1039D000213109F040E031E0282F2871283109F029
:1039E00030E0431711F029E0822794FD877E089587
:1039F0008238910569F1B0F48133910509F475C0FD
:103A000048F48932910509F467C08A32910509F4B6
:103A100071C008958533910509F459C08933910522
:103A2000B9F00895833E910589F138F4803E9105FF
:103A3000D1F0823E910529F10895863E9105C9F1A4
:103A4000873E9105D9F1843E910509F06CC027C0ED
:103A500020914F0320FD57C021FD55C020915003F8
:103A600023FD5BC0089580914F0380FD48C0809185
:103A7000500380FF48C080914F0384FD46C083EE11
:103A800051C080914F0382FF3CC0F5CF80914F031E
:103A900082FD37C08091500380FD35C0ECCF80910E
:103AA000500381FF36C080914F0384FD2EC087EE06
:103AB00039C080914F0383FF2AC0F5CF80914F0317
:103AC00083FD25C08091500381FD23C0ECCF809100
:103AD0004F0385FD22C01FC080914F0385FD1BC091
:103AE0008091500383FF19C00AC080914F0386FD67
:103AF00016C017C080914F0386FD13C010C089E324
:103B000011C082EE0FC080EE0DC080E00BC086EECB
:103B100009C084EE07C085E305C089E203C08AE2DC
:103B200001C081E390E008952091A9039091600382
:103B300059E02917A9F030E0529FF001539FF00D92
:103B40001124EF59FC4F7181761306C070817813F0
:103B500003C07581741306C02F5F3F4F2770E9CFF4
:103B600080E0089581E008957E30B0F46630A0F4DE
:103B70008830A0F494E5899FF001112486E0789FB5
:103B8000E00DF11D1124E60FF11DEE0FFF1FE050B7
:103B9000FE4F85919491089580E001C081E090E00E
:103BA00008951F93CF93DF9323DFEC01C11580E5C8
:103BB000D807E8F5C11590E4D90708F0A6C0C03EC3
:103BC000D10530F5CD3CD10508F094C0C83AD105F7
:103BD00078F4C53AD10508F083C0C130D10509F4A5
:103BE0007CC008F4EBC0C430D10508F0EAC0E6C0E0
:103BF000C33CD10508F0E2C0C85AD0E0CC0FDD1FAD
:103C0000C158DE4F0990D881C02DCE019464DAC02E
:103C1000C11580E2D80708F0C6C0C11591E0D907E8
:103C200008F06BC0C83ED10508F4CBC0C7C0C03691
:103C300082E5D80728F5C03492E5D90708F076C0A8
:103C4000C03282E5D80708F069C0C11592E5D907EE
:103C500008F47EC04C2F4695469580E2489FA0010F
:103C60001124C37021E030E0C90102C0880F991F00
:103C7000CA95E2F7EA01C82BD92BCE019D68A2C0F4
:103C8000C03A82E5D807B8F48C2F8F71C03892E51E
:103C9000D90708F077C08695869590E2899F9001B4
:103CA0001124C37081E090E002C0880F991FCA956B
:103CB000E2F79A6864C0C03C82E5D80708F469C09E
:103CC000C03E92E5D90708F079C0CF71DD27DC2F1F
:103CD000CC27CE01806F906A75C081E090E072C001
:103CE000C55AD0E0C458DE4F8881C82FD0E0CE013D
:103CF000906468C0CE01906565C08D2F2ADE182FB4
:103D0000CE01992775DE1F7157C0CE01992770DE4D
:103D1000CC27DF70D06A8C2B9D2B54C0CF71D0E0A4
:103D2000DC2FCC27CE01816F906A4CC08C2F8F7115
:103D30008695869590E2899F90011124C37081E059
:103D400090E002C0880F991FCA95E2F79C6817C0DF
:103D50008C2F8F71FEDD95E0D695C7959A95E1F78A
:103D6000CF70D0E0DC2FCC27282F30E084FF05C0B7
:103D700084E0220F331F8A95E1F7D069CE01822BB0
:103D8000932B20C090E0D82FCC27CE01846F906A6F
:103D900019C08C2F8F71DDDD8F7190E0D82FCC276B
:103DA000CE0190620FC08D2F8F71D3DD182FCE0101
:103DB00099271EDE1F719062912B04C080E090E075
:103DC00001C0CE01DF91CF911F9108958091D7035B
:103DD000882331F01092D7031092D6031092D503A6
:103DE0000895809590914503892380934503089514
:103DF000809590914603892380934603089590917E
:103E0000AC03809589238093AC03282F277089F415
:103E1000981779F09091500392FF0BC08695869584
:103E200086950E94322A1092AC031092AB03109236
:103E3000AA0308959091500392FB222720F9281796
:103E400071F080FB92F99093500360914F03709151
:103E5000500384E090E00E94BC2F82E0D0CF089510
:103E60008091A90390916003891719F08F5F877083
:103E7000FBCF0895CF93DF9380915D0382958F7080
:103E800009F04DC080915C03882309F448C08091FB
:103E9000A903409160035091580360915703C0916A
:103EA0005903D0915A0379E08417C9F190E0789FC3
:103EB000F001799FF00D1124DF01AF59BC4F14962A
:103EC0002C911497222341F111962C9111972513CF
:103ED00023C02C91261320C015962C9115972111E3
:103EE0001BC012962D913C9113972C1B3D0B2D3727
:103EF000310590F480915D038F70806180935D0344
:103F0000E959FC4F80818F708061808387E593E061
:103F10000E94CB05A5DF03C001968770C5CFDF9156
:103F2000CF910895A8E1B0E0E8E9FFE10C940A2FF1
:103F30008C0186E0F801DE01539601900D928A957E
:103F4000E1F7F8018481E58097E5892E93E0992EC9
:103F500090915B0391111FC0882309F492C1EE2058
:103F600009F441C0C8010E94702AF82E8823D9F1B3
:103F700089E0F801D40101900D928A95E1F78091D2
:103F80005B03813031F480915703909158030E9474
:103F9000B82970DF78C1F801D080C180A280B380D9
:103FA000F0905C032091590330915A03FF2009F4EB
:103FB0000DC1A501421B530B4D37510508F0B3C08D
:103FC000882309F460C180915D03282F207F9091A0
:103FD0005803222361F09C1509F467C0C8010E94B0
:103FE000702A811174C0C8010E94CB054AC19C117E
:103FF0001CC0909157039D1118C040915E035091D1
:104000005F03278130854217530779F4E1100DC013
:104010008F70806180935D0387E593E00E94CB05FC
:1040200080915D03F80186832AC1E11038C040E029
:104030006C2D8D2D79DD40E06C2D8D2D75DDE82EFC
:1040400081111DC1DB8ACC8A8B899C890E94B82989
:10405000292F22952F70243020F49F70223028F0D1
:1040600009C02A50223080F014C0992349F08111F0
:1040700007C013C0992321F0F8019681907F69F061
:10408000805E883030F409C0803F38F0815F833033
:1040900020F0C8010E94CB05EF2CFE2CF4C08091CB
:1040A0005D03816080935D03EAC0909157039D1189
:1040B00095CF40915E0350915F03F80127813085D1
:1040C0004217530709F08ACFE11088CFB7C0EE201E
:1040D00009F489CF20915D03822F82958F7090E043
:1040E0000297BCF080915703909158039B878A8771
:1040F000BD86AC8680915B038E871F86288B80915E
:104100005E0390915F039A8B898BCE010A960E9481
:10411000CB0589E0F801A7E5B3E001900D928A95FF
:10412000E1F7A8DEAEC090915D03292F207F51F406
:1041300087E593E00E94CB0589E0F40111928A950E
:10414000E9F79DC0882309F49EC0809158038C1123
:1041500015C0809157038D1111C040915E0350919D
:104160005F03F801278130854217530739F4E110C6
:1041700005C09683C8010E94CB057BC0C8010E9480
:10418000702A882309F42FCFEE2009F42CCF209138
:104190005D03822F82958F7090E002970CF4B9CF67
:1041A00080915703909158039A838983BC82AB8294
:1041B00080915B038D831E822F8380915E0390919B
:1041C0005F0399878887CE010196A1CFA21AB30A0F
:1041D000FDE7AF16B10408F04CC0882309F451C0C4
:1041E000FE2CEE2009F4FFCE809158038C1133C0D1
:1041F000809157038D112FC020915E0330915F0392
:10420000F801878190852817390729F580915D038A
:1042100080FD18C082958F70482F50E041155105E0
:1042200089F020915D0326834F30510541F08F5F67
:10423000982F9295907F822F8F70892B8683C8014B
:104240000E94CB0589E0F801A7E5B3E001900D924B
:104250008A95E1F718C0C8010E94702A811159CFD0
:1042600080915D03816080935D03C8010E94CB054E
:104270000AC089E0F40111928A95E9F704C0F12C93
:1042800002C0FF24F3948F2D6896ECE00C94262F47
:10429000EF92FF920F931F93CF93DF9380910E01C4
:1042A00090910F01892BD1F08091DA038F5F809379
:1042B000DA03811113C00E94A71090E090930F01C0
:1042C00080930E01892B51F42FEF83EC99E021505C
:1042D00080409040E1F700C0000063D809E612E09A
:1042E000C0E0D0E087E0E82EED0E8D2F0E94D30FC6
:1042F0008E2D0E94D30F8D2F0E9433108F73F801E3
:104300009081891721F08083FF24F39401C0F12C60
:104310008E2D0E9433108F73F8019781891719F041
:10432000878381E001C080E0F82ACF290E941F1016
:10433000DF5F0F5F1F4FD730A9F6CC2351F081E02C
:104340008093DD0391D89093DC038093DB03C0E07E
:1043500023C08091DD038823F9F00091DB031091E5
:10436000DC0382D8801B910B4997B0F04EE050E0FF
:1043700069E672E080E892E00E94AF30892B51F04C
:104380008EE0E9E6F2E0A0E8B2E001900D928A95B5
:10439000E1F7C1E01092DD038C2FCDB7DEB7E6E088
:1043A0000C942C2FA6E0B0E0E8EDF1E20C94122F73
:1043B0005BD88C018091D8039091D9030817190715
:1043C00079F019821A8250D8682F49815A81792F41
:1043D00080E090E00E94EC101093D9030093D80382
:1043E0002696E4E00C942E2FCF93C0914603809143
:1043F0004503C82B8091D703882341F135D82091FC
:10440000D5033091D603821B930B8233914008F081
:10441000DDDC8091D703C82B80914A01813041F4C3
:1044200080914F0387FF04C02EE18EEA92E003C023
:1044300026E086EA92E0FC0180E0215028F091918C
:104440009923D9F38F5FF9CF8111C0DC8C2FCF91E5
:10445000089580914A01813061F580914F0387FF73
:1044600028C0C2DF8093AD0240E250E06DEA73E005
:104470008CEA92E00E94AF30892B09F43EC080E2C2
:10448000ECEAF2E0ADEAB3E001900D928A95E1F733
:10449000E0914B03F0914C03309779F10480F58162
:1044A000E02D309751F186E08093AC028CEA92E0E7
:1044B00023C09ADF8093A40248E050E06DEC73E0E3
:1044C00084EA92E00E94AF30892BB9F088E0E4EAF8
:1044D000F2E0ADECB3E001900D928A95E1F7E09146
:1044E0004B03F0914C03309741F00280F381E02DB3
:1044F000309719F084EA92E0099508950F93CF93CD
:10450000DF93C2EFD3E0488159816A817B8188E0E3
:1045100090E00E94B42F288139814A815B816C81AF
:104520007D818E819F8100E20E948630622F83E22E
:1045300090E00E94A22FDF91CF910F9108954F92AA
:104540005F926F927F928F929F92AF92BF920F93E2
:10455000CF93DF9388E090E00E94982F2B013C01DD
:10456000C2EFD3E0688359826A827B821C821D82FB
:104570001E821F8283E290E00E94902F282F30E05D
:1045800040E050E060E070E080E090E000E20E94F7
:104590006B302429352946295729288339834A83B2
:1045A0005B836C837D838E839F83DF91CF910F919B
:1045B000BF90AF909F908F907F906F905F904F9043
:1045C0000895A2E0B0E0E7EEF2E20C940C2F9A839B
:1045D00089838AE0A82ECE01019688D8882309F421
:1045E000A2C0813009F049C0CE0101967FD8813048
:1045F00059F4CE0101967AD8893319F060E070E061
:104600008FC060E570E08CC0823031F4CE0101963D
:104610006DD80E94562BDFCF833031F4CE01019646
:1046200065D80E942E2BD7CF843021F5CE0101967C
:104630005DD800E010E0282F30E0205331092A3007
:10464000310560F4A09EC001A19E900D1124890146
:10465000080F191FCE01019649D8EDCF011511059C
:1046600049F0EFE9FFE03197F1F700C00000015099
:104670001109F4CF8111AFCF56C0E82FF0E0EC5212
:10468000F74FB490282F26952695269530E0F9010E
:10469000EC53F74FE4908770F12C082E02C0F5948C
:1046A000E7940A94E2F7F1E0EF22FF24F901EC54D9
:1046B000F74FC490D12C082E02C0D594C7940A9409
:1046C000E2F791E0C922DD24F901EC55F74F04919E
:1046D00010E002C0159507958A95E2F70170112741
:1046E000E114F10411F081EEE1D7C114D10411F00D
:1046F00086EEDCD760E070E08B2D0E94C12BC114E8
:10470000D10411F086EEAAD7E114F10411F081EE84
:10471000A5D70115110509F45ECF60E070E08CE2C9
:104720000E94C12B58CF2296EAE00C94282FAAE2CF
:10473000B0E0EDE9F3E20C94132FEAEEF3E082EF40
:1047400093E02091F10021938E179F07D1F780917C
:10475000EB03833009F461C030F4813071F08230B2
:1047600009F49FC0B6C08A3009F48BC08B3009F4BD
:104770006CC0893009F0ADC020C08091EA03813A55
:1047800009F0A7C08091E800877F8093E8008091BE
:10479000EE039091EF03892B21F468E08EED93E016
:1047A00003C060E080E090E070E00E9473198091A7
:1047B000E8008B778093E8008CC08091EA03813217
:1047C00009F087C08091EE039091EF03029708F003
:1047D00080C08091E800877F8093E8008091E800A6
:1047E00082FD05C08091E8038111F8CF72C020914D
:1047F000F3008091F20090E0922B029731F48091C7
:10480000F100813011F0863021F48091F100809325
:1048100049018091E8008B7758C08091EA03813A82
:1048200009F057C08091EE039091EF03892B09F0B6
:1048300050C08091E800877F8093E8008091E80075
:1048400080FFFCCF80914A013BC08091EA03813216
:1048500009F03FC08091EE039091EF03892BC9F5D9
:104860008091E800877F8093E8000E94E21781E052
:104870009091EC03911101C080E080934A0141D6F0
:1048800028C08091EA03813221F58091E800877F7A
:104890008093E8000E94E2178091ED038093480125
:1048A00018C08091EA03813AA1F48091E800877FE3
:1048B0008093E8008091E80080FFFCCF8091480160
:1048C0008093F1008091E8008E778093E8000E9449
:1048D000E2178091E80083FFE2C18091EA039091A2
:1048E000EB03492F50E04A30510508F0D8C1FA01D6
:1048F000E256FF4F0C945930803821F0823809F08D
:10490000CEC108C08091E6039091E703992389F016
:1049100082600FC08091EE038F70873008F0BFC1B6
:104920008093E9008091EB0085FB882780F9109245
:10493000E9009091E800977F9093E8008093F10060
:104940001092F10072C1282F2D7F09F0A8C1882391
:1049500019F0823061F0A3C18091EC03813009F03D
:104960009EC1933009F080E08093E7032EC08091D0
:10497000EC0381112AC08091EE038F702FEF280F76
:10498000263008F08CC18093E9002091EB0020FFD5
:104990001CC0933021F48091EB00806214C0909190
:1049A000EB0090619093EB0021E030E0A90102C0A0
:1049B000440F551F8A95E2F74093EA001092EA00EF
:1049C0008091EB0088608093EB001092E900809169
:1049D000E800877F2DC1811162C11091EC031F7720
:1049E0008091E3008078812B8093E3008091E80040
:1049F000877F8093E8000E94E2178091E80080FFA3
:104A0000FCCF8091E30080688093E300111102C025
:104A100082E001C083E08093E80341C18058823086
:104A200008F03DC18091EC039091ED038C3D53E083
:104A3000950779F583E08A838AE289834FB7F894F2
:104A4000DE01139620E03EE051E2E32FF0E05093C8
:104A50005700E49120FF03C0E295EF703F5FEF70D5
:104A60008E2F90E0EA3010F0C79601C0C0968D936B
:104A70009D932F5F243149F74FBF8091E800877FD6
:104A80008093E8006AE270E0CE0101960E947319FB
:104A9000BAC04091EE035091EF03292F3327233002
:104AA0003105B1F068F42130310509F407C1223035
:104AB000310509F0F4C08BE390E0E1EFF7E050C07E
:104AC0002132310581F12232310509F439C0E7C0C4
:104AD000992781309105B9F070F082309105D9F0B5
:104AE000039709F0DCC0EEE3F8E0E4918E2F90E04C
:104AF000EEE3F8E032C0E0EAF8E0E4918E2F90E0D7
:104B0000E0EAF8E02AC0E6E7F8E0E4918E2F90E0D2
:104B1000E6E7F8E022C0EEE5F8E0E4918E2F90E0C1
:104B2000EEE5F8E01AC04115510509F4CCC041305A
:104B3000510509F0B4C089E090E0ECE1F8E010C064
:104B40004115510509F4C4C04130510509F0A7C011
:104B50008DE690E0E0E4F7E003C0009709F49FC021
:104B60002091E800277F2093E8002091F003309106
:104B7000F1038217930708F49C0140E021153105E9
:104B800089F18091E803882309F43DC08530D9F18B
:104B90008091E80083FD37C08091E80082FD2FC03E
:104BA0008091E80080FFEACF4091F3008091F2000D
:104BB00090E0942B2115310559F08830910540F48F
:104BC00044914093F1003196215031090196F2CF82
:104BD00041E0089709F040E08091E8008E778093EB
:104BE000E800CCCF4111CDCF0AC08091E8038823E3
:104BF00051F0853041F08091E80083FD04C0809140
:104C0000E80082FFF2CF8091E8008B778093E80084
:104C100046C0803809F043C08091E800877F8093C8
:104C2000E8008091E9038093F1008091E8008E779D
:104C30008093E8000E94E21732C0811130C0809159
:104C4000EC039091ED03992702974CF58091E800D1
:104C5000877F8093E8001091EC031093E9030E9492
:104C6000E217111106C08091E30087FD02C081E0C8
:104C700001C084E08093E80342E061EC81E00E949F
:104C8000011842E261EC82E00E9401188091E80381
:104C9000843011F081E001C082E080934B0180916B
:104CA000E80083FF1AC08091E800877F8093E800C6
:104CB0008091EB0080628093EB000FC082E190E076
:104CC000ECE2F8E04DCF89E090E0E3E0F8E048CF97
:104CD00084E490E0EDEAF7E043CFAA96E3E00C9499
:104CE0002F2F0895CF93DF938091F20380FF05C0AB
:104CF0000E94510DDF91CF910895C0E0D0E020E0F7
:104D000040E060E0CE010E94040D2196CF30D10535
:104D1000B1F7EECFA0E0B0E0E0E9F6E20C94092FA5
:104D2000FC018280748081E08483E9E5F9E094905D
:104D3000E8EDF9E0E4910091F5030695015810E0E3
:104D4000000F111F012F1127C4E0D4E0C12CD12C7A
:104D5000AA24AA94B12CE919EE2EF12C22E02815F0
:104D600030F08091F30388838091F403898371107C
:104D700003C01B821A824AC08B818823F9F08150BC
:104D80008B832FEF829FC00111246C8170E00E9401
:104D9000F02EFB01FF27E75AF64F8491E82FE9191F
:104DA0002FEFE29FC0011124B7010E94F02E8091E5
:104DB000F503689FB00111247A8328C00E94822FD6
:104DC000B5010E9446308017910704F582E08815EE
:104DD00088F40E94822FB5010E94463088830E9489
:104DE000822F2091F4032695622F70E00E944630B6
:104DF000280F29831A828091F503843120F0893CA1
:104E000018F088EC01C084E18C838B8396014A8181
:104E100069818881EAD52FEFC21AD20A25968FE0E0
:104E2000C816D10409F09ACF5DDFCDB7DEB7EDE04B
:104E30000C94252F0F931F93CF93DF938C01C0E029
:104E4000D0E0F8018481C730D1051CF4882339F003
:104E500002C0811104C09E014091F50302C09E0171
:104E600040E06091F4038091F303BFD52196CF30E9
:104E7000D10539F737DFF801848190E00196817020
:104E800099278483DF91CF911F910F910895A0E01E
:104E9000B0E0ECE4F7E2BEC7EC014C81042F10E077
:104EA0009801D8010E941E309B01AC010E94EC2F9A
:104EB0006B017C01E0E2F0E0E01BF10BA5E5B0E066
:104EC0009B01AC010E94EC2F4B015C019F01DF01B3
:104ED0000E945F309B01AC010E94F62F9B01AC0148
:104EE0002C0D3D1D4E1D5F1DC501B4010E94FC2F00
:104EF000822F022F2A3228F493E0299F9001112457
:104F00000DC025E530E0281B3109C901880F991F24
:104F1000280F391F37FF02C02F5F3F4F3595279568
:104F2000122F1095E12CF12C85E5D82ED01AE1FC3A
:104F300002C08D2D01C0802F9701412F6091F40395
:104F400054D58FEFE81AF80A9FE0E916F10479F7D3
:104F5000C9DE8C81811102C091E003C0803219F456
:104F60009FEF9093590190915901890F8C83CDB790
:104F7000DEB7ECE06BC7CF93DF93C0E0D0E020E07A
:104F800040E060E0CE010E94040D2196CF30D105B3
:104F9000B1F7C0E0D0E080910304082E000C990B1B
:104FA000C817D9078CF080915801082E000C990B76
:104FB0008C179D074CF09E014091F5036091F4031E
:104FC0008091F30312D506C020E040E060E0CE01FE
:104FD0000E94040D2196CF30D105E9F683DE809141
:104FE000570190910304980F909303042091580166
:104FF000280F20935801121614F49E301CF081954E
:1050000080935701DF91CF910895A0E0B0E0EAE0EE
:10501000F8E205C7FC01828180FF03C0FF24FA94F7
:1050200002C0FF24F394C0E0D0E09FE0D92E20E03E
:1050300040E060E0CE010E94040D04E010E0E12CAD
:10504000809102048E0D80312CF06D2D0E9439303C
:10505000892F02C087FD815F082E000C990BC817AD
:10506000D90789F48091F503809FA001819F500D9D
:10507000112455954795559547959E016091F403E8
:105080008091F303B2D4EF0C01501109C9F62196B7
:10509000CF30D10561F626DE80910204F1E0FF12E7
:1050A00006C0811102C08EE006C0815004C090E0AD
:1050B0000196BE01EBD780930204CDB7DEB7E7E0DF
:1050C000CAC6EF92FF921F93CF93DF93EC0110E0DB
:1050D000E12CF12C8C8197014091F5036091F40350
:1050E000810F83D48FEFE81AF80A1F5E1F3F91F7F4
:1050F000F9DD9A818C8190FF02C08F5F01C08150E1
:105100008C83DF91CF911F91FF90EF900895FF92D4
:105110000F931F93CF93DF939091F20390FF10C0F2
:10512000F42E062F182FC0E0D0E02F2D402F612F36
:10513000CE010E94040D2196CF30D105B1F7D2DD0A
:10514000CDB7DEB7E5E089C6CF93DF93EC014091A0
:10515000F5039C8190FF02C0842F01C080E091FF85
:1051600002C0642F01C060E092FF40E0D0DF8C817C
:1051700090E00196877099278C83DF91CF910895F5
:105180009091F20390FF09C0762F682F842FA7D348
:10519000962F672F482F892FBACF0895CF93DF938B
:1051A000EC01E2EFF3E0438162818C81E9DF8C81E5
:1051B0008F5F8C83DF91CF910895CF93DF93EC01C4
:1051C000EC81F0E0E75AF64F4491E2EFF3E06281C0
:1051D0008181D6DF8C818F5F8C83DF91CF910895A1
:1051E000A0E0B0E0E5EFF8E214C6182FD62E042FA9
:1051F000C22E9091F20390FF59C0E92FE695E695F3
:10520000AE2FB0E0AB54BE4F8C91809300049C7FD6
:10521000943051F4612F7D2D842F61D3962F672F09
:10522000482F892F74DF37C0823019F40091F503BD
:1052300032C0863019F41091F3032DC08930D9F3B0
:10524000893149F5E9518E2F8170782EE695F0E08D
:10525000EC5AF64FE491CE2FD0E0A12CB12CE12CEA
:10526000F12C8FE0882E912CC501B401B9D5812F86
:10527000711002C0860F01C0861B9701402F6D2D53
:10528000B4D38FEFE81AF80AAC0EBD1E8FE0E81613
:10529000F10451F727DD1093F303D092F403009348
:1052A000F503CC2019F082EF93E028D9CDB7DEB713
:1052B000EDE0CBC520E094CF8091F603882319F070
:1052C00081508093F60382EF93E018C98091F60332
:1052D000833018F48F5F8093F60382EF93E00EC95A
:1052E0006091F2036695669570E04BE050E08CE4C7
:1052F00091E028D7892B19F481E0809301040E9462
:10530000341A9093FB038093FA030895A0E0B0E071
:10531000EBE8F9E282C57C010091A2021091A302A0
:105320008091770290917802082B192BCFE0D0E082
:10533000CC24C394D12CC6010C2E02C0880F991F17
:105340000A94E2F780239123892B21F4219798F77F
:10535000B12C09C0BC2EB7018C2F0E94B41D0E9435
:10536000D11D019799F38B2DCDB7DEB7E9E071C55B
:10537000CF93DF93EC01CADFBE010E94B41D0E94EF
:10538000D11DDF91CF9108959E3078F5863068F574
:10539000E82FF0E086E0989FE00DF11D11249E2F8C
:1053A000977083E0F695E7958A95E1F7EE0FFF1F7A
:1053B000EE0FFF1FE15BFB4F40E050E080E02191EA
:1053C00030E0092E02C0369527950A94E2F7217045
:1053D0003327042E01C0220F0A94EAF7822B4F5F75
:1053E0005F4F4430510559F7089580E008959E308D
:1053F00088F5863078F5E82FF0E086E0989FE00D9C
:10540000F11D11248E2F877051E001C0550F8A9530
:10541000EAF783E0F695E7958A95E1F7EE0FFF1F2F
:10542000EE0FFF1FE15BFB4F20E030E070E04081BA
:10543000CB01022E02C0969587950A94E2F78170FF
:10544000819584278523842781932F5F3F4F2430C4
:10545000310569F708950E94FE0E9093A302809390
:10546000A202089521E030E002C0220F331F8A9586
:10547000E2F7209530958091A2029091A3028223B9
:105480009323E9CF21E030E002C0220F331F8A9539
:10549000E2F78091A2029091A302822B932BDBCFA3
:1054A0009093780280937702089592959F7096303A
:1054B00079F010F4925001C09A50923068F4803F15
:1054C00069F018F4883E40F409C0843F29F406C00E
:1054D000883E20F0813F11F080E0089581E008953A
:1054E000FC012481222359F087819085009719F0CF
:1054F0000E94D11D03C0808191813ADFD6CF80E028
:1055000008951092460380914A01813041F48091C0
:105510004F0387FF04C08EE1EEEAF2E003C086E0AD
:10552000E6EAF2E0DF011D928A95E9F780E090E07B
:105530000E94FE1A80E090E00E94D71A1092450364
:105540000C942922A2E1B0E0E7EAFAE26BC40A87F0
:105550001B872C873D874E875F87688B798B8A8B6B
:10556000CE010A960E94921F81113AC089E0FE0185
:105570003A96DE01119601900D928A95E1F76E85BB
:10558000662371F12091600330E0C90101968770B4
:1055900099274091A90350E084179507A1F06D83E6
:1055A00099E0929FD001939FB00D1124AF59BC4F49
:1055B000FE01319601900D929A95E1F78093600378
:1055C0000E94301F0DC09DDF109260031092A9034E
:1055D000E7E5F3E089E0DF011D928A95E9F719C05C
:1055E00019E08091A90390916003891791F0189FA9
:1055F000C00111248F599C4F0E94921F882349F0AB
:105600008091A90390E00196877099278093A90360
:10561000E8CF6296E4E022C4882321F00E94F11EC4
:105620000C9429220895882339F090914503892B01
:10563000809345030C9429220895882321F00E9429
:10564000F81E0C9429220895882339F0909146037E
:10565000892B809346030C9429220895882329F1ED
:105660009CEF980F913A18F40E94721A0DC090E2C4
:10567000980F983058F4877091E001C0990F8A957F
:10568000EAF7892F0E94F81E0C9429229BE5980FB7
:10569000933020F480E090E00C94FE1A885A8B310D
:1056A00020F480E090E00C94D71A0895CF938823DB
:1056B00009F465C0C82F8CEF8C0F813AA0F580915A
:1056C0004A018130E1F480914F0387FF18C0EC2F2D
:1056D000E695E695E695F0E0E455FD4F8281282FAA
:1056E00030E04C2F477081E090E002C0880F991F96
:1056F0004A95E2F782239323892B61F410C0E6EAEE
:10570000F2E08CEA92E02191C21721F08E179F07F8
:10571000D1F705C08C2F0E94721A0E9429228C2F6B
:105720000E94A01A10C080E28C0F883078F4C770F5
:1057300081E090E001C0880FCA95EAF79091460396
:10574000892B809346030E94292219C0EBE5EC0FB8
:10575000E33040F4F0E0E458FE4F808190E00E9496
:10576000FE1A0DC0C85ACB3150F4EC2FF0E0EE0F0A
:10577000FF1FE158FE4F808191810E94D71ACF917F
:1057800008951F93CF93DF93182FEB018FDF20979E
:1057900041F08FE99FE00197F1F700C000002197E9
:1057A000F6CF812F5BDFDF91CF911F910895E2EF5C
:1057B000F3E043812CE0421B08F440E021E06281E9
:1057C00081810ECDE2EFF3E043812CE0420F08F43B
:1057D0004FEF21E06281818103CDE2EFF3E062814E
:1057E0002FEF621B08F460E021E043818181F8CC57
:1057F000E2EFF3E062812FEF620F08F46FEF21E038
:1058000043818181EDCCE2EFF3E0818121E04381AE
:1058100062818C50E5CCE2EFF3E0818121E04381AD
:105820006281845FDDCC9091F20390FF2EC0937073
:10583000811102C0946007C08B3210F0986A03C0D7
:10584000880F880F982B9093F203662321F082EF44
:1058500093E00E947E226091F2036695669570E067
:105860004BE050E08CE491E06DD4892B19F010925C
:10587000010401C035DD81E08093FD034091F50313
:105880006091F4038091F30315CD089560E0CBCFD0
:10589000E2EFF3E080818160808386958695F6CF84
:1058A0008091F20386958695815009F48AE261E041
:1058B000BACF8091F203869586958F5F8B3208F080
:1058C00081E061E0B0CFE2EFF3E085E28083118216
:1058D0008FEF828383831482CF010C947E22A0E019
:1058E000B0E0E4E7FCE29AC27B01E82FF0E0F110BF
:1058F00006C0E75AF54F8491782F682F72C02F2D7C
:1059000030E0E75AF54FE491FE2F0E2F10E046E00D
:10591000649FC0011124CFEFD0E0BE0161D2AB0182
:105920006BEA6403C001659F900D11248E0D911DDB
:105930008E0D911D982F990F980FBE01621B730B4E
:10594000609FD001619FB00D709FB00D11248B2F0F
:10595000F99EB0011124672F77277E01E61AF70A16
:10596000B701609F7001619FF00C709FF00C1124D3
:105970006E01C91AD108C29EB001C39E700DD29E9D
:10598000700D1124272F3327C21BD30BC09F90010A
:10599000C19F300DD09F300D1124732F423051051F
:1059A00091F048F441155105D9F041305105B1F459
:1059B0007E2FEF2D15C04430510561F040F0463088
:1059C000510571F00BC0EB2F832F7F2F09C07F2D66
:1059D000EB2F02C0E32F7B2F8F2F02C07B2F8F2D49
:1059E0006E2FCDB7DEB7E8E035C2CF93762FC22F4A
:1059F000682F842F74DF472F282F8C2F90E00E9470
:105A0000040DCF910895EF92FF920F931F93CF93C0
:105A1000DF93182FEB011092BC0084EA8093BC0046
:105A20000E94341A7C018091BC0087FD0DC0CF3FDD
:105A30008FEFD807C1F3C7010E94691AC817D907A9
:105A400090F78EEF9FEF2DC08091B900887F88304E
:105A500041F08091B900887F803119F08FEF9FEF7E
:105A600020C01093BB0084E88093BC000E94341ACD
:105A70008C018091BC0087FD0BC0CF3F8FEFD80712
:105A8000C1F3C8010E94691AC817D90790F7D9CF86
:105A90008091B900887F883111F08034F9F680E078
:105AA00090E0CDB7DEB7E6E0D7C11092B9008CE048
:105AB0008093B80008950F931F93CF93DF93EB016A
:105AC0008093BB0084E88093BC000E94341A8C0150
:105AD0008091BC0087FD0DC0CF3F8FEFD807C1F389
